{
	"contracts/LandFiStake.sol": {
		"LandFiStaking": {
			"abi": [
				{
					"inputs": [],
					"stateMutability": "nonpayable",
					"type": "constructor"
				},
				{
					"anonymous": false,
					"inputs": [
						{
							"indexed": true,
							"internalType": "address",
							"name": "previousOwner",
							"type": "address"
						},
						{
							"indexed": true,
							"internalType": "address",
							"name": "newOwner",
							"type": "address"
						}
					],
					"name": "OwnershipTransferred",
					"type": "event"
				},
				{
					"inputs": [
						{
							"internalType": "uint256",
							"name": "tokenAmount",
							"type": "uint256"
						},
						{
							"internalType": "uint256",
							"name": "boxNo",
							"type": "uint256"
						}
					],
					"name": "addStake",
					"outputs": [],
					"stateMutability": "nonpayable",
					"type": "function"
				},
				{
					"inputs": [
						{
							"internalType": "address",
							"name": "walletAddress",
							"type": "address"
						}
					],
					"name": "balanceOf",
					"outputs": [
						{
							"internalType": "uint256",
							"name": "",
							"type": "uint256"
						}
					],
					"stateMutability": "view",
					"type": "function"
				},
				{
					"inputs": [
						{
							"internalType": "address",
							"name": "",
							"type": "address"
						}
					],
					"name": "box1Balance",
					"outputs": [
						{
							"internalType": "uint256",
							"name": "",
							"type": "uint256"
						}
					],
					"stateMutability": "view",
					"type": "function"
				},
				{
					"inputs": [
						{
							"internalType": "address",
							"name": "",
							"type": "address"
						}
					],
					"name": "box1DepositDate",
					"outputs": [
						{
							"internalType": "uint256",
							"name": "",
							"type": "uint256"
						}
					],
					"stateMutability": "view",
					"type": "function"
				},
				{
					"inputs": [],
					"name": "box1Enabled",
					"outputs": [
						{
							"internalType": "bool",
							"name": "",
							"type": "bool"
						}
					],
					"stateMutability": "view",
					"type": "function"
				},
				{
					"inputs": [],
					"name": "box1Rate",
					"outputs": [
						{
							"internalType": "uint256",
							"name": "",
							"type": "uint256"
						}
					],
					"stateMutability": "view",
					"type": "function"
				},
				{
					"inputs": [],
					"name": "box1Time",
					"outputs": [
						{
							"internalType": "uint256",
							"name": "",
							"type": "uint256"
						}
					],
					"stateMutability": "view",
					"type": "function"
				},
				{
					"inputs": [
						{
							"internalType": "address",
							"name": "",
							"type": "address"
						}
					],
					"name": "box2Balance",
					"outputs": [
						{
							"internalType": "uint256",
							"name": "",
							"type": "uint256"
						}
					],
					"stateMutability": "view",
					"type": "function"
				},
				{
					"inputs": [
						{
							"internalType": "address",
							"name": "",
							"type": "address"
						}
					],
					"name": "box2DepositDate",
					"outputs": [
						{
							"internalType": "uint256",
							"name": "",
							"type": "uint256"
						}
					],
					"stateMutability": "view",
					"type": "function"
				},
				{
					"inputs": [],
					"name": "box2Enabled",
					"outputs": [
						{
							"internalType": "bool",
							"name": "",
							"type": "bool"
						}
					],
					"stateMutability": "view",
					"type": "function"
				},
				{
					"inputs": [],
					"name": "box2Rate",
					"outputs": [
						{
							"internalType": "uint256",
							"name": "",
							"type": "uint256"
						}
					],
					"stateMutability": "view",
					"type": "function"
				},
				{
					"inputs": [],
					"name": "box2Time",
					"outputs": [
						{
							"internalType": "uint256",
							"name": "",
							"type": "uint256"
						}
					],
					"stateMutability": "view",
					"type": "function"
				},
				{
					"inputs": [
						{
							"internalType": "address",
							"name": "",
							"type": "address"
						}
					],
					"name": "box3Balance",
					"outputs": [
						{
							"internalType": "uint256",
							"name": "",
							"type": "uint256"
						}
					],
					"stateMutability": "view",
					"type": "function"
				},
				{
					"inputs": [
						{
							"internalType": "address",
							"name": "",
							"type": "address"
						}
					],
					"name": "box3DepositDate",
					"outputs": [
						{
							"internalType": "uint256",
							"name": "",
							"type": "uint256"
						}
					],
					"stateMutability": "view",
					"type": "function"
				},
				{
					"inputs": [],
					"name": "box3Enabled",
					"outputs": [
						{
							"internalType": "bool",
							"name": "",
							"type": "bool"
						}
					],
					"stateMutability": "view",
					"type": "function"
				},
				{
					"inputs": [],
					"name": "box3Rate",
					"outputs": [
						{
							"internalType": "uint256",
							"name": "",
							"type": "uint256"
						}
					],
					"stateMutability": "view",
					"type": "function"
				},
				{
					"inputs": [],
					"name": "box3Time",
					"outputs": [
						{
							"internalType": "uint256",
							"name": "",
							"type": "uint256"
						}
					],
					"stateMutability": "view",
					"type": "function"
				},
				{
					"inputs": [
						{
							"internalType": "address",
							"name": "",
							"type": "address"
						}
					],
					"name": "box4Balance",
					"outputs": [
						{
							"internalType": "uint256",
							"name": "",
							"type": "uint256"
						}
					],
					"stateMutability": "view",
					"type": "function"
				},
				{
					"inputs": [
						{
							"internalType": "address",
							"name": "",
							"type": "address"
						}
					],
					"name": "box4DepositDate",
					"outputs": [
						{
							"internalType": "uint256",
							"name": "",
							"type": "uint256"
						}
					],
					"stateMutability": "view",
					"type": "function"
				},
				{
					"inputs": [],
					"name": "box4Enabled",
					"outputs": [
						{
							"internalType": "bool",
							"name": "",
							"type": "bool"
						}
					],
					"stateMutability": "view",
					"type": "function"
				},
				{
					"inputs": [],
					"name": "box4Rate",
					"outputs": [
						{
							"internalType": "uint256",
							"name": "",
							"type": "uint256"
						}
					],
					"stateMutability": "view",
					"type": "function"
				},
				{
					"inputs": [],
					"name": "box4Time",
					"outputs": [
						{
							"internalType": "uint256",
							"name": "",
							"type": "uint256"
						}
					],
					"stateMutability": "view",
					"type": "function"
				},
				{
					"inputs": [
						{
							"internalType": "bool",
							"name": "newBox1Status",
							"type": "bool"
						}
					],
					"name": "changeBox1Status",
					"outputs": [],
					"stateMutability": "nonpayable",
					"type": "function"
				},
				{
					"inputs": [
						{
							"internalType": "bool",
							"name": "newBox2Status",
							"type": "bool"
						}
					],
					"name": "changeBox2Status",
					"outputs": [],
					"stateMutability": "nonpayable",
					"type": "function"
				},
				{
					"inputs": [
						{
							"internalType": "bool",
							"name": "newBox3Status",
							"type": "bool"
						}
					],
					"name": "changeBox3Status",
					"outputs": [],
					"stateMutability": "nonpayable",
					"type": "function"
				},
				{
					"inputs": [
						{
							"internalType": "bool",
							"name": "newBox4Status",
							"type": "bool"
						}
					],
					"name": "changeBox4Status",
					"outputs": [],
					"stateMutability": "nonpayable",
					"type": "function"
				},
				{
					"inputs": [
						{
							"internalType": "bool",
							"name": "newFullUnlock",
							"type": "bool"
						}
					],
					"name": "changeFullUnlock",
					"outputs": [],
					"stateMutability": "nonpayable",
					"type": "function"
				},
				{
					"inputs": [
						{
							"internalType": "uint256",
							"name": "newMaxRewardDue",
							"type": "uint256"
						}
					],
					"name": "changeMaxRewardDue",
					"outputs": [],
					"stateMutability": "nonpayable",
					"type": "function"
				},
				{
					"inputs": [
						{
							"internalType": "uint256",
							"name": "newMaxStake",
							"type": "uint256"
						}
					],
					"name": "changeMaxStake",
					"outputs": [],
					"stateMutability": "nonpayable",
					"type": "function"
				},
				{
					"inputs": [
						{
							"internalType": "uint256",
							"name": "newMinStake",
							"type": "uint256"
						}
					],
					"name": "changeMinStake",
					"outputs": [],
					"stateMutability": "nonpayable",
					"type": "function"
				},
				{
					"inputs": [],
					"name": "fullUnlock",
					"outputs": [
						{
							"internalType": "bool",
							"name": "",
							"type": "bool"
						}
					],
					"stateMutability": "view",
					"type": "function"
				},
				{
					"inputs": [],
					"name": "maxRewardDue",
					"outputs": [
						{
							"internalType": "uint256",
							"name": "",
							"type": "uint256"
						}
					],
					"stateMutability": "view",
					"type": "function"
				},
				{
					"inputs": [],
					"name": "maxStake",
					"outputs": [
						{
							"internalType": "uint256",
							"name": "",
							"type": "uint256"
						}
					],
					"stateMutability": "view",
					"type": "function"
				},
				{
					"inputs": [],
					"name": "minStake",
					"outputs": [
						{
							"internalType": "uint256",
							"name": "",
							"type": "uint256"
						}
					],
					"stateMutability": "view",
					"type": "function"
				},
				{
					"inputs": [],
					"name": "owner",
					"outputs": [
						{
							"internalType": "address",
							"name": "",
							"type": "address"
						}
					],
					"stateMutability": "view",
					"type": "function"
				},
				{
					"inputs": [
						{
							"internalType": "uint256",
							"name": "boxNo",
							"type": "uint256"
						}
					],
					"name": "pullStake",
					"outputs": [],
					"stateMutability": "nonpayable",
					"type": "function"
				},
				{
					"inputs": [],
					"name": "renounceOwnership",
					"outputs": [],
					"stateMutability": "nonpayable",
					"type": "function"
				},
				{
					"inputs": [],
					"name": "rewardCount",
					"outputs": [
						{
							"internalType": "uint256",
							"name": "",
							"type": "uint256"
						}
					],
					"stateMutability": "view",
					"type": "function"
				},
				{
					"inputs": [],
					"name": "rewardCountDue",
					"outputs": [
						{
							"internalType": "uint256",
							"name": "",
							"type": "uint256"
						}
					],
					"stateMutability": "view",
					"type": "function"
				},
				{
					"inputs": [],
					"name": "rewardWallet",
					"outputs": [
						{
							"internalType": "address",
							"name": "",
							"type": "address"
						}
					],
					"stateMutability": "view",
					"type": "function"
				},
				{
					"inputs": [
						{
							"internalType": "address",
							"name": "walletAddress",
							"type": "address"
						},
						{
							"internalType": "uint256",
							"name": "boxNo",
							"type": "uint256"
						}
					],
					"name": "stakeAmount",
					"outputs": [
						{
							"internalType": "uint256",
							"name": "",
							"type": "uint256"
						}
					],
					"stateMutability": "view",
					"type": "function"
				},
				{
					"inputs": [
						{
							"internalType": "address",
							"name": "walletAddress",
							"type": "address"
						},
						{
							"internalType": "uint256",
							"name": "boxNo",
							"type": "uint256"
						}
					],
					"name": "stakeUnlockTime",
					"outputs": [
						{
							"internalType": "uint256",
							"name": "",
							"type": "uint256"
						}
					],
					"stateMutability": "view",
					"type": "function"
				},
				{
					"inputs": [],
					"name": "stakeWallet",
					"outputs": [
						{
							"internalType": "address",
							"name": "",
							"type": "address"
						}
					],
					"stateMutability": "view",
					"type": "function"
				},
				{
					"inputs": [],
					"name": "tokenAddress",
					"outputs": [
						{
							"internalType": "address",
							"name": "",
							"type": "address"
						}
					],
					"stateMutability": "view",
					"type": "function"
				},
				{
					"inputs": [],
					"name": "totalStaked",
					"outputs": [
						{
							"internalType": "uint256",
							"name": "",
							"type": "uint256"
						}
					],
					"stateMutability": "view",
					"type": "function"
				},
				{
					"inputs": [
						{
							"internalType": "address",
							"name": "newOwner",
							"type": "address"
						}
					],
					"name": "transferOwnership",
					"outputs": [],
					"stateMutability": "nonpayable",
					"type": "function"
				}
			],
			"devdoc": {
				"kind": "dev",
				"methods": {
					"owner()": {
						"details": "Returns the address of the current owner."
					},
					"renounceOwnership()": {
						"details": "Leaves the contract without owner. It will not be possible to call `onlyOwner` functions anymore. Can only be called by the current owner. NOTE: Renouncing ownership will leave the contract without an owner, thereby removing any functionality that is only available to the owner."
					},
					"transferOwnership(address)": {
						"details": "Transfers ownership of the contract to a new account (`newOwner`). Can only be called by the current owner."
					}
				},
				"version": 1
			},
			"evm": {
				"assembly": "    /* \"contracts/LandFiStake.sol\":654:11378  contract LandFiStaking is Ownable {... */\n  mstore(0x40, 0x80)\n    /* \"contracts/LandFiStake.sol\":2609:3598  constructor() {... */\n  callvalue\n  dup1\n  iszero\n  tag_1\n  jumpi\n  revert(0x00, 0x00)\ntag_1:\n  pop\n    /* \"contracts/access/Ownable.sol\":921:953  _transferOwnership(_msgSender()) */\n  tag_5\n    /* \"contracts/access/Ownable.sol\":940:952  _msgSender() */\n  tag_6\n    /* \"contracts/access/Ownable.sol\":940:950  _msgSender */\n  shl(0x20, tag_7)\n    /* \"contracts/access/Ownable.sol\":940:952  _msgSender() */\n  0x20\n  shr\n  jump\t// in\ntag_6:\n    /* \"contracts/access/Ownable.sol\":921:939  _transferOwnership */\n  shl(0x20, tag_8)\n    /* \"contracts/access/Ownable.sol\":921:953  _transferOwnership(_msgSender()) */\n  0x20\n  shr\n  jump\t// in\ntag_5:\n    /* \"contracts/LandFiStake.sol\":2651:2652  0 */\n  0x00\n    /* \"contracts/LandFiStake.sol\":2634:2648  rewardCountDue */\n  0x1a\n    /* \"contracts/LandFiStake.sol\":2634:2652  rewardCountDue = 0 */\n  dup2\n  swap1\n  sstore\n  pop\n    /* \"contracts/LandFiStake.sol\":2677:2678  0 */\n  0x00\n    /* \"contracts/LandFiStake.sol\":2663:2674  rewardCount */\n  0x1b\n    /* \"contracts/LandFiStake.sol\":2663:2678  rewardCount = 0 */\n  dup2\n  swap1\n  sstore\n  pop\n    /* \"contracts/LandFiStake.sol\":2703:2704  0 */\n  0x00\n    /* \"contracts/LandFiStake.sol\":2689:2700  totalStaked */\n  0x1c\n    /* \"contracts/LandFiStake.sol\":2689:2704  totalStaked = 0 */\n  dup2\n  swap1\n  sstore\n  pop\n    /* \"contracts/LandFiStake.sol\":2730:2751  400000000000000000000 */\n  0x15af1d78b58c400000\n    /* \"contracts/LandFiStake.sol\":2715:2723  maxStake */\n  0x15\n    /* \"contracts/LandFiStake.sol\":2715:2751  maxStake =     400000000000000000000 */\n  dup2\n  swap1\n  sstore\n  pop\n    /* \"contracts/LandFiStake.sol\":2785:2806  500000000000000000000 */\n  0x1b1ae4d6e2ef500000\n    /* \"contracts/LandFiStake.sol\":2770:2782  maxRewardDue */\n  0x1d\n    /* \"contracts/LandFiStake.sol\":2770:2806  maxRewardDue = 500000000000000000000 */\n  dup2\n  swap1\n  sstore\n  pop\n    /* \"contracts/LandFiStake.sol\":2840:2857  10000000000000000 */\n  0x2386f26fc10000\n    /* \"contracts/LandFiStake.sol\":2825:2833  minStake */\n  0x19\n    /* \"contracts/LandFiStake.sol\":2825:2857  minStake =     10000000000000000 */\n  dup2\n  swap1\n  sstore\n  pop\n    /* \"contracts/LandFiStake.sol\":2889:2931  0x439AaB0EFaa9a646D4885Fd8a245A501Ca3D3237 */\n  0x439aab0efaa9a646d4885fd8a245a501ca3d3237\n    /* \"contracts/LandFiStake.sol\":2875:2886  stakeWallet */\n  0x16\n  0x00\n    /* \"contracts/LandFiStake.sol\":2875:2931  stakeWallet = 0x439AaB0EFaa9a646D4885Fd8a245A501Ca3D3237 */\n  0x0100\n  exp\n  dup2\n  sload\n  dup2\n  0xffffffffffffffffffffffffffffffffffffffff\n  mul\n  not\n  and\n  swap1\n  dup4\n  0xffffffffffffffffffffffffffffffffffffffff\n  and\n  mul\n  or\n  swap1\n  sstore\n  pop\n    /* \"contracts/LandFiStake.sol\":2957:2999  0xb2C8CEc19bF5E73b28aa0193FFff124055413E2E */\n  0xb2c8cec19bf5e73b28aa0193ffff124055413e2e\n    /* \"contracts/LandFiStake.sol\":2942:2954  rewardWallet */\n  0x17\n  0x00\n    /* \"contracts/LandFiStake.sol\":2942:2999  rewardWallet = 0xb2C8CEc19bF5E73b28aa0193FFff124055413E2E */\n  0x0100\n  exp\n  dup2\n  sload\n  dup2\n  0xffffffffffffffffffffffffffffffffffffffff\n  mul\n  not\n  and\n  swap1\n  dup4\n  0xffffffffffffffffffffffffffffffffffffffff\n  and\n  mul\n  or\n  swap1\n  sstore\n  pop\n    /* \"contracts/LandFiStake.sol\":3025:3067  0x5c647208486231becCABAACf5F2B7358937D3b99 */\n  0x5c647208486231beccabaacf5f2b7358937d3b99\n    /* \"contracts/LandFiStake.sol\":3010:3022  tokenAddress */\n  0x18\n  0x00\n    /* \"contracts/LandFiStake.sol\":3010:3067  tokenAddress = 0x5c647208486231becCABAACf5F2B7358937D3b99 */\n  0x0100\n  exp\n  dup2\n  sload\n  dup2\n  0xffffffffffffffffffffffffffffffffffffffff\n  mul\n  not\n  and\n  swap1\n  dup4\n  0xffffffffffffffffffffffffffffffffffffffff\n  and\n  mul\n  or\n  swap1\n  sstore\n  pop\n    /* \"contracts/LandFiStake.sol\":3091:3096  false */\n  0x00\n    /* \"contracts/LandFiStake.sol\":3078:3088  fullUnlock */\n  0x1e\n  0x00\n    /* \"contracts/LandFiStake.sol\":3078:3096  fullUnlock = false */\n  0x0100\n  exp\n  dup2\n  sload\n  dup2\n  0xff\n  mul\n  not\n  and\n  swap1\n  dup4\n  iszero\n  iszero\n  mul\n  or\n  swap1\n  sstore\n  pop\n    /* \"contracts/LandFiStake.sol\":3138:3141  333 */\n  0x014d\n    /* \"contracts/LandFiStake.sol\":3127:3135  box1Rate */\n  0x03\n    /* \"contracts/LandFiStake.sol\":3127:3141  box1Rate = 333 */\n  dup2\n  swap1\n  sstore\n  pop\n    /* \"contracts/LandFiStake.sol\":3163:3169  604800 */\n  0x093a80\n    /* \"contracts/LandFiStake.sol\":3152:3160  box1Time */\n  0x04\n    /* \"contracts/LandFiStake.sol\":3152:3169  box1Time = 604800 */\n  dup2\n  swap1\n  sstore\n  pop\n    /* \"contracts/LandFiStake.sol\":3214:3218  true */\n  0x01\n    /* \"contracts/LandFiStake.sol\":3200:3211  box1Enabled */\n  0x05\n  0x00\n    /* \"contracts/LandFiStake.sol\":3200:3218  box1Enabled = true */\n  0x0100\n  exp\n  dup2\n  sload\n  dup2\n  0xff\n  mul\n  not\n  and\n  swap1\n  dup4\n  iszero\n  iszero\n  mul\n  or\n  swap1\n  sstore\n  pop\n    /* \"contracts/LandFiStake.sol\":3260:3262  83 */\n  0x53\n    /* \"contracts/LandFiStake.sol\":3249:3257  box2Rate */\n  0x08\n    /* \"contracts/LandFiStake.sol\":3249:3262  box2Rate = 83 */\n  dup2\n  swap1\n  sstore\n  pop\n    /* \"contracts/LandFiStake.sol\":3284:3291  1209600 */\n  0x127500\n    /* \"contracts/LandFiStake.sol\":3273:3281  box2Time */\n  0x09\n    /* \"contracts/LandFiStake.sol\":3273:3291  box2Time = 1209600 */\n  dup2\n  swap1\n  sstore\n  pop\n    /* \"contracts/LandFiStake.sol\":3338:3342  true */\n  0x01\n    /* \"contracts/LandFiStake.sol\":3324:3335  box2Enabled */\n  0x0a\n  0x00\n    /* \"contracts/LandFiStake.sol\":3324:3342  box2Enabled = true */\n  0x0100\n  exp\n  dup2\n  sload\n  dup2\n  0xff\n  mul\n  not\n  and\n  swap1\n  dup4\n  iszero\n  iszero\n  mul\n  or\n  swap1\n  sstore\n  pop\n    /* \"contracts/LandFiStake.sol\":3384:3386  32 */\n  0x20\n    /* \"contracts/LandFiStake.sol\":3373:3381  box3Rate */\n  0x0d\n    /* \"contracts/LandFiStake.sol\":3373:3386  box3Rate = 32 */\n  dup2\n  swap1\n  sstore\n  pop\n    /* \"contracts/LandFiStake.sol\":3408:3415  2419200 */\n  0x24ea00\n    /* \"contracts/LandFiStake.sol\":3397:3405  box3Time */\n  0x0e\n    /* \"contracts/LandFiStake.sol\":3397:3415  box3Time = 2419200 */\n  dup2\n  swap1\n  sstore\n  pop\n    /* \"contracts/LandFiStake.sol\":3462:3466  true */\n  0x01\n    /* \"contracts/LandFiStake.sol\":3448:3459  box3Enabled */\n  0x0f\n  0x00\n    /* \"contracts/LandFiStake.sol\":3448:3466  box3Enabled = true */\n  0x0100\n  exp\n  dup2\n  sload\n  dup2\n  0xff\n  mul\n  not\n  and\n  swap1\n  dup4\n  iszero\n  iszero\n  mul\n  or\n  swap1\n  sstore\n  pop\n    /* \"contracts/LandFiStake.sol\":3508:3510  26 */\n  0x1a\n    /* \"contracts/LandFiStake.sol\":3497:3505  box4Rate */\n  0x12\n    /* \"contracts/LandFiStake.sol\":3497:3510  box4Rate = 26 */\n  dup2\n  swap1\n  sstore\n  pop\n    /* \"contracts/LandFiStake.sol\":3532:3539  2419200 */\n  0x24ea00\n    /* \"contracts/LandFiStake.sol\":3521:3529  box4Time */\n  0x13\n    /* \"contracts/LandFiStake.sol\":3521:3539  box4Time = 2419200 */\n  dup2\n  swap1\n  sstore\n  pop\n    /* \"contracts/LandFiStake.sol\":3586:3590  true */\n  0x01\n    /* \"contracts/LandFiStake.sol\":3572:3583  box4Enabled */\n  0x14\n  0x00\n    /* \"contracts/LandFiStake.sol\":3572:3590  box4Enabled = true */\n  0x0100\n  exp\n  dup2\n  sload\n  dup2\n  0xff\n  mul\n  not\n  and\n  swap1\n  dup4\n  iszero\n  iszero\n  mul\n  or\n  swap1\n  sstore\n  pop\n    /* \"contracts/LandFiStake.sol\":654:11378  contract LandFiStaking is Ownable {... */\n  jump(tag_10)\n    /* \"contracts/utils/Context.sol\":640:736  function _msgSender() internal view virtual returns (address) {... */\ntag_7:\n    /* \"contracts/utils/Context.sol\":693:700  address */\n  0x00\n    /* \"contracts/utils/Context.sol\":719:729  msg.sender */\n  caller\n    /* \"contracts/utils/Context.sol\":712:729  return msg.sender */\n  swap1\n  pop\n    /* \"contracts/utils/Context.sol\":640:736  function _msgSender() internal view virtual returns (address) {... */\n  swap1\n  jump\t// out\n    /* \"contracts/access/Ownable.sol\":2270:2457  function _transferOwnership(address newOwner) internal virtual {... */\ntag_8:\n    /* \"contracts/access/Ownable.sol\":2343:2359  address oldOwner */\n  0x00\n    /* \"contracts/access/Ownable.sol\":2362:2368  _owner */\n  0x00\n  0x00\n  swap1\n  sload\n  swap1\n  0x0100\n  exp\n  swap1\n  div\n  0xffffffffffffffffffffffffffffffffffffffff\n  and\n    /* \"contracts/access/Ownable.sol\":2343:2368  address oldOwner = _owner */\n  swap1\n  pop\n    /* \"contracts/access/Ownable.sol\":2387:2395  newOwner */\n  dup2\n    /* \"contracts/access/Ownable.sol\":2378:2384  _owner */\n  0x00\n  0x00\n    /* \"contracts/access/Ownable.sol\":2378:2395  _owner = newOwner */\n  0x0100\n  exp\n  dup2\n  sload\n  dup2\n  0xffffffffffffffffffffffffffffffffffffffff\n  mul\n  not\n  and\n  swap1\n  dup4\n  0xffffffffffffffffffffffffffffffffffffffff\n  and\n  mul\n  or\n  swap1\n  sstore\n  pop\n    /* \"contracts/access/Ownable.sol\":2441:2449  newOwner */\n  dup2\n    /* \"contracts/access/Ownable.sol\":2410:2450  OwnershipTransferred(oldOwner, newOwner) */\n  0xffffffffffffffffffffffffffffffffffffffff\n  and\n    /* \"contracts/access/Ownable.sol\":2431:2439  oldOwner */\n  dup2\n    /* \"contracts/access/Ownable.sol\":2410:2450  OwnershipTransferred(oldOwner, newOwner) */\n  0xffffffffffffffffffffffffffffffffffffffff\n  and\n  0x8be0079c531659141344cd1fd0a4f28419497f9722a3daafe3b4186f6b6457e0\n  mload(0x40)\n  mload(0x40)\n  dup1\n  swap2\n  sub\n  swap1\n  log3\n    /* \"contracts/access/Ownable.sol\":2333:2457  {... */\n  pop\n    /* \"contracts/access/Ownable.sol\":2270:2457  function _transferOwnership(address newOwner) internal virtual {... */\n  pop\n  jump\t// out\n    /* \"contracts/LandFiStake.sol\":654:11378  contract LandFiStaking is Ownable {... */\ntag_10:\n  dataSize(sub_0)\n  dup1\n  dataOffset(sub_0)\n  0x00\n  codecopy\n  0x00\n  return\nstop\n\nsub_0: assembly {\n        /* \"contracts/LandFiStake.sol\":654:11378  contract LandFiStaking is Ownable {... */\n      mstore(0x40, 0x80)\n      callvalue\n      dup1\n      iszero\n      tag_1\n      jumpi\n      revert(0x00, 0x00)\n    tag_1:\n      pop\n      jumpi(tag_2, lt(calldatasize, 0x04))\n      shr(0xe0, calldataload(0x00))\n      dup1\n      0x817b1cd2\n      gt\n      tag_49\n      jumpi\n      dup1\n      0xd0bcc009\n      gt\n      tag_50\n      jumpi\n      dup1\n      0xea1b28e0\n      gt\n      tag_51\n      jumpi\n      dup1\n      0xea1b28e0\n      eq\n      tag_43\n      jumpi\n      dup1\n      0xf1cddd55\n      eq\n      tag_44\n      jumpi\n      dup1\n      0xf2fde38b\n      eq\n      tag_45\n      jumpi\n      dup1\n      0xf908dc13\n      eq\n      tag_46\n      jumpi\n      dup1\n      0xfb75b2c7\n      eq\n      tag_47\n      jumpi\n      dup1\n      0xfd2b5202\n      eq\n      tag_48\n      jumpi\n      jump(tag_2)\n    tag_51:\n      dup1\n      0xd0bcc009\n      eq\n      tag_37\n      jumpi\n      dup1\n      0xd19b090e\n      eq\n      tag_38\n      jumpi\n      dup1\n      0xd47c56e5\n      eq\n      tag_39\n      jumpi\n      dup1\n      0xd5c41d69\n      eq\n      tag_40\n      jumpi\n      dup1\n      0xd7d4918e\n      eq\n      tag_41\n      jumpi\n      dup1\n      0xe7de2ceb\n      eq\n      tag_42\n      jumpi\n      jump(tag_2)\n    tag_50:\n      dup1\n      0x9d76ea58\n      gt\n      tag_52\n      jumpi\n      dup1\n      0x9d76ea58\n      eq\n      tag_31\n      jumpi\n      dup1\n      0xb39dc996\n      eq\n      tag_32\n      jumpi\n      dup1\n      0xbba4fefd\n      eq\n      tag_33\n      jumpi\n      dup1\n      0xbef7d12e\n      eq\n      tag_34\n      jumpi\n      dup1\n      0xc3630edb\n      eq\n      tag_35\n      jumpi\n      dup1\n      0xcd5692ee\n      eq\n      tag_36\n      jumpi\n      jump(tag_2)\n    tag_52:\n      dup1\n      0x817b1cd2\n      eq\n      tag_26\n      jumpi\n      dup1\n      0x89b0040a\n      eq\n      tag_27\n      jumpi\n      dup1\n      0x8a170ac1\n      eq\n      tag_28\n      jumpi\n      dup1\n      0x8da5cb5b\n      eq\n      tag_29\n      jumpi\n      dup1\n      0x94387289\n      eq\n      tag_30\n      jumpi\n      jump(tag_2)\n    tag_49:\n      dup1\n      0x4b0c10d8\n      gt\n      tag_53\n      jumpi\n      dup1\n      0x70a08231\n      gt\n      tag_54\n      jumpi\n      dup1\n      0x70a08231\n      eq\n      tag_20\n      jumpi\n      dup1\n      0x715018a6\n      eq\n      tag_21\n      jumpi\n      dup1\n      0x73dec718\n      eq\n      tag_22\n      jumpi\n      dup1\n      0x79085425\n      eq\n      tag_23\n      jumpi\n      dup1\n      0x798cbe5e\n      eq\n      tag_24\n      jumpi\n      dup1\n      0x7b3e920c\n      eq\n      tag_25\n      jumpi\n      jump(tag_2)\n    tag_54:\n      dup1\n      0x4b0c10d8\n      eq\n      tag_14\n      jumpi\n      dup1\n      0x4b5effc2\n      eq\n      tag_15\n      jumpi\n      dup1\n      0x4f51d090\n      eq\n      tag_16\n      jumpi\n      dup1\n      0x5cd5a159\n      eq\n      tag_17\n      jumpi\n      dup1\n      0x5f75bcea\n      eq\n      tag_18\n      jumpi\n      dup1\n      0x6cbde5cf\n      eq\n      tag_19\n      jumpi\n      jump(tag_2)\n    tag_53:\n      dup1\n      0x24ebd9d2\n      gt\n      tag_55\n      jumpi\n      dup1\n      0x24ebd9d2\n      eq\n      tag_8\n      jumpi\n      dup1\n      0x2e5f89ef\n      eq\n      tag_9\n      jumpi\n      dup1\n      0x35e63055\n      eq\n      tag_10\n      jumpi\n      dup1\n      0x375b3c0a\n      eq\n      tag_11\n      jumpi\n      dup1\n      0x38dc97fb\n      eq\n      tag_12\n      jumpi\n      dup1\n      0x4893afc1\n      eq\n      tag_13\n      jumpi\n      jump(tag_2)\n    tag_55:\n      dup1\n      0x058df0e8\n      eq\n      tag_3\n      jumpi\n      dup1\n      0x0f9154b5\n      eq\n      tag_4\n      jumpi\n      dup1\n      0x1d95985b\n      eq\n      tag_5\n      jumpi\n      dup1\n      0x1d95d52f\n      eq\n      tag_6\n      jumpi\n      dup1\n      0x23dcdb89\n      eq\n      tag_7\n      jumpi\n    tag_2:\n      revert(0x00, 0x00)\n        /* \"contracts/LandFiStake.sol\":994:1041  mapping (address => uint256) public box2Balance */\n    tag_3:\n      tag_56\n      0x04\n      dup1\n      calldatasize\n      sub\n      dup2\n      add\n      swap1\n      tag_57\n      swap2\n      swap1\n      tag_58\n      jump\t// in\n    tag_57:\n      tag_59\n      jump\t// in\n    tag_56:\n      mload(0x40)\n      tag_60\n      swap2\n      swap1\n      tag_61\n      jump\t// in\n    tag_60:\n      mload(0x40)\n      dup1\n      swap2\n      sub\n      swap1\n      return\n        /* \"contracts/LandFiStake.sol\":1858:1884  address public stakeWallet */\n    tag_4:\n      tag_62\n      tag_63\n      jump\t// in\n    tag_62:\n      mload(0x40)\n      tag_64\n      swap2\n      swap1\n      tag_65\n      jump\t// in\n    tag_64:\n      mload(0x40)\n      dup1\n      swap2\n      sub\n      swap1\n      return\n        /* \"contracts/LandFiStake.sol\":1354:1377  uint256 public box3Time */\n    tag_5:\n      tag_66\n      tag_67\n      jump\t// in\n    tag_66:\n      mload(0x40)\n      tag_68\n      swap2\n      swap1\n      tag_61\n      jump\t// in\n    tag_68:\n      mload(0x40)\n      dup1\n      swap2\n      sub\n      swap1\n      return\n        /* \"contracts/LandFiStake.sol\":3975:4092  function changeBox4Status(bool newBox4Status) public virtual onlyOwner {... */\n    tag_6:\n      tag_69\n      0x04\n      dup1\n      calldatasize\n      sub\n      dup2\n      add\n      swap1\n      tag_70\n      swap2\n      swap1\n      tag_71\n      jump\t// in\n    tag_70:\n      tag_72\n      jump\t// in\n    tag_69:\n      stop\n        /* \"contracts/LandFiStake.sol\":4348:4459  function changeMinStake(uint256 newMinStake) public virtual onlyOwner {... */\n    tag_7:\n      tag_73\n      0x04\n      dup1\n      calldatasize\n      sub\n      dup2\n      add\n      swap1\n      tag_74\n      swap2\n      swap1\n      tag_75\n      jump\t// in\n    tag_74:\n      tag_76\n      jump\t// in\n    tag_73:\n      stop\n        /* \"contracts/LandFiStake.sol\":1430:1477  mapping (address => uint256) public box4Balance */\n    tag_8:\n      tag_77\n      0x04\n      dup1\n      calldatasize\n      sub\n      dup2\n      add\n      swap1\n      tag_78\n      swap2\n      swap1\n      tag_58\n      jump\t// in\n    tag_78:\n      tag_79\n      jump\t// in\n    tag_77:\n      mload(0x40)\n      tag_80\n      swap2\n      swap1\n      tag_61\n      jump\t// in\n    tag_80:\n      mload(0x40)\n      dup1\n      swap2\n      sub\n      swap1\n      return\n        /* \"contracts/LandFiStake.sol\":1212:1259  mapping (address => uint256) public box3Balance */\n    tag_9:\n      tag_81\n      0x04\n      dup1\n      calldatasize\n      sub\n      dup2\n      add\n      swap1\n      tag_82\n      swap2\n      swap1\n      tag_58\n      jump\t// in\n    tag_82:\n      tag_83\n      jump\t// in\n    tag_81:\n      mload(0x40)\n      tag_84\n      swap2\n      swap1\n      tag_61\n      jump\t// in\n    tag_84:\n      mload(0x40)\n      dup1\n      swap2\n      sub\n      swap1\n      return\n        /* \"contracts/LandFiStake.sol\":8453:11373  function pullStake(uint256 boxNo) public {... */\n    tag_10:\n      tag_85\n      0x04\n      dup1\n      calldatasize\n      sub\n      dup2\n      add\n      swap1\n      tag_86\n      swap2\n      swap1\n      tag_75\n      jump\t// in\n    tag_86:\n      tag_87\n      jump\t// in\n    tag_85:\n      stop\n        /* \"contracts/LandFiStake.sol\":2108:2131  uint256 public minStake */\n    tag_11:\n      tag_88\n      tag_89\n      jump\t// in\n    tag_88:\n      mload(0x40)\n      tag_90\n      swap2\n      swap1\n      tag_61\n      jump\t// in\n    tag_90:\n      mload(0x40)\n      dup1\n      swap2\n      sub\n      swap1\n      return\n        /* \"contracts/LandFiStake.sol\":1484:1535  mapping (address => uint256) public box4DepositDate */\n    tag_12:\n      tag_91\n      0x04\n      dup1\n      calldatasize\n      sub\n      dup2\n      add\n      swap1\n      tag_92\n      swap2\n      swap1\n      tag_58\n      jump\t// in\n    tag_92:\n      tag_93\n      jump\t// in\n    tag_91:\n      mload(0x40)\n      tag_94\n      swap2\n      swap1\n      tag_61\n      jump\t// in\n    tag_94:\n      mload(0x40)\n      dup1\n      swap2\n      sub\n      swap1\n      return\n        /* \"contracts/LandFiStake.sol\":776:823  mapping (address => uint256) public box1Balance */\n    tag_13:\n      tag_95\n      0x04\n      dup1\n      calldatasize\n      sub\n      dup2\n      add\n      swap1\n      tag_96\n      swap2\n      swap1\n      tag_58\n      jump\t// in\n    tag_96:\n      tag_97\n      jump\t// in\n    tag_95:\n      mload(0x40)\n      tag_98\n      swap2\n      swap1\n      tag_61\n      jump\t// in\n    tag_98:\n      mload(0x40)\n      dup1\n      swap2\n      sub\n      swap1\n      return\n        /* \"contracts/LandFiStake.sol\":918:941  uint256 public box1Time */\n    tag_14:\n      tag_99\n      tag_100\n      jump\t// in\n    tag_99:\n      mload(0x40)\n      tag_101\n      swap2\n      swap1\n      tag_61\n      jump\t// in\n    tag_101:\n      mload(0x40)\n      dup1\n      swap2\n      sub\n      swap1\n      return\n        /* \"contracts/LandFiStake.sol\":5398:5860  function stakeAmount(address walletAddress, uint256 boxNo) public view returns (uint256) {... */\n    tag_15:\n      tag_102\n      0x04\n      dup1\n      calldatasize\n      sub\n      dup2\n      add\n      swap1\n      tag_103\n      swap2\n      swap1\n      tag_104\n      jump\t// in\n    tag_103:\n      tag_105\n      jump\t// in\n    tag_102:\n      mload(0x40)\n      tag_106\n      swap2\n      swap1\n      tag_61\n      jump\t// in\n    tag_106:\n      mload(0x40)\n      dup1\n      swap2\n      sub\n      swap1\n      return\n        /* \"contracts/LandFiStake.sol\":830:881  mapping (address => uint256) public box1DepositDate */\n    tag_16:\n      tag_107\n      0x04\n      dup1\n      calldatasize\n      sub\n      dup2\n      add\n      swap1\n      tag_108\n      swap2\n      swap1\n      tag_58\n      jump\t// in\n    tag_108:\n      tag_109\n      jump\t// in\n    tag_107:\n      mload(0x40)\n      tag_110\n      swap2\n      swap1\n      tag_61\n      jump\t// in\n    tag_110:\n      mload(0x40)\n      dup1\n      swap2\n      sub\n      swap1\n      return\n        /* \"contracts/LandFiStake.sol\":1602:1625  bool public box4Enabled */\n    tag_17:\n      tag_111\n      tag_112\n      jump\t// in\n    tag_111:\n      mload(0x40)\n      tag_113\n      swap2\n      swap1\n      tag_114\n      jump\t// in\n    tag_113:\n      mload(0x40)\n      dup1\n      swap2\n      sub\n      swap1\n      return\n        /* \"contracts/LandFiStake.sol\":3729:3846  function changeBox2Status(bool newBox2Status) public virtual onlyOwner {... */\n    tag_18:\n      tag_115\n      0x04\n      dup1\n      calldatasize\n      sub\n      dup2\n      add\n      swap1\n      tag_116\n      swap2\n      swap1\n      tag_71\n      jump\t// in\n    tag_116:\n      tag_117\n      jump\t// in\n    tag_115:\n      stop\n        /* \"contracts/LandFiStake.sol\":3606:3723  function changeBox1Status(bool newBox1Status) public virtual onlyOwner {... */\n    tag_19:\n      tag_118\n      0x04\n      dup1\n      calldatasize\n      sub\n      dup2\n      add\n      swap1\n      tag_119\n      swap2\n      swap1\n      tag_71\n      jump\t// in\n    tag_119:\n      tag_120\n      jump\t// in\n    tag_118:\n      stop\n        /* \"contracts/LandFiStake.sol\":4595:4844  function balanceOf(address walletAddress) public view returns (uint256) {... */\n    tag_20:\n      tag_121\n      0x04\n      dup1\n      calldatasize\n      sub\n      dup2\n      add\n      swap1\n      tag_122\n      swap2\n      swap1\n      tag_58\n      jump\t// in\n    tag_122:\n      tag_123\n      jump\t// in\n    tag_121:\n      mload(0x40)\n      tag_124\n      swap2\n      swap1\n      tag_61\n      jump\t// in\n    tag_124:\n      mload(0x40)\n      dup1\n      swap2\n      sub\n      swap1\n      return\n        /* \"contracts/access/Ownable.sol\":1668:1769  function renounceOwnership() public virtual onlyOwner {... */\n    tag_21:\n      tag_125\n      tag_126\n      jump\t// in\n    tag_125:\n      stop\n        /* \"contracts/LandFiStake.sol\":1166:1189  bool public box2Enabled */\n    tag_22:\n      tag_127\n      tag_128\n      jump\t// in\n    tag_127:\n      mload(0x40)\n      tag_129\n      swap2\n      swap1\n      tag_114\n      jump\t// in\n    tag_129:\n      mload(0x40)\n      dup1\n      swap2\n      sub\n      swap1\n      return\n        /* \"contracts/LandFiStake.sol\":2272:2298  uint256 public rewardCount */\n    tag_23:\n      tag_130\n      tag_131\n      jump\t// in\n    tag_130:\n      mload(0x40)\n      tag_132\n      swap2\n      swap1\n      tag_61\n      jump\t// in\n    tag_132:\n      mload(0x40)\n      dup1\n      swap2\n      sub\n      swap1\n      return\n        /* \"contracts/LandFiStake.sol\":1572:1595  uint256 public box4Time */\n    tag_24:\n      tag_133\n      tag_134\n      jump\t// in\n    tag_133:\n      mload(0x40)\n      tag_135\n      swap2\n      swap1\n      tag_61\n      jump\t// in\n    tag_135:\n      mload(0x40)\n      dup1\n      swap2\n      sub\n      swap1\n      return\n        /* \"contracts/LandFiStake.sol\":1048:1099  mapping (address => uint256) public box2DepositDate */\n    tag_25:\n      tag_136\n      0x04\n      dup1\n      calldatasize\n      sub\n      dup2\n      add\n      swap1\n      tag_137\n      swap2\n      swap1\n      tag_58\n      jump\t// in\n    tag_137:\n      tag_138\n      jump\t// in\n    tag_136:\n      mload(0x40)\n      tag_139\n      swap2\n      swap1\n      tag_61\n      jump\t// in\n    tag_139:\n      mload(0x40)\n      dup1\n      swap2\n      sub\n      swap1\n      return\n        /* \"contracts/LandFiStake.sol\":2349:2375  uint256 public totalStaked */\n    tag_26:\n      tag_140\n      tag_141\n      jump\t// in\n    tag_140:\n      mload(0x40)\n      tag_142\n      swap2\n      swap1\n      tag_61\n      jump\t// in\n    tag_142:\n      mload(0x40)\n      dup1\n      swap2\n      sub\n      swap1\n      return\n        /* \"contracts/LandFiStake.sol\":1266:1317  mapping (address => uint256) public box3DepositDate */\n    tag_27:\n      tag_143\n      0x04\n      dup1\n      calldatasize\n      sub\n      dup2\n      add\n      swap1\n      tag_144\n      swap2\n      swap1\n      tag_58\n      jump\t// in\n    tag_144:\n      tag_145\n      jump\t// in\n    tag_143:\n      mload(0x40)\n      tag_146\n      swap2\n      swap1\n      tag_61\n      jump\t// in\n    tag_146:\n      mload(0x40)\n      dup1\n      swap2\n      sub\n      swap1\n      return\n        /* \"contracts/LandFiStake.sol\":948:971  bool public box1Enabled */\n    tag_28:\n      tag_147\n      tag_148\n      jump\t// in\n    tag_147:\n      mload(0x40)\n      tag_149\n      swap2\n      swap1\n      tag_114\n      jump\t// in\n    tag_149:\n      mload(0x40)\n      dup1\n      swap2\n      sub\n      swap1\n      return\n        /* \"contracts/access/Ownable.sol\":1036:1121  function owner() public view virtual returns (address) {... */\n    tag_29:\n      tag_150\n      tag_151\n      jump\t// in\n    tag_150:\n      mload(0x40)\n      tag_152\n      swap2\n      swap1\n      tag_65\n      jump\t// in\n    tag_152:\n      mload(0x40)\n      dup1\n      swap2\n      sub\n      swap1\n      return\n        /* \"contracts/LandFiStake.sol\":4098:4225  function changeMaxRewardDue(uint256 newMaxRewardDue) public virtual onlyOwner {... */\n    tag_30:\n      tag_153\n      0x04\n      dup1\n      calldatasize\n      sub\n      dup2\n      add\n      swap1\n      tag_154\n      swap2\n      swap1\n      tag_75\n      jump\t// in\n    tag_154:\n      tag_155\n      jump\t// in\n    tag_153:\n      stop\n        /* \"contracts/LandFiStake.sol\":2003:2030  address public tokenAddress */\n    tag_31:\n      tag_156\n      tag_157\n      jump\t// in\n    tag_156:\n      mload(0x40)\n      tag_158\n      swap2\n      swap1\n      tag_65\n      jump\t// in\n    tag_158:\n      mload(0x40)\n      dup1\n      swap2\n      sub\n      swap1\n      return\n        /* \"contracts/LandFiStake.sol\":1324:1347  uint256 public box3Rate */\n    tag_32:\n      tag_159\n      tag_160\n      jump\t// in\n    tag_159:\n      mload(0x40)\n      tag_161\n      swap2\n      swap1\n      tag_61\n      jump\t// in\n    tag_161:\n      mload(0x40)\n      dup1\n      swap2\n      sub\n      swap1\n      return\n        /* \"contracts/LandFiStake.sol\":2183:2212  uint256 public rewardCountDue */\n    tag_33:\n      tag_162\n      tag_163\n      jump\t// in\n    tag_162:\n      mload(0x40)\n      tag_164\n      swap2\n      swap1\n      tag_61\n      jump\t// in\n    tag_164:\n      mload(0x40)\n      dup1\n      swap2\n      sub\n      swap1\n      return\n        /* \"contracts/LandFiStake.sol\":4852:5390  function stakeUnlockTime(address walletAddress, uint256 boxNo) public view returns (uint256) {... */\n    tag_34:\n      tag_165\n      0x04\n      dup1\n      calldatasize\n      sub\n      dup2\n      add\n      swap1\n      tag_166\n      swap2\n      swap1\n      tag_104\n      jump\t// in\n    tag_166:\n      tag_167\n      jump\t// in\n    tag_165:\n      mload(0x40)\n      tag_168\n      swap2\n      swap1\n      tag_61\n      jump\t// in\n    tag_168:\n      mload(0x40)\n      dup1\n      swap2\n      sub\n      swap1\n      return\n        /* \"contracts/LandFiStake.sol\":1542:1565  uint256 public box4Rate */\n    tag_35:\n      tag_169\n      tag_170\n      jump\t// in\n    tag_169:\n      mload(0x40)\n      tag_171\n      swap2\n      swap1\n      tag_61\n      jump\t// in\n    tag_171:\n      mload(0x40)\n      dup1\n      swap2\n      sub\n      swap1\n      return\n        /* \"contracts/LandFiStake.sol\":4231:4342  function changeMaxStake(uint256 newMaxStake) public virtual onlyOwner {... */\n    tag_36:\n      tag_172\n      0x04\n      dup1\n      calldatasize\n      sub\n      dup2\n      add\n      swap1\n      tag_173\n      swap2\n      swap1\n      tag_75\n      jump\t// in\n    tag_173:\n      tag_174\n      jump\t// in\n    tag_172:\n      stop\n        /* \"contracts/LandFiStake.sol\":1384:1407  bool public box3Enabled */\n    tag_37:\n      tag_175\n      tag_176\n      jump\t// in\n    tag_175:\n      mload(0x40)\n      tag_177\n      swap2\n      swap1\n      tag_114\n      jump\t// in\n    tag_177:\n      mload(0x40)\n      dup1\n      swap2\n      sub\n      swap1\n      return\n        /* \"contracts/LandFiStake.sol\":2484:2511  uint256 public maxRewardDue */\n    tag_38:\n      tag_178\n      tag_179\n      jump\t// in\n    tag_178:\n      mload(0x40)\n      tag_180\n      swap2\n      swap1\n      tag_61\n      jump\t// in\n    tag_180:\n      mload(0x40)\n      dup1\n      swap2\n      sub\n      swap1\n      return\n        /* \"contracts/LandFiStake.sol\":1136:1159  uint256 public box2Time */\n    tag_39:\n      tag_181\n      tag_182\n      jump\t// in\n    tag_181:\n      mload(0x40)\n      tag_183\n      swap2\n      swap1\n      tag_61\n      jump\t// in\n    tag_183:\n      mload(0x40)\n      dup1\n      swap2\n      sub\n      swap1\n      return\n        /* \"contracts/LandFiStake.sol\":3852:3969  function changeBox3Status(bool newBox3Status) public virtual onlyOwner {... */\n    tag_40:\n      tag_184\n      0x04\n      dup1\n      calldatasize\n      sub\n      dup2\n      add\n      swap1\n      tag_185\n      swap2\n      swap1\n      tag_71\n      jump\t// in\n    tag_185:\n      tag_186\n      jump\t// in\n    tag_184:\n      stop\n        /* \"contracts/LandFiStake.sol\":1106:1129  uint256 public box2Rate */\n    tag_41:\n      tag_187\n      tag_188\n      jump\t// in\n    tag_187:\n      mload(0x40)\n      tag_189\n      swap2\n      swap1\n      tag_61\n      jump\t// in\n    tag_189:\n      mload(0x40)\n      dup1\n      swap2\n      sub\n      swap1\n      return\n        /* \"contracts/LandFiStake.sol\":888:911  uint256 public box1Rate */\n    tag_42:\n      tag_190\n      tag_191\n      jump\t// in\n    tag_190:\n      mload(0x40)\n      tag_192\n      swap2\n      swap1\n      tag_61\n      jump\t// in\n    tag_192:\n      mload(0x40)\n      dup1\n      swap2\n      sub\n      swap1\n      return\n        /* \"contracts/LandFiStake.sol\":1789:1812  uint256 public maxStake */\n    tag_43:\n      tag_193\n      tag_194\n      jump\t// in\n    tag_193:\n      mload(0x40)\n      tag_195\n      swap2\n      swap1\n      tag_61\n      jump\t// in\n    tag_195:\n      mload(0x40)\n      dup1\n      swap2\n      sub\n      swap1\n      return\n        /* \"contracts/LandFiStake.sol\":4467:4583  function changeFullUnlock(bool newFullUnlock) public virtual onlyOwner {... */\n    tag_44:\n      tag_196\n      0x04\n      dup1\n      calldatasize\n      sub\n      dup2\n      add\n      swap1\n      tag_197\n      swap2\n      swap1\n      tag_71\n      jump\t// in\n    tag_197:\n      tag_198\n      jump\t// in\n    tag_196:\n      stop\n        /* \"contracts/access/Ownable.sol\":1918:2116  function transferOwnership(address newOwner) public virtual onlyOwner {... */\n    tag_45:\n      tag_199\n      0x04\n      dup1\n      calldatasize\n      sub\n      dup2\n      add\n      swap1\n      tag_200\n      swap2\n      swap1\n      tag_58\n      jump\t// in\n    tag_200:\n      tag_201\n      jump\t// in\n    tag_199:\n      stop\n        /* \"contracts/LandFiStake.sol\":2578:2600  bool public fullUnlock */\n    tag_46:\n      tag_202\n      tag_203\n      jump\t// in\n    tag_202:\n      mload(0x40)\n      tag_204\n      swap2\n      swap1\n      tag_114\n      jump\t// in\n    tag_204:\n      mload(0x40)\n      dup1\n      swap2\n      sub\n      swap1\n      return\n        /* \"contracts/LandFiStake.sol\":1931:1958  address public rewardWallet */\n    tag_47:\n      tag_205\n      tag_206\n      jump\t// in\n    tag_205:\n      mload(0x40)\n      tag_207\n      swap2\n      swap1\n      tag_65\n      jump\t// in\n    tag_207:\n      mload(0x40)\n      dup1\n      swap2\n      sub\n      swap1\n      return\n        /* \"contracts/LandFiStake.sol\":5886:8424  function addStake(uint256 tokenAmount, uint256 boxNo) public {... */\n    tag_48:\n      tag_208\n      0x04\n      dup1\n      calldatasize\n      sub\n      dup2\n      add\n      swap1\n      tag_209\n      swap2\n      swap1\n      tag_210\n      jump\t// in\n    tag_209:\n      tag_211\n      jump\t// in\n    tag_208:\n      stop\n        /* \"contracts/LandFiStake.sol\":994:1041  mapping (address => uint256) public box2Balance */\n    tag_59:\n      mstore(0x20, 0x06)\n      dup1\n      0x00\n      mstore\n      keccak256(0x00, 0x40)\n      0x00\n      swap2\n      pop\n      swap1\n      pop\n      sload\n      dup2\n      jump\t// out\n        /* \"contracts/LandFiStake.sol\":1858:1884  address public stakeWallet */\n    tag_63:\n      0x16\n      0x00\n      swap1\n      sload\n      swap1\n      0x0100\n      exp\n      swap1\n      div\n      0xffffffffffffffffffffffffffffffffffffffff\n      and\n      dup2\n      jump\t// out\n        /* \"contracts/LandFiStake.sol\":1354:1377  uint256 public box3Time */\n    tag_67:\n      sload(0x0e)\n      dup2\n      jump\t// out\n        /* \"contracts/LandFiStake.sol\":3975:4092  function changeBox4Status(bool newBox4Status) public virtual onlyOwner {... */\n    tag_72:\n        /* \"contracts/access/Ownable.sol\":1259:1271  _msgSender() */\n      tag_213\n        /* \"contracts/access/Ownable.sol\":1259:1269  _msgSender */\n      tag_214\n        /* \"contracts/access/Ownable.sol\":1259:1271  _msgSender() */\n      jump\t// in\n    tag_213:\n        /* \"contracts/access/Ownable.sol\":1248:1271  owner() == _msgSender() */\n      0xffffffffffffffffffffffffffffffffffffffff\n      and\n        /* \"contracts/access/Ownable.sol\":1248:1255  owner() */\n      tag_215\n        /* \"contracts/access/Ownable.sol\":1248:1253  owner */\n      tag_151\n        /* \"contracts/access/Ownable.sol\":1248:1255  owner() */\n      jump\t// in\n    tag_215:\n        /* \"contracts/access/Ownable.sol\":1248:1271  owner() == _msgSender() */\n      0xffffffffffffffffffffffffffffffffffffffff\n      and\n      eq\n        /* \"contracts/access/Ownable.sol\":1240:1308  require(owner() == _msgSender(), \"Ownable: caller is not the owner\") */\n      tag_216\n      jumpi\n      mload(0x40)\n      0x08c379a000000000000000000000000000000000000000000000000000000000\n      dup2\n      mstore\n      0x04\n      add\n      tag_217\n      swap1\n      tag_218\n      jump\t// in\n    tag_217:\n      mload(0x40)\n      dup1\n      swap2\n      sub\n      swap1\n      revert\n    tag_216:\n        /* \"contracts/LandFiStake.sol\":4071:4084  newBox4Status */\n      dup1\n        /* \"contracts/LandFiStake.sol\":4057:4068  box4Enabled */\n      0x14\n      0x00\n        /* \"contracts/LandFiStake.sol\":4057:4084  box4Enabled = newBox4Status */\n      0x0100\n      exp\n      dup2\n      sload\n      dup2\n      0xff\n      mul\n      not\n      and\n      swap1\n      dup4\n      iszero\n      iszero\n      mul\n      or\n      swap1\n      sstore\n      pop\n        /* \"contracts/LandFiStake.sol\":3975:4092  function changeBox4Status(bool newBox4Status) public virtual onlyOwner {... */\n      pop\n      jump\t// out\n        /* \"contracts/LandFiStake.sol\":4348:4459  function changeMinStake(uint256 newMinStake) public virtual onlyOwner {... */\n    tag_76:\n        /* \"contracts/access/Ownable.sol\":1259:1271  _msgSender() */\n      tag_221\n        /* \"contracts/access/Ownable.sol\":1259:1269  _msgSender */\n      tag_214\n        /* \"contracts/access/Ownable.sol\":1259:1271  _msgSender() */\n      jump\t// in\n    tag_221:\n        /* \"contracts/access/Ownable.sol\":1248:1271  owner() == _msgSender() */\n      0xffffffffffffffffffffffffffffffffffffffff\n      and\n        /* \"contracts/access/Ownable.sol\":1248:1255  owner() */\n      tag_222\n        /* \"contracts/access/Ownable.sol\":1248:1253  owner */\n      tag_151\n        /* \"contracts/access/Ownable.sol\":1248:1255  owner() */\n      jump\t// in\n    tag_222:\n        /* \"contracts/access/Ownable.sol\":1248:1271  owner() == _msgSender() */\n      0xffffffffffffffffffffffffffffffffffffffff\n      and\n      eq\n        /* \"contracts/access/Ownable.sol\":1240:1308  require(owner() == _msgSender(), \"Ownable: caller is not the owner\") */\n      tag_223\n      jumpi\n      mload(0x40)\n      0x08c379a000000000000000000000000000000000000000000000000000000000\n      dup2\n      mstore\n      0x04\n      add\n      tag_224\n      swap1\n      tag_218\n      jump\t// in\n    tag_224:\n      mload(0x40)\n      dup1\n      swap2\n      sub\n      swap1\n      revert\n    tag_223:\n        /* \"contracts/LandFiStake.sol\":4440:4451  newMinStake */\n      dup1\n        /* \"contracts/LandFiStake.sol\":4429:4437  minStake */\n      0x19\n        /* \"contracts/LandFiStake.sol\":4429:4451  minStake = newMinStake */\n      dup2\n      swap1\n      sstore\n      pop\n        /* \"contracts/LandFiStake.sol\":4348:4459  function changeMinStake(uint256 newMinStake) public virtual onlyOwner {... */\n      pop\n      jump\t// out\n        /* \"contracts/LandFiStake.sol\":1430:1477  mapping (address => uint256) public box4Balance */\n    tag_79:\n      mstore(0x20, 0x10)\n      dup1\n      0x00\n      mstore\n      keccak256(0x00, 0x40)\n      0x00\n      swap2\n      pop\n      swap1\n      pop\n      sload\n      dup2\n      jump\t// out\n        /* \"contracts/LandFiStake.sol\":1212:1259  mapping (address => uint256) public box3Balance */\n    tag_83:\n      mstore(0x20, 0x0b)\n      dup1\n      0x00\n      mstore\n      keccak256(0x00, 0x40)\n      0x00\n      swap2\n      pop\n      swap1\n      pop\n      sload\n      dup2\n      jump\t// out\n        /* \"contracts/LandFiStake.sol\":8453:11373  function pullStake(uint256 boxNo) public {... */\n    tag_87:\n        /* \"contracts/LandFiStake.sol\":8505:8517  address from */\n      0x00\n        /* \"contracts/LandFiStake.sol\":8520:8530  msg.sender */\n      caller\n        /* \"contracts/LandFiStake.sol\":8505:8530  address from = msg.sender */\n      swap1\n      pop\n        /* \"contracts/LandFiStake.sol\":8549:8569  uint256 rewardAmount */\n      0x00\n        /* \"contracts/LandFiStake.sol\":8572:8573  0 */\n      0x00\n        /* \"contracts/LandFiStake.sol\":8549:8573  uint256 rewardAmount = 0 */\n      swap1\n      pop\n        /* \"contracts/LandFiStake.sol\":8589:8608  uint256 tokenAmount */\n      0x00\n        /* \"contracts/LandFiStake.sol\":8611:8612  0 */\n      0x00\n        /* \"contracts/LandFiStake.sol\":8589:8612  uint256 tokenAmount = 0 */\n      swap1\n      pop\n        /* \"contracts/LandFiStake.sol\":8642:8643  1 */\n      0x01\n        /* \"contracts/LandFiStake.sol\":8633:8638  boxNo */\n      dup5\n        /* \"contracts/LandFiStake.sol\":8633:8643  boxNo == 1 */\n      eq\n        /* \"contracts/LandFiStake.sol\":8633:8657  boxNo == 1 || boxNo == 2 */\n      dup1\n      tag_227\n      jumpi\n      pop\n        /* \"contracts/LandFiStake.sol\":8656:8657  2 */\n      0x02\n        /* \"contracts/LandFiStake.sol\":8647:8652  boxNo */\n      dup5\n        /* \"contracts/LandFiStake.sol\":8647:8657  boxNo == 2 */\n      eq\n        /* \"contracts/LandFiStake.sol\":8633:8657  boxNo == 1 || boxNo == 2 */\n    tag_227:\n        /* \"contracts/LandFiStake.sol\":8633:8671  boxNo == 1 || boxNo == 2 || boxNo == 3 */\n      dup1\n      tag_228\n      jumpi\n      pop\n        /* \"contracts/LandFiStake.sol\":8670:8671  3 */\n      0x03\n        /* \"contracts/LandFiStake.sol\":8661:8666  boxNo */\n      dup5\n        /* \"contracts/LandFiStake.sol\":8661:8671  boxNo == 3 */\n      eq\n        /* \"contracts/LandFiStake.sol\":8633:8671  boxNo == 1 || boxNo == 2 || boxNo == 3 */\n    tag_228:\n        /* \"contracts/LandFiStake.sol\":8633:8685  boxNo == 1 || boxNo == 2 || boxNo == 3 || boxNo == 4 */\n      dup1\n      tag_229\n      jumpi\n      pop\n        /* \"contracts/LandFiStake.sol\":8684:8685  4 */\n      0x04\n        /* \"contracts/LandFiStake.sol\":8675:8680  boxNo */\n      dup5\n        /* \"contracts/LandFiStake.sol\":8675:8685  boxNo == 4 */\n      eq\n        /* \"contracts/LandFiStake.sol\":8633:8685  boxNo == 1 || boxNo == 2 || boxNo == 3 || boxNo == 4 */\n    tag_229:\n        /* \"contracts/LandFiStake.sol\":8625:8709  require(boxNo == 1 || boxNo == 2 || boxNo == 3 || boxNo == 4, \"Invalid product ID.\") */\n      tag_230\n      jumpi\n      mload(0x40)\n      0x08c379a000000000000000000000000000000000000000000000000000000000\n      dup2\n      mstore\n      0x04\n      add\n      tag_231\n      swap1\n      tag_232\n      jump\t// in\n    tag_231:\n      mload(0x40)\n      dup1\n      swap2\n      sub\n      swap1\n      revert\n    tag_230:\n        /* \"contracts/LandFiStake.sol\":8735:8736  1 */\n      0x01\n        /* \"contracts/LandFiStake.sol\":8726:8731  boxNo */\n      dup5\n        /* \"contracts/LandFiStake.sol\":8726:8736  boxNo == 1 */\n      sub\n        /* \"contracts/LandFiStake.sol\":8722:9214  if (boxNo == 1) {... */\n      tag_233\n      jumpi\n        /* \"contracts/LandFiStake.sol\":8781:8782  0 */\n      0x00\n        /* \"contracts/LandFiStake.sol\":8761:8772  box1Balance */\n      0x01\n        /* \"contracts/LandFiStake.sol\":8761:8778  box1Balance[from] */\n      0x00\n        /* \"contracts/LandFiStake.sol\":8773:8777  from */\n      dup6\n        /* \"contracts/LandFiStake.sol\":8761:8778  box1Balance[from] */\n      0xffffffffffffffffffffffffffffffffffffffff\n      and\n      0xffffffffffffffffffffffffffffffffffffffff\n      and\n      dup2\n      mstore\n      0x20\n      add\n      swap1\n      dup2\n      mstore\n      0x20\n      add\n      0x00\n      keccak256\n      sload\n        /* \"contracts/LandFiStake.sol\":8761:8782  box1Balance[from] > 0 */\n      gt\n        /* \"contracts/LandFiStake.sol\":8753:8828  require(box1Balance[from] > 0, \"This wallet has no stake on this product.\") */\n      tag_234\n      jumpi\n      mload(0x40)\n      0x08c379a000000000000000000000000000000000000000000000000000000000\n      dup2\n      mstore\n      0x04\n      add\n      tag_235\n      swap1\n      tag_236\n      jump\t// in\n    tag_235:\n      mload(0x40)\n      dup1\n      swap2\n      sub\n      swap1\n      revert\n    tag_234:\n        /* \"contracts/LandFiStake.sol\":8850:8860  fullUnlock */\n      0x1e\n      0x00\n      swap1\n      sload\n      swap1\n      0x0100\n      exp\n      swap1\n      div\n      0xff\n      and\n        /* \"contracts/LandFiStake.sol\":8845:9018  if (!fullUnlock) {... */\n      tag_237\n      jumpi\n        /* \"contracts/LandFiStake.sol\":8928:8943  block.timestamp */\n      timestamp\n        /* \"contracts/LandFiStake.sol\":8889:8924  box1DepositDate[from].add(box1Time) */\n      tag_238\n        /* \"contracts/LandFiStake.sol\":8915:8923  box1Time */\n      sload(0x04)\n        /* \"contracts/LandFiStake.sol\":8889:8904  box1DepositDate */\n      0x02\n        /* \"contracts/LandFiStake.sol\":8889:8910  box1DepositDate[from] */\n      0x00\n        /* \"contracts/LandFiStake.sol\":8905:8909  from */\n      dup8\n        /* \"contracts/LandFiStake.sol\":8889:8910  box1DepositDate[from] */\n      0xffffffffffffffffffffffffffffffffffffffff\n      and\n      0xffffffffffffffffffffffffffffffffffffffff\n      and\n      dup2\n      mstore\n      0x20\n      add\n      swap1\n      dup2\n      mstore\n      0x20\n      add\n      0x00\n      keccak256\n      sload\n        /* \"contracts/LandFiStake.sol\":8889:8914  box1DepositDate[from].add */\n      tag_239\n      swap1\n        /* \"contracts/LandFiStake.sol\":8889:8924  box1DepositDate[from].add(box1Time) */\n      swap2\n      swap1\n      0xffffffff\n      and\n      jump\t// in\n    tag_238:\n        /* \"contracts/LandFiStake.sol\":8889:8943  box1DepositDate[from].add(box1Time) <= block.timestamp */\n      gt\n      iszero\n        /* \"contracts/LandFiStake.sol\":8881:9002  require(box1DepositDate[from].add(box1Time) <= block.timestamp, \"The staking period for this product has not ended yet.\") */\n      tag_240\n      jumpi\n      mload(0x40)\n      0x08c379a000000000000000000000000000000000000000000000000000000000\n      dup2\n      mstore\n      0x04\n      add\n      tag_241\n      swap1\n      tag_242\n      jump\t// in\n    tag_241:\n      mload(0x40)\n      dup1\n      swap2\n      sub\n      swap1\n      revert\n    tag_240:\n        /* \"contracts/LandFiStake.sol\":8845:9018  if (!fullUnlock) {... */\n    tag_237:\n        /* \"contracts/LandFiStake.sol\":9049:9080  box1Balance[from].div(box1Rate) */\n      tag_243\n        /* \"contracts/LandFiStake.sol\":9071:9079  box1Rate */\n      sload(0x03)\n        /* \"contracts/LandFiStake.sol\":9049:9060  box1Balance */\n      0x01\n        /* \"contracts/LandFiStake.sol\":9049:9066  box1Balance[from] */\n      0x00\n        /* \"contracts/LandFiStake.sol\":9061:9065  from */\n      dup7\n        /* \"contracts/LandFiStake.sol\":9049:9066  box1Balance[from] */\n      0xffffffffffffffffffffffffffffffffffffffff\n      and\n      0xffffffffffffffffffffffffffffffffffffffff\n      and\n      dup2\n      mstore\n      0x20\n      add\n      swap1\n      dup2\n      mstore\n      0x20\n      add\n      0x00\n      keccak256\n      sload\n        /* \"contracts/LandFiStake.sol\":9049:9070  box1Balance[from].div */\n      tag_244\n      swap1\n        /* \"contracts/LandFiStake.sol\":9049:9080  box1Balance[from].div(box1Rate) */\n      swap2\n      swap1\n      0xffffffff\n      and\n      jump\t// in\n    tag_243:\n        /* \"contracts/LandFiStake.sol\":9034:9080  rewardAmount = box1Balance[from].div(box1Rate) */\n      swap2\n      pop\n        /* \"contracts/LandFiStake.sol\":9109:9120  box1Balance */\n      0x01\n        /* \"contracts/LandFiStake.sol\":9109:9126  box1Balance[from] */\n      0x00\n        /* \"contracts/LandFiStake.sol\":9121:9125  from */\n      dup5\n        /* \"contracts/LandFiStake.sol\":9109:9126  box1Balance[from] */\n      0xffffffffffffffffffffffffffffffffffffffff\n      and\n      0xffffffffffffffffffffffffffffffffffffffff\n      and\n      dup2\n      mstore\n      0x20\n      add\n      swap1\n      dup2\n      mstore\n      0x20\n      add\n      0x00\n      keccak256\n      sload\n        /* \"contracts/LandFiStake.sol\":9095:9126  tokenAmount = box1Balance[from] */\n      swap1\n      pop\n        /* \"contracts/LandFiStake.sol\":9161:9162  0 */\n      0x00\n        /* \"contracts/LandFiStake.sol\":9141:9152  box1Balance */\n      0x01\n        /* \"contracts/LandFiStake.sol\":9141:9158  box1Balance[from] */\n      0x00\n        /* \"contracts/LandFiStake.sol\":9153:9157  from */\n      dup6\n        /* \"contracts/LandFiStake.sol\":9141:9158  box1Balance[from] */\n      0xffffffffffffffffffffffffffffffffffffffff\n      and\n      0xffffffffffffffffffffffffffffffffffffffff\n      and\n      dup2\n      mstore\n      0x20\n      add\n      swap1\n      dup2\n      mstore\n      0x20\n      add\n      0x00\n      keccak256\n        /* \"contracts/LandFiStake.sol\":9141:9162  box1Balance[from] = 0 */\n      dup2\n      swap1\n      sstore\n      pop\n        /* \"contracts/LandFiStake.sol\":9201:9202  0 */\n      0x00\n        /* \"contracts/LandFiStake.sol\":9177:9192  box1DepositDate */\n      0x02\n        /* \"contracts/LandFiStake.sol\":9177:9198  box1DepositDate[from] */\n      0x00\n        /* \"contracts/LandFiStake.sol\":9193:9197  from */\n      dup6\n        /* \"contracts/LandFiStake.sol\":9177:9198  box1DepositDate[from] */\n      0xffffffffffffffffffffffffffffffffffffffff\n      and\n      0xffffffffffffffffffffffffffffffffffffffff\n      and\n      dup2\n      mstore\n      0x20\n      add\n      swap1\n      dup2\n      mstore\n      0x20\n      add\n      0x00\n      keccak256\n        /* \"contracts/LandFiStake.sol\":9177:9202  box1DepositDate[from] = 0 */\n      dup2\n      swap1\n      sstore\n      pop\n        /* \"contracts/LandFiStake.sol\":8722:9214  if (boxNo == 1) {... */\n    tag_233:\n        /* \"contracts/LandFiStake.sol\":9237:9238  2 */\n      0x02\n        /* \"contracts/LandFiStake.sol\":9228:9233  boxNo */\n      dup5\n        /* \"contracts/LandFiStake.sol\":9228:9238  boxNo == 2 */\n      sub\n        /* \"contracts/LandFiStake.sol\":9224:9716  if (boxNo == 2) {... */\n      tag_245\n      jumpi\n        /* \"contracts/LandFiStake.sol\":9283:9284  0 */\n      0x00\n        /* \"contracts/LandFiStake.sol\":9263:9274  box2Balance */\n      0x06\n        /* \"contracts/LandFiStake.sol\":9263:9280  box2Balance[from] */\n      0x00\n        /* \"contracts/LandFiStake.sol\":9275:9279  from */\n      dup6\n        /* \"contracts/LandFiStake.sol\":9263:9280  box2Balance[from] */\n      0xffffffffffffffffffffffffffffffffffffffff\n      and\n      0xffffffffffffffffffffffffffffffffffffffff\n      and\n      dup2\n      mstore\n      0x20\n      add\n      swap1\n      dup2\n      mstore\n      0x20\n      add\n      0x00\n      keccak256\n      sload\n        /* \"contracts/LandFiStake.sol\":9263:9284  box2Balance[from] > 0 */\n      gt\n        /* \"contracts/LandFiStake.sol\":9255:9330  require(box2Balance[from] > 0, \"This wallet has no stake on this product.\") */\n      tag_246\n      jumpi\n      mload(0x40)\n      0x08c379a000000000000000000000000000000000000000000000000000000000\n      dup2\n      mstore\n      0x04\n      add\n      tag_247\n      swap1\n      tag_236\n      jump\t// in\n    tag_247:\n      mload(0x40)\n      dup1\n      swap2\n      sub\n      swap1\n      revert\n    tag_246:\n        /* \"contracts/LandFiStake.sol\":9352:9362  fullUnlock */\n      0x1e\n      0x00\n      swap1\n      sload\n      swap1\n      0x0100\n      exp\n      swap1\n      div\n      0xff\n      and\n        /* \"contracts/LandFiStake.sol\":9347:9520  if (!fullUnlock) {... */\n      tag_248\n      jumpi\n        /* \"contracts/LandFiStake.sol\":9430:9445  block.timestamp */\n      timestamp\n        /* \"contracts/LandFiStake.sol\":9391:9426  box2DepositDate[from].add(box2Time) */\n      tag_249\n        /* \"contracts/LandFiStake.sol\":9417:9425  box2Time */\n      sload(0x09)\n        /* \"contracts/LandFiStake.sol\":9391:9406  box2DepositDate */\n      0x07\n        /* \"contracts/LandFiStake.sol\":9391:9412  box2DepositDate[from] */\n      0x00\n        /* \"contracts/LandFiStake.sol\":9407:9411  from */\n      dup8\n        /* \"contracts/LandFiStake.sol\":9391:9412  box2DepositDate[from] */\n      0xffffffffffffffffffffffffffffffffffffffff\n      and\n      0xffffffffffffffffffffffffffffffffffffffff\n      and\n      dup2\n      mstore\n      0x20\n      add\n      swap1\n      dup2\n      mstore\n      0x20\n      add\n      0x00\n      keccak256\n      sload\n        /* \"contracts/LandFiStake.sol\":9391:9416  box2DepositDate[from].add */\n      tag_239\n      swap1\n        /* \"contracts/LandFiStake.sol\":9391:9426  box2DepositDate[from].add(box2Time) */\n      swap2\n      swap1\n      0xffffffff\n      and\n      jump\t// in\n    tag_249:\n        /* \"contracts/LandFiStake.sol\":9391:9445  box2DepositDate[from].add(box2Time) <= block.timestamp */\n      gt\n      iszero\n        /* \"contracts/LandFiStake.sol\":9383:9504  require(box2DepositDate[from].add(box2Time) <= block.timestamp, \"The staking period for this product has not ended yet.\") */\n      tag_250\n      jumpi\n      mload(0x40)\n      0x08c379a000000000000000000000000000000000000000000000000000000000\n      dup2\n      mstore\n      0x04\n      add\n      tag_251\n      swap1\n      tag_242\n      jump\t// in\n    tag_251:\n      mload(0x40)\n      dup1\n      swap2\n      sub\n      swap1\n      revert\n    tag_250:\n        /* \"contracts/LandFiStake.sol\":9347:9520  if (!fullUnlock) {... */\n    tag_248:\n        /* \"contracts/LandFiStake.sol\":9551:9582  box2Balance[from].div(box2Rate) */\n      tag_252\n        /* \"contracts/LandFiStake.sol\":9573:9581  box2Rate */\n      sload(0x08)\n        /* \"contracts/LandFiStake.sol\":9551:9562  box2Balance */\n      0x06\n        /* \"contracts/LandFiStake.sol\":9551:9568  box2Balance[from] */\n      0x00\n        /* \"contracts/LandFiStake.sol\":9563:9567  from */\n      dup7\n        /* \"contracts/LandFiStake.sol\":9551:9568  box2Balance[from] */\n      0xffffffffffffffffffffffffffffffffffffffff\n      and\n      0xffffffffffffffffffffffffffffffffffffffff\n      and\n      dup2\n      mstore\n      0x20\n      add\n      swap1\n      dup2\n      mstore\n      0x20\n      add\n      0x00\n      keccak256\n      sload\n        /* \"contracts/LandFiStake.sol\":9551:9572  box2Balance[from].div */\n      tag_244\n      swap1\n        /* \"contracts/LandFiStake.sol\":9551:9582  box2Balance[from].div(box2Rate) */\n      swap2\n      swap1\n      0xffffffff\n      and\n      jump\t// in\n    tag_252:\n        /* \"contracts/LandFiStake.sol\":9536:9582  rewardAmount = box2Balance[from].div(box2Rate) */\n      swap2\n      pop\n        /* \"contracts/LandFiStake.sol\":9611:9622  box2Balance */\n      0x06\n        /* \"contracts/LandFiStake.sol\":9611:9628  box2Balance[from] */\n      0x00\n        /* \"contracts/LandFiStake.sol\":9623:9627  from */\n      dup5\n        /* \"contracts/LandFiStake.sol\":9611:9628  box2Balance[from] */\n      0xffffffffffffffffffffffffffffffffffffffff\n      and\n      0xffffffffffffffffffffffffffffffffffffffff\n      and\n      dup2\n      mstore\n      0x20\n      add\n      swap1\n      dup2\n      mstore\n      0x20\n      add\n      0x00\n      keccak256\n      sload\n        /* \"contracts/LandFiStake.sol\":9597:9628  tokenAmount = box2Balance[from] */\n      swap1\n      pop\n        /* \"contracts/LandFiStake.sol\":9663:9664  0 */\n      0x00\n        /* \"contracts/LandFiStake.sol\":9643:9654  box2Balance */\n      0x06\n        /* \"contracts/LandFiStake.sol\":9643:9660  box2Balance[from] */\n      0x00\n        /* \"contracts/LandFiStake.sol\":9655:9659  from */\n      dup6\n        /* \"contracts/LandFiStake.sol\":9643:9660  box2Balance[from] */\n      0xffffffffffffffffffffffffffffffffffffffff\n      and\n      0xffffffffffffffffffffffffffffffffffffffff\n      and\n      dup2\n      mstore\n      0x20\n      add\n      swap1\n      dup2\n      mstore\n      0x20\n      add\n      0x00\n      keccak256\n        /* \"contracts/LandFiStake.sol\":9643:9664  box2Balance[from] = 0 */\n      dup2\n      swap1\n      sstore\n      pop\n        /* \"contracts/LandFiStake.sol\":9703:9704  0 */\n      0x00\n        /* \"contracts/LandFiStake.sol\":9679:9694  box2DepositDate */\n      0x07\n        /* \"contracts/LandFiStake.sol\":9679:9700  box2DepositDate[from] */\n      0x00\n        /* \"contracts/LandFiStake.sol\":9695:9699  from */\n      dup6\n        /* \"contracts/LandFiStake.sol\":9679:9700  box2DepositDate[from] */\n      0xffffffffffffffffffffffffffffffffffffffff\n      and\n      0xffffffffffffffffffffffffffffffffffffffff\n      and\n      dup2\n      mstore\n      0x20\n      add\n      swap1\n      dup2\n      mstore\n      0x20\n      add\n      0x00\n      keccak256\n        /* \"contracts/LandFiStake.sol\":9679:9704  box2DepositDate[from] = 0 */\n      dup2\n      swap1\n      sstore\n      pop\n        /* \"contracts/LandFiStake.sol\":9224:9716  if (boxNo == 2) {... */\n    tag_245:\n        /* \"contracts/LandFiStake.sol\":9739:9740  3 */\n      0x03\n        /* \"contracts/LandFiStake.sol\":9730:9735  boxNo */\n      dup5\n        /* \"contracts/LandFiStake.sol\":9730:9740  boxNo == 3 */\n      sub\n        /* \"contracts/LandFiStake.sol\":9726:10218  if (boxNo == 3) {... */\n      tag_253\n      jumpi\n        /* \"contracts/LandFiStake.sol\":9785:9786  0 */\n      0x00\n        /* \"contracts/LandFiStake.sol\":9765:9776  box3Balance */\n      0x0b\n        /* \"contracts/LandFiStake.sol\":9765:9782  box3Balance[from] */\n      0x00\n        /* \"contracts/LandFiStake.sol\":9777:9781  from */\n      dup6\n        /* \"contracts/LandFiStake.sol\":9765:9782  box3Balance[from] */\n      0xffffffffffffffffffffffffffffffffffffffff\n      and\n      0xffffffffffffffffffffffffffffffffffffffff\n      and\n      dup2\n      mstore\n      0x20\n      add\n      swap1\n      dup2\n      mstore\n      0x20\n      add\n      0x00\n      keccak256\n      sload\n        /* \"contracts/LandFiStake.sol\":9765:9786  box3Balance[from] > 0 */\n      gt\n        /* \"contracts/LandFiStake.sol\":9757:9832  require(box3Balance[from] > 0, \"This wallet has no stake on this product.\") */\n      tag_254\n      jumpi\n      mload(0x40)\n      0x08c379a000000000000000000000000000000000000000000000000000000000\n      dup2\n      mstore\n      0x04\n      add\n      tag_255\n      swap1\n      tag_236\n      jump\t// in\n    tag_255:\n      mload(0x40)\n      dup1\n      swap2\n      sub\n      swap1\n      revert\n    tag_254:\n        /* \"contracts/LandFiStake.sol\":9854:9864  fullUnlock */\n      0x1e\n      0x00\n      swap1\n      sload\n      swap1\n      0x0100\n      exp\n      swap1\n      div\n      0xff\n      and\n        /* \"contracts/LandFiStake.sol\":9849:10022  if (!fullUnlock) {... */\n      tag_256\n      jumpi\n        /* \"contracts/LandFiStake.sol\":9932:9947  block.timestamp */\n      timestamp\n        /* \"contracts/LandFiStake.sol\":9893:9928  box3DepositDate[from].add(box3Time) */\n      tag_257\n        /* \"contracts/LandFiStake.sol\":9919:9927  box3Time */\n      sload(0x0e)\n        /* \"contracts/LandFiStake.sol\":9893:9908  box3DepositDate */\n      0x0c\n        /* \"contracts/LandFiStake.sol\":9893:9914  box3DepositDate[from] */\n      0x00\n        /* \"contracts/LandFiStake.sol\":9909:9913  from */\n      dup8\n        /* \"contracts/LandFiStake.sol\":9893:9914  box3DepositDate[from] */\n      0xffffffffffffffffffffffffffffffffffffffff\n      and\n      0xffffffffffffffffffffffffffffffffffffffff\n      and\n      dup2\n      mstore\n      0x20\n      add\n      swap1\n      dup2\n      mstore\n      0x20\n      add\n      0x00\n      keccak256\n      sload\n        /* \"contracts/LandFiStake.sol\":9893:9918  box3DepositDate[from].add */\n      tag_239\n      swap1\n        /* \"contracts/LandFiStake.sol\":9893:9928  box3DepositDate[from].add(box3Time) */\n      swap2\n      swap1\n      0xffffffff\n      and\n      jump\t// in\n    tag_257:\n        /* \"contracts/LandFiStake.sol\":9893:9947  box3DepositDate[from].add(box3Time) <= block.timestamp */\n      gt\n      iszero\n        /* \"contracts/LandFiStake.sol\":9885:10006  require(box3DepositDate[from].add(box3Time) <= block.timestamp, \"The staking period for this product has not ended yet.\") */\n      tag_258\n      jumpi\n      mload(0x40)\n      0x08c379a000000000000000000000000000000000000000000000000000000000\n      dup2\n      mstore\n      0x04\n      add\n      tag_259\n      swap1\n      tag_242\n      jump\t// in\n    tag_259:\n      mload(0x40)\n      dup1\n      swap2\n      sub\n      swap1\n      revert\n    tag_258:\n        /* \"contracts/LandFiStake.sol\":9849:10022  if (!fullUnlock) {... */\n    tag_256:\n        /* \"contracts/LandFiStake.sol\":10053:10084  box3Balance[from].div(box3Rate) */\n      tag_260\n        /* \"contracts/LandFiStake.sol\":10075:10083  box3Rate */\n      sload(0x0d)\n        /* \"contracts/LandFiStake.sol\":10053:10064  box3Balance */\n      0x0b\n        /* \"contracts/LandFiStake.sol\":10053:10070  box3Balance[from] */\n      0x00\n        /* \"contracts/LandFiStake.sol\":10065:10069  from */\n      dup7\n        /* \"contracts/LandFiStake.sol\":10053:10070  box3Balance[from] */\n      0xffffffffffffffffffffffffffffffffffffffff\n      and\n      0xffffffffffffffffffffffffffffffffffffffff\n      and\n      dup2\n      mstore\n      0x20\n      add\n      swap1\n      dup2\n      mstore\n      0x20\n      add\n      0x00\n      keccak256\n      sload\n        /* \"contracts/LandFiStake.sol\":10053:10074  box3Balance[from].div */\n      tag_244\n      swap1\n        /* \"contracts/LandFiStake.sol\":10053:10084  box3Balance[from].div(box3Rate) */\n      swap2\n      swap1\n      0xffffffff\n      and\n      jump\t// in\n    tag_260:\n        /* \"contracts/LandFiStake.sol\":10038:10084  rewardAmount = box3Balance[from].div(box3Rate) */\n      swap2\n      pop\n        /* \"contracts/LandFiStake.sol\":10113:10124  box3Balance */\n      0x0b\n        /* \"contracts/LandFiStake.sol\":10113:10130  box3Balance[from] */\n      0x00\n        /* \"contracts/LandFiStake.sol\":10125:10129  from */\n      dup5\n        /* \"contracts/LandFiStake.sol\":10113:10130  box3Balance[from] */\n      0xffffffffffffffffffffffffffffffffffffffff\n      and\n      0xffffffffffffffffffffffffffffffffffffffff\n      and\n      dup2\n      mstore\n      0x20\n      add\n      swap1\n      dup2\n      mstore\n      0x20\n      add\n      0x00\n      keccak256\n      sload\n        /* \"contracts/LandFiStake.sol\":10099:10130  tokenAmount = box3Balance[from] */\n      swap1\n      pop\n        /* \"contracts/LandFiStake.sol\":10165:10166  0 */\n      0x00\n        /* \"contracts/LandFiStake.sol\":10145:10156  box3Balance */\n      0x0b\n        /* \"contracts/LandFiStake.sol\":10145:10162  box3Balance[from] */\n      0x00\n        /* \"contracts/LandFiStake.sol\":10157:10161  from */\n      dup6\n        /* \"contracts/LandFiStake.sol\":10145:10162  box3Balance[from] */\n      0xffffffffffffffffffffffffffffffffffffffff\n      and\n      0xffffffffffffffffffffffffffffffffffffffff\n      and\n      dup2\n      mstore\n      0x20\n      add\n      swap1\n      dup2\n      mstore\n      0x20\n      add\n      0x00\n      keccak256\n        /* \"contracts/LandFiStake.sol\":10145:10166  box3Balance[from] = 0 */\n      dup2\n      swap1\n      sstore\n      pop\n        /* \"contracts/LandFiStake.sol\":10205:10206  0 */\n      0x00\n        /* \"contracts/LandFiStake.sol\":10181:10196  box3DepositDate */\n      0x0c\n        /* \"contracts/LandFiStake.sol\":10181:10202  box3DepositDate[from] */\n      0x00\n        /* \"contracts/LandFiStake.sol\":10197:10201  from */\n      dup6\n        /* \"contracts/LandFiStake.sol\":10181:10202  box3DepositDate[from] */\n      0xffffffffffffffffffffffffffffffffffffffff\n      and\n      0xffffffffffffffffffffffffffffffffffffffff\n      and\n      dup2\n      mstore\n      0x20\n      add\n      swap1\n      dup2\n      mstore\n      0x20\n      add\n      0x00\n      keccak256\n        /* \"contracts/LandFiStake.sol\":10181:10206  box3DepositDate[from] = 0 */\n      dup2\n      swap1\n      sstore\n      pop\n        /* \"contracts/LandFiStake.sol\":9726:10218  if (boxNo == 3) {... */\n    tag_253:\n        /* \"contracts/LandFiStake.sol\":10243:10244  4 */\n      0x04\n        /* \"contracts/LandFiStake.sol\":10234:10239  boxNo */\n      dup5\n        /* \"contracts/LandFiStake.sol\":10234:10244  boxNo == 4 */\n      sub\n        /* \"contracts/LandFiStake.sol\":10230:10722  if (boxNo == 4) {... */\n      tag_261\n      jumpi\n        /* \"contracts/LandFiStake.sol\":10289:10290  0 */\n      0x00\n        /* \"contracts/LandFiStake.sol\":10269:10280  box4Balance */\n      0x10\n        /* \"contracts/LandFiStake.sol\":10269:10286  box4Balance[from] */\n      0x00\n        /* \"contracts/LandFiStake.sol\":10281:10285  from */\n      dup6\n        /* \"contracts/LandFiStake.sol\":10269:10286  box4Balance[from] */\n      0xffffffffffffffffffffffffffffffffffffffff\n      and\n      0xffffffffffffffffffffffffffffffffffffffff\n      and\n      dup2\n      mstore\n      0x20\n      add\n      swap1\n      dup2\n      mstore\n      0x20\n      add\n      0x00\n      keccak256\n      sload\n        /* \"contracts/LandFiStake.sol\":10269:10290  box4Balance[from] > 0 */\n      gt\n        /* \"contracts/LandFiStake.sol\":10261:10336  require(box4Balance[from] > 0, \"This wallet has no stake on this product.\") */\n      tag_262\n      jumpi\n      mload(0x40)\n      0x08c379a000000000000000000000000000000000000000000000000000000000\n      dup2\n      mstore\n      0x04\n      add\n      tag_263\n      swap1\n      tag_236\n      jump\t// in\n    tag_263:\n      mload(0x40)\n      dup1\n      swap2\n      sub\n      swap1\n      revert\n    tag_262:\n        /* \"contracts/LandFiStake.sol\":10358:10368  fullUnlock */\n      0x1e\n      0x00\n      swap1\n      sload\n      swap1\n      0x0100\n      exp\n      swap1\n      div\n      0xff\n      and\n        /* \"contracts/LandFiStake.sol\":10353:10526  if (!fullUnlock) {... */\n      tag_264\n      jumpi\n        /* \"contracts/LandFiStake.sol\":10436:10451  block.timestamp */\n      timestamp\n        /* \"contracts/LandFiStake.sol\":10397:10432  box4DepositDate[from].add(box4Time) */\n      tag_265\n        /* \"contracts/LandFiStake.sol\":10423:10431  box4Time */\n      sload(0x13)\n        /* \"contracts/LandFiStake.sol\":10397:10412  box4DepositDate */\n      0x11\n        /* \"contracts/LandFiStake.sol\":10397:10418  box4DepositDate[from] */\n      0x00\n        /* \"contracts/LandFiStake.sol\":10413:10417  from */\n      dup8\n        /* \"contracts/LandFiStake.sol\":10397:10418  box4DepositDate[from] */\n      0xffffffffffffffffffffffffffffffffffffffff\n      and\n      0xffffffffffffffffffffffffffffffffffffffff\n      and\n      dup2\n      mstore\n      0x20\n      add\n      swap1\n      dup2\n      mstore\n      0x20\n      add\n      0x00\n      keccak256\n      sload\n        /* \"contracts/LandFiStake.sol\":10397:10422  box4DepositDate[from].add */\n      tag_239\n      swap1\n        /* \"contracts/LandFiStake.sol\":10397:10432  box4DepositDate[from].add(box4Time) */\n      swap2\n      swap1\n      0xffffffff\n      and\n      jump\t// in\n    tag_265:\n        /* \"contracts/LandFiStake.sol\":10397:10451  box4DepositDate[from].add(box4Time) <= block.timestamp */\n      gt\n      iszero\n        /* \"contracts/LandFiStake.sol\":10389:10510  require(box4DepositDate[from].add(box4Time) <= block.timestamp, \"The staking period for this product has not ended yet.\") */\n      tag_266\n      jumpi\n      mload(0x40)\n      0x08c379a000000000000000000000000000000000000000000000000000000000\n      dup2\n      mstore\n      0x04\n      add\n      tag_267\n      swap1\n      tag_242\n      jump\t// in\n    tag_267:\n      mload(0x40)\n      dup1\n      swap2\n      sub\n      swap1\n      revert\n    tag_266:\n        /* \"contracts/LandFiStake.sol\":10353:10526  if (!fullUnlock) {... */\n    tag_264:\n        /* \"contracts/LandFiStake.sol\":10557:10588  box4Balance[from].div(box4Rate) */\n      tag_268\n        /* \"contracts/LandFiStake.sol\":10579:10587  box4Rate */\n      sload(0x12)\n        /* \"contracts/LandFiStake.sol\":10557:10568  box4Balance */\n      0x10\n        /* \"contracts/LandFiStake.sol\":10557:10574  box4Balance[from] */\n      0x00\n        /* \"contracts/LandFiStake.sol\":10569:10573  from */\n      dup7\n        /* \"contracts/LandFiStake.sol\":10557:10574  box4Balance[from] */\n      0xffffffffffffffffffffffffffffffffffffffff\n      and\n      0xffffffffffffffffffffffffffffffffffffffff\n      and\n      dup2\n      mstore\n      0x20\n      add\n      swap1\n      dup2\n      mstore\n      0x20\n      add\n      0x00\n      keccak256\n      sload\n        /* \"contracts/LandFiStake.sol\":10557:10578  box4Balance[from].div */\n      tag_244\n      swap1\n        /* \"contracts/LandFiStake.sol\":10557:10588  box4Balance[from].div(box4Rate) */\n      swap2\n      swap1\n      0xffffffff\n      and\n      jump\t// in\n    tag_268:\n        /* \"contracts/LandFiStake.sol\":10542:10588  rewardAmount = box4Balance[from].div(box4Rate) */\n      swap2\n      pop\n        /* \"contracts/LandFiStake.sol\":10617:10628  box4Balance */\n      0x10\n        /* \"contracts/LandFiStake.sol\":10617:10634  box4Balance[from] */\n      0x00\n        /* \"contracts/LandFiStake.sol\":10629:10633  from */\n      dup5\n        /* \"contracts/LandFiStake.sol\":10617:10634  box4Balance[from] */\n      0xffffffffffffffffffffffffffffffffffffffff\n      and\n      0xffffffffffffffffffffffffffffffffffffffff\n      and\n      dup2\n      mstore\n      0x20\n      add\n      swap1\n      dup2\n      mstore\n      0x20\n      add\n      0x00\n      keccak256\n      sload\n        /* \"contracts/LandFiStake.sol\":10603:10634  tokenAmount = box4Balance[from] */\n      swap1\n      pop\n        /* \"contracts/LandFiStake.sol\":10669:10670  0 */\n      0x00\n        /* \"contracts/LandFiStake.sol\":10649:10660  box4Balance */\n      0x10\n        /* \"contracts/LandFiStake.sol\":10649:10666  box4Balance[from] */\n      0x00\n        /* \"contracts/LandFiStake.sol\":10661:10665  from */\n      dup6\n        /* \"contracts/LandFiStake.sol\":10649:10666  box4Balance[from] */\n      0xffffffffffffffffffffffffffffffffffffffff\n      and\n      0xffffffffffffffffffffffffffffffffffffffff\n      and\n      dup2\n      mstore\n      0x20\n      add\n      swap1\n      dup2\n      mstore\n      0x20\n      add\n      0x00\n      keccak256\n        /* \"contracts/LandFiStake.sol\":10649:10670  box4Balance[from] = 0 */\n      dup2\n      swap1\n      sstore\n      pop\n        /* \"contracts/LandFiStake.sol\":10709:10710  0 */\n      0x00\n        /* \"contracts/LandFiStake.sol\":10685:10700  box4DepositDate */\n      0x11\n        /* \"contracts/LandFiStake.sol\":10685:10706  box4DepositDate[from] */\n      0x00\n        /* \"contracts/LandFiStake.sol\":10701:10705  from */\n      dup6\n        /* \"contracts/LandFiStake.sol\":10685:10706  box4DepositDate[from] */\n      0xffffffffffffffffffffffffffffffffffffffff\n      and\n      0xffffffffffffffffffffffffffffffffffffffff\n      and\n      dup2\n      mstore\n      0x20\n      add\n      swap1\n      dup2\n      mstore\n      0x20\n      add\n      0x00\n      keccak256\n        /* \"contracts/LandFiStake.sol\":10685:10710  box4DepositDate[from] = 0 */\n      dup2\n      swap1\n      sstore\n      pop\n        /* \"contracts/LandFiStake.sol\":10230:10722  if (boxNo == 4) {... */\n    tag_261:\n        /* \"contracts/LandFiStake.sol\":10739:10749  fullUnlock */\n      0x1e\n      0x00\n      swap1\n      sload\n      swap1\n      0x0100\n      exp\n      swap1\n      div\n      0xff\n      and\n        /* \"contracts/LandFiStake.sol\":10734:10885  if (!fullUnlock) {... */\n      tag_269\n      jumpi\n        /* \"contracts/LandFiStake.sol\":10780:10809  rewardCount.add(rewardAmount) */\n      tag_270\n        /* \"contracts/LandFiStake.sol\":10796:10808  rewardAmount */\n      dup3\n        /* \"contracts/LandFiStake.sol\":10780:10791  rewardCount */\n      sload(0x1b)\n        /* \"contracts/LandFiStake.sol\":10780:10795  rewardCount.add */\n      tag_239\n      swap1\n        /* \"contracts/LandFiStake.sol\":10780:10809  rewardCount.add(rewardAmount) */\n      swap2\n      swap1\n      0xffffffff\n      and\n      jump\t// in\n    tag_270:\n        /* \"contracts/LandFiStake.sol\":10766:10777  rewardCount */\n      0x1b\n        /* \"contracts/LandFiStake.sol\":10766:10809  rewardCount = rewardCount.add(rewardAmount) */\n      dup2\n      swap1\n      sstore\n      pop\n        /* \"contracts/LandFiStake.sol\":10841:10873  rewardCountDue.sub(rewardAmount) */\n      tag_271\n        /* \"contracts/LandFiStake.sol\":10860:10872  rewardAmount */\n      dup3\n        /* \"contracts/LandFiStake.sol\":10841:10855  rewardCountDue */\n      sload(0x1a)\n        /* \"contracts/LandFiStake.sol\":10841:10859  rewardCountDue.sub */\n      tag_272\n      swap1\n        /* \"contracts/LandFiStake.sol\":10841:10873  rewardCountDue.sub(rewardAmount) */\n      swap2\n      swap1\n      0xffffffff\n      and\n      jump\t// in\n    tag_271:\n        /* \"contracts/LandFiStake.sol\":10824:10838  rewardCountDue */\n      0x1a\n        /* \"contracts/LandFiStake.sol\":10824:10873  rewardCountDue = rewardCountDue.sub(rewardAmount) */\n      dup2\n      swap1\n      sstore\n      pop\n        /* \"contracts/LandFiStake.sol\":10734:10885  if (!fullUnlock) {... */\n    tag_269:\n        /* \"contracts/LandFiStake.sol\":10919:10947  totalStaked.sub(tokenAmount) */\n      tag_273\n        /* \"contracts/LandFiStake.sol\":10935:10946  tokenAmount */\n      dup2\n        /* \"contracts/LandFiStake.sol\":10919:10930  totalStaked */\n      sload(0x1c)\n        /* \"contracts/LandFiStake.sol\":10919:10934  totalStaked.sub */\n      tag_272\n      swap1\n        /* \"contracts/LandFiStake.sol\":10919:10947  totalStaked.sub(tokenAmount) */\n      swap2\n      swap1\n      0xffffffff\n      and\n      jump\t// in\n    tag_273:\n        /* \"contracts/LandFiStake.sol\":10905:10916  totalStaked */\n      0x1c\n        /* \"contracts/LandFiStake.sol\":10905:10947  totalStaked = totalStaked.sub(tokenAmount) */\n      dup2\n      swap1\n      sstore\n      pop\n        /* \"contracts/LandFiStake.sol\":10960:10984  LandFiToken landFiTokenI */\n      0x00\n        /* \"contracts/LandFiStake.sol\":10999:11011  tokenAddress */\n      0x18\n      0x00\n      swap1\n      sload\n      swap1\n      0x0100\n      exp\n      swap1\n      div\n      0xffffffffffffffffffffffffffffffffffffffff\n      and\n        /* \"contracts/LandFiStake.sol\":10960:11012  LandFiToken landFiTokenI = LandFiToken(tokenAddress) */\n      swap1\n      pop\n        /* \"contracts/LandFiStake.sol\":11059:11071  landFiTokenI */\n      dup1\n        /* \"contracts/LandFiStake.sol\":11059:11084  landFiTokenI.transferFrom */\n      0xffffffffffffffffffffffffffffffffffffffff\n      and\n      0x23b872dd\n        /* \"contracts/LandFiStake.sol\":11085:11096  stakeWallet */\n      0x16\n      0x00\n      swap1\n      sload\n      swap1\n      0x0100\n      exp\n      swap1\n      div\n      0xffffffffffffffffffffffffffffffffffffffff\n      and\n        /* \"contracts/LandFiStake.sol\":11098:11102  from */\n      dup7\n        /* \"contracts/LandFiStake.sol\":11104:11115  tokenAmount */\n      dup6\n        /* \"contracts/LandFiStake.sol\":11059:11116  landFiTokenI.transferFrom(stakeWallet, from, tokenAmount) */\n      mload(0x40)\n      dup5\n      0xffffffff\n      and\n      0xe0\n      shl\n      dup2\n      mstore\n      0x04\n      add\n      tag_274\n      swap4\n      swap3\n      swap2\n      swap1\n      tag_275\n      jump\t// in\n    tag_274:\n      0x20\n      mload(0x40)\n      dup1\n      dup4\n      sub\n      dup2\n      0x00\n      dup8\n      gas\n      call\n      iszero\n      dup1\n      iszero\n      tag_277\n      jumpi\n      returndatacopy(0x00, 0x00, returndatasize)\n      revert(0x00, returndatasize)\n    tag_277:\n      pop\n      pop\n      pop\n      pop\n      mload(0x40)\n      returndatasize\n      not(0x1f)\n      0x1f\n      dup3\n      add\n      and\n      dup3\n      add\n      dup1\n      0x40\n      mstore\n      pop\n      dup2\n      add\n      swap1\n      tag_278\n      swap2\n      swap1\n      tag_279\n      jump\t// in\n    tag_278:\n      pop\n        /* \"contracts/LandFiStake.sol\":11184:11194  fullUnlock */\n      0x1e\n      0x00\n      swap1\n      sload\n      swap1\n      0x0100\n      exp\n      swap1\n      div\n      0xff\n      and\n        /* \"contracts/LandFiStake.sol\":11179:11347  if (!fullUnlock) {... */\n      tag_280\n      jumpi\n        /* \"contracts/LandFiStake.sol\":11275:11287  landFiTokenI */\n      dup1\n        /* \"contracts/LandFiStake.sol\":11275:11300  landFiTokenI.transferFrom */\n      0xffffffffffffffffffffffffffffffffffffffff\n      and\n      0x23b872dd\n        /* \"contracts/LandFiStake.sol\":11301:11313  rewardWallet */\n      0x17\n      0x00\n      swap1\n      sload\n      swap1\n      0x0100\n      exp\n      swap1\n      div\n      0xffffffffffffffffffffffffffffffffffffffff\n      and\n        /* \"contracts/LandFiStake.sol\":11315:11319  from */\n      dup7\n        /* \"contracts/LandFiStake.sol\":11321:11333  rewardAmount */\n      dup7\n        /* \"contracts/LandFiStake.sol\":11275:11334  landFiTokenI.transferFrom(rewardWallet, from, rewardAmount) */\n      mload(0x40)\n      dup5\n      0xffffffff\n      and\n      0xe0\n      shl\n      dup2\n      mstore\n      0x04\n      add\n      tag_281\n      swap4\n      swap3\n      swap2\n      swap1\n      tag_275\n      jump\t// in\n    tag_281:\n      0x20\n      mload(0x40)\n      dup1\n      dup4\n      sub\n      dup2\n      0x00\n      dup8\n      gas\n      call\n      iszero\n      dup1\n      iszero\n      tag_283\n      jumpi\n      returndatacopy(0x00, 0x00, returndatasize)\n      revert(0x00, returndatasize)\n    tag_283:\n      pop\n      pop\n      pop\n      pop\n      mload(0x40)\n      returndatasize\n      not(0x1f)\n      0x1f\n      dup3\n      add\n      and\n      dup3\n      add\n      dup1\n      0x40\n      mstore\n      pop\n      dup2\n      add\n      swap1\n      tag_284\n      swap2\n      swap1\n      tag_279\n      jump\t// in\n    tag_284:\n      pop\n        /* \"contracts/LandFiStake.sol\":11179:11347  if (!fullUnlock) {... */\n    tag_280:\n        /* \"contracts/LandFiStake.sol\":11359:11366  return; */\n      pop\n      pop\n      pop\n      pop\n        /* \"contracts/LandFiStake.sol\":8453:11373  function pullStake(uint256 boxNo) public {... */\n      pop\n      jump\t// out\n        /* \"contracts/LandFiStake.sol\":2108:2131  uint256 public minStake */\n    tag_89:\n      sload(0x19)\n      dup2\n      jump\t// out\n        /* \"contracts/LandFiStake.sol\":1484:1535  mapping (address => uint256) public box4DepositDate */\n    tag_93:\n      mstore(0x20, 0x11)\n      dup1\n      0x00\n      mstore\n      keccak256(0x00, 0x40)\n      0x00\n      swap2\n      pop\n      swap1\n      pop\n      sload\n      dup2\n      jump\t// out\n        /* \"contracts/LandFiStake.sol\":776:823  mapping (address => uint256) public box1Balance */\n    tag_97:\n      mstore(0x20, 0x01)\n      dup1\n      0x00\n      mstore\n      keccak256(0x00, 0x40)\n      0x00\n      swap2\n      pop\n      swap1\n      pop\n      sload\n      dup2\n      jump\t// out\n        /* \"contracts/LandFiStake.sol\":918:941  uint256 public box1Time */\n    tag_100:\n      sload(0x04)\n      dup2\n      jump\t// out\n        /* \"contracts/LandFiStake.sol\":5398:5860  function stakeAmount(address walletAddress, uint256 boxNo) public view returns (uint256) {... */\n    tag_105:\n        /* \"contracts/LandFiStake.sol\":5478:5485  uint256 */\n      0x00\n        /* \"contracts/LandFiStake.sol\":5511:5512  1 */\n      0x01\n        /* \"contracts/LandFiStake.sol\":5502:5507  boxNo */\n      dup3\n        /* \"contracts/LandFiStake.sol\":5502:5512  boxNo == 1 */\n      sub\n        /* \"contracts/LandFiStake.sol\":5498:5574  if (boxNo == 1) {... */\n      tag_286\n      jumpi\n        /* \"contracts/LandFiStake.sol\":5536:5547  box1Balance */\n      0x01\n        /* \"contracts/LandFiStake.sol\":5536:5562  box1Balance[walletAddress] */\n      0x00\n        /* \"contracts/LandFiStake.sol\":5548:5561  walletAddress */\n      dup5\n        /* \"contracts/LandFiStake.sol\":5536:5562  box1Balance[walletAddress] */\n      0xffffffffffffffffffffffffffffffffffffffff\n      and\n      0xffffffffffffffffffffffffffffffffffffffff\n      and\n      dup2\n      mstore\n      0x20\n      add\n      swap1\n      dup2\n      mstore\n      0x20\n      add\n      0x00\n      keccak256\n      sload\n        /* \"contracts/LandFiStake.sol\":5529:5562  return box1Balance[walletAddress] */\n      swap1\n      pop\n      jump(tag_285)\n        /* \"contracts/LandFiStake.sol\":5498:5574  if (boxNo == 1) {... */\n    tag_286:\n        /* \"contracts/LandFiStake.sol\":5597:5598  2 */\n      0x02\n        /* \"contracts/LandFiStake.sol\":5588:5593  boxNo */\n      dup3\n        /* \"contracts/LandFiStake.sol\":5588:5598  boxNo == 2 */\n      sub\n        /* \"contracts/LandFiStake.sol\":5584:5660  if (boxNo == 2) {... */\n      tag_287\n      jumpi\n        /* \"contracts/LandFiStake.sol\":5622:5633  box2Balance */\n      0x06\n        /* \"contracts/LandFiStake.sol\":5622:5648  box2Balance[walletAddress] */\n      0x00\n        /* \"contracts/LandFiStake.sol\":5634:5647  walletAddress */\n      dup5\n        /* \"contracts/LandFiStake.sol\":5622:5648  box2Balance[walletAddress] */\n      0xffffffffffffffffffffffffffffffffffffffff\n      and\n      0xffffffffffffffffffffffffffffffffffffffff\n      and\n      dup2\n      mstore\n      0x20\n      add\n      swap1\n      dup2\n      mstore\n      0x20\n      add\n      0x00\n      keccak256\n      sload\n        /* \"contracts/LandFiStake.sol\":5615:5648  return box2Balance[walletAddress] */\n      swap1\n      pop\n      jump(tag_285)\n        /* \"contracts/LandFiStake.sol\":5584:5660  if (boxNo == 2) {... */\n    tag_287:\n        /* \"contracts/LandFiStake.sol\":5683:5684  3 */\n      0x03\n        /* \"contracts/LandFiStake.sol\":5674:5679  boxNo */\n      dup3\n        /* \"contracts/LandFiStake.sol\":5674:5684  boxNo == 3 */\n      sub\n        /* \"contracts/LandFiStake.sol\":5670:5746  if (boxNo == 3) {... */\n      tag_288\n      jumpi\n        /* \"contracts/LandFiStake.sol\":5708:5719  box3Balance */\n      0x0b\n        /* \"contracts/LandFiStake.sol\":5708:5734  box3Balance[walletAddress] */\n      0x00\n        /* \"contracts/LandFiStake.sol\":5720:5733  walletAddress */\n      dup5\n        /* \"contracts/LandFiStake.sol\":5708:5734  box3Balance[walletAddress] */\n      0xffffffffffffffffffffffffffffffffffffffff\n      and\n      0xffffffffffffffffffffffffffffffffffffffff\n      and\n      dup2\n      mstore\n      0x20\n      add\n      swap1\n      dup2\n      mstore\n      0x20\n      add\n      0x00\n      keccak256\n      sload\n        /* \"contracts/LandFiStake.sol\":5701:5734  return box3Balance[walletAddress] */\n      swap1\n      pop\n      jump(tag_285)\n        /* \"contracts/LandFiStake.sol\":5670:5746  if (boxNo == 3) {... */\n    tag_288:\n        /* \"contracts/LandFiStake.sol\":5769:5770  4 */\n      0x04\n        /* \"contracts/LandFiStake.sol\":5760:5765  boxNo */\n      dup3\n        /* \"contracts/LandFiStake.sol\":5760:5770  boxNo == 4 */\n      sub\n        /* \"contracts/LandFiStake.sol\":5756:5832  if (boxNo == 4) {... */\n      tag_289\n      jumpi\n        /* \"contracts/LandFiStake.sol\":5794:5805  box4Balance */\n      0x10\n        /* \"contracts/LandFiStake.sol\":5794:5820  box4Balance[walletAddress] */\n      0x00\n        /* \"contracts/LandFiStake.sol\":5806:5819  walletAddress */\n      dup5\n        /* \"contracts/LandFiStake.sol\":5794:5820  box4Balance[walletAddress] */\n      0xffffffffffffffffffffffffffffffffffffffff\n      and\n      0xffffffffffffffffffffffffffffffffffffffff\n      and\n      dup2\n      mstore\n      0x20\n      add\n      swap1\n      dup2\n      mstore\n      0x20\n      add\n      0x00\n      keccak256\n      sload\n        /* \"contracts/LandFiStake.sol\":5787:5820  return box4Balance[walletAddress] */\n      swap1\n      pop\n      jump(tag_285)\n        /* \"contracts/LandFiStake.sol\":5756:5832  if (boxNo == 4) {... */\n    tag_289:\n        /* \"contracts/LandFiStake.sol\":5851:5852  0 */\n      0x00\n        /* \"contracts/LandFiStake.sol\":5844:5852  return 0 */\n      swap1\n      pop\n        /* \"contracts/LandFiStake.sol\":5398:5860  function stakeAmount(address walletAddress, uint256 boxNo) public view returns (uint256) {... */\n    tag_285:\n      swap3\n      swap2\n      pop\n      pop\n      jump\t// out\n        /* \"contracts/LandFiStake.sol\":830:881  mapping (address => uint256) public box1DepositDate */\n    tag_109:\n      mstore(0x20, 0x02)\n      dup1\n      0x00\n      mstore\n      keccak256(0x00, 0x40)\n      0x00\n      swap2\n      pop\n      swap1\n      pop\n      sload\n      dup2\n      jump\t// out\n        /* \"contracts/LandFiStake.sol\":1602:1625  bool public box4Enabled */\n    tag_112:\n      0x14\n      0x00\n      swap1\n      sload\n      swap1\n      0x0100\n      exp\n      swap1\n      div\n      0xff\n      and\n      dup2\n      jump\t// out\n        /* \"contracts/LandFiStake.sol\":3729:3846  function changeBox2Status(bool newBox2Status) public virtual onlyOwner {... */\n    tag_117:\n        /* \"contracts/access/Ownable.sol\":1259:1271  _msgSender() */\n      tag_291\n        /* \"contracts/access/Ownable.sol\":1259:1269  _msgSender */\n      tag_214\n        /* \"contracts/access/Ownable.sol\":1259:1271  _msgSender() */\n      jump\t// in\n    tag_291:\n        /* \"contracts/access/Ownable.sol\":1248:1271  owner() == _msgSender() */\n      0xffffffffffffffffffffffffffffffffffffffff\n      and\n        /* \"contracts/access/Ownable.sol\":1248:1255  owner() */\n      tag_292\n        /* \"contracts/access/Ownable.sol\":1248:1253  owner */\n      tag_151\n        /* \"contracts/access/Ownable.sol\":1248:1255  owner() */\n      jump\t// in\n    tag_292:\n        /* \"contracts/access/Ownable.sol\":1248:1271  owner() == _msgSender() */\n      0xffffffffffffffffffffffffffffffffffffffff\n      and\n      eq\n        /* \"contracts/access/Ownable.sol\":1240:1308  require(owner() == _msgSender(), \"Ownable: caller is not the owner\") */\n      tag_293\n      jumpi\n      mload(0x40)\n      0x08c379a000000000000000000000000000000000000000000000000000000000\n      dup2\n      mstore\n      0x04\n      add\n      tag_294\n      swap1\n      tag_218\n      jump\t// in\n    tag_294:\n      mload(0x40)\n      dup1\n      swap2\n      sub\n      swap1\n      revert\n    tag_293:\n        /* \"contracts/LandFiStake.sol\":3825:3838  newBox2Status */\n      dup1\n        /* \"contracts/LandFiStake.sol\":3811:3822  box2Enabled */\n      0x0a\n      0x00\n        /* \"contracts/LandFiStake.sol\":3811:3838  box2Enabled = newBox2Status */\n      0x0100\n      exp\n      dup2\n      sload\n      dup2\n      0xff\n      mul\n      not\n      and\n      swap1\n      dup4\n      iszero\n      iszero\n      mul\n      or\n      swap1\n      sstore\n      pop\n        /* \"contracts/LandFiStake.sol\":3729:3846  function changeBox2Status(bool newBox2Status) public virtual onlyOwner {... */\n      pop\n      jump\t// out\n        /* \"contracts/LandFiStake.sol\":3606:3723  function changeBox1Status(bool newBox1Status) public virtual onlyOwner {... */\n    tag_120:\n        /* \"contracts/access/Ownable.sol\":1259:1271  _msgSender() */\n      tag_297\n        /* \"contracts/access/Ownable.sol\":1259:1269  _msgSender */\n      tag_214\n        /* \"contracts/access/Ownable.sol\":1259:1271  _msgSender() */\n      jump\t// in\n    tag_297:\n        /* \"contracts/access/Ownable.sol\":1248:1271  owner() == _msgSender() */\n      0xffffffffffffffffffffffffffffffffffffffff\n      and\n        /* \"contracts/access/Ownable.sol\":1248:1255  owner() */\n      tag_298\n        /* \"contracts/access/Ownable.sol\":1248:1253  owner */\n      tag_151\n        /* \"contracts/access/Ownable.sol\":1248:1255  owner() */\n      jump\t// in\n    tag_298:\n        /* \"contracts/access/Ownable.sol\":1248:1271  owner() == _msgSender() */\n      0xffffffffffffffffffffffffffffffffffffffff\n      and\n      eq\n        /* \"contracts/access/Ownable.sol\":1240:1308  require(owner() == _msgSender(), \"Ownable: caller is not the owner\") */\n      tag_299\n      jumpi\n      mload(0x40)\n      0x08c379a000000000000000000000000000000000000000000000000000000000\n      dup2\n      mstore\n      0x04\n      add\n      tag_300\n      swap1\n      tag_218\n      jump\t// in\n    tag_300:\n      mload(0x40)\n      dup1\n      swap2\n      sub\n      swap1\n      revert\n    tag_299:\n        /* \"contracts/LandFiStake.sol\":3702:3715  newBox1Status */\n      dup1\n        /* \"contracts/LandFiStake.sol\":3688:3699  box1Enabled */\n      0x05\n      0x00\n        /* \"contracts/LandFiStake.sol\":3688:3715  box1Enabled = newBox1Status */\n      0x0100\n      exp\n      dup2\n      sload\n      dup2\n      0xff\n      mul\n      not\n      and\n      swap1\n      dup4\n      iszero\n      iszero\n      mul\n      or\n      swap1\n      sstore\n      pop\n        /* \"contracts/LandFiStake.sol\":3606:3723  function changeBox1Status(bool newBox1Status) public virtual onlyOwner {... */\n      pop\n      jump\t// out\n        /* \"contracts/LandFiStake.sol\":4595:4844  function balanceOf(address walletAddress) public view returns (uint256) {... */\n    tag_123:\n        /* \"contracts/LandFiStake.sol\":4658:4665  uint256 */\n      0x00\n        /* \"contracts/LandFiStake.sol\":4678:4693  uint256 balance */\n      0x00\n        /* \"contracts/LandFiStake.sol\":4783:4794  box4Balance */\n      0x10\n        /* \"contracts/LandFiStake.sol\":4783:4809  box4Balance[walletAddress] */\n      0x00\n        /* \"contracts/LandFiStake.sol\":4795:4808  walletAddress */\n      dup5\n        /* \"contracts/LandFiStake.sol\":4783:4809  box4Balance[walletAddress] */\n      0xffffffffffffffffffffffffffffffffffffffff\n      and\n      0xffffffffffffffffffffffffffffffffffffffff\n      and\n      dup2\n      mstore\n      0x20\n      add\n      swap1\n      dup2\n      mstore\n      0x20\n      add\n      0x00\n      keccak256\n      sload\n        /* \"contracts/LandFiStake.sol\":4754:4765  box3Balance */\n      0x0b\n        /* \"contracts/LandFiStake.sol\":4754:4780  box3Balance[walletAddress] */\n      0x00\n        /* \"contracts/LandFiStake.sol\":4766:4779  walletAddress */\n      dup6\n        /* \"contracts/LandFiStake.sol\":4754:4780  box3Balance[walletAddress] */\n      0xffffffffffffffffffffffffffffffffffffffff\n      and\n      0xffffffffffffffffffffffffffffffffffffffff\n      and\n      dup2\n      mstore\n      0x20\n      add\n      swap1\n      dup2\n      mstore\n      0x20\n      add\n      0x00\n      keccak256\n      sload\n        /* \"contracts/LandFiStake.sol\":4725:4736  box2Balance */\n      0x06\n        /* \"contracts/LandFiStake.sol\":4725:4751  box2Balance[walletAddress] */\n      0x00\n        /* \"contracts/LandFiStake.sol\":4737:4750  walletAddress */\n      dup7\n        /* \"contracts/LandFiStake.sol\":4725:4751  box2Balance[walletAddress] */\n      0xffffffffffffffffffffffffffffffffffffffff\n      and\n      0xffffffffffffffffffffffffffffffffffffffff\n      and\n      dup2\n      mstore\n      0x20\n      add\n      swap1\n      dup2\n      mstore\n      0x20\n      add\n      0x00\n      keccak256\n      sload\n        /* \"contracts/LandFiStake.sol\":4696:4707  box1Balance */\n      0x01\n        /* \"contracts/LandFiStake.sol\":4696:4722  box1Balance[walletAddress] */\n      0x00\n        /* \"contracts/LandFiStake.sol\":4708:4721  walletAddress */\n      dup8\n        /* \"contracts/LandFiStake.sol\":4696:4722  box1Balance[walletAddress] */\n      0xffffffffffffffffffffffffffffffffffffffff\n      and\n      0xffffffffffffffffffffffffffffffffffffffff\n      and\n      dup2\n      mstore\n      0x20\n      add\n      swap1\n      dup2\n      mstore\n      0x20\n      add\n      0x00\n      keccak256\n      sload\n        /* \"contracts/LandFiStake.sol\":4696:4751  box1Balance[walletAddress] + box2Balance[walletAddress] */\n      tag_303\n      swap2\n      swap1\n      tag_304\n      jump\t// in\n    tag_303:\n        /* \"contracts/LandFiStake.sol\":4696:4780  box1Balance[walletAddress] + box2Balance[walletAddress] + box3Balance[walletAddress] */\n      tag_305\n      swap2\n      swap1\n      tag_304\n      jump\t// in\n    tag_305:\n        /* \"contracts/LandFiStake.sol\":4696:4809  box1Balance[walletAddress] + box2Balance[walletAddress] + box3Balance[walletAddress] + box4Balance[walletAddress] */\n      tag_306\n      swap2\n      swap1\n      tag_304\n      jump\t// in\n    tag_306:\n        /* \"contracts/LandFiStake.sol\":4678:4809  uint256 balance = box1Balance[walletAddress] + box2Balance[walletAddress] + box3Balance[walletAddress] + box4Balance[walletAddress] */\n      swap1\n      pop\n        /* \"contracts/LandFiStake.sol\":4829:4836  balance */\n      dup1\n        /* \"contracts/LandFiStake.sol\":4822:4836  return balance */\n      swap2\n      pop\n      pop\n        /* \"contracts/LandFiStake.sol\":4595:4844  function balanceOf(address walletAddress) public view returns (uint256) {... */\n      swap2\n      swap1\n      pop\n      jump\t// out\n        /* \"contracts/access/Ownable.sol\":1668:1769  function renounceOwnership() public virtual onlyOwner {... */\n    tag_126:\n        /* \"contracts/access/Ownable.sol\":1259:1271  _msgSender() */\n      tag_308\n        /* \"contracts/access/Ownable.sol\":1259:1269  _msgSender */\n      tag_214\n        /* \"contracts/access/Ownable.sol\":1259:1271  _msgSender() */\n      jump\t// in\n    tag_308:\n        /* \"contracts/access/Ownable.sol\":1248:1271  owner() == _msgSender() */\n      0xffffffffffffffffffffffffffffffffffffffff\n      and\n        /* \"contracts/access/Ownable.sol\":1248:1255  owner() */\n      tag_309\n        /* \"contracts/access/Ownable.sol\":1248:1253  owner */\n      tag_151\n        /* \"contracts/access/Ownable.sol\":1248:1255  owner() */\n      jump\t// in\n    tag_309:\n        /* \"contracts/access/Ownable.sol\":1248:1271  owner() == _msgSender() */\n      0xffffffffffffffffffffffffffffffffffffffff\n      and\n      eq\n        /* \"contracts/access/Ownable.sol\":1240:1308  require(owner() == _msgSender(), \"Ownable: caller is not the owner\") */\n      tag_310\n      jumpi\n      mload(0x40)\n      0x08c379a000000000000000000000000000000000000000000000000000000000\n      dup2\n      mstore\n      0x04\n      add\n      tag_311\n      swap1\n      tag_218\n      jump\t// in\n    tag_311:\n      mload(0x40)\n      dup1\n      swap2\n      sub\n      swap1\n      revert\n    tag_310:\n        /* \"contracts/access/Ownable.sol\":1732:1762  _transferOwnership(address(0)) */\n      tag_313\n        /* \"contracts/access/Ownable.sol\":1759:1760  0 */\n      0x00\n        /* \"contracts/access/Ownable.sol\":1732:1750  _transferOwnership */\n      tag_314\n        /* \"contracts/access/Ownable.sol\":1732:1762  _transferOwnership(address(0)) */\n      jump\t// in\n    tag_313:\n        /* \"contracts/access/Ownable.sol\":1668:1769  function renounceOwnership() public virtual onlyOwner {... */\n      jump\t// out\n        /* \"contracts/LandFiStake.sol\":1166:1189  bool public box2Enabled */\n    tag_128:\n      0x0a\n      0x00\n      swap1\n      sload\n      swap1\n      0x0100\n      exp\n      swap1\n      div\n      0xff\n      and\n      dup2\n      jump\t// out\n        /* \"contracts/LandFiStake.sol\":2272:2298  uint256 public rewardCount */\n    tag_131:\n      sload(0x1b)\n      dup2\n      jump\t// out\n        /* \"contracts/LandFiStake.sol\":1572:1595  uint256 public box4Time */\n    tag_134:\n      sload(0x13)\n      dup2\n      jump\t// out\n        /* \"contracts/LandFiStake.sol\":1048:1099  mapping (address => uint256) public box2DepositDate */\n    tag_138:\n      mstore(0x20, 0x07)\n      dup1\n      0x00\n      mstore\n      keccak256(0x00, 0x40)\n      0x00\n      swap2\n      pop\n      swap1\n      pop\n      sload\n      dup2\n      jump\t// out\n        /* \"contracts/LandFiStake.sol\":2349:2375  uint256 public totalStaked */\n    tag_141:\n      sload(0x1c)\n      dup2\n      jump\t// out\n        /* \"contracts/LandFiStake.sol\":1266:1317  mapping (address => uint256) public box3DepositDate */\n    tag_145:\n      mstore(0x20, 0x0c)\n      dup1\n      0x00\n      mstore\n      keccak256(0x00, 0x40)\n      0x00\n      swap2\n      pop\n      swap1\n      pop\n      sload\n      dup2\n      jump\t// out\n        /* \"contracts/LandFiStake.sol\":948:971  bool public box1Enabled */\n    tag_148:\n      0x05\n      0x00\n      swap1\n      sload\n      swap1\n      0x0100\n      exp\n      swap1\n      div\n      0xff\n      and\n      dup2\n      jump\t// out\n        /* \"contracts/access/Ownable.sol\":1036:1121  function owner() public view virtual returns (address) {... */\n    tag_151:\n        /* \"contracts/access/Ownable.sol\":1082:1089  address */\n      0x00\n        /* \"contracts/access/Ownable.sol\":1108:1114  _owner */\n      0x00\n      0x00\n      swap1\n      sload\n      swap1\n      0x0100\n      exp\n      swap1\n      div\n      0xffffffffffffffffffffffffffffffffffffffff\n      and\n        /* \"contracts/access/Ownable.sol\":1101:1114  return _owner */\n      swap1\n      pop\n        /* \"contracts/access/Ownable.sol\":1036:1121  function owner() public view virtual returns (address) {... */\n      swap1\n      jump\t// out\n        /* \"contracts/LandFiStake.sol\":4098:4225  function changeMaxRewardDue(uint256 newMaxRewardDue) public virtual onlyOwner {... */\n    tag_155:\n        /* \"contracts/access/Ownable.sol\":1259:1271  _msgSender() */\n      tag_317\n        /* \"contracts/access/Ownable.sol\":1259:1269  _msgSender */\n      tag_214\n        /* \"contracts/access/Ownable.sol\":1259:1271  _msgSender() */\n      jump\t// in\n    tag_317:\n        /* \"contracts/access/Ownable.sol\":1248:1271  owner() == _msgSender() */\n      0xffffffffffffffffffffffffffffffffffffffff\n      and\n        /* \"contracts/access/Ownable.sol\":1248:1255  owner() */\n      tag_318\n        /* \"contracts/access/Ownable.sol\":1248:1253  owner */\n      tag_151\n        /* \"contracts/access/Ownable.sol\":1248:1255  owner() */\n      jump\t// in\n    tag_318:\n        /* \"contracts/access/Ownable.sol\":1248:1271  owner() == _msgSender() */\n      0xffffffffffffffffffffffffffffffffffffffff\n      and\n      eq\n        /* \"contracts/access/Ownable.sol\":1240:1308  require(owner() == _msgSender(), \"Ownable: caller is not the owner\") */\n      tag_319\n      jumpi\n      mload(0x40)\n      0x08c379a000000000000000000000000000000000000000000000000000000000\n      dup2\n      mstore\n      0x04\n      add\n      tag_320\n      swap1\n      tag_218\n      jump\t// in\n    tag_320:\n      mload(0x40)\n      dup1\n      swap2\n      sub\n      swap1\n      revert\n    tag_319:\n        /* \"contracts/LandFiStake.sol\":4202:4217  newMaxRewardDue */\n      dup1\n        /* \"contracts/LandFiStake.sol\":4187:4199  maxRewardDue */\n      0x1d\n        /* \"contracts/LandFiStake.sol\":4187:4217  maxRewardDue = newMaxRewardDue */\n      dup2\n      swap1\n      sstore\n      pop\n        /* \"contracts/LandFiStake.sol\":4098:4225  function changeMaxRewardDue(uint256 newMaxRewardDue) public virtual onlyOwner {... */\n      pop\n      jump\t// out\n        /* \"contracts/LandFiStake.sol\":2003:2030  address public tokenAddress */\n    tag_157:\n      0x18\n      0x00\n      swap1\n      sload\n      swap1\n      0x0100\n      exp\n      swap1\n      div\n      0xffffffffffffffffffffffffffffffffffffffff\n      and\n      dup2\n      jump\t// out\n        /* \"contracts/LandFiStake.sol\":1324:1347  uint256 public box3Rate */\n    tag_160:\n      sload(0x0d)\n      dup2\n      jump\t// out\n        /* \"contracts/LandFiStake.sol\":2183:2212  uint256 public rewardCountDue */\n    tag_163:\n      sload(0x1a)\n      dup2\n      jump\t// out\n        /* \"contracts/LandFiStake.sol\":4852:5390  function stakeUnlockTime(address walletAddress, uint256 boxNo) public view returns (uint256) {... */\n    tag_167:\n        /* \"contracts/LandFiStake.sol\":4936:4943  uint256 */\n      0x00\n        /* \"contracts/LandFiStake.sol\":4969:4970  1 */\n      0x01\n        /* \"contracts/LandFiStake.sol\":4960:4965  boxNo */\n      dup3\n        /* \"contracts/LandFiStake.sol\":4960:4970  boxNo == 1 */\n      sub\n        /* \"contracts/LandFiStake.sol\":4956:5050  if (boxNo == 1) {... */\n      tag_323\n      jumpi\n        /* \"contracts/LandFiStake.sol\":4994:5038  box1DepositDate[walletAddress].add(box1Time) */\n      tag_324\n        /* \"contracts/LandFiStake.sol\":5029:5037  box1Time */\n      sload(0x04)\n        /* \"contracts/LandFiStake.sol\":4994:5009  box1DepositDate */\n      0x02\n        /* \"contracts/LandFiStake.sol\":4994:5024  box1DepositDate[walletAddress] */\n      0x00\n        /* \"contracts/LandFiStake.sol\":5010:5023  walletAddress */\n      dup7\n        /* \"contracts/LandFiStake.sol\":4994:5024  box1DepositDate[walletAddress] */\n      0xffffffffffffffffffffffffffffffffffffffff\n      and\n      0xffffffffffffffffffffffffffffffffffffffff\n      and\n      dup2\n      mstore\n      0x20\n      add\n      swap1\n      dup2\n      mstore\n      0x20\n      add\n      0x00\n      keccak256\n      sload\n        /* \"contracts/LandFiStake.sol\":4994:5028  box1DepositDate[walletAddress].add */\n      tag_239\n      swap1\n        /* \"contracts/LandFiStake.sol\":4994:5038  box1DepositDate[walletAddress].add(box1Time) */\n      swap2\n      swap1\n      0xffffffff\n      and\n      jump\t// in\n    tag_324:\n        /* \"contracts/LandFiStake.sol\":4987:5038  return box1DepositDate[walletAddress].add(box1Time) */\n      swap1\n      pop\n      jump(tag_322)\n        /* \"contracts/LandFiStake.sol\":4956:5050  if (boxNo == 1) {... */\n    tag_323:\n        /* \"contracts/LandFiStake.sol\":5073:5074  2 */\n      0x02\n        /* \"contracts/LandFiStake.sol\":5064:5069  boxNo */\n      dup3\n        /* \"contracts/LandFiStake.sol\":5064:5074  boxNo == 2 */\n      sub\n        /* \"contracts/LandFiStake.sol\":5060:5154  if (boxNo == 2) {... */\n      tag_325\n      jumpi\n        /* \"contracts/LandFiStake.sol\":5098:5142  box2DepositDate[walletAddress].add(box2Time) */\n      tag_326\n        /* \"contracts/LandFiStake.sol\":5133:5141  box2Time */\n      sload(0x09)\n        /* \"contracts/LandFiStake.sol\":5098:5113  box2DepositDate */\n      0x07\n        /* \"contracts/LandFiStake.sol\":5098:5128  box2DepositDate[walletAddress] */\n      0x00\n        /* \"contracts/LandFiStake.sol\":5114:5127  walletAddress */\n      dup7\n        /* \"contracts/LandFiStake.sol\":5098:5128  box2DepositDate[walletAddress] */\n      0xffffffffffffffffffffffffffffffffffffffff\n      and\n      0xffffffffffffffffffffffffffffffffffffffff\n      and\n      dup2\n      mstore\n      0x20\n      add\n      swap1\n      dup2\n      mstore\n      0x20\n      add\n      0x00\n      keccak256\n      sload\n        /* \"contracts/LandFiStake.sol\":5098:5132  box2DepositDate[walletAddress].add */\n      tag_239\n      swap1\n        /* \"contracts/LandFiStake.sol\":5098:5142  box2DepositDate[walletAddress].add(box2Time) */\n      swap2\n      swap1\n      0xffffffff\n      and\n      jump\t// in\n    tag_326:\n        /* \"contracts/LandFiStake.sol\":5091:5142  return box2DepositDate[walletAddress].add(box2Time) */\n      swap1\n      pop\n      jump(tag_322)\n        /* \"contracts/LandFiStake.sol\":5060:5154  if (boxNo == 2) {... */\n    tag_325:\n        /* \"contracts/LandFiStake.sol\":5177:5178  3 */\n      0x03\n        /* \"contracts/LandFiStake.sol\":5168:5173  boxNo */\n      dup3\n        /* \"contracts/LandFiStake.sol\":5168:5178  boxNo == 3 */\n      sub\n        /* \"contracts/LandFiStake.sol\":5164:5258  if (boxNo == 3) {... */\n      tag_327\n      jumpi\n        /* \"contracts/LandFiStake.sol\":5202:5246  box3DepositDate[walletAddress].add(box3Time) */\n      tag_328\n        /* \"contracts/LandFiStake.sol\":5237:5245  box3Time */\n      sload(0x0e)\n        /* \"contracts/LandFiStake.sol\":5202:5217  box3DepositDate */\n      0x0c\n        /* \"contracts/LandFiStake.sol\":5202:5232  box3DepositDate[walletAddress] */\n      0x00\n        /* \"contracts/LandFiStake.sol\":5218:5231  walletAddress */\n      dup7\n        /* \"contracts/LandFiStake.sol\":5202:5232  box3DepositDate[walletAddress] */\n      0xffffffffffffffffffffffffffffffffffffffff\n      and\n      0xffffffffffffffffffffffffffffffffffffffff\n      and\n      dup2\n      mstore\n      0x20\n      add\n      swap1\n      dup2\n      mstore\n      0x20\n      add\n      0x00\n      keccak256\n      sload\n        /* \"contracts/LandFiStake.sol\":5202:5236  box3DepositDate[walletAddress].add */\n      tag_239\n      swap1\n        /* \"contracts/LandFiStake.sol\":5202:5246  box3DepositDate[walletAddress].add(box3Time) */\n      swap2\n      swap1\n      0xffffffff\n      and\n      jump\t// in\n    tag_328:\n        /* \"contracts/LandFiStake.sol\":5195:5246  return box3DepositDate[walletAddress].add(box3Time) */\n      swap1\n      pop\n      jump(tag_322)\n        /* \"contracts/LandFiStake.sol\":5164:5258  if (boxNo == 3) {... */\n    tag_327:\n        /* \"contracts/LandFiStake.sol\":5281:5282  4 */\n      0x04\n        /* \"contracts/LandFiStake.sol\":5272:5277  boxNo */\n      dup3\n        /* \"contracts/LandFiStake.sol\":5272:5282  boxNo == 4 */\n      sub\n        /* \"contracts/LandFiStake.sol\":5268:5362  if (boxNo == 4) {... */\n      tag_329\n      jumpi\n        /* \"contracts/LandFiStake.sol\":5306:5350  box4DepositDate[walletAddress].add(box4Time) */\n      tag_330\n        /* \"contracts/LandFiStake.sol\":5341:5349  box4Time */\n      sload(0x13)\n        /* \"contracts/LandFiStake.sol\":5306:5321  box4DepositDate */\n      0x11\n        /* \"contracts/LandFiStake.sol\":5306:5336  box4DepositDate[walletAddress] */\n      0x00\n        /* \"contracts/LandFiStake.sol\":5322:5335  walletAddress */\n      dup7\n        /* \"contracts/LandFiStake.sol\":5306:5336  box4DepositDate[walletAddress] */\n      0xffffffffffffffffffffffffffffffffffffffff\n      and\n      0xffffffffffffffffffffffffffffffffffffffff\n      and\n      dup2\n      mstore\n      0x20\n      add\n      swap1\n      dup2\n      mstore\n      0x20\n      add\n      0x00\n      keccak256\n      sload\n        /* \"contracts/LandFiStake.sol\":5306:5340  box4DepositDate[walletAddress].add */\n      tag_239\n      swap1\n        /* \"contracts/LandFiStake.sol\":5306:5350  box4DepositDate[walletAddress].add(box4Time) */\n      swap2\n      swap1\n      0xffffffff\n      and\n      jump\t// in\n    tag_330:\n        /* \"contracts/LandFiStake.sol\":5299:5350  return box4DepositDate[walletAddress].add(box4Time) */\n      swap1\n      pop\n      jump(tag_322)\n        /* \"contracts/LandFiStake.sol\":5268:5362  if (boxNo == 4) {... */\n    tag_329:\n        /* \"contracts/LandFiStake.sol\":5381:5382  0 */\n      0x00\n        /* \"contracts/LandFiStake.sol\":5374:5382  return 0 */\n      swap1\n      pop\n        /* \"contracts/LandFiStake.sol\":4852:5390  function stakeUnlockTime(address walletAddress, uint256 boxNo) public view returns (uint256) {... */\n    tag_322:\n      swap3\n      swap2\n      pop\n      pop\n      jump\t// out\n        /* \"contracts/LandFiStake.sol\":1542:1565  uint256 public box4Rate */\n    tag_170:\n      sload(0x12)\n      dup2\n      jump\t// out\n        /* \"contracts/LandFiStake.sol\":4231:4342  function changeMaxStake(uint256 newMaxStake) public virtual onlyOwner {... */\n    tag_174:\n        /* \"contracts/access/Ownable.sol\":1259:1271  _msgSender() */\n      tag_332\n        /* \"contracts/access/Ownable.sol\":1259:1269  _msgSender */\n      tag_214\n        /* \"contracts/access/Ownable.sol\":1259:1271  _msgSender() */\n      jump\t// in\n    tag_332:\n        /* \"contracts/access/Ownable.sol\":1248:1271  owner() == _msgSender() */\n      0xffffffffffffffffffffffffffffffffffffffff\n      and\n        /* \"contracts/access/Ownable.sol\":1248:1255  owner() */\n      tag_333\n        /* \"contracts/access/Ownable.sol\":1248:1253  owner */\n      tag_151\n        /* \"contracts/access/Ownable.sol\":1248:1255  owner() */\n      jump\t// in\n    tag_333:\n        /* \"contracts/access/Ownable.sol\":1248:1271  owner() == _msgSender() */\n      0xffffffffffffffffffffffffffffffffffffffff\n      and\n      eq\n        /* \"contracts/access/Ownable.sol\":1240:1308  require(owner() == _msgSender(), \"Ownable: caller is not the owner\") */\n      tag_334\n      jumpi\n      mload(0x40)\n      0x08c379a000000000000000000000000000000000000000000000000000000000\n      dup2\n      mstore\n      0x04\n      add\n      tag_335\n      swap1\n      tag_218\n      jump\t// in\n    tag_335:\n      mload(0x40)\n      dup1\n      swap2\n      sub\n      swap1\n      revert\n    tag_334:\n        /* \"contracts/LandFiStake.sol\":4323:4334  newMaxStake */\n      dup1\n        /* \"contracts/LandFiStake.sol\":4312:4320  maxStake */\n      0x15\n        /* \"contracts/LandFiStake.sol\":4312:4334  maxStake = newMaxStake */\n      dup2\n      swap1\n      sstore\n      pop\n        /* \"contracts/LandFiStake.sol\":4231:4342  function changeMaxStake(uint256 newMaxStake) public virtual onlyOwner {... */\n      pop\n      jump\t// out\n        /* \"contracts/LandFiStake.sol\":1384:1407  bool public box3Enabled */\n    tag_176:\n      0x0f\n      0x00\n      swap1\n      sload\n      swap1\n      0x0100\n      exp\n      swap1\n      div\n      0xff\n      and\n      dup2\n      jump\t// out\n        /* \"contracts/LandFiStake.sol\":2484:2511  uint256 public maxRewardDue */\n    tag_179:\n      sload(0x1d)\n      dup2\n      jump\t// out\n        /* \"contracts/LandFiStake.sol\":1136:1159  uint256 public box2Time */\n    tag_182:\n      sload(0x09)\n      dup2\n      jump\t// out\n        /* \"contracts/LandFiStake.sol\":3852:3969  function changeBox3Status(bool newBox3Status) public virtual onlyOwner {... */\n    tag_186:\n        /* \"contracts/access/Ownable.sol\":1259:1271  _msgSender() */\n      tag_338\n        /* \"contracts/access/Ownable.sol\":1259:1269  _msgSender */\n      tag_214\n        /* \"contracts/access/Ownable.sol\":1259:1271  _msgSender() */\n      jump\t// in\n    tag_338:\n        /* \"contracts/access/Ownable.sol\":1248:1271  owner() == _msgSender() */\n      0xffffffffffffffffffffffffffffffffffffffff\n      and\n        /* \"contracts/access/Ownable.sol\":1248:1255  owner() */\n      tag_339\n        /* \"contracts/access/Ownable.sol\":1248:1253  owner */\n      tag_151\n        /* \"contracts/access/Ownable.sol\":1248:1255  owner() */\n      jump\t// in\n    tag_339:\n        /* \"contracts/access/Ownable.sol\":1248:1271  owner() == _msgSender() */\n      0xffffffffffffffffffffffffffffffffffffffff\n      and\n      eq\n        /* \"contracts/access/Ownable.sol\":1240:1308  require(owner() == _msgSender(), \"Ownable: caller is not the owner\") */\n      tag_340\n      jumpi\n      mload(0x40)\n      0x08c379a000000000000000000000000000000000000000000000000000000000\n      dup2\n      mstore\n      0x04\n      add\n      tag_341\n      swap1\n      tag_218\n      jump\t// in\n    tag_341:\n      mload(0x40)\n      dup1\n      swap2\n      sub\n      swap1\n      revert\n    tag_340:\n        /* \"contracts/LandFiStake.sol\":3948:3961  newBox3Status */\n      dup1\n        /* \"contracts/LandFiStake.sol\":3934:3945  box3Enabled */\n      0x0f\n      0x00\n        /* \"contracts/LandFiStake.sol\":3934:3961  box3Enabled = newBox3Status */\n      0x0100\n      exp\n      dup2\n      sload\n      dup2\n      0xff\n      mul\n      not\n      and\n      swap1\n      dup4\n      iszero\n      iszero\n      mul\n      or\n      swap1\n      sstore\n      pop\n        /* \"contracts/LandFiStake.sol\":3852:3969  function changeBox3Status(bool newBox3Status) public virtual onlyOwner {... */\n      pop\n      jump\t// out\n        /* \"contracts/LandFiStake.sol\":1106:1129  uint256 public box2Rate */\n    tag_188:\n      sload(0x08)\n      dup2\n      jump\t// out\n        /* \"contracts/LandFiStake.sol\":888:911  uint256 public box1Rate */\n    tag_191:\n      sload(0x03)\n      dup2\n      jump\t// out\n        /* \"contracts/LandFiStake.sol\":1789:1812  uint256 public maxStake */\n    tag_194:\n      sload(0x15)\n      dup2\n      jump\t// out\n        /* \"contracts/LandFiStake.sol\":4467:4583  function changeFullUnlock(bool newFullUnlock) public virtual onlyOwner {... */\n    tag_198:\n        /* \"contracts/access/Ownable.sol\":1259:1271  _msgSender() */\n      tag_344\n        /* \"contracts/access/Ownable.sol\":1259:1269  _msgSender */\n      tag_214\n        /* \"contracts/access/Ownable.sol\":1259:1271  _msgSender() */\n      jump\t// in\n    tag_344:\n        /* \"contracts/access/Ownable.sol\":1248:1271  owner() == _msgSender() */\n      0xffffffffffffffffffffffffffffffffffffffff\n      and\n        /* \"contracts/access/Ownable.sol\":1248:1255  owner() */\n      tag_345\n        /* \"contracts/access/Ownable.sol\":1248:1253  owner */\n      tag_151\n        /* \"contracts/access/Ownable.sol\":1248:1255  owner() */\n      jump\t// in\n    tag_345:\n        /* \"contracts/access/Ownable.sol\":1248:1271  owner() == _msgSender() */\n      0xffffffffffffffffffffffffffffffffffffffff\n      and\n      eq\n        /* \"contracts/access/Ownable.sol\":1240:1308  require(owner() == _msgSender(), \"Ownable: caller is not the owner\") */\n      tag_346\n      jumpi\n      mload(0x40)\n      0x08c379a000000000000000000000000000000000000000000000000000000000\n      dup2\n      mstore\n      0x04\n      add\n      tag_347\n      swap1\n      tag_218\n      jump\t// in\n    tag_347:\n      mload(0x40)\n      dup1\n      swap2\n      sub\n      swap1\n      revert\n    tag_346:\n        /* \"contracts/LandFiStake.sol\":4562:4575  newFullUnlock */\n      dup1\n        /* \"contracts/LandFiStake.sol\":4549:4559  fullUnlock */\n      0x1e\n      0x00\n        /* \"contracts/LandFiStake.sol\":4549:4575  fullUnlock = newFullUnlock */\n      0x0100\n      exp\n      dup2\n      sload\n      dup2\n      0xff\n      mul\n      not\n      and\n      swap1\n      dup4\n      iszero\n      iszero\n      mul\n      or\n      swap1\n      sstore\n      pop\n        /* \"contracts/LandFiStake.sol\":4467:4583  function changeFullUnlock(bool newFullUnlock) public virtual onlyOwner {... */\n      pop\n      jump\t// out\n        /* \"contracts/access/Ownable.sol\":1918:2116  function transferOwnership(address newOwner) public virtual onlyOwner {... */\n    tag_201:\n        /* \"contracts/access/Ownable.sol\":1259:1271  _msgSender() */\n      tag_350\n        /* \"contracts/access/Ownable.sol\":1259:1269  _msgSender */\n      tag_214\n        /* \"contracts/access/Ownable.sol\":1259:1271  _msgSender() */\n      jump\t// in\n    tag_350:\n        /* \"contracts/access/Ownable.sol\":1248:1271  owner() == _msgSender() */\n      0xffffffffffffffffffffffffffffffffffffffff\n      and\n        /* \"contracts/access/Ownable.sol\":1248:1255  owner() */\n      tag_351\n        /* \"contracts/access/Ownable.sol\":1248:1253  owner */\n      tag_151\n        /* \"contracts/access/Ownable.sol\":1248:1255  owner() */\n      jump\t// in\n    tag_351:\n        /* \"contracts/access/Ownable.sol\":1248:1271  owner() == _msgSender() */\n      0xffffffffffffffffffffffffffffffffffffffff\n      and\n      eq\n        /* \"contracts/access/Ownable.sol\":1240:1308  require(owner() == _msgSender(), \"Ownable: caller is not the owner\") */\n      tag_352\n      jumpi\n      mload(0x40)\n      0x08c379a000000000000000000000000000000000000000000000000000000000\n      dup2\n      mstore\n      0x04\n      add\n      tag_353\n      swap1\n      tag_218\n      jump\t// in\n    tag_353:\n      mload(0x40)\n      dup1\n      swap2\n      sub\n      swap1\n      revert\n    tag_352:\n        /* \"contracts/access/Ownable.sol\":2026:2027  0 */\n      0x00\n        /* \"contracts/access/Ownable.sol\":2006:2028  newOwner != address(0) */\n      0xffffffffffffffffffffffffffffffffffffffff\n      and\n        /* \"contracts/access/Ownable.sol\":2006:2014  newOwner */\n      dup2\n        /* \"contracts/access/Ownable.sol\":2006:2028  newOwner != address(0) */\n      0xffffffffffffffffffffffffffffffffffffffff\n      and\n      sub\n        /* \"contracts/access/Ownable.sol\":1998:2071  require(newOwner != address(0), \"Ownable: new owner is the zero address\") */\n      tag_355\n      jumpi\n      mload(0x40)\n      0x08c379a000000000000000000000000000000000000000000000000000000000\n      dup2\n      mstore\n      0x04\n      add\n      tag_356\n      swap1\n      tag_357\n      jump\t// in\n    tag_356:\n      mload(0x40)\n      dup1\n      swap2\n      sub\n      swap1\n      revert\n    tag_355:\n        /* \"contracts/access/Ownable.sol\":2081:2109  _transferOwnership(newOwner) */\n      tag_358\n        /* \"contracts/access/Ownable.sol\":2100:2108  newOwner */\n      dup2\n        /* \"contracts/access/Ownable.sol\":2081:2099  _transferOwnership */\n      tag_314\n        /* \"contracts/access/Ownable.sol\":2081:2109  _transferOwnership(newOwner) */\n      jump\t// in\n    tag_358:\n        /* \"contracts/access/Ownable.sol\":1918:2116  function transferOwnership(address newOwner) public virtual onlyOwner {... */\n      pop\n      jump\t// out\n        /* \"contracts/LandFiStake.sol\":2578:2600  bool public fullUnlock */\n    tag_203:\n      0x1e\n      0x00\n      swap1\n      sload\n      swap1\n      0x0100\n      exp\n      swap1\n      div\n      0xff\n      and\n      dup2\n      jump\t// out\n        /* \"contracts/LandFiStake.sol\":1931:1958  address public rewardWallet */\n    tag_206:\n      0x17\n      0x00\n      swap1\n      sload\n      swap1\n      0x0100\n      exp\n      swap1\n      div\n      0xffffffffffffffffffffffffffffffffffffffff\n      and\n      dup2\n      jump\t// out\n        /* \"contracts/LandFiStake.sol\":5886:8424  function addStake(uint256 tokenAmount, uint256 boxNo) public {... */\n    tag_211:\n        /* \"contracts/LandFiStake.sol\":5958:5970  address from */\n      0x00\n        /* \"contracts/LandFiStake.sol\":5973:5983  msg.sender */\n      caller\n        /* \"contracts/LandFiStake.sol\":5958:5983  address from = msg.sender */\n      swap1\n      pop\n        /* \"contracts/LandFiStake.sol\":6002:6022  uint256 rewardAmount */\n      0x00\n        /* \"contracts/LandFiStake.sol\":6025:6026  0 */\n      0x00\n        /* \"contracts/LandFiStake.sol\":6002:6026  uint256 rewardAmount = 0 */\n      swap1\n      pop\n        /* \"contracts/LandFiStake.sol\":6063:6074  rewardCount */\n      sload(0x1b)\n        /* \"contracts/LandFiStake.sol\":6047:6059  maxRewardDue */\n      sload(0x1d)\n        /* \"contracts/LandFiStake.sol\":6047:6074  maxRewardDue >= rewardCount */\n      lt\n      iszero\n        /* \"contracts/LandFiStake.sol\":6039:6114  require(maxRewardDue >= rewardCount, \"Staking on this contract has ended!\") */\n      tag_360\n      jumpi\n      mload(0x40)\n      0x08c379a000000000000000000000000000000000000000000000000000000000\n      dup2\n      mstore\n      0x04\n      add\n      tag_361\n      swap1\n      tag_362\n      jump\t// in\n    tag_361:\n      mload(0x40)\n      dup1\n      swap2\n      sub\n      swap1\n      revert\n    tag_360:\n        /* \"contracts/LandFiStake.sol\":6142:6143  1 */\n      0x01\n        /* \"contracts/LandFiStake.sol\":6133:6138  boxNo */\n      dup4\n        /* \"contracts/LandFiStake.sol\":6133:6143  boxNo == 1 */\n      eq\n        /* \"contracts/LandFiStake.sol\":6133:6157  boxNo == 1 || boxNo == 2 */\n      dup1\n      tag_363\n      jumpi\n      pop\n        /* \"contracts/LandFiStake.sol\":6156:6157  2 */\n      0x02\n        /* \"contracts/LandFiStake.sol\":6147:6152  boxNo */\n      dup4\n        /* \"contracts/LandFiStake.sol\":6147:6157  boxNo == 2 */\n      eq\n        /* \"contracts/LandFiStake.sol\":6133:6157  boxNo == 1 || boxNo == 2 */\n    tag_363:\n        /* \"contracts/LandFiStake.sol\":6133:6171  boxNo == 1 || boxNo == 2 || boxNo == 3 */\n      dup1\n      tag_364\n      jumpi\n      pop\n        /* \"contracts/LandFiStake.sol\":6170:6171  3 */\n      0x03\n        /* \"contracts/LandFiStake.sol\":6161:6166  boxNo */\n      dup4\n        /* \"contracts/LandFiStake.sol\":6161:6171  boxNo == 3 */\n      eq\n        /* \"contracts/LandFiStake.sol\":6133:6171  boxNo == 1 || boxNo == 2 || boxNo == 3 */\n    tag_364:\n        /* \"contracts/LandFiStake.sol\":6133:6185  boxNo == 1 || boxNo == 2 || boxNo == 3 || boxNo == 4 */\n      dup1\n      tag_365\n      jumpi\n      pop\n        /* \"contracts/LandFiStake.sol\":6184:6185  4 */\n      0x04\n        /* \"contracts/LandFiStake.sol\":6175:6180  boxNo */\n      dup4\n        /* \"contracts/LandFiStake.sol\":6175:6185  boxNo == 4 */\n      eq\n        /* \"contracts/LandFiStake.sol\":6133:6185  boxNo == 1 || boxNo == 2 || boxNo == 3 || boxNo == 4 */\n    tag_365:\n        /* \"contracts/LandFiStake.sol\":6125:6209  require(boxNo == 1 || boxNo == 2 || boxNo == 3 || boxNo == 4, \"Invalid product ID.\") */\n      tag_366\n      jumpi\n      mload(0x40)\n      0x08c379a000000000000000000000000000000000000000000000000000000000\n      dup2\n      mstore\n      0x04\n      add\n      tag_367\n      swap1\n      tag_232\n      jump\t// in\n    tag_367:\n      mload(0x40)\n      dup1\n      swap2\n      sub\n      swap1\n      revert\n    tag_366:\n        /* \"contracts/LandFiStake.sol\":6243:6251  minStake */\n      sload(0x19)\n        /* \"contracts/LandFiStake.sol\":6228:6239  tokenAmount */\n      dup5\n        /* \"contracts/LandFiStake.sol\":6228:6251  tokenAmount >= minStake */\n      lt\n      iszero\n        /* \"contracts/LandFiStake.sol\":6220:6285  require(tokenAmount >= minStake, \"Staked amount must be higher.\") */\n      tag_368\n      jumpi\n      mload(0x40)\n      0x08c379a000000000000000000000000000000000000000000000000000000000\n      dup2\n      mstore\n      0x04\n      add\n      tag_369\n      swap1\n      tag_370\n      jump\t// in\n    tag_369:\n      mload(0x40)\n      dup1\n      swap2\n      sub\n      swap1\n      revert\n    tag_368:\n        /* \"contracts/LandFiStake.sol\":6319:6327  maxStake */\n      sload(0x15)\n        /* \"contracts/LandFiStake.sol\":6304:6315  tokenAmount */\n      dup5\n        /* \"contracts/LandFiStake.sol\":6304:6327  tokenAmount <= maxStake */\n      gt\n      iszero\n        /* \"contracts/LandFiStake.sol\":6296:6360  require(tokenAmount <= maxStake, \"Staked amount must be lower.\") */\n      tag_371\n      jumpi\n      mload(0x40)\n      0x08c379a000000000000000000000000000000000000000000000000000000000\n      dup2\n      mstore\n      0x04\n      add\n      tag_372\n      swap1\n      tag_373\n      jump\t// in\n    tag_372:\n      mload(0x40)\n      dup1\n      swap2\n      sub\n      swap1\n      revert\n    tag_371:\n        /* \"contracts/LandFiStake.sol\":6393:6398  false */\n      0x00\n        /* \"contracts/LandFiStake.sol\":6379:6398  fullUnlock == false */\n      iszero\n      iszero\n        /* \"contracts/LandFiStake.sol\":6379:6389  fullUnlock */\n      0x1e\n      0x00\n      swap1\n      sload\n      swap1\n      0x0100\n      exp\n      swap1\n      div\n      0xff\n      and\n        /* \"contracts/LandFiStake.sol\":6379:6398  fullUnlock == false */\n      iszero\n      iszero\n      eq\n        /* \"contracts/LandFiStake.sol\":6371:6441  require(fullUnlock == false, \"Staking is currently in unlocked mode.\") */\n      tag_374\n      jumpi\n      mload(0x40)\n      0x08c379a000000000000000000000000000000000000000000000000000000000\n      dup2\n      mstore\n      0x04\n      add\n      tag_375\n      swap1\n      tag_376\n      jump\t// in\n    tag_375:\n      mload(0x40)\n      dup1\n      swap2\n      sub\n      swap1\n      revert\n    tag_374:\n        /* \"contracts/LandFiStake.sol\":6467:6468  1 */\n      0x01\n        /* \"contracts/LandFiStake.sol\":6458:6463  boxNo */\n      dup4\n        /* \"contracts/LandFiStake.sol\":6458:6468  boxNo == 1 */\n      sub\n        /* \"contracts/LandFiStake.sol\":6454:6849  if (boxNo == 1) {... */\n      tag_377\n      jumpi\n        /* \"contracts/LandFiStake.sol\":6508:6512  true */\n      0x01\n        /* \"contracts/LandFiStake.sol\":6493:6512  box1Enabled == true */\n      iszero\n      iszero\n        /* \"contracts/LandFiStake.sol\":6493:6504  box1Enabled */\n      0x05\n      0x00\n      swap1\n      sload\n      swap1\n      0x0100\n      exp\n      swap1\n      div\n      0xff\n      and\n        /* \"contracts/LandFiStake.sol\":6493:6512  box1Enabled == true */\n      iszero\n      iszero\n      eq\n        /* \"contracts/LandFiStake.sol\":6485:6550  require(box1Enabled == true, \"This staking product is disabled.\") */\n      tag_378\n      jumpi\n      mload(0x40)\n      0x08c379a000000000000000000000000000000000000000000000000000000000\n      dup2\n      mstore\n      0x04\n      add\n      tag_379\n      swap1\n      tag_380\n      jump\t// in\n    tag_379:\n      mload(0x40)\n      dup1\n      swap2\n      sub\n      swap1\n      revert\n    tag_378:\n        /* \"contracts/LandFiStake.sol\":6594:6595  0 */\n      0x00\n        /* \"contracts/LandFiStake.sol\":6573:6584  box1Balance */\n      0x01\n        /* \"contracts/LandFiStake.sol\":6573:6590  box1Balance[from] */\n      0x00\n        /* \"contracts/LandFiStake.sol\":6585:6589  from */\n      dup5\n        /* \"contracts/LandFiStake.sol\":6573:6590  box1Balance[from] */\n      0xffffffffffffffffffffffffffffffffffffffff\n      and\n      0xffffffffffffffffffffffffffffffffffffffff\n      and\n      dup2\n      mstore\n      0x20\n      add\n      swap1\n      dup2\n      mstore\n      0x20\n      add\n      0x00\n      keccak256\n      sload\n        /* \"contracts/LandFiStake.sol\":6573:6595  box1Balance[from] == 0 */\n      eq\n        /* \"contracts/LandFiStake.sol\":6565:6682  require(box1Balance[from] == 0, \"This wallet has already staked on this product - wait for the release to re-stake.\") */\n      tag_381\n      jumpi\n      mload(0x40)\n      0x08c379a000000000000000000000000000000000000000000000000000000000\n      dup2\n      mstore\n      0x04\n      add\n      tag_382\n      swap1\n      tag_383\n      jump\t// in\n    tag_382:\n      mload(0x40)\n      dup1\n      swap2\n      sub\n      swap1\n      revert\n    tag_381:\n        /* \"contracts/LandFiStake.sol\":6712:6737  tokenAmount.div(box1Rate) */\n      tag_384\n        /* \"contracts/LandFiStake.sol\":6728:6736  box1Rate */\n      sload(0x03)\n        /* \"contracts/LandFiStake.sol\":6712:6723  tokenAmount */\n      dup6\n        /* \"contracts/LandFiStake.sol\":6712:6727  tokenAmount.div */\n      tag_244\n      swap1\n        /* \"contracts/LandFiStake.sol\":6712:6737  tokenAmount.div(box1Rate) */\n      swap2\n      swap1\n      0xffffffff\n      and\n      jump\t// in\n    tag_384:\n        /* \"contracts/LandFiStake.sol\":6697:6737  rewardAmount = tokenAmount.div(box1Rate) */\n      swap1\n      pop\n        /* \"contracts/LandFiStake.sol\":6776:6791  block.timestamp */\n      timestamp\n        /* \"contracts/LandFiStake.sol\":6752:6767  box1DepositDate */\n      0x02\n        /* \"contracts/LandFiStake.sol\":6752:6773  box1DepositDate[from] */\n      0x00\n        /* \"contracts/LandFiStake.sol\":6768:6772  from */\n      dup5\n        /* \"contracts/LandFiStake.sol\":6752:6773  box1DepositDate[from] */\n      0xffffffffffffffffffffffffffffffffffffffff\n      and\n      0xffffffffffffffffffffffffffffffffffffffff\n      and\n      dup2\n      mstore\n      0x20\n      add\n      swap1\n      dup2\n      mstore\n      0x20\n      add\n      0x00\n      keccak256\n        /* \"contracts/LandFiStake.sol\":6752:6791  box1DepositDate[from] = block.timestamp */\n      dup2\n      swap1\n      sstore\n      pop\n        /* \"contracts/LandFiStake.sol\":6826:6837  tokenAmount */\n      dup4\n        /* \"contracts/LandFiStake.sol\":6806:6817  box1Balance */\n      0x01\n        /* \"contracts/LandFiStake.sol\":6806:6823  box1Balance[from] */\n      0x00\n        /* \"contracts/LandFiStake.sol\":6818:6822  from */\n      dup5\n        /* \"contracts/LandFiStake.sol\":6806:6823  box1Balance[from] */\n      0xffffffffffffffffffffffffffffffffffffffff\n      and\n      0xffffffffffffffffffffffffffffffffffffffff\n      and\n      dup2\n      mstore\n      0x20\n      add\n      swap1\n      dup2\n      mstore\n      0x20\n      add\n      0x00\n      keccak256\n        /* \"contracts/LandFiStake.sol\":6806:6837  box1Balance[from] = tokenAmount */\n      dup2\n      swap1\n      sstore\n      pop\n        /* \"contracts/LandFiStake.sol\":6454:6849  if (boxNo == 1) {... */\n    tag_377:\n        /* \"contracts/LandFiStake.sol\":6872:6873  2 */\n      0x02\n        /* \"contracts/LandFiStake.sol\":6863:6868  boxNo */\n      dup4\n        /* \"contracts/LandFiStake.sol\":6863:6873  boxNo == 2 */\n      sub\n        /* \"contracts/LandFiStake.sol\":6859:7254  if (boxNo == 2) {... */\n      tag_385\n      jumpi\n        /* \"contracts/LandFiStake.sol\":6913:6917  true */\n      0x01\n        /* \"contracts/LandFiStake.sol\":6898:6917  box2Enabled == true */\n      iszero\n      iszero\n        /* \"contracts/LandFiStake.sol\":6898:6909  box2Enabled */\n      0x0a\n      0x00\n      swap1\n      sload\n      swap1\n      0x0100\n      exp\n      swap1\n      div\n      0xff\n      and\n        /* \"contracts/LandFiStake.sol\":6898:6917  box2Enabled == true */\n      iszero\n      iszero\n      eq\n        /* \"contracts/LandFiStake.sol\":6890:6955  require(box2Enabled == true, \"This staking product is disabled.\") */\n      tag_386\n      jumpi\n      mload(0x40)\n      0x08c379a000000000000000000000000000000000000000000000000000000000\n      dup2\n      mstore\n      0x04\n      add\n      tag_387\n      swap1\n      tag_380\n      jump\t// in\n    tag_387:\n      mload(0x40)\n      dup1\n      swap2\n      sub\n      swap1\n      revert\n    tag_386:\n        /* \"contracts/LandFiStake.sol\":6999:7000  0 */\n      0x00\n        /* \"contracts/LandFiStake.sol\":6978:6989  box2Balance */\n      0x06\n        /* \"contracts/LandFiStake.sol\":6978:6995  box2Balance[from] */\n      0x00\n        /* \"contracts/LandFiStake.sol\":6990:6994  from */\n      dup5\n        /* \"contracts/LandFiStake.sol\":6978:6995  box2Balance[from] */\n      0xffffffffffffffffffffffffffffffffffffffff\n      and\n      0xffffffffffffffffffffffffffffffffffffffff\n      and\n      dup2\n      mstore\n      0x20\n      add\n      swap1\n      dup2\n      mstore\n      0x20\n      add\n      0x00\n      keccak256\n      sload\n        /* \"contracts/LandFiStake.sol\":6978:7000  box2Balance[from] == 0 */\n      eq\n        /* \"contracts/LandFiStake.sol\":6970:7087  require(box2Balance[from] == 0, \"This wallet has already staked on this product - wait for the release to re-stake.\") */\n      tag_388\n      jumpi\n      mload(0x40)\n      0x08c379a000000000000000000000000000000000000000000000000000000000\n      dup2\n      mstore\n      0x04\n      add\n      tag_389\n      swap1\n      tag_383\n      jump\t// in\n    tag_389:\n      mload(0x40)\n      dup1\n      swap2\n      sub\n      swap1\n      revert\n    tag_388:\n        /* \"contracts/LandFiStake.sol\":7117:7142  tokenAmount.div(box2Rate) */\n      tag_390\n        /* \"contracts/LandFiStake.sol\":7133:7141  box2Rate */\n      sload(0x08)\n        /* \"contracts/LandFiStake.sol\":7117:7128  tokenAmount */\n      dup6\n        /* \"contracts/LandFiStake.sol\":7117:7132  tokenAmount.div */\n      tag_244\n      swap1\n        /* \"contracts/LandFiStake.sol\":7117:7142  tokenAmount.div(box2Rate) */\n      swap2\n      swap1\n      0xffffffff\n      and\n      jump\t// in\n    tag_390:\n        /* \"contracts/LandFiStake.sol\":7102:7142  rewardAmount = tokenAmount.div(box2Rate) */\n      swap1\n      pop\n        /* \"contracts/LandFiStake.sol\":7181:7196  block.timestamp */\n      timestamp\n        /* \"contracts/LandFiStake.sol\":7157:7172  box2DepositDate */\n      0x07\n        /* \"contracts/LandFiStake.sol\":7157:7178  box2DepositDate[from] */\n      0x00\n        /* \"contracts/LandFiStake.sol\":7173:7177  from */\n      dup5\n        /* \"contracts/LandFiStake.sol\":7157:7178  box2DepositDate[from] */\n      0xffffffffffffffffffffffffffffffffffffffff\n      and\n      0xffffffffffffffffffffffffffffffffffffffff\n      and\n      dup2\n      mstore\n      0x20\n      add\n      swap1\n      dup2\n      mstore\n      0x20\n      add\n      0x00\n      keccak256\n        /* \"contracts/LandFiStake.sol\":7157:7196  box2DepositDate[from] = block.timestamp */\n      dup2\n      swap1\n      sstore\n      pop\n        /* \"contracts/LandFiStake.sol\":7231:7242  tokenAmount */\n      dup4\n        /* \"contracts/LandFiStake.sol\":7211:7222  box2Balance */\n      0x06\n        /* \"contracts/LandFiStake.sol\":7211:7228  box2Balance[from] */\n      0x00\n        /* \"contracts/LandFiStake.sol\":7223:7227  from */\n      dup5\n        /* \"contracts/LandFiStake.sol\":7211:7228  box2Balance[from] */\n      0xffffffffffffffffffffffffffffffffffffffff\n      and\n      0xffffffffffffffffffffffffffffffffffffffff\n      and\n      dup2\n      mstore\n      0x20\n      add\n      swap1\n      dup2\n      mstore\n      0x20\n      add\n      0x00\n      keccak256\n        /* \"contracts/LandFiStake.sol\":7211:7242  box2Balance[from] = tokenAmount */\n      dup2\n      swap1\n      sstore\n      pop\n        /* \"contracts/LandFiStake.sol\":6859:7254  if (boxNo == 2) {... */\n    tag_385:\n        /* \"contracts/LandFiStake.sol\":7277:7278  3 */\n      0x03\n        /* \"contracts/LandFiStake.sol\":7268:7273  boxNo */\n      dup4\n        /* \"contracts/LandFiStake.sol\":7268:7278  boxNo == 3 */\n      sub\n        /* \"contracts/LandFiStake.sol\":7264:7659  if (boxNo == 3) {... */\n      tag_391\n      jumpi\n        /* \"contracts/LandFiStake.sol\":7318:7322  true */\n      0x01\n        /* \"contracts/LandFiStake.sol\":7303:7322  box3Enabled == true */\n      iszero\n      iszero\n        /* \"contracts/LandFiStake.sol\":7303:7314  box3Enabled */\n      0x0f\n      0x00\n      swap1\n      sload\n      swap1\n      0x0100\n      exp\n      swap1\n      div\n      0xff\n      and\n        /* \"contracts/LandFiStake.sol\":7303:7322  box3Enabled == true */\n      iszero\n      iszero\n      eq\n        /* \"contracts/LandFiStake.sol\":7295:7360  require(box3Enabled == true, \"This staking product is disabled.\") */\n      tag_392\n      jumpi\n      mload(0x40)\n      0x08c379a000000000000000000000000000000000000000000000000000000000\n      dup2\n      mstore\n      0x04\n      add\n      tag_393\n      swap1\n      tag_380\n      jump\t// in\n    tag_393:\n      mload(0x40)\n      dup1\n      swap2\n      sub\n      swap1\n      revert\n    tag_392:\n        /* \"contracts/LandFiStake.sol\":7404:7405  0 */\n      0x00\n        /* \"contracts/LandFiStake.sol\":7383:7394  box3Balance */\n      0x0b\n        /* \"contracts/LandFiStake.sol\":7383:7400  box3Balance[from] */\n      0x00\n        /* \"contracts/LandFiStake.sol\":7395:7399  from */\n      dup5\n        /* \"contracts/LandFiStake.sol\":7383:7400  box3Balance[from] */\n      0xffffffffffffffffffffffffffffffffffffffff\n      and\n      0xffffffffffffffffffffffffffffffffffffffff\n      and\n      dup2\n      mstore\n      0x20\n      add\n      swap1\n      dup2\n      mstore\n      0x20\n      add\n      0x00\n      keccak256\n      sload\n        /* \"contracts/LandFiStake.sol\":7383:7405  box3Balance[from] == 0 */\n      eq\n        /* \"contracts/LandFiStake.sol\":7375:7492  require(box3Balance[from] == 0, \"This wallet has already staked on this product - wait for the release to re-stake.\") */\n      tag_394\n      jumpi\n      mload(0x40)\n      0x08c379a000000000000000000000000000000000000000000000000000000000\n      dup2\n      mstore\n      0x04\n      add\n      tag_395\n      swap1\n      tag_383\n      jump\t// in\n    tag_395:\n      mload(0x40)\n      dup1\n      swap2\n      sub\n      swap1\n      revert\n    tag_394:\n        /* \"contracts/LandFiStake.sol\":7522:7547  tokenAmount.div(box3Rate) */\n      tag_396\n        /* \"contracts/LandFiStake.sol\":7538:7546  box3Rate */\n      sload(0x0d)\n        /* \"contracts/LandFiStake.sol\":7522:7533  tokenAmount */\n      dup6\n        /* \"contracts/LandFiStake.sol\":7522:7537  tokenAmount.div */\n      tag_244\n      swap1\n        /* \"contracts/LandFiStake.sol\":7522:7547  tokenAmount.div(box3Rate) */\n      swap2\n      swap1\n      0xffffffff\n      and\n      jump\t// in\n    tag_396:\n        /* \"contracts/LandFiStake.sol\":7507:7547  rewardAmount = tokenAmount.div(box3Rate) */\n      swap1\n      pop\n        /* \"contracts/LandFiStake.sol\":7586:7601  block.timestamp */\n      timestamp\n        /* \"contracts/LandFiStake.sol\":7562:7577  box3DepositDate */\n      0x0c\n        /* \"contracts/LandFiStake.sol\":7562:7583  box3DepositDate[from] */\n      0x00\n        /* \"contracts/LandFiStake.sol\":7578:7582  from */\n      dup5\n        /* \"contracts/LandFiStake.sol\":7562:7583  box3DepositDate[from] */\n      0xffffffffffffffffffffffffffffffffffffffff\n      and\n      0xffffffffffffffffffffffffffffffffffffffff\n      and\n      dup2\n      mstore\n      0x20\n      add\n      swap1\n      dup2\n      mstore\n      0x20\n      add\n      0x00\n      keccak256\n        /* \"contracts/LandFiStake.sol\":7562:7601  box3DepositDate[from] = block.timestamp */\n      dup2\n      swap1\n      sstore\n      pop\n        /* \"contracts/LandFiStake.sol\":7636:7647  tokenAmount */\n      dup4\n        /* \"contracts/LandFiStake.sol\":7616:7627  box3Balance */\n      0x0b\n        /* \"contracts/LandFiStake.sol\":7616:7633  box3Balance[from] */\n      0x00\n        /* \"contracts/LandFiStake.sol\":7628:7632  from */\n      dup5\n        /* \"contracts/LandFiStake.sol\":7616:7633  box3Balance[from] */\n      0xffffffffffffffffffffffffffffffffffffffff\n      and\n      0xffffffffffffffffffffffffffffffffffffffff\n      and\n      dup2\n      mstore\n      0x20\n      add\n      swap1\n      dup2\n      mstore\n      0x20\n      add\n      0x00\n      keccak256\n        /* \"contracts/LandFiStake.sol\":7616:7647  box3Balance[from] = tokenAmount */\n      dup2\n      swap1\n      sstore\n      pop\n        /* \"contracts/LandFiStake.sol\":7264:7659  if (boxNo == 3) {... */\n    tag_391:\n        /* \"contracts/LandFiStake.sol\":7682:7683  4 */\n      0x04\n        /* \"contracts/LandFiStake.sol\":7673:7678  boxNo */\n      dup4\n        /* \"contracts/LandFiStake.sol\":7673:7683  boxNo == 4 */\n      sub\n        /* \"contracts/LandFiStake.sol\":7669:8064  if (boxNo == 4) {... */\n      tag_397\n      jumpi\n        /* \"contracts/LandFiStake.sol\":7723:7727  true */\n      0x01\n        /* \"contracts/LandFiStake.sol\":7708:7727  box4Enabled == true */\n      iszero\n      iszero\n        /* \"contracts/LandFiStake.sol\":7708:7719  box4Enabled */\n      0x14\n      0x00\n      swap1\n      sload\n      swap1\n      0x0100\n      exp\n      swap1\n      div\n      0xff\n      and\n        /* \"contracts/LandFiStake.sol\":7708:7727  box4Enabled == true */\n      iszero\n      iszero\n      eq\n        /* \"contracts/LandFiStake.sol\":7700:7765  require(box4Enabled == true, \"This staking product is disabled.\") */\n      tag_398\n      jumpi\n      mload(0x40)\n      0x08c379a000000000000000000000000000000000000000000000000000000000\n      dup2\n      mstore\n      0x04\n      add\n      tag_399\n      swap1\n      tag_380\n      jump\t// in\n    tag_399:\n      mload(0x40)\n      dup1\n      swap2\n      sub\n      swap1\n      revert\n    tag_398:\n        /* \"contracts/LandFiStake.sol\":7809:7810  0 */\n      0x00\n        /* \"contracts/LandFiStake.sol\":7788:7799  box4Balance */\n      0x10\n        /* \"contracts/LandFiStake.sol\":7788:7805  box4Balance[from] */\n      0x00\n        /* \"contracts/LandFiStake.sol\":7800:7804  from */\n      dup5\n        /* \"contracts/LandFiStake.sol\":7788:7805  box4Balance[from] */\n      0xffffffffffffffffffffffffffffffffffffffff\n      and\n      0xffffffffffffffffffffffffffffffffffffffff\n      and\n      dup2\n      mstore\n      0x20\n      add\n      swap1\n      dup2\n      mstore\n      0x20\n      add\n      0x00\n      keccak256\n      sload\n        /* \"contracts/LandFiStake.sol\":7788:7810  box4Balance[from] == 0 */\n      eq\n        /* \"contracts/LandFiStake.sol\":7780:7897  require(box4Balance[from] == 0, \"This wallet has already staked on this product - wait for the release to re-stake.\") */\n      tag_400\n      jumpi\n      mload(0x40)\n      0x08c379a000000000000000000000000000000000000000000000000000000000\n      dup2\n      mstore\n      0x04\n      add\n      tag_401\n      swap1\n      tag_383\n      jump\t// in\n    tag_401:\n      mload(0x40)\n      dup1\n      swap2\n      sub\n      swap1\n      revert\n    tag_400:\n        /* \"contracts/LandFiStake.sol\":7927:7952  tokenAmount.div(box4Rate) */\n      tag_402\n        /* \"contracts/LandFiStake.sol\":7943:7951  box4Rate */\n      sload(0x12)\n        /* \"contracts/LandFiStake.sol\":7927:7938  tokenAmount */\n      dup6\n        /* \"contracts/LandFiStake.sol\":7927:7942  tokenAmount.div */\n      tag_244\n      swap1\n        /* \"contracts/LandFiStake.sol\":7927:7952  tokenAmount.div(box4Rate) */\n      swap2\n      swap1\n      0xffffffff\n      and\n      jump\t// in\n    tag_402:\n        /* \"contracts/LandFiStake.sol\":7912:7952  rewardAmount = tokenAmount.div(box4Rate) */\n      swap1\n      pop\n        /* \"contracts/LandFiStake.sol\":7991:8006  block.timestamp */\n      timestamp\n        /* \"contracts/LandFiStake.sol\":7967:7982  box4DepositDate */\n      0x11\n        /* \"contracts/LandFiStake.sol\":7967:7988  box4DepositDate[from] */\n      0x00\n        /* \"contracts/LandFiStake.sol\":7983:7987  from */\n      dup5\n        /* \"contracts/LandFiStake.sol\":7967:7988  box4DepositDate[from] */\n      0xffffffffffffffffffffffffffffffffffffffff\n      and\n      0xffffffffffffffffffffffffffffffffffffffff\n      and\n      dup2\n      mstore\n      0x20\n      add\n      swap1\n      dup2\n      mstore\n      0x20\n      add\n      0x00\n      keccak256\n        /* \"contracts/LandFiStake.sol\":7967:8006  box4DepositDate[from] = block.timestamp */\n      dup2\n      swap1\n      sstore\n      pop\n        /* \"contracts/LandFiStake.sol\":8041:8052  tokenAmount */\n      dup4\n        /* \"contracts/LandFiStake.sol\":8021:8032  box4Balance */\n      0x10\n        /* \"contracts/LandFiStake.sol\":8021:8038  box4Balance[from] */\n      0x00\n        /* \"contracts/LandFiStake.sol\":8033:8037  from */\n      dup5\n        /* \"contracts/LandFiStake.sol\":8021:8038  box4Balance[from] */\n      0xffffffffffffffffffffffffffffffffffffffff\n      and\n      0xffffffffffffffffffffffffffffffffffffffff\n      and\n      dup2\n      mstore\n      0x20\n      add\n      swap1\n      dup2\n      mstore\n      0x20\n      add\n      0x00\n      keccak256\n        /* \"contracts/LandFiStake.sol\":8021:8052  box4Balance[from] = tokenAmount */\n      dup2\n      swap1\n      sstore\n      pop\n        /* \"contracts/LandFiStake.sol\":7669:8064  if (boxNo == 4) {... */\n    tag_397:\n        /* \"contracts/LandFiStake.sol\":8093:8125  rewardCountDue.add(rewardAmount) */\n      tag_403\n        /* \"contracts/LandFiStake.sol\":8112:8124  rewardAmount */\n      dup2\n        /* \"contracts/LandFiStake.sol\":8093:8107  rewardCountDue */\n      sload(0x1a)\n        /* \"contracts/LandFiStake.sol\":8093:8111  rewardCountDue.add */\n      tag_239\n      swap1\n        /* \"contracts/LandFiStake.sol\":8093:8125  rewardCountDue.add(rewardAmount) */\n      swap2\n      swap1\n      0xffffffff\n      and\n      jump\t// in\n    tag_403:\n        /* \"contracts/LandFiStake.sol\":8076:8090  rewardCountDue */\n      0x1a\n        /* \"contracts/LandFiStake.sol\":8076:8125  rewardCountDue = rewardCountDue.add(rewardAmount) */\n      dup2\n      swap1\n      sstore\n      pop\n        /* \"contracts/LandFiStake.sol\":8150:8178  totalStaked.add(tokenAmount) */\n      tag_404\n        /* \"contracts/LandFiStake.sol\":8166:8177  tokenAmount */\n      dup5\n        /* \"contracts/LandFiStake.sol\":8150:8161  totalStaked */\n      sload(0x1c)\n        /* \"contracts/LandFiStake.sol\":8150:8165  totalStaked.add */\n      tag_239\n      swap1\n        /* \"contracts/LandFiStake.sol\":8150:8178  totalStaked.add(tokenAmount) */\n      swap2\n      swap1\n      0xffffffff\n      and\n      jump\t// in\n    tag_404:\n        /* \"contracts/LandFiStake.sol\":8136:8147  totalStaked */\n      0x1c\n        /* \"contracts/LandFiStake.sol\":8136:8178  totalStaked = totalStaked.add(tokenAmount) */\n      dup2\n      swap1\n      sstore\n      pop\n        /* \"contracts/LandFiStake.sol\":8191:8215  LandFiToken landFiTokenI */\n      0x00\n        /* \"contracts/LandFiStake.sol\":8230:8242  tokenAddress */\n      0x18\n      0x00\n      swap1\n      sload\n      swap1\n      0x0100\n      exp\n      swap1\n      div\n      0xffffffffffffffffffffffffffffffffffffffff\n      and\n        /* \"contracts/LandFiStake.sol\":8191:8243  LandFiToken landFiTokenI = LandFiToken(tokenAddress) */\n      swap1\n      pop\n        /* \"contracts/LandFiStake.sol\":8290:8302  landFiTokenI */\n      dup1\n        /* \"contracts/LandFiStake.sol\":8290:8315  landFiTokenI.transferFrom */\n      0xffffffffffffffffffffffffffffffffffffffff\n      and\n      0x23b872dd\n        /* \"contracts/LandFiStake.sol\":8316:8320  from */\n      dup5\n        /* \"contracts/LandFiStake.sol\":8322:8333  stakeWallet */\n      0x16\n      0x00\n      swap1\n      sload\n      swap1\n      0x0100\n      exp\n      swap1\n      div\n      0xffffffffffffffffffffffffffffffffffffffff\n      and\n        /* \"contracts/LandFiStake.sol\":8335:8346  tokenAmount */\n      dup9\n        /* \"contracts/LandFiStake.sol\":8290:8347  landFiTokenI.transferFrom(from, stakeWallet, tokenAmount) */\n      mload(0x40)\n      dup5\n      0xffffffff\n      and\n      0xe0\n      shl\n      dup2\n      mstore\n      0x04\n      add\n      tag_405\n      swap4\n      swap3\n      swap2\n      swap1\n      tag_275\n      jump\t// in\n    tag_405:\n      0x20\n      mload(0x40)\n      dup1\n      dup4\n      sub\n      dup2\n      0x00\n      dup8\n      gas\n      call\n      iszero\n      dup1\n      iszero\n      tag_407\n      jumpi\n      returndatacopy(0x00, 0x00, returndatasize)\n      revert(0x00, returndatasize)\n    tag_407:\n      pop\n      pop\n      pop\n      pop\n      mload(0x40)\n      returndatasize\n      not(0x1f)\n      0x1f\n      dup3\n      add\n      and\n      dup3\n      add\n      dup1\n      0x40\n      mstore\n      pop\n      dup2\n      add\n      swap1\n      tag_408\n      swap2\n      swap1\n      tag_279\n      jump\t// in\n    tag_408:\n      pop\n        /* \"contracts/LandFiStake.sol\":8410:8417  return; */\n      pop\n      pop\n      pop\n        /* \"contracts/LandFiStake.sol\":5886:8424  function addStake(uint256 tokenAmount, uint256 boxNo) public {... */\n      pop\n      pop\n      jump\t// out\n        /* \"contracts/utils/Context.sol\":640:736  function _msgSender() internal view virtual returns (address) {... */\n    tag_214:\n        /* \"contracts/utils/Context.sol\":693:700  address */\n      0x00\n        /* \"contracts/utils/Context.sol\":719:729  msg.sender */\n      caller\n        /* \"contracts/utils/Context.sol\":712:729  return msg.sender */\n      swap1\n      pop\n        /* \"contracts/utils/Context.sol\":640:736  function _msgSender() internal view virtual returns (address) {... */\n      swap1\n      jump\t// out\n        /* \"contracts/utils/math/SafeMath.sol\":2741:2837  function add(uint256 a, uint256 b) internal pure returns (uint256) {... */\n    tag_239:\n        /* \"contracts/utils/math/SafeMath.sol\":2799:2806  uint256 */\n      0x00\n        /* \"contracts/utils/math/SafeMath.sol\":2829:2830  b */\n      dup2\n        /* \"contracts/utils/math/SafeMath.sol\":2825:2826  a */\n      dup4\n        /* \"contracts/utils/math/SafeMath.sol\":2825:2830  a + b */\n      tag_411\n      swap2\n      swap1\n      tag_304\n      jump\t// in\n    tag_411:\n        /* \"contracts/utils/math/SafeMath.sol\":2818:2830  return a + b */\n      swap1\n      pop\n        /* \"contracts/utils/math/SafeMath.sol\":2741:2837  function add(uint256 a, uint256 b) internal pure returns (uint256) {... */\n      swap3\n      swap2\n      pop\n      pop\n      jump\t// out\n        /* \"contracts/utils/math/SafeMath.sol\":3836:3932  function div(uint256 a, uint256 b) internal pure returns (uint256) {... */\n    tag_244:\n        /* \"contracts/utils/math/SafeMath.sol\":3894:3901  uint256 */\n      0x00\n        /* \"contracts/utils/math/SafeMath.sol\":3924:3925  b */\n      dup2\n        /* \"contracts/utils/math/SafeMath.sol\":3920:3921  a */\n      dup4\n        /* \"contracts/utils/math/SafeMath.sol\":3920:3925  a / b */\n      tag_413\n      swap2\n      swap1\n      tag_414\n      jump\t// in\n    tag_413:\n        /* \"contracts/utils/math/SafeMath.sol\":3913:3925  return a / b */\n      swap1\n      pop\n        /* \"contracts/utils/math/SafeMath.sol\":3836:3932  function div(uint256 a, uint256 b) internal pure returns (uint256) {... */\n      swap3\n      swap2\n      pop\n      pop\n      jump\t// out\n        /* \"contracts/utils/math/SafeMath.sol\":3108:3204  function sub(uint256 a, uint256 b) internal pure returns (uint256) {... */\n    tag_272:\n        /* \"contracts/utils/math/SafeMath.sol\":3166:3173  uint256 */\n      0x00\n        /* \"contracts/utils/math/SafeMath.sol\":3196:3197  b */\n      dup2\n        /* \"contracts/utils/math/SafeMath.sol\":3192:3193  a */\n      dup4\n        /* \"contracts/utils/math/SafeMath.sol\":3192:3197  a - b */\n      tag_416\n      swap2\n      swap1\n      tag_417\n      jump\t// in\n    tag_416:\n        /* \"contracts/utils/math/SafeMath.sol\":3185:3197  return a - b */\n      swap1\n      pop\n        /* \"contracts/utils/math/SafeMath.sol\":3108:3204  function sub(uint256 a, uint256 b) internal pure returns (uint256) {... */\n      swap3\n      swap2\n      pop\n      pop\n      jump\t// out\n        /* \"contracts/access/Ownable.sol\":2270:2457  function _transferOwnership(address newOwner) internal virtual {... */\n    tag_314:\n        /* \"contracts/access/Ownable.sol\":2343:2359  address oldOwner */\n      0x00\n        /* \"contracts/access/Ownable.sol\":2362:2368  _owner */\n      0x00\n      0x00\n      swap1\n      sload\n      swap1\n      0x0100\n      exp\n      swap1\n      div\n      0xffffffffffffffffffffffffffffffffffffffff\n      and\n        /* \"contracts/access/Ownable.sol\":2343:2368  address oldOwner = _owner */\n      swap1\n      pop\n        /* \"contracts/access/Ownable.sol\":2387:2395  newOwner */\n      dup2\n        /* \"contracts/access/Ownable.sol\":2378:2384  _owner */\n      0x00\n      0x00\n        /* \"contracts/access/Ownable.sol\":2378:2395  _owner = newOwner */\n      0x0100\n      exp\n      dup2\n      sload\n      dup2\n      0xffffffffffffffffffffffffffffffffffffffff\n      mul\n      not\n      and\n      swap1\n      dup4\n      0xffffffffffffffffffffffffffffffffffffffff\n      and\n      mul\n      or\n      swap1\n      sstore\n      pop\n        /* \"contracts/access/Ownable.sol\":2441:2449  newOwner */\n      dup2\n        /* \"contracts/access/Ownable.sol\":2410:2450  OwnershipTransferred(oldOwner, newOwner) */\n      0xffffffffffffffffffffffffffffffffffffffff\n      and\n        /* \"contracts/access/Ownable.sol\":2431:2439  oldOwner */\n      dup2\n        /* \"contracts/access/Ownable.sol\":2410:2450  OwnershipTransferred(oldOwner, newOwner) */\n      0xffffffffffffffffffffffffffffffffffffffff\n      and\n      0x8be0079c531659141344cd1fd0a4f28419497f9722a3daafe3b4186f6b6457e0\n      mload(0x40)\n      mload(0x40)\n      dup1\n      swap2\n      sub\n      swap1\n      log3\n        /* \"contracts/access/Ownable.sol\":2333:2457  {... */\n      pop\n        /* \"contracts/access/Ownable.sol\":2270:2457  function _transferOwnership(address newOwner) internal virtual {... */\n      pop\n      jump\t// out\n        /* \"#utility.yul\":88:205   */\n    tag_420:\n        /* \"#utility.yul\":197:198   */\n      0x00\n        /* \"#utility.yul\":194:195   */\n      0x00\n        /* \"#utility.yul\":187:199   */\n      revert\n        /* \"#utility.yul\":334:460   */\n    tag_422:\n        /* \"#utility.yul\":371:378   */\n      0x00\n        /* \"#utility.yul\":411:453   */\n      0xffffffffffffffffffffffffffffffffffffffff\n        /* \"#utility.yul\":404:409   */\n      dup3\n        /* \"#utility.yul\":400:454   */\n      and\n        /* \"#utility.yul\":389:454   */\n      swap1\n      pop\n        /* \"#utility.yul\":334:460   */\n      swap2\n      swap1\n      pop\n      jump\t// out\n        /* \"#utility.yul\":466:562   */\n    tag_423:\n        /* \"#utility.yul\":503:510   */\n      0x00\n        /* \"#utility.yul\":532:556   */\n      tag_467\n        /* \"#utility.yul\":550:555   */\n      dup3\n        /* \"#utility.yul\":532:556   */\n      tag_422\n      jump\t// in\n    tag_467:\n        /* \"#utility.yul\":521:556   */\n      swap1\n      pop\n        /* \"#utility.yul\":466:562   */\n      swap2\n      swap1\n      pop\n      jump\t// out\n        /* \"#utility.yul\":568:690   */\n    tag_424:\n        /* \"#utility.yul\":641:665   */\n      tag_469\n        /* \"#utility.yul\":659:664   */\n      dup2\n        /* \"#utility.yul\":641:665   */\n      tag_423\n      jump\t// in\n    tag_469:\n        /* \"#utility.yul\":634:639   */\n      dup2\n        /* \"#utility.yul\":631:666   */\n      eq\n        /* \"#utility.yul\":621:684   */\n      tag_470\n      jumpi\n        /* \"#utility.yul\":680:681   */\n      0x00\n        /* \"#utility.yul\":677:678   */\n      0x00\n        /* \"#utility.yul\":670:682   */\n      revert\n        /* \"#utility.yul\":621:684   */\n    tag_470:\n        /* \"#utility.yul\":568:690   */\n      pop\n      jump\t// out\n        /* \"#utility.yul\":696:835   */\n    tag_425:\n        /* \"#utility.yul\":742:747   */\n      0x00\n        /* \"#utility.yul\":780:786   */\n      dup2\n        /* \"#utility.yul\":767:787   */\n      calldataload\n        /* \"#utility.yul\":758:787   */\n      swap1\n      pop\n        /* \"#utility.yul\":796:829   */\n      tag_472\n        /* \"#utility.yul\":823:828   */\n      dup2\n        /* \"#utility.yul\":796:829   */\n      tag_424\n      jump\t// in\n    tag_472:\n        /* \"#utility.yul\":696:835   */\n      swap3\n      swap2\n      pop\n      pop\n      jump\t// out\n        /* \"#utility.yul\":841:1170   */\n    tag_58:\n        /* \"#utility.yul\":900:906   */\n      0x00\n        /* \"#utility.yul\":949:951   */\n      0x20\n        /* \"#utility.yul\":937:946   */\n      dup3\n        /* \"#utility.yul\":928:935   */\n      dup5\n        /* \"#utility.yul\":924:947   */\n      sub\n        /* \"#utility.yul\":920:952   */\n      slt\n        /* \"#utility.yul\":917:1036   */\n      iszero\n      tag_474\n      jumpi\n        /* \"#utility.yul\":955:1034   */\n      tag_475\n      tag_420\n      jump\t// in\n    tag_475:\n        /* \"#utility.yul\":917:1036   */\n    tag_474:\n        /* \"#utility.yul\":1075:1076   */\n      0x00\n        /* \"#utility.yul\":1100:1153   */\n      tag_476\n        /* \"#utility.yul\":1145:1152   */\n      dup5\n        /* \"#utility.yul\":1136:1142   */\n      dup3\n        /* \"#utility.yul\":1125:1134   */\n      dup6\n        /* \"#utility.yul\":1121:1143   */\n      add\n        /* \"#utility.yul\":1100:1153   */\n      tag_425\n      jump\t// in\n    tag_476:\n        /* \"#utility.yul\":1090:1153   */\n      swap2\n      pop\n        /* \"#utility.yul\":1046:1163   */\n      pop\n        /* \"#utility.yul\":841:1170   */\n      swap3\n      swap2\n      pop\n      pop\n      jump\t// out\n        /* \"#utility.yul\":1176:1253   */\n    tag_426:\n        /* \"#utility.yul\":1213:1220   */\n      0x00\n        /* \"#utility.yul\":1242:1247   */\n      dup2\n        /* \"#utility.yul\":1231:1247   */\n      swap1\n      pop\n        /* \"#utility.yul\":1176:1253   */\n      swap2\n      swap1\n      pop\n      jump\t// out\n        /* \"#utility.yul\":1259:1377   */\n    tag_427:\n        /* \"#utility.yul\":1346:1370   */\n      tag_479\n        /* \"#utility.yul\":1364:1369   */\n      dup2\n        /* \"#utility.yul\":1346:1370   */\n      tag_426\n      jump\t// in\n    tag_479:\n        /* \"#utility.yul\":1341:1344   */\n      dup3\n        /* \"#utility.yul\":1334:1371   */\n      mstore\n        /* \"#utility.yul\":1259:1377   */\n      pop\n      pop\n      jump\t// out\n        /* \"#utility.yul\":1383:1605   */\n    tag_61:\n        /* \"#utility.yul\":1476:1480   */\n      0x00\n        /* \"#utility.yul\":1514:1516   */\n      0x20\n        /* \"#utility.yul\":1503:1512   */\n      dup3\n        /* \"#utility.yul\":1499:1517   */\n      add\n        /* \"#utility.yul\":1491:1517   */\n      swap1\n      pop\n        /* \"#utility.yul\":1527:1598   */\n      tag_481\n        /* \"#utility.yul\":1595:1596   */\n      0x00\n        /* \"#utility.yul\":1584:1593   */\n      dup4\n        /* \"#utility.yul\":1580:1597   */\n      add\n        /* \"#utility.yul\":1571:1577   */\n      dup5\n        /* \"#utility.yul\":1527:1598   */\n      tag_427\n      jump\t// in\n    tag_481:\n        /* \"#utility.yul\":1383:1605   */\n      swap3\n      swap2\n      pop\n      pop\n      jump\t// out\n        /* \"#utility.yul\":1611:1729   */\n    tag_428:\n        /* \"#utility.yul\":1698:1722   */\n      tag_483\n        /* \"#utility.yul\":1716:1721   */\n      dup2\n        /* \"#utility.yul\":1698:1722   */\n      tag_423\n      jump\t// in\n    tag_483:\n        /* \"#utility.yul\":1693:1696   */\n      dup3\n        /* \"#utility.yul\":1686:1723   */\n      mstore\n        /* \"#utility.yul\":1611:1729   */\n      pop\n      pop\n      jump\t// out\n        /* \"#utility.yul\":1735:1957   */\n    tag_65:\n        /* \"#utility.yul\":1828:1832   */\n      0x00\n        /* \"#utility.yul\":1866:1868   */\n      0x20\n        /* \"#utility.yul\":1855:1864   */\n      dup3\n        /* \"#utility.yul\":1851:1869   */\n      add\n        /* \"#utility.yul\":1843:1869   */\n      swap1\n      pop\n        /* \"#utility.yul\":1879:1950   */\n      tag_485\n        /* \"#utility.yul\":1947:1948   */\n      0x00\n        /* \"#utility.yul\":1936:1945   */\n      dup4\n        /* \"#utility.yul\":1932:1949   */\n      add\n        /* \"#utility.yul\":1923:1929   */\n      dup5\n        /* \"#utility.yul\":1879:1950   */\n      tag_428\n      jump\t// in\n    tag_485:\n        /* \"#utility.yul\":1735:1957   */\n      swap3\n      swap2\n      pop\n      pop\n      jump\t// out\n        /* \"#utility.yul\":1963:2053   */\n    tag_429:\n        /* \"#utility.yul\":1997:2004   */\n      0x00\n        /* \"#utility.yul\":2040:2045   */\n      dup2\n        /* \"#utility.yul\":2033:2046   */\n      iszero\n        /* \"#utility.yul\":2026:2047   */\n      iszero\n        /* \"#utility.yul\":2015:2047   */\n      swap1\n      pop\n        /* \"#utility.yul\":1963:2053   */\n      swap2\n      swap1\n      pop\n      jump\t// out\n        /* \"#utility.yul\":2059:2175   */\n    tag_430:\n        /* \"#utility.yul\":2129:2150   */\n      tag_488\n        /* \"#utility.yul\":2144:2149   */\n      dup2\n        /* \"#utility.yul\":2129:2150   */\n      tag_429\n      jump\t// in\n    tag_488:\n        /* \"#utility.yul\":2122:2127   */\n      dup2\n        /* \"#utility.yul\":2119:2151   */\n      eq\n        /* \"#utility.yul\":2109:2169   */\n      tag_489\n      jumpi\n        /* \"#utility.yul\":2165:2166   */\n      0x00\n        /* \"#utility.yul\":2162:2163   */\n      0x00\n        /* \"#utility.yul\":2155:2167   */\n      revert\n        /* \"#utility.yul\":2109:2169   */\n    tag_489:\n        /* \"#utility.yul\":2059:2175   */\n      pop\n      jump\t// out\n        /* \"#utility.yul\":2181:2314   */\n    tag_431:\n        /* \"#utility.yul\":2224:2229   */\n      0x00\n        /* \"#utility.yul\":2262:2268   */\n      dup2\n        /* \"#utility.yul\":2249:2269   */\n      calldataload\n        /* \"#utility.yul\":2240:2269   */\n      swap1\n      pop\n        /* \"#utility.yul\":2278:2308   */\n      tag_491\n        /* \"#utility.yul\":2302:2307   */\n      dup2\n        /* \"#utility.yul\":2278:2308   */\n      tag_430\n      jump\t// in\n    tag_491:\n        /* \"#utility.yul\":2181:2314   */\n      swap3\n      swap2\n      pop\n      pop\n      jump\t// out\n        /* \"#utility.yul\":2320:2643   */\n    tag_71:\n        /* \"#utility.yul\":2376:2382   */\n      0x00\n        /* \"#utility.yul\":2425:2427   */\n      0x20\n        /* \"#utility.yul\":2413:2422   */\n      dup3\n        /* \"#utility.yul\":2404:2411   */\n      dup5\n        /* \"#utility.yul\":2400:2423   */\n      sub\n        /* \"#utility.yul\":2396:2428   */\n      slt\n        /* \"#utility.yul\":2393:2512   */\n      iszero\n      tag_493\n      jumpi\n        /* \"#utility.yul\":2431:2510   */\n      tag_494\n      tag_420\n      jump\t// in\n    tag_494:\n        /* \"#utility.yul\":2393:2512   */\n    tag_493:\n        /* \"#utility.yul\":2551:2552   */\n      0x00\n        /* \"#utility.yul\":2576:2626   */\n      tag_495\n        /* \"#utility.yul\":2618:2625   */\n      dup5\n        /* \"#utility.yul\":2609:2615   */\n      dup3\n        /* \"#utility.yul\":2598:2607   */\n      dup6\n        /* \"#utility.yul\":2594:2616   */\n      add\n        /* \"#utility.yul\":2576:2626   */\n      tag_431\n      jump\t// in\n    tag_495:\n        /* \"#utility.yul\":2566:2626   */\n      swap2\n      pop\n        /* \"#utility.yul\":2522:2636   */\n      pop\n        /* \"#utility.yul\":2320:2643   */\n      swap3\n      swap2\n      pop\n      pop\n      jump\t// out\n        /* \"#utility.yul\":2649:2771   */\n    tag_432:\n        /* \"#utility.yul\":2722:2746   */\n      tag_497\n        /* \"#utility.yul\":2740:2745   */\n      dup2\n        /* \"#utility.yul\":2722:2746   */\n      tag_426\n      jump\t// in\n    tag_497:\n        /* \"#utility.yul\":2715:2720   */\n      dup2\n        /* \"#utility.yul\":2712:2747   */\n      eq\n        /* \"#utility.yul\":2702:2765   */\n      tag_498\n      jumpi\n        /* \"#utility.yul\":2761:2762   */\n      0x00\n        /* \"#utility.yul\":2758:2759   */\n      0x00\n        /* \"#utility.yul\":2751:2763   */\n      revert\n        /* \"#utility.yul\":2702:2765   */\n    tag_498:\n        /* \"#utility.yul\":2649:2771   */\n      pop\n      jump\t// out\n        /* \"#utility.yul\":2777:2916   */\n    tag_433:\n        /* \"#utility.yul\":2823:2828   */\n      0x00\n        /* \"#utility.yul\":2861:2867   */\n      dup2\n        /* \"#utility.yul\":2848:2868   */\n      calldataload\n        /* \"#utility.yul\":2839:2868   */\n      swap1\n      pop\n        /* \"#utility.yul\":2877:2910   */\n      tag_500\n        /* \"#utility.yul\":2904:2909   */\n      dup2\n        /* \"#utility.yul\":2877:2910   */\n      tag_432\n      jump\t// in\n    tag_500:\n        /* \"#utility.yul\":2777:2916   */\n      swap3\n      swap2\n      pop\n      pop\n      jump\t// out\n        /* \"#utility.yul\":2922:3251   */\n    tag_75:\n        /* \"#utility.yul\":2981:2987   */\n      0x00\n        /* \"#utility.yul\":3030:3032   */\n      0x20\n        /* \"#utility.yul\":3018:3027   */\n      dup3\n        /* \"#utility.yul\":3009:3016   */\n      dup5\n        /* \"#utility.yul\":3005:3028   */\n      sub\n        /* \"#utility.yul\":3001:3033   */\n      slt\n        /* \"#utility.yul\":2998:3117   */\n      iszero\n      tag_502\n      jumpi\n        /* \"#utility.yul\":3036:3115   */\n      tag_503\n      tag_420\n      jump\t// in\n    tag_503:\n        /* \"#utility.yul\":2998:3117   */\n    tag_502:\n        /* \"#utility.yul\":3156:3157   */\n      0x00\n        /* \"#utility.yul\":3181:3234   */\n      tag_504\n        /* \"#utility.yul\":3226:3233   */\n      dup5\n        /* \"#utility.yul\":3217:3223   */\n      dup3\n        /* \"#utility.yul\":3206:3215   */\n      dup6\n        /* \"#utility.yul\":3202:3224   */\n      add\n        /* \"#utility.yul\":3181:3234   */\n      tag_433\n      jump\t// in\n    tag_504:\n        /* \"#utility.yul\":3171:3234   */\n      swap2\n      pop\n        /* \"#utility.yul\":3127:3244   */\n      pop\n        /* \"#utility.yul\":2922:3251   */\n      swap3\n      swap2\n      pop\n      pop\n      jump\t// out\n        /* \"#utility.yul\":3257:3731   */\n    tag_104:\n        /* \"#utility.yul\":3325:3331   */\n      0x00\n        /* \"#utility.yul\":3333:3339   */\n      0x00\n        /* \"#utility.yul\":3382:3384   */\n      0x40\n        /* \"#utility.yul\":3370:3379   */\n      dup4\n        /* \"#utility.yul\":3361:3368   */\n      dup6\n        /* \"#utility.yul\":3357:3380   */\n      sub\n        /* \"#utility.yul\":3353:3385   */\n      slt\n        /* \"#utility.yul\":3350:3469   */\n      iszero\n      tag_506\n      jumpi\n        /* \"#utility.yul\":3388:3467   */\n      tag_507\n      tag_420\n      jump\t// in\n    tag_507:\n        /* \"#utility.yul\":3350:3469   */\n    tag_506:\n        /* \"#utility.yul\":3508:3509   */\n      0x00\n        /* \"#utility.yul\":3533:3586   */\n      tag_508\n        /* \"#utility.yul\":3578:3585   */\n      dup6\n        /* \"#utility.yul\":3569:3575   */\n      dup3\n        /* \"#utility.yul\":3558:3567   */\n      dup7\n        /* \"#utility.yul\":3554:3576   */\n      add\n        /* \"#utility.yul\":3533:3586   */\n      tag_425\n      jump\t// in\n    tag_508:\n        /* \"#utility.yul\":3523:3586   */\n      swap3\n      pop\n        /* \"#utility.yul\":3479:3596   */\n      pop\n        /* \"#utility.yul\":3635:3637   */\n      0x20\n        /* \"#utility.yul\":3661:3714   */\n      tag_509\n        /* \"#utility.yul\":3706:3713   */\n      dup6\n        /* \"#utility.yul\":3697:3703   */\n      dup3\n        /* \"#utility.yul\":3686:3695   */\n      dup7\n        /* \"#utility.yul\":3682:3704   */\n      add\n        /* \"#utility.yul\":3661:3714   */\n      tag_433\n      jump\t// in\n    tag_509:\n        /* \"#utility.yul\":3651:3714   */\n      swap2\n      pop\n        /* \"#utility.yul\":3606:3724   */\n      pop\n        /* \"#utility.yul\":3257:3731   */\n      swap3\n      pop\n      swap3\n      swap1\n      pop\n      jump\t// out\n        /* \"#utility.yul\":3737:3846   */\n    tag_434:\n        /* \"#utility.yul\":3818:3839   */\n      tag_511\n        /* \"#utility.yul\":3833:3838   */\n      dup2\n        /* \"#utility.yul\":3818:3839   */\n      tag_429\n      jump\t// in\n    tag_511:\n        /* \"#utility.yul\":3813:3816   */\n      dup3\n        /* \"#utility.yul\":3806:3840   */\n      mstore\n        /* \"#utility.yul\":3737:3846   */\n      pop\n      pop\n      jump\t// out\n        /* \"#utility.yul\":3852:4062   */\n    tag_114:\n        /* \"#utility.yul\":3939:3943   */\n      0x00\n        /* \"#utility.yul\":3977:3979   */\n      0x20\n        /* \"#utility.yul\":3966:3975   */\n      dup3\n        /* \"#utility.yul\":3962:3980   */\n      add\n        /* \"#utility.yul\":3954:3980   */\n      swap1\n      pop\n        /* \"#utility.yul\":3990:4055   */\n      tag_513\n        /* \"#utility.yul\":4052:4053   */\n      0x00\n        /* \"#utility.yul\":4041:4050   */\n      dup4\n        /* \"#utility.yul\":4037:4054   */\n      add\n        /* \"#utility.yul\":4028:4034   */\n      dup5\n        /* \"#utility.yul\":3990:4055   */\n      tag_434\n      jump\t// in\n    tag_513:\n        /* \"#utility.yul\":3852:4062   */\n      swap3\n      swap2\n      pop\n      pop\n      jump\t// out\n        /* \"#utility.yul\":4068:4542   */\n    tag_210:\n        /* \"#utility.yul\":4136:4142   */\n      0x00\n        /* \"#utility.yul\":4144:4150   */\n      0x00\n        /* \"#utility.yul\":4193:4195   */\n      0x40\n        /* \"#utility.yul\":4181:4190   */\n      dup4\n        /* \"#utility.yul\":4172:4179   */\n      dup6\n        /* \"#utility.yul\":4168:4191   */\n      sub\n        /* \"#utility.yul\":4164:4196   */\n      slt\n        /* \"#utility.yul\":4161:4280   */\n      iszero\n      tag_515\n      jumpi\n        /* \"#utility.yul\":4199:4278   */\n      tag_516\n      tag_420\n      jump\t// in\n    tag_516:\n        /* \"#utility.yul\":4161:4280   */\n    tag_515:\n        /* \"#utility.yul\":4319:4320   */\n      0x00\n        /* \"#utility.yul\":4344:4397   */\n      tag_517\n        /* \"#utility.yul\":4389:4396   */\n      dup6\n        /* \"#utility.yul\":4380:4386   */\n      dup3\n        /* \"#utility.yul\":4369:4378   */\n      dup7\n        /* \"#utility.yul\":4365:4387   */\n      add\n        /* \"#utility.yul\":4344:4397   */\n      tag_433\n      jump\t// in\n    tag_517:\n        /* \"#utility.yul\":4334:4397   */\n      swap3\n      pop\n        /* \"#utility.yul\":4290:4407   */\n      pop\n        /* \"#utility.yul\":4446:4448   */\n      0x20\n        /* \"#utility.yul\":4472:4525   */\n      tag_518\n        /* \"#utility.yul\":4517:4524   */\n      dup6\n        /* \"#utility.yul\":4508:4514   */\n      dup3\n        /* \"#utility.yul\":4497:4506   */\n      dup7\n        /* \"#utility.yul\":4493:4515   */\n      add\n        /* \"#utility.yul\":4472:4525   */\n      tag_433\n      jump\t// in\n    tag_518:\n        /* \"#utility.yul\":4462:4525   */\n      swap2\n      pop\n        /* \"#utility.yul\":4417:4535   */\n      pop\n        /* \"#utility.yul\":4068:4542   */\n      swap3\n      pop\n      swap3\n      swap1\n      pop\n      jump\t// out\n        /* \"#utility.yul\":4548:4717   */\n    tag_435:\n        /* \"#utility.yul\":4632:4643   */\n      0x00\n        /* \"#utility.yul\":4666:4672   */\n      dup3\n        /* \"#utility.yul\":4661:4664   */\n      dup3\n        /* \"#utility.yul\":4654:4673   */\n      mstore\n        /* \"#utility.yul\":4706:4710   */\n      0x20\n        /* \"#utility.yul\":4701:4704   */\n      dup3\n        /* \"#utility.yul\":4697:4711   */\n      add\n        /* \"#utility.yul\":4682:4711   */\n      swap1\n      pop\n        /* \"#utility.yul\":4548:4717   */\n      swap3\n      swap2\n      pop\n      pop\n      jump\t// out\n        /* \"#utility.yul\":4723:4905   */\n    tag_436:\n        /* \"#utility.yul\":4863:4897   */\n      0x4f776e61626c653a2063616c6c6572206973206e6f7420746865206f776e6572\n        /* \"#utility.yul\":4859:4860   */\n      0x00\n        /* \"#utility.yul\":4851:4857   */\n      dup3\n        /* \"#utility.yul\":4847:4861   */\n      add\n        /* \"#utility.yul\":4840:4898   */\n      mstore\n        /* \"#utility.yul\":4723:4905   */\n      pop\n      jump\t// out\n        /* \"#utility.yul\":4911:5277   */\n    tag_437:\n        /* \"#utility.yul\":5053:5056   */\n      0x00\n        /* \"#utility.yul\":5074:5141   */\n      tag_522\n        /* \"#utility.yul\":5138:5140   */\n      0x20\n        /* \"#utility.yul\":5133:5136   */\n      dup4\n        /* \"#utility.yul\":5074:5141   */\n      tag_435\n      jump\t// in\n    tag_522:\n        /* \"#utility.yul\":5067:5141   */\n      swap2\n      pop\n        /* \"#utility.yul\":5150:5243   */\n      tag_523\n        /* \"#utility.yul\":5239:5242   */\n      dup3\n        /* \"#utility.yul\":5150:5243   */\n      tag_436\n      jump\t// in\n    tag_523:\n        /* \"#utility.yul\":5268:5270   */\n      0x20\n        /* \"#utility.yul\":5263:5266   */\n      dup3\n        /* \"#utility.yul\":5259:5271   */\n      add\n        /* \"#utility.yul\":5252:5271   */\n      swap1\n      pop\n        /* \"#utility.yul\":4911:5277   */\n      swap2\n      swap1\n      pop\n      jump\t// out\n        /* \"#utility.yul\":5283:5702   */\n    tag_218:\n        /* \"#utility.yul\":5449:5453   */\n      0x00\n        /* \"#utility.yul\":5487:5489   */\n      0x20\n        /* \"#utility.yul\":5476:5485   */\n      dup3\n        /* \"#utility.yul\":5472:5490   */\n      add\n        /* \"#utility.yul\":5464:5490   */\n      swap1\n      pop\n        /* \"#utility.yul\":5536:5545   */\n      dup2\n        /* \"#utility.yul\":5530:5534   */\n      dup2\n        /* \"#utility.yul\":5526:5546   */\n      sub\n        /* \"#utility.yul\":5522:5523   */\n      0x00\n        /* \"#utility.yul\":5511:5520   */\n      dup4\n        /* \"#utility.yul\":5507:5524   */\n      add\n        /* \"#utility.yul\":5500:5547   */\n      mstore\n        /* \"#utility.yul\":5564:5695   */\n      tag_525\n        /* \"#utility.yul\":5690:5694   */\n      dup2\n        /* \"#utility.yul\":5564:5695   */\n      tag_437\n      jump\t// in\n    tag_525:\n        /* \"#utility.yul\":5556:5695   */\n      swap1\n      pop\n        /* \"#utility.yul\":5283:5702   */\n      swap2\n      swap1\n      pop\n      jump\t// out\n        /* \"#utility.yul\":5708:5877   */\n    tag_438:\n        /* \"#utility.yul\":5848:5869   */\n      0x496e76616c69642070726f647563742049442e00000000000000000000000000\n        /* \"#utility.yul\":5844:5845   */\n      0x00\n        /* \"#utility.yul\":5836:5842   */\n      dup3\n        /* \"#utility.yul\":5832:5846   */\n      add\n        /* \"#utility.yul\":5825:5870   */\n      mstore\n        /* \"#utility.yul\":5708:5877   */\n      pop\n      jump\t// out\n        /* \"#utility.yul\":5883:6249   */\n    tag_439:\n        /* \"#utility.yul\":6025:6028   */\n      0x00\n        /* \"#utility.yul\":6046:6113   */\n      tag_528\n        /* \"#utility.yul\":6110:6112   */\n      0x13\n        /* \"#utility.yul\":6105:6108   */\n      dup4\n        /* \"#utility.yul\":6046:6113   */\n      tag_435\n      jump\t// in\n    tag_528:\n        /* \"#utility.yul\":6039:6113   */\n      swap2\n      pop\n        /* \"#utility.yul\":6122:6215   */\n      tag_529\n        /* \"#utility.yul\":6211:6214   */\n      dup3\n        /* \"#utility.yul\":6122:6215   */\n      tag_438\n      jump\t// in\n    tag_529:\n        /* \"#utility.yul\":6240:6242   */\n      0x20\n        /* \"#utility.yul\":6235:6238   */\n      dup3\n        /* \"#utility.yul\":6231:6243   */\n      add\n        /* \"#utility.yul\":6224:6243   */\n      swap1\n      pop\n        /* \"#utility.yul\":5883:6249   */\n      swap2\n      swap1\n      pop\n      jump\t// out\n        /* \"#utility.yul\":6255:6674   */\n    tag_232:\n        /* \"#utility.yul\":6421:6425   */\n      0x00\n        /* \"#utility.yul\":6459:6461   */\n      0x20\n        /* \"#utility.yul\":6448:6457   */\n      dup3\n        /* \"#utility.yul\":6444:6462   */\n      add\n        /* \"#utility.yul\":6436:6462   */\n      swap1\n      pop\n        /* \"#utility.yul\":6508:6517   */\n      dup2\n        /* \"#utility.yul\":6502:6506   */\n      dup2\n        /* \"#utility.yul\":6498:6518   */\n      sub\n        /* \"#utility.yul\":6494:6495   */\n      0x00\n        /* \"#utility.yul\":6483:6492   */\n      dup4\n        /* \"#utility.yul\":6479:6496   */\n      add\n        /* \"#utility.yul\":6472:6519   */\n      mstore\n        /* \"#utility.yul\":6536:6667   */\n      tag_531\n        /* \"#utility.yul\":6662:6666   */\n      dup2\n        /* \"#utility.yul\":6536:6667   */\n      tag_439\n      jump\t// in\n    tag_531:\n        /* \"#utility.yul\":6528:6667   */\n      swap1\n      pop\n        /* \"#utility.yul\":6255:6674   */\n      swap2\n      swap1\n      pop\n      jump\t// out\n        /* \"#utility.yul\":6680:6908   */\n    tag_440:\n        /* \"#utility.yul\":6820:6854   */\n      0x546869732077616c6c657420686173206e6f207374616b65206f6e2074686973\n        /* \"#utility.yul\":6816:6817   */\n      0x00\n        /* \"#utility.yul\":6808:6814   */\n      dup3\n        /* \"#utility.yul\":6804:6818   */\n      add\n        /* \"#utility.yul\":6797:6855   */\n      mstore\n        /* \"#utility.yul\":6889:6900   */\n      0x2070726f647563742e0000000000000000000000000000000000000000000000\n        /* \"#utility.yul\":6884:6886   */\n      0x20\n        /* \"#utility.yul\":6876:6882   */\n      dup3\n        /* \"#utility.yul\":6872:6887   */\n      add\n        /* \"#utility.yul\":6865:6901   */\n      mstore\n        /* \"#utility.yul\":6680:6908   */\n      pop\n      jump\t// out\n        /* \"#utility.yul\":6914:7280   */\n    tag_441:\n        /* \"#utility.yul\":7056:7059   */\n      0x00\n        /* \"#utility.yul\":7077:7144   */\n      tag_534\n        /* \"#utility.yul\":7141:7143   */\n      0x29\n        /* \"#utility.yul\":7136:7139   */\n      dup4\n        /* \"#utility.yul\":7077:7144   */\n      tag_435\n      jump\t// in\n    tag_534:\n        /* \"#utility.yul\":7070:7144   */\n      swap2\n      pop\n        /* \"#utility.yul\":7153:7246   */\n      tag_535\n        /* \"#utility.yul\":7242:7245   */\n      dup3\n        /* \"#utility.yul\":7153:7246   */\n      tag_440\n      jump\t// in\n    tag_535:\n        /* \"#utility.yul\":7271:7273   */\n      0x40\n        /* \"#utility.yul\":7266:7269   */\n      dup3\n        /* \"#utility.yul\":7262:7274   */\n      add\n        /* \"#utility.yul\":7255:7274   */\n      swap1\n      pop\n        /* \"#utility.yul\":6914:7280   */\n      swap2\n      swap1\n      pop\n      jump\t// out\n        /* \"#utility.yul\":7286:7705   */\n    tag_236:\n        /* \"#utility.yul\":7452:7456   */\n      0x00\n        /* \"#utility.yul\":7490:7492   */\n      0x20\n        /* \"#utility.yul\":7479:7488   */\n      dup3\n        /* \"#utility.yul\":7475:7493   */\n      add\n        /* \"#utility.yul\":7467:7493   */\n      swap1\n      pop\n        /* \"#utility.yul\":7539:7548   */\n      dup2\n        /* \"#utility.yul\":7533:7537   */\n      dup2\n        /* \"#utility.yul\":7529:7549   */\n      sub\n        /* \"#utility.yul\":7525:7526   */\n      0x00\n        /* \"#utility.yul\":7514:7523   */\n      dup4\n        /* \"#utility.yul\":7510:7527   */\n      add\n        /* \"#utility.yul\":7503:7550   */\n      mstore\n        /* \"#utility.yul\":7567:7698   */\n      tag_537\n        /* \"#utility.yul\":7693:7697   */\n      dup2\n        /* \"#utility.yul\":7567:7698   */\n      tag_441\n      jump\t// in\n    tag_537:\n        /* \"#utility.yul\":7559:7698   */\n      swap1\n      pop\n        /* \"#utility.yul\":7286:7705   */\n      swap2\n      swap1\n      pop\n      jump\t// out\n        /* \"#utility.yul\":7711:7952   */\n    tag_442:\n        /* \"#utility.yul\":7851:7885   */\n      0x546865207374616b696e6720706572696f6420666f7220746869732070726f64\n        /* \"#utility.yul\":7847:7848   */\n      0x00\n        /* \"#utility.yul\":7839:7845   */\n      dup3\n        /* \"#utility.yul\":7835:7849   */\n      add\n        /* \"#utility.yul\":7828:7886   */\n      mstore\n        /* \"#utility.yul\":7920:7944   */\n      0x75637420686173206e6f7420656e646564207965742e00000000000000000000\n        /* \"#utility.yul\":7915:7917   */\n      0x20\n        /* \"#utility.yul\":7907:7913   */\n      dup3\n        /* \"#utility.yul\":7903:7918   */\n      add\n        /* \"#utility.yul\":7896:7945   */\n      mstore\n        /* \"#utility.yul\":7711:7952   */\n      pop\n      jump\t// out\n        /* \"#utility.yul\":7958:8324   */\n    tag_443:\n        /* \"#utility.yul\":8100:8103   */\n      0x00\n        /* \"#utility.yul\":8121:8188   */\n      tag_540\n        /* \"#utility.yul\":8185:8187   */\n      0x36\n        /* \"#utility.yul\":8180:8183   */\n      dup4\n        /* \"#utility.yul\":8121:8188   */\n      tag_435\n      jump\t// in\n    tag_540:\n        /* \"#utility.yul\":8114:8188   */\n      swap2\n      pop\n        /* \"#utility.yul\":8197:8290   */\n      tag_541\n        /* \"#utility.yul\":8286:8289   */\n      dup3\n        /* \"#utility.yul\":8197:8290   */\n      tag_442\n      jump\t// in\n    tag_541:\n        /* \"#utility.yul\":8315:8317   */\n      0x40\n        /* \"#utility.yul\":8310:8313   */\n      dup3\n        /* \"#utility.yul\":8306:8318   */\n      add\n        /* \"#utility.yul\":8299:8318   */\n      swap1\n      pop\n        /* \"#utility.yul\":7958:8324   */\n      swap2\n      swap1\n      pop\n      jump\t// out\n        /* \"#utility.yul\":8330:8749   */\n    tag_242:\n        /* \"#utility.yul\":8496:8500   */\n      0x00\n        /* \"#utility.yul\":8534:8536   */\n      0x20\n        /* \"#utility.yul\":8523:8532   */\n      dup3\n        /* \"#utility.yul\":8519:8537   */\n      add\n        /* \"#utility.yul\":8511:8537   */\n      swap1\n      pop\n        /* \"#utility.yul\":8583:8592   */\n      dup2\n        /* \"#utility.yul\":8577:8581   */\n      dup2\n        /* \"#utility.yul\":8573:8593   */\n      sub\n        /* \"#utility.yul\":8569:8570   */\n      0x00\n        /* \"#utility.yul\":8558:8567   */\n      dup4\n        /* \"#utility.yul\":8554:8571   */\n      add\n        /* \"#utility.yul\":8547:8594   */\n      mstore\n        /* \"#utility.yul\":8611:8742   */\n      tag_543\n        /* \"#utility.yul\":8737:8741   */\n      dup2\n        /* \"#utility.yul\":8611:8742   */\n      tag_443\n      jump\t// in\n    tag_543:\n        /* \"#utility.yul\":8603:8742   */\n      swap1\n      pop\n        /* \"#utility.yul\":8330:8749   */\n      swap2\n      swap1\n      pop\n      jump\t// out\n        /* \"#utility.yul\":8755:9197   */\n    tag_275:\n        /* \"#utility.yul\":8904:8908   */\n      0x00\n        /* \"#utility.yul\":8942:8944   */\n      0x60\n        /* \"#utility.yul\":8931:8940   */\n      dup3\n        /* \"#utility.yul\":8927:8945   */\n      add\n        /* \"#utility.yul\":8919:8945   */\n      swap1\n      pop\n        /* \"#utility.yul\":8955:9026   */\n      tag_545\n        /* \"#utility.yul\":9023:9024   */\n      0x00\n        /* \"#utility.yul\":9012:9021   */\n      dup4\n        /* \"#utility.yul\":9008:9025   */\n      add\n        /* \"#utility.yul\":8999:9005   */\n      dup7\n        /* \"#utility.yul\":8955:9026   */\n      tag_428\n      jump\t// in\n    tag_545:\n        /* \"#utility.yul\":9036:9108   */\n      tag_546\n        /* \"#utility.yul\":9104:9106   */\n      0x20\n        /* \"#utility.yul\":9093:9102   */\n      dup4\n        /* \"#utility.yul\":9089:9107   */\n      add\n        /* \"#utility.yul\":9080:9086   */\n      dup6\n        /* \"#utility.yul\":9036:9108   */\n      tag_428\n      jump\t// in\n    tag_546:\n        /* \"#utility.yul\":9118:9190   */\n      tag_547\n        /* \"#utility.yul\":9186:9188   */\n      0x40\n        /* \"#utility.yul\":9175:9184   */\n      dup4\n        /* \"#utility.yul\":9171:9189   */\n      add\n        /* \"#utility.yul\":9162:9168   */\n      dup5\n        /* \"#utility.yul\":9118:9190   */\n      tag_427\n      jump\t// in\n    tag_547:\n        /* \"#utility.yul\":8755:9197   */\n      swap5\n      swap4\n      pop\n      pop\n      pop\n      pop\n      jump\t// out\n        /* \"#utility.yul\":9203:9340   */\n    tag_444:\n        /* \"#utility.yul\":9257:9262   */\n      0x00\n        /* \"#utility.yul\":9288:9294   */\n      dup2\n        /* \"#utility.yul\":9282:9295   */\n      mload\n        /* \"#utility.yul\":9273:9295   */\n      swap1\n      pop\n        /* \"#utility.yul\":9304:9334   */\n      tag_549\n        /* \"#utility.yul\":9328:9333   */\n      dup2\n        /* \"#utility.yul\":9304:9334   */\n      tag_430\n      jump\t// in\n    tag_549:\n        /* \"#utility.yul\":9203:9340   */\n      swap3\n      swap2\n      pop\n      pop\n      jump\t// out\n        /* \"#utility.yul\":9346:9691   */\n    tag_279:\n        /* \"#utility.yul\":9413:9419   */\n      0x00\n        /* \"#utility.yul\":9462:9464   */\n      0x20\n        /* \"#utility.yul\":9450:9459   */\n      dup3\n        /* \"#utility.yul\":9441:9448   */\n      dup5\n        /* \"#utility.yul\":9437:9460   */\n      sub\n        /* \"#utility.yul\":9433:9465   */\n      slt\n        /* \"#utility.yul\":9430:9549   */\n      iszero\n      tag_551\n      jumpi\n        /* \"#utility.yul\":9468:9547   */\n      tag_552\n      tag_420\n      jump\t// in\n    tag_552:\n        /* \"#utility.yul\":9430:9549   */\n    tag_551:\n        /* \"#utility.yul\":9588:9589   */\n      0x00\n        /* \"#utility.yul\":9613:9674   */\n      tag_553\n        /* \"#utility.yul\":9666:9673   */\n      dup5\n        /* \"#utility.yul\":9657:9663   */\n      dup3\n        /* \"#utility.yul\":9646:9655   */\n      dup6\n        /* \"#utility.yul\":9642:9664   */\n      add\n        /* \"#utility.yul\":9613:9674   */\n      tag_444\n      jump\t// in\n    tag_553:\n        /* \"#utility.yul\":9603:9674   */\n      swap2\n      pop\n        /* \"#utility.yul\":9559:9684   */\n      pop\n        /* \"#utility.yul\":9346:9691   */\n      swap3\n      swap2\n      pop\n      pop\n      jump\t// out\n        /* \"#utility.yul\":9697:9877   */\n    tag_445:\n        /* \"#utility.yul\":9745:9822   */\n      0x4e487b7100000000000000000000000000000000000000000000000000000000\n        /* \"#utility.yul\":9742:9743   */\n      0x00\n        /* \"#utility.yul\":9735:9823   */\n      mstore\n        /* \"#utility.yul\":9842:9846   */\n      0x11\n        /* \"#utility.yul\":9839:9840   */\n      0x04\n        /* \"#utility.yul\":9832:9847   */\n      mstore\n        /* \"#utility.yul\":9866:9870   */\n      0x24\n        /* \"#utility.yul\":9863:9864   */\n      0x00\n        /* \"#utility.yul\":9856:9871   */\n      revert\n        /* \"#utility.yul\":9883:10074   */\n    tag_304:\n        /* \"#utility.yul\":9923:9926   */\n      0x00\n        /* \"#utility.yul\":9942:9962   */\n      tag_556\n        /* \"#utility.yul\":9960:9961   */\n      dup3\n        /* \"#utility.yul\":9942:9962   */\n      tag_426\n      jump\t// in\n    tag_556:\n        /* \"#utility.yul\":9937:9962   */\n      swap2\n      pop\n        /* \"#utility.yul\":9976:9996   */\n      tag_557\n        /* \"#utility.yul\":9994:9995   */\n      dup4\n        /* \"#utility.yul\":9976:9996   */\n      tag_426\n      jump\t// in\n    tag_557:\n        /* \"#utility.yul\":9971:9996   */\n      swap3\n      pop\n        /* \"#utility.yul\":10019:10020   */\n      dup3\n        /* \"#utility.yul\":10016:10017   */\n      dup3\n        /* \"#utility.yul\":10012:10021   */\n      add\n        /* \"#utility.yul\":10005:10021   */\n      swap1\n      pop\n        /* \"#utility.yul\":10040:10043   */\n      dup1\n        /* \"#utility.yul\":10037:10038   */\n      dup3\n        /* \"#utility.yul\":10034:10044   */\n      gt\n        /* \"#utility.yul\":10031:10067   */\n      iszero\n      tag_558\n      jumpi\n        /* \"#utility.yul\":10047:10065   */\n      tag_559\n      tag_445\n      jump\t// in\n    tag_559:\n        /* \"#utility.yul\":10031:10067   */\n    tag_558:\n        /* \"#utility.yul\":9883:10074   */\n      swap3\n      swap2\n      pop\n      pop\n      jump\t// out\n        /* \"#utility.yul\":10080:10305   */\n    tag_446:\n        /* \"#utility.yul\":10220:10254   */\n      0x4f776e61626c653a206e6577206f776e657220697320746865207a65726f2061\n        /* \"#utility.yul\":10216:10217   */\n      0x00\n        /* \"#utility.yul\":10208:10214   */\n      dup3\n        /* \"#utility.yul\":10204:10218   */\n      add\n        /* \"#utility.yul\":10197:10255   */\n      mstore\n        /* \"#utility.yul\":10289:10297   */\n      0x6464726573730000000000000000000000000000000000000000000000000000\n        /* \"#utility.yul\":10284:10286   */\n      0x20\n        /* \"#utility.yul\":10276:10282   */\n      dup3\n        /* \"#utility.yul\":10272:10287   */\n      add\n        /* \"#utility.yul\":10265:10298   */\n      mstore\n        /* \"#utility.yul\":10080:10305   */\n      pop\n      jump\t// out\n        /* \"#utility.yul\":10311:10677   */\n    tag_447:\n        /* \"#utility.yul\":10453:10456   */\n      0x00\n        /* \"#utility.yul\":10474:10541   */\n      tag_562\n        /* \"#utility.yul\":10538:10540   */\n      0x26\n        /* \"#utility.yul\":10533:10536   */\n      dup4\n        /* \"#utility.yul\":10474:10541   */\n      tag_435\n      jump\t// in\n    tag_562:\n        /* \"#utility.yul\":10467:10541   */\n      swap2\n      pop\n        /* \"#utility.yul\":10550:10643   */\n      tag_563\n        /* \"#utility.yul\":10639:10642   */\n      dup3\n        /* \"#utility.yul\":10550:10643   */\n      tag_446\n      jump\t// in\n    tag_563:\n        /* \"#utility.yul\":10668:10670   */\n      0x40\n        /* \"#utility.yul\":10663:10666   */\n      dup3\n        /* \"#utility.yul\":10659:10671   */\n      add\n        /* \"#utility.yul\":10652:10671   */\n      swap1\n      pop\n        /* \"#utility.yul\":10311:10677   */\n      swap2\n      swap1\n      pop\n      jump\t// out\n        /* \"#utility.yul\":10683:11102   */\n    tag_357:\n        /* \"#utility.yul\":10849:10853   */\n      0x00\n        /* \"#utility.yul\":10887:10889   */\n      0x20\n        /* \"#utility.yul\":10876:10885   */\n      dup3\n        /* \"#utility.yul\":10872:10890   */\n      add\n        /* \"#utility.yul\":10864:10890   */\n      swap1\n      pop\n        /* \"#utility.yul\":10936:10945   */\n      dup2\n        /* \"#utility.yul\":10930:10934   */\n      dup2\n        /* \"#utility.yul\":10926:10946   */\n      sub\n        /* \"#utility.yul\":10922:10923   */\n      0x00\n        /* \"#utility.yul\":10911:10920   */\n      dup4\n        /* \"#utility.yul\":10907:10924   */\n      add\n        /* \"#utility.yul\":10900:10947   */\n      mstore\n        /* \"#utility.yul\":10964:11095   */\n      tag_565\n        /* \"#utility.yul\":11090:11094   */\n      dup2\n        /* \"#utility.yul\":10964:11095   */\n      tag_447\n      jump\t// in\n    tag_565:\n        /* \"#utility.yul\":10956:11095   */\n      swap1\n      pop\n        /* \"#utility.yul\":10683:11102   */\n      swap2\n      swap1\n      pop\n      jump\t// out\n        /* \"#utility.yul\":11108:11330   */\n    tag_448:\n        /* \"#utility.yul\":11248:11282   */\n      0x5374616b696e67206f6e207468697320636f6e74726163742068617320656e64\n        /* \"#utility.yul\":11244:11245   */\n      0x00\n        /* \"#utility.yul\":11236:11242   */\n      dup3\n        /* \"#utility.yul\":11232:11246   */\n      add\n        /* \"#utility.yul\":11225:11283   */\n      mstore\n        /* \"#utility.yul\":11317:11322   */\n      0x6564210000000000000000000000000000000000000000000000000000000000\n        /* \"#utility.yul\":11312:11314   */\n      0x20\n        /* \"#utility.yul\":11304:11310   */\n      dup3\n        /* \"#utility.yul\":11300:11315   */\n      add\n        /* \"#utility.yul\":11293:11323   */\n      mstore\n        /* \"#utility.yul\":11108:11330   */\n      pop\n      jump\t// out\n        /* \"#utility.yul\":11336:11702   */\n    tag_449:\n        /* \"#utility.yul\":11478:11481   */\n      0x00\n        /* \"#utility.yul\":11499:11566   */\n      tag_568\n        /* \"#utility.yul\":11563:11565   */\n      0x23\n        /* \"#utility.yul\":11558:11561   */\n      dup4\n        /* \"#utility.yul\":11499:11566   */\n      tag_435\n      jump\t// in\n    tag_568:\n        /* \"#utility.yul\":11492:11566   */\n      swap2\n      pop\n        /* \"#utility.yul\":11575:11668   */\n      tag_569\n        /* \"#utility.yul\":11664:11667   */\n      dup3\n        /* \"#utility.yul\":11575:11668   */\n      tag_448\n      jump\t// in\n    tag_569:\n        /* \"#utility.yul\":11693:11695   */\n      0x40\n        /* \"#utility.yul\":11688:11691   */\n      dup3\n        /* \"#utility.yul\":11684:11696   */\n      add\n        /* \"#utility.yul\":11677:11696   */\n      swap1\n      pop\n        /* \"#utility.yul\":11336:11702   */\n      swap2\n      swap1\n      pop\n      jump\t// out\n        /* \"#utility.yul\":11708:12127   */\n    tag_362:\n        /* \"#utility.yul\":11874:11878   */\n      0x00\n        /* \"#utility.yul\":11912:11914   */\n      0x20\n        /* \"#utility.yul\":11901:11910   */\n      dup3\n        /* \"#utility.yul\":11897:11915   */\n      add\n        /* \"#utility.yul\":11889:11915   */\n      swap1\n      pop\n        /* \"#utility.yul\":11961:11970   */\n      dup2\n        /* \"#utility.yul\":11955:11959   */\n      dup2\n        /* \"#utility.yul\":11951:11971   */\n      sub\n        /* \"#utility.yul\":11947:11948   */\n      0x00\n        /* \"#utility.yul\":11936:11945   */\n      dup4\n        /* \"#utility.yul\":11932:11949   */\n      add\n        /* \"#utility.yul\":11925:11972   */\n      mstore\n        /* \"#utility.yul\":11989:12120   */\n      tag_571\n        /* \"#utility.yul\":12115:12119   */\n      dup2\n        /* \"#utility.yul\":11989:12120   */\n      tag_449\n      jump\t// in\n    tag_571:\n        /* \"#utility.yul\":11981:12120   */\n      swap1\n      pop\n        /* \"#utility.yul\":11708:12127   */\n      swap2\n      swap1\n      pop\n      jump\t// out\n        /* \"#utility.yul\":12133:12312   */\n    tag_450:\n        /* \"#utility.yul\":12273:12304   */\n      0x5374616b656420616d6f756e74206d757374206265206869676865722e000000\n        /* \"#utility.yul\":12269:12270   */\n      0x00\n        /* \"#utility.yul\":12261:12267   */\n      dup3\n        /* \"#utility.yul\":12257:12271   */\n      add\n        /* \"#utility.yul\":12250:12305   */\n      mstore\n        /* \"#utility.yul\":12133:12312   */\n      pop\n      jump\t// out\n        /* \"#utility.yul\":12318:12684   */\n    tag_451:\n        /* \"#utility.yul\":12460:12463   */\n      0x00\n        /* \"#utility.yul\":12481:12548   */\n      tag_574\n        /* \"#utility.yul\":12545:12547   */\n      0x1d\n        /* \"#utility.yul\":12540:12543   */\n      dup4\n        /* \"#utility.yul\":12481:12548   */\n      tag_435\n      jump\t// in\n    tag_574:\n        /* \"#utility.yul\":12474:12548   */\n      swap2\n      pop\n        /* \"#utility.yul\":12557:12650   */\n      tag_575\n        /* \"#utility.yul\":12646:12649   */\n      dup3\n        /* \"#utility.yul\":12557:12650   */\n      tag_450\n      jump\t// in\n    tag_575:\n        /* \"#utility.yul\":12675:12677   */\n      0x20\n        /* \"#utility.yul\":12670:12673   */\n      dup3\n        /* \"#utility.yul\":12666:12678   */\n      add\n        /* \"#utility.yul\":12659:12678   */\n      swap1\n      pop\n        /* \"#utility.yul\":12318:12684   */\n      swap2\n      swap1\n      pop\n      jump\t// out\n        /* \"#utility.yul\":12690:13109   */\n    tag_370:\n        /* \"#utility.yul\":12856:12860   */\n      0x00\n        /* \"#utility.yul\":12894:12896   */\n      0x20\n        /* \"#utility.yul\":12883:12892   */\n      dup3\n        /* \"#utility.yul\":12879:12897   */\n      add\n        /* \"#utility.yul\":12871:12897   */\n      swap1\n      pop\n        /* \"#utility.yul\":12943:12952   */\n      dup2\n        /* \"#utility.yul\":12937:12941   */\n      dup2\n        /* \"#utility.yul\":12933:12953   */\n      sub\n        /* \"#utility.yul\":12929:12930   */\n      0x00\n        /* \"#utility.yul\":12918:12927   */\n      dup4\n        /* \"#utility.yul\":12914:12931   */\n      add\n        /* \"#utility.yul\":12907:12954   */\n      mstore\n        /* \"#utility.yul\":12971:13102   */\n      tag_577\n        /* \"#utility.yul\":13097:13101   */\n      dup2\n        /* \"#utility.yul\":12971:13102   */\n      tag_451\n      jump\t// in\n    tag_577:\n        /* \"#utility.yul\":12963:13102   */\n      swap1\n      pop\n        /* \"#utility.yul\":12690:13109   */\n      swap2\n      swap1\n      pop\n      jump\t// out\n        /* \"#utility.yul\":13115:13293   */\n    tag_452:\n        /* \"#utility.yul\":13255:13285   */\n      0x5374616b656420616d6f756e74206d757374206265206c6f7765722e00000000\n        /* \"#utility.yul\":13251:13252   */\n      0x00\n        /* \"#utility.yul\":13243:13249   */\n      dup3\n        /* \"#utility.yul\":13239:13253   */\n      add\n        /* \"#utility.yul\":13232:13286   */\n      mstore\n        /* \"#utility.yul\":13115:13293   */\n      pop\n      jump\t// out\n        /* \"#utility.yul\":13299:13665   */\n    tag_453:\n        /* \"#utility.yul\":13441:13444   */\n      0x00\n        /* \"#utility.yul\":13462:13529   */\n      tag_580\n        /* \"#utility.yul\":13526:13528   */\n      0x1c\n        /* \"#utility.yul\":13521:13524   */\n      dup4\n        /* \"#utility.yul\":13462:13529   */\n      tag_435\n      jump\t// in\n    tag_580:\n        /* \"#utility.yul\":13455:13529   */\n      swap2\n      pop\n        /* \"#utility.yul\":13538:13631   */\n      tag_581\n        /* \"#utility.yul\":13627:13630   */\n      dup3\n        /* \"#utility.yul\":13538:13631   */\n      tag_452\n      jump\t// in\n    tag_581:\n        /* \"#utility.yul\":13656:13658   */\n      0x20\n        /* \"#utility.yul\":13651:13654   */\n      dup3\n        /* \"#utility.yul\":13647:13659   */\n      add\n        /* \"#utility.yul\":13640:13659   */\n      swap1\n      pop\n        /* \"#utility.yul\":13299:13665   */\n      swap2\n      swap1\n      pop\n      jump\t// out\n        /* \"#utility.yul\":13671:14090   */\n    tag_373:\n        /* \"#utility.yul\":13837:13841   */\n      0x00\n        /* \"#utility.yul\":13875:13877   */\n      0x20\n        /* \"#utility.yul\":13864:13873   */\n      dup3\n        /* \"#utility.yul\":13860:13878   */\n      add\n        /* \"#utility.yul\":13852:13878   */\n      swap1\n      pop\n        /* \"#utility.yul\":13924:13933   */\n      dup2\n        /* \"#utility.yul\":13918:13922   */\n      dup2\n        /* \"#utility.yul\":13914:13934   */\n      sub\n        /* \"#utility.yul\":13910:13911   */\n      0x00\n        /* \"#utility.yul\":13899:13908   */\n      dup4\n        /* \"#utility.yul\":13895:13912   */\n      add\n        /* \"#utility.yul\":13888:13935   */\n      mstore\n        /* \"#utility.yul\":13952:14083   */\n      tag_583\n        /* \"#utility.yul\":14078:14082   */\n      dup2\n        /* \"#utility.yul\":13952:14083   */\n      tag_453\n      jump\t// in\n    tag_583:\n        /* \"#utility.yul\":13944:14083   */\n      swap1\n      pop\n        /* \"#utility.yul\":13671:14090   */\n      swap2\n      swap1\n      pop\n      jump\t// out\n        /* \"#utility.yul\":14096:14321   */\n    tag_454:\n        /* \"#utility.yul\":14236:14270   */\n      0x5374616b696e672069732063757272656e746c7920696e20756e6c6f636b6564\n        /* \"#utility.yul\":14232:14233   */\n      0x00\n        /* \"#utility.yul\":14224:14230   */\n      dup3\n        /* \"#utility.yul\":14220:14234   */\n      add\n        /* \"#utility.yul\":14213:14271   */\n      mstore\n        /* \"#utility.yul\":14305:14313   */\n      0x206d6f64652e0000000000000000000000000000000000000000000000000000\n        /* \"#utility.yul\":14300:14302   */\n      0x20\n        /* \"#utility.yul\":14292:14298   */\n      dup3\n        /* \"#utility.yul\":14288:14303   */\n      add\n        /* \"#utility.yul\":14281:14314   */\n      mstore\n        /* \"#utility.yul\":14096:14321   */\n      pop\n      jump\t// out\n        /* \"#utility.yul\":14327:14693   */\n    tag_455:\n        /* \"#utility.yul\":14469:14472   */\n      0x00\n        /* \"#utility.yul\":14490:14557   */\n      tag_586\n        /* \"#utility.yul\":14554:14556   */\n      0x26\n        /* \"#utility.yul\":14549:14552   */\n      dup4\n        /* \"#utility.yul\":14490:14557   */\n      tag_435\n      jump\t// in\n    tag_586:\n        /* \"#utility.yul\":14483:14557   */\n      swap2\n      pop\n        /* \"#utility.yul\":14566:14659   */\n      tag_587\n        /* \"#utility.yul\":14655:14658   */\n      dup3\n        /* \"#utility.yul\":14566:14659   */\n      tag_454\n      jump\t// in\n    tag_587:\n        /* \"#utility.yul\":14684:14686   */\n      0x40\n        /* \"#utility.yul\":14679:14682   */\n      dup3\n        /* \"#utility.yul\":14675:14687   */\n      add\n        /* \"#utility.yul\":14668:14687   */\n      swap1\n      pop\n        /* \"#utility.yul\":14327:14693   */\n      swap2\n      swap1\n      pop\n      jump\t// out\n        /* \"#utility.yul\":14699:15118   */\n    tag_376:\n        /* \"#utility.yul\":14865:14869   */\n      0x00\n        /* \"#utility.yul\":14903:14905   */\n      0x20\n        /* \"#utility.yul\":14892:14901   */\n      dup3\n        /* \"#utility.yul\":14888:14906   */\n      add\n        /* \"#utility.yul\":14880:14906   */\n      swap1\n      pop\n        /* \"#utility.yul\":14952:14961   */\n      dup2\n        /* \"#utility.yul\":14946:14950   */\n      dup2\n        /* \"#utility.yul\":14942:14962   */\n      sub\n        /* \"#utility.yul\":14938:14939   */\n      0x00\n        /* \"#utility.yul\":14927:14936   */\n      dup4\n        /* \"#utility.yul\":14923:14940   */\n      add\n        /* \"#utility.yul\":14916:14963   */\n      mstore\n        /* \"#utility.yul\":14980:15111   */\n      tag_589\n        /* \"#utility.yul\":15106:15110   */\n      dup2\n        /* \"#utility.yul\":14980:15111   */\n      tag_455\n      jump\t// in\n    tag_589:\n        /* \"#utility.yul\":14972:15111   */\n      swap1\n      pop\n        /* \"#utility.yul\":14699:15118   */\n      swap2\n      swap1\n      pop\n      jump\t// out\n        /* \"#utility.yul\":15124:15344   */\n    tag_456:\n        /* \"#utility.yul\":15264:15298   */\n      0x54686973207374616b696e672070726f647563742069732064697361626c6564\n        /* \"#utility.yul\":15260:15261   */\n      0x00\n        /* \"#utility.yul\":15252:15258   */\n      dup3\n        /* \"#utility.yul\":15248:15262   */\n      add\n        /* \"#utility.yul\":15241:15299   */\n      mstore\n        /* \"#utility.yul\":15333:15336   */\n      0x2e00000000000000000000000000000000000000000000000000000000000000\n        /* \"#utility.yul\":15328:15330   */\n      0x20\n        /* \"#utility.yul\":15320:15326   */\n      dup3\n        /* \"#utility.yul\":15316:15331   */\n      add\n        /* \"#utility.yul\":15309:15337   */\n      mstore\n        /* \"#utility.yul\":15124:15344   */\n      pop\n      jump\t// out\n        /* \"#utility.yul\":15350:15716   */\n    tag_457:\n        /* \"#utility.yul\":15492:15495   */\n      0x00\n        /* \"#utility.yul\":15513:15580   */\n      tag_592\n        /* \"#utility.yul\":15577:15579   */\n      0x21\n        /* \"#utility.yul\":15572:15575   */\n      dup4\n        /* \"#utility.yul\":15513:15580   */\n      tag_435\n      jump\t// in\n    tag_592:\n        /* \"#utility.yul\":15506:15580   */\n      swap2\n      pop\n        /* \"#utility.yul\":15589:15682   */\n      tag_593\n        /* \"#utility.yul\":15678:15681   */\n      dup3\n        /* \"#utility.yul\":15589:15682   */\n      tag_456\n      jump\t// in\n    tag_593:\n        /* \"#utility.yul\":15707:15709   */\n      0x40\n        /* \"#utility.yul\":15702:15705   */\n      dup3\n        /* \"#utility.yul\":15698:15710   */\n      add\n        /* \"#utility.yul\":15691:15710   */\n      swap1\n      pop\n        /* \"#utility.yul\":15350:15716   */\n      swap2\n      swap1\n      pop\n      jump\t// out\n        /* \"#utility.yul\":15722:16141   */\n    tag_380:\n        /* \"#utility.yul\":15888:15892   */\n      0x00\n        /* \"#utility.yul\":15926:15928   */\n      0x20\n        /* \"#utility.yul\":15915:15924   */\n      dup3\n        /* \"#utility.yul\":15911:15929   */\n      add\n        /* \"#utility.yul\":15903:15929   */\n      swap1\n      pop\n        /* \"#utility.yul\":15975:15984   */\n      dup2\n        /* \"#utility.yul\":15969:15973   */\n      dup2\n        /* \"#utility.yul\":15965:15985   */\n      sub\n        /* \"#utility.yul\":15961:15962   */\n      0x00\n        /* \"#utility.yul\":15950:15959   */\n      dup4\n        /* \"#utility.yul\":15946:15963   */\n      add\n        /* \"#utility.yul\":15939:15986   */\n      mstore\n        /* \"#utility.yul\":16003:16134   */\n      tag_595\n        /* \"#utility.yul\":16129:16133   */\n      dup2\n        /* \"#utility.yul\":16003:16134   */\n      tag_457\n      jump\t// in\n    tag_595:\n        /* \"#utility.yul\":15995:16134   */\n      swap1\n      pop\n        /* \"#utility.yul\":15722:16141   */\n      swap2\n      swap1\n      pop\n      jump\t// out\n        /* \"#utility.yul\":16147:16453   */\n    tag_458:\n        /* \"#utility.yul\":16287:16321   */\n      0x546869732077616c6c65742068617320616c7265616479207374616b6564206f\n        /* \"#utility.yul\":16283:16284   */\n      0x00\n        /* \"#utility.yul\":16275:16281   */\n      dup3\n        /* \"#utility.yul\":16271:16285   */\n      add\n        /* \"#utility.yul\":16264:16322   */\n      mstore\n        /* \"#utility.yul\":16356:16390   */\n      0x6e20746869732070726f64756374202d207761697420666f7220746865207265\n        /* \"#utility.yul\":16351:16353   */\n      0x20\n        /* \"#utility.yul\":16343:16349   */\n      dup3\n        /* \"#utility.yul\":16339:16354   */\n      add\n        /* \"#utility.yul\":16332:16391   */\n      mstore\n        /* \"#utility.yul\":16425:16445   */\n      0x6c6561736520746f2072652d7374616b652e0000000000000000000000000000\n        /* \"#utility.yul\":16420:16422   */\n      0x40\n        /* \"#utility.yul\":16412:16418   */\n      dup3\n        /* \"#utility.yul\":16408:16423   */\n      add\n        /* \"#utility.yul\":16401:16446   */\n      mstore\n        /* \"#utility.yul\":16147:16453   */\n      pop\n      jump\t// out\n        /* \"#utility.yul\":16459:16825   */\n    tag_459:\n        /* \"#utility.yul\":16601:16604   */\n      0x00\n        /* \"#utility.yul\":16622:16689   */\n      tag_598\n        /* \"#utility.yul\":16686:16688   */\n      0x52\n        /* \"#utility.yul\":16681:16684   */\n      dup4\n        /* \"#utility.yul\":16622:16689   */\n      tag_435\n      jump\t// in\n    tag_598:\n        /* \"#utility.yul\":16615:16689   */\n      swap2\n      pop\n        /* \"#utility.yul\":16698:16791   */\n      tag_599\n        /* \"#utility.yul\":16787:16790   */\n      dup3\n        /* \"#utility.yul\":16698:16791   */\n      tag_458\n      jump\t// in\n    tag_599:\n        /* \"#utility.yul\":16816:16818   */\n      0x60\n        /* \"#utility.yul\":16811:16814   */\n      dup3\n        /* \"#utility.yul\":16807:16819   */\n      add\n        /* \"#utility.yul\":16800:16819   */\n      swap1\n      pop\n        /* \"#utility.yul\":16459:16825   */\n      swap2\n      swap1\n      pop\n      jump\t// out\n        /* \"#utility.yul\":16831:17250   */\n    tag_383:\n        /* \"#utility.yul\":16997:17001   */\n      0x00\n        /* \"#utility.yul\":17035:17037   */\n      0x20\n        /* \"#utility.yul\":17024:17033   */\n      dup3\n        /* \"#utility.yul\":17020:17038   */\n      add\n        /* \"#utility.yul\":17012:17038   */\n      swap1\n      pop\n        /* \"#utility.yul\":17084:17093   */\n      dup2\n        /* \"#utility.yul\":17078:17082   */\n      dup2\n        /* \"#utility.yul\":17074:17094   */\n      sub\n        /* \"#utility.yul\":17070:17071   */\n      0x00\n        /* \"#utility.yul\":17059:17068   */\n      dup4\n        /* \"#utility.yul\":17055:17072   */\n      add\n        /* \"#utility.yul\":17048:17095   */\n      mstore\n        /* \"#utility.yul\":17112:17243   */\n      tag_601\n        /* \"#utility.yul\":17238:17242   */\n      dup2\n        /* \"#utility.yul\":17112:17243   */\n      tag_459\n      jump\t// in\n    tag_601:\n        /* \"#utility.yul\":17104:17243   */\n      swap1\n      pop\n        /* \"#utility.yul\":16831:17250   */\n      swap2\n      swap1\n      pop\n      jump\t// out\n        /* \"#utility.yul\":17256:17436   */\n    tag_460:\n        /* \"#utility.yul\":17304:17381   */\n      0x4e487b7100000000000000000000000000000000000000000000000000000000\n        /* \"#utility.yul\":17301:17302   */\n      0x00\n        /* \"#utility.yul\":17294:17382   */\n      mstore\n        /* \"#utility.yul\":17401:17405   */\n      0x12\n        /* \"#utility.yul\":17398:17399   */\n      0x04\n        /* \"#utility.yul\":17391:17406   */\n      mstore\n        /* \"#utility.yul\":17425:17429   */\n      0x24\n        /* \"#utility.yul\":17422:17423   */\n      0x00\n        /* \"#utility.yul\":17415:17430   */\n      revert\n        /* \"#utility.yul\":17442:17627   */\n    tag_414:\n        /* \"#utility.yul\":17482:17483   */\n      0x00\n        /* \"#utility.yul\":17499:17519   */\n      tag_604\n        /* \"#utility.yul\":17517:17518   */\n      dup3\n        /* \"#utility.yul\":17499:17519   */\n      tag_426\n      jump\t// in\n    tag_604:\n        /* \"#utility.yul\":17494:17519   */\n      swap2\n      pop\n        /* \"#utility.yul\":17533:17553   */\n      tag_605\n        /* \"#utility.yul\":17551:17552   */\n      dup4\n        /* \"#utility.yul\":17533:17553   */\n      tag_426\n      jump\t// in\n    tag_605:\n        /* \"#utility.yul\":17528:17553   */\n      swap3\n      pop\n        /* \"#utility.yul\":17572:17573   */\n      dup3\n        /* \"#utility.yul\":17562:17597   */\n      tag_606\n      jumpi\n        /* \"#utility.yul\":17577:17595   */\n      tag_607\n      tag_460\n      jump\t// in\n    tag_607:\n        /* \"#utility.yul\":17562:17597   */\n    tag_606:\n        /* \"#utility.yul\":17619:17620   */\n      dup3\n        /* \"#utility.yul\":17616:17617   */\n      dup3\n        /* \"#utility.yul\":17612:17621   */\n      div\n        /* \"#utility.yul\":17607:17621   */\n      swap1\n      pop\n        /* \"#utility.yul\":17442:17627   */\n      swap3\n      swap2\n      pop\n      pop\n      jump\t// out\n        /* \"#utility.yul\":17633:17827   */\n    tag_417:\n        /* \"#utility.yul\":17673:17677   */\n      0x00\n        /* \"#utility.yul\":17693:17713   */\n      tag_609\n        /* \"#utility.yul\":17711:17712   */\n      dup3\n        /* \"#utility.yul\":17693:17713   */\n      tag_426\n      jump\t// in\n    tag_609:\n        /* \"#utility.yul\":17688:17713   */\n      swap2\n      pop\n        /* \"#utility.yul\":17727:17747   */\n      tag_610\n        /* \"#utility.yul\":17745:17746   */\n      dup4\n        /* \"#utility.yul\":17727:17747   */\n      tag_426\n      jump\t// in\n    tag_610:\n        /* \"#utility.yul\":17722:17747   */\n      swap3\n      pop\n        /* \"#utility.yul\":17771:17772   */\n      dup3\n        /* \"#utility.yul\":17768:17769   */\n      dup3\n        /* \"#utility.yul\":17764:17773   */\n      sub\n        /* \"#utility.yul\":17756:17773   */\n      swap1\n      pop\n        /* \"#utility.yul\":17795:17796   */\n      dup2\n        /* \"#utility.yul\":17789:17793   */\n      dup2\n        /* \"#utility.yul\":17786:17797   */\n      gt\n        /* \"#utility.yul\":17783:17820   */\n      iszero\n      tag_611\n      jumpi\n        /* \"#utility.yul\":17800:17818   */\n      tag_612\n      tag_445\n      jump\t// in\n    tag_612:\n        /* \"#utility.yul\":17783:17820   */\n    tag_611:\n        /* \"#utility.yul\":17633:17827   */\n      swap3\n      swap2\n      pop\n      pop\n      jump\t// out\n\n    auxdata: 0xa26469706673582212203ab1a6982f7f0fca90b0d859f0345f35610fca850dc8c02f47a1bb86b722961c64736f6c634300081e0033\n}\n",
				"bytecode": {
					"linkReferences": {},
					"object": "608060405234801561000f575f5ffd5b5061002c61002161023a60201b60201c565b61024160201b60201c565b5f601a819055505f601b819055505f601c819055506815af1d78b58c400000601581905550681b1ae4d6e2ef500000601d81905550662386f26fc1000060198190555073439aab0efaa9a646d4885fd8a245a501ca3d323760165f6101000a81548173ffffffffffffffffffffffffffffffffffffffff021916908373ffffffffffffffffffffffffffffffffffffffff16021790555073b2c8cec19bf5e73b28aa0193ffff124055413e2e60175f6101000a81548173ffffffffffffffffffffffffffffffffffffffff021916908373ffffffffffffffffffffffffffffffffffffffff160217905550735c647208486231beccabaacf5f2b7358937d3b9960185f6101000a81548173ffffffffffffffffffffffffffffffffffffffff021916908373ffffffffffffffffffffffffffffffffffffffff1602179055505f601e5f6101000a81548160ff02191690831515021790555061014d60038190555062093a80600481905550600160055f6101000a81548160ff0219169083151502179055506053600881905550621275006009819055506001600a5f6101000a81548160ff0219169083151502179055506020600d819055506224ea00600e819055506001600f5f6101000a81548160ff021916908315150217905550601a6012819055506224ea00601381905550600160145f6101000a81548160ff021916908315150217905550610302565b5f33905090565b5f5f5f9054906101000a900473ffffffffffffffffffffffffffffffffffffffff169050815f5f6101000a81548173ffffffffffffffffffffffffffffffffffffffff021916908373ffffffffffffffffffffffffffffffffffffffff1602179055508173ffffffffffffffffffffffffffffffffffffffff168173ffffffffffffffffffffffffffffffffffffffff167f8be0079c531659141344cd1fd0a4f28419497f9722a3daafe3b4186f6b6457e060405160405180910390a35050565b6132e98061030f5f395ff3fe608060405234801561000f575f5ffd5b5060043610610288575f3560e01c8063817b1cd21161015a578063d0bcc009116100cc578063ea1b28e011610085578063ea1b28e0146107de578063f1cddd55146107fc578063f2fde38b14610818578063f908dc1314610834578063fb75b2c714610852578063fd2b52021461087057610288565b8063d0bcc0091461072c578063d19b090e1461074a578063d47c56e514610768578063d5c41d6914610786578063d7d4918e146107a2578063e7de2ceb146107c057610288565b80639d76ea581161011e5780639d76ea5814610668578063b39dc99614610686578063bba4fefd146106a4578063bef7d12e146106c2578063c3630edb146106f2578063cd5692ee1461071057610288565b8063817b1cd2146105c257806389b0040a146105e05780638a170ac1146106105780638da5cb5b1461062e578063943872891461064c57610288565b80634b0c10d8116101fe57806370a08231116101b757806370a08231146104fe578063715018a61461052e57806373dec718146105385780637908542514610556578063798cbe5e146105745780637b3e920c1461059257610288565b80634b0c10d81461042a5780634b5effc2146104485780634f51d090146104785780635cd5a159146104a85780635f75bcea146104c65780636cbde5cf146104e257610288565b806324ebd9d21161025057806324ebd9d2146103305780632e5f89ef1461036057806335e6305514610390578063375b3c0a146103ac57806338dc97fb146103ca5780634893afc1146103fa57610288565b8063058df0e81461028c5780630f9154b5146102bc5780631d95985b146102da5780631d95d52f146102f857806323dcdb8914610314575b5f5ffd5b6102a660048036038101906102a191906129ba565b61088c565b6040516102b391906129fd565b60405180910390f35b6102c46108a1565b6040516102d19190612a25565b60405180910390f35b6102e26108c6565b6040516102ef91906129fd565b60405180910390f35b610312600480360381019061030d9190612a73565b6108cc565b005b61032e60048036038101906103299190612ac8565b610964565b005b61034a600480360381019061034591906129ba565b6109ea565b60405161035791906129fd565b60405180910390f35b61037a600480360381019061037591906129ba565b6109ff565b60405161038791906129fd565b60405180910390f35b6103aa60048036038101906103a59190612ac8565b610a14565b005b6103b4611587565b6040516103c191906129fd565b60405180910390f35b6103e460048036038101906103df91906129ba565b61158d565b6040516103f191906129fd565b60405180910390f35b610414600480360381019061040f91906129ba565b6115a2565b60405161042191906129fd565b60405180910390f35b6104326115b7565b60405161043f91906129fd565b60405180910390f35b610462600480360381019061045d9190612af3565b6115bd565b60405161046f91906129fd565b60405180910390f35b610492600480360381019061048d91906129ba565b6116fc565b60405161049f91906129fd565b60405180910390f35b6104b0611711565b6040516104bd9190612b40565b60405180910390f35b6104e060048036038101906104db9190612a73565b611723565b005b6104fc60048036038101906104f79190612a73565b6117bb565b005b610518600480360381019061051391906129ba565b611853565b60405161052591906129fd565b60405180910390f35b610536611976565b005b6105406119fd565b60405161054d9190612b40565b60405180910390f35b61055e611a0f565b60405161056b91906129fd565b60405180910390f35b61057c611a15565b60405161058991906129fd565b60405180910390f35b6105ac60048036038101906105a791906129ba565b611a1b565b6040516105b991906129fd565b60405180910390f35b6105ca611a30565b6040516105d791906129fd565b60405180910390f35b6105fa60048036038101906105f591906129ba565b611a36565b60405161060791906129fd565b60405180910390f35b610618611a4b565b6040516106259190612b40565b60405180910390f35b610636611a5d565b6040516106439190612a25565b60405180910390f35b61066660048036038101906106619190612ac8565b611a84565b005b610670611b0a565b60405161067d9190612a25565b60405180910390f35b61068e611b2f565b60405161069b91906129fd565b60405180910390f35b6106ac611b35565b6040516106b991906129fd565b60405180910390f35b6106dc60048036038101906106d79190612af3565b611b3b565b6040516106e991906129fd565b60405180910390f35b6106fa611cca565b60405161070791906129fd565b60405180910390f35b61072a60048036038101906107259190612ac8565b611cd0565b005b610734611d56565b6040516107419190612b40565b60405180910390f35b610752611d68565b60405161075f91906129fd565b60405180910390f35b610770611d6e565b60405161077d91906129fd565b60405180910390f35b6107a0600480360381019061079b9190612a73565b611d74565b005b6107aa611e0c565b6040516107b791906129fd565b60405180910390f35b6107c8611e12565b6040516107d591906129fd565b60405180910390f35b6107e6611e18565b6040516107f391906129fd565b60405180910390f35b61081660048036038101906108119190612a73565b611e1e565b005b610832600480360381019061082d91906129ba565b611eb6565b005b61083c611fac565b6040516108499190612b40565b60405180910390f35b61085a611fbe565b6040516108679190612a25565b60405180910390f35b61088a60048036038101906108859190612b59565b611fe3565b005b6006602052805f5260405f205f915090505481565b60165f9054906101000a900473ffffffffffffffffffffffffffffffffffffffff1681565b600e5481565b6108d4612855565b73ffffffffffffffffffffffffffffffffffffffff166108f2611a5d565b73ffffffffffffffffffffffffffffffffffffffff1614610948576040517f08c379a000000000000000000000000000000000000000000000000000000000815260040161093f90612bf1565b60405180910390fd5b8060145f6101000a81548160ff02191690831515021790555050565b61096c612855565b73ffffffffffffffffffffffffffffffffffffffff1661098a611a5d565b73ffffffffffffffffffffffffffffffffffffffff16146109e0576040517f08c379a00000000000000000000000000000000000000000000000000000000081526004016109d790612bf1565b60405180910390fd5b8060198190555050565b6010602052805f5260405f205f915090505481565b600b602052805f5260405f205f915090505481565b5f3390505f5f90505f5f90506001841480610a2f5750600284145b80610a3a5750600384145b80610a455750600484145b610a84576040517f08c379a0000000000000000000000000000000000000000000000000000000008152600401610a7b90612c59565b60405180910390fd5b60018403610ccc575f60015f8573ffffffffffffffffffffffffffffffffffffffff1673ffffffffffffffffffffffffffffffffffffffff1681526020019081526020015f205411610b0b576040517f08c379a0000000000000000000000000000000000000000000000000000000008152600401610b0290612ce7565b60405180910390fd5b601e5f9054906101000a900460ff16610bb35742610b7160045460025f8773ffffffffffffffffffffffffffffffffffffffff1673ffffffffffffffffffffffffffffffffffffffff1681526020019081526020015f205461285c90919063ffffffff16565b1115610bb2576040517f08c379a0000000000000000000000000000000000000000000000000000000008152600401610ba990612d75565b60405180910390fd5b5b610c0560035460015f8673ffffffffffffffffffffffffffffffffffffffff1673ffffffffffffffffffffffffffffffffffffffff1681526020019081526020015f205461287190919063ffffffff16565b915060015f8473ffffffffffffffffffffffffffffffffffffffff1673ffffffffffffffffffffffffffffffffffffffff1681526020019081526020015f205490505f60015f8573ffffffffffffffffffffffffffffffffffffffff1673ffffffffffffffffffffffffffffffffffffffff1681526020019081526020015f20819055505f60025f8573ffffffffffffffffffffffffffffffffffffffff1673ffffffffffffffffffffffffffffffffffffffff1681526020019081526020015f20819055505b60028403610f14575f60065f8573ffffffffffffffffffffffffffffffffffffffff1673ffffffffffffffffffffffffffffffffffffffff1681526020019081526020015f205411610d53576040517f08c379a0000000000000000000000000000000000000000000000000000000008152600401610d4a90612ce7565b60405180910390fd5b601e5f9054906101000a900460ff16610dfb5742610db960095460075f8773ffffffffffffffffffffffffffffffffffffffff1673ffffffffffffffffffffffffffffffffffffffff1681526020019081526020015f205461285c90919063ffffffff16565b1115610dfa576040517f08c379a0000000000000000000000000000000000000000000000000000000008152600401610df190612d75565b60405180910390fd5b5b610e4d60085460065f8673ffffffffffffffffffffffffffffffffffffffff1673ffffffffffffffffffffffffffffffffffffffff1681526020019081526020015f205461287190919063ffffffff16565b915060065f8473ffffffffffffffffffffffffffffffffffffffff1673ffffffffffffffffffffffffffffffffffffffff1681526020019081526020015f205490505f60065f8573ffffffffffffffffffffffffffffffffffffffff1673ffffffffffffffffffffffffffffffffffffffff1681526020019081526020015f20819055505f60075f8573ffffffffffffffffffffffffffffffffffffffff1673ffffffffffffffffffffffffffffffffffffffff1681526020019081526020015f20819055505b6003840361115c575f600b5f8573ffffffffffffffffffffffffffffffffffffffff1673ffffffffffffffffffffffffffffffffffffffff1681526020019081526020015f205411610f9b576040517f08c379a0000000000000000000000000000000000000000000000000000000008152600401610f9290612ce7565b60405180910390fd5b601e5f9054906101000a900460ff166110435742611001600e54600c5f8773ffffffffffffffffffffffffffffffffffffffff1673ffffffffffffffffffffffffffffffffffffffff1681526020019081526020015f205461285c90919063ffffffff16565b1115611042576040517f08c379a000000000000000000000000000000000000000000000000000000000815260040161103990612d75565b60405180910390fd5b5b611095600d54600b5f8673ffffffffffffffffffffffffffffffffffffffff1673ffffffffffffffffffffffffffffffffffffffff1681526020019081526020015f205461287190919063ffffffff16565b9150600b5f8473ffffffffffffffffffffffffffffffffffffffff1673ffffffffffffffffffffffffffffffffffffffff1681526020019081526020015f205490505f600b5f8573ffffffffffffffffffffffffffffffffffffffff1673ffffffffffffffffffffffffffffffffffffffff1681526020019081526020015f20819055505f600c5f8573ffffffffffffffffffffffffffffffffffffffff1673ffffffffffffffffffffffffffffffffffffffff1681526020019081526020015f20819055505b600484036113a4575f60105f8573ffffffffffffffffffffffffffffffffffffffff1673ffffffffffffffffffffffffffffffffffffffff1681526020019081526020015f2054116111e3576040517f08c379a00000000000000000000000000000000000000000000000000000000081526004016111da90612ce7565b60405180910390fd5b601e5f9054906101000a900460ff1661128b574261124960135460115f8773ffffffffffffffffffffffffffffffffffffffff1673ffffffffffffffffffffffffffffffffffffffff1681526020019081526020015f205461285c90919063ffffffff16565b111561128a576040517f08c379a000000000000000000000000000000000000000000000000000000000815260040161128190612d75565b60405180910390fd5b5b6112dd60125460105f8673ffffffffffffffffffffffffffffffffffffffff1673ffffffffffffffffffffffffffffffffffffffff1681526020019081526020015f205461287190919063ffffffff16565b915060105f8473ffffffffffffffffffffffffffffffffffffffff1673ffffffffffffffffffffffffffffffffffffffff1681526020019081526020015f205490505f60105f8573ffffffffffffffffffffffffffffffffffffffff1673ffffffffffffffffffffffffffffffffffffffff1681526020019081526020015f20819055505f60115f8573ffffffffffffffffffffffffffffffffffffffff1673ffffffffffffffffffffffffffffffffffffffff1681526020019081526020015f20819055505b601e5f9054906101000a900460ff166113ee576113cc82601b5461285c90919063ffffffff16565b601b819055506113e782601a5461288690919063ffffffff16565b601a819055505b61140381601c5461288690919063ffffffff16565b601c819055505f60185f9054906101000a900473ffffffffffffffffffffffffffffffffffffffff1690508073ffffffffffffffffffffffffffffffffffffffff166323b872dd60165f9054906101000a900473ffffffffffffffffffffffffffffffffffffffff1686856040518463ffffffff1660e01b815260040161148c93929190612d93565b6020604051808303815f875af11580156114a8573d5f5f3e3d5ffd5b505050506040513d601f19601f820116820180604052508101906114cc9190612ddc565b50601e5f9054906101000a900460ff16611580578073ffffffffffffffffffffffffffffffffffffffff166323b872dd60175f9054906101000a900473ffffffffffffffffffffffffffffffffffffffff1686866040518463ffffffff1660e01b815260040161153e93929190612d93565b6020604051808303815f875af115801561155a573d5f5f3e3d5ffd5b505050506040513d601f19601f8201168201806040525081019061157e9190612ddc565b505b5050505050565b60195481565b6011602052805f5260405f205f915090505481565b6001602052805f5260405f205f915090505481565b60045481565b5f6001820361160b5760015f8473ffffffffffffffffffffffffffffffffffffffff1673ffffffffffffffffffffffffffffffffffffffff1681526020019081526020015f205490506116f6565b600282036116585760065f8473ffffffffffffffffffffffffffffffffffffffff1673ffffffffffffffffffffffffffffffffffffffff1681526020019081526020015f205490506116f6565b600382036116a557600b5f8473ffffffffffffffffffffffffffffffffffffffff1673ffffffffffffffffffffffffffffffffffffffff1681526020019081526020015f205490506116f6565b600482036116f25760105f8473ffffffffffffffffffffffffffffffffffffffff1673ffffffffffffffffffffffffffffffffffffffff1681526020019081526020015f205490506116f6565b5f90505b92915050565b6002602052805f5260405f205f915090505481565b60145f9054906101000a900460ff1681565b61172b612855565b73ffffffffffffffffffffffffffffffffffffffff16611749611a5d565b73ffffffffffffffffffffffffffffffffffffffff161461179f576040517f08c379a000000000000000000000000000000000000000000000000000000000815260040161179690612bf1565b60405180910390fd5b80600a5f6101000a81548160ff02191690831515021790555050565b6117c3612855565b73ffffffffffffffffffffffffffffffffffffffff166117e1611a5d565b73ffffffffffffffffffffffffffffffffffffffff1614611837576040517f08c379a000000000000000000000000000000000000000000000000000000000815260040161182e90612bf1565b60405180910390fd5b8060055f6101000a81548160ff02191690831515021790555050565b5f5f60105f8473ffffffffffffffffffffffffffffffffffffffff1673ffffffffffffffffffffffffffffffffffffffff1681526020019081526020015f2054600b5f8573ffffffffffffffffffffffffffffffffffffffff1673ffffffffffffffffffffffffffffffffffffffff1681526020019081526020015f205460065f8673ffffffffffffffffffffffffffffffffffffffff1673ffffffffffffffffffffffffffffffffffffffff1681526020019081526020015f205460015f8773ffffffffffffffffffffffffffffffffffffffff1673ffffffffffffffffffffffffffffffffffffffff1681526020019081526020015f20546119579190612e34565b6119619190612e34565b61196b9190612e34565b905080915050919050565b61197e612855565b73ffffffffffffffffffffffffffffffffffffffff1661199c611a5d565b73ffffffffffffffffffffffffffffffffffffffff16146119f2576040517f08c379a00000000000000000000000000000000000000000000000000000000081526004016119e990612bf1565b60405180910390fd5b6119fb5f61289b565b565b600a5f9054906101000a900460ff1681565b601b5481565b60135481565b6007602052805f5260405f205f915090505481565b601c5481565b600c602052805f5260405f205f915090505481565b60055f9054906101000a900460ff1681565b5f5f5f9054906101000a900473ffffffffffffffffffffffffffffffffffffffff16905090565b611a8c612855565b73ffffffffffffffffffffffffffffffffffffffff16611aaa611a5d565b73ffffffffffffffffffffffffffffffffffffffff1614611b00576040517f08c379a0000000000000000000000000000000000000000000000000000000008152600401611af790612bf1565b60405180910390fd5b80601d8190555050565b60185f9054906101000a900473ffffffffffffffffffffffffffffffffffffffff1681565b600d5481565b601a5481565b5f60018203611b9d57611b9660045460025f8673ffffffffffffffffffffffffffffffffffffffff1673ffffffffffffffffffffffffffffffffffffffff1681526020019081526020015f205461285c90919063ffffffff16565b9050611cc4565b60028203611bfe57611bf760095460075f8673ffffffffffffffffffffffffffffffffffffffff1673ffffffffffffffffffffffffffffffffffffffff1681526020019081526020015f205461285c90919063ffffffff16565b9050611cc4565b60038203611c5f57611c58600e54600c5f8673ffffffffffffffffffffffffffffffffffffffff1673ffffffffffffffffffffffffffffffffffffffff1681526020019081526020015f205461285c90919063ffffffff16565b9050611cc4565b60048203611cc057611cb960135460115f8673ffffffffffffffffffffffffffffffffffffffff1673ffffffffffffffffffffffffffffffffffffffff1681526020019081526020015f205461285c90919063ffffffff16565b9050611cc4565b5f90505b92915050565b60125481565b611cd8612855565b73ffffffffffffffffffffffffffffffffffffffff16611cf6611a5d565b73ffffffffffffffffffffffffffffffffffffffff1614611d4c576040517f08c379a0000000000000000000000000000000000000000000000000000000008152600401611d4390612bf1565b60405180910390fd5b8060158190555050565b600f5f9054906101000a900460ff1681565b601d5481565b60095481565b611d7c612855565b73ffffffffffffffffffffffffffffffffffffffff16611d9a611a5d565b73ffffffffffffffffffffffffffffffffffffffff1614611df0576040517f08c379a0000000000000000000000000000000000000000000000000000000008152600401611de790612bf1565b60405180910390fd5b80600f5f6101000a81548160ff02191690831515021790555050565b60085481565b60035481565b60155481565b611e26612855565b73ffffffffffffffffffffffffffffffffffffffff16611e44611a5d565b73ffffffffffffffffffffffffffffffffffffffff1614611e9a576040517f08c379a0000000000000000000000000000000000000000000000000000000008152600401611e9190612bf1565b60405180910390fd5b80601e5f6101000a81548160ff02191690831515021790555050565b611ebe612855565b73ffffffffffffffffffffffffffffffffffffffff16611edc611a5d565b73ffffffffffffffffffffffffffffffffffffffff1614611f32576040517f08c379a0000000000000000000000000000000000000000000000000000000008152600401611f2990612bf1565b60405180910390fd5b5f73ffffffffffffffffffffffffffffffffffffffff168173ffffffffffffffffffffffffffffffffffffffff1603611fa0576040517f08c379a0000000000000000000000000000000000000000000000000000000008152600401611f9790612ed7565b60405180910390fd5b611fa98161289b565b50565b601e5f9054906101000a900460ff1681565b60175f9054906101000a900473ffffffffffffffffffffffffffffffffffffffff1681565b5f3390505f5f9050601b54601d541015612032576040517f08c379a000000000000000000000000000000000000000000000000000000000815260040161202990612f65565b60405180910390fd5b60018314806120415750600283145b8061204c5750600383145b806120575750600483145b612096576040517f08c379a000000000000000000000000000000000000000000000000000000000815260040161208d90612c59565b60405180910390fd5b6019548410156120db576040517f08c379a00000000000000000000000000000000000000000000000000000000081526004016120d290612fcd565b60405180910390fd5b601554841115612120576040517f08c379a000000000000000000000000000000000000000000000000000000000815260040161211790613035565b60405180910390fd5b5f1515601e5f9054906101000a900460ff16151514612174576040517f08c379a000000000000000000000000000000000000000000000000000000000815260040161216b906130c3565b60405180910390fd5b600183036122ec576001151560055f9054906101000a900460ff161515146121d1576040517f08c379a00000000000000000000000000000000000000000000000000000000081526004016121c890613151565b60405180910390fd5b5f60015f8473ffffffffffffffffffffffffffffffffffffffff1673ffffffffffffffffffffffffffffffffffffffff1681526020019081526020015f205414612250576040517f08c379a000000000000000000000000000000000000000000000000000000000815260040161224790613205565b60405180910390fd5b6122656003548561287190919063ffffffff16565b90504260025f8473ffffffffffffffffffffffffffffffffffffffff1673ffffffffffffffffffffffffffffffffffffffff1681526020019081526020015f20819055508360015f8473ffffffffffffffffffffffffffffffffffffffff1673ffffffffffffffffffffffffffffffffffffffff1681526020019081526020015f20819055505b600283036124645760011515600a5f9054906101000a900460ff16151514612349576040517f08c379a000000000000000000000000000000000000000000000000000000000815260040161234090613151565b60405180910390fd5b5f60065f8473ffffffffffffffffffffffffffffffffffffffff1673ffffffffffffffffffffffffffffffffffffffff1681526020019081526020015f2054146123c8576040517f08c379a00000000000000000000000000000000000000000000000000000000081526004016123bf90613205565b60405180910390fd5b6123dd6008548561287190919063ffffffff16565b90504260075f8473ffffffffffffffffffffffffffffffffffffffff1673ffffffffffffffffffffffffffffffffffffffff1681526020019081526020015f20819055508360065f8473ffffffffffffffffffffffffffffffffffffffff1673ffffffffffffffffffffffffffffffffffffffff1681526020019081526020015f20819055505b600383036125dc5760011515600f5f9054906101000a900460ff161515146124c1576040517f08c379a00000000000000000000000000000000000000000000000000000000081526004016124b890613151565b60405180910390fd5b5f600b5f8473ffffffffffffffffffffffffffffffffffffffff1673ffffffffffffffffffffffffffffffffffffffff1681526020019081526020015f205414612540576040517f08c379a000000000000000000000000000000000000000000000000000000000815260040161253790613205565b60405180910390fd5b612555600d548561287190919063ffffffff16565b905042600c5f8473ffffffffffffffffffffffffffffffffffffffff1673ffffffffffffffffffffffffffffffffffffffff1681526020019081526020015f208190555083600b5f8473ffffffffffffffffffffffffffffffffffffffff1673ffffffffffffffffffffffffffffffffffffffff1681526020019081526020015f20819055505b60048303612754576001151560145f9054906101000a900460ff16151514612639576040517f08c379a000000000000000000000000000000000000000000000000000000000815260040161263090613151565b60405180910390fd5b5f60105f8473ffffffffffffffffffffffffffffffffffffffff1673ffffffffffffffffffffffffffffffffffffffff1681526020019081526020015f2054146126b8576040517f08c379a00000000000000000000000000000000000000000000000000000000081526004016126af90613205565b60405180910390fd5b6126cd6012548561287190919063ffffffff16565b90504260115f8473ffffffffffffffffffffffffffffffffffffffff1673ffffffffffffffffffffffffffffffffffffffff1681526020019081526020015f20819055508360105f8473ffffffffffffffffffffffffffffffffffffffff1673ffffffffffffffffffffffffffffffffffffffff1681526020019081526020015f20819055505b61276981601a5461285c90919063ffffffff16565b601a8190555061278484601c5461285c90919063ffffffff16565b601c819055505f60185f9054906101000a900473ffffffffffffffffffffffffffffffffffffffff1690508073ffffffffffffffffffffffffffffffffffffffff166323b872dd8460165f9054906101000a900473ffffffffffffffffffffffffffffffffffffffff16886040518463ffffffff1660e01b815260040161280d93929190612d93565b6020604051808303815f875af1158015612829573d5f5f3e3d5ffd5b505050506040513d601f19601f8201168201806040525081019061284d9190612ddc565b505050505050565b5f33905090565b5f81836128699190612e34565b905092915050565b5f818361287e9190613250565b905092915050565b5f81836128939190613280565b905092915050565b5f5f5f9054906101000a900473ffffffffffffffffffffffffffffffffffffffff169050815f5f6101000a81548173ffffffffffffffffffffffffffffffffffffffff021916908373ffffffffffffffffffffffffffffffffffffffff1602179055508173ffffffffffffffffffffffffffffffffffffffff168173ffffffffffffffffffffffffffffffffffffffff167f8be0079c531659141344cd1fd0a4f28419497f9722a3daafe3b4186f6b6457e060405160405180910390a35050565b5f5ffd5b5f73ffffffffffffffffffffffffffffffffffffffff82169050919050565b5f61298982612960565b9050919050565b6129998161297f565b81146129a3575f5ffd5b50565b5f813590506129b481612990565b92915050565b5f602082840312156129cf576129ce61295c565b5b5f6129dc848285016129a6565b91505092915050565b5f819050919050565b6129f7816129e5565b82525050565b5f602082019050612a105f8301846129ee565b92915050565b612a1f8161297f565b82525050565b5f602082019050612a385f830184612a16565b92915050565b5f8115159050919050565b612a5281612a3e565b8114612a5c575f5ffd5b50565b5f81359050612a6d81612a49565b92915050565b5f60208284031215612a8857612a8761295c565b5b5f612a9584828501612a5f565b91505092915050565b612aa7816129e5565b8114612ab1575f5ffd5b50565b5f81359050612ac281612a9e565b92915050565b5f60208284031215612add57612adc61295c565b5b5f612aea84828501612ab4565b91505092915050565b5f5f60408385031215612b0957612b0861295c565b5b5f612b16858286016129a6565b9250506020612b2785828601612ab4565b9150509250929050565b612b3a81612a3e565b82525050565b5f602082019050612b535f830184612b31565b92915050565b5f5f60408385031215612b6f57612b6e61295c565b5b5f612b7c85828601612ab4565b9250506020612b8d85828601612ab4565b9150509250929050565b5f82825260208201905092915050565b7f4f776e61626c653a2063616c6c6572206973206e6f7420746865206f776e65725f82015250565b5f612bdb602083612b97565b9150612be682612ba7565b602082019050919050565b5f6020820190508181035f830152612c0881612bcf565b9050919050565b7f496e76616c69642070726f647563742049442e000000000000000000000000005f82015250565b5f612c43601383612b97565b9150612c4e82612c0f565b602082019050919050565b5f6020820190508181035f830152612c7081612c37565b9050919050565b7f546869732077616c6c657420686173206e6f207374616b65206f6e20746869735f8201527f2070726f647563742e0000000000000000000000000000000000000000000000602082015250565b5f612cd1602983612b97565b9150612cdc82612c77565b604082019050919050565b5f6020820190508181035f830152612cfe81612cc5565b9050919050565b7f546865207374616b696e6720706572696f6420666f7220746869732070726f645f8201527f75637420686173206e6f7420656e646564207965742e00000000000000000000602082015250565b5f612d5f603683612b97565b9150612d6a82612d05565b604082019050919050565b5f6020820190508181035f830152612d8c81612d53565b9050919050565b5f606082019050612da65f830186612a16565b612db36020830185612a16565b612dc060408301846129ee565b949350505050565b5f81519050612dd681612a49565b92915050565b5f60208284031215612df157612df061295c565b5b5f612dfe84828501612dc8565b91505092915050565b7f4e487b71000000000000000000000000000000000000000000000000000000005f52601160045260245ffd5b5f612e3e826129e5565b9150612e49836129e5565b9250828201905080821115612e6157612e60612e07565b5b92915050565b7f4f776e61626c653a206e6577206f776e657220697320746865207a65726f20615f8201527f6464726573730000000000000000000000000000000000000000000000000000602082015250565b5f612ec1602683612b97565b9150612ecc82612e67565b604082019050919050565b5f6020820190508181035f830152612eee81612eb5565b9050919050565b7f5374616b696e67206f6e207468697320636f6e74726163742068617320656e645f8201527f6564210000000000000000000000000000000000000000000000000000000000602082015250565b5f612f4f602383612b97565b9150612f5a82612ef5565b604082019050919050565b5f6020820190508181035f830152612f7c81612f43565b9050919050565b7f5374616b656420616d6f756e74206d757374206265206869676865722e0000005f82015250565b5f612fb7601d83612b97565b9150612fc282612f83565b602082019050919050565b5f6020820190508181035f830152612fe481612fab565b9050919050565b7f5374616b656420616d6f756e74206d757374206265206c6f7765722e000000005f82015250565b5f61301f601c83612b97565b915061302a82612feb565b602082019050919050565b5f6020820190508181035f83015261304c81613013565b9050919050565b7f5374616b696e672069732063757272656e746c7920696e20756e6c6f636b65645f8201527f206d6f64652e0000000000000000000000000000000000000000000000000000602082015250565b5f6130ad602683612b97565b91506130b882613053565b604082019050919050565b5f6020820190508181035f8301526130da816130a1565b9050919050565b7f54686973207374616b696e672070726f647563742069732064697361626c65645f8201527f2e00000000000000000000000000000000000000000000000000000000000000602082015250565b5f61313b602183612b97565b9150613146826130e1565b604082019050919050565b5f6020820190508181035f8301526131688161312f565b9050919050565b7f546869732077616c6c65742068617320616c7265616479207374616b6564206f5f8201527f6e20746869732070726f64756374202d207761697420666f722074686520726560208201527f6c6561736520746f2072652d7374616b652e0000000000000000000000000000604082015250565b5f6131ef605283612b97565b91506131fa8261316f565b606082019050919050565b5f6020820190508181035f83015261321c816131e3565b9050919050565b7f4e487b71000000000000000000000000000000000000000000000000000000005f52601260045260245ffd5b5f61325a826129e5565b9150613265836129e5565b92508261327557613274613223565b5b828204905092915050565b5f61328a826129e5565b9150613295836129e5565b92508282039050818111156132ad576132ac612e07565b5b9291505056fea26469706673582212203ab1a6982f7f0fca90b0d859f0345f35610fca850dc8c02f47a1bb86b722961c64736f6c634300081e0033",
					"opcodes": "PUSH1 0x80 PUSH1 0x40 MSTORE CALLVALUE DUP1 ISZERO PUSH2 0xF JUMPI PUSH0 PUSH0 REVERT JUMPDEST POP PUSH2 0x2C PUSH2 0x21 PUSH2 0x23A PUSH1 0x20 SHL PUSH1 0x20 SHR JUMP JUMPDEST PUSH2 0x241 PUSH1 0x20 SHL PUSH1 0x20 SHR JUMP JUMPDEST PUSH0 PUSH1 0x1A DUP2 SWAP1 SSTORE POP PUSH0 PUSH1 0x1B DUP2 SWAP1 SSTORE POP PUSH0 PUSH1 0x1C DUP2 SWAP1 SSTORE POP PUSH9 0x15AF1D78B58C400000 PUSH1 0x15 DUP2 SWAP1 SSTORE POP PUSH9 0x1B1AE4D6E2EF500000 PUSH1 0x1D DUP2 SWAP1 SSTORE POP PUSH7 0x2386F26FC10000 PUSH1 0x19 DUP2 SWAP1 SSTORE POP PUSH20 0x439AAB0EFAA9A646D4885FD8A245A501CA3D3237 PUSH1 0x16 PUSH0 PUSH2 0x100 EXP DUP2 SLOAD DUP2 PUSH20 0xFFFFFFFFFFFFFFFFFFFFFFFFFFFFFFFFFFFFFFFF MUL NOT AND SWAP1 DUP4 PUSH20 0xFFFFFFFFFFFFFFFFFFFFFFFFFFFFFFFFFFFFFFFF AND MUL OR SWAP1 SSTORE POP PUSH20 0xB2C8CEC19BF5E73B28AA0193FFFF124055413E2E PUSH1 0x17 PUSH0 PUSH2 0x100 EXP DUP2 SLOAD DUP2 PUSH20 0xFFFFFFFFFFFFFFFFFFFFFFFFFFFFFFFFFFFFFFFF MUL NOT AND SWAP1 DUP4 PUSH20 0xFFFFFFFFFFFFFFFFFFFFFFFFFFFFFFFFFFFFFFFF AND MUL OR SWAP1 SSTORE POP PUSH20 0x5C647208486231BECCABAACF5F2B7358937D3B99 PUSH1 0x18 PUSH0 PUSH2 0x100 EXP DUP2 SLOAD DUP2 PUSH20 0xFFFFFFFFFFFFFFFFFFFFFFFFFFFFFFFFFFFFFFFF MUL NOT AND SWAP1 DUP4 PUSH20 0xFFFFFFFFFFFFFFFFFFFFFFFFFFFFFFFFFFFFFFFF AND MUL OR SWAP1 SSTORE POP PUSH0 PUSH1 0x1E PUSH0 PUSH2 0x100 EXP DUP2 SLOAD DUP2 PUSH1 0xFF MUL NOT AND SWAP1 DUP4 ISZERO ISZERO MUL OR SWAP1 SSTORE POP PUSH2 0x14D PUSH1 0x3 DUP2 SWAP1 SSTORE POP PUSH3 0x93A80 PUSH1 0x4 DUP2 SWAP1 SSTORE POP PUSH1 0x1 PUSH1 0x5 PUSH0 PUSH2 0x100 EXP DUP2 SLOAD DUP2 PUSH1 0xFF MUL NOT AND SWAP1 DUP4 ISZERO ISZERO MUL OR SWAP1 SSTORE POP PUSH1 0x53 PUSH1 0x8 DUP2 SWAP1 SSTORE POP PUSH3 0x127500 PUSH1 0x9 DUP2 SWAP1 SSTORE POP PUSH1 0x1 PUSH1 0xA PUSH0 PUSH2 0x100 EXP DUP2 SLOAD DUP2 PUSH1 0xFF MUL NOT AND SWAP1 DUP4 ISZERO ISZERO MUL OR SWAP1 SSTORE POP PUSH1 0x20 PUSH1 0xD DUP2 SWAP1 SSTORE POP PUSH3 0x24EA00 PUSH1 0xE DUP2 SWAP1 SSTORE POP PUSH1 0x1 PUSH1 0xF PUSH0 PUSH2 0x100 EXP DUP2 SLOAD DUP2 PUSH1 0xFF MUL NOT AND SWAP1 DUP4 ISZERO ISZERO MUL OR SWAP1 SSTORE POP PUSH1 0x1A PUSH1 0x12 DUP2 SWAP1 SSTORE POP PUSH3 0x24EA00 PUSH1 0x13 DUP2 SWAP1 SSTORE POP PUSH1 0x1 PUSH1 0x14 PUSH0 PUSH2 0x100 EXP DUP2 SLOAD DUP2 PUSH1 0xFF MUL NOT AND SWAP1 DUP4 ISZERO ISZERO MUL OR SWAP1 SSTORE POP PUSH2 0x302 JUMP JUMPDEST PUSH0 CALLER SWAP1 POP SWAP1 JUMP JUMPDEST PUSH0 PUSH0 PUSH0 SWAP1 SLOAD SWAP1 PUSH2 0x100 EXP SWAP1 DIV PUSH20 0xFFFFFFFFFFFFFFFFFFFFFFFFFFFFFFFFFFFFFFFF AND SWAP1 POP DUP2 PUSH0 PUSH0 PUSH2 0x100 EXP DUP2 SLOAD DUP2 PUSH20 0xFFFFFFFFFFFFFFFFFFFFFFFFFFFFFFFFFFFFFFFF MUL NOT AND SWAP1 DUP4 PUSH20 0xFFFFFFFFFFFFFFFFFFFFFFFFFFFFFFFFFFFFFFFF AND MUL OR SWAP1 SSTORE POP DUP2 PUSH20 0xFFFFFFFFFFFFFFFFFFFFFFFFFFFFFFFFFFFFFFFF AND DUP2 PUSH20 0xFFFFFFFFFFFFFFFFFFFFFFFFFFFFFFFFFFFFFFFF AND PUSH32 0x8BE0079C531659141344CD1FD0A4F28419497F9722A3DAAFE3B4186F6B6457E0 PUSH1 0x40 MLOAD PUSH1 0x40 MLOAD DUP1 SWAP2 SUB SWAP1 LOG3 POP POP JUMP JUMPDEST PUSH2 0x32E9 DUP1 PUSH2 0x30F PUSH0 CODECOPY PUSH0 RETURN INVALID PUSH1 0x80 PUSH1 0x40 MSTORE CALLVALUE DUP1 ISZERO PUSH2 0xF JUMPI PUSH0 PUSH0 REVERT JUMPDEST POP PUSH1 0x4 CALLDATASIZE LT PUSH2 0x288 JUMPI PUSH0 CALLDATALOAD PUSH1 0xE0 SHR DUP1 PUSH4 0x817B1CD2 GT PUSH2 0x15A JUMPI DUP1 PUSH4 0xD0BCC009 GT PUSH2 0xCC JUMPI DUP1 PUSH4 0xEA1B28E0 GT PUSH2 0x85 JUMPI DUP1 PUSH4 0xEA1B28E0 EQ PUSH2 0x7DE JUMPI DUP1 PUSH4 0xF1CDDD55 EQ PUSH2 0x7FC JUMPI DUP1 PUSH4 0xF2FDE38B EQ PUSH2 0x818 JUMPI DUP1 PUSH4 0xF908DC13 EQ PUSH2 0x834 JUMPI DUP1 PUSH4 0xFB75B2C7 EQ PUSH2 0x852 JUMPI DUP1 PUSH4 0xFD2B5202 EQ PUSH2 0x870 JUMPI PUSH2 0x288 JUMP JUMPDEST DUP1 PUSH4 0xD0BCC009 EQ PUSH2 0x72C JUMPI DUP1 PUSH4 0xD19B090E EQ PUSH2 0x74A JUMPI DUP1 PUSH4 0xD47C56E5 EQ PUSH2 0x768 JUMPI DUP1 PUSH4 0xD5C41D69 EQ PUSH2 0x786 JUMPI DUP1 PUSH4 0xD7D4918E EQ PUSH2 0x7A2 JUMPI DUP1 PUSH4 0xE7DE2CEB EQ PUSH2 0x7C0 JUMPI PUSH2 0x288 JUMP JUMPDEST DUP1 PUSH4 0x9D76EA58 GT PUSH2 0x11E JUMPI DUP1 PUSH4 0x9D76EA58 EQ PUSH2 0x668 JUMPI DUP1 PUSH4 0xB39DC996 EQ PUSH2 0x686 JUMPI DUP1 PUSH4 0xBBA4FEFD EQ PUSH2 0x6A4 JUMPI DUP1 PUSH4 0xBEF7D12E EQ PUSH2 0x6C2 JUMPI DUP1 PUSH4 0xC3630EDB EQ PUSH2 0x6F2 JUMPI DUP1 PUSH4 0xCD5692EE EQ PUSH2 0x710 JUMPI PUSH2 0x288 JUMP JUMPDEST DUP1 PUSH4 0x817B1CD2 EQ PUSH2 0x5C2 JUMPI DUP1 PUSH4 0x89B0040A EQ PUSH2 0x5E0 JUMPI DUP1 PUSH4 0x8A170AC1 EQ PUSH2 0x610 JUMPI DUP1 PUSH4 0x8DA5CB5B EQ PUSH2 0x62E JUMPI DUP1 PUSH4 0x94387289 EQ PUSH2 0x64C JUMPI PUSH2 0x288 JUMP JUMPDEST DUP1 PUSH4 0x4B0C10D8 GT PUSH2 0x1FE JUMPI DUP1 PUSH4 0x70A08231 GT PUSH2 0x1B7 JUMPI DUP1 PUSH4 0x70A08231 EQ PUSH2 0x4FE JUMPI DUP1 PUSH4 0x715018A6 EQ PUSH2 0x52E JUMPI DUP1 PUSH4 0x73DEC718 EQ PUSH2 0x538 JUMPI DUP1 PUSH4 0x79085425 EQ PUSH2 0x556 JUMPI DUP1 PUSH4 0x798CBE5E EQ PUSH2 0x574 JUMPI DUP1 PUSH4 0x7B3E920C EQ PUSH2 0x592 JUMPI PUSH2 0x288 JUMP JUMPDEST DUP1 PUSH4 0x4B0C10D8 EQ PUSH2 0x42A JUMPI DUP1 PUSH4 0x4B5EFFC2 EQ PUSH2 0x448 JUMPI DUP1 PUSH4 0x4F51D090 EQ PUSH2 0x478 JUMPI DUP1 PUSH4 0x5CD5A159 EQ PUSH2 0x4A8 JUMPI DUP1 PUSH4 0x5F75BCEA EQ PUSH2 0x4C6 JUMPI DUP1 PUSH4 0x6CBDE5CF EQ PUSH2 0x4E2 JUMPI PUSH2 0x288 JUMP JUMPDEST DUP1 PUSH4 0x24EBD9D2 GT PUSH2 0x250 JUMPI DUP1 PUSH4 0x24EBD9D2 EQ PUSH2 0x330 JUMPI DUP1 PUSH4 0x2E5F89EF EQ PUSH2 0x360 JUMPI DUP1 PUSH4 0x35E63055 EQ PUSH2 0x390 JUMPI DUP1 PUSH4 0x375B3C0A EQ PUSH2 0x3AC JUMPI DUP1 PUSH4 0x38DC97FB EQ PUSH2 0x3CA JUMPI DUP1 PUSH4 0x4893AFC1 EQ PUSH2 0x3FA JUMPI PUSH2 0x288 JUMP JUMPDEST DUP1 PUSH4 0x58DF0E8 EQ PUSH2 0x28C JUMPI DUP1 PUSH4 0xF9154B5 EQ PUSH2 0x2BC JUMPI DUP1 PUSH4 0x1D95985B EQ PUSH2 0x2DA JUMPI DUP1 PUSH4 0x1D95D52F EQ PUSH2 0x2F8 JUMPI DUP1 PUSH4 0x23DCDB89 EQ PUSH2 0x314 JUMPI JUMPDEST PUSH0 PUSH0 REVERT JUMPDEST PUSH2 0x2A6 PUSH1 0x4 DUP1 CALLDATASIZE SUB DUP2 ADD SWAP1 PUSH2 0x2A1 SWAP2 SWAP1 PUSH2 0x29BA JUMP JUMPDEST PUSH2 0x88C JUMP JUMPDEST PUSH1 0x40 MLOAD PUSH2 0x2B3 SWAP2 SWAP1 PUSH2 0x29FD JUMP JUMPDEST PUSH1 0x40 MLOAD DUP1 SWAP2 SUB SWAP1 RETURN JUMPDEST PUSH2 0x2C4 PUSH2 0x8A1 JUMP JUMPDEST PUSH1 0x40 MLOAD PUSH2 0x2D1 SWAP2 SWAP1 PUSH2 0x2A25 JUMP JUMPDEST PUSH1 0x40 MLOAD DUP1 SWAP2 SUB SWAP1 RETURN JUMPDEST PUSH2 0x2E2 PUSH2 0x8C6 JUMP JUMPDEST PUSH1 0x40 MLOAD PUSH2 0x2EF SWAP2 SWAP1 PUSH2 0x29FD JUMP JUMPDEST PUSH1 0x40 MLOAD DUP1 SWAP2 SUB SWAP1 RETURN JUMPDEST PUSH2 0x312 PUSH1 0x4 DUP1 CALLDATASIZE SUB DUP2 ADD SWAP1 PUSH2 0x30D SWAP2 SWAP1 PUSH2 0x2A73 JUMP JUMPDEST PUSH2 0x8CC JUMP JUMPDEST STOP JUMPDEST PUSH2 0x32E PUSH1 0x4 DUP1 CALLDATASIZE SUB DUP2 ADD SWAP1 PUSH2 0x329 SWAP2 SWAP1 PUSH2 0x2AC8 JUMP JUMPDEST PUSH2 0x964 JUMP JUMPDEST STOP JUMPDEST PUSH2 0x34A PUSH1 0x4 DUP1 CALLDATASIZE SUB DUP2 ADD SWAP1 PUSH2 0x345 SWAP2 SWAP1 PUSH2 0x29BA JUMP JUMPDEST PUSH2 0x9EA JUMP JUMPDEST PUSH1 0x40 MLOAD PUSH2 0x357 SWAP2 SWAP1 PUSH2 0x29FD JUMP JUMPDEST PUSH1 0x40 MLOAD DUP1 SWAP2 SUB SWAP1 RETURN JUMPDEST PUSH2 0x37A PUSH1 0x4 DUP1 CALLDATASIZE SUB DUP2 ADD SWAP1 PUSH2 0x375 SWAP2 SWAP1 PUSH2 0x29BA JUMP JUMPDEST PUSH2 0x9FF JUMP JUMPDEST PUSH1 0x40 MLOAD PUSH2 0x387 SWAP2 SWAP1 PUSH2 0x29FD JUMP JUMPDEST PUSH1 0x40 MLOAD DUP1 SWAP2 SUB SWAP1 RETURN JUMPDEST PUSH2 0x3AA PUSH1 0x4 DUP1 CALLDATASIZE SUB DUP2 ADD SWAP1 PUSH2 0x3A5 SWAP2 SWAP1 PUSH2 0x2AC8 JUMP JUMPDEST PUSH2 0xA14 JUMP JUMPDEST STOP JUMPDEST PUSH2 0x3B4 PUSH2 0x1587 JUMP JUMPDEST PUSH1 0x40 MLOAD PUSH2 0x3C1 SWAP2 SWAP1 PUSH2 0x29FD JUMP JUMPDEST PUSH1 0x40 MLOAD DUP1 SWAP2 SUB SWAP1 RETURN JUMPDEST PUSH2 0x3E4 PUSH1 0x4 DUP1 CALLDATASIZE SUB DUP2 ADD SWAP1 PUSH2 0x3DF SWAP2 SWAP1 PUSH2 0x29BA JUMP JUMPDEST PUSH2 0x158D JUMP JUMPDEST PUSH1 0x40 MLOAD PUSH2 0x3F1 SWAP2 SWAP1 PUSH2 0x29FD JUMP JUMPDEST PUSH1 0x40 MLOAD DUP1 SWAP2 SUB SWAP1 RETURN JUMPDEST PUSH2 0x414 PUSH1 0x4 DUP1 CALLDATASIZE SUB DUP2 ADD SWAP1 PUSH2 0x40F SWAP2 SWAP1 PUSH2 0x29BA JUMP JUMPDEST PUSH2 0x15A2 JUMP JUMPDEST PUSH1 0x40 MLOAD PUSH2 0x421 SWAP2 SWAP1 PUSH2 0x29FD JUMP JUMPDEST PUSH1 0x40 MLOAD DUP1 SWAP2 SUB SWAP1 RETURN JUMPDEST PUSH2 0x432 PUSH2 0x15B7 JUMP JUMPDEST PUSH1 0x40 MLOAD PUSH2 0x43F SWAP2 SWAP1 PUSH2 0x29FD JUMP JUMPDEST PUSH1 0x40 MLOAD DUP1 SWAP2 SUB SWAP1 RETURN JUMPDEST PUSH2 0x462 PUSH1 0x4 DUP1 CALLDATASIZE SUB DUP2 ADD SWAP1 PUSH2 0x45D SWAP2 SWAP1 PUSH2 0x2AF3 JUMP JUMPDEST PUSH2 0x15BD JUMP JUMPDEST PUSH1 0x40 MLOAD PUSH2 0x46F SWAP2 SWAP1 PUSH2 0x29FD JUMP JUMPDEST PUSH1 0x40 MLOAD DUP1 SWAP2 SUB SWAP1 RETURN JUMPDEST PUSH2 0x492 PUSH1 0x4 DUP1 CALLDATASIZE SUB DUP2 ADD SWAP1 PUSH2 0x48D SWAP2 SWAP1 PUSH2 0x29BA JUMP JUMPDEST PUSH2 0x16FC JUMP JUMPDEST PUSH1 0x40 MLOAD PUSH2 0x49F SWAP2 SWAP1 PUSH2 0x29FD JUMP JUMPDEST PUSH1 0x40 MLOAD DUP1 SWAP2 SUB SWAP1 RETURN JUMPDEST PUSH2 0x4B0 PUSH2 0x1711 JUMP JUMPDEST PUSH1 0x40 MLOAD PUSH2 0x4BD SWAP2 SWAP1 PUSH2 0x2B40 JUMP JUMPDEST PUSH1 0x40 MLOAD DUP1 SWAP2 SUB SWAP1 RETURN JUMPDEST PUSH2 0x4E0 PUSH1 0x4 DUP1 CALLDATASIZE SUB DUP2 ADD SWAP1 PUSH2 0x4DB SWAP2 SWAP1 PUSH2 0x2A73 JUMP JUMPDEST PUSH2 0x1723 JUMP JUMPDEST STOP JUMPDEST PUSH2 0x4FC PUSH1 0x4 DUP1 CALLDATASIZE SUB DUP2 ADD SWAP1 PUSH2 0x4F7 SWAP2 SWAP1 PUSH2 0x2A73 JUMP JUMPDEST PUSH2 0x17BB JUMP JUMPDEST STOP JUMPDEST PUSH2 0x518 PUSH1 0x4 DUP1 CALLDATASIZE SUB DUP2 ADD SWAP1 PUSH2 0x513 SWAP2 SWAP1 PUSH2 0x29BA JUMP JUMPDEST PUSH2 0x1853 JUMP JUMPDEST PUSH1 0x40 MLOAD PUSH2 0x525 SWAP2 SWAP1 PUSH2 0x29FD JUMP JUMPDEST PUSH1 0x40 MLOAD DUP1 SWAP2 SUB SWAP1 RETURN JUMPDEST PUSH2 0x536 PUSH2 0x1976 JUMP JUMPDEST STOP JUMPDEST PUSH2 0x540 PUSH2 0x19FD JUMP JUMPDEST PUSH1 0x40 MLOAD PUSH2 0x54D SWAP2 SWAP1 PUSH2 0x2B40 JUMP JUMPDEST PUSH1 0x40 MLOAD DUP1 SWAP2 SUB SWAP1 RETURN JUMPDEST PUSH2 0x55E PUSH2 0x1A0F JUMP JUMPDEST PUSH1 0x40 MLOAD PUSH2 0x56B SWAP2 SWAP1 PUSH2 0x29FD JUMP JUMPDEST PUSH1 0x40 MLOAD DUP1 SWAP2 SUB SWAP1 RETURN JUMPDEST PUSH2 0x57C PUSH2 0x1A15 JUMP JUMPDEST PUSH1 0x40 MLOAD PUSH2 0x589 SWAP2 SWAP1 PUSH2 0x29FD JUMP JUMPDEST PUSH1 0x40 MLOAD DUP1 SWAP2 SUB SWAP1 RETURN JUMPDEST PUSH2 0x5AC PUSH1 0x4 DUP1 CALLDATASIZE SUB DUP2 ADD SWAP1 PUSH2 0x5A7 SWAP2 SWAP1 PUSH2 0x29BA JUMP JUMPDEST PUSH2 0x1A1B JUMP JUMPDEST PUSH1 0x40 MLOAD PUSH2 0x5B9 SWAP2 SWAP1 PUSH2 0x29FD JUMP JUMPDEST PUSH1 0x40 MLOAD DUP1 SWAP2 SUB SWAP1 RETURN JUMPDEST PUSH2 0x5CA PUSH2 0x1A30 JUMP JUMPDEST PUSH1 0x40 MLOAD PUSH2 0x5D7 SWAP2 SWAP1 PUSH2 0x29FD JUMP JUMPDEST PUSH1 0x40 MLOAD DUP1 SWAP2 SUB SWAP1 RETURN JUMPDEST PUSH2 0x5FA PUSH1 0x4 DUP1 CALLDATASIZE SUB DUP2 ADD SWAP1 PUSH2 0x5F5 SWAP2 SWAP1 PUSH2 0x29BA JUMP JUMPDEST PUSH2 0x1A36 JUMP JUMPDEST PUSH1 0x40 MLOAD PUSH2 0x607 SWAP2 SWAP1 PUSH2 0x29FD JUMP JUMPDEST PUSH1 0x40 MLOAD DUP1 SWAP2 SUB SWAP1 RETURN JUMPDEST PUSH2 0x618 PUSH2 0x1A4B JUMP JUMPDEST PUSH1 0x40 MLOAD PUSH2 0x625 SWAP2 SWAP1 PUSH2 0x2B40 JUMP JUMPDEST PUSH1 0x40 MLOAD DUP1 SWAP2 SUB SWAP1 RETURN JUMPDEST PUSH2 0x636 PUSH2 0x1A5D JUMP JUMPDEST PUSH1 0x40 MLOAD PUSH2 0x643 SWAP2 SWAP1 PUSH2 0x2A25 JUMP JUMPDEST PUSH1 0x40 MLOAD DUP1 SWAP2 SUB SWAP1 RETURN JUMPDEST PUSH2 0x666 PUSH1 0x4 DUP1 CALLDATASIZE SUB DUP2 ADD SWAP1 PUSH2 0x661 SWAP2 SWAP1 PUSH2 0x2AC8 JUMP JUMPDEST PUSH2 0x1A84 JUMP JUMPDEST STOP JUMPDEST PUSH2 0x670 PUSH2 0x1B0A JUMP JUMPDEST PUSH1 0x40 MLOAD PUSH2 0x67D SWAP2 SWAP1 PUSH2 0x2A25 JUMP JUMPDEST PUSH1 0x40 MLOAD DUP1 SWAP2 SUB SWAP1 RETURN JUMPDEST PUSH2 0x68E PUSH2 0x1B2F JUMP JUMPDEST PUSH1 0x40 MLOAD PUSH2 0x69B SWAP2 SWAP1 PUSH2 0x29FD JUMP JUMPDEST PUSH1 0x40 MLOAD DUP1 SWAP2 SUB SWAP1 RETURN JUMPDEST PUSH2 0x6AC PUSH2 0x1B35 JUMP JUMPDEST PUSH1 0x40 MLOAD PUSH2 0x6B9 SWAP2 SWAP1 PUSH2 0x29FD JUMP JUMPDEST PUSH1 0x40 MLOAD DUP1 SWAP2 SUB SWAP1 RETURN JUMPDEST PUSH2 0x6DC PUSH1 0x4 DUP1 CALLDATASIZE SUB DUP2 ADD SWAP1 PUSH2 0x6D7 SWAP2 SWAP1 PUSH2 0x2AF3 JUMP JUMPDEST PUSH2 0x1B3B JUMP JUMPDEST PUSH1 0x40 MLOAD PUSH2 0x6E9 SWAP2 SWAP1 PUSH2 0x29FD JUMP JUMPDEST PUSH1 0x40 MLOAD DUP1 SWAP2 SUB SWAP1 RETURN JUMPDEST PUSH2 0x6FA PUSH2 0x1CCA JUMP JUMPDEST PUSH1 0x40 MLOAD PUSH2 0x707 SWAP2 SWAP1 PUSH2 0x29FD JUMP JUMPDEST PUSH1 0x40 MLOAD DUP1 SWAP2 SUB SWAP1 RETURN JUMPDEST PUSH2 0x72A PUSH1 0x4 DUP1 CALLDATASIZE SUB DUP2 ADD SWAP1 PUSH2 0x725 SWAP2 SWAP1 PUSH2 0x2AC8 JUMP JUMPDEST PUSH2 0x1CD0 JUMP JUMPDEST STOP JUMPDEST PUSH2 0x734 PUSH2 0x1D56 JUMP JUMPDEST PUSH1 0x40 MLOAD PUSH2 0x741 SWAP2 SWAP1 PUSH2 0x2B40 JUMP JUMPDEST PUSH1 0x40 MLOAD DUP1 SWAP2 SUB SWAP1 RETURN JUMPDEST PUSH2 0x752 PUSH2 0x1D68 JUMP JUMPDEST PUSH1 0x40 MLOAD PUSH2 0x75F SWAP2 SWAP1 PUSH2 0x29FD JUMP JUMPDEST PUSH1 0x40 MLOAD DUP1 SWAP2 SUB SWAP1 RETURN JUMPDEST PUSH2 0x770 PUSH2 0x1D6E JUMP JUMPDEST PUSH1 0x40 MLOAD PUSH2 0x77D SWAP2 SWAP1 PUSH2 0x29FD JUMP JUMPDEST PUSH1 0x40 MLOAD DUP1 SWAP2 SUB SWAP1 RETURN JUMPDEST PUSH2 0x7A0 PUSH1 0x4 DUP1 CALLDATASIZE SUB DUP2 ADD SWAP1 PUSH2 0x79B SWAP2 SWAP1 PUSH2 0x2A73 JUMP JUMPDEST PUSH2 0x1D74 JUMP JUMPDEST STOP JUMPDEST PUSH2 0x7AA PUSH2 0x1E0C JUMP JUMPDEST PUSH1 0x40 MLOAD PUSH2 0x7B7 SWAP2 SWAP1 PUSH2 0x29FD JUMP JUMPDEST PUSH1 0x40 MLOAD DUP1 SWAP2 SUB SWAP1 RETURN JUMPDEST PUSH2 0x7C8 PUSH2 0x1E12 JUMP JUMPDEST PUSH1 0x40 MLOAD PUSH2 0x7D5 SWAP2 SWAP1 PUSH2 0x29FD JUMP JUMPDEST PUSH1 0x40 MLOAD DUP1 SWAP2 SUB SWAP1 RETURN JUMPDEST PUSH2 0x7E6 PUSH2 0x1E18 JUMP JUMPDEST PUSH1 0x40 MLOAD PUSH2 0x7F3 SWAP2 SWAP1 PUSH2 0x29FD JUMP JUMPDEST PUSH1 0x40 MLOAD DUP1 SWAP2 SUB SWAP1 RETURN JUMPDEST PUSH2 0x816 PUSH1 0x4 DUP1 CALLDATASIZE SUB DUP2 ADD SWAP1 PUSH2 0x811 SWAP2 SWAP1 PUSH2 0x2A73 JUMP JUMPDEST PUSH2 0x1E1E JUMP JUMPDEST STOP JUMPDEST PUSH2 0x832 PUSH1 0x4 DUP1 CALLDATASIZE SUB DUP2 ADD SWAP1 PUSH2 0x82D SWAP2 SWAP1 PUSH2 0x29BA JUMP JUMPDEST PUSH2 0x1EB6 JUMP JUMPDEST STOP JUMPDEST PUSH2 0x83C PUSH2 0x1FAC JUMP JUMPDEST PUSH1 0x40 MLOAD PUSH2 0x849 SWAP2 SWAP1 PUSH2 0x2B40 JUMP JUMPDEST PUSH1 0x40 MLOAD DUP1 SWAP2 SUB SWAP1 RETURN JUMPDEST PUSH2 0x85A PUSH2 0x1FBE JUMP JUMPDEST PUSH1 0x40 MLOAD PUSH2 0x867 SWAP2 SWAP1 PUSH2 0x2A25 JUMP JUMPDEST PUSH1 0x40 MLOAD DUP1 SWAP2 SUB SWAP1 RETURN JUMPDEST PUSH2 0x88A PUSH1 0x4 DUP1 CALLDATASIZE SUB DUP2 ADD SWAP1 PUSH2 0x885 SWAP2 SWAP1 PUSH2 0x2B59 JUMP JUMPDEST PUSH2 0x1FE3 JUMP JUMPDEST STOP JUMPDEST PUSH1 0x6 PUSH1 0x20 MSTORE DUP1 PUSH0 MSTORE PUSH1 0x40 PUSH0 KECCAK256 PUSH0 SWAP2 POP SWAP1 POP SLOAD DUP2 JUMP JUMPDEST PUSH1 0x16 PUSH0 SWAP1 SLOAD SWAP1 PUSH2 0x100 EXP SWAP1 DIV PUSH20 0xFFFFFFFFFFFFFFFFFFFFFFFFFFFFFFFFFFFFFFFF AND DUP2 JUMP JUMPDEST PUSH1 0xE SLOAD DUP2 JUMP JUMPDEST PUSH2 0x8D4 PUSH2 0x2855 JUMP JUMPDEST PUSH20 0xFFFFFFFFFFFFFFFFFFFFFFFFFFFFFFFFFFFFFFFF AND PUSH2 0x8F2 PUSH2 0x1A5D JUMP JUMPDEST PUSH20 0xFFFFFFFFFFFFFFFFFFFFFFFFFFFFFFFFFFFFFFFF AND EQ PUSH2 0x948 JUMPI PUSH1 0x40 MLOAD PUSH32 0x8C379A000000000000000000000000000000000000000000000000000000000 DUP2 MSTORE PUSH1 0x4 ADD PUSH2 0x93F SWAP1 PUSH2 0x2BF1 JUMP JUMPDEST PUSH1 0x40 MLOAD DUP1 SWAP2 SUB SWAP1 REVERT JUMPDEST DUP1 PUSH1 0x14 PUSH0 PUSH2 0x100 EXP DUP2 SLOAD DUP2 PUSH1 0xFF MUL NOT AND SWAP1 DUP4 ISZERO ISZERO MUL OR SWAP1 SSTORE POP POP JUMP JUMPDEST PUSH2 0x96C PUSH2 0x2855 JUMP JUMPDEST PUSH20 0xFFFFFFFFFFFFFFFFFFFFFFFFFFFFFFFFFFFFFFFF AND PUSH2 0x98A PUSH2 0x1A5D JUMP JUMPDEST PUSH20 0xFFFFFFFFFFFFFFFFFFFFFFFFFFFFFFFFFFFFFFFF AND EQ PUSH2 0x9E0 JUMPI PUSH1 0x40 MLOAD PUSH32 0x8C379A000000000000000000000000000000000000000000000000000000000 DUP2 MSTORE PUSH1 0x4 ADD PUSH2 0x9D7 SWAP1 PUSH2 0x2BF1 JUMP JUMPDEST PUSH1 0x40 MLOAD DUP1 SWAP2 SUB SWAP1 REVERT JUMPDEST DUP1 PUSH1 0x19 DUP2 SWAP1 SSTORE POP POP JUMP JUMPDEST PUSH1 0x10 PUSH1 0x20 MSTORE DUP1 PUSH0 MSTORE PUSH1 0x40 PUSH0 KECCAK256 PUSH0 SWAP2 POP SWAP1 POP SLOAD DUP2 JUMP JUMPDEST PUSH1 0xB PUSH1 0x20 MSTORE DUP1 PUSH0 MSTORE PUSH1 0x40 PUSH0 KECCAK256 PUSH0 SWAP2 POP SWAP1 POP SLOAD DUP2 JUMP JUMPDEST PUSH0 CALLER SWAP1 POP PUSH0 PUSH0 SWAP1 POP PUSH0 PUSH0 SWAP1 POP PUSH1 0x1 DUP5 EQ DUP1 PUSH2 0xA2F JUMPI POP PUSH1 0x2 DUP5 EQ JUMPDEST DUP1 PUSH2 0xA3A JUMPI POP PUSH1 0x3 DUP5 EQ JUMPDEST DUP1 PUSH2 0xA45 JUMPI POP PUSH1 0x4 DUP5 EQ JUMPDEST PUSH2 0xA84 JUMPI PUSH1 0x40 MLOAD PUSH32 0x8C379A000000000000000000000000000000000000000000000000000000000 DUP2 MSTORE PUSH1 0x4 ADD PUSH2 0xA7B SWAP1 PUSH2 0x2C59 JUMP JUMPDEST PUSH1 0x40 MLOAD DUP1 SWAP2 SUB SWAP1 REVERT JUMPDEST PUSH1 0x1 DUP5 SUB PUSH2 0xCCC JUMPI PUSH0 PUSH1 0x1 PUSH0 DUP6 PUSH20 0xFFFFFFFFFFFFFFFFFFFFFFFFFFFFFFFFFFFFFFFF AND PUSH20 0xFFFFFFFFFFFFFFFFFFFFFFFFFFFFFFFFFFFFFFFF AND DUP2 MSTORE PUSH1 0x20 ADD SWAP1 DUP2 MSTORE PUSH1 0x20 ADD PUSH0 KECCAK256 SLOAD GT PUSH2 0xB0B JUMPI PUSH1 0x40 MLOAD PUSH32 0x8C379A000000000000000000000000000000000000000000000000000000000 DUP2 MSTORE PUSH1 0x4 ADD PUSH2 0xB02 SWAP1 PUSH2 0x2CE7 JUMP JUMPDEST PUSH1 0x40 MLOAD DUP1 SWAP2 SUB SWAP1 REVERT JUMPDEST PUSH1 0x1E PUSH0 SWAP1 SLOAD SWAP1 PUSH2 0x100 EXP SWAP1 DIV PUSH1 0xFF AND PUSH2 0xBB3 JUMPI TIMESTAMP PUSH2 0xB71 PUSH1 0x4 SLOAD PUSH1 0x2 PUSH0 DUP8 PUSH20 0xFFFFFFFFFFFFFFFFFFFFFFFFFFFFFFFFFFFFFFFF AND PUSH20 0xFFFFFFFFFFFFFFFFFFFFFFFFFFFFFFFFFFFFFFFF AND DUP2 MSTORE PUSH1 0x20 ADD SWAP1 DUP2 MSTORE PUSH1 0x20 ADD PUSH0 KECCAK256 SLOAD PUSH2 0x285C SWAP1 SWAP2 SWAP1 PUSH4 0xFFFFFFFF AND JUMP JUMPDEST GT ISZERO PUSH2 0xBB2 JUMPI PUSH1 0x40 MLOAD PUSH32 0x8C379A000000000000000000000000000000000000000000000000000000000 DUP2 MSTORE PUSH1 0x4 ADD PUSH2 0xBA9 SWAP1 PUSH2 0x2D75 JUMP JUMPDEST PUSH1 0x40 MLOAD DUP1 SWAP2 SUB SWAP1 REVERT JUMPDEST JUMPDEST PUSH2 0xC05 PUSH1 0x3 SLOAD PUSH1 0x1 PUSH0 DUP7 PUSH20 0xFFFFFFFFFFFFFFFFFFFFFFFFFFFFFFFFFFFFFFFF AND PUSH20 0xFFFFFFFFFFFFFFFFFFFFFFFFFFFFFFFFFFFFFFFF AND DUP2 MSTORE PUSH1 0x20 ADD SWAP1 DUP2 MSTORE PUSH1 0x20 ADD PUSH0 KECCAK256 SLOAD PUSH2 0x2871 SWAP1 SWAP2 SWAP1 PUSH4 0xFFFFFFFF AND JUMP JUMPDEST SWAP2 POP PUSH1 0x1 PUSH0 DUP5 PUSH20 0xFFFFFFFFFFFFFFFFFFFFFFFFFFFFFFFFFFFFFFFF AND PUSH20 0xFFFFFFFFFFFFFFFFFFFFFFFFFFFFFFFFFFFFFFFF AND DUP2 MSTORE PUSH1 0x20 ADD SWAP1 DUP2 MSTORE PUSH1 0x20 ADD PUSH0 KECCAK256 SLOAD SWAP1 POP PUSH0 PUSH1 0x1 PUSH0 DUP6 PUSH20 0xFFFFFFFFFFFFFFFFFFFFFFFFFFFFFFFFFFFFFFFF AND PUSH20 0xFFFFFFFFFFFFFFFFFFFFFFFFFFFFFFFFFFFFFFFF AND DUP2 MSTORE PUSH1 0x20 ADD SWAP1 DUP2 MSTORE PUSH1 0x20 ADD PUSH0 KECCAK256 DUP2 SWAP1 SSTORE POP PUSH0 PUSH1 0x2 PUSH0 DUP6 PUSH20 0xFFFFFFFFFFFFFFFFFFFFFFFFFFFFFFFFFFFFFFFF AND PUSH20 0xFFFFFFFFFFFFFFFFFFFFFFFFFFFFFFFFFFFFFFFF AND DUP2 MSTORE PUSH1 0x20 ADD SWAP1 DUP2 MSTORE PUSH1 0x20 ADD PUSH0 KECCAK256 DUP2 SWAP1 SSTORE POP JUMPDEST PUSH1 0x2 DUP5 SUB PUSH2 0xF14 JUMPI PUSH0 PUSH1 0x6 PUSH0 DUP6 PUSH20 0xFFFFFFFFFFFFFFFFFFFFFFFFFFFFFFFFFFFFFFFF AND PUSH20 0xFFFFFFFFFFFFFFFFFFFFFFFFFFFFFFFFFFFFFFFF AND DUP2 MSTORE PUSH1 0x20 ADD SWAP1 DUP2 MSTORE PUSH1 0x20 ADD PUSH0 KECCAK256 SLOAD GT PUSH2 0xD53 JUMPI PUSH1 0x40 MLOAD PUSH32 0x8C379A000000000000000000000000000000000000000000000000000000000 DUP2 MSTORE PUSH1 0x4 ADD PUSH2 0xD4A SWAP1 PUSH2 0x2CE7 JUMP JUMPDEST PUSH1 0x40 MLOAD DUP1 SWAP2 SUB SWAP1 REVERT JUMPDEST PUSH1 0x1E PUSH0 SWAP1 SLOAD SWAP1 PUSH2 0x100 EXP SWAP1 DIV PUSH1 0xFF AND PUSH2 0xDFB JUMPI TIMESTAMP PUSH2 0xDB9 PUSH1 0x9 SLOAD PUSH1 0x7 PUSH0 DUP8 PUSH20 0xFFFFFFFFFFFFFFFFFFFFFFFFFFFFFFFFFFFFFFFF AND PUSH20 0xFFFFFFFFFFFFFFFFFFFFFFFFFFFFFFFFFFFFFFFF AND DUP2 MSTORE PUSH1 0x20 ADD SWAP1 DUP2 MSTORE PUSH1 0x20 ADD PUSH0 KECCAK256 SLOAD PUSH2 0x285C SWAP1 SWAP2 SWAP1 PUSH4 0xFFFFFFFF AND JUMP JUMPDEST GT ISZERO PUSH2 0xDFA JUMPI PUSH1 0x40 MLOAD PUSH32 0x8C379A000000000000000000000000000000000000000000000000000000000 DUP2 MSTORE PUSH1 0x4 ADD PUSH2 0xDF1 SWAP1 PUSH2 0x2D75 JUMP JUMPDEST PUSH1 0x40 MLOAD DUP1 SWAP2 SUB SWAP1 REVERT JUMPDEST JUMPDEST PUSH2 0xE4D PUSH1 0x8 SLOAD PUSH1 0x6 PUSH0 DUP7 PUSH20 0xFFFFFFFFFFFFFFFFFFFFFFFFFFFFFFFFFFFFFFFF AND PUSH20 0xFFFFFFFFFFFFFFFFFFFFFFFFFFFFFFFFFFFFFFFF AND DUP2 MSTORE PUSH1 0x20 ADD SWAP1 DUP2 MSTORE PUSH1 0x20 ADD PUSH0 KECCAK256 SLOAD PUSH2 0x2871 SWAP1 SWAP2 SWAP1 PUSH4 0xFFFFFFFF AND JUMP JUMPDEST SWAP2 POP PUSH1 0x6 PUSH0 DUP5 PUSH20 0xFFFFFFFFFFFFFFFFFFFFFFFFFFFFFFFFFFFFFFFF AND PUSH20 0xFFFFFFFFFFFFFFFFFFFFFFFFFFFFFFFFFFFFFFFF AND DUP2 MSTORE PUSH1 0x20 ADD SWAP1 DUP2 MSTORE PUSH1 0x20 ADD PUSH0 KECCAK256 SLOAD SWAP1 POP PUSH0 PUSH1 0x6 PUSH0 DUP6 PUSH20 0xFFFFFFFFFFFFFFFFFFFFFFFFFFFFFFFFFFFFFFFF AND PUSH20 0xFFFFFFFFFFFFFFFFFFFFFFFFFFFFFFFFFFFFFFFF AND DUP2 MSTORE PUSH1 0x20 ADD SWAP1 DUP2 MSTORE PUSH1 0x20 ADD PUSH0 KECCAK256 DUP2 SWAP1 SSTORE POP PUSH0 PUSH1 0x7 PUSH0 DUP6 PUSH20 0xFFFFFFFFFFFFFFFFFFFFFFFFFFFFFFFFFFFFFFFF AND PUSH20 0xFFFFFFFFFFFFFFFFFFFFFFFFFFFFFFFFFFFFFFFF AND DUP2 MSTORE PUSH1 0x20 ADD SWAP1 DUP2 MSTORE PUSH1 0x20 ADD PUSH0 KECCAK256 DUP2 SWAP1 SSTORE POP JUMPDEST PUSH1 0x3 DUP5 SUB PUSH2 0x115C JUMPI PUSH0 PUSH1 0xB PUSH0 DUP6 PUSH20 0xFFFFFFFFFFFFFFFFFFFFFFFFFFFFFFFFFFFFFFFF AND PUSH20 0xFFFFFFFFFFFFFFFFFFFFFFFFFFFFFFFFFFFFFFFF AND DUP2 MSTORE PUSH1 0x20 ADD SWAP1 DUP2 MSTORE PUSH1 0x20 ADD PUSH0 KECCAK256 SLOAD GT PUSH2 0xF9B JUMPI PUSH1 0x40 MLOAD PUSH32 0x8C379A000000000000000000000000000000000000000000000000000000000 DUP2 MSTORE PUSH1 0x4 ADD PUSH2 0xF92 SWAP1 PUSH2 0x2CE7 JUMP JUMPDEST PUSH1 0x40 MLOAD DUP1 SWAP2 SUB SWAP1 REVERT JUMPDEST PUSH1 0x1E PUSH0 SWAP1 SLOAD SWAP1 PUSH2 0x100 EXP SWAP1 DIV PUSH1 0xFF AND PUSH2 0x1043 JUMPI TIMESTAMP PUSH2 0x1001 PUSH1 0xE SLOAD PUSH1 0xC PUSH0 DUP8 PUSH20 0xFFFFFFFFFFFFFFFFFFFFFFFFFFFFFFFFFFFFFFFF AND PUSH20 0xFFFFFFFFFFFFFFFFFFFFFFFFFFFFFFFFFFFFFFFF AND DUP2 MSTORE PUSH1 0x20 ADD SWAP1 DUP2 MSTORE PUSH1 0x20 ADD PUSH0 KECCAK256 SLOAD PUSH2 0x285C SWAP1 SWAP2 SWAP1 PUSH4 0xFFFFFFFF AND JUMP JUMPDEST GT ISZERO PUSH2 0x1042 JUMPI PUSH1 0x40 MLOAD PUSH32 0x8C379A000000000000000000000000000000000000000000000000000000000 DUP2 MSTORE PUSH1 0x4 ADD PUSH2 0x1039 SWAP1 PUSH2 0x2D75 JUMP JUMPDEST PUSH1 0x40 MLOAD DUP1 SWAP2 SUB SWAP1 REVERT JUMPDEST JUMPDEST PUSH2 0x1095 PUSH1 0xD SLOAD PUSH1 0xB PUSH0 DUP7 PUSH20 0xFFFFFFFFFFFFFFFFFFFFFFFFFFFFFFFFFFFFFFFF AND PUSH20 0xFFFFFFFFFFFFFFFFFFFFFFFFFFFFFFFFFFFFFFFF AND DUP2 MSTORE PUSH1 0x20 ADD SWAP1 DUP2 MSTORE PUSH1 0x20 ADD PUSH0 KECCAK256 SLOAD PUSH2 0x2871 SWAP1 SWAP2 SWAP1 PUSH4 0xFFFFFFFF AND JUMP JUMPDEST SWAP2 POP PUSH1 0xB PUSH0 DUP5 PUSH20 0xFFFFFFFFFFFFFFFFFFFFFFFFFFFFFFFFFFFFFFFF AND PUSH20 0xFFFFFFFFFFFFFFFFFFFFFFFFFFFFFFFFFFFFFFFF AND DUP2 MSTORE PUSH1 0x20 ADD SWAP1 DUP2 MSTORE PUSH1 0x20 ADD PUSH0 KECCAK256 SLOAD SWAP1 POP PUSH0 PUSH1 0xB PUSH0 DUP6 PUSH20 0xFFFFFFFFFFFFFFFFFFFFFFFFFFFFFFFFFFFFFFFF AND PUSH20 0xFFFFFFFFFFFFFFFFFFFFFFFFFFFFFFFFFFFFFFFF AND DUP2 MSTORE PUSH1 0x20 ADD SWAP1 DUP2 MSTORE PUSH1 0x20 ADD PUSH0 KECCAK256 DUP2 SWAP1 SSTORE POP PUSH0 PUSH1 0xC PUSH0 DUP6 PUSH20 0xFFFFFFFFFFFFFFFFFFFFFFFFFFFFFFFFFFFFFFFF AND PUSH20 0xFFFFFFFFFFFFFFFFFFFFFFFFFFFFFFFFFFFFFFFF AND DUP2 MSTORE PUSH1 0x20 ADD SWAP1 DUP2 MSTORE PUSH1 0x20 ADD PUSH0 KECCAK256 DUP2 SWAP1 SSTORE POP JUMPDEST PUSH1 0x4 DUP5 SUB PUSH2 0x13A4 JUMPI PUSH0 PUSH1 0x10 PUSH0 DUP6 PUSH20 0xFFFFFFFFFFFFFFFFFFFFFFFFFFFFFFFFFFFFFFFF AND PUSH20 0xFFFFFFFFFFFFFFFFFFFFFFFFFFFFFFFFFFFFFFFF AND DUP2 MSTORE PUSH1 0x20 ADD SWAP1 DUP2 MSTORE PUSH1 0x20 ADD PUSH0 KECCAK256 SLOAD GT PUSH2 0x11E3 JUMPI PUSH1 0x40 MLOAD PUSH32 0x8C379A000000000000000000000000000000000000000000000000000000000 DUP2 MSTORE PUSH1 0x4 ADD PUSH2 0x11DA SWAP1 PUSH2 0x2CE7 JUMP JUMPDEST PUSH1 0x40 MLOAD DUP1 SWAP2 SUB SWAP1 REVERT JUMPDEST PUSH1 0x1E PUSH0 SWAP1 SLOAD SWAP1 PUSH2 0x100 EXP SWAP1 DIV PUSH1 0xFF AND PUSH2 0x128B JUMPI TIMESTAMP PUSH2 0x1249 PUSH1 0x13 SLOAD PUSH1 0x11 PUSH0 DUP8 PUSH20 0xFFFFFFFFFFFFFFFFFFFFFFFFFFFFFFFFFFFFFFFF AND PUSH20 0xFFFFFFFFFFFFFFFFFFFFFFFFFFFFFFFFFFFFFFFF AND DUP2 MSTORE PUSH1 0x20 ADD SWAP1 DUP2 MSTORE PUSH1 0x20 ADD PUSH0 KECCAK256 SLOAD PUSH2 0x285C SWAP1 SWAP2 SWAP1 PUSH4 0xFFFFFFFF AND JUMP JUMPDEST GT ISZERO PUSH2 0x128A JUMPI PUSH1 0x40 MLOAD PUSH32 0x8C379A000000000000000000000000000000000000000000000000000000000 DUP2 MSTORE PUSH1 0x4 ADD PUSH2 0x1281 SWAP1 PUSH2 0x2D75 JUMP JUMPDEST PUSH1 0x40 MLOAD DUP1 SWAP2 SUB SWAP1 REVERT JUMPDEST JUMPDEST PUSH2 0x12DD PUSH1 0x12 SLOAD PUSH1 0x10 PUSH0 DUP7 PUSH20 0xFFFFFFFFFFFFFFFFFFFFFFFFFFFFFFFFFFFFFFFF AND PUSH20 0xFFFFFFFFFFFFFFFFFFFFFFFFFFFFFFFFFFFFFFFF AND DUP2 MSTORE PUSH1 0x20 ADD SWAP1 DUP2 MSTORE PUSH1 0x20 ADD PUSH0 KECCAK256 SLOAD PUSH2 0x2871 SWAP1 SWAP2 SWAP1 PUSH4 0xFFFFFFFF AND JUMP JUMPDEST SWAP2 POP PUSH1 0x10 PUSH0 DUP5 PUSH20 0xFFFFFFFFFFFFFFFFFFFFFFFFFFFFFFFFFFFFFFFF AND PUSH20 0xFFFFFFFFFFFFFFFFFFFFFFFFFFFFFFFFFFFFFFFF AND DUP2 MSTORE PUSH1 0x20 ADD SWAP1 DUP2 MSTORE PUSH1 0x20 ADD PUSH0 KECCAK256 SLOAD SWAP1 POP PUSH0 PUSH1 0x10 PUSH0 DUP6 PUSH20 0xFFFFFFFFFFFFFFFFFFFFFFFFFFFFFFFFFFFFFFFF AND PUSH20 0xFFFFFFFFFFFFFFFFFFFFFFFFFFFFFFFFFFFFFFFF AND DUP2 MSTORE PUSH1 0x20 ADD SWAP1 DUP2 MSTORE PUSH1 0x20 ADD PUSH0 KECCAK256 DUP2 SWAP1 SSTORE POP PUSH0 PUSH1 0x11 PUSH0 DUP6 PUSH20 0xFFFFFFFFFFFFFFFFFFFFFFFFFFFFFFFFFFFFFFFF AND PUSH20 0xFFFFFFFFFFFFFFFFFFFFFFFFFFFFFFFFFFFFFFFF AND DUP2 MSTORE PUSH1 0x20 ADD SWAP1 DUP2 MSTORE PUSH1 0x20 ADD PUSH0 KECCAK256 DUP2 SWAP1 SSTORE POP JUMPDEST PUSH1 0x1E PUSH0 SWAP1 SLOAD SWAP1 PUSH2 0x100 EXP SWAP1 DIV PUSH1 0xFF AND PUSH2 0x13EE JUMPI PUSH2 0x13CC DUP3 PUSH1 0x1B SLOAD PUSH2 0x285C SWAP1 SWAP2 SWAP1 PUSH4 0xFFFFFFFF AND JUMP JUMPDEST PUSH1 0x1B DUP2 SWAP1 SSTORE POP PUSH2 0x13E7 DUP3 PUSH1 0x1A SLOAD PUSH2 0x2886 SWAP1 SWAP2 SWAP1 PUSH4 0xFFFFFFFF AND JUMP JUMPDEST PUSH1 0x1A DUP2 SWAP1 SSTORE POP JUMPDEST PUSH2 0x1403 DUP2 PUSH1 0x1C SLOAD PUSH2 0x2886 SWAP1 SWAP2 SWAP1 PUSH4 0xFFFFFFFF AND JUMP JUMPDEST PUSH1 0x1C DUP2 SWAP1 SSTORE POP PUSH0 PUSH1 0x18 PUSH0 SWAP1 SLOAD SWAP1 PUSH2 0x100 EXP SWAP1 DIV PUSH20 0xFFFFFFFFFFFFFFFFFFFFFFFFFFFFFFFFFFFFFFFF AND SWAP1 POP DUP1 PUSH20 0xFFFFFFFFFFFFFFFFFFFFFFFFFFFFFFFFFFFFFFFF AND PUSH4 0x23B872DD PUSH1 0x16 PUSH0 SWAP1 SLOAD SWAP1 PUSH2 0x100 EXP SWAP1 DIV PUSH20 0xFFFFFFFFFFFFFFFFFFFFFFFFFFFFFFFFFFFFFFFF AND DUP7 DUP6 PUSH1 0x40 MLOAD DUP5 PUSH4 0xFFFFFFFF AND PUSH1 0xE0 SHL DUP2 MSTORE PUSH1 0x4 ADD PUSH2 0x148C SWAP4 SWAP3 SWAP2 SWAP1 PUSH2 0x2D93 JUMP JUMPDEST PUSH1 0x20 PUSH1 0x40 MLOAD DUP1 DUP4 SUB DUP2 PUSH0 DUP8 GAS CALL ISZERO DUP1 ISZERO PUSH2 0x14A8 JUMPI RETURNDATASIZE PUSH0 PUSH0 RETURNDATACOPY RETURNDATASIZE PUSH0 REVERT JUMPDEST POP POP POP POP PUSH1 0x40 MLOAD RETURNDATASIZE PUSH1 0x1F NOT PUSH1 0x1F DUP3 ADD AND DUP3 ADD DUP1 PUSH1 0x40 MSTORE POP DUP2 ADD SWAP1 PUSH2 0x14CC SWAP2 SWAP1 PUSH2 0x2DDC JUMP JUMPDEST POP PUSH1 0x1E PUSH0 SWAP1 SLOAD SWAP1 PUSH2 0x100 EXP SWAP1 DIV PUSH1 0xFF AND PUSH2 0x1580 JUMPI DUP1 PUSH20 0xFFFFFFFFFFFFFFFFFFFFFFFFFFFFFFFFFFFFFFFF AND PUSH4 0x23B872DD PUSH1 0x17 PUSH0 SWAP1 SLOAD SWAP1 PUSH2 0x100 EXP SWAP1 DIV PUSH20 0xFFFFFFFFFFFFFFFFFFFFFFFFFFFFFFFFFFFFFFFF AND DUP7 DUP7 PUSH1 0x40 MLOAD DUP5 PUSH4 0xFFFFFFFF AND PUSH1 0xE0 SHL DUP2 MSTORE PUSH1 0x4 ADD PUSH2 0x153E SWAP4 SWAP3 SWAP2 SWAP1 PUSH2 0x2D93 JUMP JUMPDEST PUSH1 0x20 PUSH1 0x40 MLOAD DUP1 DUP4 SUB DUP2 PUSH0 DUP8 GAS CALL ISZERO DUP1 ISZERO PUSH2 0x155A JUMPI RETURNDATASIZE PUSH0 PUSH0 RETURNDATACOPY RETURNDATASIZE PUSH0 REVERT JUMPDEST POP POP POP POP PUSH1 0x40 MLOAD RETURNDATASIZE PUSH1 0x1F NOT PUSH1 0x1F DUP3 ADD AND DUP3 ADD DUP1 PUSH1 0x40 MSTORE POP DUP2 ADD SWAP1 PUSH2 0x157E SWAP2 SWAP1 PUSH2 0x2DDC JUMP JUMPDEST POP JUMPDEST POP POP POP POP POP JUMP JUMPDEST PUSH1 0x19 SLOAD DUP2 JUMP JUMPDEST PUSH1 0x11 PUSH1 0x20 MSTORE DUP1 PUSH0 MSTORE PUSH1 0x40 PUSH0 KECCAK256 PUSH0 SWAP2 POP SWAP1 POP SLOAD DUP2 JUMP JUMPDEST PUSH1 0x1 PUSH1 0x20 MSTORE DUP1 PUSH0 MSTORE PUSH1 0x40 PUSH0 KECCAK256 PUSH0 SWAP2 POP SWAP1 POP SLOAD DUP2 JUMP JUMPDEST PUSH1 0x4 SLOAD DUP2 JUMP JUMPDEST PUSH0 PUSH1 0x1 DUP3 SUB PUSH2 0x160B JUMPI PUSH1 0x1 PUSH0 DUP5 PUSH20 0xFFFFFFFFFFFFFFFFFFFFFFFFFFFFFFFFFFFFFFFF AND PUSH20 0xFFFFFFFFFFFFFFFFFFFFFFFFFFFFFFFFFFFFFFFF AND DUP2 MSTORE PUSH1 0x20 ADD SWAP1 DUP2 MSTORE PUSH1 0x20 ADD PUSH0 KECCAK256 SLOAD SWAP1 POP PUSH2 0x16F6 JUMP JUMPDEST PUSH1 0x2 DUP3 SUB PUSH2 0x1658 JUMPI PUSH1 0x6 PUSH0 DUP5 PUSH20 0xFFFFFFFFFFFFFFFFFFFFFFFFFFFFFFFFFFFFFFFF AND PUSH20 0xFFFFFFFFFFFFFFFFFFFFFFFFFFFFFFFFFFFFFFFF AND DUP2 MSTORE PUSH1 0x20 ADD SWAP1 DUP2 MSTORE PUSH1 0x20 ADD PUSH0 KECCAK256 SLOAD SWAP1 POP PUSH2 0x16F6 JUMP JUMPDEST PUSH1 0x3 DUP3 SUB PUSH2 0x16A5 JUMPI PUSH1 0xB PUSH0 DUP5 PUSH20 0xFFFFFFFFFFFFFFFFFFFFFFFFFFFFFFFFFFFFFFFF AND PUSH20 0xFFFFFFFFFFFFFFFFFFFFFFFFFFFFFFFFFFFFFFFF AND DUP2 MSTORE PUSH1 0x20 ADD SWAP1 DUP2 MSTORE PUSH1 0x20 ADD PUSH0 KECCAK256 SLOAD SWAP1 POP PUSH2 0x16F6 JUMP JUMPDEST PUSH1 0x4 DUP3 SUB PUSH2 0x16F2 JUMPI PUSH1 0x10 PUSH0 DUP5 PUSH20 0xFFFFFFFFFFFFFFFFFFFFFFFFFFFFFFFFFFFFFFFF AND PUSH20 0xFFFFFFFFFFFFFFFFFFFFFFFFFFFFFFFFFFFFFFFF AND DUP2 MSTORE PUSH1 0x20 ADD SWAP1 DUP2 MSTORE PUSH1 0x20 ADD PUSH0 KECCAK256 SLOAD SWAP1 POP PUSH2 0x16F6 JUMP JUMPDEST PUSH0 SWAP1 POP JUMPDEST SWAP3 SWAP2 POP POP JUMP JUMPDEST PUSH1 0x2 PUSH1 0x20 MSTORE DUP1 PUSH0 MSTORE PUSH1 0x40 PUSH0 KECCAK256 PUSH0 SWAP2 POP SWAP1 POP SLOAD DUP2 JUMP JUMPDEST PUSH1 0x14 PUSH0 SWAP1 SLOAD SWAP1 PUSH2 0x100 EXP SWAP1 DIV PUSH1 0xFF AND DUP2 JUMP JUMPDEST PUSH2 0x172B PUSH2 0x2855 JUMP JUMPDEST PUSH20 0xFFFFFFFFFFFFFFFFFFFFFFFFFFFFFFFFFFFFFFFF AND PUSH2 0x1749 PUSH2 0x1A5D JUMP JUMPDEST PUSH20 0xFFFFFFFFFFFFFFFFFFFFFFFFFFFFFFFFFFFFFFFF AND EQ PUSH2 0x179F JUMPI PUSH1 0x40 MLOAD PUSH32 0x8C379A000000000000000000000000000000000000000000000000000000000 DUP2 MSTORE PUSH1 0x4 ADD PUSH2 0x1796 SWAP1 PUSH2 0x2BF1 JUMP JUMPDEST PUSH1 0x40 MLOAD DUP1 SWAP2 SUB SWAP1 REVERT JUMPDEST DUP1 PUSH1 0xA PUSH0 PUSH2 0x100 EXP DUP2 SLOAD DUP2 PUSH1 0xFF MUL NOT AND SWAP1 DUP4 ISZERO ISZERO MUL OR SWAP1 SSTORE POP POP JUMP JUMPDEST PUSH2 0x17C3 PUSH2 0x2855 JUMP JUMPDEST PUSH20 0xFFFFFFFFFFFFFFFFFFFFFFFFFFFFFFFFFFFFFFFF AND PUSH2 0x17E1 PUSH2 0x1A5D JUMP JUMPDEST PUSH20 0xFFFFFFFFFFFFFFFFFFFFFFFFFFFFFFFFFFFFFFFF AND EQ PUSH2 0x1837 JUMPI PUSH1 0x40 MLOAD PUSH32 0x8C379A000000000000000000000000000000000000000000000000000000000 DUP2 MSTORE PUSH1 0x4 ADD PUSH2 0x182E SWAP1 PUSH2 0x2BF1 JUMP JUMPDEST PUSH1 0x40 MLOAD DUP1 SWAP2 SUB SWAP1 REVERT JUMPDEST DUP1 PUSH1 0x5 PUSH0 PUSH2 0x100 EXP DUP2 SLOAD DUP2 PUSH1 0xFF MUL NOT AND SWAP1 DUP4 ISZERO ISZERO MUL OR SWAP1 SSTORE POP POP JUMP JUMPDEST PUSH0 PUSH0 PUSH1 0x10 PUSH0 DUP5 PUSH20 0xFFFFFFFFFFFFFFFFFFFFFFFFFFFFFFFFFFFFFFFF AND PUSH20 0xFFFFFFFFFFFFFFFFFFFFFFFFFFFFFFFFFFFFFFFF AND DUP2 MSTORE PUSH1 0x20 ADD SWAP1 DUP2 MSTORE PUSH1 0x20 ADD PUSH0 KECCAK256 SLOAD PUSH1 0xB PUSH0 DUP6 PUSH20 0xFFFFFFFFFFFFFFFFFFFFFFFFFFFFFFFFFFFFFFFF AND PUSH20 0xFFFFFFFFFFFFFFFFFFFFFFFFFFFFFFFFFFFFFFFF AND DUP2 MSTORE PUSH1 0x20 ADD SWAP1 DUP2 MSTORE PUSH1 0x20 ADD PUSH0 KECCAK256 SLOAD PUSH1 0x6 PUSH0 DUP7 PUSH20 0xFFFFFFFFFFFFFFFFFFFFFFFFFFFFFFFFFFFFFFFF AND PUSH20 0xFFFFFFFFFFFFFFFFFFFFFFFFFFFFFFFFFFFFFFFF AND DUP2 MSTORE PUSH1 0x20 ADD SWAP1 DUP2 MSTORE PUSH1 0x20 ADD PUSH0 KECCAK256 SLOAD PUSH1 0x1 PUSH0 DUP8 PUSH20 0xFFFFFFFFFFFFFFFFFFFFFFFFFFFFFFFFFFFFFFFF AND PUSH20 0xFFFFFFFFFFFFFFFFFFFFFFFFFFFFFFFFFFFFFFFF AND DUP2 MSTORE PUSH1 0x20 ADD SWAP1 DUP2 MSTORE PUSH1 0x20 ADD PUSH0 KECCAK256 SLOAD PUSH2 0x1957 SWAP2 SWAP1 PUSH2 0x2E34 JUMP JUMPDEST PUSH2 0x1961 SWAP2 SWAP1 PUSH2 0x2E34 JUMP JUMPDEST PUSH2 0x196B SWAP2 SWAP1 PUSH2 0x2E34 JUMP JUMPDEST SWAP1 POP DUP1 SWAP2 POP POP SWAP2 SWAP1 POP JUMP JUMPDEST PUSH2 0x197E PUSH2 0x2855 JUMP JUMPDEST PUSH20 0xFFFFFFFFFFFFFFFFFFFFFFFFFFFFFFFFFFFFFFFF AND PUSH2 0x199C PUSH2 0x1A5D JUMP JUMPDEST PUSH20 0xFFFFFFFFFFFFFFFFFFFFFFFFFFFFFFFFFFFFFFFF AND EQ PUSH2 0x19F2 JUMPI PUSH1 0x40 MLOAD PUSH32 0x8C379A000000000000000000000000000000000000000000000000000000000 DUP2 MSTORE PUSH1 0x4 ADD PUSH2 0x19E9 SWAP1 PUSH2 0x2BF1 JUMP JUMPDEST PUSH1 0x40 MLOAD DUP1 SWAP2 SUB SWAP1 REVERT JUMPDEST PUSH2 0x19FB PUSH0 PUSH2 0x289B JUMP JUMPDEST JUMP JUMPDEST PUSH1 0xA PUSH0 SWAP1 SLOAD SWAP1 PUSH2 0x100 EXP SWAP1 DIV PUSH1 0xFF AND DUP2 JUMP JUMPDEST PUSH1 0x1B SLOAD DUP2 JUMP JUMPDEST PUSH1 0x13 SLOAD DUP2 JUMP JUMPDEST PUSH1 0x7 PUSH1 0x20 MSTORE DUP1 PUSH0 MSTORE PUSH1 0x40 PUSH0 KECCAK256 PUSH0 SWAP2 POP SWAP1 POP SLOAD DUP2 JUMP JUMPDEST PUSH1 0x1C SLOAD DUP2 JUMP JUMPDEST PUSH1 0xC PUSH1 0x20 MSTORE DUP1 PUSH0 MSTORE PUSH1 0x40 PUSH0 KECCAK256 PUSH0 SWAP2 POP SWAP1 POP SLOAD DUP2 JUMP JUMPDEST PUSH1 0x5 PUSH0 SWAP1 SLOAD SWAP1 PUSH2 0x100 EXP SWAP1 DIV PUSH1 0xFF AND DUP2 JUMP JUMPDEST PUSH0 PUSH0 PUSH0 SWAP1 SLOAD SWAP1 PUSH2 0x100 EXP SWAP1 DIV PUSH20 0xFFFFFFFFFFFFFFFFFFFFFFFFFFFFFFFFFFFFFFFF AND SWAP1 POP SWAP1 JUMP JUMPDEST PUSH2 0x1A8C PUSH2 0x2855 JUMP JUMPDEST PUSH20 0xFFFFFFFFFFFFFFFFFFFFFFFFFFFFFFFFFFFFFFFF AND PUSH2 0x1AAA PUSH2 0x1A5D JUMP JUMPDEST PUSH20 0xFFFFFFFFFFFFFFFFFFFFFFFFFFFFFFFFFFFFFFFF AND EQ PUSH2 0x1B00 JUMPI PUSH1 0x40 MLOAD PUSH32 0x8C379A000000000000000000000000000000000000000000000000000000000 DUP2 MSTORE PUSH1 0x4 ADD PUSH2 0x1AF7 SWAP1 PUSH2 0x2BF1 JUMP JUMPDEST PUSH1 0x40 MLOAD DUP1 SWAP2 SUB SWAP1 REVERT JUMPDEST DUP1 PUSH1 0x1D DUP2 SWAP1 SSTORE POP POP JUMP JUMPDEST PUSH1 0x18 PUSH0 SWAP1 SLOAD SWAP1 PUSH2 0x100 EXP SWAP1 DIV PUSH20 0xFFFFFFFFFFFFFFFFFFFFFFFFFFFFFFFFFFFFFFFF AND DUP2 JUMP JUMPDEST PUSH1 0xD SLOAD DUP2 JUMP JUMPDEST PUSH1 0x1A SLOAD DUP2 JUMP JUMPDEST PUSH0 PUSH1 0x1 DUP3 SUB PUSH2 0x1B9D JUMPI PUSH2 0x1B96 PUSH1 0x4 SLOAD PUSH1 0x2 PUSH0 DUP7 PUSH20 0xFFFFFFFFFFFFFFFFFFFFFFFFFFFFFFFFFFFFFFFF AND PUSH20 0xFFFFFFFFFFFFFFFFFFFFFFFFFFFFFFFFFFFFFFFF AND DUP2 MSTORE PUSH1 0x20 ADD SWAP1 DUP2 MSTORE PUSH1 0x20 ADD PUSH0 KECCAK256 SLOAD PUSH2 0x285C SWAP1 SWAP2 SWAP1 PUSH4 0xFFFFFFFF AND JUMP JUMPDEST SWAP1 POP PUSH2 0x1CC4 JUMP JUMPDEST PUSH1 0x2 DUP3 SUB PUSH2 0x1BFE JUMPI PUSH2 0x1BF7 PUSH1 0x9 SLOAD PUSH1 0x7 PUSH0 DUP7 PUSH20 0xFFFFFFFFFFFFFFFFFFFFFFFFFFFFFFFFFFFFFFFF AND PUSH20 0xFFFFFFFFFFFFFFFFFFFFFFFFFFFFFFFFFFFFFFFF AND DUP2 MSTORE PUSH1 0x20 ADD SWAP1 DUP2 MSTORE PUSH1 0x20 ADD PUSH0 KECCAK256 SLOAD PUSH2 0x285C SWAP1 SWAP2 SWAP1 PUSH4 0xFFFFFFFF AND JUMP JUMPDEST SWAP1 POP PUSH2 0x1CC4 JUMP JUMPDEST PUSH1 0x3 DUP3 SUB PUSH2 0x1C5F JUMPI PUSH2 0x1C58 PUSH1 0xE SLOAD PUSH1 0xC PUSH0 DUP7 PUSH20 0xFFFFFFFFFFFFFFFFFFFFFFFFFFFFFFFFFFFFFFFF AND PUSH20 0xFFFFFFFFFFFFFFFFFFFFFFFFFFFFFFFFFFFFFFFF AND DUP2 MSTORE PUSH1 0x20 ADD SWAP1 DUP2 MSTORE PUSH1 0x20 ADD PUSH0 KECCAK256 SLOAD PUSH2 0x285C SWAP1 SWAP2 SWAP1 PUSH4 0xFFFFFFFF AND JUMP JUMPDEST SWAP1 POP PUSH2 0x1CC4 JUMP JUMPDEST PUSH1 0x4 DUP3 SUB PUSH2 0x1CC0 JUMPI PUSH2 0x1CB9 PUSH1 0x13 SLOAD PUSH1 0x11 PUSH0 DUP7 PUSH20 0xFFFFFFFFFFFFFFFFFFFFFFFFFFFFFFFFFFFFFFFF AND PUSH20 0xFFFFFFFFFFFFFFFFFFFFFFFFFFFFFFFFFFFFFFFF AND DUP2 MSTORE PUSH1 0x20 ADD SWAP1 DUP2 MSTORE PUSH1 0x20 ADD PUSH0 KECCAK256 SLOAD PUSH2 0x285C SWAP1 SWAP2 SWAP1 PUSH4 0xFFFFFFFF AND JUMP JUMPDEST SWAP1 POP PUSH2 0x1CC4 JUMP JUMPDEST PUSH0 SWAP1 POP JUMPDEST SWAP3 SWAP2 POP POP JUMP JUMPDEST PUSH1 0x12 SLOAD DUP2 JUMP JUMPDEST PUSH2 0x1CD8 PUSH2 0x2855 JUMP JUMPDEST PUSH20 0xFFFFFFFFFFFFFFFFFFFFFFFFFFFFFFFFFFFFFFFF AND PUSH2 0x1CF6 PUSH2 0x1A5D JUMP JUMPDEST PUSH20 0xFFFFFFFFFFFFFFFFFFFFFFFFFFFFFFFFFFFFFFFF AND EQ PUSH2 0x1D4C JUMPI PUSH1 0x40 MLOAD PUSH32 0x8C379A000000000000000000000000000000000000000000000000000000000 DUP2 MSTORE PUSH1 0x4 ADD PUSH2 0x1D43 SWAP1 PUSH2 0x2BF1 JUMP JUMPDEST PUSH1 0x40 MLOAD DUP1 SWAP2 SUB SWAP1 REVERT JUMPDEST DUP1 PUSH1 0x15 DUP2 SWAP1 SSTORE POP POP JUMP JUMPDEST PUSH1 0xF PUSH0 SWAP1 SLOAD SWAP1 PUSH2 0x100 EXP SWAP1 DIV PUSH1 0xFF AND DUP2 JUMP JUMPDEST PUSH1 0x1D SLOAD DUP2 JUMP JUMPDEST PUSH1 0x9 SLOAD DUP2 JUMP JUMPDEST PUSH2 0x1D7C PUSH2 0x2855 JUMP JUMPDEST PUSH20 0xFFFFFFFFFFFFFFFFFFFFFFFFFFFFFFFFFFFFFFFF AND PUSH2 0x1D9A PUSH2 0x1A5D JUMP JUMPDEST PUSH20 0xFFFFFFFFFFFFFFFFFFFFFFFFFFFFFFFFFFFFFFFF AND EQ PUSH2 0x1DF0 JUMPI PUSH1 0x40 MLOAD PUSH32 0x8C379A000000000000000000000000000000000000000000000000000000000 DUP2 MSTORE PUSH1 0x4 ADD PUSH2 0x1DE7 SWAP1 PUSH2 0x2BF1 JUMP JUMPDEST PUSH1 0x40 MLOAD DUP1 SWAP2 SUB SWAP1 REVERT JUMPDEST DUP1 PUSH1 0xF PUSH0 PUSH2 0x100 EXP DUP2 SLOAD DUP2 PUSH1 0xFF MUL NOT AND SWAP1 DUP4 ISZERO ISZERO MUL OR SWAP1 SSTORE POP POP JUMP JUMPDEST PUSH1 0x8 SLOAD DUP2 JUMP JUMPDEST PUSH1 0x3 SLOAD DUP2 JUMP JUMPDEST PUSH1 0x15 SLOAD DUP2 JUMP JUMPDEST PUSH2 0x1E26 PUSH2 0x2855 JUMP JUMPDEST PUSH20 0xFFFFFFFFFFFFFFFFFFFFFFFFFFFFFFFFFFFFFFFF AND PUSH2 0x1E44 PUSH2 0x1A5D JUMP JUMPDEST PUSH20 0xFFFFFFFFFFFFFFFFFFFFFFFFFFFFFFFFFFFFFFFF AND EQ PUSH2 0x1E9A JUMPI PUSH1 0x40 MLOAD PUSH32 0x8C379A000000000000000000000000000000000000000000000000000000000 DUP2 MSTORE PUSH1 0x4 ADD PUSH2 0x1E91 SWAP1 PUSH2 0x2BF1 JUMP JUMPDEST PUSH1 0x40 MLOAD DUP1 SWAP2 SUB SWAP1 REVERT JUMPDEST DUP1 PUSH1 0x1E PUSH0 PUSH2 0x100 EXP DUP2 SLOAD DUP2 PUSH1 0xFF MUL NOT AND SWAP1 DUP4 ISZERO ISZERO MUL OR SWAP1 SSTORE POP POP JUMP JUMPDEST PUSH2 0x1EBE PUSH2 0x2855 JUMP JUMPDEST PUSH20 0xFFFFFFFFFFFFFFFFFFFFFFFFFFFFFFFFFFFFFFFF AND PUSH2 0x1EDC PUSH2 0x1A5D JUMP JUMPDEST PUSH20 0xFFFFFFFFFFFFFFFFFFFFFFFFFFFFFFFFFFFFFFFF AND EQ PUSH2 0x1F32 JUMPI PUSH1 0x40 MLOAD PUSH32 0x8C379A000000000000000000000000000000000000000000000000000000000 DUP2 MSTORE PUSH1 0x4 ADD PUSH2 0x1F29 SWAP1 PUSH2 0x2BF1 JUMP JUMPDEST PUSH1 0x40 MLOAD DUP1 SWAP2 SUB SWAP1 REVERT JUMPDEST PUSH0 PUSH20 0xFFFFFFFFFFFFFFFFFFFFFFFFFFFFFFFFFFFFFFFF AND DUP2 PUSH20 0xFFFFFFFFFFFFFFFFFFFFFFFFFFFFFFFFFFFFFFFF AND SUB PUSH2 0x1FA0 JUMPI PUSH1 0x40 MLOAD PUSH32 0x8C379A000000000000000000000000000000000000000000000000000000000 DUP2 MSTORE PUSH1 0x4 ADD PUSH2 0x1F97 SWAP1 PUSH2 0x2ED7 JUMP JUMPDEST PUSH1 0x40 MLOAD DUP1 SWAP2 SUB SWAP1 REVERT JUMPDEST PUSH2 0x1FA9 DUP2 PUSH2 0x289B JUMP JUMPDEST POP JUMP JUMPDEST PUSH1 0x1E PUSH0 SWAP1 SLOAD SWAP1 PUSH2 0x100 EXP SWAP1 DIV PUSH1 0xFF AND DUP2 JUMP JUMPDEST PUSH1 0x17 PUSH0 SWAP1 SLOAD SWAP1 PUSH2 0x100 EXP SWAP1 DIV PUSH20 0xFFFFFFFFFFFFFFFFFFFFFFFFFFFFFFFFFFFFFFFF AND DUP2 JUMP JUMPDEST PUSH0 CALLER SWAP1 POP PUSH0 PUSH0 SWAP1 POP PUSH1 0x1B SLOAD PUSH1 0x1D SLOAD LT ISZERO PUSH2 0x2032 JUMPI PUSH1 0x40 MLOAD PUSH32 0x8C379A000000000000000000000000000000000000000000000000000000000 DUP2 MSTORE PUSH1 0x4 ADD PUSH2 0x2029 SWAP1 PUSH2 0x2F65 JUMP JUMPDEST PUSH1 0x40 MLOAD DUP1 SWAP2 SUB SWAP1 REVERT JUMPDEST PUSH1 0x1 DUP4 EQ DUP1 PUSH2 0x2041 JUMPI POP PUSH1 0x2 DUP4 EQ JUMPDEST DUP1 PUSH2 0x204C JUMPI POP PUSH1 0x3 DUP4 EQ JUMPDEST DUP1 PUSH2 0x2057 JUMPI POP PUSH1 0x4 DUP4 EQ JUMPDEST PUSH2 0x2096 JUMPI PUSH1 0x40 MLOAD PUSH32 0x8C379A000000000000000000000000000000000000000000000000000000000 DUP2 MSTORE PUSH1 0x4 ADD PUSH2 0x208D SWAP1 PUSH2 0x2C59 JUMP JUMPDEST PUSH1 0x40 MLOAD DUP1 SWAP2 SUB SWAP1 REVERT JUMPDEST PUSH1 0x19 SLOAD DUP5 LT ISZERO PUSH2 0x20DB JUMPI PUSH1 0x40 MLOAD PUSH32 0x8C379A000000000000000000000000000000000000000000000000000000000 DUP2 MSTORE PUSH1 0x4 ADD PUSH2 0x20D2 SWAP1 PUSH2 0x2FCD JUMP JUMPDEST PUSH1 0x40 MLOAD DUP1 SWAP2 SUB SWAP1 REVERT JUMPDEST PUSH1 0x15 SLOAD DUP5 GT ISZERO PUSH2 0x2120 JUMPI PUSH1 0x40 MLOAD PUSH32 0x8C379A000000000000000000000000000000000000000000000000000000000 DUP2 MSTORE PUSH1 0x4 ADD PUSH2 0x2117 SWAP1 PUSH2 0x3035 JUMP JUMPDEST PUSH1 0x40 MLOAD DUP1 SWAP2 SUB SWAP1 REVERT JUMPDEST PUSH0 ISZERO ISZERO PUSH1 0x1E PUSH0 SWAP1 SLOAD SWAP1 PUSH2 0x100 EXP SWAP1 DIV PUSH1 0xFF AND ISZERO ISZERO EQ PUSH2 0x2174 JUMPI PUSH1 0x40 MLOAD PUSH32 0x8C379A000000000000000000000000000000000000000000000000000000000 DUP2 MSTORE PUSH1 0x4 ADD PUSH2 0x216B SWAP1 PUSH2 0x30C3 JUMP JUMPDEST PUSH1 0x40 MLOAD DUP1 SWAP2 SUB SWAP1 REVERT JUMPDEST PUSH1 0x1 DUP4 SUB PUSH2 0x22EC JUMPI PUSH1 0x1 ISZERO ISZERO PUSH1 0x5 PUSH0 SWAP1 SLOAD SWAP1 PUSH2 0x100 EXP SWAP1 DIV PUSH1 0xFF AND ISZERO ISZERO EQ PUSH2 0x21D1 JUMPI PUSH1 0x40 MLOAD PUSH32 0x8C379A000000000000000000000000000000000000000000000000000000000 DUP2 MSTORE PUSH1 0x4 ADD PUSH2 0x21C8 SWAP1 PUSH2 0x3151 JUMP JUMPDEST PUSH1 0x40 MLOAD DUP1 SWAP2 SUB SWAP1 REVERT JUMPDEST PUSH0 PUSH1 0x1 PUSH0 DUP5 PUSH20 0xFFFFFFFFFFFFFFFFFFFFFFFFFFFFFFFFFFFFFFFF AND PUSH20 0xFFFFFFFFFFFFFFFFFFFFFFFFFFFFFFFFFFFFFFFF AND DUP2 MSTORE PUSH1 0x20 ADD SWAP1 DUP2 MSTORE PUSH1 0x20 ADD PUSH0 KECCAK256 SLOAD EQ PUSH2 0x2250 JUMPI PUSH1 0x40 MLOAD PUSH32 0x8C379A000000000000000000000000000000000000000000000000000000000 DUP2 MSTORE PUSH1 0x4 ADD PUSH2 0x2247 SWAP1 PUSH2 0x3205 JUMP JUMPDEST PUSH1 0x40 MLOAD DUP1 SWAP2 SUB SWAP1 REVERT JUMPDEST PUSH2 0x2265 PUSH1 0x3 SLOAD DUP6 PUSH2 0x2871 SWAP1 SWAP2 SWAP1 PUSH4 0xFFFFFFFF AND JUMP JUMPDEST SWAP1 POP TIMESTAMP PUSH1 0x2 PUSH0 DUP5 PUSH20 0xFFFFFFFFFFFFFFFFFFFFFFFFFFFFFFFFFFFFFFFF AND PUSH20 0xFFFFFFFFFFFFFFFFFFFFFFFFFFFFFFFFFFFFFFFF AND DUP2 MSTORE PUSH1 0x20 ADD SWAP1 DUP2 MSTORE PUSH1 0x20 ADD PUSH0 KECCAK256 DUP2 SWAP1 SSTORE POP DUP4 PUSH1 0x1 PUSH0 DUP5 PUSH20 0xFFFFFFFFFFFFFFFFFFFFFFFFFFFFFFFFFFFFFFFF AND PUSH20 0xFFFFFFFFFFFFFFFFFFFFFFFFFFFFFFFFFFFFFFFF AND DUP2 MSTORE PUSH1 0x20 ADD SWAP1 DUP2 MSTORE PUSH1 0x20 ADD PUSH0 KECCAK256 DUP2 SWAP1 SSTORE POP JUMPDEST PUSH1 0x2 DUP4 SUB PUSH2 0x2464 JUMPI PUSH1 0x1 ISZERO ISZERO PUSH1 0xA PUSH0 SWAP1 SLOAD SWAP1 PUSH2 0x100 EXP SWAP1 DIV PUSH1 0xFF AND ISZERO ISZERO EQ PUSH2 0x2349 JUMPI PUSH1 0x40 MLOAD PUSH32 0x8C379A000000000000000000000000000000000000000000000000000000000 DUP2 MSTORE PUSH1 0x4 ADD PUSH2 0x2340 SWAP1 PUSH2 0x3151 JUMP JUMPDEST PUSH1 0x40 MLOAD DUP1 SWAP2 SUB SWAP1 REVERT JUMPDEST PUSH0 PUSH1 0x6 PUSH0 DUP5 PUSH20 0xFFFFFFFFFFFFFFFFFFFFFFFFFFFFFFFFFFFFFFFF AND PUSH20 0xFFFFFFFFFFFFFFFFFFFFFFFFFFFFFFFFFFFFFFFF AND DUP2 MSTORE PUSH1 0x20 ADD SWAP1 DUP2 MSTORE PUSH1 0x20 ADD PUSH0 KECCAK256 SLOAD EQ PUSH2 0x23C8 JUMPI PUSH1 0x40 MLOAD PUSH32 0x8C379A000000000000000000000000000000000000000000000000000000000 DUP2 MSTORE PUSH1 0x4 ADD PUSH2 0x23BF SWAP1 PUSH2 0x3205 JUMP JUMPDEST PUSH1 0x40 MLOAD DUP1 SWAP2 SUB SWAP1 REVERT JUMPDEST PUSH2 0x23DD PUSH1 0x8 SLOAD DUP6 PUSH2 0x2871 SWAP1 SWAP2 SWAP1 PUSH4 0xFFFFFFFF AND JUMP JUMPDEST SWAP1 POP TIMESTAMP PUSH1 0x7 PUSH0 DUP5 PUSH20 0xFFFFFFFFFFFFFFFFFFFFFFFFFFFFFFFFFFFFFFFF AND PUSH20 0xFFFFFFFFFFFFFFFFFFFFFFFFFFFFFFFFFFFFFFFF AND DUP2 MSTORE PUSH1 0x20 ADD SWAP1 DUP2 MSTORE PUSH1 0x20 ADD PUSH0 KECCAK256 DUP2 SWAP1 SSTORE POP DUP4 PUSH1 0x6 PUSH0 DUP5 PUSH20 0xFFFFFFFFFFFFFFFFFFFFFFFFFFFFFFFFFFFFFFFF AND PUSH20 0xFFFFFFFFFFFFFFFFFFFFFFFFFFFFFFFFFFFFFFFF AND DUP2 MSTORE PUSH1 0x20 ADD SWAP1 DUP2 MSTORE PUSH1 0x20 ADD PUSH0 KECCAK256 DUP2 SWAP1 SSTORE POP JUMPDEST PUSH1 0x3 DUP4 SUB PUSH2 0x25DC JUMPI PUSH1 0x1 ISZERO ISZERO PUSH1 0xF PUSH0 SWAP1 SLOAD SWAP1 PUSH2 0x100 EXP SWAP1 DIV PUSH1 0xFF AND ISZERO ISZERO EQ PUSH2 0x24C1 JUMPI PUSH1 0x40 MLOAD PUSH32 0x8C379A000000000000000000000000000000000000000000000000000000000 DUP2 MSTORE PUSH1 0x4 ADD PUSH2 0x24B8 SWAP1 PUSH2 0x3151 JUMP JUMPDEST PUSH1 0x40 MLOAD DUP1 SWAP2 SUB SWAP1 REVERT JUMPDEST PUSH0 PUSH1 0xB PUSH0 DUP5 PUSH20 0xFFFFFFFFFFFFFFFFFFFFFFFFFFFFFFFFFFFFFFFF AND PUSH20 0xFFFFFFFFFFFFFFFFFFFFFFFFFFFFFFFFFFFFFFFF AND DUP2 MSTORE PUSH1 0x20 ADD SWAP1 DUP2 MSTORE PUSH1 0x20 ADD PUSH0 KECCAK256 SLOAD EQ PUSH2 0x2540 JUMPI PUSH1 0x40 MLOAD PUSH32 0x8C379A000000000000000000000000000000000000000000000000000000000 DUP2 MSTORE PUSH1 0x4 ADD PUSH2 0x2537 SWAP1 PUSH2 0x3205 JUMP JUMPDEST PUSH1 0x40 MLOAD DUP1 SWAP2 SUB SWAP1 REVERT JUMPDEST PUSH2 0x2555 PUSH1 0xD SLOAD DUP6 PUSH2 0x2871 SWAP1 SWAP2 SWAP1 PUSH4 0xFFFFFFFF AND JUMP JUMPDEST SWAP1 POP TIMESTAMP PUSH1 0xC PUSH0 DUP5 PUSH20 0xFFFFFFFFFFFFFFFFFFFFFFFFFFFFFFFFFFFFFFFF AND PUSH20 0xFFFFFFFFFFFFFFFFFFFFFFFFFFFFFFFFFFFFFFFF AND DUP2 MSTORE PUSH1 0x20 ADD SWAP1 DUP2 MSTORE PUSH1 0x20 ADD PUSH0 KECCAK256 DUP2 SWAP1 SSTORE POP DUP4 PUSH1 0xB PUSH0 DUP5 PUSH20 0xFFFFFFFFFFFFFFFFFFFFFFFFFFFFFFFFFFFFFFFF AND PUSH20 0xFFFFFFFFFFFFFFFFFFFFFFFFFFFFFFFFFFFFFFFF AND DUP2 MSTORE PUSH1 0x20 ADD SWAP1 DUP2 MSTORE PUSH1 0x20 ADD PUSH0 KECCAK256 DUP2 SWAP1 SSTORE POP JUMPDEST PUSH1 0x4 DUP4 SUB PUSH2 0x2754 JUMPI PUSH1 0x1 ISZERO ISZERO PUSH1 0x14 PUSH0 SWAP1 SLOAD SWAP1 PUSH2 0x100 EXP SWAP1 DIV PUSH1 0xFF AND ISZERO ISZERO EQ PUSH2 0x2639 JUMPI PUSH1 0x40 MLOAD PUSH32 0x8C379A000000000000000000000000000000000000000000000000000000000 DUP2 MSTORE PUSH1 0x4 ADD PUSH2 0x2630 SWAP1 PUSH2 0x3151 JUMP JUMPDEST PUSH1 0x40 MLOAD DUP1 SWAP2 SUB SWAP1 REVERT JUMPDEST PUSH0 PUSH1 0x10 PUSH0 DUP5 PUSH20 0xFFFFFFFFFFFFFFFFFFFFFFFFFFFFFFFFFFFFFFFF AND PUSH20 0xFFFFFFFFFFFFFFFFFFFFFFFFFFFFFFFFFFFFFFFF AND DUP2 MSTORE PUSH1 0x20 ADD SWAP1 DUP2 MSTORE PUSH1 0x20 ADD PUSH0 KECCAK256 SLOAD EQ PUSH2 0x26B8 JUMPI PUSH1 0x40 MLOAD PUSH32 0x8C379A000000000000000000000000000000000000000000000000000000000 DUP2 MSTORE PUSH1 0x4 ADD PUSH2 0x26AF SWAP1 PUSH2 0x3205 JUMP JUMPDEST PUSH1 0x40 MLOAD DUP1 SWAP2 SUB SWAP1 REVERT JUMPDEST PUSH2 0x26CD PUSH1 0x12 SLOAD DUP6 PUSH2 0x2871 SWAP1 SWAP2 SWAP1 PUSH4 0xFFFFFFFF AND JUMP JUMPDEST SWAP1 POP TIMESTAMP PUSH1 0x11 PUSH0 DUP5 PUSH20 0xFFFFFFFFFFFFFFFFFFFFFFFFFFFFFFFFFFFFFFFF AND PUSH20 0xFFFFFFFFFFFFFFFFFFFFFFFFFFFFFFFFFFFFFFFF AND DUP2 MSTORE PUSH1 0x20 ADD SWAP1 DUP2 MSTORE PUSH1 0x20 ADD PUSH0 KECCAK256 DUP2 SWAP1 SSTORE POP DUP4 PUSH1 0x10 PUSH0 DUP5 PUSH20 0xFFFFFFFFFFFFFFFFFFFFFFFFFFFFFFFFFFFFFFFF AND PUSH20 0xFFFFFFFFFFFFFFFFFFFFFFFFFFFFFFFFFFFFFFFF AND DUP2 MSTORE PUSH1 0x20 ADD SWAP1 DUP2 MSTORE PUSH1 0x20 ADD PUSH0 KECCAK256 DUP2 SWAP1 SSTORE POP JUMPDEST PUSH2 0x2769 DUP2 PUSH1 0x1A SLOAD PUSH2 0x285C SWAP1 SWAP2 SWAP1 PUSH4 0xFFFFFFFF AND JUMP JUMPDEST PUSH1 0x1A DUP2 SWAP1 SSTORE POP PUSH2 0x2784 DUP5 PUSH1 0x1C SLOAD PUSH2 0x285C SWAP1 SWAP2 SWAP1 PUSH4 0xFFFFFFFF AND JUMP JUMPDEST PUSH1 0x1C DUP2 SWAP1 SSTORE POP PUSH0 PUSH1 0x18 PUSH0 SWAP1 SLOAD SWAP1 PUSH2 0x100 EXP SWAP1 DIV PUSH20 0xFFFFFFFFFFFFFFFFFFFFFFFFFFFFFFFFFFFFFFFF AND SWAP1 POP DUP1 PUSH20 0xFFFFFFFFFFFFFFFFFFFFFFFFFFFFFFFFFFFFFFFF AND PUSH4 0x23B872DD DUP5 PUSH1 0x16 PUSH0 SWAP1 SLOAD SWAP1 PUSH2 0x100 EXP SWAP1 DIV PUSH20 0xFFFFFFFFFFFFFFFFFFFFFFFFFFFFFFFFFFFFFFFF AND DUP9 PUSH1 0x40 MLOAD DUP5 PUSH4 0xFFFFFFFF AND PUSH1 0xE0 SHL DUP2 MSTORE PUSH1 0x4 ADD PUSH2 0x280D SWAP4 SWAP3 SWAP2 SWAP1 PUSH2 0x2D93 JUMP JUMPDEST PUSH1 0x20 PUSH1 0x40 MLOAD DUP1 DUP4 SUB DUP2 PUSH0 DUP8 GAS CALL ISZERO DUP1 ISZERO PUSH2 0x2829 JUMPI RETURNDATASIZE PUSH0 PUSH0 RETURNDATACOPY RETURNDATASIZE PUSH0 REVERT JUMPDEST POP POP POP POP PUSH1 0x40 MLOAD RETURNDATASIZE PUSH1 0x1F NOT PUSH1 0x1F DUP3 ADD AND DUP3 ADD DUP1 PUSH1 0x40 MSTORE POP DUP2 ADD SWAP1 PUSH2 0x284D SWAP2 SWAP1 PUSH2 0x2DDC JUMP JUMPDEST POP POP POP POP POP POP JUMP JUMPDEST PUSH0 CALLER SWAP1 POP SWAP1 JUMP JUMPDEST PUSH0 DUP2 DUP4 PUSH2 0x2869 SWAP2 SWAP1 PUSH2 0x2E34 JUMP JUMPDEST SWAP1 POP SWAP3 SWAP2 POP POP JUMP JUMPDEST PUSH0 DUP2 DUP4 PUSH2 0x287E SWAP2 SWAP1 PUSH2 0x3250 JUMP JUMPDEST SWAP1 POP SWAP3 SWAP2 POP POP JUMP JUMPDEST PUSH0 DUP2 DUP4 PUSH2 0x2893 SWAP2 SWAP1 PUSH2 0x3280 JUMP JUMPDEST SWAP1 POP SWAP3 SWAP2 POP POP JUMP JUMPDEST PUSH0 PUSH0 PUSH0 SWAP1 SLOAD SWAP1 PUSH2 0x100 EXP SWAP1 DIV PUSH20 0xFFFFFFFFFFFFFFFFFFFFFFFFFFFFFFFFFFFFFFFF AND SWAP1 POP DUP2 PUSH0 PUSH0 PUSH2 0x100 EXP DUP2 SLOAD DUP2 PUSH20 0xFFFFFFFFFFFFFFFFFFFFFFFFFFFFFFFFFFFFFFFF MUL NOT AND SWAP1 DUP4 PUSH20 0xFFFFFFFFFFFFFFFFFFFFFFFFFFFFFFFFFFFFFFFF AND MUL OR SWAP1 SSTORE POP DUP2 PUSH20 0xFFFFFFFFFFFFFFFFFFFFFFFFFFFFFFFFFFFFFFFF AND DUP2 PUSH20 0xFFFFFFFFFFFFFFFFFFFFFFFFFFFFFFFFFFFFFFFF AND PUSH32 0x8BE0079C531659141344CD1FD0A4F28419497F9722A3DAAFE3B4186F6B6457E0 PUSH1 0x40 MLOAD PUSH1 0x40 MLOAD DUP1 SWAP2 SUB SWAP1 LOG3 POP POP JUMP JUMPDEST PUSH0 PUSH0 REVERT JUMPDEST PUSH0 PUSH20 0xFFFFFFFFFFFFFFFFFFFFFFFFFFFFFFFFFFFFFFFF DUP3 AND SWAP1 POP SWAP2 SWAP1 POP JUMP JUMPDEST PUSH0 PUSH2 0x2989 DUP3 PUSH2 0x2960 JUMP JUMPDEST SWAP1 POP SWAP2 SWAP1 POP JUMP JUMPDEST PUSH2 0x2999 DUP2 PUSH2 0x297F JUMP JUMPDEST DUP2 EQ PUSH2 0x29A3 JUMPI PUSH0 PUSH0 REVERT JUMPDEST POP JUMP JUMPDEST PUSH0 DUP2 CALLDATALOAD SWAP1 POP PUSH2 0x29B4 DUP2 PUSH2 0x2990 JUMP JUMPDEST SWAP3 SWAP2 POP POP JUMP JUMPDEST PUSH0 PUSH1 0x20 DUP3 DUP5 SUB SLT ISZERO PUSH2 0x29CF JUMPI PUSH2 0x29CE PUSH2 0x295C JUMP JUMPDEST JUMPDEST PUSH0 PUSH2 0x29DC DUP5 DUP3 DUP6 ADD PUSH2 0x29A6 JUMP JUMPDEST SWAP2 POP POP SWAP3 SWAP2 POP POP JUMP JUMPDEST PUSH0 DUP2 SWAP1 POP SWAP2 SWAP1 POP JUMP JUMPDEST PUSH2 0x29F7 DUP2 PUSH2 0x29E5 JUMP JUMPDEST DUP3 MSTORE POP POP JUMP JUMPDEST PUSH0 PUSH1 0x20 DUP3 ADD SWAP1 POP PUSH2 0x2A10 PUSH0 DUP4 ADD DUP5 PUSH2 0x29EE JUMP JUMPDEST SWAP3 SWAP2 POP POP JUMP JUMPDEST PUSH2 0x2A1F DUP2 PUSH2 0x297F JUMP JUMPDEST DUP3 MSTORE POP POP JUMP JUMPDEST PUSH0 PUSH1 0x20 DUP3 ADD SWAP1 POP PUSH2 0x2A38 PUSH0 DUP4 ADD DUP5 PUSH2 0x2A16 JUMP JUMPDEST SWAP3 SWAP2 POP POP JUMP JUMPDEST PUSH0 DUP2 ISZERO ISZERO SWAP1 POP SWAP2 SWAP1 POP JUMP JUMPDEST PUSH2 0x2A52 DUP2 PUSH2 0x2A3E JUMP JUMPDEST DUP2 EQ PUSH2 0x2A5C JUMPI PUSH0 PUSH0 REVERT JUMPDEST POP JUMP JUMPDEST PUSH0 DUP2 CALLDATALOAD SWAP1 POP PUSH2 0x2A6D DUP2 PUSH2 0x2A49 JUMP JUMPDEST SWAP3 SWAP2 POP POP JUMP JUMPDEST PUSH0 PUSH1 0x20 DUP3 DUP5 SUB SLT ISZERO PUSH2 0x2A88 JUMPI PUSH2 0x2A87 PUSH2 0x295C JUMP JUMPDEST JUMPDEST PUSH0 PUSH2 0x2A95 DUP5 DUP3 DUP6 ADD PUSH2 0x2A5F JUMP JUMPDEST SWAP2 POP POP SWAP3 SWAP2 POP POP JUMP JUMPDEST PUSH2 0x2AA7 DUP2 PUSH2 0x29E5 JUMP JUMPDEST DUP2 EQ PUSH2 0x2AB1 JUMPI PUSH0 PUSH0 REVERT JUMPDEST POP JUMP JUMPDEST PUSH0 DUP2 CALLDATALOAD SWAP1 POP PUSH2 0x2AC2 DUP2 PUSH2 0x2A9E JUMP JUMPDEST SWAP3 SWAP2 POP POP JUMP JUMPDEST PUSH0 PUSH1 0x20 DUP3 DUP5 SUB SLT ISZERO PUSH2 0x2ADD JUMPI PUSH2 0x2ADC PUSH2 0x295C JUMP JUMPDEST JUMPDEST PUSH0 PUSH2 0x2AEA DUP5 DUP3 DUP6 ADD PUSH2 0x2AB4 JUMP JUMPDEST SWAP2 POP POP SWAP3 SWAP2 POP POP JUMP JUMPDEST PUSH0 PUSH0 PUSH1 0x40 DUP4 DUP6 SUB SLT ISZERO PUSH2 0x2B09 JUMPI PUSH2 0x2B08 PUSH2 0x295C JUMP JUMPDEST JUMPDEST PUSH0 PUSH2 0x2B16 DUP6 DUP3 DUP7 ADD PUSH2 0x29A6 JUMP JUMPDEST SWAP3 POP POP PUSH1 0x20 PUSH2 0x2B27 DUP6 DUP3 DUP7 ADD PUSH2 0x2AB4 JUMP JUMPDEST SWAP2 POP POP SWAP3 POP SWAP3 SWAP1 POP JUMP JUMPDEST PUSH2 0x2B3A DUP2 PUSH2 0x2A3E JUMP JUMPDEST DUP3 MSTORE POP POP JUMP JUMPDEST PUSH0 PUSH1 0x20 DUP3 ADD SWAP1 POP PUSH2 0x2B53 PUSH0 DUP4 ADD DUP5 PUSH2 0x2B31 JUMP JUMPDEST SWAP3 SWAP2 POP POP JUMP JUMPDEST PUSH0 PUSH0 PUSH1 0x40 DUP4 DUP6 SUB SLT ISZERO PUSH2 0x2B6F JUMPI PUSH2 0x2B6E PUSH2 0x295C JUMP JUMPDEST JUMPDEST PUSH0 PUSH2 0x2B7C DUP6 DUP3 DUP7 ADD PUSH2 0x2AB4 JUMP JUMPDEST SWAP3 POP POP PUSH1 0x20 PUSH2 0x2B8D DUP6 DUP3 DUP7 ADD PUSH2 0x2AB4 JUMP JUMPDEST SWAP2 POP POP SWAP3 POP SWAP3 SWAP1 POP JUMP JUMPDEST PUSH0 DUP3 DUP3 MSTORE PUSH1 0x20 DUP3 ADD SWAP1 POP SWAP3 SWAP2 POP POP JUMP JUMPDEST PUSH32 0x4F776E61626C653A2063616C6C6572206973206E6F7420746865206F776E6572 PUSH0 DUP3 ADD MSTORE POP JUMP JUMPDEST PUSH0 PUSH2 0x2BDB PUSH1 0x20 DUP4 PUSH2 0x2B97 JUMP JUMPDEST SWAP2 POP PUSH2 0x2BE6 DUP3 PUSH2 0x2BA7 JUMP JUMPDEST PUSH1 0x20 DUP3 ADD SWAP1 POP SWAP2 SWAP1 POP JUMP JUMPDEST PUSH0 PUSH1 0x20 DUP3 ADD SWAP1 POP DUP2 DUP2 SUB PUSH0 DUP4 ADD MSTORE PUSH2 0x2C08 DUP2 PUSH2 0x2BCF JUMP JUMPDEST SWAP1 POP SWAP2 SWAP1 POP JUMP JUMPDEST PUSH32 0x496E76616C69642070726F647563742049442E00000000000000000000000000 PUSH0 DUP3 ADD MSTORE POP JUMP JUMPDEST PUSH0 PUSH2 0x2C43 PUSH1 0x13 DUP4 PUSH2 0x2B97 JUMP JUMPDEST SWAP2 POP PUSH2 0x2C4E DUP3 PUSH2 0x2C0F JUMP JUMPDEST PUSH1 0x20 DUP3 ADD SWAP1 POP SWAP2 SWAP1 POP JUMP JUMPDEST PUSH0 PUSH1 0x20 DUP3 ADD SWAP1 POP DUP2 DUP2 SUB PUSH0 DUP4 ADD MSTORE PUSH2 0x2C70 DUP2 PUSH2 0x2C37 JUMP JUMPDEST SWAP1 POP SWAP2 SWAP1 POP JUMP JUMPDEST PUSH32 0x546869732077616C6C657420686173206E6F207374616B65206F6E2074686973 PUSH0 DUP3 ADD MSTORE PUSH32 0x2070726F647563742E0000000000000000000000000000000000000000000000 PUSH1 0x20 DUP3 ADD MSTORE POP JUMP JUMPDEST PUSH0 PUSH2 0x2CD1 PUSH1 0x29 DUP4 PUSH2 0x2B97 JUMP JUMPDEST SWAP2 POP PUSH2 0x2CDC DUP3 PUSH2 0x2C77 JUMP JUMPDEST PUSH1 0x40 DUP3 ADD SWAP1 POP SWAP2 SWAP1 POP JUMP JUMPDEST PUSH0 PUSH1 0x20 DUP3 ADD SWAP1 POP DUP2 DUP2 SUB PUSH0 DUP4 ADD MSTORE PUSH2 0x2CFE DUP2 PUSH2 0x2CC5 JUMP JUMPDEST SWAP1 POP SWAP2 SWAP1 POP JUMP JUMPDEST PUSH32 0x546865207374616B696E6720706572696F6420666F7220746869732070726F64 PUSH0 DUP3 ADD MSTORE PUSH32 0x75637420686173206E6F7420656E646564207965742E00000000000000000000 PUSH1 0x20 DUP3 ADD MSTORE POP JUMP JUMPDEST PUSH0 PUSH2 0x2D5F PUSH1 0x36 DUP4 PUSH2 0x2B97 JUMP JUMPDEST SWAP2 POP PUSH2 0x2D6A DUP3 PUSH2 0x2D05 JUMP JUMPDEST PUSH1 0x40 DUP3 ADD SWAP1 POP SWAP2 SWAP1 POP JUMP JUMPDEST PUSH0 PUSH1 0x20 DUP3 ADD SWAP1 POP DUP2 DUP2 SUB PUSH0 DUP4 ADD MSTORE PUSH2 0x2D8C DUP2 PUSH2 0x2D53 JUMP JUMPDEST SWAP1 POP SWAP2 SWAP1 POP JUMP JUMPDEST PUSH0 PUSH1 0x60 DUP3 ADD SWAP1 POP PUSH2 0x2DA6 PUSH0 DUP4 ADD DUP7 PUSH2 0x2A16 JUMP JUMPDEST PUSH2 0x2DB3 PUSH1 0x20 DUP4 ADD DUP6 PUSH2 0x2A16 JUMP JUMPDEST PUSH2 0x2DC0 PUSH1 0x40 DUP4 ADD DUP5 PUSH2 0x29EE JUMP JUMPDEST SWAP5 SWAP4 POP POP POP POP JUMP JUMPDEST PUSH0 DUP2 MLOAD SWAP1 POP PUSH2 0x2DD6 DUP2 PUSH2 0x2A49 JUMP JUMPDEST SWAP3 SWAP2 POP POP JUMP JUMPDEST PUSH0 PUSH1 0x20 DUP3 DUP5 SUB SLT ISZERO PUSH2 0x2DF1 JUMPI PUSH2 0x2DF0 PUSH2 0x295C JUMP JUMPDEST JUMPDEST PUSH0 PUSH2 0x2DFE DUP5 DUP3 DUP6 ADD PUSH2 0x2DC8 JUMP JUMPDEST SWAP2 POP POP SWAP3 SWAP2 POP POP JUMP JUMPDEST PUSH32 0x4E487B7100000000000000000000000000000000000000000000000000000000 PUSH0 MSTORE PUSH1 0x11 PUSH1 0x4 MSTORE PUSH1 0x24 PUSH0 REVERT JUMPDEST PUSH0 PUSH2 0x2E3E DUP3 PUSH2 0x29E5 JUMP JUMPDEST SWAP2 POP PUSH2 0x2E49 DUP4 PUSH2 0x29E5 JUMP JUMPDEST SWAP3 POP DUP3 DUP3 ADD SWAP1 POP DUP1 DUP3 GT ISZERO PUSH2 0x2E61 JUMPI PUSH2 0x2E60 PUSH2 0x2E07 JUMP JUMPDEST JUMPDEST SWAP3 SWAP2 POP POP JUMP JUMPDEST PUSH32 0x4F776E61626C653A206E6577206F776E657220697320746865207A65726F2061 PUSH0 DUP3 ADD MSTORE PUSH32 0x6464726573730000000000000000000000000000000000000000000000000000 PUSH1 0x20 DUP3 ADD MSTORE POP JUMP JUMPDEST PUSH0 PUSH2 0x2EC1 PUSH1 0x26 DUP4 PUSH2 0x2B97 JUMP JUMPDEST SWAP2 POP PUSH2 0x2ECC DUP3 PUSH2 0x2E67 JUMP JUMPDEST PUSH1 0x40 DUP3 ADD SWAP1 POP SWAP2 SWAP1 POP JUMP JUMPDEST PUSH0 PUSH1 0x20 DUP3 ADD SWAP1 POP DUP2 DUP2 SUB PUSH0 DUP4 ADD MSTORE PUSH2 0x2EEE DUP2 PUSH2 0x2EB5 JUMP JUMPDEST SWAP1 POP SWAP2 SWAP1 POP JUMP JUMPDEST PUSH32 0x5374616B696E67206F6E207468697320636F6E74726163742068617320656E64 PUSH0 DUP3 ADD MSTORE PUSH32 0x6564210000000000000000000000000000000000000000000000000000000000 PUSH1 0x20 DUP3 ADD MSTORE POP JUMP JUMPDEST PUSH0 PUSH2 0x2F4F PUSH1 0x23 DUP4 PUSH2 0x2B97 JUMP JUMPDEST SWAP2 POP PUSH2 0x2F5A DUP3 PUSH2 0x2EF5 JUMP JUMPDEST PUSH1 0x40 DUP3 ADD SWAP1 POP SWAP2 SWAP1 POP JUMP JUMPDEST PUSH0 PUSH1 0x20 DUP3 ADD SWAP1 POP DUP2 DUP2 SUB PUSH0 DUP4 ADD MSTORE PUSH2 0x2F7C DUP2 PUSH2 0x2F43 JUMP JUMPDEST SWAP1 POP SWAP2 SWAP1 POP JUMP JUMPDEST PUSH32 0x5374616B656420616D6F756E74206D757374206265206869676865722E000000 PUSH0 DUP3 ADD MSTORE POP JUMP JUMPDEST PUSH0 PUSH2 0x2FB7 PUSH1 0x1D DUP4 PUSH2 0x2B97 JUMP JUMPDEST SWAP2 POP PUSH2 0x2FC2 DUP3 PUSH2 0x2F83 JUMP JUMPDEST PUSH1 0x20 DUP3 ADD SWAP1 POP SWAP2 SWAP1 POP JUMP JUMPDEST PUSH0 PUSH1 0x20 DUP3 ADD SWAP1 POP DUP2 DUP2 SUB PUSH0 DUP4 ADD MSTORE PUSH2 0x2FE4 DUP2 PUSH2 0x2FAB JUMP JUMPDEST SWAP1 POP SWAP2 SWAP1 POP JUMP JUMPDEST PUSH32 0x5374616B656420616D6F756E74206D757374206265206C6F7765722E00000000 PUSH0 DUP3 ADD MSTORE POP JUMP JUMPDEST PUSH0 PUSH2 0x301F PUSH1 0x1C DUP4 PUSH2 0x2B97 JUMP JUMPDEST SWAP2 POP PUSH2 0x302A DUP3 PUSH2 0x2FEB JUMP JUMPDEST PUSH1 0x20 DUP3 ADD SWAP1 POP SWAP2 SWAP1 POP JUMP JUMPDEST PUSH0 PUSH1 0x20 DUP3 ADD SWAP1 POP DUP2 DUP2 SUB PUSH0 DUP4 ADD MSTORE PUSH2 0x304C DUP2 PUSH2 0x3013 JUMP JUMPDEST SWAP1 POP SWAP2 SWAP1 POP JUMP JUMPDEST PUSH32 0x5374616B696E672069732063757272656E746C7920696E20756E6C6F636B6564 PUSH0 DUP3 ADD MSTORE PUSH32 0x206D6F64652E0000000000000000000000000000000000000000000000000000 PUSH1 0x20 DUP3 ADD MSTORE POP JUMP JUMPDEST PUSH0 PUSH2 0x30AD PUSH1 0x26 DUP4 PUSH2 0x2B97 JUMP JUMPDEST SWAP2 POP PUSH2 0x30B8 DUP3 PUSH2 0x3053 JUMP JUMPDEST PUSH1 0x40 DUP3 ADD SWAP1 POP SWAP2 SWAP1 POP JUMP JUMPDEST PUSH0 PUSH1 0x20 DUP3 ADD SWAP1 POP DUP2 DUP2 SUB PUSH0 DUP4 ADD MSTORE PUSH2 0x30DA DUP2 PUSH2 0x30A1 JUMP JUMPDEST SWAP1 POP SWAP2 SWAP1 POP JUMP JUMPDEST PUSH32 0x54686973207374616B696E672070726F647563742069732064697361626C6564 PUSH0 DUP3 ADD MSTORE PUSH32 0x2E00000000000000000000000000000000000000000000000000000000000000 PUSH1 0x20 DUP3 ADD MSTORE POP JUMP JUMPDEST PUSH0 PUSH2 0x313B PUSH1 0x21 DUP4 PUSH2 0x2B97 JUMP JUMPDEST SWAP2 POP PUSH2 0x3146 DUP3 PUSH2 0x30E1 JUMP JUMPDEST PUSH1 0x40 DUP3 ADD SWAP1 POP SWAP2 SWAP1 POP JUMP JUMPDEST PUSH0 PUSH1 0x20 DUP3 ADD SWAP1 POP DUP2 DUP2 SUB PUSH0 DUP4 ADD MSTORE PUSH2 0x3168 DUP2 PUSH2 0x312F JUMP JUMPDEST SWAP1 POP SWAP2 SWAP1 POP JUMP JUMPDEST PUSH32 0x546869732077616C6C65742068617320616C7265616479207374616B6564206F PUSH0 DUP3 ADD MSTORE PUSH32 0x6E20746869732070726F64756374202D207761697420666F7220746865207265 PUSH1 0x20 DUP3 ADD MSTORE PUSH32 0x6C6561736520746F2072652D7374616B652E0000000000000000000000000000 PUSH1 0x40 DUP3 ADD MSTORE POP JUMP JUMPDEST PUSH0 PUSH2 0x31EF PUSH1 0x52 DUP4 PUSH2 0x2B97 JUMP JUMPDEST SWAP2 POP PUSH2 0x31FA DUP3 PUSH2 0x316F JUMP JUMPDEST PUSH1 0x60 DUP3 ADD SWAP1 POP SWAP2 SWAP1 POP JUMP JUMPDEST PUSH0 PUSH1 0x20 DUP3 ADD SWAP1 POP DUP2 DUP2 SUB PUSH0 DUP4 ADD MSTORE PUSH2 0x321C DUP2 PUSH2 0x31E3 JUMP JUMPDEST SWAP1 POP SWAP2 SWAP1 POP JUMP JUMPDEST PUSH32 0x4E487B7100000000000000000000000000000000000000000000000000000000 PUSH0 MSTORE PUSH1 0x12 PUSH1 0x4 MSTORE PUSH1 0x24 PUSH0 REVERT JUMPDEST PUSH0 PUSH2 0x325A DUP3 PUSH2 0x29E5 JUMP JUMPDEST SWAP2 POP PUSH2 0x3265 DUP4 PUSH2 0x29E5 JUMP JUMPDEST SWAP3 POP DUP3 PUSH2 0x3275 JUMPI PUSH2 0x3274 PUSH2 0x3223 JUMP JUMPDEST JUMPDEST DUP3 DUP3 DIV SWAP1 POP SWAP3 SWAP2 POP POP JUMP JUMPDEST PUSH0 PUSH2 0x328A DUP3 PUSH2 0x29E5 JUMP JUMPDEST SWAP2 POP PUSH2 0x3295 DUP4 PUSH2 0x29E5 JUMP JUMPDEST SWAP3 POP DUP3 DUP3 SUB SWAP1 POP DUP2 DUP2 GT ISZERO PUSH2 0x32AD JUMPI PUSH2 0x32AC PUSH2 0x2E07 JUMP JUMPDEST JUMPDEST SWAP3 SWAP2 POP POP JUMP INVALID LOG2 PUSH5 0x6970667358 0x22 SLT KECCAK256 GASPRICE 0xB1 0xA6 SWAP9 0x2F PUSH32 0xFCA90B0D859F0345F35610FCA850DC8C02F47A1BB86B722961C64736F6C6343 STOP ADDMOD 0x1E STOP CALLER "
				},
				"gasEstimates": {
					"creation": {
						"codeDepositCost": "2606600",
						"executionCost": "infinite",
						"totalCost": "infinite"
					},
					"external": {
						"addStake(uint256,uint256)": "infinite",
						"balanceOf(address)": "infinite",
						"box1Balance(address)": "2958",
						"box1DepositDate(address)": "2892",
						"box1Enabled()": "2556",
						"box1Rate()": "2580",
						"box1Time()": "2471",
						"box2Balance(address)": "2849",
						"box2DepositDate(address)": "2957",
						"box2Enabled()": "2555",
						"box2Rate()": "2558",
						"box2Time()": "2514",
						"box3Balance(address)": "2870",
						"box3DepositDate(address)": "2870",
						"box3Enabled()": "2511",
						"box3Rate()": "2492",
						"box3Time()": "2516",
						"box4Balance(address)": "2848",
						"box4DepositDate(address)": "2936",
						"box4Enabled()": "2578",
						"box4Rate()": "2558",
						"box4Time()": "2558",
						"changeBox1Status(bool)": "27065",
						"changeBox2Status(bool)": "27043",
						"changeBox3Status(bool)": "27020",
						"changeBox4Status(bool)": "27022",
						"changeFullUnlock(bool)": "26975",
						"changeMaxRewardDue(uint256)": "24885",
						"changeMaxStake(uint256)": "24906",
						"changeMinStake(uint256)": "24886",
						"fullUnlock()": "2576",
						"maxRewardDue()": "2492",
						"maxStake()": "2469",
						"minStake()": "2537",
						"owner()": "2626",
						"pullStake(uint256)": "infinite",
						"renounceOwnership()": "30430",
						"rewardCount()": "2536",
						"rewardCountDue()": "2514",
						"rewardWallet()": "2640",
						"stakeAmount(address,uint256)": "infinite",
						"stakeUnlockTime(address,uint256)": "infinite",
						"stakeWallet()": "2577",
						"tokenAddress()": "2553",
						"totalStaked()": "2471",
						"transferOwnership(address)": "30792"
					}
				},
				"methodIdentifiers": {
					"addStake(uint256,uint256)": "fd2b5202",
					"balanceOf(address)": "70a08231",
					"box1Balance(address)": "4893afc1",
					"box1DepositDate(address)": "4f51d090",
					"box1Enabled()": "8a170ac1",
					"box1Rate()": "e7de2ceb",
					"box1Time()": "4b0c10d8",
					"box2Balance(address)": "058df0e8",
					"box2DepositDate(address)": "7b3e920c",
					"box2Enabled()": "73dec718",
					"box2Rate()": "d7d4918e",
					"box2Time()": "d47c56e5",
					"box3Balance(address)": "2e5f89ef",
					"box3DepositDate(address)": "89b0040a",
					"box3Enabled()": "d0bcc009",
					"box3Rate()": "b39dc996",
					"box3Time()": "1d95985b",
					"box4Balance(address)": "24ebd9d2",
					"box4DepositDate(address)": "38dc97fb",
					"box4Enabled()": "5cd5a159",
					"box4Rate()": "c3630edb",
					"box4Time()": "798cbe5e",
					"changeBox1Status(bool)": "6cbde5cf",
					"changeBox2Status(bool)": "5f75bcea",
					"changeBox3Status(bool)": "d5c41d69",
					"changeBox4Status(bool)": "1d95d52f",
					"changeFullUnlock(bool)": "f1cddd55",
					"changeMaxRewardDue(uint256)": "94387289",
					"changeMaxStake(uint256)": "cd5692ee",
					"changeMinStake(uint256)": "23dcdb89",
					"fullUnlock()": "f908dc13",
					"maxRewardDue()": "d19b090e",
					"maxStake()": "ea1b28e0",
					"minStake()": "375b3c0a",
					"owner()": "8da5cb5b",
					"pullStake(uint256)": "35e63055",
					"renounceOwnership()": "715018a6",
					"rewardCount()": "79085425",
					"rewardCountDue()": "bba4fefd",
					"rewardWallet()": "fb75b2c7",
					"stakeAmount(address,uint256)": "4b5effc2",
					"stakeUnlockTime(address,uint256)": "bef7d12e",
					"stakeWallet()": "0f9154b5",
					"tokenAddress()": "9d76ea58",
					"totalStaked()": "817b1cd2",
					"transferOwnership(address)": "f2fde38b"
				}
			},
			"storageLayout": {
				"storage": [
					{
						"astId": 1019,
						"contract": "contracts/LandFiStake.sol:LandFiStaking",
						"label": "_owner",
						"offset": 0,
						"slot": "0",
						"type": "t_address"
					},
					{
						"astId": 30,
						"contract": "contracts/LandFiStake.sol:LandFiStaking",
						"label": "box1Balance",
						"offset": 0,
						"slot": "1",
						"type": "t_mapping(t_address,t_uint256)"
					},
					{
						"astId": 34,
						"contract": "contracts/LandFiStake.sol:LandFiStaking",
						"label": "box1DepositDate",
						"offset": 0,
						"slot": "2",
						"type": "t_mapping(t_address,t_uint256)"
					},
					{
						"astId": 36,
						"contract": "contracts/LandFiStake.sol:LandFiStaking",
						"label": "box1Rate",
						"offset": 0,
						"slot": "3",
						"type": "t_uint256"
					},
					{
						"astId": 38,
						"contract": "contracts/LandFiStake.sol:LandFiStaking",
						"label": "box1Time",
						"offset": 0,
						"slot": "4",
						"type": "t_uint256"
					},
					{
						"astId": 40,
						"contract": "contracts/LandFiStake.sol:LandFiStaking",
						"label": "box1Enabled",
						"offset": 0,
						"slot": "5",
						"type": "t_bool"
					},
					{
						"astId": 44,
						"contract": "contracts/LandFiStake.sol:LandFiStaking",
						"label": "box2Balance",
						"offset": 0,
						"slot": "6",
						"type": "t_mapping(t_address,t_uint256)"
					},
					{
						"astId": 48,
						"contract": "contracts/LandFiStake.sol:LandFiStaking",
						"label": "box2DepositDate",
						"offset": 0,
						"slot": "7",
						"type": "t_mapping(t_address,t_uint256)"
					},
					{
						"astId": 50,
						"contract": "contracts/LandFiStake.sol:LandFiStaking",
						"label": "box2Rate",
						"offset": 0,
						"slot": "8",
						"type": "t_uint256"
					},
					{
						"astId": 52,
						"contract": "contracts/LandFiStake.sol:LandFiStaking",
						"label": "box2Time",
						"offset": 0,
						"slot": "9",
						"type": "t_uint256"
					},
					{
						"astId": 54,
						"contract": "contracts/LandFiStake.sol:LandFiStaking",
						"label": "box2Enabled",
						"offset": 0,
						"slot": "10",
						"type": "t_bool"
					},
					{
						"astId": 58,
						"contract": "contracts/LandFiStake.sol:LandFiStaking",
						"label": "box3Balance",
						"offset": 0,
						"slot": "11",
						"type": "t_mapping(t_address,t_uint256)"
					},
					{
						"astId": 62,
						"contract": "contracts/LandFiStake.sol:LandFiStaking",
						"label": "box3DepositDate",
						"offset": 0,
						"slot": "12",
						"type": "t_mapping(t_address,t_uint256)"
					},
					{
						"astId": 64,
						"contract": "contracts/LandFiStake.sol:LandFiStaking",
						"label": "box3Rate",
						"offset": 0,
						"slot": "13",
						"type": "t_uint256"
					},
					{
						"astId": 66,
						"contract": "contracts/LandFiStake.sol:LandFiStaking",
						"label": "box3Time",
						"offset": 0,
						"slot": "14",
						"type": "t_uint256"
					},
					{
						"astId": 68,
						"contract": "contracts/LandFiStake.sol:LandFiStaking",
						"label": "box3Enabled",
						"offset": 0,
						"slot": "15",
						"type": "t_bool"
					},
					{
						"astId": 72,
						"contract": "contracts/LandFiStake.sol:LandFiStaking",
						"label": "box4Balance",
						"offset": 0,
						"slot": "16",
						"type": "t_mapping(t_address,t_uint256)"
					},
					{
						"astId": 76,
						"contract": "contracts/LandFiStake.sol:LandFiStaking",
						"label": "box4DepositDate",
						"offset": 0,
						"slot": "17",
						"type": "t_mapping(t_address,t_uint256)"
					},
					{
						"astId": 78,
						"contract": "contracts/LandFiStake.sol:LandFiStaking",
						"label": "box4Rate",
						"offset": 0,
						"slot": "18",
						"type": "t_uint256"
					},
					{
						"astId": 80,
						"contract": "contracts/LandFiStake.sol:LandFiStaking",
						"label": "box4Time",
						"offset": 0,
						"slot": "19",
						"type": "t_uint256"
					},
					{
						"astId": 82,
						"contract": "contracts/LandFiStake.sol:LandFiStaking",
						"label": "box4Enabled",
						"offset": 0,
						"slot": "20",
						"type": "t_bool"
					},
					{
						"astId": 87,
						"contract": "contracts/LandFiStake.sol:LandFiStaking",
						"label": "maxStake",
						"offset": 0,
						"slot": "21",
						"type": "t_uint256"
					},
					{
						"astId": 89,
						"contract": "contracts/LandFiStake.sol:LandFiStaking",
						"label": "stakeWallet",
						"offset": 0,
						"slot": "22",
						"type": "t_address"
					},
					{
						"astId": 91,
						"contract": "contracts/LandFiStake.sol:LandFiStaking",
						"label": "rewardWallet",
						"offset": 0,
						"slot": "23",
						"type": "t_address"
					},
					{
						"astId": 93,
						"contract": "contracts/LandFiStake.sol:LandFiStaking",
						"label": "tokenAddress",
						"offset": 0,
						"slot": "24",
						"type": "t_address"
					},
					{
						"astId": 95,
						"contract": "contracts/LandFiStake.sol:LandFiStaking",
						"label": "minStake",
						"offset": 0,
						"slot": "25",
						"type": "t_uint256"
					},
					{
						"astId": 97,
						"contract": "contracts/LandFiStake.sol:LandFiStaking",
						"label": "rewardCountDue",
						"offset": 0,
						"slot": "26",
						"type": "t_uint256"
					},
					{
						"astId": 99,
						"contract": "contracts/LandFiStake.sol:LandFiStaking",
						"label": "rewardCount",
						"offset": 0,
						"slot": "27",
						"type": "t_uint256"
					},
					{
						"astId": 101,
						"contract": "contracts/LandFiStake.sol:LandFiStaking",
						"label": "totalStaked",
						"offset": 0,
						"slot": "28",
						"type": "t_uint256"
					},
					{
						"astId": 103,
						"contract": "contracts/LandFiStake.sol:LandFiStaking",
						"label": "maxRewardDue",
						"offset": 0,
						"slot": "29",
						"type": "t_uint256"
					},
					{
						"astId": 105,
						"contract": "contracts/LandFiStake.sol:LandFiStaking",
						"label": "fullUnlock",
						"offset": 0,
						"slot": "30",
						"type": "t_bool"
					}
				],
				"types": {
					"t_address": {
						"encoding": "inplace",
						"label": "address",
						"numberOfBytes": "20"
					},
					"t_bool": {
						"encoding": "inplace",
						"label": "bool",
						"numberOfBytes": "1"
					},
					"t_mapping(t_address,t_uint256)": {
						"encoding": "mapping",
						"key": "t_address",
						"label": "mapping(address => uint256)",
						"numberOfBytes": "32",
						"value": "t_uint256"
					},
					"t_uint256": {
						"encoding": "inplace",
						"label": "uint256",
						"numberOfBytes": "32"
					}
				}
			},
			"userdoc": {
				"kind": "user",
				"methods": {},
				"version": 1
			}
		}
	}
}