{
	"contracts/LandFIStake2.sol": {
		"LandFiStakingWithRewards": {
			"abi": [
				{
					"inputs": [
						{
							"internalType": "address",
							"name": "_landFiToken",
							"type": "address"
						},
						{
							"internalType": "address",
							"name": "_rewardToken",
							"type": "address"
						},
						{
							"internalType": "uint256",
							"name": "_stakeDuration",
							"type": "uint256"
						},
						{
							"internalType": "uint256",
							"name": "_maxStake",
							"type": "uint256"
						},
						{
							"internalType": "uint256",
							"name": "_minStake",
							"type": "uint256"
						}
					],
					"stateMutability": "nonpayable",
					"type": "constructor"
				},
				{
					"inputs": [
						{
							"internalType": "address",
							"name": "owner",
							"type": "address"
						}
					],
					"name": "OwnableInvalidOwner",
					"type": "error"
				},
				{
					"inputs": [
						{
							"internalType": "address",
							"name": "account",
							"type": "address"
						}
					],
					"name": "OwnableUnauthorizedAccount",
					"type": "error"
				},
				{
					"inputs": [
						{
							"internalType": "address",
							"name": "token",
							"type": "address"
						}
					],
					"name": "SafeERC20FailedOperation",
					"type": "error"
				},
				{
					"anonymous": false,
					"inputs": [
						{
							"indexed": true,
							"internalType": "address",
							"name": "previousOwner",
							"type": "address"
						},
						{
							"indexed": true,
							"internalType": "address",
							"name": "newOwner",
							"type": "address"
						}
					],
					"name": "OwnershipTransferred",
					"type": "event"
				},
				{
					"anonymous": false,
					"inputs": [
						{
							"indexed": true,
							"internalType": "address",
							"name": "user",
							"type": "address"
						},
						{
							"indexed": false,
							"internalType": "uint256",
							"name": "amount",
							"type": "uint256"
						},
						{
							"indexed": false,
							"internalType": "uint256",
							"name": "timestamp",
							"type": "uint256"
						}
					],
					"name": "Staked",
					"type": "event"
				},
				{
					"anonymous": false,
					"inputs": [
						{
							"indexed": true,
							"internalType": "address",
							"name": "user",
							"type": "address"
						},
						{
							"indexed": false,
							"internalType": "uint256",
							"name": "amount",
							"type": "uint256"
						},
						{
							"indexed": false,
							"internalType": "uint256",
							"name": "reward",
							"type": "uint256"
						},
						{
							"indexed": false,
							"internalType": "uint256",
							"name": "timestamp",
							"type": "uint256"
						}
					],
					"name": "Withdrawn",
					"type": "event"
				},
				{
					"inputs": [
						{
							"internalType": "address",
							"name": "user",
							"type": "address"
						}
					],
					"name": "balanceOf",
					"outputs": [
						{
							"internalType": "uint256",
							"name": "",
							"type": "uint256"
						}
					],
					"stateMutability": "view",
					"type": "function"
				},
				{
					"inputs": [
						{
							"internalType": "address",
							"name": "user",
							"type": "address"
						}
					],
					"name": "calculateReward",
					"outputs": [
						{
							"internalType": "uint256",
							"name": "",
							"type": "uint256"
						}
					],
					"stateMutability": "view",
					"type": "function"
				},
				{
					"inputs": [
						{
							"internalType": "bool",
							"name": "_fullUnlock",
							"type": "bool"
						}
					],
					"name": "changeFullUnlock",
					"outputs": [],
					"stateMutability": "nonpayable",
					"type": "function"
				},
				{
					"inputs": [
						{
							"internalType": "uint256",
							"name": "_maxStake",
							"type": "uint256"
						}
					],
					"name": "changeMaxStake",
					"outputs": [],
					"stateMutability": "nonpayable",
					"type": "function"
				},
				{
					"inputs": [
						{
							"internalType": "uint256",
							"name": "_minStake",
							"type": "uint256"
						}
					],
					"name": "changeMinStake",
					"outputs": [],
					"stateMutability": "nonpayable",
					"type": "function"
				},
				{
					"inputs": [
						{
							"internalType": "uint256",
							"name": "_newDuration",
							"type": "uint256"
						}
					],
					"name": "changeStakeDuration",
					"outputs": [],
					"stateMutability": "nonpayable",
					"type": "function"
				},
				{
					"inputs": [
						{
							"internalType": "address",
							"name": "",
							"type": "address"
						}
					],
					"name": "depositTimestamps",
					"outputs": [
						{
							"internalType": "uint256",
							"name": "",
							"type": "uint256"
						}
					],
					"stateMutability": "view",
					"type": "function"
				},
				{
					"inputs": [],
					"name": "fullUnlock",
					"outputs": [
						{
							"internalType": "bool",
							"name": "",
							"type": "bool"
						}
					],
					"stateMutability": "view",
					"type": "function"
				},
				{
					"inputs": [],
					"name": "landFiDecimals",
					"outputs": [
						{
							"internalType": "uint8",
							"name": "",
							"type": "uint8"
						}
					],
					"stateMutability": "view",
					"type": "function"
				},
				{
					"inputs": [],
					"name": "landFiToken",
					"outputs": [
						{
							"internalType": "contract IERC20",
							"name": "",
							"type": "address"
						}
					],
					"stateMutability": "view",
					"type": "function"
				},
				{
					"inputs": [],
					"name": "maxStake",
					"outputs": [
						{
							"internalType": "uint256",
							"name": "",
							"type": "uint256"
						}
					],
					"stateMutability": "view",
					"type": "function"
				},
				{
					"inputs": [],
					"name": "minStake",
					"outputs": [
						{
							"internalType": "uint256",
							"name": "",
							"type": "uint256"
						}
					],
					"stateMutability": "view",
					"type": "function"
				},
				{
					"inputs": [],
					"name": "owner",
					"outputs": [
						{
							"internalType": "address",
							"name": "",
							"type": "address"
						}
					],
					"stateMutability": "view",
					"type": "function"
				},
				{
					"inputs": [],
					"name": "renounceOwnership",
					"outputs": [],
					"stateMutability": "nonpayable",
					"type": "function"
				},
				{
					"inputs": [],
					"name": "rewardDecimals",
					"outputs": [
						{
							"internalType": "uint8",
							"name": "",
							"type": "uint8"
						}
					],
					"stateMutability": "view",
					"type": "function"
				},
				{
					"inputs": [],
					"name": "rewardToken",
					"outputs": [
						{
							"internalType": "contract IERC20",
							"name": "",
							"type": "address"
						}
					],
					"stateMutability": "view",
					"type": "function"
				},
				{
					"inputs": [
						{
							"internalType": "uint256",
							"name": "amount",
							"type": "uint256"
						}
					],
					"name": "stake",
					"outputs": [],
					"stateMutability": "nonpayable",
					"type": "function"
				},
				{
					"inputs": [],
					"name": "stakeDuration",
					"outputs": [
						{
							"internalType": "uint256",
							"name": "",
							"type": "uint256"
						}
					],
					"stateMutability": "view",
					"type": "function"
				},
				{
					"inputs": [
						{
							"internalType": "address",
							"name": "user",
							"type": "address"
						}
					],
					"name": "stakeUnlockTime",
					"outputs": [
						{
							"internalType": "uint256",
							"name": "",
							"type": "uint256"
						}
					],
					"stateMutability": "view",
					"type": "function"
				},
				{
					"inputs": [
						{
							"internalType": "address",
							"name": "",
							"type": "address"
						}
					],
					"name": "stakes",
					"outputs": [
						{
							"internalType": "uint256",
							"name": "",
							"type": "uint256"
						}
					],
					"stateMutability": "view",
					"type": "function"
				},
				{
					"inputs": [
						{
							"internalType": "address",
							"name": "newOwner",
							"type": "address"
						}
					],
					"name": "transferOwnership",
					"outputs": [],
					"stateMutability": "nonpayable",
					"type": "function"
				},
				{
					"inputs": [],
					"name": "withdraw",
					"outputs": [],
					"stateMutability": "nonpayable",
					"type": "function"
				}
			],
			"devdoc": {
				"errors": {
					"OwnableInvalidOwner(address)": [
						{
							"details": "The owner is not a valid owner account. (eg. `address(0)`)"
						}
					],
					"OwnableUnauthorizedAccount(address)": [
						{
							"details": "The caller account is not authorized to perform an operation."
						}
					],
					"SafeERC20FailedOperation(address)": [
						{
							"details": "An operation with an ERC-20 token failed."
						}
					]
				},
				"kind": "dev",
				"methods": {
					"owner()": {
						"details": "Returns the address of the current owner."
					},
					"renounceOwnership()": {
						"details": "Leaves the contract without owner. It will not be possible to call `onlyOwner` functions. Can only be called by the current owner. NOTE: Renouncing ownership will leave the contract without an owner, thereby disabling any functionality that is only available to the owner."
					},
					"transferOwnership(address)": {
						"details": "Transfers ownership of the contract to a new account (`newOwner`). Can only be called by the current owner."
					}
				},
				"version": 1
			},
			"evm": {
				"assembly": "    /* \"contracts/LandFIStake2.sol\":313:6120  contract LandFiStakingWithRewards is Ownable(msg.sender), ReentrancyGuard {... */\n  mstore(0x40, 0x0100)\n    /* \"contracts/LandFIStake2.sol\":1226:2096  constructor(... */\n  callvalue\n  dup1\n  iszero\n  tag_1\n  jumpi\n  revert(0x00, 0x00)\ntag_1:\n  pop\n  mload(0x40)\n  sub(codesize, bytecodeSize)\n  dup1\n  bytecodeSize\n  dup4\n  codecopy\n  dup2\n  dup2\n  add\n  0x40\n  mstore\n  dup2\n  add\n  swap1\n  tag_2\n  swap2\n  swap1\n  tag_3\n  jump\t// in\ntag_2:\n    /* \"contracts/LandFIStake2.sol\":358:368  msg.sender */\n  caller\n    /* \"@openzeppelin/contracts/access/Ownable.sol\":1297:1298  0 */\n  0x00\n    /* \"@openzeppelin/contracts/access/Ownable.sol\":1273:1299  initialOwner == address(0) */\n  0xffffffffffffffffffffffffffffffffffffffff\n  and\n    /* \"@openzeppelin/contracts/access/Ownable.sol\":1273:1285  initialOwner */\n  dup2\n    /* \"@openzeppelin/contracts/access/Ownable.sol\":1273:1299  initialOwner == address(0) */\n  0xffffffffffffffffffffffffffffffffffffffff\n  and\n  sub\n    /* \"@openzeppelin/contracts/access/Ownable.sol\":1269:1364  if (initialOwner == address(0)) {... */\n  tag_8\n  jumpi\n    /* \"@openzeppelin/contracts/access/Ownable.sol\":1350:1351  0 */\n  0x00\n    /* \"@openzeppelin/contracts/access/Ownable.sol\":1322:1353  OwnableInvalidOwner(address(0)) */\n  mload(0x40)\n  0x1e4fbdf700000000000000000000000000000000000000000000000000000000\n  dup2\n  mstore\n  0x04\n  add\n  tag_9\n  swap2\n  swap1\n  tag_10\n  jump\t// in\ntag_9:\n  mload(0x40)\n  dup1\n  swap2\n  sub\n  swap1\n  revert\n    /* \"@openzeppelin/contracts/access/Ownable.sol\":1269:1364  if (initialOwner == address(0)) {... */\ntag_8:\n    /* \"@openzeppelin/contracts/access/Ownable.sol\":1373:1405  _transferOwnership(initialOwner) */\n  tag_11\n    /* \"@openzeppelin/contracts/access/Ownable.sol\":1392:1404  initialOwner */\n  dup2\n    /* \"@openzeppelin/contracts/access/Ownable.sol\":1373:1391  _transferOwnership */\n  shl(0x20, tag_12)\n    /* \"@openzeppelin/contracts/access/Ownable.sol\":1373:1405  _transferOwnership(initialOwner) */\n  0x20\n  shr\n  jump\t// in\ntag_11:\n    /* \"@openzeppelin/contracts/access/Ownable.sol\":1225:1412  constructor(address initialOwner) {... */\n  pop\n    /* \"@openzeppelin/contracts/security/ReentrancyGuard.sol\":1716:1717  1 */\n  0x01\n    /* \"@openzeppelin/contracts/security/ReentrancyGuard.sol\":1821:1828  _status */\n  dup1\n    /* \"@openzeppelin/contracts/security/ReentrancyGuard.sol\":1821:1843  _status = _NOT_ENTERED */\n  dup2\n  swap1\n  sstore\n  pop\n    /* \"contracts/LandFIStake2.sol\":1439:1440  0 */\n  0x00\n    /* \"contracts/LandFIStake2.sol\":1415:1441  _landFiToken != address(0) */\n  0xffffffffffffffffffffffffffffffffffffffff\n  and\n    /* \"contracts/LandFIStake2.sol\":1415:1427  _landFiToken */\n  dup6\n    /* \"contracts/LandFIStake2.sol\":1415:1441  _landFiToken != address(0) */\n  0xffffffffffffffffffffffffffffffffffffffff\n  and\n  sub\n    /* \"contracts/LandFIStake2.sol\":1407:1471  require(_landFiToken != address(0), \"LandFi token zero address\") */\n  tag_15\n  jumpi\n  mload(0x40)\n  0x08c379a000000000000000000000000000000000000000000000000000000000\n  dup2\n  mstore\n  0x04\n  add\n  tag_16\n  swap1\n  tag_17\n  jump\t// in\ntag_16:\n  mload(0x40)\n  dup1\n  swap2\n  sub\n  swap1\n  revert\ntag_15:\n    /* \"contracts/LandFIStake2.sol\":1514:1515  0 */\n  0x00\n    /* \"contracts/LandFIStake2.sol\":1490:1516  _rewardToken != address(0) */\n  0xffffffffffffffffffffffffffffffffffffffff\n  and\n    /* \"contracts/LandFIStake2.sol\":1490:1502  _rewardToken */\n  dup5\n    /* \"contracts/LandFIStake2.sol\":1490:1516  _rewardToken != address(0) */\n  0xffffffffffffffffffffffffffffffffffffffff\n  and\n  sub\n    /* \"contracts/LandFIStake2.sol\":1482:1546  require(_rewardToken != address(0), \"Reward token zero address\") */\n  tag_18\n  jumpi\n  mload(0x40)\n  0x08c379a000000000000000000000000000000000000000000000000000000000\n  dup2\n  mstore\n  0x04\n  add\n  tag_19\n  swap1\n  tag_20\n  jump\t// in\ntag_19:\n  mload(0x40)\n  dup1\n  swap2\n  sub\n  swap1\n  revert\ntag_18:\n    /* \"contracts/LandFIStake2.sol\":1582:1583  0 */\n  0x00\n    /* \"contracts/LandFIStake2.sol\":1565:1579  _stakeDuration */\n  dup4\n    /* \"contracts/LandFIStake2.sol\":1565:1583  _stakeDuration > 0 */\n  gt\n    /* \"contracts/LandFIStake2.sol\":1557:1614  require(_stakeDuration > 0, \"Stake duration must be > 0\") */\n  tag_21\n  jumpi\n  mload(0x40)\n  0x08c379a000000000000000000000000000000000000000000000000000000000\n  dup2\n  mstore\n  0x04\n  add\n  tag_22\n  swap1\n  tag_23\n  jump\t// in\ntag_22:\n  mload(0x40)\n  dup1\n  swap2\n  sub\n  swap1\n  revert\ntag_21:\n    /* \"contracts/LandFIStake2.sol\":1645:1646  0 */\n  0x00\n    /* \"contracts/LandFIStake2.sol\":1633:1642  _maxStake */\n  dup3\n    /* \"contracts/LandFIStake2.sol\":1633:1646  _maxStake > 0 */\n  gt\n    /* \"contracts/LandFIStake2.sol\":1625:1672  require(_maxStake > 0, \"Max stake must be > 0\") */\n  tag_24\n  jumpi\n  mload(0x40)\n  0x08c379a000000000000000000000000000000000000000000000000000000000\n  dup2\n  mstore\n  0x04\n  add\n  tag_25\n  swap1\n  tag_26\n  jump\t// in\ntag_25:\n  mload(0x40)\n  dup1\n  swap2\n  sub\n  swap1\n  revert\ntag_24:\n    /* \"contracts/LandFIStake2.sol\":1703:1704  0 */\n  0x00\n    /* \"contracts/LandFIStake2.sol\":1691:1700  _minStake */\n  dup2\n    /* \"contracts/LandFIStake2.sol\":1691:1704  _minStake > 0 */\n  gt\n    /* \"contracts/LandFIStake2.sol\":1691:1730  _minStake > 0 && _minStake <= _maxStake */\n  dup1\n  iszero\n  tag_27\n  jumpi\n  pop\n    /* \"contracts/LandFIStake2.sol\":1721:1730  _maxStake */\n  dup2\n    /* \"contracts/LandFIStake2.sol\":1708:1717  _minStake */\n  dup2\n    /* \"contracts/LandFIStake2.sol\":1708:1730  _minStake <= _maxStake */\n  gt\n  iszero\n    /* \"contracts/LandFIStake2.sol\":1691:1730  _minStake > 0 && _minStake <= _maxStake */\ntag_27:\n    /* \"contracts/LandFIStake2.sol\":1683:1752  require(_minStake > 0 && _minStake <= _maxStake, \"Invalid min stake\") */\n  tag_28\n  jumpi\n  mload(0x40)\n  0x08c379a000000000000000000000000000000000000000000000000000000000\n  dup2\n  mstore\n  0x04\n  add\n  tag_29\n  swap1\n  tag_30\n  jump\t// in\ntag_29:\n  mload(0x40)\n  dup1\n  swap2\n  sub\n  swap1\n  revert\ntag_28:\n    /* \"contracts/LandFIStake2.sol\":1786:1798  _landFiToken */\n  dup5\n    /* \"contracts/LandFIStake2.sol\":1765:1799  landFiToken = IERC20(_landFiToken) */\n  0xffffffffffffffffffffffffffffffffffffffff\n  and\n  0x80\n  dup2\n  0xffffffffffffffffffffffffffffffffffffffff\n  and\n  dup2\n  mstore\n  pop\n  pop\n    /* \"contracts/LandFIStake2.sol\":1831:1843  _rewardToken */\n  dup4\n    /* \"contracts/LandFIStake2.sol\":1810:1844  rewardToken = IERC20(_rewardToken) */\n  0xffffffffffffffffffffffffffffffffffffffff\n  and\n  0xa0\n  dup2\n  0xffffffffffffffffffffffffffffffffffffffff\n  and\n  dup2\n  mstore\n  pop\n  pop\n    /* \"contracts/LandFIStake2.sol\":1874:1900  _getDecimals(_landFiToken) */\n  tag_31\n    /* \"contracts/LandFIStake2.sol\":1887:1899  _landFiToken */\n  dup6\n    /* \"contracts/LandFIStake2.sol\":1874:1886  _getDecimals */\n  shl(0x20, tag_32)\n    /* \"contracts/LandFIStake2.sol\":1874:1900  _getDecimals(_landFiToken) */\n  0x20\n  shr\n  jump\t// in\ntag_31:\n    /* \"contracts/LandFIStake2.sol\":1857:1900  landFiDecimals = _getDecimals(_landFiToken) */\n  0xff\n  and\n  0xc0\n  dup2\n  0xff\n  and\n  dup2\n  mstore\n  pop\n  pop\n    /* \"contracts/LandFIStake2.sol\":1928:1954  _getDecimals(_rewardToken) */\n  tag_33\n    /* \"contracts/LandFIStake2.sol\":1941:1953  _rewardToken */\n  dup5\n    /* \"contracts/LandFIStake2.sol\":1928:1940  _getDecimals */\n  shl(0x20, tag_32)\n    /* \"contracts/LandFIStake2.sol\":1928:1954  _getDecimals(_rewardToken) */\n  0x20\n  shr\n  jump\t// in\ntag_33:\n    /* \"contracts/LandFIStake2.sol\":1911:1954  rewardDecimals = _getDecimals(_rewardToken) */\n  0xff\n  and\n  0xe0\n  dup2\n  0xff\n  and\n  dup2\n  mstore\n  pop\n  pop\n    /* \"contracts/LandFIStake2.sol\":1983:1997  _stakeDuration */\n  dup3\n    /* \"contracts/LandFIStake2.sol\":1967:1980  stakeDuration */\n  0x04\n    /* \"contracts/LandFIStake2.sol\":1967:1997  stakeDuration = _stakeDuration */\n  dup2\n  swap1\n  sstore\n  pop\n    /* \"contracts/LandFIStake2.sol\":2019:2028  _maxStake */\n  dup2\n    /* \"contracts/LandFIStake2.sol\":2008:2016  maxStake */\n  0x05\n    /* \"contracts/LandFIStake2.sol\":2008:2028  maxStake = _maxStake */\n  dup2\n  swap1\n  sstore\n  pop\n    /* \"contracts/LandFIStake2.sol\":2050:2059  _minStake */\n  dup1\n    /* \"contracts/LandFIStake2.sol\":2039:2047  minStake */\n  0x06\n    /* \"contracts/LandFIStake2.sol\":2039:2059  minStake = _minStake */\n  dup2\n  swap1\n  sstore\n  pop\n    /* \"contracts/LandFIStake2.sol\":2083:2088  false */\n  0x00\n    /* \"contracts/LandFIStake2.sol\":2070:2080  fullUnlock */\n  0x07\n  0x00\n    /* \"contracts/LandFIStake2.sol\":2070:2088  fullUnlock = false */\n  0x0100\n  exp\n  dup2\n  sload\n  dup2\n  0xff\n  mul\n  not\n  and\n  swap1\n  dup4\n  iszero\n  iszero\n  mul\n  or\n  swap1\n  sstore\n  pop\n    /* \"contracts/LandFIStake2.sol\":1226:2096  constructor(... */\n  pop\n  pop\n  pop\n  pop\n  pop\n    /* \"contracts/LandFIStake2.sol\":313:6120  contract LandFiStakingWithRewards is Ownable(msg.sender), ReentrancyGuard {... */\n  jump(tag_34)\n    /* \"@openzeppelin/contracts/access/Ownable.sol\":2912:3099  function _transferOwnership(address newOwner) internal virtual {... */\ntag_12:\n    /* \"@openzeppelin/contracts/access/Ownable.sol\":2985:3001  address oldOwner */\n  0x00\n    /* \"@openzeppelin/contracts/access/Ownable.sol\":3004:3010  _owner */\n  0x00\n  0x00\n  swap1\n  sload\n  swap1\n  0x0100\n  exp\n  swap1\n  div\n  0xffffffffffffffffffffffffffffffffffffffff\n  and\n    /* \"@openzeppelin/contracts/access/Ownable.sol\":2985:3010  address oldOwner = _owner */\n  swap1\n  pop\n    /* \"@openzeppelin/contracts/access/Ownable.sol\":3029:3037  newOwner */\n  dup2\n    /* \"@openzeppelin/contracts/access/Ownable.sol\":3020:3026  _owner */\n  0x00\n  0x00\n    /* \"@openzeppelin/contracts/access/Ownable.sol\":3020:3037  _owner = newOwner */\n  0x0100\n  exp\n  dup2\n  sload\n  dup2\n  0xffffffffffffffffffffffffffffffffffffffff\n  mul\n  not\n  and\n  swap1\n  dup4\n  0xffffffffffffffffffffffffffffffffffffffff\n  and\n  mul\n  or\n  swap1\n  sstore\n  pop\n    /* \"@openzeppelin/contracts/access/Ownable.sol\":3083:3091  newOwner */\n  dup2\n    /* \"@openzeppelin/contracts/access/Ownable.sol\":3052:3092  OwnershipTransferred(oldOwner, newOwner) */\n  0xffffffffffffffffffffffffffffffffffffffff\n  and\n    /* \"@openzeppelin/contracts/access/Ownable.sol\":3073:3081  oldOwner */\n  dup2\n    /* \"@openzeppelin/contracts/access/Ownable.sol\":3052:3092  OwnershipTransferred(oldOwner, newOwner) */\n  0xffffffffffffffffffffffffffffffffffffffff\n  and\n  0x8be0079c531659141344cd1fd0a4f28419497f9722a3daafe3b4186f6b6457e0\n  mload(0x40)\n  mload(0x40)\n  dup1\n  swap2\n  sub\n  swap1\n  log3\n    /* \"@openzeppelin/contracts/access/Ownable.sol\":2975:3099  {... */\n  pop\n    /* \"@openzeppelin/contracts/access/Ownable.sol\":2912:3099  function _transferOwnership(address newOwner) internal virtual {... */\n  pop\n  jump\t// out\n    /* \"contracts/LandFIStake2.sol\":2164:2482  function _getDecimals(address token) internal view returns (uint8) {... */\ntag_32:\n    /* \"contracts/LandFIStake2.sol\":2224:2229  uint8 */\n  0x00\n    /* \"contracts/LandFIStake2.sol\":2243:2255  bool success */\n  0x00\n    /* \"contracts/LandFIStake2.sol\":2257:2274  bytes memory data */\n  0x00\n    /* \"contracts/LandFIStake2.sol\":2278:2283  token */\n  dup4\n    /* \"contracts/LandFIStake2.sol\":2278:2294  token.staticcall */\n  0xffffffffffffffffffffffffffffffffffffffff\n  and\n    /* \"contracts/LandFIStake2.sol\":2309:2346  abi.encodeWithSignature(\"decimals()\") */\n  add(0x24, mload(0x40))\n  mload(0x40)\n  0x20\n  dup2\n  dup4\n  sub\n  sub\n  dup2\n  mstore\n  swap1\n  0x40\n  mstore\n  and(not(0xffffffffffffffffffffffffffffffffffffffffffffffffffffffff), 0x313ce56700000000000000000000000000000000000000000000000000000000)\n  0x20\n  dup3\n  add\n  dup1\n  mload\n  0xffffffffffffffffffffffffffffffffffffffffffffffffffffffff\n  dup4\n  dup2\n  dup4\n  and\n  or\n  dup4\n  mstore\n  pop\n  pop\n  pop\n  pop\n    /* \"contracts/LandFIStake2.sol\":2278:2357  token.staticcall(... */\n  mload(0x40)\n  tag_37\n  swap2\n  swap1\n  tag_38\n  jump\t// in\ntag_37:\n  0x00\n  mload(0x40)\n  dup1\n  dup4\n  sub\n  dup2\n  dup6\n  gas\n  staticcall\n  swap2\n  pop\n  pop\n  returndatasize\n  dup1\n  0x00\n  dup2\n  eq\n  tag_41\n  jumpi\n  mload(0x40)\n  swap2\n  pop\n  and(add(returndatasize, 0x3f), not(0x1f))\n  dup3\n  add\n  0x40\n  mstore\n  returndatasize\n  dup3\n  mstore\n  returndatasize\n  0x00\n  0x20\n  dup5\n  add\n  returndatacopy\n  jump(tag_40)\ntag_41:\n  0x60\n  swap2\n  pop\ntag_40:\n  pop\n    /* \"contracts/LandFIStake2.sol\":2242:2357  (bool success, bytes memory data) = token.staticcall(... */\n  swap2\n  pop\n  swap2\n  pop\n    /* \"contracts/LandFIStake2.sol\":2376:2383  success */\n  dup2\n    /* \"contracts/LandFIStake2.sol\":2376:2404  success && data.length == 32 */\n  dup1\n  iszero\n  tag_42\n  jumpi\n  pop\n    /* \"contracts/LandFIStake2.sol\":2402:2404  32 */\n  0x20\n    /* \"contracts/LandFIStake2.sol\":2387:2391  data */\n  dup2\n    /* \"contracts/LandFIStake2.sol\":2387:2398  data.length */\n  mload\n    /* \"contracts/LandFIStake2.sol\":2387:2404  data.length == 32 */\n  eq\n    /* \"contracts/LandFIStake2.sol\":2376:2404  success && data.length == 32 */\ntag_42:\n    /* \"contracts/LandFIStake2.sol\":2368:2431  require(success && data.length == 32, \"Failed to get decimals\") */\n  tag_43\n  jumpi\n  mload(0x40)\n  0x08c379a000000000000000000000000000000000000000000000000000000000\n  dup2\n  mstore\n  0x04\n  add\n  tag_44\n  swap1\n  tag_45\n  jump\t// in\ntag_44:\n  mload(0x40)\n  dup1\n  swap2\n  sub\n  swap1\n  revert\ntag_43:\n    /* \"contracts/LandFIStake2.sol\":2460:2464  data */\n  dup1\n    /* \"contracts/LandFIStake2.sol\":2449:2474  abi.decode(data, (uint8)) */\n  dup1\n  0x20\n  add\n  swap1\n  mload\n  dup2\n  add\n  swap1\n  tag_46\n  swap2\n  swap1\n  tag_47\n  jump\t// in\ntag_46:\n    /* \"contracts/LandFIStake2.sol\":2442:2474  return abi.decode(data, (uint8)) */\n  swap3\n  pop\n  pop\n  pop\n    /* \"contracts/LandFIStake2.sol\":2164:2482  function _getDecimals(address token) internal view returns (uint8) {... */\n  swap2\n  swap1\n  pop\n  jump\t// out\n    /* \"#utility.yul\":88:205   */\ntag_49:\n    /* \"#utility.yul\":197:198   */\n  0x00\n    /* \"#utility.yul\":194:195   */\n  0x00\n    /* \"#utility.yul\":187:199   */\n  revert\n    /* \"#utility.yul\":334:460   */\ntag_51:\n    /* \"#utility.yul\":371:378   */\n  0x00\n    /* \"#utility.yul\":411:453   */\n  0xffffffffffffffffffffffffffffffffffffffff\n    /* \"#utility.yul\":404:409   */\n  dup3\n    /* \"#utility.yul\":400:454   */\n  and\n    /* \"#utility.yul\":389:454   */\n  swap1\n  pop\n    /* \"#utility.yul\":334:460   */\n  swap2\n  swap1\n  pop\n  jump\t// out\n    /* \"#utility.yul\":466:562   */\ntag_52:\n    /* \"#utility.yul\":503:510   */\n  0x00\n    /* \"#utility.yul\":532:556   */\n  tag_85\n    /* \"#utility.yul\":550:555   */\n  dup3\n    /* \"#utility.yul\":532:556   */\n  tag_51\n  jump\t// in\ntag_85:\n    /* \"#utility.yul\":521:556   */\n  swap1\n  pop\n    /* \"#utility.yul\":466:562   */\n  swap2\n  swap1\n  pop\n  jump\t// out\n    /* \"#utility.yul\":568:690   */\ntag_53:\n    /* \"#utility.yul\":641:665   */\n  tag_87\n    /* \"#utility.yul\":659:664   */\n  dup2\n    /* \"#utility.yul\":641:665   */\n  tag_52\n  jump\t// in\ntag_87:\n    /* \"#utility.yul\":634:639   */\n  dup2\n    /* \"#utility.yul\":631:666   */\n  eq\n    /* \"#utility.yul\":621:684   */\n  tag_88\n  jumpi\n    /* \"#utility.yul\":680:681   */\n  0x00\n    /* \"#utility.yul\":677:678   */\n  0x00\n    /* \"#utility.yul\":670:682   */\n  revert\n    /* \"#utility.yul\":621:684   */\ntag_88:\n    /* \"#utility.yul\":568:690   */\n  pop\n  jump\t// out\n    /* \"#utility.yul\":696:839   */\ntag_54:\n    /* \"#utility.yul\":753:758   */\n  0x00\n    /* \"#utility.yul\":784:790   */\n  dup2\n    /* \"#utility.yul\":778:791   */\n  mload\n    /* \"#utility.yul\":769:791   */\n  swap1\n  pop\n    /* \"#utility.yul\":800:833   */\n  tag_90\n    /* \"#utility.yul\":827:832   */\n  dup2\n    /* \"#utility.yul\":800:833   */\n  tag_53\n  jump\t// in\ntag_90:\n    /* \"#utility.yul\":696:839   */\n  swap3\n  swap2\n  pop\n  pop\n  jump\t// out\n    /* \"#utility.yul\":845:922   */\ntag_55:\n    /* \"#utility.yul\":882:889   */\n  0x00\n    /* \"#utility.yul\":911:916   */\n  dup2\n    /* \"#utility.yul\":900:916   */\n  swap1\n  pop\n    /* \"#utility.yul\":845:922   */\n  swap2\n  swap1\n  pop\n  jump\t// out\n    /* \"#utility.yul\":928:1050   */\ntag_56:\n    /* \"#utility.yul\":1001:1025   */\n  tag_93\n    /* \"#utility.yul\":1019:1024   */\n  dup2\n    /* \"#utility.yul\":1001:1025   */\n  tag_55\n  jump\t// in\ntag_93:\n    /* \"#utility.yul\":994:999   */\n  dup2\n    /* \"#utility.yul\":991:1026   */\n  eq\n    /* \"#utility.yul\":981:1044   */\n  tag_94\n  jumpi\n    /* \"#utility.yul\":1040:1041   */\n  0x00\n    /* \"#utility.yul\":1037:1038   */\n  0x00\n    /* \"#utility.yul\":1030:1042   */\n  revert\n    /* \"#utility.yul\":981:1044   */\ntag_94:\n    /* \"#utility.yul\":928:1050   */\n  pop\n  jump\t// out\n    /* \"#utility.yul\":1056:1199   */\ntag_57:\n    /* \"#utility.yul\":1113:1118   */\n  0x00\n    /* \"#utility.yul\":1144:1150   */\n  dup2\n    /* \"#utility.yul\":1138:1151   */\n  mload\n    /* \"#utility.yul\":1129:1151   */\n  swap1\n  pop\n    /* \"#utility.yul\":1160:1193   */\n  tag_96\n    /* \"#utility.yul\":1187:1192   */\n  dup2\n    /* \"#utility.yul\":1160:1193   */\n  tag_56\n  jump\t// in\ntag_96:\n    /* \"#utility.yul\":1056:1199   */\n  swap3\n  swap2\n  pop\n  pop\n  jump\t// out\n    /* \"#utility.yul\":1205:2182   */\ntag_3:\n    /* \"#utility.yul\":1311:1317   */\n  0x00\n    /* \"#utility.yul\":1319:1325   */\n  0x00\n    /* \"#utility.yul\":1327:1333   */\n  0x00\n    /* \"#utility.yul\":1335:1341   */\n  0x00\n    /* \"#utility.yul\":1343:1349   */\n  0x00\n    /* \"#utility.yul\":1392:1395   */\n  0xa0\n    /* \"#utility.yul\":1380:1389   */\n  dup7\n    /* \"#utility.yul\":1371:1378   */\n  dup9\n    /* \"#utility.yul\":1367:1390   */\n  sub\n    /* \"#utility.yul\":1363:1396   */\n  slt\n    /* \"#utility.yul\":1360:1480   */\n  iszero\n  tag_98\n  jumpi\n    /* \"#utility.yul\":1399:1478   */\n  tag_99\n  tag_49\n  jump\t// in\ntag_99:\n    /* \"#utility.yul\":1360:1480   */\ntag_98:\n    /* \"#utility.yul\":1519:1520   */\n  0x00\n    /* \"#utility.yul\":1544:1608   */\n  tag_100\n    /* \"#utility.yul\":1600:1607   */\n  dup9\n    /* \"#utility.yul\":1591:1597   */\n  dup3\n    /* \"#utility.yul\":1580:1589   */\n  dup10\n    /* \"#utility.yul\":1576:1598   */\n  add\n    /* \"#utility.yul\":1544:1608   */\n  tag_54\n  jump\t// in\ntag_100:\n    /* \"#utility.yul\":1534:1608   */\n  swap6\n  pop\n    /* \"#utility.yul\":1490:1618   */\n  pop\n    /* \"#utility.yul\":1657:1659   */\n  0x20\n    /* \"#utility.yul\":1683:1747   */\n  tag_101\n    /* \"#utility.yul\":1739:1746   */\n  dup9\n    /* \"#utility.yul\":1730:1736   */\n  dup3\n    /* \"#utility.yul\":1719:1728   */\n  dup10\n    /* \"#utility.yul\":1715:1737   */\n  add\n    /* \"#utility.yul\":1683:1747   */\n  tag_54\n  jump\t// in\ntag_101:\n    /* \"#utility.yul\":1673:1747   */\n  swap5\n  pop\n    /* \"#utility.yul\":1628:1757   */\n  pop\n    /* \"#utility.yul\":1796:1798   */\n  0x40\n    /* \"#utility.yul\":1822:1886   */\n  tag_102\n    /* \"#utility.yul\":1878:1885   */\n  dup9\n    /* \"#utility.yul\":1869:1875   */\n  dup3\n    /* \"#utility.yul\":1858:1867   */\n  dup10\n    /* \"#utility.yul\":1854:1876   */\n  add\n    /* \"#utility.yul\":1822:1886   */\n  tag_57\n  jump\t// in\ntag_102:\n    /* \"#utility.yul\":1812:1886   */\n  swap4\n  pop\n    /* \"#utility.yul\":1767:1896   */\n  pop\n    /* \"#utility.yul\":1935:1937   */\n  0x60\n    /* \"#utility.yul\":1961:2025   */\n  tag_103\n    /* \"#utility.yul\":2017:2024   */\n  dup9\n    /* \"#utility.yul\":2008:2014   */\n  dup3\n    /* \"#utility.yul\":1997:2006   */\n  dup10\n    /* \"#utility.yul\":1993:2015   */\n  add\n    /* \"#utility.yul\":1961:2025   */\n  tag_57\n  jump\t// in\ntag_103:\n    /* \"#utility.yul\":1951:2025   */\n  swap3\n  pop\n    /* \"#utility.yul\":1906:2035   */\n  pop\n    /* \"#utility.yul\":2074:2077   */\n  0x80\n    /* \"#utility.yul\":2101:2165   */\n  tag_104\n    /* \"#utility.yul\":2157:2164   */\n  dup9\n    /* \"#utility.yul\":2148:2154   */\n  dup3\n    /* \"#utility.yul\":2137:2146   */\n  dup10\n    /* \"#utility.yul\":2133:2155   */\n  add\n    /* \"#utility.yul\":2101:2165   */\n  tag_57\n  jump\t// in\ntag_104:\n    /* \"#utility.yul\":2091:2165   */\n  swap2\n  pop\n    /* \"#utility.yul\":2045:2175   */\n  pop\n    /* \"#utility.yul\":1205:2182   */\n  swap3\n  swap6\n  pop\n  swap3\n  swap6\n  swap1\n  swap4\n  pop\n  jump\t// out\n    /* \"#utility.yul\":2188:2306   */\ntag_58:\n    /* \"#utility.yul\":2275:2299   */\n  tag_106\n    /* \"#utility.yul\":2293:2298   */\n  dup2\n    /* \"#utility.yul\":2275:2299   */\n  tag_52\n  jump\t// in\ntag_106:\n    /* \"#utility.yul\":2270:2273   */\n  dup3\n    /* \"#utility.yul\":2263:2300   */\n  mstore\n    /* \"#utility.yul\":2188:2306   */\n  pop\n  pop\n  jump\t// out\n    /* \"#utility.yul\":2312:2534   */\ntag_10:\n    /* \"#utility.yul\":2405:2409   */\n  0x00\n    /* \"#utility.yul\":2443:2445   */\n  0x20\n    /* \"#utility.yul\":2432:2441   */\n  dup3\n    /* \"#utility.yul\":2428:2446   */\n  add\n    /* \"#utility.yul\":2420:2446   */\n  swap1\n  pop\n    /* \"#utility.yul\":2456:2527   */\n  tag_108\n    /* \"#utility.yul\":2524:2525   */\n  0x00\n    /* \"#utility.yul\":2513:2522   */\n  dup4\n    /* \"#utility.yul\":2509:2526   */\n  add\n    /* \"#utility.yul\":2500:2506   */\n  dup5\n    /* \"#utility.yul\":2456:2527   */\n  tag_58\n  jump\t// in\ntag_108:\n    /* \"#utility.yul\":2312:2534   */\n  swap3\n  swap2\n  pop\n  pop\n  jump\t// out\n    /* \"#utility.yul\":2540:2709   */\ntag_59:\n    /* \"#utility.yul\":2624:2635   */\n  0x00\n    /* \"#utility.yul\":2658:2664   */\n  dup3\n    /* \"#utility.yul\":2653:2656   */\n  dup3\n    /* \"#utility.yul\":2646:2665   */\n  mstore\n    /* \"#utility.yul\":2698:2702   */\n  0x20\n    /* \"#utility.yul\":2693:2696   */\n  dup3\n    /* \"#utility.yul\":2689:2703   */\n  add\n    /* \"#utility.yul\":2674:2703   */\n  swap1\n  pop\n    /* \"#utility.yul\":2540:2709   */\n  swap3\n  swap2\n  pop\n  pop\n  jump\t// out\n    /* \"#utility.yul\":2715:2890   */\ntag_60:\n    /* \"#utility.yul\":2855:2882   */\n  0x4c616e64466920746f6b656e207a65726f206164647265737300000000000000\n    /* \"#utility.yul\":2851:2852   */\n  0x00\n    /* \"#utility.yul\":2843:2849   */\n  dup3\n    /* \"#utility.yul\":2839:2853   */\n  add\n    /* \"#utility.yul\":2832:2883   */\n  mstore\n    /* \"#utility.yul\":2715:2890   */\n  pop\n  jump\t// out\n    /* \"#utility.yul\":2896:3262   */\ntag_61:\n    /* \"#utility.yul\":3038:3041   */\n  0x00\n    /* \"#utility.yul\":3059:3126   */\n  tag_112\n    /* \"#utility.yul\":3123:3125   */\n  0x19\n    /* \"#utility.yul\":3118:3121   */\n  dup4\n    /* \"#utility.yul\":3059:3126   */\n  tag_59\n  jump\t// in\ntag_112:\n    /* \"#utility.yul\":3052:3126   */\n  swap2\n  pop\n    /* \"#utility.yul\":3135:3228   */\n  tag_113\n    /* \"#utility.yul\":3224:3227   */\n  dup3\n    /* \"#utility.yul\":3135:3228   */\n  tag_60\n  jump\t// in\ntag_113:\n    /* \"#utility.yul\":3253:3255   */\n  0x20\n    /* \"#utility.yul\":3248:3251   */\n  dup3\n    /* \"#utility.yul\":3244:3256   */\n  add\n    /* \"#utility.yul\":3237:3256   */\n  swap1\n  pop\n    /* \"#utility.yul\":2896:3262   */\n  swap2\n  swap1\n  pop\n  jump\t// out\n    /* \"#utility.yul\":3268:3687   */\ntag_17:\n    /* \"#utility.yul\":3434:3438   */\n  0x00\n    /* \"#utility.yul\":3472:3474   */\n  0x20\n    /* \"#utility.yul\":3461:3470   */\n  dup3\n    /* \"#utility.yul\":3457:3475   */\n  add\n    /* \"#utility.yul\":3449:3475   */\n  swap1\n  pop\n    /* \"#utility.yul\":3521:3530   */\n  dup2\n    /* \"#utility.yul\":3515:3519   */\n  dup2\n    /* \"#utility.yul\":3511:3531   */\n  sub\n    /* \"#utility.yul\":3507:3508   */\n  0x00\n    /* \"#utility.yul\":3496:3505   */\n  dup4\n    /* \"#utility.yul\":3492:3509   */\n  add\n    /* \"#utility.yul\":3485:3532   */\n  mstore\n    /* \"#utility.yul\":3549:3680   */\n  tag_115\n    /* \"#utility.yul\":3675:3679   */\n  dup2\n    /* \"#utility.yul\":3549:3680   */\n  tag_61\n  jump\t// in\ntag_115:\n    /* \"#utility.yul\":3541:3680   */\n  swap1\n  pop\n    /* \"#utility.yul\":3268:3687   */\n  swap2\n  swap1\n  pop\n  jump\t// out\n    /* \"#utility.yul\":3693:3868   */\ntag_62:\n    /* \"#utility.yul\":3833:3860   */\n  0x52657761726420746f6b656e207a65726f206164647265737300000000000000\n    /* \"#utility.yul\":3829:3830   */\n  0x00\n    /* \"#utility.yul\":3821:3827   */\n  dup3\n    /* \"#utility.yul\":3817:3831   */\n  add\n    /* \"#utility.yul\":3810:3861   */\n  mstore\n    /* \"#utility.yul\":3693:3868   */\n  pop\n  jump\t// out\n    /* \"#utility.yul\":3874:4240   */\ntag_63:\n    /* \"#utility.yul\":4016:4019   */\n  0x00\n    /* \"#utility.yul\":4037:4104   */\n  tag_118\n    /* \"#utility.yul\":4101:4103   */\n  0x19\n    /* \"#utility.yul\":4096:4099   */\n  dup4\n    /* \"#utility.yul\":4037:4104   */\n  tag_59\n  jump\t// in\ntag_118:\n    /* \"#utility.yul\":4030:4104   */\n  swap2\n  pop\n    /* \"#utility.yul\":4113:4206   */\n  tag_119\n    /* \"#utility.yul\":4202:4205   */\n  dup3\n    /* \"#utility.yul\":4113:4206   */\n  tag_62\n  jump\t// in\ntag_119:\n    /* \"#utility.yul\":4231:4233   */\n  0x20\n    /* \"#utility.yul\":4226:4229   */\n  dup3\n    /* \"#utility.yul\":4222:4234   */\n  add\n    /* \"#utility.yul\":4215:4234   */\n  swap1\n  pop\n    /* \"#utility.yul\":3874:4240   */\n  swap2\n  swap1\n  pop\n  jump\t// out\n    /* \"#utility.yul\":4246:4665   */\ntag_20:\n    /* \"#utility.yul\":4412:4416   */\n  0x00\n    /* \"#utility.yul\":4450:4452   */\n  0x20\n    /* \"#utility.yul\":4439:4448   */\n  dup3\n    /* \"#utility.yul\":4435:4453   */\n  add\n    /* \"#utility.yul\":4427:4453   */\n  swap1\n  pop\n    /* \"#utility.yul\":4499:4508   */\n  dup2\n    /* \"#utility.yul\":4493:4497   */\n  dup2\n    /* \"#utility.yul\":4489:4509   */\n  sub\n    /* \"#utility.yul\":4485:4486   */\n  0x00\n    /* \"#utility.yul\":4474:4483   */\n  dup4\n    /* \"#utility.yul\":4470:4487   */\n  add\n    /* \"#utility.yul\":4463:4510   */\n  mstore\n    /* \"#utility.yul\":4527:4658   */\n  tag_121\n    /* \"#utility.yul\":4653:4657   */\n  dup2\n    /* \"#utility.yul\":4527:4658   */\n  tag_63\n  jump\t// in\ntag_121:\n    /* \"#utility.yul\":4519:4658   */\n  swap1\n  pop\n    /* \"#utility.yul\":4246:4665   */\n  swap2\n  swap1\n  pop\n  jump\t// out\n    /* \"#utility.yul\":4671:4847   */\ntag_64:\n    /* \"#utility.yul\":4811:4839   */\n  0x5374616b65206475726174696f6e206d757374206265203e2030000000000000\n    /* \"#utility.yul\":4807:4808   */\n  0x00\n    /* \"#utility.yul\":4799:4805   */\n  dup3\n    /* \"#utility.yul\":4795:4809   */\n  add\n    /* \"#utility.yul\":4788:4840   */\n  mstore\n    /* \"#utility.yul\":4671:4847   */\n  pop\n  jump\t// out\n    /* \"#utility.yul\":4853:5219   */\ntag_65:\n    /* \"#utility.yul\":4995:4998   */\n  0x00\n    /* \"#utility.yul\":5016:5083   */\n  tag_124\n    /* \"#utility.yul\":5080:5082   */\n  0x1a\n    /* \"#utility.yul\":5075:5078   */\n  dup4\n    /* \"#utility.yul\":5016:5083   */\n  tag_59\n  jump\t// in\ntag_124:\n    /* \"#utility.yul\":5009:5083   */\n  swap2\n  pop\n    /* \"#utility.yul\":5092:5185   */\n  tag_125\n    /* \"#utility.yul\":5181:5184   */\n  dup3\n    /* \"#utility.yul\":5092:5185   */\n  tag_64\n  jump\t// in\ntag_125:\n    /* \"#utility.yul\":5210:5212   */\n  0x20\n    /* \"#utility.yul\":5205:5208   */\n  dup3\n    /* \"#utility.yul\":5201:5213   */\n  add\n    /* \"#utility.yul\":5194:5213   */\n  swap1\n  pop\n    /* \"#utility.yul\":4853:5219   */\n  swap2\n  swap1\n  pop\n  jump\t// out\n    /* \"#utility.yul\":5225:5644   */\ntag_23:\n    /* \"#utility.yul\":5391:5395   */\n  0x00\n    /* \"#utility.yul\":5429:5431   */\n  0x20\n    /* \"#utility.yul\":5418:5427   */\n  dup3\n    /* \"#utility.yul\":5414:5432   */\n  add\n    /* \"#utility.yul\":5406:5432   */\n  swap1\n  pop\n    /* \"#utility.yul\":5478:5487   */\n  dup2\n    /* \"#utility.yul\":5472:5476   */\n  dup2\n    /* \"#utility.yul\":5468:5488   */\n  sub\n    /* \"#utility.yul\":5464:5465   */\n  0x00\n    /* \"#utility.yul\":5453:5462   */\n  dup4\n    /* \"#utility.yul\":5449:5466   */\n  add\n    /* \"#utility.yul\":5442:5489   */\n  mstore\n    /* \"#utility.yul\":5506:5637   */\n  tag_127\n    /* \"#utility.yul\":5632:5636   */\n  dup2\n    /* \"#utility.yul\":5506:5637   */\n  tag_65\n  jump\t// in\ntag_127:\n    /* \"#utility.yul\":5498:5637   */\n  swap1\n  pop\n    /* \"#utility.yul\":5225:5644   */\n  swap2\n  swap1\n  pop\n  jump\t// out\n    /* \"#utility.yul\":5650:5821   */\ntag_66:\n    /* \"#utility.yul\":5790:5813   */\n  0x4d6178207374616b65206d757374206265203e20300000000000000000000000\n    /* \"#utility.yul\":5786:5787   */\n  0x00\n    /* \"#utility.yul\":5778:5784   */\n  dup3\n    /* \"#utility.yul\":5774:5788   */\n  add\n    /* \"#utility.yul\":5767:5814   */\n  mstore\n    /* \"#utility.yul\":5650:5821   */\n  pop\n  jump\t// out\n    /* \"#utility.yul\":5827:6193   */\ntag_67:\n    /* \"#utility.yul\":5969:5972   */\n  0x00\n    /* \"#utility.yul\":5990:6057   */\n  tag_130\n    /* \"#utility.yul\":6054:6056   */\n  0x15\n    /* \"#utility.yul\":6049:6052   */\n  dup4\n    /* \"#utility.yul\":5990:6057   */\n  tag_59\n  jump\t// in\ntag_130:\n    /* \"#utility.yul\":5983:6057   */\n  swap2\n  pop\n    /* \"#utility.yul\":6066:6159   */\n  tag_131\n    /* \"#utility.yul\":6155:6158   */\n  dup3\n    /* \"#utility.yul\":6066:6159   */\n  tag_66\n  jump\t// in\ntag_131:\n    /* \"#utility.yul\":6184:6186   */\n  0x20\n    /* \"#utility.yul\":6179:6182   */\n  dup3\n    /* \"#utility.yul\":6175:6187   */\n  add\n    /* \"#utility.yul\":6168:6187   */\n  swap1\n  pop\n    /* \"#utility.yul\":5827:6193   */\n  swap2\n  swap1\n  pop\n  jump\t// out\n    /* \"#utility.yul\":6199:6618   */\ntag_26:\n    /* \"#utility.yul\":6365:6369   */\n  0x00\n    /* \"#utility.yul\":6403:6405   */\n  0x20\n    /* \"#utility.yul\":6392:6401   */\n  dup3\n    /* \"#utility.yul\":6388:6406   */\n  add\n    /* \"#utility.yul\":6380:6406   */\n  swap1\n  pop\n    /* \"#utility.yul\":6452:6461   */\n  dup2\n    /* \"#utility.yul\":6446:6450   */\n  dup2\n    /* \"#utility.yul\":6442:6462   */\n  sub\n    /* \"#utility.yul\":6438:6439   */\n  0x00\n    /* \"#utility.yul\":6427:6436   */\n  dup4\n    /* \"#utility.yul\":6423:6440   */\n  add\n    /* \"#utility.yul\":6416:6463   */\n  mstore\n    /* \"#utility.yul\":6480:6611   */\n  tag_133\n    /* \"#utility.yul\":6606:6610   */\n  dup2\n    /* \"#utility.yul\":6480:6611   */\n  tag_67\n  jump\t// in\ntag_133:\n    /* \"#utility.yul\":6472:6611   */\n  swap1\n  pop\n    /* \"#utility.yul\":6199:6618   */\n  swap2\n  swap1\n  pop\n  jump\t// out\n    /* \"#utility.yul\":6624:6791   */\ntag_68:\n    /* \"#utility.yul\":6764:6783   */\n  0x496e76616c6964206d696e207374616b65000000000000000000000000000000\n    /* \"#utility.yul\":6760:6761   */\n  0x00\n    /* \"#utility.yul\":6752:6758   */\n  dup3\n    /* \"#utility.yul\":6748:6762   */\n  add\n    /* \"#utility.yul\":6741:6784   */\n  mstore\n    /* \"#utility.yul\":6624:6791   */\n  pop\n  jump\t// out\n    /* \"#utility.yul\":6797:7163   */\ntag_69:\n    /* \"#utility.yul\":6939:6942   */\n  0x00\n    /* \"#utility.yul\":6960:7027   */\n  tag_136\n    /* \"#utility.yul\":7024:7026   */\n  0x11\n    /* \"#utility.yul\":7019:7022   */\n  dup4\n    /* \"#utility.yul\":6960:7027   */\n  tag_59\n  jump\t// in\ntag_136:\n    /* \"#utility.yul\":6953:7027   */\n  swap2\n  pop\n    /* \"#utility.yul\":7036:7129   */\n  tag_137\n    /* \"#utility.yul\":7125:7128   */\n  dup3\n    /* \"#utility.yul\":7036:7129   */\n  tag_68\n  jump\t// in\ntag_137:\n    /* \"#utility.yul\":7154:7156   */\n  0x20\n    /* \"#utility.yul\":7149:7152   */\n  dup3\n    /* \"#utility.yul\":7145:7157   */\n  add\n    /* \"#utility.yul\":7138:7157   */\n  swap1\n  pop\n    /* \"#utility.yul\":6797:7163   */\n  swap2\n  swap1\n  pop\n  jump\t// out\n    /* \"#utility.yul\":7169:7588   */\ntag_30:\n    /* \"#utility.yul\":7335:7339   */\n  0x00\n    /* \"#utility.yul\":7373:7375   */\n  0x20\n    /* \"#utility.yul\":7362:7371   */\n  dup3\n    /* \"#utility.yul\":7358:7376   */\n  add\n    /* \"#utility.yul\":7350:7376   */\n  swap1\n  pop\n    /* \"#utility.yul\":7422:7431   */\n  dup2\n    /* \"#utility.yul\":7416:7420   */\n  dup2\n    /* \"#utility.yul\":7412:7432   */\n  sub\n    /* \"#utility.yul\":7408:7409   */\n  0x00\n    /* \"#utility.yul\":7397:7406   */\n  dup4\n    /* \"#utility.yul\":7393:7410   */\n  add\n    /* \"#utility.yul\":7386:7433   */\n  mstore\n    /* \"#utility.yul\":7450:7581   */\n  tag_139\n    /* \"#utility.yul\":7576:7580   */\n  dup2\n    /* \"#utility.yul\":7450:7581   */\n  tag_69\n  jump\t// in\ntag_139:\n    /* \"#utility.yul\":7442:7581   */\n  swap1\n  pop\n    /* \"#utility.yul\":7169:7588   */\n  swap2\n  swap1\n  pop\n  jump\t// out\n    /* \"#utility.yul\":7594:7692   */\ntag_70:\n    /* \"#utility.yul\":7645:7651   */\n  0x00\n    /* \"#utility.yul\":7679:7684   */\n  dup2\n    /* \"#utility.yul\":7673:7685   */\n  mload\n    /* \"#utility.yul\":7663:7685   */\n  swap1\n  pop\n    /* \"#utility.yul\":7594:7692   */\n  swap2\n  swap1\n  pop\n  jump\t// out\n    /* \"#utility.yul\":7698:7845   */\ntag_71:\n    /* \"#utility.yul\":7799:7810   */\n  0x00\n    /* \"#utility.yul\":7836:7839   */\n  dup2\n    /* \"#utility.yul\":7821:7839   */\n  swap1\n  pop\n    /* \"#utility.yul\":7698:7845   */\n  swap3\n  swap2\n  pop\n  pop\n  jump\t// out\n    /* \"#utility.yul\":7851:7990   */\ntag_72:\n    /* \"#utility.yul\":7940:7946   */\n  dup3\n    /* \"#utility.yul\":7935:7938   */\n  dup2\n    /* \"#utility.yul\":7930:7933   */\n  dup4\n    /* \"#utility.yul\":7924:7947   */\n  mcopy\n    /* \"#utility.yul\":7981:7982   */\n  0x00\n    /* \"#utility.yul\":7972:7978   */\n  dup4\n    /* \"#utility.yul\":7967:7970   */\n  dup4\n    /* \"#utility.yul\":7963:7979   */\n  add\n    /* \"#utility.yul\":7956:7983   */\n  mstore\n    /* \"#utility.yul\":7851:7990   */\n  pop\n  pop\n  pop\n  jump\t// out\n    /* \"#utility.yul\":7996:8382   */\ntag_73:\n    /* \"#utility.yul\":8100:8103   */\n  0x00\n    /* \"#utility.yul\":8128:8166   */\n  tag_144\n    /* \"#utility.yul\":8160:8165   */\n  dup3\n    /* \"#utility.yul\":8128:8166   */\n  tag_70\n  jump\t// in\ntag_144:\n    /* \"#utility.yul\":8182:8270   */\n  tag_145\n    /* \"#utility.yul\":8263:8269   */\n  dup2\n    /* \"#utility.yul\":8258:8261   */\n  dup6\n    /* \"#utility.yul\":8182:8270   */\n  tag_71\n  jump\t// in\ntag_145:\n    /* \"#utility.yul\":8175:8270   */\n  swap4\n  pop\n    /* \"#utility.yul\":8279:8344   */\n  tag_146\n    /* \"#utility.yul\":8337:8343   */\n  dup2\n    /* \"#utility.yul\":8332:8335   */\n  dup6\n    /* \"#utility.yul\":8325:8329   */\n  0x20\n    /* \"#utility.yul\":8318:8323   */\n  dup7\n    /* \"#utility.yul\":8314:8330   */\n  add\n    /* \"#utility.yul\":8279:8344   */\n  tag_72\n  jump\t// in\ntag_146:\n    /* \"#utility.yul\":8369:8375   */\n  dup1\n    /* \"#utility.yul\":8364:8367   */\n  dup5\n    /* \"#utility.yul\":8360:8376   */\n  add\n    /* \"#utility.yul\":8353:8376   */\n  swap2\n  pop\n    /* \"#utility.yul\":8104:8382   */\n  pop\n    /* \"#utility.yul\":7996:8382   */\n  swap3\n  swap2\n  pop\n  pop\n  jump\t// out\n    /* \"#utility.yul\":8388:8659   */\ntag_38:\n    /* \"#utility.yul\":8518:8521   */\n  0x00\n    /* \"#utility.yul\":8540:8633   */\n  tag_148\n    /* \"#utility.yul\":8629:8632   */\n  dup3\n    /* \"#utility.yul\":8620:8626   */\n  dup5\n    /* \"#utility.yul\":8540:8633   */\n  tag_73\n  jump\t// in\ntag_148:\n    /* \"#utility.yul\":8533:8633   */\n  swap2\n  pop\n    /* \"#utility.yul\":8650:8653   */\n  dup2\n    /* \"#utility.yul\":8643:8653   */\n  swap1\n  pop\n    /* \"#utility.yul\":8388:8659   */\n  swap3\n  swap2\n  pop\n  pop\n  jump\t// out\n    /* \"#utility.yul\":8665:8837   */\ntag_74:\n    /* \"#utility.yul\":8805:8829   */\n  0x4661696c656420746f2067657420646563696d616c7300000000000000000000\n    /* \"#utility.yul\":8801:8802   */\n  0x00\n    /* \"#utility.yul\":8793:8799   */\n  dup3\n    /* \"#utility.yul\":8789:8803   */\n  add\n    /* \"#utility.yul\":8782:8830   */\n  mstore\n    /* \"#utility.yul\":8665:8837   */\n  pop\n  jump\t// out\n    /* \"#utility.yul\":8843:9209   */\ntag_75:\n    /* \"#utility.yul\":8985:8988   */\n  0x00\n    /* \"#utility.yul\":9006:9073   */\n  tag_151\n    /* \"#utility.yul\":9070:9072   */\n  0x16\n    /* \"#utility.yul\":9065:9068   */\n  dup4\n    /* \"#utility.yul\":9006:9073   */\n  tag_59\n  jump\t// in\ntag_151:\n    /* \"#utility.yul\":8999:9073   */\n  swap2\n  pop\n    /* \"#utility.yul\":9082:9175   */\n  tag_152\n    /* \"#utility.yul\":9171:9174   */\n  dup3\n    /* \"#utility.yul\":9082:9175   */\n  tag_74\n  jump\t// in\ntag_152:\n    /* \"#utility.yul\":9200:9202   */\n  0x20\n    /* \"#utility.yul\":9195:9198   */\n  dup3\n    /* \"#utility.yul\":9191:9203   */\n  add\n    /* \"#utility.yul\":9184:9203   */\n  swap1\n  pop\n    /* \"#utility.yul\":8843:9209   */\n  swap2\n  swap1\n  pop\n  jump\t// out\n    /* \"#utility.yul\":9215:9634   */\ntag_45:\n    /* \"#utility.yul\":9381:9385   */\n  0x00\n    /* \"#utility.yul\":9419:9421   */\n  0x20\n    /* \"#utility.yul\":9408:9417   */\n  dup3\n    /* \"#utility.yul\":9404:9422   */\n  add\n    /* \"#utility.yul\":9396:9422   */\n  swap1\n  pop\n    /* \"#utility.yul\":9468:9477   */\n  dup2\n    /* \"#utility.yul\":9462:9466   */\n  dup2\n    /* \"#utility.yul\":9458:9478   */\n  sub\n    /* \"#utility.yul\":9454:9455   */\n  0x00\n    /* \"#utility.yul\":9443:9452   */\n  dup4\n    /* \"#utility.yul\":9439:9456   */\n  add\n    /* \"#utility.yul\":9432:9479   */\n  mstore\n    /* \"#utility.yul\":9496:9627   */\n  tag_154\n    /* \"#utility.yul\":9622:9626   */\n  dup2\n    /* \"#utility.yul\":9496:9627   */\n  tag_75\n  jump\t// in\ntag_154:\n    /* \"#utility.yul\":9488:9627   */\n  swap1\n  pop\n    /* \"#utility.yul\":9215:9634   */\n  swap2\n  swap1\n  pop\n  jump\t// out\n    /* \"#utility.yul\":9640:9726   */\ntag_76:\n    /* \"#utility.yul\":9675:9682   */\n  0x00\n    /* \"#utility.yul\":9715:9719   */\n  0xff\n    /* \"#utility.yul\":9708:9713   */\n  dup3\n    /* \"#utility.yul\":9704:9720   */\n  and\n    /* \"#utility.yul\":9693:9720   */\n  swap1\n  pop\n    /* \"#utility.yul\":9640:9726   */\n  swap2\n  swap1\n  pop\n  jump\t// out\n    /* \"#utility.yul\":9732:9850   */\ntag_77:\n    /* \"#utility.yul\":9803:9825   */\n  tag_157\n    /* \"#utility.yul\":9819:9824   */\n  dup2\n    /* \"#utility.yul\":9803:9825   */\n  tag_76\n  jump\t// in\ntag_157:\n    /* \"#utility.yul\":9796:9801   */\n  dup2\n    /* \"#utility.yul\":9793:9826   */\n  eq\n    /* \"#utility.yul\":9783:9844   */\n  tag_158\n  jumpi\n    /* \"#utility.yul\":9840:9841   */\n  0x00\n    /* \"#utility.yul\":9837:9838   */\n  0x00\n    /* \"#utility.yul\":9830:9842   */\n  revert\n    /* \"#utility.yul\":9783:9844   */\ntag_158:\n    /* \"#utility.yul\":9732:9850   */\n  pop\n  jump\t// out\n    /* \"#utility.yul\":9856:9995   */\ntag_78:\n    /* \"#utility.yul\":9911:9916   */\n  0x00\n    /* \"#utility.yul\":9942:9948   */\n  dup2\n    /* \"#utility.yul\":9936:9949   */\n  mload\n    /* \"#utility.yul\":9927:9949   */\n  swap1\n  pop\n    /* \"#utility.yul\":9958:9989   */\n  tag_160\n    /* \"#utility.yul\":9983:9988   */\n  dup2\n    /* \"#utility.yul\":9958:9989   */\n  tag_77\n  jump\t// in\ntag_160:\n    /* \"#utility.yul\":9856:9995   */\n  swap3\n  swap2\n  pop\n  pop\n  jump\t// out\n    /* \"#utility.yul\":10001:10348   */\ntag_47:\n    /* \"#utility.yul\":10069:10075   */\n  0x00\n    /* \"#utility.yul\":10118:10120   */\n  0x20\n    /* \"#utility.yul\":10106:10115   */\n  dup3\n    /* \"#utility.yul\":10097:10104   */\n  dup5\n    /* \"#utility.yul\":10093:10116   */\n  sub\n    /* \"#utility.yul\":10089:10121   */\n  slt\n    /* \"#utility.yul\":10086:10205   */\n  iszero\n  tag_162\n  jumpi\n    /* \"#utility.yul\":10124:10203   */\n  tag_163\n  tag_49\n  jump\t// in\ntag_163:\n    /* \"#utility.yul\":10086:10205   */\ntag_162:\n    /* \"#utility.yul\":10244:10245   */\n  0x00\n    /* \"#utility.yul\":10269:10331   */\n  tag_164\n    /* \"#utility.yul\":10323:10330   */\n  dup5\n    /* \"#utility.yul\":10314:10320   */\n  dup3\n    /* \"#utility.yul\":10303:10312   */\n  dup6\n    /* \"#utility.yul\":10299:10321   */\n  add\n    /* \"#utility.yul\":10269:10331   */\n  tag_78\n  jump\t// in\ntag_164:\n    /* \"#utility.yul\":10259:10331   */\n  swap2\n  pop\n    /* \"#utility.yul\":10215:10341   */\n  pop\n    /* \"#utility.yul\":10001:10348   */\n  swap3\n  swap2\n  pop\n  pop\n  jump\t// out\n    /* \"contracts/LandFIStake2.sol\":313:6120  contract LandFiStakingWithRewards is Ownable(msg.sender), ReentrancyGuard {... */\ntag_34:\n  mload(0x80)\n  mload(0xa0)\n  mload(0xc0)\n  mload(0xe0)\n  codecopy(0x00, dataOffset(sub_0), dataSize(sub_0))\n  0x00\n  assignImmutable(\"0xafc7867dc682bb65dda0adf82b5845e2c7aff376e8ead2312aa01aa72d90f990\")\n  0x00\n  assignImmutable(\"0x3a2a6f4e0dcd4611e0c200ca45f55d44b54b380ac384ae0bef4a36eff139c211\")\n  0x00\n  assignImmutable(\"0xd1a451c62408e75aae8057e8f7b01919eee5ed8b15c827ddb321ba273cd9734f\")\n  0x00\n  assignImmutable(\"0x77b0dc9fd928f8353d1f3066ad62ef461cbb1d27eef4cdf4229980ff6e20e02a\")\n  return(0x00, dataSize(sub_0))\nstop\n\nsub_0: assembly {\n        /* \"contracts/LandFIStake2.sol\":313:6120  contract LandFiStakingWithRewards is Ownable(msg.sender), ReentrancyGuard {... */\n      mstore(0x40, 0x80)\n      callvalue\n      dup1\n      iszero\n      tag_1\n      jumpi\n      revert(0x00, 0x00)\n    tag_1:\n      pop\n      jumpi(tag_2, lt(calldatasize, 0x04))\n      shr(0xe0, calldataload(0x00))\n      dup1\n      0x8dfb2dbc\n      gt\n      tag_25\n      jumpi\n      dup1\n      0xd82e3962\n      gt\n      tag_26\n      jumpi\n      dup1\n      0xd82e3962\n      eq\n      tag_19\n      jumpi\n      dup1\n      0xea1b28e0\n      eq\n      tag_20\n      jumpi\n      dup1\n      0xf1cddd55\n      eq\n      tag_21\n      jumpi\n      dup1\n      0xf2fde38b\n      eq\n      tag_22\n      jumpi\n      dup1\n      0xf7c618c1\n      eq\n      tag_23\n      jumpi\n      dup1\n      0xf908dc13\n      eq\n      tag_24\n      jumpi\n      jump(tag_2)\n    tag_26:\n      dup1\n      0x8dfb2dbc\n      eq\n      tag_14\n      jumpi\n      dup1\n      0x9aae43f5\n      eq\n      tag_15\n      jumpi\n      dup1\n      0xa694fc3a\n      eq\n      tag_16\n      jumpi\n      dup1\n      0xb60f75d8\n      eq\n      tag_17\n      jumpi\n      dup1\n      0xcd5692ee\n      eq\n      tag_18\n      jumpi\n      jump(tag_2)\n    tag_25:\n      dup1\n      0x3ccfd60b\n      gt\n      tag_27\n      jumpi\n      dup1\n      0x3ccfd60b\n      eq\n      tag_8\n      jumpi\n      dup1\n      0x40f02ab6\n      eq\n      tag_9\n      jumpi\n      dup1\n      0x6747dd0e\n      eq\n      tag_10\n      jumpi\n      dup1\n      0x70a08231\n      eq\n      tag_11\n      jumpi\n      dup1\n      0x715018a6\n      eq\n      tag_12\n      jumpi\n      dup1\n      0x8da5cb5b\n      eq\n      tag_13\n      jumpi\n      jump(tag_2)\n    tag_27:\n      dup1\n      0x16934fc4\n      eq\n      tag_3\n      jumpi\n      dup1\n      0x23dcdb89\n      eq\n      tag_4\n      jumpi\n      dup1\n      0x240be944\n      eq\n      tag_5\n      jumpi\n      dup1\n      0x292a6b19\n      eq\n      tag_6\n      jumpi\n      dup1\n      0x375b3c0a\n      eq\n      tag_7\n      jumpi\n    tag_2:\n      revert(0x00, 0x00)\n        /* \"contracts/LandFIStake2.sol\":663:704  mapping(address => uint256) public stakes */\n    tag_3:\n      tag_28\n      0x04\n      dup1\n      calldatasize\n      sub\n      dup2\n      add\n      swap1\n      tag_29\n      swap2\n      swap1\n      tag_30\n      jump\t// in\n    tag_29:\n      tag_31\n      jump\t// in\n    tag_28:\n      mload(0x40)\n      tag_32\n      swap2\n      swap1\n      tag_33\n      jump\t// in\n    tag_32:\n      mload(0x40)\n      dup1\n      swap2\n      sub\n      swap1\n      return\n        /* \"contracts/LandFIStake2.sol\":2872:3052  function changeMinStake(uint256 _minStake) external onlyOwner {... */\n    tag_4:\n      tag_34\n      0x04\n      dup1\n      calldatasize\n      sub\n      dup2\n      add\n      swap1\n      tag_35\n      swap2\n      swap1\n      tag_36\n      jump\t// in\n    tag_35:\n      tag_37\n      jump\t// in\n    tag_34:\n      stop\n        /* \"contracts/LandFIStake2.sol\":711:763  mapping(address => uint256) public depositTimestamps */\n    tag_5:\n      tag_38\n      0x04\n      dup1\n      calldatasize\n      sub\n      dup2\n      add\n      swap1\n      tag_39\n      swap2\n      swap1\n      tag_30\n      jump\t// in\n    tag_39:\n      tag_40\n      jump\t// in\n    tag_38:\n      mload(0x40)\n      tag_41\n      swap2\n      swap1\n      tag_33\n      jump\t// in\n    tag_41:\n      mload(0x40)\n      dup1\n      swap2\n      sub\n      swap1\n      return\n        /* \"contracts/LandFIStake2.sol\":429:464  IERC20 public immutable landFiToken */\n    tag_6:\n      tag_42\n      tag_43\n      jump\t// in\n    tag_42:\n      mload(0x40)\n      tag_44\n      swap2\n      swap1\n      tag_45\n      jump\t// in\n    tag_44:\n      mload(0x40)\n      dup1\n      swap2\n      sub\n      swap1\n      return\n        /* \"contracts/LandFIStake2.sol\":866:889  uint256 public minStake */\n    tag_7:\n      tag_46\n      tag_47\n      jump\t// in\n    tag_46:\n      mload(0x40)\n      tag_48\n      swap2\n      swap1\n      tag_33\n      jump\t// in\n    tag_48:\n      mload(0x40)\n      dup1\n      swap2\n      sub\n      swap1\n      return\n        /* \"contracts/LandFIStake2.sol\":4552:5293  function withdraw() external nonReentrant {... */\n    tag_8:\n      tag_49\n      tag_50\n      jump\t// in\n    tag_49:\n      stop\n        /* \"contracts/LandFIStake2.sol\":772:800  uint256 public stakeDuration */\n    tag_9:\n      tag_51\n      tag_52\n      jump\t// in\n    tag_51:\n      mload(0x40)\n      tag_53\n      swap2\n      swap1\n      tag_33\n      jump\t// in\n    tag_53:\n      mload(0x40)\n      dup1\n      swap2\n      sub\n      swap1\n      return\n        /* \"contracts/LandFIStake2.sol\":2514:2697  function changeStakeDuration(uint256 _newDuration) external onlyOwner {... */\n    tag_10:\n      tag_54\n      0x04\n      dup1\n      calldatasize\n      sub\n      dup2\n      add\n      swap1\n      tag_55\n      swap2\n      swap1\n      tag_36\n      jump\t// in\n    tag_55:\n      tag_56\n      jump\t// in\n    tag_54:\n      stop\n        /* \"contracts/LandFIStake2.sol\":5324:5427  function balanceOf(address user) external view returns (uint256) {... */\n    tag_11:\n      tag_57\n      0x04\n      dup1\n      calldatasize\n      sub\n      dup2\n      add\n      swap1\n      tag_58\n      swap2\n      swap1\n      tag_30\n      jump\t// in\n    tag_58:\n      tag_59\n      jump\t// in\n    tag_57:\n      mload(0x40)\n      tag_60\n      swap2\n      swap1\n      tag_33\n      jump\t// in\n    tag_60:\n      mload(0x40)\n      dup1\n      swap2\n      sub\n      swap1\n      return\n        /* \"@openzeppelin/contracts/access/Ownable.sol\":2293:2394  function renounceOwnership() public virtual onlyOwner {... */\n    tag_12:\n      tag_61\n      tag_62\n      jump\t// in\n    tag_61:\n      stop\n        /* \"@openzeppelin/contracts/access/Ownable.sol\":1638:1723  function owner() public view virtual returns (address) {... */\n    tag_13:\n      tag_63\n      tag_64\n      jump\t// in\n    tag_63:\n      mload(0x40)\n      tag_65\n      swap2\n      swap1\n      tag_66\n      jump\t// in\n    tag_65:\n      mload(0x40)\n      dup1\n      swap2\n      sub\n      swap1\n      return\n        /* \"contracts/LandFIStake2.sol\":5435:5571  function stakeUnlockTime(address user) external view returns (uint256) {... */\n    tag_14:\n      tag_67\n      0x04\n      dup1\n      calldatasize\n      sub\n      dup2\n      add\n      swap1\n      tag_68\n      swap2\n      swap1\n      tag_30\n      jump\t// in\n    tag_68:\n      tag_69\n      jump\t// in\n    tag_67:\n      mload(0x40)\n      tag_70\n      swap2\n      swap1\n      tag_33\n      jump\t// in\n    tag_70:\n      mload(0x40)\n      dup1\n      swap2\n      sub\n      swap1\n      return\n        /* \"contracts/LandFIStake2.sol\":573:610  uint8 public immutable landFiDecimals */\n    tag_15:\n      tag_71\n      tag_72\n      jump\t// in\n    tag_71:\n      mload(0x40)\n      tag_73\n      swap2\n      swap1\n      tag_74\n      jump\t// in\n    tag_73:\n      mload(0x40)\n      dup1\n      swap2\n      sub\n      swap1\n      return\n        /* \"contracts/LandFIStake2.sol\":3202:3743  function stake(uint256 amount) external nonReentrant {... */\n    tag_16:\n      tag_75\n      0x04\n      dup1\n      calldatasize\n      sub\n      dup2\n      add\n      swap1\n      tag_76\n      swap2\n      swap1\n      tag_36\n      jump\t// in\n    tag_76:\n      tag_77\n      jump\t// in\n    tag_75:\n      stop\n        /* \"contracts/LandFIStake2.sol\":617:654  uint8 public immutable rewardDecimals */\n    tag_17:\n      tag_78\n      tag_79\n      jump\t// in\n    tag_78:\n      mload(0x40)\n      tag_80\n      swap2\n      swap1\n      tag_74\n      jump\t// in\n    tag_80:\n      mload(0x40)\n      dup1\n      swap2\n      sub\n      swap1\n      return\n        /* \"contracts/LandFIStake2.sol\":2705:2864  function changeMaxStake(uint256 _maxStake) external onlyOwner {... */\n    tag_18:\n      tag_81\n      0x04\n      dup1\n      calldatasize\n      sub\n      dup2\n      add\n      swap1\n      tag_82\n      swap2\n      swap1\n      tag_36\n      jump\t// in\n    tag_82:\n      tag_83\n      jump\t// in\n    tag_81:\n      stop\n        /* \"contracts/LandFIStake2.sol\":3886:4503  function calculateReward(address user) public view returns (uint256) {... */\n    tag_19:\n      tag_84\n      0x04\n      dup1\n      calldatasize\n      sub\n      dup2\n      add\n      swap1\n      tag_85\n      swap2\n      swap1\n      tag_30\n      jump\t// in\n    tag_85:\n      tag_86\n      jump\t// in\n    tag_84:\n      mload(0x40)\n      tag_87\n      swap2\n      swap1\n      tag_33\n      jump\t// in\n    tag_87:\n      mload(0x40)\n      dup1\n      swap2\n      sub\n      swap1\n      return\n        /* \"contracts/LandFIStake2.sol\":836:859  uint256 public maxStake */\n    tag_20:\n      tag_88\n      tag_89\n      jump\t// in\n    tag_88:\n      mload(0x40)\n      tag_90\n      swap2\n      swap1\n      tag_33\n      jump\t// in\n    tag_90:\n      mload(0x40)\n      dup1\n      swap2\n      sub\n      swap1\n      return\n        /* \"contracts/LandFIStake2.sol\":3060:3166  function changeFullUnlock(bool _fullUnlock) external onlyOwner {... */\n    tag_21:\n      tag_91\n      0x04\n      dup1\n      calldatasize\n      sub\n      dup2\n      add\n      swap1\n      tag_92\n      swap2\n      swap1\n      tag_93\n      jump\t// in\n    tag_92:\n      tag_94\n      jump\t// in\n    tag_91:\n      stop\n        /* \"@openzeppelin/contracts/access/Ownable.sol\":2543:2758  function transferOwnership(address newOwner) public virtual onlyOwner {... */\n    tag_22:\n      tag_95\n      0x04\n      dup1\n      calldatasize\n      sub\n      dup2\n      add\n      swap1\n      tag_96\n      swap2\n      swap1\n      tag_30\n      jump\t// in\n    tag_96:\n      tag_97\n      jump\t// in\n    tag_95:\n      stop\n        /* \"contracts/LandFIStake2.sol\":494:529  IERC20 public immutable rewardToken */\n    tag_23:\n      tag_98\n      tag_99\n      jump\t// in\n    tag_98:\n      mload(0x40)\n      tag_100\n      swap2\n      swap1\n      tag_45\n      jump\t// in\n    tag_100:\n      mload(0x40)\n      dup1\n      swap2\n      sub\n      swap1\n      return\n        /* \"contracts/LandFIStake2.sol\":896:918  bool public fullUnlock */\n    tag_24:\n      tag_101\n      tag_102\n      jump\t// in\n    tag_101:\n      mload(0x40)\n      tag_103\n      swap2\n      swap1\n      tag_104\n      jump\t// in\n    tag_103:\n      mload(0x40)\n      dup1\n      swap2\n      sub\n      swap1\n      return\n        /* \"contracts/LandFIStake2.sol\":663:704  mapping(address => uint256) public stakes */\n    tag_31:\n      mstore(0x20, 0x02)\n      dup1\n      0x00\n      mstore\n      keccak256(0x00, 0x40)\n      0x00\n      swap2\n      pop\n      swap1\n      pop\n      sload\n      dup2\n      jump\t// out\n        /* \"contracts/LandFIStake2.sol\":2872:3052  function changeMinStake(uint256 _minStake) external onlyOwner {... */\n    tag_37:\n        /* \"@openzeppelin/contracts/access/Ownable.sol\":1531:1544  _checkOwner() */\n      tag_106\n        /* \"@openzeppelin/contracts/access/Ownable.sol\":1531:1542  _checkOwner */\n      tag_107\n        /* \"@openzeppelin/contracts/access/Ownable.sol\":1531:1544  _checkOwner() */\n      jump\t// in\n    tag_106:\n        /* \"contracts/LandFIStake2.sol\":2965:2966  0 */\n      0x00\n        /* \"contracts/LandFIStake2.sol\":2953:2962  _minStake */\n      dup2\n        /* \"contracts/LandFIStake2.sol\":2953:2966  _minStake > 0 */\n      gt\n        /* \"contracts/LandFIStake2.sol\":2953:2991  _minStake > 0 && _minStake <= maxStake */\n      dup1\n      iszero\n      tag_109\n      jumpi\n      pop\n        /* \"contracts/LandFIStake2.sol\":2983:2991  maxStake */\n      sload(0x05)\n        /* \"contracts/LandFIStake2.sol\":2970:2979  _minStake */\n      dup2\n        /* \"contracts/LandFIStake2.sol\":2970:2991  _minStake <= maxStake */\n      gt\n      iszero\n        /* \"contracts/LandFIStake2.sol\":2953:2991  _minStake > 0 && _minStake <= maxStake */\n    tag_109:\n        /* \"contracts/LandFIStake2.sol\":2945:3013  require(_minStake > 0 && _minStake <= maxStake, \"Invalid min stake\") */\n      tag_110\n      jumpi\n      mload(0x40)\n      0x08c379a000000000000000000000000000000000000000000000000000000000\n      dup2\n      mstore\n      0x04\n      add\n      tag_111\n      swap1\n      tag_112\n      jump\t// in\n    tag_111:\n      mload(0x40)\n      dup1\n      swap2\n      sub\n      swap1\n      revert\n    tag_110:\n        /* \"contracts/LandFIStake2.sol\":3035:3044  _minStake */\n      dup1\n        /* \"contracts/LandFIStake2.sol\":3024:3032  minStake */\n      0x06\n        /* \"contracts/LandFIStake2.sol\":3024:3044  minStake = _minStake */\n      dup2\n      swap1\n      sstore\n      pop\n        /* \"contracts/LandFIStake2.sol\":2872:3052  function changeMinStake(uint256 _minStake) external onlyOwner {... */\n      pop\n      jump\t// out\n        /* \"contracts/LandFIStake2.sol\":711:763  mapping(address => uint256) public depositTimestamps */\n    tag_40:\n      mstore(0x20, 0x03)\n      dup1\n      0x00\n      mstore\n      keccak256(0x00, 0x40)\n      0x00\n      swap2\n      pop\n      swap1\n      pop\n      sload\n      dup2\n      jump\t// out\n        /* \"contracts/LandFIStake2.sol\":429:464  IERC20 public immutable landFiToken */\n    tag_43:\n      immutable(\"0x77b0dc9fd928f8353d1f3066ad62ef461cbb1d27eef4cdf4229980ff6e20e02a\")\n      dup2\n      jump\t// out\n        /* \"contracts/LandFIStake2.sol\":866:889  uint256 public minStake */\n    tag_47:\n      sload(0x06)\n      dup2\n      jump\t// out\n        /* \"contracts/LandFIStake2.sol\":4552:5293  function withdraw() external nonReentrant {... */\n    tag_50:\n        /* \"@openzeppelin/contracts/security/ReentrancyGuard.sol\":2261:2282  _nonReentrantBefore() */\n      tag_114\n        /* \"@openzeppelin/contracts/security/ReentrancyGuard.sol\":2261:2280  _nonReentrantBefore */\n      tag_115\n        /* \"@openzeppelin/contracts/security/ReentrancyGuard.sol\":2261:2282  _nonReentrantBefore() */\n      jump\t// in\n    tag_114:\n        /* \"contracts/LandFIStake2.sol\":4605:4617  address user */\n      0x00\n        /* \"contracts/LandFIStake2.sol\":4620:4630  msg.sender */\n      caller\n        /* \"contracts/LandFIStake2.sol\":4605:4630  address user = msg.sender */\n      swap1\n      pop\n        /* \"contracts/LandFIStake2.sol\":4641:4655  uint256 amount */\n      0x00\n        /* \"contracts/LandFIStake2.sol\":4658:4664  stakes */\n      0x02\n        /* \"contracts/LandFIStake2.sol\":4658:4670  stakes[user] */\n      0x00\n        /* \"contracts/LandFIStake2.sol\":4665:4669  user */\n      dup4\n        /* \"contracts/LandFIStake2.sol\":4658:4670  stakes[user] */\n      0xffffffffffffffffffffffffffffffffffffffff\n      and\n      0xffffffffffffffffffffffffffffffffffffffff\n      and\n      dup2\n      mstore\n      0x20\n      add\n      swap1\n      dup2\n      mstore\n      0x20\n      add\n      0x00\n      keccak256\n      sload\n        /* \"contracts/LandFIStake2.sol\":4641:4670  uint256 amount = stakes[user] */\n      swap1\n      pop\n        /* \"contracts/LandFIStake2.sol\":4698:4699  0 */\n      0x00\n        /* \"contracts/LandFIStake2.sol\":4689:4695  amount */\n      dup2\n        /* \"contracts/LandFIStake2.sol\":4689:4699  amount > 0 */\n      gt\n        /* \"contracts/LandFIStake2.sol\":4681:4718  require(amount > 0, \"No stake found\") */\n      tag_117\n      jumpi\n      mload(0x40)\n      0x08c379a000000000000000000000000000000000000000000000000000000000\n      dup2\n      mstore\n      0x04\n      add\n      tag_118\n      swap1\n      tag_119\n      jump\t// in\n    tag_118:\n      mload(0x40)\n      dup1\n      swap2\n      sub\n      swap1\n      revert\n    tag_117:\n        /* \"contracts/LandFIStake2.sol\":4737:4747  fullUnlock */\n      0x07\n      0x00\n      swap1\n      sload\n      swap1\n      0x0100\n      exp\n      swap1\n      div\n      0xff\n      and\n        /* \"contracts/LandFIStake2.sol\":4737:4809  fullUnlock || block.timestamp >= depositTimestamps[user] + stakeDuration */\n      dup1\n      tag_120\n      jumpi\n      pop\n        /* \"contracts/LandFIStake2.sol\":4796:4809  stakeDuration */\n      sload(0x04)\n        /* \"contracts/LandFIStake2.sol\":4770:4787  depositTimestamps */\n      0x03\n        /* \"contracts/LandFIStake2.sol\":4770:4793  depositTimestamps[user] */\n      0x00\n        /* \"contracts/LandFIStake2.sol\":4788:4792  user */\n      dup5\n        /* \"contracts/LandFIStake2.sol\":4770:4793  depositTimestamps[user] */\n      0xffffffffffffffffffffffffffffffffffffffff\n      and\n      0xffffffffffffffffffffffffffffffffffffffff\n      and\n      dup2\n      mstore\n      0x20\n      add\n      swap1\n      dup2\n      mstore\n      0x20\n      add\n      0x00\n      keccak256\n      sload\n        /* \"contracts/LandFIStake2.sol\":4770:4809  depositTimestamps[user] + stakeDuration */\n      tag_121\n      swap2\n      swap1\n      tag_122\n      jump\t// in\n    tag_121:\n        /* \"contracts/LandFIStake2.sol\":4751:4766  block.timestamp */\n      timestamp\n        /* \"contracts/LandFIStake2.sol\":4751:4809  block.timestamp >= depositTimestamps[user] + stakeDuration */\n      lt\n      iszero\n        /* \"contracts/LandFIStake2.sol\":4737:4809  fullUnlock || block.timestamp >= depositTimestamps[user] + stakeDuration */\n    tag_120:\n        /* \"contracts/LandFIStake2.sol\":4729:4826  require(fullUnlock || block.timestamp >= depositTimestamps[user] + stakeDuration, \"Stake locked\") */\n      tag_123\n      jumpi\n      mload(0x40)\n      0x08c379a000000000000000000000000000000000000000000000000000000000\n      dup2\n      mstore\n      0x04\n      add\n      tag_124\n      swap1\n      tag_125\n      jump\t// in\n    tag_124:\n      mload(0x40)\n      dup1\n      swap2\n      sub\n      swap1\n      revert\n    tag_123:\n        /* \"contracts/LandFIStake2.sol\":4839:4859  uint256 rewardAmount */\n      0x00\n        /* \"contracts/LandFIStake2.sol\":4862:4883  calculateReward(user) */\n      tag_126\n        /* \"contracts/LandFIStake2.sol\":4878:4882  user */\n      dup4\n        /* \"contracts/LandFIStake2.sol\":4862:4877  calculateReward */\n      tag_86\n        /* \"contracts/LandFIStake2.sol\":4862:4883  calculateReward(user) */\n      jump\t// in\n    tag_126:\n        /* \"contracts/LandFIStake2.sol\":4839:4883  uint256 rewardAmount = calculateReward(user) */\n      swap1\n      pop\n        /* \"contracts/LandFIStake2.sol\":4911:4912  0 */\n      0x00\n        /* \"contracts/LandFIStake2.sol\":4896:4902  stakes */\n      0x02\n        /* \"contracts/LandFIStake2.sol\":4896:4908  stakes[user] */\n      0x00\n        /* \"contracts/LandFIStake2.sol\":4903:4907  user */\n      dup6\n        /* \"contracts/LandFIStake2.sol\":4896:4908  stakes[user] */\n      0xffffffffffffffffffffffffffffffffffffffff\n      and\n      0xffffffffffffffffffffffffffffffffffffffff\n      and\n      dup2\n      mstore\n      0x20\n      add\n      swap1\n      dup2\n      mstore\n      0x20\n      add\n      0x00\n      keccak256\n        /* \"contracts/LandFIStake2.sol\":4896:4912  stakes[user] = 0 */\n      dup2\n      swap1\n      sstore\n      pop\n        /* \"contracts/LandFIStake2.sol\":4949:4950  0 */\n      0x00\n        /* \"contracts/LandFIStake2.sol\":4923:4940  depositTimestamps */\n      0x03\n        /* \"contracts/LandFIStake2.sol\":4923:4946  depositTimestamps[user] */\n      0x00\n        /* \"contracts/LandFIStake2.sol\":4941:4945  user */\n      dup6\n        /* \"contracts/LandFIStake2.sol\":4923:4946  depositTimestamps[user] */\n      0xffffffffffffffffffffffffffffffffffffffff\n      and\n      0xffffffffffffffffffffffffffffffffffffffff\n      and\n      dup2\n      mstore\n      0x20\n      add\n      swap1\n      dup2\n      mstore\n      0x20\n      add\n      0x00\n      keccak256\n        /* \"contracts/LandFIStake2.sol\":4923:4950  depositTimestamps[user] = 0 */\n      dup2\n      swap1\n      sstore\n      pop\n        /* \"contracts/LandFIStake2.sol\":4963:5001  landFiToken.safeTransfer(user, amount) */\n      tag_127\n        /* \"contracts/LandFIStake2.sol\":4988:4992  user */\n      dup4\n        /* \"contracts/LandFIStake2.sol\":4994:5000  amount */\n      dup4\n        /* \"contracts/LandFIStake2.sol\":4963:4974  landFiToken */\n      immutable(\"0x77b0dc9fd928f8353d1f3066ad62ef461cbb1d27eef4cdf4229980ff6e20e02a\")\n        /* \"contracts/LandFIStake2.sol\":4963:4987  landFiToken.safeTransfer */\n      0xffffffffffffffffffffffffffffffffffffffff\n      and\n      tag_128\n      swap1\n        /* \"contracts/LandFIStake2.sol\":4963:5001  landFiToken.safeTransfer(user, amount) */\n      swap3\n      swap2\n      swap1\n      0xffffffff\n      and\n      jump\t// in\n    tag_127:\n        /* \"contracts/LandFIStake2.sol\":5033:5034  0 */\n      0x00\n        /* \"contracts/LandFIStake2.sol\":5018:5030  rewardAmount */\n      dup2\n        /* \"contracts/LandFIStake2.sol\":5018:5034  rewardAmount > 0 */\n      gt\n        /* \"contracts/LandFIStake2.sol\":5014:5214  if (rewardAmount > 0) {... */\n      iszero\n      tag_129\n      jumpi\n        /* \"contracts/LandFIStake2.sol\":5099:5111  rewardAmount */\n      dup1\n        /* \"contracts/LandFIStake2.sol\":5059:5070  rewardToken */\n      immutable(\"0xd1a451c62408e75aae8057e8f7b01919eee5ed8b15c827ddb321ba273cd9734f\")\n        /* \"contracts/LandFIStake2.sol\":5059:5080  rewardToken.balanceOf */\n      0xffffffffffffffffffffffffffffffffffffffff\n      and\n      0x70a08231\n        /* \"contracts/LandFIStake2.sol\":5089:5093  this */\n      address\n        /* \"contracts/LandFIStake2.sol\":5059:5095  rewardToken.balanceOf(address(this)) */\n      mload(0x40)\n      dup3\n      0xffffffff\n      and\n      0xe0\n      shl\n      dup2\n      mstore\n      0x04\n      add\n      tag_130\n      swap2\n      swap1\n      tag_66\n      jump\t// in\n    tag_130:\n      0x20\n      mload(0x40)\n      dup1\n      dup4\n      sub\n      dup2\n      dup7\n      gas\n      staticcall\n      iszero\n      dup1\n      iszero\n      tag_132\n      jumpi\n      returndatacopy(0x00, 0x00, returndatasize)\n      revert(0x00, returndatasize)\n    tag_132:\n      pop\n      pop\n      pop\n      pop\n      mload(0x40)\n      returndatasize\n      not(0x1f)\n      0x1f\n      dup3\n      add\n      and\n      dup3\n      add\n      dup1\n      0x40\n      mstore\n      pop\n      dup2\n      add\n      swap1\n      tag_133\n      swap2\n      swap1\n      tag_134\n      jump\t// in\n    tag_133:\n        /* \"contracts/LandFIStake2.sol\":5059:5111  rewardToken.balanceOf(address(this)) >= rewardAmount */\n      lt\n      iszero\n        /* \"contracts/LandFIStake2.sol\":5051:5143  require(rewardToken.balanceOf(address(this)) >= rewardAmount, \"Insufficient reward balance\") */\n      tag_135\n      jumpi\n      mload(0x40)\n      0x08c379a000000000000000000000000000000000000000000000000000000000\n      dup2\n      mstore\n      0x04\n      add\n      tag_136\n      swap1\n      tag_137\n      jump\t// in\n    tag_136:\n      mload(0x40)\n      dup1\n      swap2\n      sub\n      swap1\n      revert\n    tag_135:\n        /* \"contracts/LandFIStake2.sol\":5158:5202  rewardToken.safeTransfer(user, rewardAmount) */\n      tag_138\n        /* \"contracts/LandFIStake2.sol\":5183:5187  user */\n      dup4\n        /* \"contracts/LandFIStake2.sol\":5189:5201  rewardAmount */\n      dup3\n        /* \"contracts/LandFIStake2.sol\":5158:5169  rewardToken */\n      immutable(\"0xd1a451c62408e75aae8057e8f7b01919eee5ed8b15c827ddb321ba273cd9734f\")\n        /* \"contracts/LandFIStake2.sol\":5158:5182  rewardToken.safeTransfer */\n      0xffffffffffffffffffffffffffffffffffffffff\n      and\n      tag_128\n      swap1\n        /* \"contracts/LandFIStake2.sol\":5158:5202  rewardToken.safeTransfer(user, rewardAmount) */\n      swap3\n      swap2\n      swap1\n      0xffffffff\n      and\n      jump\t// in\n    tag_138:\n        /* \"contracts/LandFIStake2.sol\":5014:5214  if (rewardAmount > 0) {... */\n    tag_129:\n        /* \"contracts/LandFIStake2.sol\":5241:5245  user */\n      dup3\n        /* \"contracts/LandFIStake2.sol\":5231:5285  Withdrawn(user, amount, rewardAmount, block.timestamp) */\n      0xffffffffffffffffffffffffffffffffffffffff\n      and\n      0x75e161b3e824b114fc1a33274bd7091918dd4e639cede50b78b15a4eea956a21\n        /* \"contracts/LandFIStake2.sol\":5247:5253  amount */\n      dup4\n        /* \"contracts/LandFIStake2.sol\":5255:5267  rewardAmount */\n      dup4\n        /* \"contracts/LandFIStake2.sol\":5269:5284  block.timestamp */\n      timestamp\n        /* \"contracts/LandFIStake2.sol\":5231:5285  Withdrawn(user, amount, rewardAmount, block.timestamp) */\n      mload(0x40)\n      tag_139\n      swap4\n      swap3\n      swap2\n      swap1\n      tag_140\n      jump\t// in\n    tag_139:\n      mload(0x40)\n      dup1\n      swap2\n      sub\n      swap1\n      log2\n        /* \"contracts/LandFIStake2.sol\":4594:5293  {... */\n      pop\n      pop\n      pop\n        /* \"@openzeppelin/contracts/security/ReentrancyGuard.sol\":2303:2323  _nonReentrantAfter() */\n      tag_141\n        /* \"@openzeppelin/contracts/security/ReentrancyGuard.sol\":2303:2321  _nonReentrantAfter */\n      tag_142\n        /* \"@openzeppelin/contracts/security/ReentrancyGuard.sol\":2303:2323  _nonReentrantAfter() */\n      jump\t// in\n    tag_141:\n        /* \"contracts/LandFIStake2.sol\":4552:5293  function withdraw() external nonReentrant {... */\n      jump\t// out\n        /* \"contracts/LandFIStake2.sol\":772:800  uint256 public stakeDuration */\n    tag_52:\n      sload(0x04)\n      dup2\n      jump\t// out\n        /* \"contracts/LandFIStake2.sol\":2514:2697  function changeStakeDuration(uint256 _newDuration) external onlyOwner {... */\n    tag_56:\n        /* \"@openzeppelin/contracts/access/Ownable.sol\":1531:1544  _checkOwner() */\n      tag_144\n        /* \"@openzeppelin/contracts/access/Ownable.sol\":1531:1542  _checkOwner */\n      tag_107\n        /* \"@openzeppelin/contracts/access/Ownable.sol\":1531:1544  _checkOwner() */\n      jump\t// in\n    tag_144:\n        /* \"contracts/LandFIStake2.sol\":2618:2619  0 */\n      0x00\n        /* \"contracts/LandFIStake2.sol\":2603:2615  _newDuration */\n      dup2\n        /* \"contracts/LandFIStake2.sol\":2603:2619  _newDuration > 0 */\n      gt\n        /* \"contracts/LandFIStake2.sol\":2595:2650  require(_newDuration > 0, \"Stake duration must be > 0\") */\n      tag_146\n      jumpi\n      mload(0x40)\n      0x08c379a000000000000000000000000000000000000000000000000000000000\n      dup2\n      mstore\n      0x04\n      add\n      tag_147\n      swap1\n      tag_148\n      jump\t// in\n    tag_147:\n      mload(0x40)\n      dup1\n      swap2\n      sub\n      swap1\n      revert\n    tag_146:\n        /* \"contracts/LandFIStake2.sol\":2677:2689  _newDuration */\n      dup1\n        /* \"contracts/LandFIStake2.sol\":2661:2674  stakeDuration */\n      0x04\n        /* \"contracts/LandFIStake2.sol\":2661:2689  stakeDuration = _newDuration */\n      dup2\n      swap1\n      sstore\n      pop\n        /* \"contracts/LandFIStake2.sol\":2514:2697  function changeStakeDuration(uint256 _newDuration) external onlyOwner {... */\n      pop\n      jump\t// out\n        /* \"contracts/LandFIStake2.sol\":5324:5427  function balanceOf(address user) external view returns (uint256) {... */\n    tag_59:\n        /* \"contracts/LandFIStake2.sol\":5380:5387  uint256 */\n      0x00\n        /* \"contracts/LandFIStake2.sol\":5407:5413  stakes */\n      0x02\n        /* \"contracts/LandFIStake2.sol\":5407:5419  stakes[user] */\n      0x00\n        /* \"contracts/LandFIStake2.sol\":5414:5418  user */\n      dup4\n        /* \"contracts/LandFIStake2.sol\":5407:5419  stakes[user] */\n      0xffffffffffffffffffffffffffffffffffffffff\n      and\n      0xffffffffffffffffffffffffffffffffffffffff\n      and\n      dup2\n      mstore\n      0x20\n      add\n      swap1\n      dup2\n      mstore\n      0x20\n      add\n      0x00\n      keccak256\n      sload\n        /* \"contracts/LandFIStake2.sol\":5400:5419  return stakes[user] */\n      swap1\n      pop\n        /* \"contracts/LandFIStake2.sol\":5324:5427  function balanceOf(address user) external view returns (uint256) {... */\n      swap2\n      swap1\n      pop\n      jump\t// out\n        /* \"@openzeppelin/contracts/access/Ownable.sol\":2293:2394  function renounceOwnership() public virtual onlyOwner {... */\n    tag_62:\n        /* \"@openzeppelin/contracts/access/Ownable.sol\":1531:1544  _checkOwner() */\n      tag_151\n        /* \"@openzeppelin/contracts/access/Ownable.sol\":1531:1542  _checkOwner */\n      tag_107\n        /* \"@openzeppelin/contracts/access/Ownable.sol\":1531:1544  _checkOwner() */\n      jump\t// in\n    tag_151:\n        /* \"@openzeppelin/contracts/access/Ownable.sol\":2357:2387  _transferOwnership(address(0)) */\n      tag_153\n        /* \"@openzeppelin/contracts/access/Ownable.sol\":2384:2385  0 */\n      0x00\n        /* \"@openzeppelin/contracts/access/Ownable.sol\":2357:2375  _transferOwnership */\n      tag_154\n        /* \"@openzeppelin/contracts/access/Ownable.sol\":2357:2387  _transferOwnership(address(0)) */\n      jump\t// in\n    tag_153:\n        /* \"@openzeppelin/contracts/access/Ownable.sol\":2293:2394  function renounceOwnership() public virtual onlyOwner {... */\n      jump\t// out\n        /* \"@openzeppelin/contracts/access/Ownable.sol\":1638:1723  function owner() public view virtual returns (address) {... */\n    tag_64:\n        /* \"@openzeppelin/contracts/access/Ownable.sol\":1684:1691  address */\n      0x00\n        /* \"@openzeppelin/contracts/access/Ownable.sol\":1710:1716  _owner */\n      0x00\n      0x00\n      swap1\n      sload\n      swap1\n      0x0100\n      exp\n      swap1\n      div\n      0xffffffffffffffffffffffffffffffffffffffff\n      and\n        /* \"@openzeppelin/contracts/access/Ownable.sol\":1703:1716  return _owner */\n      swap1\n      pop\n        /* \"@openzeppelin/contracts/access/Ownable.sol\":1638:1723  function owner() public view virtual returns (address) {... */\n      swap1\n      jump\t// out\n        /* \"contracts/LandFIStake2.sol\":5435:5571  function stakeUnlockTime(address user) external view returns (uint256) {... */\n    tag_69:\n        /* \"contracts/LandFIStake2.sol\":5497:5504  uint256 */\n      0x00\n        /* \"contracts/LandFIStake2.sol\":5550:5563  stakeDuration */\n      sload(0x04)\n        /* \"contracts/LandFIStake2.sol\":5524:5541  depositTimestamps */\n      0x03\n        /* \"contracts/LandFIStake2.sol\":5524:5547  depositTimestamps[user] */\n      0x00\n        /* \"contracts/LandFIStake2.sol\":5542:5546  user */\n      dup5\n        /* \"contracts/LandFIStake2.sol\":5524:5547  depositTimestamps[user] */\n      0xffffffffffffffffffffffffffffffffffffffff\n      and\n      0xffffffffffffffffffffffffffffffffffffffff\n      and\n      dup2\n      mstore\n      0x20\n      add\n      swap1\n      dup2\n      mstore\n      0x20\n      add\n      0x00\n      keccak256\n      sload\n        /* \"contracts/LandFIStake2.sol\":5524:5563  depositTimestamps[user] + stakeDuration */\n      tag_157\n      swap2\n      swap1\n      tag_122\n      jump\t// in\n    tag_157:\n        /* \"contracts/LandFIStake2.sol\":5517:5563  return depositTimestamps[user] + stakeDuration */\n      swap1\n      pop\n        /* \"contracts/LandFIStake2.sol\":5435:5571  function stakeUnlockTime(address user) external view returns (uint256) {... */\n      swap2\n      swap1\n      pop\n      jump\t// out\n        /* \"contracts/LandFIStake2.sol\":573:610  uint8 public immutable landFiDecimals */\n    tag_72:\n      immutable(\"0x3a2a6f4e0dcd4611e0c200ca45f55d44b54b380ac384ae0bef4a36eff139c211\")\n      dup2\n      jump\t// out\n        /* \"contracts/LandFIStake2.sol\":3202:3743  function stake(uint256 amount) external nonReentrant {... */\n    tag_77:\n        /* \"@openzeppelin/contracts/security/ReentrancyGuard.sol\":2261:2282  _nonReentrantBefore() */\n      tag_159\n        /* \"@openzeppelin/contracts/security/ReentrancyGuard.sol\":2261:2280  _nonReentrantBefore */\n      tag_115\n        /* \"@openzeppelin/contracts/security/ReentrancyGuard.sol\":2261:2282  _nonReentrantBefore() */\n      jump\t// in\n    tag_159:\n        /* \"contracts/LandFIStake2.sol\":3266:3278  address user */\n      0x00\n        /* \"contracts/LandFIStake2.sol\":3281:3291  msg.sender */\n      caller\n        /* \"contracts/LandFIStake2.sol\":3266:3291  address user = msg.sender */\n      swap1\n      pop\n        /* \"contracts/LandFIStake2.sol\":3326:3327  0 */\n      0x00\n        /* \"contracts/LandFIStake2.sol\":3310:3316  stakes */\n      0x02\n        /* \"contracts/LandFIStake2.sol\":3310:3322  stakes[user] */\n      0x00\n        /* \"contracts/LandFIStake2.sol\":3317:3321  user */\n      dup4\n        /* \"contracts/LandFIStake2.sol\":3310:3322  stakes[user] */\n      0xffffffffffffffffffffffffffffffffffffffff\n      and\n      0xffffffffffffffffffffffffffffffffffffffff\n      and\n      dup2\n      mstore\n      0x20\n      add\n      swap1\n      dup2\n      mstore\n      0x20\n      add\n      0x00\n      keccak256\n      sload\n        /* \"contracts/LandFIStake2.sol\":3310:3327  stakes[user] == 0 */\n      eq\n        /* \"contracts/LandFIStake2.sol\":3302:3347  require(stakes[user] == 0, \"Already staking\") */\n      tag_161\n      jumpi\n      mload(0x40)\n      0x08c379a000000000000000000000000000000000000000000000000000000000\n      dup2\n      mstore\n      0x04\n      add\n      tag_162\n      swap1\n      tag_163\n      jump\t// in\n    tag_162:\n      mload(0x40)\n      dup1\n      swap2\n      sub\n      swap1\n      revert\n    tag_161:\n        /* \"contracts/LandFIStake2.sol\":3376:3384  minStake */\n      sload(0x06)\n        /* \"contracts/LandFIStake2.sol\":3366:3372  amount */\n      dup3\n        /* \"contracts/LandFIStake2.sol\":3366:3384  amount >= minStake */\n      lt\n      iszero\n        /* \"contracts/LandFIStake2.sol\":3358:3410  require(amount >= minStake, \"Amount below minStake\") */\n      tag_164\n      jumpi\n      mload(0x40)\n      0x08c379a000000000000000000000000000000000000000000000000000000000\n      dup2\n      mstore\n      0x04\n      add\n      tag_165\n      swap1\n      tag_166\n      jump\t// in\n    tag_165:\n      mload(0x40)\n      dup1\n      swap2\n      sub\n      swap1\n      revert\n    tag_164:\n        /* \"contracts/LandFIStake2.sol\":3439:3447  maxStake */\n      sload(0x05)\n        /* \"contracts/LandFIStake2.sol\":3429:3435  amount */\n      dup3\n        /* \"contracts/LandFIStake2.sol\":3429:3447  amount <= maxStake */\n      gt\n      iszero\n        /* \"contracts/LandFIStake2.sol\":3421:3475  require(amount <= maxStake, \"Amount exceeds maxStake\") */\n      tag_167\n      jumpi\n      mload(0x40)\n      0x08c379a000000000000000000000000000000000000000000000000000000000\n      dup2\n      mstore\n      0x04\n      add\n      tag_168\n      swap1\n      tag_169\n      jump\t// in\n    tag_168:\n      mload(0x40)\n      dup1\n      swap2\n      sub\n      swap1\n      revert\n    tag_167:\n        /* \"contracts/LandFIStake2.sol\":3495:3505  fullUnlock */\n      0x07\n      0x00\n      swap1\n      sload\n      swap1\n      0x0100\n      exp\n      swap1\n      div\n      0xff\n      and\n        /* \"contracts/LandFIStake2.sol\":3494:3505  !fullUnlock */\n      iszero\n        /* \"contracts/LandFIStake2.sol\":3486:3524  require(!fullUnlock, \"Staking locked\") */\n      tag_170\n      jumpi\n      mload(0x40)\n      0x08c379a000000000000000000000000000000000000000000000000000000000\n      dup2\n      mstore\n      0x04\n      add\n      tag_171\n      swap1\n      tag_172\n      jump\t// in\n    tag_171:\n      mload(0x40)\n      dup1\n      swap2\n      sub\n      swap1\n      revert\n    tag_170:\n        /* \"contracts/LandFIStake2.sol\":3552:3558  amount */\n      dup2\n        /* \"contracts/LandFIStake2.sol\":3537:3543  stakes */\n      0x02\n        /* \"contracts/LandFIStake2.sol\":3537:3549  stakes[user] */\n      0x00\n        /* \"contracts/LandFIStake2.sol\":3544:3548  user */\n      dup4\n        /* \"contracts/LandFIStake2.sol\":3537:3549  stakes[user] */\n      0xffffffffffffffffffffffffffffffffffffffff\n      and\n      0xffffffffffffffffffffffffffffffffffffffff\n      and\n      dup2\n      mstore\n      0x20\n      add\n      swap1\n      dup2\n      mstore\n      0x20\n      add\n      0x00\n      keccak256\n        /* \"contracts/LandFIStake2.sol\":3537:3558  stakes[user] = amount */\n      dup2\n      swap1\n      sstore\n      pop\n        /* \"contracts/LandFIStake2.sol\":3595:3610  block.timestamp */\n      timestamp\n        /* \"contracts/LandFIStake2.sol\":3569:3586  depositTimestamps */\n      0x03\n        /* \"contracts/LandFIStake2.sol\":3569:3592  depositTimestamps[user] */\n      0x00\n        /* \"contracts/LandFIStake2.sol\":3587:3591  user */\n      dup4\n        /* \"contracts/LandFIStake2.sol\":3569:3592  depositTimestamps[user] */\n      0xffffffffffffffffffffffffffffffffffffffff\n      and\n      0xffffffffffffffffffffffffffffffffffffffff\n      and\n      dup2\n      mstore\n      0x20\n      add\n      swap1\n      dup2\n      mstore\n      0x20\n      add\n      0x00\n      keccak256\n        /* \"contracts/LandFIStake2.sol\":3569:3610  depositTimestamps[user] = block.timestamp */\n      dup2\n      swap1\n      sstore\n      pop\n        /* \"contracts/LandFIStake2.sol\":3623:3680  landFiToken.safeTransferFrom(user, address(this), amount) */\n      tag_173\n        /* \"contracts/LandFIStake2.sol\":3652:3656  user */\n      dup2\n        /* \"contracts/LandFIStake2.sol\":3666:3670  this */\n      address\n        /* \"contracts/LandFIStake2.sol\":3673:3679  amount */\n      dup5\n        /* \"contracts/LandFIStake2.sol\":3623:3634  landFiToken */\n      immutable(\"0x77b0dc9fd928f8353d1f3066ad62ef461cbb1d27eef4cdf4229980ff6e20e02a\")\n        /* \"contracts/LandFIStake2.sol\":3623:3651  landFiToken.safeTransferFrom */\n      0xffffffffffffffffffffffffffffffffffffffff\n      and\n      tag_174\n      swap1\n        /* \"contracts/LandFIStake2.sol\":3623:3680  landFiToken.safeTransferFrom(user, address(this), amount) */\n      swap4\n      swap3\n      swap2\n      swap1\n      0xffffffff\n      and\n      jump\t// in\n    tag_173:\n        /* \"contracts/LandFIStake2.sol\":3705:3709  user */\n      dup1\n        /* \"contracts/LandFIStake2.sol\":3698:3735  Staked(user, amount, block.timestamp) */\n      0xffffffffffffffffffffffffffffffffffffffff\n      and\n      0x1449c6dd7851abc30abf37f57715f492010519147cc2652fbc38202c18a6ee90\n        /* \"contracts/LandFIStake2.sol\":3711:3717  amount */\n      dup4\n        /* \"contracts/LandFIStake2.sol\":3719:3734  block.timestamp */\n      timestamp\n        /* \"contracts/LandFIStake2.sol\":3698:3735  Staked(user, amount, block.timestamp) */\n      mload(0x40)\n      tag_175\n      swap3\n      swap2\n      swap1\n      tag_176\n      jump\t// in\n    tag_175:\n      mload(0x40)\n      dup1\n      swap2\n      sub\n      swap1\n      log2\n        /* \"contracts/LandFIStake2.sol\":3255:3743  {... */\n      pop\n        /* \"@openzeppelin/contracts/security/ReentrancyGuard.sol\":2303:2323  _nonReentrantAfter() */\n      tag_177\n        /* \"@openzeppelin/contracts/security/ReentrancyGuard.sol\":2303:2321  _nonReentrantAfter */\n      tag_142\n        /* \"@openzeppelin/contracts/security/ReentrancyGuard.sol\":2303:2323  _nonReentrantAfter() */\n      jump\t// in\n    tag_177:\n        /* \"contracts/LandFIStake2.sol\":3202:3743  function stake(uint256 amount) external nonReentrant {... */\n      pop\n      jump\t// out\n        /* \"contracts/LandFIStake2.sol\":617:654  uint8 public immutable rewardDecimals */\n    tag_79:\n      immutable(\"0xafc7867dc682bb65dda0adf82b5845e2c7aff376e8ead2312aa01aa72d90f990\")\n      dup2\n      jump\t// out\n        /* \"contracts/LandFIStake2.sol\":2705:2864  function changeMaxStake(uint256 _maxStake) external onlyOwner {... */\n    tag_83:\n        /* \"@openzeppelin/contracts/access/Ownable.sol\":1531:1544  _checkOwner() */\n      tag_179\n        /* \"@openzeppelin/contracts/access/Ownable.sol\":1531:1542  _checkOwner */\n      tag_107\n        /* \"@openzeppelin/contracts/access/Ownable.sol\":1531:1544  _checkOwner() */\n      jump\t// in\n    tag_179:\n        /* \"contracts/LandFIStake2.sol\":2798:2799  0 */\n      0x00\n        /* \"contracts/LandFIStake2.sol\":2786:2795  _maxStake */\n      dup2\n        /* \"contracts/LandFIStake2.sol\":2786:2799  _maxStake > 0 */\n      gt\n        /* \"contracts/LandFIStake2.sol\":2778:2825  require(_maxStake > 0, \"Max stake must be > 0\") */\n      tag_181\n      jumpi\n      mload(0x40)\n      0x08c379a000000000000000000000000000000000000000000000000000000000\n      dup2\n      mstore\n      0x04\n      add\n      tag_182\n      swap1\n      tag_183\n      jump\t// in\n    tag_182:\n      mload(0x40)\n      dup1\n      swap2\n      sub\n      swap1\n      revert\n    tag_181:\n        /* \"contracts/LandFIStake2.sol\":2847:2856  _maxStake */\n      dup1\n        /* \"contracts/LandFIStake2.sol\":2836:2844  maxStake */\n      0x05\n        /* \"contracts/LandFIStake2.sol\":2836:2856  maxStake = _maxStake */\n      dup2\n      swap1\n      sstore\n      pop\n        /* \"contracts/LandFIStake2.sol\":2705:2864  function changeMaxStake(uint256 _maxStake) external onlyOwner {... */\n      pop\n      jump\t// out\n        /* \"contracts/LandFIStake2.sol\":3886:4503  function calculateReward(address user) public view returns (uint256) {... */\n    tag_86:\n        /* \"contracts/LandFIStake2.sol\":3946:3953  uint256 */\n      0x00\n        /* \"contracts/LandFIStake2.sol\":3966:3980  uint256 amount */\n      0x00\n        /* \"contracts/LandFIStake2.sol\":3983:3989  stakes */\n      0x02\n        /* \"contracts/LandFIStake2.sol\":3983:3995  stakes[user] */\n      0x00\n        /* \"contracts/LandFIStake2.sol\":3990:3994  user */\n      dup5\n        /* \"contracts/LandFIStake2.sol\":3983:3995  stakes[user] */\n      0xffffffffffffffffffffffffffffffffffffffff\n      and\n      0xffffffffffffffffffffffffffffffffffffffff\n      and\n      dup2\n      mstore\n      0x20\n      add\n      swap1\n      dup2\n      mstore\n      0x20\n      add\n      0x00\n      keccak256\n      sload\n        /* \"contracts/LandFIStake2.sol\":3966:3995  uint256 amount = stakes[user] */\n      swap1\n      pop\n        /* \"contracts/LandFIStake2.sol\":4020:4021  0 */\n      0x00\n        /* \"contracts/LandFIStake2.sol\":4010:4016  amount */\n      dup2\n        /* \"contracts/LandFIStake2.sol\":4010:4021  amount == 0 */\n      sub\n        /* \"contracts/LandFIStake2.sol\":4006:4031  if (amount == 0) return 0 */\n      tag_185\n      jumpi\n        /* \"contracts/LandFIStake2.sol\":4030:4031  0 */\n      0x00\n        /* \"contracts/LandFIStake2.sol\":4023:4031  return 0 */\n      swap2\n      pop\n      pop\n      jump(tag_184)\n        /* \"contracts/LandFIStake2.sol\":4006:4031  if (amount == 0) return 0 */\n    tag_185:\n        /* \"contracts/LandFIStake2.sol\":4095:4118  uint256 normalizedStake */\n      0x00\n        /* \"contracts/LandFIStake2.sol\":4121:4167  _normalizeDecimals(amount, landFiDecimals, 18) */\n      tag_186\n        /* \"contracts/LandFIStake2.sol\":4140:4146  amount */\n      dup3\n        /* \"contracts/LandFIStake2.sol\":4148:4162  landFiDecimals */\n      immutable(\"0x3a2a6f4e0dcd4611e0c200ca45f55d44b54b380ac384ae0bef4a36eff139c211\")\n        /* \"contracts/LandFIStake2.sol\":4164:4166  18 */\n      0x12\n        /* \"contracts/LandFIStake2.sol\":4121:4139  _normalizeDecimals */\n      tag_187\n        /* \"contracts/LandFIStake2.sol\":4121:4167  _normalizeDecimals(amount, landFiDecimals, 18) */\n      jump\t// in\n    tag_186:\n        /* \"contracts/LandFIStake2.sol\":4095:4167  uint256 normalizedStake = _normalizeDecimals(amount, landFiDecimals, 18) */\n      swap1\n      pop\n        /* \"contracts/LandFIStake2.sol\":4262:4286  uint256 rewardNormalized */\n      0x00\n        /* \"contracts/LandFIStake2.sol\":4313:4316  100 */\n      0x64\n        /* \"contracts/LandFIStake2.sol\":4308:4309  5 */\n      0x05\n        /* \"contracts/LandFIStake2.sol\":4290:4305  normalizedStake */\n      dup4\n        /* \"contracts/LandFIStake2.sol\":4290:4309  normalizedStake * 5 */\n      tag_188\n      swap2\n      swap1\n      tag_189\n      jump\t// in\n    tag_188:\n        /* \"contracts/LandFIStake2.sol\":4289:4316  (normalizedStake * 5) / 100 */\n      tag_190\n      swap2\n      swap1\n      tag_191\n      jump\t// in\n    tag_190:\n        /* \"contracts/LandFIStake2.sol\":4262:4316  uint256 rewardNormalized = (normalizedStake * 5) / 100 */\n      swap1\n      pop\n        /* \"contracts/LandFIStake2.sol\":4386:4406  uint256 rewardAmount */\n      0x00\n        /* \"contracts/LandFIStake2.sol\":4409:4465  _normalizeDecimals(rewardNormalized, 18, rewardDecimals) */\n      tag_192\n        /* \"contracts/LandFIStake2.sol\":4428:4444  rewardNormalized */\n      dup3\n        /* \"contracts/LandFIStake2.sol\":4446:4448  18 */\n      0x12\n        /* \"contracts/LandFIStake2.sol\":4450:4464  rewardDecimals */\n      immutable(\"0xafc7867dc682bb65dda0adf82b5845e2c7aff376e8ead2312aa01aa72d90f990\")\n        /* \"contracts/LandFIStake2.sol\":4409:4427  _normalizeDecimals */\n      tag_187\n        /* \"contracts/LandFIStake2.sol\":4409:4465  _normalizeDecimals(rewardNormalized, 18, rewardDecimals) */\n      jump\t// in\n    tag_192:\n        /* \"contracts/LandFIStake2.sol\":4386:4465  uint256 rewardAmount = _normalizeDecimals(rewardNormalized, 18, rewardDecimals) */\n      swap1\n      pop\n        /* \"contracts/LandFIStake2.sol\":4483:4495  rewardAmount */\n      dup1\n        /* \"contracts/LandFIStake2.sol\":4476:4495  return rewardAmount */\n      swap5\n      pop\n      pop\n      pop\n      pop\n      pop\n        /* \"contracts/LandFIStake2.sol\":3886:4503  function calculateReward(address user) public view returns (uint256) {... */\n    tag_184:\n      swap2\n      swap1\n      pop\n      jump\t// out\n        /* \"contracts/LandFIStake2.sol\":836:859  uint256 public maxStake */\n    tag_89:\n      sload(0x05)\n      dup2\n      jump\t// out\n        /* \"contracts/LandFIStake2.sol\":3060:3166  function changeFullUnlock(bool _fullUnlock) external onlyOwner {... */\n    tag_94:\n        /* \"@openzeppelin/contracts/access/Ownable.sol\":1531:1544  _checkOwner() */\n      tag_194\n        /* \"@openzeppelin/contracts/access/Ownable.sol\":1531:1542  _checkOwner */\n      tag_107\n        /* \"@openzeppelin/contracts/access/Ownable.sol\":1531:1544  _checkOwner() */\n      jump\t// in\n    tag_194:\n        /* \"contracts/LandFIStake2.sol\":3147:3158  _fullUnlock */\n      dup1\n        /* \"contracts/LandFIStake2.sol\":3134:3144  fullUnlock */\n      0x07\n      0x00\n        /* \"contracts/LandFIStake2.sol\":3134:3158  fullUnlock = _fullUnlock */\n      0x0100\n      exp\n      dup2\n      sload\n      dup2\n      0xff\n      mul\n      not\n      and\n      swap1\n      dup4\n      iszero\n      iszero\n      mul\n      or\n      swap1\n      sstore\n      pop\n        /* \"contracts/LandFIStake2.sol\":3060:3166  function changeFullUnlock(bool _fullUnlock) external onlyOwner {... */\n      pop\n      jump\t// out\n        /* \"@openzeppelin/contracts/access/Ownable.sol\":2543:2758  function transferOwnership(address newOwner) public virtual onlyOwner {... */\n    tag_97:\n        /* \"@openzeppelin/contracts/access/Ownable.sol\":1531:1544  _checkOwner() */\n      tag_197\n        /* \"@openzeppelin/contracts/access/Ownable.sol\":1531:1542  _checkOwner */\n      tag_107\n        /* \"@openzeppelin/contracts/access/Ownable.sol\":1531:1544  _checkOwner() */\n      jump\t// in\n    tag_197:\n        /* \"@openzeppelin/contracts/access/Ownable.sol\":2647:2648  0 */\n      0x00\n        /* \"@openzeppelin/contracts/access/Ownable.sol\":2627:2649  newOwner == address(0) */\n      0xffffffffffffffffffffffffffffffffffffffff\n      and\n        /* \"@openzeppelin/contracts/access/Ownable.sol\":2627:2635  newOwner */\n      dup2\n        /* \"@openzeppelin/contracts/access/Ownable.sol\":2627:2649  newOwner == address(0) */\n      0xffffffffffffffffffffffffffffffffffffffff\n      and\n      sub\n        /* \"@openzeppelin/contracts/access/Ownable.sol\":2623:2714  if (newOwner == address(0)) {... */\n      tag_199\n      jumpi\n        /* \"@openzeppelin/contracts/access/Ownable.sol\":2700:2701  0 */\n      0x00\n        /* \"@openzeppelin/contracts/access/Ownable.sol\":2672:2703  OwnableInvalidOwner(address(0)) */\n      mload(0x40)\n      0x1e4fbdf700000000000000000000000000000000000000000000000000000000\n      dup2\n      mstore\n      0x04\n      add\n      tag_200\n      swap2\n      swap1\n      tag_66\n      jump\t// in\n    tag_200:\n      mload(0x40)\n      dup1\n      swap2\n      sub\n      swap1\n      revert\n        /* \"@openzeppelin/contracts/access/Ownable.sol\":2623:2714  if (newOwner == address(0)) {... */\n    tag_199:\n        /* \"@openzeppelin/contracts/access/Ownable.sol\":2723:2751  _transferOwnership(newOwner) */\n      tag_201\n        /* \"@openzeppelin/contracts/access/Ownable.sol\":2742:2750  newOwner */\n      dup2\n        /* \"@openzeppelin/contracts/access/Ownable.sol\":2723:2741  _transferOwnership */\n      tag_154\n        /* \"@openzeppelin/contracts/access/Ownable.sol\":2723:2751  _transferOwnership(newOwner) */\n      jump\t// in\n    tag_201:\n        /* \"@openzeppelin/contracts/access/Ownable.sol\":2543:2758  function transferOwnership(address newOwner) public virtual onlyOwner {... */\n      pop\n      jump\t// out\n        /* \"contracts/LandFIStake2.sol\":494:529  IERC20 public immutable rewardToken */\n    tag_99:\n      immutable(\"0xd1a451c62408e75aae8057e8f7b01919eee5ed8b15c827ddb321ba273cd9734f\")\n      dup2\n      jump\t// out\n        /* \"contracts/LandFIStake2.sol\":896:918  bool public fullUnlock */\n    tag_102:\n      0x07\n      0x00\n      swap1\n      sload\n      swap1\n      0x0100\n      exp\n      swap1\n      div\n      0xff\n      and\n      dup2\n      jump\t// out\n        /* \"@openzeppelin/contracts/access/Ownable.sol\":1796:1958  function _checkOwner() internal view virtual {... */\n    tag_107:\n        /* \"@openzeppelin/contracts/access/Ownable.sol\":1866:1878  _msgSender() */\n      tag_203\n        /* \"@openzeppelin/contracts/access/Ownable.sol\":1866:1876  _msgSender */\n      tag_204\n        /* \"@openzeppelin/contracts/access/Ownable.sol\":1866:1878  _msgSender() */\n      jump\t// in\n    tag_203:\n        /* \"@openzeppelin/contracts/access/Ownable.sol\":1855:1878  owner() != _msgSender() */\n      0xffffffffffffffffffffffffffffffffffffffff\n      and\n        /* \"@openzeppelin/contracts/access/Ownable.sol\":1855:1862  owner() */\n      tag_205\n        /* \"@openzeppelin/contracts/access/Ownable.sol\":1855:1860  owner */\n      tag_64\n        /* \"@openzeppelin/contracts/access/Ownable.sol\":1855:1862  owner() */\n      jump\t// in\n    tag_205:\n        /* \"@openzeppelin/contracts/access/Ownable.sol\":1855:1878  owner() != _msgSender() */\n      0xffffffffffffffffffffffffffffffffffffffff\n      and\n      eq\n        /* \"@openzeppelin/contracts/access/Ownable.sol\":1851:1952  if (owner() != _msgSender()) {... */\n      tag_206\n      jumpi\n        /* \"@openzeppelin/contracts/access/Ownable.sol\":1928:1940  _msgSender() */\n      tag_207\n        /* \"@openzeppelin/contracts/access/Ownable.sol\":1928:1938  _msgSender */\n      tag_204\n        /* \"@openzeppelin/contracts/access/Ownable.sol\":1928:1940  _msgSender() */\n      jump\t// in\n    tag_207:\n        /* \"@openzeppelin/contracts/access/Ownable.sol\":1901:1941  OwnableUnauthorizedAccount(_msgSender()) */\n      mload(0x40)\n      0x118cdaa700000000000000000000000000000000000000000000000000000000\n      dup2\n      mstore\n      0x04\n      add\n      tag_208\n      swap2\n      swap1\n      tag_66\n      jump\t// in\n    tag_208:\n      mload(0x40)\n      dup1\n      swap2\n      sub\n      swap1\n      revert\n        /* \"@openzeppelin/contracts/access/Ownable.sol\":1851:1952  if (owner() != _msgSender()) {... */\n    tag_206:\n        /* \"@openzeppelin/contracts/access/Ownable.sol\":1796:1958  function _checkOwner() internal view virtual {... */\n      jump\t// out\n        /* \"@openzeppelin/contracts/security/ReentrancyGuard.sol\":2336:2623  function _nonReentrantBefore() private {... */\n    tag_115:\n        /* \"@openzeppelin/contracts/security/ReentrancyGuard.sol\":1759:1760  2 */\n      0x02\n        /* \"@openzeppelin/contracts/security/ReentrancyGuard.sol\":2468:2475  _status */\n      sload(0x01)\n        /* \"@openzeppelin/contracts/security/ReentrancyGuard.sol\":2468:2487  _status != _ENTERED */\n      sub\n        /* \"@openzeppelin/contracts/security/ReentrancyGuard.sol\":2460:2523  require(_status != _ENTERED, \"ReentrancyGuard: reentrant call\") */\n      tag_210\n      jumpi\n      mload(0x40)\n      0x08c379a000000000000000000000000000000000000000000000000000000000\n      dup2\n      mstore\n      0x04\n      add\n      tag_211\n      swap1\n      tag_212\n      jump\t// in\n    tag_211:\n      mload(0x40)\n      dup1\n      swap2\n      sub\n      swap1\n      revert\n    tag_210:\n        /* \"@openzeppelin/contracts/security/ReentrancyGuard.sol\":1759:1760  2 */\n      0x02\n        /* \"@openzeppelin/contracts/security/ReentrancyGuard.sol\":2598:2605  _status */\n      0x01\n        /* \"@openzeppelin/contracts/security/ReentrancyGuard.sol\":2598:2616  _status = _ENTERED */\n      dup2\n      swap1\n      sstore\n      pop\n        /* \"@openzeppelin/contracts/security/ReentrancyGuard.sol\":2336:2623  function _nonReentrantBefore() private {... */\n      jump\t// out\n        /* \"@openzeppelin/contracts/token/ERC20/utils/SafeERC20.sol\":1219:1379  function safeTransfer(IERC20 token, address to, uint256 value) internal {... */\n    tag_128:\n        /* \"@openzeppelin/contracts/token/ERC20/utils/SafeERC20.sol\":1301:1372  _callOptionalReturn(token, abi.encodeCall(token.transfer, (to, value))) */\n      tag_214\n        /* \"@openzeppelin/contracts/token/ERC20/utils/SafeERC20.sol\":1321:1326  token */\n      dup4\n        /* \"@openzeppelin/contracts/token/ERC20/utils/SafeERC20.sol\":1343:1348  token */\n      dup5\n        /* \"@openzeppelin/contracts/token/ERC20/utils/SafeERC20.sol\":1343:1357  token.transfer */\n      0xffffffffffffffffffffffffffffffffffffffff\n      and\n      0xa9059cbb\n        /* \"@openzeppelin/contracts/token/ERC20/utils/SafeERC20.sol\":1360:1362  to */\n      dup6\n        /* \"@openzeppelin/contracts/token/ERC20/utils/SafeERC20.sol\":1364:1369  value */\n      dup6\n        /* \"@openzeppelin/contracts/token/ERC20/utils/SafeERC20.sol\":1328:1371  abi.encodeCall(token.transfer, (to, value)) */\n      add(0x24, mload(0x40))\n      tag_215\n      swap3\n      swap2\n      swap1\n      tag_216\n      jump\t// in\n    tag_215:\n      mload(0x40)\n      0x20\n      dup2\n      dup4\n      sub\n      sub\n      dup2\n      mstore\n      swap1\n      0x40\n      mstore\n      swap2\n      pop\n      0xe0\n      shl\n      0x20\n      dup3\n      add\n      dup1\n      mload\n      0xffffffffffffffffffffffffffffffffffffffffffffffffffffffff\n      dup4\n      dup2\n      dup4\n      and\n      or\n      dup4\n      mstore\n      pop\n      pop\n      pop\n      pop\n        /* \"@openzeppelin/contracts/token/ERC20/utils/SafeERC20.sol\":1301:1320  _callOptionalReturn */\n      tag_217\n        /* \"@openzeppelin/contracts/token/ERC20/utils/SafeERC20.sol\":1301:1372  _callOptionalReturn(token, abi.encodeCall(token.transfer, (to, value))) */\n      jump\t// in\n    tag_214:\n        /* \"@openzeppelin/contracts/token/ERC20/utils/SafeERC20.sol\":1219:1379  function safeTransfer(IERC20 token, address to, uint256 value) internal {... */\n      pop\n      pop\n      pop\n      jump\t// out\n        /* \"@openzeppelin/contracts/security/ReentrancyGuard.sol\":2629:2838  function _nonReentrantAfter() private {... */\n    tag_142:\n        /* \"@openzeppelin/contracts/security/ReentrancyGuard.sol\":1716:1717  1 */\n      0x01\n        /* \"@openzeppelin/contracts/security/ReentrancyGuard.sol\":2809:2816  _status */\n      dup1\n        /* \"@openzeppelin/contracts/security/ReentrancyGuard.sol\":2809:2831  _status = _NOT_ENTERED */\n      dup2\n      swap1\n      sstore\n      pop\n        /* \"@openzeppelin/contracts/security/ReentrancyGuard.sol\":2629:2838  function _nonReentrantAfter() private {... */\n      jump\t// out\n        /* \"@openzeppelin/contracts/access/Ownable.sol\":2912:3099  function _transferOwnership(address newOwner) internal virtual {... */\n    tag_154:\n        /* \"@openzeppelin/contracts/access/Ownable.sol\":2985:3001  address oldOwner */\n      0x00\n        /* \"@openzeppelin/contracts/access/Ownable.sol\":3004:3010  _owner */\n      0x00\n      0x00\n      swap1\n      sload\n      swap1\n      0x0100\n      exp\n      swap1\n      div\n      0xffffffffffffffffffffffffffffffffffffffff\n      and\n        /* \"@openzeppelin/contracts/access/Ownable.sol\":2985:3010  address oldOwner = _owner */\n      swap1\n      pop\n        /* \"@openzeppelin/contracts/access/Ownable.sol\":3029:3037  newOwner */\n      dup2\n        /* \"@openzeppelin/contracts/access/Ownable.sol\":3020:3026  _owner */\n      0x00\n      0x00\n        /* \"@openzeppelin/contracts/access/Ownable.sol\":3020:3037  _owner = newOwner */\n      0x0100\n      exp\n      dup2\n      sload\n      dup2\n      0xffffffffffffffffffffffffffffffffffffffff\n      mul\n      not\n      and\n      swap1\n      dup4\n      0xffffffffffffffffffffffffffffffffffffffff\n      and\n      mul\n      or\n      swap1\n      sstore\n      pop\n        /* \"@openzeppelin/contracts/access/Ownable.sol\":3083:3091  newOwner */\n      dup2\n        /* \"@openzeppelin/contracts/access/Ownable.sol\":3052:3092  OwnershipTransferred(oldOwner, newOwner) */\n      0xffffffffffffffffffffffffffffffffffffffff\n      and\n        /* \"@openzeppelin/contracts/access/Ownable.sol\":3073:3081  oldOwner */\n      dup2\n        /* \"@openzeppelin/contracts/access/Ownable.sol\":3052:3092  OwnershipTransferred(oldOwner, newOwner) */\n      0xffffffffffffffffffffffffffffffffffffffff\n      and\n      0x8be0079c531659141344cd1fd0a4f28419497f9722a3daafe3b4186f6b6457e0\n      mload(0x40)\n      mload(0x40)\n      dup1\n      swap2\n      sub\n      swap1\n      log3\n        /* \"@openzeppelin/contracts/access/Ownable.sol\":2975:3099  {... */\n      pop\n        /* \"@openzeppelin/contracts/access/Ownable.sol\":2912:3099  function _transferOwnership(address newOwner) internal virtual {... */\n      pop\n      jump\t// out\n        /* \"@openzeppelin/contracts/token/ERC20/utils/SafeERC20.sol\":1618:1806  function safeTransferFrom(IERC20 token, address from, address to, uint256 value) internal {... */\n    tag_174:\n        /* \"@openzeppelin/contracts/token/ERC20/utils/SafeERC20.sol\":1718:1799  _callOptionalReturn(token, abi.encodeCall(token.transferFrom, (from, to, value))) */\n      tag_221\n        /* \"@openzeppelin/contracts/token/ERC20/utils/SafeERC20.sol\":1738:1743  token */\n      dup5\n        /* \"@openzeppelin/contracts/token/ERC20/utils/SafeERC20.sol\":1760:1765  token */\n      dup6\n        /* \"@openzeppelin/contracts/token/ERC20/utils/SafeERC20.sol\":1760:1778  token.transferFrom */\n      0xffffffffffffffffffffffffffffffffffffffff\n      and\n      0x23b872dd\n        /* \"@openzeppelin/contracts/token/ERC20/utils/SafeERC20.sol\":1781:1785  from */\n      dup7\n        /* \"@openzeppelin/contracts/token/ERC20/utils/SafeERC20.sol\":1787:1789  to */\n      dup7\n        /* \"@openzeppelin/contracts/token/ERC20/utils/SafeERC20.sol\":1791:1796  value */\n      dup7\n        /* \"@openzeppelin/contracts/token/ERC20/utils/SafeERC20.sol\":1745:1798  abi.encodeCall(token.transferFrom, (from, to, value)) */\n      add(0x24, mload(0x40))\n      tag_222\n      swap4\n      swap3\n      swap2\n      swap1\n      tag_223\n      jump\t// in\n    tag_222:\n      mload(0x40)\n      0x20\n      dup2\n      dup4\n      sub\n      sub\n      dup2\n      mstore\n      swap1\n      0x40\n      mstore\n      swap2\n      pop\n      0xe0\n      shl\n      0x20\n      dup3\n      add\n      dup1\n      mload\n      0xffffffffffffffffffffffffffffffffffffffffffffffffffffffff\n      dup4\n      dup2\n      dup4\n      and\n      or\n      dup4\n      mstore\n      pop\n      pop\n      pop\n      pop\n        /* \"@openzeppelin/contracts/token/ERC20/utils/SafeERC20.sol\":1718:1737  _callOptionalReturn */\n      tag_217\n        /* \"@openzeppelin/contracts/token/ERC20/utils/SafeERC20.sol\":1718:1799  _callOptionalReturn(token, abi.encodeCall(token.transferFrom, (from, to, value))) */\n      jump\t// in\n    tag_221:\n        /* \"@openzeppelin/contracts/token/ERC20/utils/SafeERC20.sol\":1618:1806  function safeTransferFrom(IERC20 token, address from, address to, uint256 value) internal {... */\n      pop\n      pop\n      pop\n      pop\n      jump\t// out\n        /* \"contracts/LandFIStake2.sol\":5684:6117  function _normalizeDecimals(... */\n    tag_187:\n        /* \"contracts/LandFIStake2.sol\":5823:5830  uint256 */\n      0x00\n        /* \"contracts/LandFIStake2.sol\":5863:5873  toDecimals */\n      dup2\n        /* \"contracts/LandFIStake2.sol\":5847:5873  fromDecimals == toDecimals */\n      0xff\n      and\n        /* \"contracts/LandFIStake2.sol\":5847:5859  fromDecimals */\n      dup4\n        /* \"contracts/LandFIStake2.sol\":5847:5873  fromDecimals == toDecimals */\n      0xff\n      and\n      sub\n        /* \"contracts/LandFIStake2.sol\":5843:6110  if (fromDecimals == toDecimals) {... */\n      tag_225\n      jumpi\n        /* \"contracts/LandFIStake2.sol\":5897:5903  amount */\n      dup4\n        /* \"contracts/LandFIStake2.sol\":5890:5903  return amount */\n      swap1\n      pop\n      jump(tag_224)\n        /* \"contracts/LandFIStake2.sol\":5843:6110  if (fromDecimals == toDecimals) {... */\n    tag_225:\n        /* \"contracts/LandFIStake2.sol\":5940:5950  toDecimals */\n      dup2\n        /* \"contracts/LandFIStake2.sol\":5925:5950  fromDecimals > toDecimals */\n      0xff\n      and\n        /* \"contracts/LandFIStake2.sol\":5925:5937  fromDecimals */\n      dup4\n        /* \"contracts/LandFIStake2.sol\":5925:5950  fromDecimals > toDecimals */\n      0xff\n      and\n      gt\n        /* \"contracts/LandFIStake2.sol\":5921:6110  if (fromDecimals > toDecimals) {... */\n      iszero\n      tag_227\n      jumpi\n        /* \"contracts/LandFIStake2.sol\":6004:6014  toDecimals */\n      dup2\n        /* \"contracts/LandFIStake2.sol\":5989:6001  fromDecimals */\n      dup4\n        /* \"contracts/LandFIStake2.sol\":5989:6014  fromDecimals - toDecimals */\n      tag_228\n      swap2\n      swap1\n      tag_229\n      jump\t// in\n    tag_228:\n        /* \"contracts/LandFIStake2.sol\":5984:5986  10 */\n      0x0a\n        /* \"contracts/LandFIStake2.sol\":5984:6015  10**(fromDecimals - toDecimals) */\n      tag_230\n      swap2\n      swap1\n      tag_231\n      jump\t// in\n    tag_230:\n        /* \"contracts/LandFIStake2.sol\":5974:5980  amount */\n      dup5\n        /* \"contracts/LandFIStake2.sol\":5974:6016  amount / (10**(fromDecimals - toDecimals)) */\n      tag_232\n      swap2\n      swap1\n      tag_191\n      jump\t// in\n    tag_232:\n        /* \"contracts/LandFIStake2.sol\":5967:6016  return amount / (10**(fromDecimals - toDecimals)) */\n      swap1\n      pop\n      jump(tag_224)\n        /* \"contracts/LandFIStake2.sol\":5921:6110  if (fromDecimals > toDecimals) {... */\n    tag_227:\n        /* \"contracts/LandFIStake2.sol\":6084:6096  fromDecimals */\n      dup3\n        /* \"contracts/LandFIStake2.sol\":6071:6081  toDecimals */\n      dup3\n        /* \"contracts/LandFIStake2.sol\":6071:6096  toDecimals - fromDecimals */\n      tag_234\n      swap2\n      swap1\n      tag_229\n      jump\t// in\n    tag_234:\n        /* \"contracts/LandFIStake2.sol\":6066:6068  10 */\n      0x0a\n        /* \"contracts/LandFIStake2.sol\":6066:6097  10**(toDecimals - fromDecimals) */\n      tag_235\n      swap2\n      swap1\n      tag_231\n      jump\t// in\n    tag_235:\n        /* \"contracts/LandFIStake2.sol\":6056:6062  amount */\n      dup5\n        /* \"contracts/LandFIStake2.sol\":6056:6098  amount * (10**(toDecimals - fromDecimals)) */\n      tag_236\n      swap2\n      swap1\n      tag_189\n      jump\t// in\n    tag_236:\n        /* \"contracts/LandFIStake2.sol\":6049:6098  return amount * (10**(toDecimals - fromDecimals)) */\n      swap1\n      pop\n        /* \"contracts/LandFIStake2.sol\":5684:6117  function _normalizeDecimals(... */\n    tag_224:\n      swap4\n      swap3\n      pop\n      pop\n      pop\n      jump\t// out\n        /* \"@openzeppelin/contracts/utils/Context.sol\":656:752  function _msgSender() internal view virtual returns (address) {... */\n    tag_204:\n        /* \"@openzeppelin/contracts/utils/Context.sol\":709:716  address */\n      0x00\n        /* \"@openzeppelin/contracts/utils/Context.sol\":735:745  msg.sender */\n      caller\n        /* \"@openzeppelin/contracts/utils/Context.sol\":728:745  return msg.sender */\n      swap1\n      pop\n        /* \"@openzeppelin/contracts/utils/Context.sol\":656:752  function _msgSender() internal view virtual returns (address) {... */\n      swap1\n      jump\t// out\n        /* \"@openzeppelin/contracts/token/ERC20/utils/SafeERC20.sol\":8370:9090  function _callOptionalReturn(IERC20 token, bytes memory data) private {... */\n    tag_217:\n        /* \"@openzeppelin/contracts/token/ERC20/utils/SafeERC20.sol\":8450:8468  uint256 returnSize */\n      0x00\n        /* \"@openzeppelin/contracts/token/ERC20/utils/SafeERC20.sol\":8478:8497  uint256 returnValue */\n      0x00\n        /* \"@openzeppelin/contracts/token/ERC20/utils/SafeERC20.sol\":8616:8620  0x20 */\n      0x20\n        /* \"@openzeppelin/contracts/token/ERC20/utils/SafeERC20.sol\":8613:8614  0 */\n      0x00\n        /* \"@openzeppelin/contracts/token/ERC20/utils/SafeERC20.sol\":8606:8610  data */\n      dup5\n        /* \"@openzeppelin/contracts/token/ERC20/utils/SafeERC20.sol\":8600:8611  mload(data) */\n      mload\n        /* \"@openzeppelin/contracts/token/ERC20/utils/SafeERC20.sol\":8593:8597  0x20 */\n      0x20\n        /* \"@openzeppelin/contracts/token/ERC20/utils/SafeERC20.sol\":8587:8591  data */\n      dup7\n        /* \"@openzeppelin/contracts/token/ERC20/utils/SafeERC20.sol\":8583:8598  add(data, 0x20) */\n      add\n        /* \"@openzeppelin/contracts/token/ERC20/utils/SafeERC20.sol\":8580:8581  0 */\n      0x00\n        /* \"@openzeppelin/contracts/token/ERC20/utils/SafeERC20.sol\":8573:8578  token */\n      dup9\n        /* \"@openzeppelin/contracts/token/ERC20/utils/SafeERC20.sol\":8566:8571  gas() */\n      gas\n        /* \"@openzeppelin/contracts/token/ERC20/utils/SafeERC20.sol\":8561:8621  call(gas(), token, 0, add(data, 0x20), mload(data), 0, 0x20) */\n      call\n        /* \"@openzeppelin/contracts/token/ERC20/utils/SafeERC20.sol\":8673:8680  success */\n      dup1\n        /* \"@openzeppelin/contracts/token/ERC20/utils/SafeERC20.sol\":8663:8839  if iszero(success) {... */\n      tag_239\n      jumpi\n        /* \"@openzeppelin/contracts/token/ERC20/utils/SafeERC20.sol\":8717:8721  0x40 */\n      0x40\n        /* \"@openzeppelin/contracts/token/ERC20/utils/SafeERC20.sol\":8711:8722  mload(0x40) */\n      mload\n        /* \"@openzeppelin/contracts/token/ERC20/utils/SafeERC20.sol\":8762:8778  returndatasize() */\n      returndatasize\n        /* \"@openzeppelin/contracts/token/ERC20/utils/SafeERC20.sol\":8759:8760  0 */\n      0x00\n        /* \"@openzeppelin/contracts/token/ERC20/utils/SafeERC20.sol\":8754:8757  ptr */\n      dup3\n        /* \"@openzeppelin/contracts/token/ERC20/utils/SafeERC20.sol\":8739:8779  returndatacopy(ptr, 0, returndatasize()) */\n      returndatacopy\n        /* \"@openzeppelin/contracts/token/ERC20/utils/SafeERC20.sol\":8808:8824  returndatasize() */\n      returndatasize\n        /* \"@openzeppelin/contracts/token/ERC20/utils/SafeERC20.sol\":8803:8806  ptr */\n      dup2\n        /* \"@openzeppelin/contracts/token/ERC20/utils/SafeERC20.sol\":8796:8825  revert(ptr, returndatasize()) */\n      revert\n        /* \"@openzeppelin/contracts/token/ERC20/utils/SafeERC20.sol\":8663:8839  if iszero(success) {... */\n    tag_239:\n        /* \"@openzeppelin/contracts/token/ERC20/utils/SafeERC20.sol\":8866:8882  returndatasize() */\n      returndatasize\n        /* \"@openzeppelin/contracts/token/ERC20/utils/SafeERC20.sol\":8852:8882  returnSize := returndatasize() */\n      swap3\n      pop\n        /* \"@openzeppelin/contracts/token/ERC20/utils/SafeERC20.sol\":8916:8917  0 */\n      0x00\n        /* \"@openzeppelin/contracts/token/ERC20/utils/SafeERC20.sol\":8910:8918  mload(0) */\n      mload\n        /* \"@openzeppelin/contracts/token/ERC20/utils/SafeERC20.sol\":8895:8918  returnValue := mload(0) */\n      swap2\n      pop\n        /* \"@openzeppelin/contracts/token/ERC20/utils/SafeERC20.sol\":8532:8928  {... */\n      pop\n        /* \"@openzeppelin/contracts/token/ERC20/utils/SafeERC20.sol\":8956:8957  0 */\n      0x00\n        /* \"@openzeppelin/contracts/token/ERC20/utils/SafeERC20.sol\":8942:8952  returnSize */\n      dup3\n        /* \"@openzeppelin/contracts/token/ERC20/utils/SafeERC20.sol\":8942:8957  returnSize == 0 */\n      eq\n        /* \"@openzeppelin/contracts/token/ERC20/utils/SafeERC20.sol\":8942:9010  returnSize == 0 ? address(token).code.length == 0 : returnValue != 1 */\n      tag_240\n      jumpi\n        /* \"@openzeppelin/contracts/token/ERC20/utils/SafeERC20.sol\":9009:9010  1 */\n      0x01\n        /* \"@openzeppelin/contracts/token/ERC20/utils/SafeERC20.sol\":8994:9005  returnValue */\n      dup2\n        /* \"@openzeppelin/contracts/token/ERC20/utils/SafeERC20.sol\":8994:9010  returnValue != 1 */\n      eq\n      iszero\n        /* \"@openzeppelin/contracts/token/ERC20/utils/SafeERC20.sol\":8942:9010  returnSize == 0 ? address(token).code.length == 0 : returnValue != 1 */\n      jump(tag_241)\n    tag_240:\n        /* \"@openzeppelin/contracts/token/ERC20/utils/SafeERC20.sol\":8990:8991  0 */\n      0x00\n        /* \"@openzeppelin/contracts/token/ERC20/utils/SafeERC20.sol\":8968:8973  token */\n      dup5\n        /* \"@openzeppelin/contracts/token/ERC20/utils/SafeERC20.sol\":8960:8986  address(token).code.length */\n      0xffffffffffffffffffffffffffffffffffffffff\n      and\n      extcodesize\n        /* \"@openzeppelin/contracts/token/ERC20/utils/SafeERC20.sol\":8960:8991  address(token).code.length == 0 */\n      eq\n        /* \"@openzeppelin/contracts/token/ERC20/utils/SafeERC20.sol\":8942:9010  returnSize == 0 ? address(token).code.length == 0 : returnValue != 1 */\n    tag_241:\n        /* \"@openzeppelin/contracts/token/ERC20/utils/SafeERC20.sol\":8938:9084  if (returnSize == 0 ? address(token).code.length == 0 : returnValue != 1) {... */\n      iszero\n      tag_242\n      jumpi\n        /* \"@openzeppelin/contracts/token/ERC20/utils/SafeERC20.sol\":9066:9071  token */\n      dup4\n        /* \"@openzeppelin/contracts/token/ERC20/utils/SafeERC20.sol\":9033:9073  SafeERC20FailedOperation(address(token)) */\n      mload(0x40)\n      0x5274afe700000000000000000000000000000000000000000000000000000000\n      dup2\n      mstore\n      0x04\n      add\n      tag_243\n      swap2\n      swap1\n      tag_66\n      jump\t// in\n    tag_243:\n      mload(0x40)\n      dup1\n      swap2\n      sub\n      swap1\n      revert\n        /* \"@openzeppelin/contracts/token/ERC20/utils/SafeERC20.sol\":8938:9084  if (returnSize == 0 ? address(token).code.length == 0 : returnValue != 1) {... */\n    tag_242:\n        /* \"@openzeppelin/contracts/token/ERC20/utils/SafeERC20.sol\":8440:9090  {... */\n      pop\n      pop\n        /* \"@openzeppelin/contracts/token/ERC20/utils/SafeERC20.sol\":8370:9090  function _callOptionalReturn(IERC20 token, bytes memory data) private {... */\n      pop\n      pop\n      jump\t// out\n        /* \"#utility.yul\":88:205   */\n    tag_245:\n        /* \"#utility.yul\":197:198   */\n      0x00\n        /* \"#utility.yul\":194:195   */\n      0x00\n        /* \"#utility.yul\":187:199   */\n      revert\n        /* \"#utility.yul\":334:460   */\n    tag_247:\n        /* \"#utility.yul\":371:378   */\n      0x00\n        /* \"#utility.yul\":411:453   */\n      0xffffffffffffffffffffffffffffffffffffffff\n        /* \"#utility.yul\":404:409   */\n      dup3\n        /* \"#utility.yul\":400:454   */\n      and\n        /* \"#utility.yul\":389:454   */\n      swap1\n      pop\n        /* \"#utility.yul\":334:460   */\n      swap2\n      swap1\n      pop\n      jump\t// out\n        /* \"#utility.yul\":466:562   */\n    tag_248:\n        /* \"#utility.yul\":503:510   */\n      0x00\n        /* \"#utility.yul\":532:556   */\n      tag_302\n        /* \"#utility.yul\":550:555   */\n      dup3\n        /* \"#utility.yul\":532:556   */\n      tag_247\n      jump\t// in\n    tag_302:\n        /* \"#utility.yul\":521:556   */\n      swap1\n      pop\n        /* \"#utility.yul\":466:562   */\n      swap2\n      swap1\n      pop\n      jump\t// out\n        /* \"#utility.yul\":568:690   */\n    tag_249:\n        /* \"#utility.yul\":641:665   */\n      tag_304\n        /* \"#utility.yul\":659:664   */\n      dup2\n        /* \"#utility.yul\":641:665   */\n      tag_248\n      jump\t// in\n    tag_304:\n        /* \"#utility.yul\":634:639   */\n      dup2\n        /* \"#utility.yul\":631:666   */\n      eq\n        /* \"#utility.yul\":621:684   */\n      tag_305\n      jumpi\n        /* \"#utility.yul\":680:681   */\n      0x00\n        /* \"#utility.yul\":677:678   */\n      0x00\n        /* \"#utility.yul\":670:682   */\n      revert\n        /* \"#utility.yul\":621:684   */\n    tag_305:\n        /* \"#utility.yul\":568:690   */\n      pop\n      jump\t// out\n        /* \"#utility.yul\":696:835   */\n    tag_250:\n        /* \"#utility.yul\":742:747   */\n      0x00\n        /* \"#utility.yul\":780:786   */\n      dup2\n        /* \"#utility.yul\":767:787   */\n      calldataload\n        /* \"#utility.yul\":758:787   */\n      swap1\n      pop\n        /* \"#utility.yul\":796:829   */\n      tag_307\n        /* \"#utility.yul\":823:828   */\n      dup2\n        /* \"#utility.yul\":796:829   */\n      tag_249\n      jump\t// in\n    tag_307:\n        /* \"#utility.yul\":696:835   */\n      swap3\n      swap2\n      pop\n      pop\n      jump\t// out\n        /* \"#utility.yul\":841:1170   */\n    tag_30:\n        /* \"#utility.yul\":900:906   */\n      0x00\n        /* \"#utility.yul\":949:951   */\n      0x20\n        /* \"#utility.yul\":937:946   */\n      dup3\n        /* \"#utility.yul\":928:935   */\n      dup5\n        /* \"#utility.yul\":924:947   */\n      sub\n        /* \"#utility.yul\":920:952   */\n      slt\n        /* \"#utility.yul\":917:1036   */\n      iszero\n      tag_309\n      jumpi\n        /* \"#utility.yul\":955:1034   */\n      tag_310\n      tag_245\n      jump\t// in\n    tag_310:\n        /* \"#utility.yul\":917:1036   */\n    tag_309:\n        /* \"#utility.yul\":1075:1076   */\n      0x00\n        /* \"#utility.yul\":1100:1153   */\n      tag_311\n        /* \"#utility.yul\":1145:1152   */\n      dup5\n        /* \"#utility.yul\":1136:1142   */\n      dup3\n        /* \"#utility.yul\":1125:1134   */\n      dup6\n        /* \"#utility.yul\":1121:1143   */\n      add\n        /* \"#utility.yul\":1100:1153   */\n      tag_250\n      jump\t// in\n    tag_311:\n        /* \"#utility.yul\":1090:1153   */\n      swap2\n      pop\n        /* \"#utility.yul\":1046:1163   */\n      pop\n        /* \"#utility.yul\":841:1170   */\n      swap3\n      swap2\n      pop\n      pop\n      jump\t// out\n        /* \"#utility.yul\":1176:1253   */\n    tag_251:\n        /* \"#utility.yul\":1213:1220   */\n      0x00\n        /* \"#utility.yul\":1242:1247   */\n      dup2\n        /* \"#utility.yul\":1231:1247   */\n      swap1\n      pop\n        /* \"#utility.yul\":1176:1253   */\n      swap2\n      swap1\n      pop\n      jump\t// out\n        /* \"#utility.yul\":1259:1377   */\n    tag_252:\n        /* \"#utility.yul\":1346:1370   */\n      tag_314\n        /* \"#utility.yul\":1364:1369   */\n      dup2\n        /* \"#utility.yul\":1346:1370   */\n      tag_251\n      jump\t// in\n    tag_314:\n        /* \"#utility.yul\":1341:1344   */\n      dup3\n        /* \"#utility.yul\":1334:1371   */\n      mstore\n        /* \"#utility.yul\":1259:1377   */\n      pop\n      pop\n      jump\t// out\n        /* \"#utility.yul\":1383:1605   */\n    tag_33:\n        /* \"#utility.yul\":1476:1480   */\n      0x00\n        /* \"#utility.yul\":1514:1516   */\n      0x20\n        /* \"#utility.yul\":1503:1512   */\n      dup3\n        /* \"#utility.yul\":1499:1517   */\n      add\n        /* \"#utility.yul\":1491:1517   */\n      swap1\n      pop\n        /* \"#utility.yul\":1527:1598   */\n      tag_316\n        /* \"#utility.yul\":1595:1596   */\n      0x00\n        /* \"#utility.yul\":1584:1593   */\n      dup4\n        /* \"#utility.yul\":1580:1597   */\n      add\n        /* \"#utility.yul\":1571:1577   */\n      dup5\n        /* \"#utility.yul\":1527:1598   */\n      tag_252\n      jump\t// in\n    tag_316:\n        /* \"#utility.yul\":1383:1605   */\n      swap3\n      swap2\n      pop\n      pop\n      jump\t// out\n        /* \"#utility.yul\":1611:1733   */\n    tag_253:\n        /* \"#utility.yul\":1684:1708   */\n      tag_318\n        /* \"#utility.yul\":1702:1707   */\n      dup2\n        /* \"#utility.yul\":1684:1708   */\n      tag_251\n      jump\t// in\n    tag_318:\n        /* \"#utility.yul\":1677:1682   */\n      dup2\n        /* \"#utility.yul\":1674:1709   */\n      eq\n        /* \"#utility.yul\":1664:1727   */\n      tag_319\n      jumpi\n        /* \"#utility.yul\":1723:1724   */\n      0x00\n        /* \"#utility.yul\":1720:1721   */\n      0x00\n        /* \"#utility.yul\":1713:1725   */\n      revert\n        /* \"#utility.yul\":1664:1727   */\n    tag_319:\n        /* \"#utility.yul\":1611:1733   */\n      pop\n      jump\t// out\n        /* \"#utility.yul\":1739:1878   */\n    tag_254:\n        /* \"#utility.yul\":1785:1790   */\n      0x00\n        /* \"#utility.yul\":1823:1829   */\n      dup2\n        /* \"#utility.yul\":1810:1830   */\n      calldataload\n        /* \"#utility.yul\":1801:1830   */\n      swap1\n      pop\n        /* \"#utility.yul\":1839:1872   */\n      tag_321\n        /* \"#utility.yul\":1866:1871   */\n      dup2\n        /* \"#utility.yul\":1839:1872   */\n      tag_253\n      jump\t// in\n    tag_321:\n        /* \"#utility.yul\":1739:1878   */\n      swap3\n      swap2\n      pop\n      pop\n      jump\t// out\n        /* \"#utility.yul\":1884:2213   */\n    tag_36:\n        /* \"#utility.yul\":1943:1949   */\n      0x00\n        /* \"#utility.yul\":1992:1994   */\n      0x20\n        /* \"#utility.yul\":1980:1989   */\n      dup3\n        /* \"#utility.yul\":1971:1978   */\n      dup5\n        /* \"#utility.yul\":1967:1990   */\n      sub\n        /* \"#utility.yul\":1963:1995   */\n      slt\n        /* \"#utility.yul\":1960:2079   */\n      iszero\n      tag_323\n      jumpi\n        /* \"#utility.yul\":1998:2077   */\n      tag_324\n      tag_245\n      jump\t// in\n    tag_324:\n        /* \"#utility.yul\":1960:2079   */\n    tag_323:\n        /* \"#utility.yul\":2118:2119   */\n      0x00\n        /* \"#utility.yul\":2143:2196   */\n      tag_325\n        /* \"#utility.yul\":2188:2195   */\n      dup5\n        /* \"#utility.yul\":2179:2185   */\n      dup3\n        /* \"#utility.yul\":2168:2177   */\n      dup6\n        /* \"#utility.yul\":2164:2186   */\n      add\n        /* \"#utility.yul\":2143:2196   */\n      tag_254\n      jump\t// in\n    tag_325:\n        /* \"#utility.yul\":2133:2196   */\n      swap2\n      pop\n        /* \"#utility.yul\":2089:2206   */\n      pop\n        /* \"#utility.yul\":1884:2213   */\n      swap3\n      swap2\n      pop\n      pop\n      jump\t// out\n        /* \"#utility.yul\":2219:2279   */\n    tag_255:\n        /* \"#utility.yul\":2247:2250   */\n      0x00\n        /* \"#utility.yul\":2268:2273   */\n      dup2\n        /* \"#utility.yul\":2261:2273   */\n      swap1\n      pop\n        /* \"#utility.yul\":2219:2279   */\n      swap2\n      swap1\n      pop\n      jump\t// out\n        /* \"#utility.yul\":2285:2427   */\n    tag_256:\n        /* \"#utility.yul\":2335:2344   */\n      0x00\n        /* \"#utility.yul\":2368:2421   */\n      tag_328\n        /* \"#utility.yul\":2386:2420   */\n      tag_329\n        /* \"#utility.yul\":2395:2419   */\n      tag_330\n        /* \"#utility.yul\":2413:2418   */\n      dup5\n        /* \"#utility.yul\":2395:2419   */\n      tag_247\n      jump\t// in\n    tag_330:\n        /* \"#utility.yul\":2386:2420   */\n      tag_255\n      jump\t// in\n    tag_329:\n        /* \"#utility.yul\":2368:2421   */\n      tag_247\n      jump\t// in\n    tag_328:\n        /* \"#utility.yul\":2355:2421   */\n      swap1\n      pop\n        /* \"#utility.yul\":2285:2427   */\n      swap2\n      swap1\n      pop\n      jump\t// out\n        /* \"#utility.yul\":2433:2559   */\n    tag_257:\n        /* \"#utility.yul\":2483:2492   */\n      0x00\n        /* \"#utility.yul\":2516:2553   */\n      tag_332\n        /* \"#utility.yul\":2547:2552   */\n      dup3\n        /* \"#utility.yul\":2516:2553   */\n      tag_256\n      jump\t// in\n    tag_332:\n        /* \"#utility.yul\":2503:2553   */\n      swap1\n      pop\n        /* \"#utility.yul\":2433:2559   */\n      swap2\n      swap1\n      pop\n      jump\t// out\n        /* \"#utility.yul\":2565:2705   */\n    tag_258:\n        /* \"#utility.yul\":2629:2638   */\n      0x00\n        /* \"#utility.yul\":2662:2699   */\n      tag_334\n        /* \"#utility.yul\":2693:2698   */\n      dup3\n        /* \"#utility.yul\":2662:2699   */\n      tag_257\n      jump\t// in\n    tag_334:\n        /* \"#utility.yul\":2649:2699   */\n      swap1\n      pop\n        /* \"#utility.yul\":2565:2705   */\n      swap2\n      swap1\n      pop\n      jump\t// out\n        /* \"#utility.yul\":2711:2870   */\n    tag_259:\n        /* \"#utility.yul\":2812:2863   */\n      tag_336\n        /* \"#utility.yul\":2857:2862   */\n      dup2\n        /* \"#utility.yul\":2812:2863   */\n      tag_258\n      jump\t// in\n    tag_336:\n        /* \"#utility.yul\":2807:2810   */\n      dup3\n        /* \"#utility.yul\":2800:2864   */\n      mstore\n        /* \"#utility.yul\":2711:2870   */\n      pop\n      pop\n      jump\t// out\n        /* \"#utility.yul\":2876:3126   */\n    tag_45:\n        /* \"#utility.yul\":2983:2987   */\n      0x00\n        /* \"#utility.yul\":3021:3023   */\n      0x20\n        /* \"#utility.yul\":3010:3019   */\n      dup3\n        /* \"#utility.yul\":3006:3024   */\n      add\n        /* \"#utility.yul\":2998:3024   */\n      swap1\n      pop\n        /* \"#utility.yul\":3034:3119   */\n      tag_338\n        /* \"#utility.yul\":3116:3117   */\n      0x00\n        /* \"#utility.yul\":3105:3114   */\n      dup4\n        /* \"#utility.yul\":3101:3118   */\n      add\n        /* \"#utility.yul\":3092:3098   */\n      dup5\n        /* \"#utility.yul\":3034:3119   */\n      tag_259\n      jump\t// in\n    tag_338:\n        /* \"#utility.yul\":2876:3126   */\n      swap3\n      swap2\n      pop\n      pop\n      jump\t// out\n        /* \"#utility.yul\":3132:3250   */\n    tag_260:\n        /* \"#utility.yul\":3219:3243   */\n      tag_340\n        /* \"#utility.yul\":3237:3242   */\n      dup2\n        /* \"#utility.yul\":3219:3243   */\n      tag_248\n      jump\t// in\n    tag_340:\n        /* \"#utility.yul\":3214:3217   */\n      dup3\n        /* \"#utility.yul\":3207:3244   */\n      mstore\n        /* \"#utility.yul\":3132:3250   */\n      pop\n      pop\n      jump\t// out\n        /* \"#utility.yul\":3256:3478   */\n    tag_66:\n        /* \"#utility.yul\":3349:3353   */\n      0x00\n        /* \"#utility.yul\":3387:3389   */\n      0x20\n        /* \"#utility.yul\":3376:3385   */\n      dup3\n        /* \"#utility.yul\":3372:3390   */\n      add\n        /* \"#utility.yul\":3364:3390   */\n      swap1\n      pop\n        /* \"#utility.yul\":3400:3471   */\n      tag_342\n        /* \"#utility.yul\":3468:3469   */\n      0x00\n        /* \"#utility.yul\":3457:3466   */\n      dup4\n        /* \"#utility.yul\":3453:3470   */\n      add\n        /* \"#utility.yul\":3444:3450   */\n      dup5\n        /* \"#utility.yul\":3400:3471   */\n      tag_260\n      jump\t// in\n    tag_342:\n        /* \"#utility.yul\":3256:3478   */\n      swap3\n      swap2\n      pop\n      pop\n      jump\t// out\n        /* \"#utility.yul\":3484:3570   */\n    tag_261:\n        /* \"#utility.yul\":3519:3526   */\n      0x00\n        /* \"#utility.yul\":3559:3563   */\n      0xff\n        /* \"#utility.yul\":3552:3557   */\n      dup3\n        /* \"#utility.yul\":3548:3564   */\n      and\n        /* \"#utility.yul\":3537:3564   */\n      swap1\n      pop\n        /* \"#utility.yul\":3484:3570   */\n      swap2\n      swap1\n      pop\n      jump\t// out\n        /* \"#utility.yul\":3576:3688   */\n    tag_262:\n        /* \"#utility.yul\":3659:3681   */\n      tag_345\n        /* \"#utility.yul\":3675:3680   */\n      dup2\n        /* \"#utility.yul\":3659:3681   */\n      tag_261\n      jump\t// in\n    tag_345:\n        /* \"#utility.yul\":3654:3657   */\n      dup3\n        /* \"#utility.yul\":3647:3682   */\n      mstore\n        /* \"#utility.yul\":3576:3688   */\n      pop\n      pop\n      jump\t// out\n        /* \"#utility.yul\":3694:3908   */\n    tag_74:\n        /* \"#utility.yul\":3783:3787   */\n      0x00\n        /* \"#utility.yul\":3821:3823   */\n      0x20\n        /* \"#utility.yul\":3810:3819   */\n      dup3\n        /* \"#utility.yul\":3806:3824   */\n      add\n        /* \"#utility.yul\":3798:3824   */\n      swap1\n      pop\n        /* \"#utility.yul\":3834:3901   */\n      tag_347\n        /* \"#utility.yul\":3898:3899   */\n      0x00\n        /* \"#utility.yul\":3887:3896   */\n      dup4\n        /* \"#utility.yul\":3883:3900   */\n      add\n        /* \"#utility.yul\":3874:3880   */\n      dup5\n        /* \"#utility.yul\":3834:3901   */\n      tag_262\n      jump\t// in\n    tag_347:\n        /* \"#utility.yul\":3694:3908   */\n      swap3\n      swap2\n      pop\n      pop\n      jump\t// out\n        /* \"#utility.yul\":3914:4004   */\n    tag_263:\n        /* \"#utility.yul\":3948:3955   */\n      0x00\n        /* \"#utility.yul\":3991:3996   */\n      dup2\n        /* \"#utility.yul\":3984:3997   */\n      iszero\n        /* \"#utility.yul\":3977:3998   */\n      iszero\n        /* \"#utility.yul\":3966:3998   */\n      swap1\n      pop\n        /* \"#utility.yul\":3914:4004   */\n      swap2\n      swap1\n      pop\n      jump\t// out\n        /* \"#utility.yul\":4010:4126   */\n    tag_264:\n        /* \"#utility.yul\":4080:4101   */\n      tag_350\n        /* \"#utility.yul\":4095:4100   */\n      dup2\n        /* \"#utility.yul\":4080:4101   */\n      tag_263\n      jump\t// in\n    tag_350:\n        /* \"#utility.yul\":4073:4078   */\n      dup2\n        /* \"#utility.yul\":4070:4102   */\n      eq\n        /* \"#utility.yul\":4060:4120   */\n      tag_351\n      jumpi\n        /* \"#utility.yul\":4116:4117   */\n      0x00\n        /* \"#utility.yul\":4113:4114   */\n      0x00\n        /* \"#utility.yul\":4106:4118   */\n      revert\n        /* \"#utility.yul\":4060:4120   */\n    tag_351:\n        /* \"#utility.yul\":4010:4126   */\n      pop\n      jump\t// out\n        /* \"#utility.yul\":4132:4265   */\n    tag_265:\n        /* \"#utility.yul\":4175:4180   */\n      0x00\n        /* \"#utility.yul\":4213:4219   */\n      dup2\n        /* \"#utility.yul\":4200:4220   */\n      calldataload\n        /* \"#utility.yul\":4191:4220   */\n      swap1\n      pop\n        /* \"#utility.yul\":4229:4259   */\n      tag_353\n        /* \"#utility.yul\":4253:4258   */\n      dup2\n        /* \"#utility.yul\":4229:4259   */\n      tag_264\n      jump\t// in\n    tag_353:\n        /* \"#utility.yul\":4132:4265   */\n      swap3\n      swap2\n      pop\n      pop\n      jump\t// out\n        /* \"#utility.yul\":4271:4594   */\n    tag_93:\n        /* \"#utility.yul\":4327:4333   */\n      0x00\n        /* \"#utility.yul\":4376:4378   */\n      0x20\n        /* \"#utility.yul\":4364:4373   */\n      dup3\n        /* \"#utility.yul\":4355:4362   */\n      dup5\n        /* \"#utility.yul\":4351:4374   */\n      sub\n        /* \"#utility.yul\":4347:4379   */\n      slt\n        /* \"#utility.yul\":4344:4463   */\n      iszero\n      tag_355\n      jumpi\n        /* \"#utility.yul\":4382:4461   */\n      tag_356\n      tag_245\n      jump\t// in\n    tag_356:\n        /* \"#utility.yul\":4344:4463   */\n    tag_355:\n        /* \"#utility.yul\":4502:4503   */\n      0x00\n        /* \"#utility.yul\":4527:4577   */\n      tag_357\n        /* \"#utility.yul\":4569:4576   */\n      dup5\n        /* \"#utility.yul\":4560:4566   */\n      dup3\n        /* \"#utility.yul\":4549:4558   */\n      dup6\n        /* \"#utility.yul\":4545:4567   */\n      add\n        /* \"#utility.yul\":4527:4577   */\n      tag_265\n      jump\t// in\n    tag_357:\n        /* \"#utility.yul\":4517:4577   */\n      swap2\n      pop\n        /* \"#utility.yul\":4473:4587   */\n      pop\n        /* \"#utility.yul\":4271:4594   */\n      swap3\n      swap2\n      pop\n      pop\n      jump\t// out\n        /* \"#utility.yul\":4600:4709   */\n    tag_266:\n        /* \"#utility.yul\":4681:4702   */\n      tag_359\n        /* \"#utility.yul\":4696:4701   */\n      dup2\n        /* \"#utility.yul\":4681:4702   */\n      tag_263\n      jump\t// in\n    tag_359:\n        /* \"#utility.yul\":4676:4679   */\n      dup3\n        /* \"#utility.yul\":4669:4703   */\n      mstore\n        /* \"#utility.yul\":4600:4709   */\n      pop\n      pop\n      jump\t// out\n        /* \"#utility.yul\":4715:4925   */\n    tag_104:\n        /* \"#utility.yul\":4802:4806   */\n      0x00\n        /* \"#utility.yul\":4840:4842   */\n      0x20\n        /* \"#utility.yul\":4829:4838   */\n      dup3\n        /* \"#utility.yul\":4825:4843   */\n      add\n        /* \"#utility.yul\":4817:4843   */\n      swap1\n      pop\n        /* \"#utility.yul\":4853:4918   */\n      tag_361\n        /* \"#utility.yul\":4915:4916   */\n      0x00\n        /* \"#utility.yul\":4904:4913   */\n      dup4\n        /* \"#utility.yul\":4900:4917   */\n      add\n        /* \"#utility.yul\":4891:4897   */\n      dup5\n        /* \"#utility.yul\":4853:4918   */\n      tag_266\n      jump\t// in\n    tag_361:\n        /* \"#utility.yul\":4715:4925   */\n      swap3\n      swap2\n      pop\n      pop\n      jump\t// out\n        /* \"#utility.yul\":4931:5100   */\n    tag_267:\n        /* \"#utility.yul\":5015:5026   */\n      0x00\n        /* \"#utility.yul\":5049:5055   */\n      dup3\n        /* \"#utility.yul\":5044:5047   */\n      dup3\n        /* \"#utility.yul\":5037:5056   */\n      mstore\n        /* \"#utility.yul\":5089:5093   */\n      0x20\n        /* \"#utility.yul\":5084:5087   */\n      dup3\n        /* \"#utility.yul\":5080:5094   */\n      add\n        /* \"#utility.yul\":5065:5094   */\n      swap1\n      pop\n        /* \"#utility.yul\":4931:5100   */\n      swap3\n      swap2\n      pop\n      pop\n      jump\t// out\n        /* \"#utility.yul\":5106:5273   */\n    tag_268:\n        /* \"#utility.yul\":5246:5265   */\n      0x496e76616c6964206d696e207374616b65000000000000000000000000000000\n        /* \"#utility.yul\":5242:5243   */\n      0x00\n        /* \"#utility.yul\":5234:5240   */\n      dup3\n        /* \"#utility.yul\":5230:5244   */\n      add\n        /* \"#utility.yul\":5223:5266   */\n      mstore\n        /* \"#utility.yul\":5106:5273   */\n      pop\n      jump\t// out\n        /* \"#utility.yul\":5279:5645   */\n    tag_269:\n        /* \"#utility.yul\":5421:5424   */\n      0x00\n        /* \"#utility.yul\":5442:5509   */\n      tag_365\n        /* \"#utility.yul\":5506:5508   */\n      0x11\n        /* \"#utility.yul\":5501:5504   */\n      dup4\n        /* \"#utility.yul\":5442:5509   */\n      tag_267\n      jump\t// in\n    tag_365:\n        /* \"#utility.yul\":5435:5509   */\n      swap2\n      pop\n        /* \"#utility.yul\":5518:5611   */\n      tag_366\n        /* \"#utility.yul\":5607:5610   */\n      dup3\n        /* \"#utility.yul\":5518:5611   */\n      tag_268\n      jump\t// in\n    tag_366:\n        /* \"#utility.yul\":5636:5638   */\n      0x20\n        /* \"#utility.yul\":5631:5634   */\n      dup3\n        /* \"#utility.yul\":5627:5639   */\n      add\n        /* \"#utility.yul\":5620:5639   */\n      swap1\n      pop\n        /* \"#utility.yul\":5279:5645   */\n      swap2\n      swap1\n      pop\n      jump\t// out\n        /* \"#utility.yul\":5651:6070   */\n    tag_112:\n        /* \"#utility.yul\":5817:5821   */\n      0x00\n        /* \"#utility.yul\":5855:5857   */\n      0x20\n        /* \"#utility.yul\":5844:5853   */\n      dup3\n        /* \"#utility.yul\":5840:5858   */\n      add\n        /* \"#utility.yul\":5832:5858   */\n      swap1\n      pop\n        /* \"#utility.yul\":5904:5913   */\n      dup2\n        /* \"#utility.yul\":5898:5902   */\n      dup2\n        /* \"#utility.yul\":5894:5914   */\n      sub\n        /* \"#utility.yul\":5890:5891   */\n      0x00\n        /* \"#utility.yul\":5879:5888   */\n      dup4\n        /* \"#utility.yul\":5875:5892   */\n      add\n        /* \"#utility.yul\":5868:5915   */\n      mstore\n        /* \"#utility.yul\":5932:6063   */\n      tag_368\n        /* \"#utility.yul\":6058:6062   */\n      dup2\n        /* \"#utility.yul\":5932:6063   */\n      tag_269\n      jump\t// in\n    tag_368:\n        /* \"#utility.yul\":5924:6063   */\n      swap1\n      pop\n        /* \"#utility.yul\":5651:6070   */\n      swap2\n      swap1\n      pop\n      jump\t// out\n        /* \"#utility.yul\":6076:6240   */\n    tag_270:\n        /* \"#utility.yul\":6216:6232   */\n      0x4e6f207374616b6520666f756e64000000000000000000000000000000000000\n        /* \"#utility.yul\":6212:6213   */\n      0x00\n        /* \"#utility.yul\":6204:6210   */\n      dup3\n        /* \"#utility.yul\":6200:6214   */\n      add\n        /* \"#utility.yul\":6193:6233   */\n      mstore\n        /* \"#utility.yul\":6076:6240   */\n      pop\n      jump\t// out\n        /* \"#utility.yul\":6246:6612   */\n    tag_271:\n        /* \"#utility.yul\":6388:6391   */\n      0x00\n        /* \"#utility.yul\":6409:6476   */\n      tag_371\n        /* \"#utility.yul\":6473:6475   */\n      0x0e\n        /* \"#utility.yul\":6468:6471   */\n      dup4\n        /* \"#utility.yul\":6409:6476   */\n      tag_267\n      jump\t// in\n    tag_371:\n        /* \"#utility.yul\":6402:6476   */\n      swap2\n      pop\n        /* \"#utility.yul\":6485:6578   */\n      tag_372\n        /* \"#utility.yul\":6574:6577   */\n      dup3\n        /* \"#utility.yul\":6485:6578   */\n      tag_270\n      jump\t// in\n    tag_372:\n        /* \"#utility.yul\":6603:6605   */\n      0x20\n        /* \"#utility.yul\":6598:6601   */\n      dup3\n        /* \"#utility.yul\":6594:6606   */\n      add\n        /* \"#utility.yul\":6587:6606   */\n      swap1\n      pop\n        /* \"#utility.yul\":6246:6612   */\n      swap2\n      swap1\n      pop\n      jump\t// out\n        /* \"#utility.yul\":6618:7037   */\n    tag_119:\n        /* \"#utility.yul\":6784:6788   */\n      0x00\n        /* \"#utility.yul\":6822:6824   */\n      0x20\n        /* \"#utility.yul\":6811:6820   */\n      dup3\n        /* \"#utility.yul\":6807:6825   */\n      add\n        /* \"#utility.yul\":6799:6825   */\n      swap1\n      pop\n        /* \"#utility.yul\":6871:6880   */\n      dup2\n        /* \"#utility.yul\":6865:6869   */\n      dup2\n        /* \"#utility.yul\":6861:6881   */\n      sub\n        /* \"#utility.yul\":6857:6858   */\n      0x00\n        /* \"#utility.yul\":6846:6855   */\n      dup4\n        /* \"#utility.yul\":6842:6859   */\n      add\n        /* \"#utility.yul\":6835:6882   */\n      mstore\n        /* \"#utility.yul\":6899:7030   */\n      tag_374\n        /* \"#utility.yul\":7025:7029   */\n      dup2\n        /* \"#utility.yul\":6899:7030   */\n      tag_271\n      jump\t// in\n    tag_374:\n        /* \"#utility.yul\":6891:7030   */\n      swap1\n      pop\n        /* \"#utility.yul\":6618:7037   */\n      swap2\n      swap1\n      pop\n      jump\t// out\n        /* \"#utility.yul\":7043:7223   */\n    tag_272:\n        /* \"#utility.yul\":7091:7168   */\n      0x4e487b7100000000000000000000000000000000000000000000000000000000\n        /* \"#utility.yul\":7088:7089   */\n      0x00\n        /* \"#utility.yul\":7081:7169   */\n      mstore\n        /* \"#utility.yul\":7188:7192   */\n      0x11\n        /* \"#utility.yul\":7185:7186   */\n      0x04\n        /* \"#utility.yul\":7178:7193   */\n      mstore\n        /* \"#utility.yul\":7212:7216   */\n      0x24\n        /* \"#utility.yul\":7209:7210   */\n      0x00\n        /* \"#utility.yul\":7202:7217   */\n      revert\n        /* \"#utility.yul\":7229:7420   */\n    tag_122:\n        /* \"#utility.yul\":7269:7272   */\n      0x00\n        /* \"#utility.yul\":7288:7308   */\n      tag_377\n        /* \"#utility.yul\":7306:7307   */\n      dup3\n        /* \"#utility.yul\":7288:7308   */\n      tag_251\n      jump\t// in\n    tag_377:\n        /* \"#utility.yul\":7283:7308   */\n      swap2\n      pop\n        /* \"#utility.yul\":7322:7342   */\n      tag_378\n        /* \"#utility.yul\":7340:7341   */\n      dup4\n        /* \"#utility.yul\":7322:7342   */\n      tag_251\n      jump\t// in\n    tag_378:\n        /* \"#utility.yul\":7317:7342   */\n      swap3\n      pop\n        /* \"#utility.yul\":7365:7366   */\n      dup3\n        /* \"#utility.yul\":7362:7363   */\n      dup3\n        /* \"#utility.yul\":7358:7367   */\n      add\n        /* \"#utility.yul\":7351:7367   */\n      swap1\n      pop\n        /* \"#utility.yul\":7386:7389   */\n      dup1\n        /* \"#utility.yul\":7383:7384   */\n      dup3\n        /* \"#utility.yul\":7380:7390   */\n      gt\n        /* \"#utility.yul\":7377:7413   */\n      iszero\n      tag_379\n      jumpi\n        /* \"#utility.yul\":7393:7411   */\n      tag_380\n      tag_272\n      jump\t// in\n    tag_380:\n        /* \"#utility.yul\":7377:7413   */\n    tag_379:\n        /* \"#utility.yul\":7229:7420   */\n      swap3\n      swap2\n      pop\n      pop\n      jump\t// out\n        /* \"#utility.yul\":7426:7588   */\n    tag_273:\n        /* \"#utility.yul\":7566:7580   */\n      0x5374616b65206c6f636b65640000000000000000000000000000000000000000\n        /* \"#utility.yul\":7562:7563   */\n      0x00\n        /* \"#utility.yul\":7554:7560   */\n      dup3\n        /* \"#utility.yul\":7550:7564   */\n      add\n        /* \"#utility.yul\":7543:7581   */\n      mstore\n        /* \"#utility.yul\":7426:7588   */\n      pop\n      jump\t// out\n        /* \"#utility.yul\":7594:7960   */\n    tag_274:\n        /* \"#utility.yul\":7736:7739   */\n      0x00\n        /* \"#utility.yul\":7757:7824   */\n      tag_383\n        /* \"#utility.yul\":7821:7823   */\n      0x0c\n        /* \"#utility.yul\":7816:7819   */\n      dup4\n        /* \"#utility.yul\":7757:7824   */\n      tag_267\n      jump\t// in\n    tag_383:\n        /* \"#utility.yul\":7750:7824   */\n      swap2\n      pop\n        /* \"#utility.yul\":7833:7926   */\n      tag_384\n        /* \"#utility.yul\":7922:7925   */\n      dup3\n        /* \"#utility.yul\":7833:7926   */\n      tag_273\n      jump\t// in\n    tag_384:\n        /* \"#utility.yul\":7951:7953   */\n      0x20\n        /* \"#utility.yul\":7946:7949   */\n      dup3\n        /* \"#utility.yul\":7942:7954   */\n      add\n        /* \"#utility.yul\":7935:7954   */\n      swap1\n      pop\n        /* \"#utility.yul\":7594:7960   */\n      swap2\n      swap1\n      pop\n      jump\t// out\n        /* \"#utility.yul\":7966:8385   */\n    tag_125:\n        /* \"#utility.yul\":8132:8136   */\n      0x00\n        /* \"#utility.yul\":8170:8172   */\n      0x20\n        /* \"#utility.yul\":8159:8168   */\n      dup3\n        /* \"#utility.yul\":8155:8173   */\n      add\n        /* \"#utility.yul\":8147:8173   */\n      swap1\n      pop\n        /* \"#utility.yul\":8219:8228   */\n      dup2\n        /* \"#utility.yul\":8213:8217   */\n      dup2\n        /* \"#utility.yul\":8209:8229   */\n      sub\n        /* \"#utility.yul\":8205:8206   */\n      0x00\n        /* \"#utility.yul\":8194:8203   */\n      dup4\n        /* \"#utility.yul\":8190:8207   */\n      add\n        /* \"#utility.yul\":8183:8230   */\n      mstore\n        /* \"#utility.yul\":8247:8378   */\n      tag_386\n        /* \"#utility.yul\":8373:8377   */\n      dup2\n        /* \"#utility.yul\":8247:8378   */\n      tag_274\n      jump\t// in\n    tag_386:\n        /* \"#utility.yul\":8239:8378   */\n      swap1\n      pop\n        /* \"#utility.yul\":7966:8385   */\n      swap2\n      swap1\n      pop\n      jump\t// out\n        /* \"#utility.yul\":8391:8534   */\n    tag_275:\n        /* \"#utility.yul\":8448:8453   */\n      0x00\n        /* \"#utility.yul\":8479:8485   */\n      dup2\n        /* \"#utility.yul\":8473:8486   */\n      mload\n        /* \"#utility.yul\":8464:8486   */\n      swap1\n      pop\n        /* \"#utility.yul\":8495:8528   */\n      tag_388\n        /* \"#utility.yul\":8522:8527   */\n      dup2\n        /* \"#utility.yul\":8495:8528   */\n      tag_253\n      jump\t// in\n    tag_388:\n        /* \"#utility.yul\":8391:8534   */\n      swap3\n      swap2\n      pop\n      pop\n      jump\t// out\n        /* \"#utility.yul\":8540:8891   */\n    tag_134:\n        /* \"#utility.yul\":8610:8616   */\n      0x00\n        /* \"#utility.yul\":8659:8661   */\n      0x20\n        /* \"#utility.yul\":8647:8656   */\n      dup3\n        /* \"#utility.yul\":8638:8645   */\n      dup5\n        /* \"#utility.yul\":8634:8657   */\n      sub\n        /* \"#utility.yul\":8630:8662   */\n      slt\n        /* \"#utility.yul\":8627:8746   */\n      iszero\n      tag_390\n      jumpi\n        /* \"#utility.yul\":8665:8744   */\n      tag_391\n      tag_245\n      jump\t// in\n    tag_391:\n        /* \"#utility.yul\":8627:8746   */\n    tag_390:\n        /* \"#utility.yul\":8785:8786   */\n      0x00\n        /* \"#utility.yul\":8810:8874   */\n      tag_392\n        /* \"#utility.yul\":8866:8873   */\n      dup5\n        /* \"#utility.yul\":8857:8863   */\n      dup3\n        /* \"#utility.yul\":8846:8855   */\n      dup6\n        /* \"#utility.yul\":8842:8864   */\n      add\n        /* \"#utility.yul\":8810:8874   */\n      tag_275\n      jump\t// in\n    tag_392:\n        /* \"#utility.yul\":8800:8874   */\n      swap2\n      pop\n        /* \"#utility.yul\":8756:8884   */\n      pop\n        /* \"#utility.yul\":8540:8891   */\n      swap3\n      swap2\n      pop\n      pop\n      jump\t// out\n        /* \"#utility.yul\":8897:9074   */\n    tag_276:\n        /* \"#utility.yul\":9037:9066   */\n      0x496e73756666696369656e74207265776172642062616c616e63650000000000\n        /* \"#utility.yul\":9033:9034   */\n      0x00\n        /* \"#utility.yul\":9025:9031   */\n      dup3\n        /* \"#utility.yul\":9021:9035   */\n      add\n        /* \"#utility.yul\":9014:9067   */\n      mstore\n        /* \"#utility.yul\":8897:9074   */\n      pop\n      jump\t// out\n        /* \"#utility.yul\":9080:9446   */\n    tag_277:\n        /* \"#utility.yul\":9222:9225   */\n      0x00\n        /* \"#utility.yul\":9243:9310   */\n      tag_395\n        /* \"#utility.yul\":9307:9309   */\n      0x1b\n        /* \"#utility.yul\":9302:9305   */\n      dup4\n        /* \"#utility.yul\":9243:9310   */\n      tag_267\n      jump\t// in\n    tag_395:\n        /* \"#utility.yul\":9236:9310   */\n      swap2\n      pop\n        /* \"#utility.yul\":9319:9412   */\n      tag_396\n        /* \"#utility.yul\":9408:9411   */\n      dup3\n        /* \"#utility.yul\":9319:9412   */\n      tag_276\n      jump\t// in\n    tag_396:\n        /* \"#utility.yul\":9437:9439   */\n      0x20\n        /* \"#utility.yul\":9432:9435   */\n      dup3\n        /* \"#utility.yul\":9428:9440   */\n      add\n        /* \"#utility.yul\":9421:9440   */\n      swap1\n      pop\n        /* \"#utility.yul\":9080:9446   */\n      swap2\n      swap1\n      pop\n      jump\t// out\n        /* \"#utility.yul\":9452:9871   */\n    tag_137:\n        /* \"#utility.yul\":9618:9622   */\n      0x00\n        /* \"#utility.yul\":9656:9658   */\n      0x20\n        /* \"#utility.yul\":9645:9654   */\n      dup3\n        /* \"#utility.yul\":9641:9659   */\n      add\n        /* \"#utility.yul\":9633:9659   */\n      swap1\n      pop\n        /* \"#utility.yul\":9705:9714   */\n      dup2\n        /* \"#utility.yul\":9699:9703   */\n      dup2\n        /* \"#utility.yul\":9695:9715   */\n      sub\n        /* \"#utility.yul\":9691:9692   */\n      0x00\n        /* \"#utility.yul\":9680:9689   */\n      dup4\n        /* \"#utility.yul\":9676:9693   */\n      add\n        /* \"#utility.yul\":9669:9716   */\n      mstore\n        /* \"#utility.yul\":9733:9864   */\n      tag_398\n        /* \"#utility.yul\":9859:9863   */\n      dup2\n        /* \"#utility.yul\":9733:9864   */\n      tag_277\n      jump\t// in\n    tag_398:\n        /* \"#utility.yul\":9725:9864   */\n      swap1\n      pop\n        /* \"#utility.yul\":9452:9871   */\n      swap2\n      swap1\n      pop\n      jump\t// out\n        /* \"#utility.yul\":9877:10319   */\n    tag_140:\n        /* \"#utility.yul\":10026:10030   */\n      0x00\n        /* \"#utility.yul\":10064:10066   */\n      0x60\n        /* \"#utility.yul\":10053:10062   */\n      dup3\n        /* \"#utility.yul\":10049:10067   */\n      add\n        /* \"#utility.yul\":10041:10067   */\n      swap1\n      pop\n        /* \"#utility.yul\":10077:10148   */\n      tag_400\n        /* \"#utility.yul\":10145:10146   */\n      0x00\n        /* \"#utility.yul\":10134:10143   */\n      dup4\n        /* \"#utility.yul\":10130:10147   */\n      add\n        /* \"#utility.yul\":10121:10127   */\n      dup7\n        /* \"#utility.yul\":10077:10148   */\n      tag_252\n      jump\t// in\n    tag_400:\n        /* \"#utility.yul\":10158:10230   */\n      tag_401\n        /* \"#utility.yul\":10226:10228   */\n      0x20\n        /* \"#utility.yul\":10215:10224   */\n      dup4\n        /* \"#utility.yul\":10211:10229   */\n      add\n        /* \"#utility.yul\":10202:10208   */\n      dup6\n        /* \"#utility.yul\":10158:10230   */\n      tag_252\n      jump\t// in\n    tag_401:\n        /* \"#utility.yul\":10240:10312   */\n      tag_402\n        /* \"#utility.yul\":10308:10310   */\n      0x40\n        /* \"#utility.yul\":10297:10306   */\n      dup4\n        /* \"#utility.yul\":10293:10311   */\n      add\n        /* \"#utility.yul\":10284:10290   */\n      dup5\n        /* \"#utility.yul\":10240:10312   */\n      tag_252\n      jump\t// in\n    tag_402:\n        /* \"#utility.yul\":9877:10319   */\n      swap5\n      swap4\n      pop\n      pop\n      pop\n      pop\n      jump\t// out\n        /* \"#utility.yul\":10325:10501   */\n    tag_278:\n        /* \"#utility.yul\":10465:10493   */\n      0x5374616b65206475726174696f6e206d757374206265203e2030000000000000\n        /* \"#utility.yul\":10461:10462   */\n      0x00\n        /* \"#utility.yul\":10453:10459   */\n      dup3\n        /* \"#utility.yul\":10449:10463   */\n      add\n        /* \"#utility.yul\":10442:10494   */\n      mstore\n        /* \"#utility.yul\":10325:10501   */\n      pop\n      jump\t// out\n        /* \"#utility.yul\":10507:10873   */\n    tag_279:\n        /* \"#utility.yul\":10649:10652   */\n      0x00\n        /* \"#utility.yul\":10670:10737   */\n      tag_405\n        /* \"#utility.yul\":10734:10736   */\n      0x1a\n        /* \"#utility.yul\":10729:10732   */\n      dup4\n        /* \"#utility.yul\":10670:10737   */\n      tag_267\n      jump\t// in\n    tag_405:\n        /* \"#utility.yul\":10663:10737   */\n      swap2\n      pop\n        /* \"#utility.yul\":10746:10839   */\n      tag_406\n        /* \"#utility.yul\":10835:10838   */\n      dup3\n        /* \"#utility.yul\":10746:10839   */\n      tag_278\n      jump\t// in\n    tag_406:\n        /* \"#utility.yul\":10864:10866   */\n      0x20\n        /* \"#utility.yul\":10859:10862   */\n      dup3\n        /* \"#utility.yul\":10855:10867   */\n      add\n        /* \"#utility.yul\":10848:10867   */\n      swap1\n      pop\n        /* \"#utility.yul\":10507:10873   */\n      swap2\n      swap1\n      pop\n      jump\t// out\n        /* \"#utility.yul\":10879:11298   */\n    tag_148:\n        /* \"#utility.yul\":11045:11049   */\n      0x00\n        /* \"#utility.yul\":11083:11085   */\n      0x20\n        /* \"#utility.yul\":11072:11081   */\n      dup3\n        /* \"#utility.yul\":11068:11086   */\n      add\n        /* \"#utility.yul\":11060:11086   */\n      swap1\n      pop\n        /* \"#utility.yul\":11132:11141   */\n      dup2\n        /* \"#utility.yul\":11126:11130   */\n      dup2\n        /* \"#utility.yul\":11122:11142   */\n      sub\n        /* \"#utility.yul\":11118:11119   */\n      0x00\n        /* \"#utility.yul\":11107:11116   */\n      dup4\n        /* \"#utility.yul\":11103:11120   */\n      add\n        /* \"#utility.yul\":11096:11143   */\n      mstore\n        /* \"#utility.yul\":11160:11291   */\n      tag_408\n        /* \"#utility.yul\":11286:11290   */\n      dup2\n        /* \"#utility.yul\":11160:11291   */\n      tag_279\n      jump\t// in\n    tag_408:\n        /* \"#utility.yul\":11152:11291   */\n      swap1\n      pop\n        /* \"#utility.yul\":10879:11298   */\n      swap2\n      swap1\n      pop\n      jump\t// out\n        /* \"#utility.yul\":11304:11469   */\n    tag_280:\n        /* \"#utility.yul\":11444:11461   */\n      0x416c7265616479207374616b696e670000000000000000000000000000000000\n        /* \"#utility.yul\":11440:11441   */\n      0x00\n        /* \"#utility.yul\":11432:11438   */\n      dup3\n        /* \"#utility.yul\":11428:11442   */\n      add\n        /* \"#utility.yul\":11421:11462   */\n      mstore\n        /* \"#utility.yul\":11304:11469   */\n      pop\n      jump\t// out\n        /* \"#utility.yul\":11475:11841   */\n    tag_281:\n        /* \"#utility.yul\":11617:11620   */\n      0x00\n        /* \"#utility.yul\":11638:11705   */\n      tag_411\n        /* \"#utility.yul\":11702:11704   */\n      0x0f\n        /* \"#utility.yul\":11697:11700   */\n      dup4\n        /* \"#utility.yul\":11638:11705   */\n      tag_267\n      jump\t// in\n    tag_411:\n        /* \"#utility.yul\":11631:11705   */\n      swap2\n      pop\n        /* \"#utility.yul\":11714:11807   */\n      tag_412\n        /* \"#utility.yul\":11803:11806   */\n      dup3\n        /* \"#utility.yul\":11714:11807   */\n      tag_280\n      jump\t// in\n    tag_412:\n        /* \"#utility.yul\":11832:11834   */\n      0x20\n        /* \"#utility.yul\":11827:11830   */\n      dup3\n        /* \"#utility.yul\":11823:11835   */\n      add\n        /* \"#utility.yul\":11816:11835   */\n      swap1\n      pop\n        /* \"#utility.yul\":11475:11841   */\n      swap2\n      swap1\n      pop\n      jump\t// out\n        /* \"#utility.yul\":11847:12266   */\n    tag_163:\n        /* \"#utility.yul\":12013:12017   */\n      0x00\n        /* \"#utility.yul\":12051:12053   */\n      0x20\n        /* \"#utility.yul\":12040:12049   */\n      dup3\n        /* \"#utility.yul\":12036:12054   */\n      add\n        /* \"#utility.yul\":12028:12054   */\n      swap1\n      pop\n        /* \"#utility.yul\":12100:12109   */\n      dup2\n        /* \"#utility.yul\":12094:12098   */\n      dup2\n        /* \"#utility.yul\":12090:12110   */\n      sub\n        /* \"#utility.yul\":12086:12087   */\n      0x00\n        /* \"#utility.yul\":12075:12084   */\n      dup4\n        /* \"#utility.yul\":12071:12088   */\n      add\n        /* \"#utility.yul\":12064:12111   */\n      mstore\n        /* \"#utility.yul\":12128:12259   */\n      tag_414\n        /* \"#utility.yul\":12254:12258   */\n      dup2\n        /* \"#utility.yul\":12128:12259   */\n      tag_281\n      jump\t// in\n    tag_414:\n        /* \"#utility.yul\":12120:12259   */\n      swap1\n      pop\n        /* \"#utility.yul\":11847:12266   */\n      swap2\n      swap1\n      pop\n      jump\t// out\n        /* \"#utility.yul\":12272:12443   */\n    tag_282:\n        /* \"#utility.yul\":12412:12435   */\n      0x416d6f756e742062656c6f77206d696e5374616b650000000000000000000000\n        /* \"#utility.yul\":12408:12409   */\n      0x00\n        /* \"#utility.yul\":12400:12406   */\n      dup3\n        /* \"#utility.yul\":12396:12410   */\n      add\n        /* \"#utility.yul\":12389:12436   */\n      mstore\n        /* \"#utility.yul\":12272:12443   */\n      pop\n      jump\t// out\n        /* \"#utility.yul\":12449:12815   */\n    tag_283:\n        /* \"#utility.yul\":12591:12594   */\n      0x00\n        /* \"#utility.yul\":12612:12679   */\n      tag_417\n        /* \"#utility.yul\":12676:12678   */\n      0x15\n        /* \"#utility.yul\":12671:12674   */\n      dup4\n        /* \"#utility.yul\":12612:12679   */\n      tag_267\n      jump\t// in\n    tag_417:\n        /* \"#utility.yul\":12605:12679   */\n      swap2\n      pop\n        /* \"#utility.yul\":12688:12781   */\n      tag_418\n        /* \"#utility.yul\":12777:12780   */\n      dup3\n        /* \"#utility.yul\":12688:12781   */\n      tag_282\n      jump\t// in\n    tag_418:\n        /* \"#utility.yul\":12806:12808   */\n      0x20\n        /* \"#utility.yul\":12801:12804   */\n      dup3\n        /* \"#utility.yul\":12797:12809   */\n      add\n        /* \"#utility.yul\":12790:12809   */\n      swap1\n      pop\n        /* \"#utility.yul\":12449:12815   */\n      swap2\n      swap1\n      pop\n      jump\t// out\n        /* \"#utility.yul\":12821:13240   */\n    tag_166:\n        /* \"#utility.yul\":12987:12991   */\n      0x00\n        /* \"#utility.yul\":13025:13027   */\n      0x20\n        /* \"#utility.yul\":13014:13023   */\n      dup3\n        /* \"#utility.yul\":13010:13028   */\n      add\n        /* \"#utility.yul\":13002:13028   */\n      swap1\n      pop\n        /* \"#utility.yul\":13074:13083   */\n      dup2\n        /* \"#utility.yul\":13068:13072   */\n      dup2\n        /* \"#utility.yul\":13064:13084   */\n      sub\n        /* \"#utility.yul\":13060:13061   */\n      0x00\n        /* \"#utility.yul\":13049:13058   */\n      dup4\n        /* \"#utility.yul\":13045:13062   */\n      add\n        /* \"#utility.yul\":13038:13085   */\n      mstore\n        /* \"#utility.yul\":13102:13233   */\n      tag_420\n        /* \"#utility.yul\":13228:13232   */\n      dup2\n        /* \"#utility.yul\":13102:13233   */\n      tag_283\n      jump\t// in\n    tag_420:\n        /* \"#utility.yul\":13094:13233   */\n      swap1\n      pop\n        /* \"#utility.yul\":12821:13240   */\n      swap2\n      swap1\n      pop\n      jump\t// out\n        /* \"#utility.yul\":13246:13419   */\n    tag_284:\n        /* \"#utility.yul\":13386:13411   */\n      0x416d6f756e742065786365656473206d61785374616b65000000000000000000\n        /* \"#utility.yul\":13382:13383   */\n      0x00\n        /* \"#utility.yul\":13374:13380   */\n      dup3\n        /* \"#utility.yul\":13370:13384   */\n      add\n        /* \"#utility.yul\":13363:13412   */\n      mstore\n        /* \"#utility.yul\":13246:13419   */\n      pop\n      jump\t// out\n        /* \"#utility.yul\":13425:13791   */\n    tag_285:\n        /* \"#utility.yul\":13567:13570   */\n      0x00\n        /* \"#utility.yul\":13588:13655   */\n      tag_423\n        /* \"#utility.yul\":13652:13654   */\n      0x17\n        /* \"#utility.yul\":13647:13650   */\n      dup4\n        /* \"#utility.yul\":13588:13655   */\n      tag_267\n      jump\t// in\n    tag_423:\n        /* \"#utility.yul\":13581:13655   */\n      swap2\n      pop\n        /* \"#utility.yul\":13664:13757   */\n      tag_424\n        /* \"#utility.yul\":13753:13756   */\n      dup3\n        /* \"#utility.yul\":13664:13757   */\n      tag_284\n      jump\t// in\n    tag_424:\n        /* \"#utility.yul\":13782:13784   */\n      0x20\n        /* \"#utility.yul\":13777:13780   */\n      dup3\n        /* \"#utility.yul\":13773:13785   */\n      add\n        /* \"#utility.yul\":13766:13785   */\n      swap1\n      pop\n        /* \"#utility.yul\":13425:13791   */\n      swap2\n      swap1\n      pop\n      jump\t// out\n        /* \"#utility.yul\":13797:14216   */\n    tag_169:\n        /* \"#utility.yul\":13963:13967   */\n      0x00\n        /* \"#utility.yul\":14001:14003   */\n      0x20\n        /* \"#utility.yul\":13990:13999   */\n      dup3\n        /* \"#utility.yul\":13986:14004   */\n      add\n        /* \"#utility.yul\":13978:14004   */\n      swap1\n      pop\n        /* \"#utility.yul\":14050:14059   */\n      dup2\n        /* \"#utility.yul\":14044:14048   */\n      dup2\n        /* \"#utility.yul\":14040:14060   */\n      sub\n        /* \"#utility.yul\":14036:14037   */\n      0x00\n        /* \"#utility.yul\":14025:14034   */\n      dup4\n        /* \"#utility.yul\":14021:14038   */\n      add\n        /* \"#utility.yul\":14014:14061   */\n      mstore\n        /* \"#utility.yul\":14078:14209   */\n      tag_426\n        /* \"#utility.yul\":14204:14208   */\n      dup2\n        /* \"#utility.yul\":14078:14209   */\n      tag_285\n      jump\t// in\n    tag_426:\n        /* \"#utility.yul\":14070:14209   */\n      swap1\n      pop\n        /* \"#utility.yul\":13797:14216   */\n      swap2\n      swap1\n      pop\n      jump\t// out\n        /* \"#utility.yul\":14222:14386   */\n    tag_286:\n        /* \"#utility.yul\":14362:14378   */\n      0x5374616b696e67206c6f636b6564000000000000000000000000000000000000\n        /* \"#utility.yul\":14358:14359   */\n      0x00\n        /* \"#utility.yul\":14350:14356   */\n      dup3\n        /* \"#utility.yul\":14346:14360   */\n      add\n        /* \"#utility.yul\":14339:14379   */\n      mstore\n        /* \"#utility.yul\":14222:14386   */\n      pop\n      jump\t// out\n        /* \"#utility.yul\":14392:14758   */\n    tag_287:\n        /* \"#utility.yul\":14534:14537   */\n      0x00\n        /* \"#utility.yul\":14555:14622   */\n      tag_429\n        /* \"#utility.yul\":14619:14621   */\n      0x0e\n        /* \"#utility.yul\":14614:14617   */\n      dup4\n        /* \"#utility.yul\":14555:14622   */\n      tag_267\n      jump\t// in\n    tag_429:\n        /* \"#utility.yul\":14548:14622   */\n      swap2\n      pop\n        /* \"#utility.yul\":14631:14724   */\n      tag_430\n        /* \"#utility.yul\":14720:14723   */\n      dup3\n        /* \"#utility.yul\":14631:14724   */\n      tag_286\n      jump\t// in\n    tag_430:\n        /* \"#utility.yul\":14749:14751   */\n      0x20\n        /* \"#utility.yul\":14744:14747   */\n      dup3\n        /* \"#utility.yul\":14740:14752   */\n      add\n        /* \"#utility.yul\":14733:14752   */\n      swap1\n      pop\n        /* \"#utility.yul\":14392:14758   */\n      swap2\n      swap1\n      pop\n      jump\t// out\n        /* \"#utility.yul\":14764:15183   */\n    tag_172:\n        /* \"#utility.yul\":14930:14934   */\n      0x00\n        /* \"#utility.yul\":14968:14970   */\n      0x20\n        /* \"#utility.yul\":14957:14966   */\n      dup3\n        /* \"#utility.yul\":14953:14971   */\n      add\n        /* \"#utility.yul\":14945:14971   */\n      swap1\n      pop\n        /* \"#utility.yul\":15017:15026   */\n      dup2\n        /* \"#utility.yul\":15011:15015   */\n      dup2\n        /* \"#utility.yul\":15007:15027   */\n      sub\n        /* \"#utility.yul\":15003:15004   */\n      0x00\n        /* \"#utility.yul\":14992:15001   */\n      dup4\n        /* \"#utility.yul\":14988:15005   */\n      add\n        /* \"#utility.yul\":14981:15028   */\n      mstore\n        /* \"#utility.yul\":15045:15176   */\n      tag_432\n        /* \"#utility.yul\":15171:15175   */\n      dup2\n        /* \"#utility.yul\":15045:15176   */\n      tag_287\n      jump\t// in\n    tag_432:\n        /* \"#utility.yul\":15037:15176   */\n      swap1\n      pop\n        /* \"#utility.yul\":14764:15183   */\n      swap2\n      swap1\n      pop\n      jump\t// out\n        /* \"#utility.yul\":15189:15521   */\n    tag_176:\n        /* \"#utility.yul\":15310:15314   */\n      0x00\n        /* \"#utility.yul\":15348:15350   */\n      0x40\n        /* \"#utility.yul\":15337:15346   */\n      dup3\n        /* \"#utility.yul\":15333:15351   */\n      add\n        /* \"#utility.yul\":15325:15351   */\n      swap1\n      pop\n        /* \"#utility.yul\":15361:15432   */\n      tag_434\n        /* \"#utility.yul\":15429:15430   */\n      0x00\n        /* \"#utility.yul\":15418:15427   */\n      dup4\n        /* \"#utility.yul\":15414:15431   */\n      add\n        /* \"#utility.yul\":15405:15411   */\n      dup6\n        /* \"#utility.yul\":15361:15432   */\n      tag_252\n      jump\t// in\n    tag_434:\n        /* \"#utility.yul\":15442:15514   */\n      tag_435\n        /* \"#utility.yul\":15510:15512   */\n      0x20\n        /* \"#utility.yul\":15499:15508   */\n      dup4\n        /* \"#utility.yul\":15495:15513   */\n      add\n        /* \"#utility.yul\":15486:15492   */\n      dup5\n        /* \"#utility.yul\":15442:15514   */\n      tag_252\n      jump\t// in\n    tag_435:\n        /* \"#utility.yul\":15189:15521   */\n      swap4\n      swap3\n      pop\n      pop\n      pop\n      jump\t// out\n        /* \"#utility.yul\":15527:15698   */\n    tag_288:\n        /* \"#utility.yul\":15667:15690   */\n      0x4d6178207374616b65206d757374206265203e20300000000000000000000000\n        /* \"#utility.yul\":15663:15664   */\n      0x00\n        /* \"#utility.yul\":15655:15661   */\n      dup3\n        /* \"#utility.yul\":15651:15665   */\n      add\n        /* \"#utility.yul\":15644:15691   */\n      mstore\n        /* \"#utility.yul\":15527:15698   */\n      pop\n      jump\t// out\n        /* \"#utility.yul\":15704:16070   */\n    tag_289:\n        /* \"#utility.yul\":15846:15849   */\n      0x00\n        /* \"#utility.yul\":15867:15934   */\n      tag_438\n        /* \"#utility.yul\":15931:15933   */\n      0x15\n        /* \"#utility.yul\":15926:15929   */\n      dup4\n        /* \"#utility.yul\":15867:15934   */\n      tag_267\n      jump\t// in\n    tag_438:\n        /* \"#utility.yul\":15860:15934   */\n      swap2\n      pop\n        /* \"#utility.yul\":15943:16036   */\n      tag_439\n        /* \"#utility.yul\":16032:16035   */\n      dup3\n        /* \"#utility.yul\":15943:16036   */\n      tag_288\n      jump\t// in\n    tag_439:\n        /* \"#utility.yul\":16061:16063   */\n      0x20\n        /* \"#utility.yul\":16056:16059   */\n      dup3\n        /* \"#utility.yul\":16052:16064   */\n      add\n        /* \"#utility.yul\":16045:16064   */\n      swap1\n      pop\n        /* \"#utility.yul\":15704:16070   */\n      swap2\n      swap1\n      pop\n      jump\t// out\n        /* \"#utility.yul\":16076:16495   */\n    tag_183:\n        /* \"#utility.yul\":16242:16246   */\n      0x00\n        /* \"#utility.yul\":16280:16282   */\n      0x20\n        /* \"#utility.yul\":16269:16278   */\n      dup3\n        /* \"#utility.yul\":16265:16283   */\n      add\n        /* \"#utility.yul\":16257:16283   */\n      swap1\n      pop\n        /* \"#utility.yul\":16329:16338   */\n      dup2\n        /* \"#utility.yul\":16323:16327   */\n      dup2\n        /* \"#utility.yul\":16319:16339   */\n      sub\n        /* \"#utility.yul\":16315:16316   */\n      0x00\n        /* \"#utility.yul\":16304:16313   */\n      dup4\n        /* \"#utility.yul\":16300:16317   */\n      add\n        /* \"#utility.yul\":16293:16340   */\n      mstore\n        /* \"#utility.yul\":16357:16488   */\n      tag_441\n        /* \"#utility.yul\":16483:16487   */\n      dup2\n        /* \"#utility.yul\":16357:16488   */\n      tag_289\n      jump\t// in\n    tag_441:\n        /* \"#utility.yul\":16349:16488   */\n      swap1\n      pop\n        /* \"#utility.yul\":16076:16495   */\n      swap2\n      swap1\n      pop\n      jump\t// out\n        /* \"#utility.yul\":16501:16911   */\n    tag_189:\n        /* \"#utility.yul\":16541:16548   */\n      0x00\n        /* \"#utility.yul\":16564:16584   */\n      tag_443\n        /* \"#utility.yul\":16582:16583   */\n      dup3\n        /* \"#utility.yul\":16564:16584   */\n      tag_251\n      jump\t// in\n    tag_443:\n        /* \"#utility.yul\":16559:16584   */\n      swap2\n      pop\n        /* \"#utility.yul\":16598:16618   */\n      tag_444\n        /* \"#utility.yul\":16616:16617   */\n      dup4\n        /* \"#utility.yul\":16598:16618   */\n      tag_251\n      jump\t// in\n    tag_444:\n        /* \"#utility.yul\":16593:16618   */\n      swap3\n      pop\n        /* \"#utility.yul\":16653:16654   */\n      dup3\n        /* \"#utility.yul\":16650:16651   */\n      dup3\n        /* \"#utility.yul\":16646:16655   */\n      mul\n        /* \"#utility.yul\":16675:16705   */\n      tag_445\n        /* \"#utility.yul\":16693:16704   */\n      dup2\n        /* \"#utility.yul\":16675:16705   */\n      tag_251\n      jump\t// in\n    tag_445:\n        /* \"#utility.yul\":16664:16705   */\n      swap2\n      pop\n        /* \"#utility.yul\":16854:16855   */\n      dup3\n        /* \"#utility.yul\":16845:16852   */\n      dup3\n        /* \"#utility.yul\":16841:16856   */\n      div\n        /* \"#utility.yul\":16838:16839   */\n      dup5\n        /* \"#utility.yul\":16835:16857   */\n      eq\n        /* \"#utility.yul\":16815:16816   */\n      dup4\n        /* \"#utility.yul\":16808:16817   */\n      iszero\n        /* \"#utility.yul\":16788:16871   */\n      or\n        /* \"#utility.yul\":16765:16904   */\n      tag_446\n      jumpi\n        /* \"#utility.yul\":16884:16902   */\n      tag_447\n      tag_272\n      jump\t// in\n    tag_447:\n        /* \"#utility.yul\":16765:16904   */\n    tag_446:\n        /* \"#utility.yul\":16549:16911   */\n      pop\n        /* \"#utility.yul\":16501:16911   */\n      swap3\n      swap2\n      pop\n      pop\n      jump\t// out\n        /* \"#utility.yul\":16917:17097   */\n    tag_290:\n        /* \"#utility.yul\":16965:17042   */\n      0x4e487b7100000000000000000000000000000000000000000000000000000000\n        /* \"#utility.yul\":16962:16963   */\n      0x00\n        /* \"#utility.yul\":16955:17043   */\n      mstore\n        /* \"#utility.yul\":17062:17066   */\n      0x12\n        /* \"#utility.yul\":17059:17060   */\n      0x04\n        /* \"#utility.yul\":17052:17067   */\n      mstore\n        /* \"#utility.yul\":17086:17090   */\n      0x24\n        /* \"#utility.yul\":17083:17084   */\n      0x00\n        /* \"#utility.yul\":17076:17091   */\n      revert\n        /* \"#utility.yul\":17103:17288   */\n    tag_191:\n        /* \"#utility.yul\":17143:17144   */\n      0x00\n        /* \"#utility.yul\":17160:17180   */\n      tag_450\n        /* \"#utility.yul\":17178:17179   */\n      dup3\n        /* \"#utility.yul\":17160:17180   */\n      tag_251\n      jump\t// in\n    tag_450:\n        /* \"#utility.yul\":17155:17180   */\n      swap2\n      pop\n        /* \"#utility.yul\":17194:17214   */\n      tag_451\n        /* \"#utility.yul\":17212:17213   */\n      dup4\n        /* \"#utility.yul\":17194:17214   */\n      tag_251\n      jump\t// in\n    tag_451:\n        /* \"#utility.yul\":17189:17214   */\n      swap3\n      pop\n        /* \"#utility.yul\":17233:17234   */\n      dup3\n        /* \"#utility.yul\":17223:17258   */\n      tag_452\n      jumpi\n        /* \"#utility.yul\":17238:17256   */\n      tag_453\n      tag_290\n      jump\t// in\n    tag_453:\n        /* \"#utility.yul\":17223:17258   */\n    tag_452:\n        /* \"#utility.yul\":17280:17281   */\n      dup3\n        /* \"#utility.yul\":17277:17278   */\n      dup3\n        /* \"#utility.yul\":17273:17282   */\n      div\n        /* \"#utility.yul\":17268:17282   */\n      swap1\n      pop\n        /* \"#utility.yul\":17103:17288   */\n      swap3\n      swap2\n      pop\n      pop\n      jump\t// out\n        /* \"#utility.yul\":17294:17475   */\n    tag_291:\n        /* \"#utility.yul\":17434:17467   */\n      0x5265656e7472616e637947756172643a207265656e7472616e742063616c6c00\n        /* \"#utility.yul\":17430:17431   */\n      0x00\n        /* \"#utility.yul\":17422:17428   */\n      dup3\n        /* \"#utility.yul\":17418:17432   */\n      add\n        /* \"#utility.yul\":17411:17468   */\n      mstore\n        /* \"#utility.yul\":17294:17475   */\n      pop\n      jump\t// out\n        /* \"#utility.yul\":17481:17847   */\n    tag_292:\n        /* \"#utility.yul\":17623:17626   */\n      0x00\n        /* \"#utility.yul\":17644:17711   */\n      tag_456\n        /* \"#utility.yul\":17708:17710   */\n      0x1f\n        /* \"#utility.yul\":17703:17706   */\n      dup4\n        /* \"#utility.yul\":17644:17711   */\n      tag_267\n      jump\t// in\n    tag_456:\n        /* \"#utility.yul\":17637:17711   */\n      swap2\n      pop\n        /* \"#utility.yul\":17720:17813   */\n      tag_457\n        /* \"#utility.yul\":17809:17812   */\n      dup3\n        /* \"#utility.yul\":17720:17813   */\n      tag_291\n      jump\t// in\n    tag_457:\n        /* \"#utility.yul\":17838:17840   */\n      0x20\n        /* \"#utility.yul\":17833:17836   */\n      dup3\n        /* \"#utility.yul\":17829:17841   */\n      add\n        /* \"#utility.yul\":17822:17841   */\n      swap1\n      pop\n        /* \"#utility.yul\":17481:17847   */\n      swap2\n      swap1\n      pop\n      jump\t// out\n        /* \"#utility.yul\":17853:18272   */\n    tag_212:\n        /* \"#utility.yul\":18019:18023   */\n      0x00\n        /* \"#utility.yul\":18057:18059   */\n      0x20\n        /* \"#utility.yul\":18046:18055   */\n      dup3\n        /* \"#utility.yul\":18042:18060   */\n      add\n        /* \"#utility.yul\":18034:18060   */\n      swap1\n      pop\n        /* \"#utility.yul\":18106:18115   */\n      dup2\n        /* \"#utility.yul\":18100:18104   */\n      dup2\n        /* \"#utility.yul\":18096:18116   */\n      sub\n        /* \"#utility.yul\":18092:18093   */\n      0x00\n        /* \"#utility.yul\":18081:18090   */\n      dup4\n        /* \"#utility.yul\":18077:18094   */\n      add\n        /* \"#utility.yul\":18070:18117   */\n      mstore\n        /* \"#utility.yul\":18134:18265   */\n      tag_459\n        /* \"#utility.yul\":18260:18264   */\n      dup2\n        /* \"#utility.yul\":18134:18265   */\n      tag_292\n      jump\t// in\n    tag_459:\n        /* \"#utility.yul\":18126:18265   */\n      swap1\n      pop\n        /* \"#utility.yul\":17853:18272   */\n      swap2\n      swap1\n      pop\n      jump\t// out\n        /* \"#utility.yul\":18278:18610   */\n    tag_216:\n        /* \"#utility.yul\":18399:18403   */\n      0x00\n        /* \"#utility.yul\":18437:18439   */\n      0x40\n        /* \"#utility.yul\":18426:18435   */\n      dup3\n        /* \"#utility.yul\":18422:18440   */\n      add\n        /* \"#utility.yul\":18414:18440   */\n      swap1\n      pop\n        /* \"#utility.yul\":18450:18521   */\n      tag_461\n        /* \"#utility.yul\":18518:18519   */\n      0x00\n        /* \"#utility.yul\":18507:18516   */\n      dup4\n        /* \"#utility.yul\":18503:18520   */\n      add\n        /* \"#utility.yul\":18494:18500   */\n      dup6\n        /* \"#utility.yul\":18450:18521   */\n      tag_260\n      jump\t// in\n    tag_461:\n        /* \"#utility.yul\":18531:18603   */\n      tag_462\n        /* \"#utility.yul\":18599:18601   */\n      0x20\n        /* \"#utility.yul\":18588:18597   */\n      dup4\n        /* \"#utility.yul\":18584:18602   */\n      add\n        /* \"#utility.yul\":18575:18581   */\n      dup5\n        /* \"#utility.yul\":18531:18603   */\n      tag_252\n      jump\t// in\n    tag_462:\n        /* \"#utility.yul\":18278:18610   */\n      swap4\n      swap3\n      pop\n      pop\n      pop\n      jump\t// out\n        /* \"#utility.yul\":18616:19058   */\n    tag_223:\n        /* \"#utility.yul\":18765:18769   */\n      0x00\n        /* \"#utility.yul\":18803:18805   */\n      0x60\n        /* \"#utility.yul\":18792:18801   */\n      dup3\n        /* \"#utility.yul\":18788:18806   */\n      add\n        /* \"#utility.yul\":18780:18806   */\n      swap1\n      pop\n        /* \"#utility.yul\":18816:18887   */\n      tag_464\n        /* \"#utility.yul\":18884:18885   */\n      0x00\n        /* \"#utility.yul\":18873:18882   */\n      dup4\n        /* \"#utility.yul\":18869:18886   */\n      add\n        /* \"#utility.yul\":18860:18866   */\n      dup7\n        /* \"#utility.yul\":18816:18887   */\n      tag_260\n      jump\t// in\n    tag_464:\n        /* \"#utility.yul\":18897:18969   */\n      tag_465\n        /* \"#utility.yul\":18965:18967   */\n      0x20\n        /* \"#utility.yul\":18954:18963   */\n      dup4\n        /* \"#utility.yul\":18950:18968   */\n      add\n        /* \"#utility.yul\":18941:18947   */\n      dup6\n        /* \"#utility.yul\":18897:18969   */\n      tag_260\n      jump\t// in\n    tag_465:\n        /* \"#utility.yul\":18979:19051   */\n      tag_466\n        /* \"#utility.yul\":19047:19049   */\n      0x40\n        /* \"#utility.yul\":19036:19045   */\n      dup4\n        /* \"#utility.yul\":19032:19050   */\n      add\n        /* \"#utility.yul\":19023:19029   */\n      dup5\n        /* \"#utility.yul\":18979:19051   */\n      tag_252\n      jump\t// in\n    tag_466:\n        /* \"#utility.yul\":18616:19058   */\n      swap5\n      swap4\n      pop\n      pop\n      pop\n      pop\n      jump\t// out\n        /* \"#utility.yul\":19064:19255   */\n    tag_229:\n        /* \"#utility.yul\":19102:19106   */\n      0x00\n        /* \"#utility.yul\":19122:19140   */\n      tag_468\n        /* \"#utility.yul\":19138:19139   */\n      dup3\n        /* \"#utility.yul\":19122:19140   */\n      tag_261\n      jump\t// in\n    tag_468:\n        /* \"#utility.yul\":19117:19140   */\n      swap2\n      pop\n        /* \"#utility.yul\":19154:19172   */\n      tag_469\n        /* \"#utility.yul\":19170:19171   */\n      dup4\n        /* \"#utility.yul\":19154:19172   */\n      tag_261\n      jump\t// in\n    tag_469:\n        /* \"#utility.yul\":19149:19172   */\n      swap3\n      pop\n        /* \"#utility.yul\":19196:19197   */\n      dup3\n        /* \"#utility.yul\":19193:19194   */\n      dup3\n        /* \"#utility.yul\":19189:19198   */\n      sub\n        /* \"#utility.yul\":19181:19198   */\n      swap1\n      pop\n        /* \"#utility.yul\":19220:19224   */\n      0xff\n        /* \"#utility.yul\":19214:19218   */\n      dup2\n        /* \"#utility.yul\":19211:19225   */\n      gt\n        /* \"#utility.yul\":19208:19248   */\n      iszero\n      tag_470\n      jumpi\n        /* \"#utility.yul\":19228:19246   */\n      tag_471\n      tag_272\n      jump\t// in\n    tag_471:\n        /* \"#utility.yul\":19208:19248   */\n    tag_470:\n        /* \"#utility.yul\":19064:19255   */\n      swap3\n      swap2\n      pop\n      pop\n      jump\t// out\n        /* \"#utility.yul\":19261:19363   */\n    tag_293:\n        /* \"#utility.yul\":19303:19311   */\n      0x00\n        /* \"#utility.yul\":19350:19355   */\n      dup2\n        /* \"#utility.yul\":19347:19348   */\n      0x01\n        /* \"#utility.yul\":19343:19356   */\n      shr\n        /* \"#utility.yul\":19322:19356   */\n      swap1\n      pop\n        /* \"#utility.yul\":19261:19363   */\n      swap2\n      swap1\n      pop\n      jump\t// out\n        /* \"#utility.yul\":19369:20217   */\n    tag_294:\n        /* \"#utility.yul\":19430:19435   */\n      0x00\n        /* \"#utility.yul\":19437:19441   */\n      0x00\n        /* \"#utility.yul\":19461:19467   */\n      dup3\n        /* \"#utility.yul\":19452:19467   */\n      swap2\n      pop\n        /* \"#utility.yul\":19485:19490   */\n      dup4\n        /* \"#utility.yul\":19476:19490   */\n      swap1\n      pop\n        /* \"#utility.yul\":19499:20211   */\n    tag_474:\n        /* \"#utility.yul\":19520:19521   */\n      0x01\n        /* \"#utility.yul\":19510:19518   */\n      dup6\n        /* \"#utility.yul\":19507:19522   */\n      gt\n        /* \"#utility.yul\":19499:20211   */\n      iszero\n      tag_476\n      jumpi\n        /* \"#utility.yul\":19615:19619   */\n      dup1\n        /* \"#utility.yul\":19610:19613   */\n      dup7\n        /* \"#utility.yul\":19606:19620   */\n      div\n        /* \"#utility.yul\":19600:19604   */\n      dup2\n        /* \"#utility.yul\":19597:19621   */\n      gt\n        /* \"#utility.yul\":19594:19644   */\n      iszero\n      tag_477\n      jumpi\n        /* \"#utility.yul\":19624:19642   */\n      tag_478\n      tag_272\n      jump\t// in\n    tag_478:\n        /* \"#utility.yul\":19594:19644   */\n    tag_477:\n        /* \"#utility.yul\":19674:19675   */\n      0x01\n        /* \"#utility.yul\":19664:19672   */\n      dup6\n        /* \"#utility.yul\":19660:19676   */\n      and\n        /* \"#utility.yul\":19657:20108   */\n      iszero\n      tag_479\n      jumpi\n        /* \"#utility.yul\":20089:20093   */\n      dup1\n        /* \"#utility.yul\":20082:20087   */\n      dup3\n        /* \"#utility.yul\":20078:20094   */\n      mul\n        /* \"#utility.yul\":20069:20094   */\n      swap2\n      pop\n        /* \"#utility.yul\":19657:20108   */\n    tag_479:\n        /* \"#utility.yul\":20139:20143   */\n      dup1\n        /* \"#utility.yul\":20133:20137   */\n      dup2\n        /* \"#utility.yul\":20129:20144   */\n      mul\n        /* \"#utility.yul\":20121:20144   */\n      swap1\n      pop\n        /* \"#utility.yul\":20169:20201   */\n      tag_480\n        /* \"#utility.yul\":20192:20200   */\n      dup6\n        /* \"#utility.yul\":20169:20201   */\n      tag_293\n      jump\t// in\n    tag_480:\n        /* \"#utility.yul\":20157:20201   */\n      swap5\n      pop\n        /* \"#utility.yul\":19499:20211   */\n      jump(tag_474)\n    tag_476:\n        /* \"#utility.yul\":19369:20217   */\n      swap5\n      pop\n      swap5\n      swap3\n      pop\n      pop\n      pop\n      jump\t// out\n        /* \"#utility.yul\":20223:21296   */\n    tag_295:\n        /* \"#utility.yul\":20277:20282   */\n      0x00\n        /* \"#utility.yul\":20468:20476   */\n      dup3\n        /* \"#utility.yul\":20458:20498   */\n      tag_482\n      jumpi\n        /* \"#utility.yul\":20489:20490   */\n      0x01\n        /* \"#utility.yul\":20480:20490   */\n      swap1\n      pop\n        /* \"#utility.yul\":20491:20496   */\n      jump(tag_481)\n        /* \"#utility.yul\":20458:20498   */\n    tag_482:\n        /* \"#utility.yul\":20517:20521   */\n      dup2\n        /* \"#utility.yul\":20507:20543   */\n      tag_483\n      jumpi\n        /* \"#utility.yul\":20534:20535   */\n      0x00\n        /* \"#utility.yul\":20525:20535   */\n      swap1\n      pop\n        /* \"#utility.yul\":20536:20541   */\n      jump(tag_481)\n        /* \"#utility.yul\":20507:20543   */\n    tag_483:\n        /* \"#utility.yul\":20603:20607   */\n      dup2\n        /* \"#utility.yul\":20651:20652   */\n      0x01\n        /* \"#utility.yul\":20646:20673   */\n      dup2\n      eq\n      tag_485\n      jumpi\n        /* \"#utility.yul\":20687:20688   */\n      0x02\n        /* \"#utility.yul\":20682:20873   */\n      dup2\n      eq\n      tag_486\n      jumpi\n        /* \"#utility.yul\":20596:20873   */\n      jump(tag_484)\n        /* \"#utility.yul\":20646:20673   */\n    tag_485:\n        /* \"#utility.yul\":20664:20665   */\n      0x01\n        /* \"#utility.yul\":20655:20665   */\n      swap2\n      pop\n        /* \"#utility.yul\":20666:20671   */\n      pop\n      jump(tag_481)\n        /* \"#utility.yul\":20682:20873   */\n    tag_486:\n        /* \"#utility.yul\":20727:20730   */\n      0xff\n        /* \"#utility.yul\":20717:20725   */\n      dup5\n        /* \"#utility.yul\":20714:20731   */\n      gt\n        /* \"#utility.yul\":20711:20754   */\n      iszero\n      tag_487\n      jumpi\n        /* \"#utility.yul\":20734:20752   */\n      tag_488\n      tag_272\n      jump\t// in\n    tag_488:\n        /* \"#utility.yul\":20711:20754   */\n    tag_487:\n        /* \"#utility.yul\":20783:20791   */\n      dup4\n        /* \"#utility.yul\":20780:20781   */\n      0x02\n        /* \"#utility.yul\":20776:20792   */\n      exp\n        /* \"#utility.yul\":20767:20792   */\n      swap2\n      pop\n        /* \"#utility.yul\":20818:20821   */\n      dup5\n        /* \"#utility.yul\":20811:20816   */\n      dup3\n        /* \"#utility.yul\":20808:20822   */\n      gt\n        /* \"#utility.yul\":20805:20845   */\n      iszero\n      tag_489\n      jumpi\n        /* \"#utility.yul\":20825:20843   */\n      tag_490\n      tag_272\n      jump\t// in\n    tag_490:\n        /* \"#utility.yul\":20805:20845   */\n    tag_489:\n        /* \"#utility.yul\":20858:20863   */\n      pop\n      jump(tag_481)\n        /* \"#utility.yul\":20596:20873   */\n    tag_484:\n      pop\n        /* \"#utility.yul\":20982:20984   */\n      0x20\n        /* \"#utility.yul\":20972:20980   */\n      dup4\n        /* \"#utility.yul\":20969:20985   */\n      lt\n        /* \"#utility.yul\":20963:20966   */\n      0x0133\n        /* \"#utility.yul\":20957:20961   */\n      dup4\n        /* \"#utility.yul\":20954:20967   */\n      lt\n        /* \"#utility.yul\":20950:20986   */\n      and\n        /* \"#utility.yul\":20932:20934   */\n      0x4e\n        /* \"#utility.yul\":20922:20930   */\n      dup5\n        /* \"#utility.yul\":20919:20935   */\n      lt\n        /* \"#utility.yul\":20914:20916   */\n      0x0b\n        /* \"#utility.yul\":20908:20912   */\n      dup5\n        /* \"#utility.yul\":20905:20917   */\n      lt\n        /* \"#utility.yul\":20901:20936   */\n      and\n        /* \"#utility.yul\":20885:20996   */\n      or\n        /* \"#utility.yul\":20882:21128   */\n      iszero\n      tag_491\n      jumpi\n        /* \"#utility.yul\":21038:21046   */\n      dup3\n        /* \"#utility.yul\":21032:21036   */\n      dup3\n        /* \"#utility.yul\":21028:21047   */\n      exp\n        /* \"#utility.yul\":21019:21047   */\n      swap1\n      pop\n        /* \"#utility.yul\":21073:21076   */\n      dup4\n        /* \"#utility.yul\":21066:21071   */\n      dup2\n        /* \"#utility.yul\":21063:21077   */\n      gt\n        /* \"#utility.yul\":21060:21100   */\n      iszero\n      tag_492\n      jumpi\n        /* \"#utility.yul\":21080:21098   */\n      tag_493\n      tag_272\n      jump\t// in\n    tag_493:\n        /* \"#utility.yul\":21060:21100   */\n    tag_492:\n        /* \"#utility.yul\":21113:21118   */\n      jump(tag_481)\n        /* \"#utility.yul\":20882:21128   */\n    tag_491:\n        /* \"#utility.yul\":21153:21195   */\n      tag_494\n        /* \"#utility.yul\":21191:21194   */\n      dup5\n        /* \"#utility.yul\":21181:21189   */\n      dup5\n        /* \"#utility.yul\":21175:21179   */\n      dup5\n        /* \"#utility.yul\":21172:21173   */\n      0x01\n        /* \"#utility.yul\":21153:21195   */\n      tag_294\n      jump\t// in\n    tag_494:\n        /* \"#utility.yul\":21138:21195   */\n      swap3\n      pop\n      swap1\n      pop\n        /* \"#utility.yul\":21227:21231   */\n      dup2\n        /* \"#utility.yul\":21222:21225   */\n      dup5\n        /* \"#utility.yul\":21218:21232   */\n      div\n        /* \"#utility.yul\":21211:21216   */\n      dup2\n        /* \"#utility.yul\":21208:21233   */\n      gt\n        /* \"#utility.yul\":21205:21256   */\n      iszero\n      tag_495\n      jumpi\n        /* \"#utility.yul\":21236:21254   */\n      tag_496\n      tag_272\n      jump\t// in\n    tag_496:\n        /* \"#utility.yul\":21205:21256   */\n    tag_495:\n        /* \"#utility.yul\":21285:21289   */\n      dup2\n        /* \"#utility.yul\":21278:21283   */\n      dup2\n        /* \"#utility.yul\":21274:21290   */\n      mul\n        /* \"#utility.yul\":21265:21290   */\n      swap1\n      pop\n        /* \"#utility.yul\":20223:21296   */\n    tag_481:\n      swap4\n      swap3\n      pop\n      pop\n      pop\n      jump\t// out\n        /* \"#utility.yul\":21302:21583   */\n    tag_231:\n        /* \"#utility.yul\":21360:21365   */\n      0x00\n        /* \"#utility.yul\":21384:21407   */\n      tag_498\n        /* \"#utility.yul\":21402:21406   */\n      dup3\n        /* \"#utility.yul\":21384:21407   */\n      tag_251\n      jump\t// in\n    tag_498:\n        /* \"#utility.yul\":21376:21407   */\n      swap2\n      pop\n        /* \"#utility.yul\":21428:21453   */\n      tag_499\n        /* \"#utility.yul\":21444:21452   */\n      dup4\n        /* \"#utility.yul\":21428:21453   */\n      tag_261\n      jump\t// in\n    tag_499:\n        /* \"#utility.yul\":21416:21453   */\n      swap3\n      pop\n        /* \"#utility.yul\":21472:21576   */\n      tag_500\n        /* \"#utility.yul\":21509:21575   */\n      0xffffffffffffffffffffffffffffffffffffffffffffffffffffffffffffffff\n        /* \"#utility.yul\":21499:21507   */\n      dup5\n        /* \"#utility.yul\":21493:21497   */\n      dup5\n        /* \"#utility.yul\":21472:21576   */\n      tag_295\n      jump\t// in\n    tag_500:\n        /* \"#utility.yul\":21463:21576   */\n      swap1\n      pop\n        /* \"#utility.yul\":21302:21583   */\n      swap3\n      swap2\n      pop\n      pop\n      jump\t// out\n\n    auxdata: 0xa2646970667358221220c06c700e0fad9dbffae1d9b28ccc751f7dd4c76ad30b9fe7fc0327bd81ef18eb64736f6c634300081e0033\n}\n",
				"bytecode": {
					"linkReferences": {},
					"object": "610100604052348015610010575f5ffd5b50604051612717380380612717833981810160405281019061003291906105e8565b335f73ffffffffffffffffffffffffffffffffffffffff168173ffffffffffffffffffffffffffffffffffffffff16036100a3575f6040517f1e4fbdf700000000000000000000000000000000000000000000000000000000815260040161009a919061066e565b60405180910390fd5b6100b28161034060201b60201c565b50600180819055505f73ffffffffffffffffffffffffffffffffffffffff168573ffffffffffffffffffffffffffffffffffffffff1603610128576040517f08c379a000000000000000000000000000000000000000000000000000000000815260040161011f906106e1565b60405180910390fd5b5f73ffffffffffffffffffffffffffffffffffffffff168473ffffffffffffffffffffffffffffffffffffffff1603610196576040517f08c379a000000000000000000000000000000000000000000000000000000000815260040161018d90610749565b60405180910390fd5b5f83116101d8576040517f08c379a00000000000000000000000000000000000000000000000000000000081526004016101cf906107b1565b60405180910390fd5b5f821161021a576040517f08c379a000000000000000000000000000000000000000000000000000000000815260040161021190610819565b60405180910390fd5b5f811180156102295750818111155b610268576040517f08c379a000000000000000000000000000000000000000000000000000000000815260040161025f90610881565b60405180910390fd5b8473ffffffffffffffffffffffffffffffffffffffff1660808173ffffffffffffffffffffffffffffffffffffffff16815250508373ffffffffffffffffffffffffffffffffffffffff1660a08173ffffffffffffffffffffffffffffffffffffffff16815250506102df8561040160201b60201c565b60ff1660c08160ff16815250506102fb8461040160201b60201c565b60ff1660e08160ff16815250508260048190555081600581905550806006819055505f60075f6101000a81548160ff02191690831515021790555050505050506109d0565b5f5f5f9054906101000a900473ffffffffffffffffffffffffffffffffffffffff169050815f5f6101000a81548173ffffffffffffffffffffffffffffffffffffffff021916908373ffffffffffffffffffffffffffffffffffffffff1602179055508173ffffffffffffffffffffffffffffffffffffffff168173ffffffffffffffffffffffffffffffffffffffff167f8be0079c531659141344cd1fd0a4f28419497f9722a3daafe3b4186f6b6457e060405160405180910390a35050565b5f5f5f8373ffffffffffffffffffffffffffffffffffffffff166040516024016040516020818303038152906040527f313ce567000000000000000000000000000000000000000000000000000000007bffffffffffffffffffffffffffffffffffffffffffffffffffffffff19166020820180517bffffffffffffffffffffffffffffffffffffffffffffffffffffffff83818316178352505050506040516104ab91906108f1565b5f60405180830381855afa9150503d805f81146104e3576040519150601f19603f3d011682016040523d82523d5f602084013e6104e8565b606091505b50915091508180156104fb575060208151145b61053a576040517f08c379a000000000000000000000000000000000000000000000000000000000815260040161053190610951565b60405180910390fd5b8080602001905181019061054e91906109a5565b92505050919050565b5f5ffd5b5f73ffffffffffffffffffffffffffffffffffffffff82169050919050565b5f6105848261055b565b9050919050565b6105948161057a565b811461059e575f5ffd5b50565b5f815190506105af8161058b565b92915050565b5f819050919050565b6105c7816105b5565b81146105d1575f5ffd5b50565b5f815190506105e2816105be565b92915050565b5f5f5f5f5f60a0868803121561060157610600610557565b5b5f61060e888289016105a1565b955050602061061f888289016105a1565b9450506040610630888289016105d4565b9350506060610641888289016105d4565b9250506080610652888289016105d4565b9150509295509295909350565b6106688161057a565b82525050565b5f6020820190506106815f83018461065f565b92915050565b5f82825260208201905092915050565b7f4c616e64466920746f6b656e207a65726f2061646472657373000000000000005f82015250565b5f6106cb601983610687565b91506106d682610697565b602082019050919050565b5f6020820190508181035f8301526106f8816106bf565b9050919050565b7f52657761726420746f6b656e207a65726f2061646472657373000000000000005f82015250565b5f610733601983610687565b915061073e826106ff565b602082019050919050565b5f6020820190508181035f83015261076081610727565b9050919050565b7f5374616b65206475726174696f6e206d757374206265203e20300000000000005f82015250565b5f61079b601a83610687565b91506107a682610767565b602082019050919050565b5f6020820190508181035f8301526107c88161078f565b9050919050565b7f4d6178207374616b65206d757374206265203e203000000000000000000000005f82015250565b5f610803601583610687565b915061080e826107cf565b602082019050919050565b5f6020820190508181035f830152610830816107f7565b9050919050565b7f496e76616c6964206d696e207374616b650000000000000000000000000000005f82015250565b5f61086b601183610687565b915061087682610837565b602082019050919050565b5f6020820190508181035f8301526108988161085f565b9050919050565b5f81519050919050565b5f81905092915050565b8281835e5f83830152505050565b5f6108cb8261089f565b6108d581856108a9565b93506108e58185602086016108b3565b80840191505092915050565b5f6108fc82846108c1565b915081905092915050565b7f4661696c656420746f2067657420646563696d616c73000000000000000000005f82015250565b5f61093b601683610687565b915061094682610907565b602082019050919050565b5f6020820190508181035f8301526109688161092f565b9050919050565b5f60ff82169050919050565b6109848161096f565b811461098e575f5ffd5b50565b5f8151905061099f8161097b565b92915050565b5f602082840312156109ba576109b9610557565b5b5f6109c784828501610991565b91505092915050565b60805160a05160c05160e051611cea610a2d5f395f8181610c320152610d4e01525f818161097d0152610d0101525f81816106cc015281816107aa0152610e3101525f818161048c0152818161067d0152610b8f0152611cea5ff3fe608060405234801561000f575f5ffd5b5060043610610140575f3560e01c80638dfb2dbc116100b6578063d82e39621161007a578063d82e39621461033c578063ea1b28e01461036c578063f1cddd551461038a578063f2fde38b146103a6578063f7c618c1146103c2578063f908dc13146103e057610140565b80638dfb2dbc146102985780639aae43f5146102c8578063a694fc3a146102e6578063b60f75d814610302578063cd5692ee1461032057610140565b80633ccfd60b116101085780633ccfd60b146101fc57806340f02ab6146102065780636747dd0e1461022457806370a0823114610240578063715018a6146102705780638da5cb5b1461027a57610140565b806316934fc41461014457806323dcdb8914610174578063240be94414610190578063292a6b19146101c0578063375b3c0a146101de575b5f5ffd5b61015e60048036038101906101599190611281565b6103fe565b60405161016b91906112c4565b60405180910390f35b61018e60048036038101906101899190611307565b610413565b005b6101aa60048036038101906101a59190611281565b610475565b6040516101b791906112c4565b60405180910390f35b6101c861048a565b6040516101d5919061138d565b60405180910390f35b6101e66104ae565b6040516101f391906112c4565b60405180910390f35b6102046104b4565b005b61020e61084e565b60405161021b91906112c4565b60405180910390f35b61023e60048036038101906102399190611307565b610854565b005b61025a60048036038101906102559190611281565b6108a8565b60405161026791906112c4565b60405180910390f35b6102786108ee565b005b610282610901565b60405161028f91906113b5565b60405180910390f35b6102b260048036038101906102ad9190611281565b610928565b6040516102bf91906112c4565b60405180910390f35b6102d061097b565b6040516102dd91906113e9565b60405180910390f35b61030060048036038101906102fb9190611307565b61099f565b005b61030a610c30565b60405161031791906113e9565b60405180910390f35b61033a60048036038101906103359190611307565b610c54565b005b61035660048036038101906103519190611281565b610ca8565b60405161036391906112c4565b60405180910390f35b610374610d81565b60405161038191906112c4565b60405180910390f35b6103a4600480360381019061039f9190611437565b610d87565b005b6103c060048036038101906103bb9190611281565b610dab565b005b6103ca610e2f565b6040516103d7919061138d565b60405180910390f35b6103e8610e53565b6040516103f59190611471565b60405180910390f35b6002602052805f5260405f205f915090505481565b61041b610e65565b5f8111801561042c57506005548111155b61046b576040517f08c379a0000000000000000000000000000000000000000000000000000000008152600401610462906114e4565b60405180910390fd5b8060068190555050565b6003602052805f5260405f205f915090505481565b7f000000000000000000000000000000000000000000000000000000000000000081565b60065481565b6104bc610eec565b5f3390505f60025f8373ffffffffffffffffffffffffffffffffffffffff1673ffffffffffffffffffffffffffffffffffffffff1681526020019081526020015f205490505f8111610543576040517f08c379a000000000000000000000000000000000000000000000000000000000815260040161053a9061154c565b60405180910390fd5b60075f9054906101000a900460ff16806105a7575060045460035f8473ffffffffffffffffffffffffffffffffffffffff1673ffffffffffffffffffffffffffffffffffffffff1681526020019081526020015f20546105a39190611597565b4210155b6105e6576040517f08c379a00000000000000000000000000000000000000000000000000000000081526004016105dd90611614565b60405180910390fd5b5f6105f083610ca8565b90505f60025f8573ffffffffffffffffffffffffffffffffffffffff1673ffffffffffffffffffffffffffffffffffffffff1681526020019081526020015f20819055505f60035f8573ffffffffffffffffffffffffffffffffffffffff1673ffffffffffffffffffffffffffffffffffffffff1681526020019081526020015f20819055506106c183837f000000000000000000000000000000000000000000000000000000000000000073ffffffffffffffffffffffffffffffffffffffff16610f3b9092919063ffffffff16565b5f8111156107ef57807f000000000000000000000000000000000000000000000000000000000000000073ffffffffffffffffffffffffffffffffffffffff166370a08231306040518263ffffffff1660e01b815260040161072391906113b5565b602060405180830381865afa15801561073e573d5f5f3e3d5ffd5b505050506040513d601f19601f820116820180604052508101906107629190611646565b10156107a3576040517f08c379a000000000000000000000000000000000000000000000000000000000815260040161079a906116bb565b60405180910390fd5b6107ee83827f000000000000000000000000000000000000000000000000000000000000000073ffffffffffffffffffffffffffffffffffffffff16610f3b9092919063ffffffff16565b5b8273ffffffffffffffffffffffffffffffffffffffff167f75e161b3e824b114fc1a33274bd7091918dd4e639cede50b78b15a4eea956a21838342604051610839939291906116d9565b60405180910390a250505061084c610fba565b565b60045481565b61085c610e65565b5f811161089e576040517f08c379a000000000000000000000000000000000000000000000000000000000815260040161089590611758565b60405180910390fd5b8060048190555050565b5f60025f8373ffffffffffffffffffffffffffffffffffffffff1673ffffffffffffffffffffffffffffffffffffffff1681526020019081526020015f20549050919050565b6108f6610e65565b6108ff5f610fc3565b565b5f5f5f9054906101000a900473ffffffffffffffffffffffffffffffffffffffff16905090565b5f60045460035f8473ffffffffffffffffffffffffffffffffffffffff1673ffffffffffffffffffffffffffffffffffffffff1681526020019081526020015f20546109749190611597565b9050919050565b7f000000000000000000000000000000000000000000000000000000000000000081565b6109a7610eec565b5f3390505f60025f8373ffffffffffffffffffffffffffffffffffffffff1673ffffffffffffffffffffffffffffffffffffffff1681526020019081526020015f205414610a2a576040517f08c379a0000000000000000000000000000000000000000000000000000000008152600401610a21906117c0565b60405180910390fd5b600654821015610a6f576040517f08c379a0000000000000000000000000000000000000000000000000000000008152600401610a6690611828565b60405180910390fd5b600554821115610ab4576040517f08c379a0000000000000000000000000000000000000000000000000000000008152600401610aab90611890565b60405180910390fd5b60075f9054906101000a900460ff1615610b03576040517f08c379a0000000000000000000000000000000000000000000000000000000008152600401610afa906118f8565b60405180910390fd5b8160025f8373ffffffffffffffffffffffffffffffffffffffff1673ffffffffffffffffffffffffffffffffffffffff1681526020019081526020015f20819055504260035f8373ffffffffffffffffffffffffffffffffffffffff1673ffffffffffffffffffffffffffffffffffffffff1681526020019081526020015f2081905550610bd48130847f000000000000000000000000000000000000000000000000000000000000000073ffffffffffffffffffffffffffffffffffffffff16611084909392919063ffffffff16565b8073ffffffffffffffffffffffffffffffffffffffff167f1449c6dd7851abc30abf37f57715f492010519147cc2652fbc38202c18a6ee908342604051610c1c929190611916565b60405180910390a250610c2d610fba565b50565b7f000000000000000000000000000000000000000000000000000000000000000081565b610c5c610e65565b5f8111610c9e576040517f08c379a0000000000000000000000000000000000000000000000000000000008152600401610c9590611987565b60405180910390fd5b8060058190555050565b5f5f60025f8473ffffffffffffffffffffffffffffffffffffffff1673ffffffffffffffffffffffffffffffffffffffff1681526020019081526020015f205490505f8103610cfa575f915050610d7c565b5f610d27827f00000000000000000000000000000000000000000000000000000000000000006012611106565b90505f6064600583610d3991906119a5565b610d439190611a13565b90505f610d728260127f0000000000000000000000000000000000000000000000000000000000000000611106565b9050809450505050505b919050565b60055481565b610d8f610e65565b8060075f6101000a81548160ff02191690831515021790555050565b610db3610e65565b5f73ffffffffffffffffffffffffffffffffffffffff168173ffffffffffffffffffffffffffffffffffffffff1603610e23575f6040517f1e4fbdf7000000000000000000000000000000000000000000000000000000008152600401610e1a91906113b5565b60405180910390fd5b610e2c81610fc3565b50565b7f000000000000000000000000000000000000000000000000000000000000000081565b60075f9054906101000a900460ff1681565b610e6d611181565b73ffffffffffffffffffffffffffffffffffffffff16610e8b610901565b73ffffffffffffffffffffffffffffffffffffffff1614610eea57610eae611181565b6040517f118cdaa7000000000000000000000000000000000000000000000000000000008152600401610ee191906113b5565b60405180910390fd5b565b600260015403610f31576040517f08c379a0000000000000000000000000000000000000000000000000000000008152600401610f2890611a8d565b60405180910390fd5b6002600181905550565b610fb5838473ffffffffffffffffffffffffffffffffffffffff1663a9059cbb8585604051602401610f6e929190611aab565b604051602081830303815290604052915060e01b6020820180517bffffffffffffffffffffffffffffffffffffffffffffffffffffffff8381831617835250505050611188565b505050565b60018081905550565b5f5f5f9054906101000a900473ffffffffffffffffffffffffffffffffffffffff169050815f5f6101000a81548173ffffffffffffffffffffffffffffffffffffffff021916908373ffffffffffffffffffffffffffffffffffffffff1602179055508173ffffffffffffffffffffffffffffffffffffffff168173ffffffffffffffffffffffffffffffffffffffff167f8be0079c531659141344cd1fd0a4f28419497f9722a3daafe3b4186f6b6457e060405160405180910390a35050565b611100848573ffffffffffffffffffffffffffffffffffffffff166323b872dd8686866040516024016110b993929190611ad2565b604051602081830303815290604052915060e01b6020820180517bffffffffffffffffffffffffffffffffffffffffffffffffffffffff8381831617835250505050611188565b50505050565b5f8160ff168360ff160361111c5783905061117a565b8160ff168360ff1611156111545781836111369190611b07565b600a6111429190611c6a565b8461114d9190611a13565b905061117a565b82826111609190611b07565b600a61116c9190611c6a565b8461117791906119a5565b90505b9392505050565b5f33905090565b5f5f60205f8451602086015f885af1806111a7576040513d5f823e3d81fd5b3d92505f519150505f82146111c05760018114156111db565b5f8473ffffffffffffffffffffffffffffffffffffffff163b145b1561121d57836040517f5274afe700000000000000000000000000000000000000000000000000000000815260040161121491906113b5565b60405180910390fd5b50505050565b5f5ffd5b5f73ffffffffffffffffffffffffffffffffffffffff82169050919050565b5f61125082611227565b9050919050565b61126081611246565b811461126a575f5ffd5b50565b5f8135905061127b81611257565b92915050565b5f6020828403121561129657611295611223565b5b5f6112a38482850161126d565b91505092915050565b5f819050919050565b6112be816112ac565b82525050565b5f6020820190506112d75f8301846112b5565b92915050565b6112e6816112ac565b81146112f0575f5ffd5b50565b5f81359050611301816112dd565b92915050565b5f6020828403121561131c5761131b611223565b5b5f611329848285016112f3565b91505092915050565b5f819050919050565b5f61135561135061134b84611227565b611332565b611227565b9050919050565b5f6113668261133b565b9050919050565b5f6113778261135c565b9050919050565b6113878161136d565b82525050565b5f6020820190506113a05f83018461137e565b92915050565b6113af81611246565b82525050565b5f6020820190506113c85f8301846113a6565b92915050565b5f60ff82169050919050565b6113e3816113ce565b82525050565b5f6020820190506113fc5f8301846113da565b92915050565b5f8115159050919050565b61141681611402565b8114611420575f5ffd5b50565b5f813590506114318161140d565b92915050565b5f6020828403121561144c5761144b611223565b5b5f61145984828501611423565b91505092915050565b61146b81611402565b82525050565b5f6020820190506114845f830184611462565b92915050565b5f82825260208201905092915050565b7f496e76616c6964206d696e207374616b650000000000000000000000000000005f82015250565b5f6114ce60118361148a565b91506114d98261149a565b602082019050919050565b5f6020820190508181035f8301526114fb816114c2565b9050919050565b7f4e6f207374616b6520666f756e640000000000000000000000000000000000005f82015250565b5f611536600e8361148a565b915061154182611502565b602082019050919050565b5f6020820190508181035f8301526115638161152a565b9050919050565b7f4e487b71000000000000000000000000000000000000000000000000000000005f52601160045260245ffd5b5f6115a1826112ac565b91506115ac836112ac565b92508282019050808211156115c4576115c361156a565b5b92915050565b7f5374616b65206c6f636b656400000000000000000000000000000000000000005f82015250565b5f6115fe600c8361148a565b9150611609826115ca565b602082019050919050565b5f6020820190508181035f83015261162b816115f2565b9050919050565b5f81519050611640816112dd565b92915050565b5f6020828403121561165b5761165a611223565b5b5f61166884828501611632565b91505092915050565b7f496e73756666696369656e74207265776172642062616c616e636500000000005f82015250565b5f6116a5601b8361148a565b91506116b082611671565b602082019050919050565b5f6020820190508181035f8301526116d281611699565b9050919050565b5f6060820190506116ec5f8301866112b5565b6116f960208301856112b5565b61170660408301846112b5565b949350505050565b7f5374616b65206475726174696f6e206d757374206265203e20300000000000005f82015250565b5f611742601a8361148a565b915061174d8261170e565b602082019050919050565b5f6020820190508181035f83015261176f81611736565b9050919050565b7f416c7265616479207374616b696e6700000000000000000000000000000000005f82015250565b5f6117aa600f8361148a565b91506117b582611776565b602082019050919050565b5f6020820190508181035f8301526117d78161179e565b9050919050565b7f416d6f756e742062656c6f77206d696e5374616b6500000000000000000000005f82015250565b5f61181260158361148a565b915061181d826117de565b602082019050919050565b5f6020820190508181035f83015261183f81611806565b9050919050565b7f416d6f756e742065786365656473206d61785374616b650000000000000000005f82015250565b5f61187a60178361148a565b915061188582611846565b602082019050919050565b5f6020820190508181035f8301526118a78161186e565b9050919050565b7f5374616b696e67206c6f636b65640000000000000000000000000000000000005f82015250565b5f6118e2600e8361148a565b91506118ed826118ae565b602082019050919050565b5f6020820190508181035f83015261190f816118d6565b9050919050565b5f6040820190506119295f8301856112b5565b61193660208301846112b5565b9392505050565b7f4d6178207374616b65206d757374206265203e203000000000000000000000005f82015250565b5f61197160158361148a565b915061197c8261193d565b602082019050919050565b5f6020820190508181035f83015261199e81611965565b9050919050565b5f6119af826112ac565b91506119ba836112ac565b92508282026119c8816112ac565b915082820484148315176119df576119de61156a565b5b5092915050565b7f4e487b71000000000000000000000000000000000000000000000000000000005f52601260045260245ffd5b5f611a1d826112ac565b9150611a28836112ac565b925082611a3857611a376119e6565b5b828204905092915050565b7f5265656e7472616e637947756172643a207265656e7472616e742063616c6c005f82015250565b5f611a77601f8361148a565b9150611a8282611a43565b602082019050919050565b5f6020820190508181035f830152611aa481611a6b565b9050919050565b5f604082019050611abe5f8301856113a6565b611acb60208301846112b5565b9392505050565b5f606082019050611ae55f8301866113a6565b611af260208301856113a6565b611aff60408301846112b5565b949350505050565b5f611b11826113ce565b9150611b1c836113ce565b9250828203905060ff811115611b3557611b3461156a565b5b92915050565b5f8160011c9050919050565b5f5f8291508390505b6001851115611b9057808604811115611b6c57611b6b61156a565b5b6001851615611b7b5780820291505b8081029050611b8985611b3b565b9450611b50565b94509492505050565b5f82611ba85760019050611c63565b81611bb5575f9050611c63565b8160018114611bcb5760028114611bd557611c04565b6001915050611c63565b60ff841115611be757611be661156a565b5b8360020a915084821115611bfe57611bfd61156a565b5b50611c63565b5060208310610133831016604e8410600b8410161715611c395782820a905083811115611c3457611c3361156a565b5b611c63565b611c468484846001611b47565b92509050818404811115611c5d57611c5c61156a565b5b81810290505b9392505050565b5f611c74826112ac565b9150611c7f836113ce565b9250611cac7fffffffffffffffffffffffffffffffffffffffffffffffffffffffffffffffff8484611b99565b90509291505056fea2646970667358221220c06c700e0fad9dbffae1d9b28ccc751f7dd4c76ad30b9fe7fc0327bd81ef18eb64736f6c634300081e0033",
					"opcodes": "PUSH2 0x100 PUSH1 0x40 MSTORE CALLVALUE DUP1 ISZERO PUSH2 0x10 JUMPI PUSH0 PUSH0 REVERT JUMPDEST POP PUSH1 0x40 MLOAD PUSH2 0x2717 CODESIZE SUB DUP1 PUSH2 0x2717 DUP4 CODECOPY DUP2 DUP2 ADD PUSH1 0x40 MSTORE DUP2 ADD SWAP1 PUSH2 0x32 SWAP2 SWAP1 PUSH2 0x5E8 JUMP JUMPDEST CALLER PUSH0 PUSH20 0xFFFFFFFFFFFFFFFFFFFFFFFFFFFFFFFFFFFFFFFF AND DUP2 PUSH20 0xFFFFFFFFFFFFFFFFFFFFFFFFFFFFFFFFFFFFFFFF AND SUB PUSH2 0xA3 JUMPI PUSH0 PUSH1 0x40 MLOAD PUSH32 0x1E4FBDF700000000000000000000000000000000000000000000000000000000 DUP2 MSTORE PUSH1 0x4 ADD PUSH2 0x9A SWAP2 SWAP1 PUSH2 0x66E JUMP JUMPDEST PUSH1 0x40 MLOAD DUP1 SWAP2 SUB SWAP1 REVERT JUMPDEST PUSH2 0xB2 DUP2 PUSH2 0x340 PUSH1 0x20 SHL PUSH1 0x20 SHR JUMP JUMPDEST POP PUSH1 0x1 DUP1 DUP2 SWAP1 SSTORE POP PUSH0 PUSH20 0xFFFFFFFFFFFFFFFFFFFFFFFFFFFFFFFFFFFFFFFF AND DUP6 PUSH20 0xFFFFFFFFFFFFFFFFFFFFFFFFFFFFFFFFFFFFFFFF AND SUB PUSH2 0x128 JUMPI PUSH1 0x40 MLOAD PUSH32 0x8C379A000000000000000000000000000000000000000000000000000000000 DUP2 MSTORE PUSH1 0x4 ADD PUSH2 0x11F SWAP1 PUSH2 0x6E1 JUMP JUMPDEST PUSH1 0x40 MLOAD DUP1 SWAP2 SUB SWAP1 REVERT JUMPDEST PUSH0 PUSH20 0xFFFFFFFFFFFFFFFFFFFFFFFFFFFFFFFFFFFFFFFF AND DUP5 PUSH20 0xFFFFFFFFFFFFFFFFFFFFFFFFFFFFFFFFFFFFFFFF AND SUB PUSH2 0x196 JUMPI PUSH1 0x40 MLOAD PUSH32 0x8C379A000000000000000000000000000000000000000000000000000000000 DUP2 MSTORE PUSH1 0x4 ADD PUSH2 0x18D SWAP1 PUSH2 0x749 JUMP JUMPDEST PUSH1 0x40 MLOAD DUP1 SWAP2 SUB SWAP1 REVERT JUMPDEST PUSH0 DUP4 GT PUSH2 0x1D8 JUMPI PUSH1 0x40 MLOAD PUSH32 0x8C379A000000000000000000000000000000000000000000000000000000000 DUP2 MSTORE PUSH1 0x4 ADD PUSH2 0x1CF SWAP1 PUSH2 0x7B1 JUMP JUMPDEST PUSH1 0x40 MLOAD DUP1 SWAP2 SUB SWAP1 REVERT JUMPDEST PUSH0 DUP3 GT PUSH2 0x21A JUMPI PUSH1 0x40 MLOAD PUSH32 0x8C379A000000000000000000000000000000000000000000000000000000000 DUP2 MSTORE PUSH1 0x4 ADD PUSH2 0x211 SWAP1 PUSH2 0x819 JUMP JUMPDEST PUSH1 0x40 MLOAD DUP1 SWAP2 SUB SWAP1 REVERT JUMPDEST PUSH0 DUP2 GT DUP1 ISZERO PUSH2 0x229 JUMPI POP DUP2 DUP2 GT ISZERO JUMPDEST PUSH2 0x268 JUMPI PUSH1 0x40 MLOAD PUSH32 0x8C379A000000000000000000000000000000000000000000000000000000000 DUP2 MSTORE PUSH1 0x4 ADD PUSH2 0x25F SWAP1 PUSH2 0x881 JUMP JUMPDEST PUSH1 0x40 MLOAD DUP1 SWAP2 SUB SWAP1 REVERT JUMPDEST DUP5 PUSH20 0xFFFFFFFFFFFFFFFFFFFFFFFFFFFFFFFFFFFFFFFF AND PUSH1 0x80 DUP2 PUSH20 0xFFFFFFFFFFFFFFFFFFFFFFFFFFFFFFFFFFFFFFFF AND DUP2 MSTORE POP POP DUP4 PUSH20 0xFFFFFFFFFFFFFFFFFFFFFFFFFFFFFFFFFFFFFFFF AND PUSH1 0xA0 DUP2 PUSH20 0xFFFFFFFFFFFFFFFFFFFFFFFFFFFFFFFFFFFFFFFF AND DUP2 MSTORE POP POP PUSH2 0x2DF DUP6 PUSH2 0x401 PUSH1 0x20 SHL PUSH1 0x20 SHR JUMP JUMPDEST PUSH1 0xFF AND PUSH1 0xC0 DUP2 PUSH1 0xFF AND DUP2 MSTORE POP POP PUSH2 0x2FB DUP5 PUSH2 0x401 PUSH1 0x20 SHL PUSH1 0x20 SHR JUMP JUMPDEST PUSH1 0xFF AND PUSH1 0xE0 DUP2 PUSH1 0xFF AND DUP2 MSTORE POP POP DUP3 PUSH1 0x4 DUP2 SWAP1 SSTORE POP DUP2 PUSH1 0x5 DUP2 SWAP1 SSTORE POP DUP1 PUSH1 0x6 DUP2 SWAP1 SSTORE POP PUSH0 PUSH1 0x7 PUSH0 PUSH2 0x100 EXP DUP2 SLOAD DUP2 PUSH1 0xFF MUL NOT AND SWAP1 DUP4 ISZERO ISZERO MUL OR SWAP1 SSTORE POP POP POP POP POP POP PUSH2 0x9D0 JUMP JUMPDEST PUSH0 PUSH0 PUSH0 SWAP1 SLOAD SWAP1 PUSH2 0x100 EXP SWAP1 DIV PUSH20 0xFFFFFFFFFFFFFFFFFFFFFFFFFFFFFFFFFFFFFFFF AND SWAP1 POP DUP2 PUSH0 PUSH0 PUSH2 0x100 EXP DUP2 SLOAD DUP2 PUSH20 0xFFFFFFFFFFFFFFFFFFFFFFFFFFFFFFFFFFFFFFFF MUL NOT AND SWAP1 DUP4 PUSH20 0xFFFFFFFFFFFFFFFFFFFFFFFFFFFFFFFFFFFFFFFF AND MUL OR SWAP1 SSTORE POP DUP2 PUSH20 0xFFFFFFFFFFFFFFFFFFFFFFFFFFFFFFFFFFFFFFFF AND DUP2 PUSH20 0xFFFFFFFFFFFFFFFFFFFFFFFFFFFFFFFFFFFFFFFF AND PUSH32 0x8BE0079C531659141344CD1FD0A4F28419497F9722A3DAAFE3B4186F6B6457E0 PUSH1 0x40 MLOAD PUSH1 0x40 MLOAD DUP1 SWAP2 SUB SWAP1 LOG3 POP POP JUMP JUMPDEST PUSH0 PUSH0 PUSH0 DUP4 PUSH20 0xFFFFFFFFFFFFFFFFFFFFFFFFFFFFFFFFFFFFFFFF AND PUSH1 0x40 MLOAD PUSH1 0x24 ADD PUSH1 0x40 MLOAD PUSH1 0x20 DUP2 DUP4 SUB SUB DUP2 MSTORE SWAP1 PUSH1 0x40 MSTORE PUSH32 0x313CE56700000000000000000000000000000000000000000000000000000000 PUSH28 0xFFFFFFFFFFFFFFFFFFFFFFFFFFFFFFFFFFFFFFFFFFFFFFFFFFFFFFFF NOT AND PUSH1 0x20 DUP3 ADD DUP1 MLOAD PUSH28 0xFFFFFFFFFFFFFFFFFFFFFFFFFFFFFFFFFFFFFFFFFFFFFFFFFFFFFFFF DUP4 DUP2 DUP4 AND OR DUP4 MSTORE POP POP POP POP PUSH1 0x40 MLOAD PUSH2 0x4AB SWAP2 SWAP1 PUSH2 0x8F1 JUMP JUMPDEST PUSH0 PUSH1 0x40 MLOAD DUP1 DUP4 SUB DUP2 DUP6 GAS STATICCALL SWAP2 POP POP RETURNDATASIZE DUP1 PUSH0 DUP2 EQ PUSH2 0x4E3 JUMPI PUSH1 0x40 MLOAD SWAP2 POP PUSH1 0x1F NOT PUSH1 0x3F RETURNDATASIZE ADD AND DUP3 ADD PUSH1 0x40 MSTORE RETURNDATASIZE DUP3 MSTORE RETURNDATASIZE PUSH0 PUSH1 0x20 DUP5 ADD RETURNDATACOPY PUSH2 0x4E8 JUMP JUMPDEST PUSH1 0x60 SWAP2 POP JUMPDEST POP SWAP2 POP SWAP2 POP DUP2 DUP1 ISZERO PUSH2 0x4FB JUMPI POP PUSH1 0x20 DUP2 MLOAD EQ JUMPDEST PUSH2 0x53A JUMPI PUSH1 0x40 MLOAD PUSH32 0x8C379A000000000000000000000000000000000000000000000000000000000 DUP2 MSTORE PUSH1 0x4 ADD PUSH2 0x531 SWAP1 PUSH2 0x951 JUMP JUMPDEST PUSH1 0x40 MLOAD DUP1 SWAP2 SUB SWAP1 REVERT JUMPDEST DUP1 DUP1 PUSH1 0x20 ADD SWAP1 MLOAD DUP2 ADD SWAP1 PUSH2 0x54E SWAP2 SWAP1 PUSH2 0x9A5 JUMP JUMPDEST SWAP3 POP POP POP SWAP2 SWAP1 POP JUMP JUMPDEST PUSH0 PUSH0 REVERT JUMPDEST PUSH0 PUSH20 0xFFFFFFFFFFFFFFFFFFFFFFFFFFFFFFFFFFFFFFFF DUP3 AND SWAP1 POP SWAP2 SWAP1 POP JUMP JUMPDEST PUSH0 PUSH2 0x584 DUP3 PUSH2 0x55B JUMP JUMPDEST SWAP1 POP SWAP2 SWAP1 POP JUMP JUMPDEST PUSH2 0x594 DUP2 PUSH2 0x57A JUMP JUMPDEST DUP2 EQ PUSH2 0x59E JUMPI PUSH0 PUSH0 REVERT JUMPDEST POP JUMP JUMPDEST PUSH0 DUP2 MLOAD SWAP1 POP PUSH2 0x5AF DUP2 PUSH2 0x58B JUMP JUMPDEST SWAP3 SWAP2 POP POP JUMP JUMPDEST PUSH0 DUP2 SWAP1 POP SWAP2 SWAP1 POP JUMP JUMPDEST PUSH2 0x5C7 DUP2 PUSH2 0x5B5 JUMP JUMPDEST DUP2 EQ PUSH2 0x5D1 JUMPI PUSH0 PUSH0 REVERT JUMPDEST POP JUMP JUMPDEST PUSH0 DUP2 MLOAD SWAP1 POP PUSH2 0x5E2 DUP2 PUSH2 0x5BE JUMP JUMPDEST SWAP3 SWAP2 POP POP JUMP JUMPDEST PUSH0 PUSH0 PUSH0 PUSH0 PUSH0 PUSH1 0xA0 DUP7 DUP9 SUB SLT ISZERO PUSH2 0x601 JUMPI PUSH2 0x600 PUSH2 0x557 JUMP JUMPDEST JUMPDEST PUSH0 PUSH2 0x60E DUP9 DUP3 DUP10 ADD PUSH2 0x5A1 JUMP JUMPDEST SWAP6 POP POP PUSH1 0x20 PUSH2 0x61F DUP9 DUP3 DUP10 ADD PUSH2 0x5A1 JUMP JUMPDEST SWAP5 POP POP PUSH1 0x40 PUSH2 0x630 DUP9 DUP3 DUP10 ADD PUSH2 0x5D4 JUMP JUMPDEST SWAP4 POP POP PUSH1 0x60 PUSH2 0x641 DUP9 DUP3 DUP10 ADD PUSH2 0x5D4 JUMP JUMPDEST SWAP3 POP POP PUSH1 0x80 PUSH2 0x652 DUP9 DUP3 DUP10 ADD PUSH2 0x5D4 JUMP JUMPDEST SWAP2 POP POP SWAP3 SWAP6 POP SWAP3 SWAP6 SWAP1 SWAP4 POP JUMP JUMPDEST PUSH2 0x668 DUP2 PUSH2 0x57A JUMP JUMPDEST DUP3 MSTORE POP POP JUMP JUMPDEST PUSH0 PUSH1 0x20 DUP3 ADD SWAP1 POP PUSH2 0x681 PUSH0 DUP4 ADD DUP5 PUSH2 0x65F JUMP JUMPDEST SWAP3 SWAP2 POP POP JUMP JUMPDEST PUSH0 DUP3 DUP3 MSTORE PUSH1 0x20 DUP3 ADD SWAP1 POP SWAP3 SWAP2 POP POP JUMP JUMPDEST PUSH32 0x4C616E64466920746F6B656E207A65726F206164647265737300000000000000 PUSH0 DUP3 ADD MSTORE POP JUMP JUMPDEST PUSH0 PUSH2 0x6CB PUSH1 0x19 DUP4 PUSH2 0x687 JUMP JUMPDEST SWAP2 POP PUSH2 0x6D6 DUP3 PUSH2 0x697 JUMP JUMPDEST PUSH1 0x20 DUP3 ADD SWAP1 POP SWAP2 SWAP1 POP JUMP JUMPDEST PUSH0 PUSH1 0x20 DUP3 ADD SWAP1 POP DUP2 DUP2 SUB PUSH0 DUP4 ADD MSTORE PUSH2 0x6F8 DUP2 PUSH2 0x6BF JUMP JUMPDEST SWAP1 POP SWAP2 SWAP1 POP JUMP JUMPDEST PUSH32 0x52657761726420746F6B656E207A65726F206164647265737300000000000000 PUSH0 DUP3 ADD MSTORE POP JUMP JUMPDEST PUSH0 PUSH2 0x733 PUSH1 0x19 DUP4 PUSH2 0x687 JUMP JUMPDEST SWAP2 POP PUSH2 0x73E DUP3 PUSH2 0x6FF JUMP JUMPDEST PUSH1 0x20 DUP3 ADD SWAP1 POP SWAP2 SWAP1 POP JUMP JUMPDEST PUSH0 PUSH1 0x20 DUP3 ADD SWAP1 POP DUP2 DUP2 SUB PUSH0 DUP4 ADD MSTORE PUSH2 0x760 DUP2 PUSH2 0x727 JUMP JUMPDEST SWAP1 POP SWAP2 SWAP1 POP JUMP JUMPDEST PUSH32 0x5374616B65206475726174696F6E206D757374206265203E2030000000000000 PUSH0 DUP3 ADD MSTORE POP JUMP JUMPDEST PUSH0 PUSH2 0x79B PUSH1 0x1A DUP4 PUSH2 0x687 JUMP JUMPDEST SWAP2 POP PUSH2 0x7A6 DUP3 PUSH2 0x767 JUMP JUMPDEST PUSH1 0x20 DUP3 ADD SWAP1 POP SWAP2 SWAP1 POP JUMP JUMPDEST PUSH0 PUSH1 0x20 DUP3 ADD SWAP1 POP DUP2 DUP2 SUB PUSH0 DUP4 ADD MSTORE PUSH2 0x7C8 DUP2 PUSH2 0x78F JUMP JUMPDEST SWAP1 POP SWAP2 SWAP1 POP JUMP JUMPDEST PUSH32 0x4D6178207374616B65206D757374206265203E20300000000000000000000000 PUSH0 DUP3 ADD MSTORE POP JUMP JUMPDEST PUSH0 PUSH2 0x803 PUSH1 0x15 DUP4 PUSH2 0x687 JUMP JUMPDEST SWAP2 POP PUSH2 0x80E DUP3 PUSH2 0x7CF JUMP JUMPDEST PUSH1 0x20 DUP3 ADD SWAP1 POP SWAP2 SWAP1 POP JUMP JUMPDEST PUSH0 PUSH1 0x20 DUP3 ADD SWAP1 POP DUP2 DUP2 SUB PUSH0 DUP4 ADD MSTORE PUSH2 0x830 DUP2 PUSH2 0x7F7 JUMP JUMPDEST SWAP1 POP SWAP2 SWAP1 POP JUMP JUMPDEST PUSH32 0x496E76616C6964206D696E207374616B65000000000000000000000000000000 PUSH0 DUP3 ADD MSTORE POP JUMP JUMPDEST PUSH0 PUSH2 0x86B PUSH1 0x11 DUP4 PUSH2 0x687 JUMP JUMPDEST SWAP2 POP PUSH2 0x876 DUP3 PUSH2 0x837 JUMP JUMPDEST PUSH1 0x20 DUP3 ADD SWAP1 POP SWAP2 SWAP1 POP JUMP JUMPDEST PUSH0 PUSH1 0x20 DUP3 ADD SWAP1 POP DUP2 DUP2 SUB PUSH0 DUP4 ADD MSTORE PUSH2 0x898 DUP2 PUSH2 0x85F JUMP JUMPDEST SWAP1 POP SWAP2 SWAP1 POP JUMP JUMPDEST PUSH0 DUP2 MLOAD SWAP1 POP SWAP2 SWAP1 POP JUMP JUMPDEST PUSH0 DUP2 SWAP1 POP SWAP3 SWAP2 POP POP JUMP JUMPDEST DUP3 DUP2 DUP4 MCOPY PUSH0 DUP4 DUP4 ADD MSTORE POP POP POP JUMP JUMPDEST PUSH0 PUSH2 0x8CB DUP3 PUSH2 0x89F JUMP JUMPDEST PUSH2 0x8D5 DUP2 DUP6 PUSH2 0x8A9 JUMP JUMPDEST SWAP4 POP PUSH2 0x8E5 DUP2 DUP6 PUSH1 0x20 DUP7 ADD PUSH2 0x8B3 JUMP JUMPDEST DUP1 DUP5 ADD SWAP2 POP POP SWAP3 SWAP2 POP POP JUMP JUMPDEST PUSH0 PUSH2 0x8FC DUP3 DUP5 PUSH2 0x8C1 JUMP JUMPDEST SWAP2 POP DUP2 SWAP1 POP SWAP3 SWAP2 POP POP JUMP JUMPDEST PUSH32 0x4661696C656420746F2067657420646563696D616C7300000000000000000000 PUSH0 DUP3 ADD MSTORE POP JUMP JUMPDEST PUSH0 PUSH2 0x93B PUSH1 0x16 DUP4 PUSH2 0x687 JUMP JUMPDEST SWAP2 POP PUSH2 0x946 DUP3 PUSH2 0x907 JUMP JUMPDEST PUSH1 0x20 DUP3 ADD SWAP1 POP SWAP2 SWAP1 POP JUMP JUMPDEST PUSH0 PUSH1 0x20 DUP3 ADD SWAP1 POP DUP2 DUP2 SUB PUSH0 DUP4 ADD MSTORE PUSH2 0x968 DUP2 PUSH2 0x92F JUMP JUMPDEST SWAP1 POP SWAP2 SWAP1 POP JUMP JUMPDEST PUSH0 PUSH1 0xFF DUP3 AND SWAP1 POP SWAP2 SWAP1 POP JUMP JUMPDEST PUSH2 0x984 DUP2 PUSH2 0x96F JUMP JUMPDEST DUP2 EQ PUSH2 0x98E JUMPI PUSH0 PUSH0 REVERT JUMPDEST POP JUMP JUMPDEST PUSH0 DUP2 MLOAD SWAP1 POP PUSH2 0x99F DUP2 PUSH2 0x97B JUMP JUMPDEST SWAP3 SWAP2 POP POP JUMP JUMPDEST PUSH0 PUSH1 0x20 DUP3 DUP5 SUB SLT ISZERO PUSH2 0x9BA JUMPI PUSH2 0x9B9 PUSH2 0x557 JUMP JUMPDEST JUMPDEST PUSH0 PUSH2 0x9C7 DUP5 DUP3 DUP6 ADD PUSH2 0x991 JUMP JUMPDEST SWAP2 POP POP SWAP3 SWAP2 POP POP JUMP JUMPDEST PUSH1 0x80 MLOAD PUSH1 0xA0 MLOAD PUSH1 0xC0 MLOAD PUSH1 0xE0 MLOAD PUSH2 0x1CEA PUSH2 0xA2D PUSH0 CODECOPY PUSH0 DUP2 DUP2 PUSH2 0xC32 ADD MSTORE PUSH2 0xD4E ADD MSTORE PUSH0 DUP2 DUP2 PUSH2 0x97D ADD MSTORE PUSH2 0xD01 ADD MSTORE PUSH0 DUP2 DUP2 PUSH2 0x6CC ADD MSTORE DUP2 DUP2 PUSH2 0x7AA ADD MSTORE PUSH2 0xE31 ADD MSTORE PUSH0 DUP2 DUP2 PUSH2 0x48C ADD MSTORE DUP2 DUP2 PUSH2 0x67D ADD MSTORE PUSH2 0xB8F ADD MSTORE PUSH2 0x1CEA PUSH0 RETURN INVALID PUSH1 0x80 PUSH1 0x40 MSTORE CALLVALUE DUP1 ISZERO PUSH2 0xF JUMPI PUSH0 PUSH0 REVERT JUMPDEST POP PUSH1 0x4 CALLDATASIZE LT PUSH2 0x140 JUMPI PUSH0 CALLDATALOAD PUSH1 0xE0 SHR DUP1 PUSH4 0x8DFB2DBC GT PUSH2 0xB6 JUMPI DUP1 PUSH4 0xD82E3962 GT PUSH2 0x7A JUMPI DUP1 PUSH4 0xD82E3962 EQ PUSH2 0x33C JUMPI DUP1 PUSH4 0xEA1B28E0 EQ PUSH2 0x36C JUMPI DUP1 PUSH4 0xF1CDDD55 EQ PUSH2 0x38A JUMPI DUP1 PUSH4 0xF2FDE38B EQ PUSH2 0x3A6 JUMPI DUP1 PUSH4 0xF7C618C1 EQ PUSH2 0x3C2 JUMPI DUP1 PUSH4 0xF908DC13 EQ PUSH2 0x3E0 JUMPI PUSH2 0x140 JUMP JUMPDEST DUP1 PUSH4 0x8DFB2DBC EQ PUSH2 0x298 JUMPI DUP1 PUSH4 0x9AAE43F5 EQ PUSH2 0x2C8 JUMPI DUP1 PUSH4 0xA694FC3A EQ PUSH2 0x2E6 JUMPI DUP1 PUSH4 0xB60F75D8 EQ PUSH2 0x302 JUMPI DUP1 PUSH4 0xCD5692EE EQ PUSH2 0x320 JUMPI PUSH2 0x140 JUMP JUMPDEST DUP1 PUSH4 0x3CCFD60B GT PUSH2 0x108 JUMPI DUP1 PUSH4 0x3CCFD60B EQ PUSH2 0x1FC JUMPI DUP1 PUSH4 0x40F02AB6 EQ PUSH2 0x206 JUMPI DUP1 PUSH4 0x6747DD0E EQ PUSH2 0x224 JUMPI DUP1 PUSH4 0x70A08231 EQ PUSH2 0x240 JUMPI DUP1 PUSH4 0x715018A6 EQ PUSH2 0x270 JUMPI DUP1 PUSH4 0x8DA5CB5B EQ PUSH2 0x27A JUMPI PUSH2 0x140 JUMP JUMPDEST DUP1 PUSH4 0x16934FC4 EQ PUSH2 0x144 JUMPI DUP1 PUSH4 0x23DCDB89 EQ PUSH2 0x174 JUMPI DUP1 PUSH4 0x240BE944 EQ PUSH2 0x190 JUMPI DUP1 PUSH4 0x292A6B19 EQ PUSH2 0x1C0 JUMPI DUP1 PUSH4 0x375B3C0A EQ PUSH2 0x1DE JUMPI JUMPDEST PUSH0 PUSH0 REVERT JUMPDEST PUSH2 0x15E PUSH1 0x4 DUP1 CALLDATASIZE SUB DUP2 ADD SWAP1 PUSH2 0x159 SWAP2 SWAP1 PUSH2 0x1281 JUMP JUMPDEST PUSH2 0x3FE JUMP JUMPDEST PUSH1 0x40 MLOAD PUSH2 0x16B SWAP2 SWAP1 PUSH2 0x12C4 JUMP JUMPDEST PUSH1 0x40 MLOAD DUP1 SWAP2 SUB SWAP1 RETURN JUMPDEST PUSH2 0x18E PUSH1 0x4 DUP1 CALLDATASIZE SUB DUP2 ADD SWAP1 PUSH2 0x189 SWAP2 SWAP1 PUSH2 0x1307 JUMP JUMPDEST PUSH2 0x413 JUMP JUMPDEST STOP JUMPDEST PUSH2 0x1AA PUSH1 0x4 DUP1 CALLDATASIZE SUB DUP2 ADD SWAP1 PUSH2 0x1A5 SWAP2 SWAP1 PUSH2 0x1281 JUMP JUMPDEST PUSH2 0x475 JUMP JUMPDEST PUSH1 0x40 MLOAD PUSH2 0x1B7 SWAP2 SWAP1 PUSH2 0x12C4 JUMP JUMPDEST PUSH1 0x40 MLOAD DUP1 SWAP2 SUB SWAP1 RETURN JUMPDEST PUSH2 0x1C8 PUSH2 0x48A JUMP JUMPDEST PUSH1 0x40 MLOAD PUSH2 0x1D5 SWAP2 SWAP1 PUSH2 0x138D JUMP JUMPDEST PUSH1 0x40 MLOAD DUP1 SWAP2 SUB SWAP1 RETURN JUMPDEST PUSH2 0x1E6 PUSH2 0x4AE JUMP JUMPDEST PUSH1 0x40 MLOAD PUSH2 0x1F3 SWAP2 SWAP1 PUSH2 0x12C4 JUMP JUMPDEST PUSH1 0x40 MLOAD DUP1 SWAP2 SUB SWAP1 RETURN JUMPDEST PUSH2 0x204 PUSH2 0x4B4 JUMP JUMPDEST STOP JUMPDEST PUSH2 0x20E PUSH2 0x84E JUMP JUMPDEST PUSH1 0x40 MLOAD PUSH2 0x21B SWAP2 SWAP1 PUSH2 0x12C4 JUMP JUMPDEST PUSH1 0x40 MLOAD DUP1 SWAP2 SUB SWAP1 RETURN JUMPDEST PUSH2 0x23E PUSH1 0x4 DUP1 CALLDATASIZE SUB DUP2 ADD SWAP1 PUSH2 0x239 SWAP2 SWAP1 PUSH2 0x1307 JUMP JUMPDEST PUSH2 0x854 JUMP JUMPDEST STOP JUMPDEST PUSH2 0x25A PUSH1 0x4 DUP1 CALLDATASIZE SUB DUP2 ADD SWAP1 PUSH2 0x255 SWAP2 SWAP1 PUSH2 0x1281 JUMP JUMPDEST PUSH2 0x8A8 JUMP JUMPDEST PUSH1 0x40 MLOAD PUSH2 0x267 SWAP2 SWAP1 PUSH2 0x12C4 JUMP JUMPDEST PUSH1 0x40 MLOAD DUP1 SWAP2 SUB SWAP1 RETURN JUMPDEST PUSH2 0x278 PUSH2 0x8EE JUMP JUMPDEST STOP JUMPDEST PUSH2 0x282 PUSH2 0x901 JUMP JUMPDEST PUSH1 0x40 MLOAD PUSH2 0x28F SWAP2 SWAP1 PUSH2 0x13B5 JUMP JUMPDEST PUSH1 0x40 MLOAD DUP1 SWAP2 SUB SWAP1 RETURN JUMPDEST PUSH2 0x2B2 PUSH1 0x4 DUP1 CALLDATASIZE SUB DUP2 ADD SWAP1 PUSH2 0x2AD SWAP2 SWAP1 PUSH2 0x1281 JUMP JUMPDEST PUSH2 0x928 JUMP JUMPDEST PUSH1 0x40 MLOAD PUSH2 0x2BF SWAP2 SWAP1 PUSH2 0x12C4 JUMP JUMPDEST PUSH1 0x40 MLOAD DUP1 SWAP2 SUB SWAP1 RETURN JUMPDEST PUSH2 0x2D0 PUSH2 0x97B JUMP JUMPDEST PUSH1 0x40 MLOAD PUSH2 0x2DD SWAP2 SWAP1 PUSH2 0x13E9 JUMP JUMPDEST PUSH1 0x40 MLOAD DUP1 SWAP2 SUB SWAP1 RETURN JUMPDEST PUSH2 0x300 PUSH1 0x4 DUP1 CALLDATASIZE SUB DUP2 ADD SWAP1 PUSH2 0x2FB SWAP2 SWAP1 PUSH2 0x1307 JUMP JUMPDEST PUSH2 0x99F JUMP JUMPDEST STOP JUMPDEST PUSH2 0x30A PUSH2 0xC30 JUMP JUMPDEST PUSH1 0x40 MLOAD PUSH2 0x317 SWAP2 SWAP1 PUSH2 0x13E9 JUMP JUMPDEST PUSH1 0x40 MLOAD DUP1 SWAP2 SUB SWAP1 RETURN JUMPDEST PUSH2 0x33A PUSH1 0x4 DUP1 CALLDATASIZE SUB DUP2 ADD SWAP1 PUSH2 0x335 SWAP2 SWAP1 PUSH2 0x1307 JUMP JUMPDEST PUSH2 0xC54 JUMP JUMPDEST STOP JUMPDEST PUSH2 0x356 PUSH1 0x4 DUP1 CALLDATASIZE SUB DUP2 ADD SWAP1 PUSH2 0x351 SWAP2 SWAP1 PUSH2 0x1281 JUMP JUMPDEST PUSH2 0xCA8 JUMP JUMPDEST PUSH1 0x40 MLOAD PUSH2 0x363 SWAP2 SWAP1 PUSH2 0x12C4 JUMP JUMPDEST PUSH1 0x40 MLOAD DUP1 SWAP2 SUB SWAP1 RETURN JUMPDEST PUSH2 0x374 PUSH2 0xD81 JUMP JUMPDEST PUSH1 0x40 MLOAD PUSH2 0x381 SWAP2 SWAP1 PUSH2 0x12C4 JUMP JUMPDEST PUSH1 0x40 MLOAD DUP1 SWAP2 SUB SWAP1 RETURN JUMPDEST PUSH2 0x3A4 PUSH1 0x4 DUP1 CALLDATASIZE SUB DUP2 ADD SWAP1 PUSH2 0x39F SWAP2 SWAP1 PUSH2 0x1437 JUMP JUMPDEST PUSH2 0xD87 JUMP JUMPDEST STOP JUMPDEST PUSH2 0x3C0 PUSH1 0x4 DUP1 CALLDATASIZE SUB DUP2 ADD SWAP1 PUSH2 0x3BB SWAP2 SWAP1 PUSH2 0x1281 JUMP JUMPDEST PUSH2 0xDAB JUMP JUMPDEST STOP JUMPDEST PUSH2 0x3CA PUSH2 0xE2F JUMP JUMPDEST PUSH1 0x40 MLOAD PUSH2 0x3D7 SWAP2 SWAP1 PUSH2 0x138D JUMP JUMPDEST PUSH1 0x40 MLOAD DUP1 SWAP2 SUB SWAP1 RETURN JUMPDEST PUSH2 0x3E8 PUSH2 0xE53 JUMP JUMPDEST PUSH1 0x40 MLOAD PUSH2 0x3F5 SWAP2 SWAP1 PUSH2 0x1471 JUMP JUMPDEST PUSH1 0x40 MLOAD DUP1 SWAP2 SUB SWAP1 RETURN JUMPDEST PUSH1 0x2 PUSH1 0x20 MSTORE DUP1 PUSH0 MSTORE PUSH1 0x40 PUSH0 KECCAK256 PUSH0 SWAP2 POP SWAP1 POP SLOAD DUP2 JUMP JUMPDEST PUSH2 0x41B PUSH2 0xE65 JUMP JUMPDEST PUSH0 DUP2 GT DUP1 ISZERO PUSH2 0x42C JUMPI POP PUSH1 0x5 SLOAD DUP2 GT ISZERO JUMPDEST PUSH2 0x46B JUMPI PUSH1 0x40 MLOAD PUSH32 0x8C379A000000000000000000000000000000000000000000000000000000000 DUP2 MSTORE PUSH1 0x4 ADD PUSH2 0x462 SWAP1 PUSH2 0x14E4 JUMP JUMPDEST PUSH1 0x40 MLOAD DUP1 SWAP2 SUB SWAP1 REVERT JUMPDEST DUP1 PUSH1 0x6 DUP2 SWAP1 SSTORE POP POP JUMP JUMPDEST PUSH1 0x3 PUSH1 0x20 MSTORE DUP1 PUSH0 MSTORE PUSH1 0x40 PUSH0 KECCAK256 PUSH0 SWAP2 POP SWAP1 POP SLOAD DUP2 JUMP JUMPDEST PUSH32 0x0 DUP2 JUMP JUMPDEST PUSH1 0x6 SLOAD DUP2 JUMP JUMPDEST PUSH2 0x4BC PUSH2 0xEEC JUMP JUMPDEST PUSH0 CALLER SWAP1 POP PUSH0 PUSH1 0x2 PUSH0 DUP4 PUSH20 0xFFFFFFFFFFFFFFFFFFFFFFFFFFFFFFFFFFFFFFFF AND PUSH20 0xFFFFFFFFFFFFFFFFFFFFFFFFFFFFFFFFFFFFFFFF AND DUP2 MSTORE PUSH1 0x20 ADD SWAP1 DUP2 MSTORE PUSH1 0x20 ADD PUSH0 KECCAK256 SLOAD SWAP1 POP PUSH0 DUP2 GT PUSH2 0x543 JUMPI PUSH1 0x40 MLOAD PUSH32 0x8C379A000000000000000000000000000000000000000000000000000000000 DUP2 MSTORE PUSH1 0x4 ADD PUSH2 0x53A SWAP1 PUSH2 0x154C JUMP JUMPDEST PUSH1 0x40 MLOAD DUP1 SWAP2 SUB SWAP1 REVERT JUMPDEST PUSH1 0x7 PUSH0 SWAP1 SLOAD SWAP1 PUSH2 0x100 EXP SWAP1 DIV PUSH1 0xFF AND DUP1 PUSH2 0x5A7 JUMPI POP PUSH1 0x4 SLOAD PUSH1 0x3 PUSH0 DUP5 PUSH20 0xFFFFFFFFFFFFFFFFFFFFFFFFFFFFFFFFFFFFFFFF AND PUSH20 0xFFFFFFFFFFFFFFFFFFFFFFFFFFFFFFFFFFFFFFFF AND DUP2 MSTORE PUSH1 0x20 ADD SWAP1 DUP2 MSTORE PUSH1 0x20 ADD PUSH0 KECCAK256 SLOAD PUSH2 0x5A3 SWAP2 SWAP1 PUSH2 0x1597 JUMP JUMPDEST TIMESTAMP LT ISZERO JUMPDEST PUSH2 0x5E6 JUMPI PUSH1 0x40 MLOAD PUSH32 0x8C379A000000000000000000000000000000000000000000000000000000000 DUP2 MSTORE PUSH1 0x4 ADD PUSH2 0x5DD SWAP1 PUSH2 0x1614 JUMP JUMPDEST PUSH1 0x40 MLOAD DUP1 SWAP2 SUB SWAP1 REVERT JUMPDEST PUSH0 PUSH2 0x5F0 DUP4 PUSH2 0xCA8 JUMP JUMPDEST SWAP1 POP PUSH0 PUSH1 0x2 PUSH0 DUP6 PUSH20 0xFFFFFFFFFFFFFFFFFFFFFFFFFFFFFFFFFFFFFFFF AND PUSH20 0xFFFFFFFFFFFFFFFFFFFFFFFFFFFFFFFFFFFFFFFF AND DUP2 MSTORE PUSH1 0x20 ADD SWAP1 DUP2 MSTORE PUSH1 0x20 ADD PUSH0 KECCAK256 DUP2 SWAP1 SSTORE POP PUSH0 PUSH1 0x3 PUSH0 DUP6 PUSH20 0xFFFFFFFFFFFFFFFFFFFFFFFFFFFFFFFFFFFFFFFF AND PUSH20 0xFFFFFFFFFFFFFFFFFFFFFFFFFFFFFFFFFFFFFFFF AND DUP2 MSTORE PUSH1 0x20 ADD SWAP1 DUP2 MSTORE PUSH1 0x20 ADD PUSH0 KECCAK256 DUP2 SWAP1 SSTORE POP PUSH2 0x6C1 DUP4 DUP4 PUSH32 0x0 PUSH20 0xFFFFFFFFFFFFFFFFFFFFFFFFFFFFFFFFFFFFFFFF AND PUSH2 0xF3B SWAP1 SWAP3 SWAP2 SWAP1 PUSH4 0xFFFFFFFF AND JUMP JUMPDEST PUSH0 DUP2 GT ISZERO PUSH2 0x7EF JUMPI DUP1 PUSH32 0x0 PUSH20 0xFFFFFFFFFFFFFFFFFFFFFFFFFFFFFFFFFFFFFFFF AND PUSH4 0x70A08231 ADDRESS PUSH1 0x40 MLOAD DUP3 PUSH4 0xFFFFFFFF AND PUSH1 0xE0 SHL DUP2 MSTORE PUSH1 0x4 ADD PUSH2 0x723 SWAP2 SWAP1 PUSH2 0x13B5 JUMP JUMPDEST PUSH1 0x20 PUSH1 0x40 MLOAD DUP1 DUP4 SUB DUP2 DUP7 GAS STATICCALL ISZERO DUP1 ISZERO PUSH2 0x73E JUMPI RETURNDATASIZE PUSH0 PUSH0 RETURNDATACOPY RETURNDATASIZE PUSH0 REVERT JUMPDEST POP POP POP POP PUSH1 0x40 MLOAD RETURNDATASIZE PUSH1 0x1F NOT PUSH1 0x1F DUP3 ADD AND DUP3 ADD DUP1 PUSH1 0x40 MSTORE POP DUP2 ADD SWAP1 PUSH2 0x762 SWAP2 SWAP1 PUSH2 0x1646 JUMP JUMPDEST LT ISZERO PUSH2 0x7A3 JUMPI PUSH1 0x40 MLOAD PUSH32 0x8C379A000000000000000000000000000000000000000000000000000000000 DUP2 MSTORE PUSH1 0x4 ADD PUSH2 0x79A SWAP1 PUSH2 0x16BB JUMP JUMPDEST PUSH1 0x40 MLOAD DUP1 SWAP2 SUB SWAP1 REVERT JUMPDEST PUSH2 0x7EE DUP4 DUP3 PUSH32 0x0 PUSH20 0xFFFFFFFFFFFFFFFFFFFFFFFFFFFFFFFFFFFFFFFF AND PUSH2 0xF3B SWAP1 SWAP3 SWAP2 SWAP1 PUSH4 0xFFFFFFFF AND JUMP JUMPDEST JUMPDEST DUP3 PUSH20 0xFFFFFFFFFFFFFFFFFFFFFFFFFFFFFFFFFFFFFFFF AND PUSH32 0x75E161B3E824B114FC1A33274BD7091918DD4E639CEDE50B78B15A4EEA956A21 DUP4 DUP4 TIMESTAMP PUSH1 0x40 MLOAD PUSH2 0x839 SWAP4 SWAP3 SWAP2 SWAP1 PUSH2 0x16D9 JUMP JUMPDEST PUSH1 0x40 MLOAD DUP1 SWAP2 SUB SWAP1 LOG2 POP POP POP PUSH2 0x84C PUSH2 0xFBA JUMP JUMPDEST JUMP JUMPDEST PUSH1 0x4 SLOAD DUP2 JUMP JUMPDEST PUSH2 0x85C PUSH2 0xE65 JUMP JUMPDEST PUSH0 DUP2 GT PUSH2 0x89E JUMPI PUSH1 0x40 MLOAD PUSH32 0x8C379A000000000000000000000000000000000000000000000000000000000 DUP2 MSTORE PUSH1 0x4 ADD PUSH2 0x895 SWAP1 PUSH2 0x1758 JUMP JUMPDEST PUSH1 0x40 MLOAD DUP1 SWAP2 SUB SWAP1 REVERT JUMPDEST DUP1 PUSH1 0x4 DUP2 SWAP1 SSTORE POP POP JUMP JUMPDEST PUSH0 PUSH1 0x2 PUSH0 DUP4 PUSH20 0xFFFFFFFFFFFFFFFFFFFFFFFFFFFFFFFFFFFFFFFF AND PUSH20 0xFFFFFFFFFFFFFFFFFFFFFFFFFFFFFFFFFFFFFFFF AND DUP2 MSTORE PUSH1 0x20 ADD SWAP1 DUP2 MSTORE PUSH1 0x20 ADD PUSH0 KECCAK256 SLOAD SWAP1 POP SWAP2 SWAP1 POP JUMP JUMPDEST PUSH2 0x8F6 PUSH2 0xE65 JUMP JUMPDEST PUSH2 0x8FF PUSH0 PUSH2 0xFC3 JUMP JUMPDEST JUMP JUMPDEST PUSH0 PUSH0 PUSH0 SWAP1 SLOAD SWAP1 PUSH2 0x100 EXP SWAP1 DIV PUSH20 0xFFFFFFFFFFFFFFFFFFFFFFFFFFFFFFFFFFFFFFFF AND SWAP1 POP SWAP1 JUMP JUMPDEST PUSH0 PUSH1 0x4 SLOAD PUSH1 0x3 PUSH0 DUP5 PUSH20 0xFFFFFFFFFFFFFFFFFFFFFFFFFFFFFFFFFFFFFFFF AND PUSH20 0xFFFFFFFFFFFFFFFFFFFFFFFFFFFFFFFFFFFFFFFF AND DUP2 MSTORE PUSH1 0x20 ADD SWAP1 DUP2 MSTORE PUSH1 0x20 ADD PUSH0 KECCAK256 SLOAD PUSH2 0x974 SWAP2 SWAP1 PUSH2 0x1597 JUMP JUMPDEST SWAP1 POP SWAP2 SWAP1 POP JUMP JUMPDEST PUSH32 0x0 DUP2 JUMP JUMPDEST PUSH2 0x9A7 PUSH2 0xEEC JUMP JUMPDEST PUSH0 CALLER SWAP1 POP PUSH0 PUSH1 0x2 PUSH0 DUP4 PUSH20 0xFFFFFFFFFFFFFFFFFFFFFFFFFFFFFFFFFFFFFFFF AND PUSH20 0xFFFFFFFFFFFFFFFFFFFFFFFFFFFFFFFFFFFFFFFF AND DUP2 MSTORE PUSH1 0x20 ADD SWAP1 DUP2 MSTORE PUSH1 0x20 ADD PUSH0 KECCAK256 SLOAD EQ PUSH2 0xA2A JUMPI PUSH1 0x40 MLOAD PUSH32 0x8C379A000000000000000000000000000000000000000000000000000000000 DUP2 MSTORE PUSH1 0x4 ADD PUSH2 0xA21 SWAP1 PUSH2 0x17C0 JUMP JUMPDEST PUSH1 0x40 MLOAD DUP1 SWAP2 SUB SWAP1 REVERT JUMPDEST PUSH1 0x6 SLOAD DUP3 LT ISZERO PUSH2 0xA6F JUMPI PUSH1 0x40 MLOAD PUSH32 0x8C379A000000000000000000000000000000000000000000000000000000000 DUP2 MSTORE PUSH1 0x4 ADD PUSH2 0xA66 SWAP1 PUSH2 0x1828 JUMP JUMPDEST PUSH1 0x40 MLOAD DUP1 SWAP2 SUB SWAP1 REVERT JUMPDEST PUSH1 0x5 SLOAD DUP3 GT ISZERO PUSH2 0xAB4 JUMPI PUSH1 0x40 MLOAD PUSH32 0x8C379A000000000000000000000000000000000000000000000000000000000 DUP2 MSTORE PUSH1 0x4 ADD PUSH2 0xAAB SWAP1 PUSH2 0x1890 JUMP JUMPDEST PUSH1 0x40 MLOAD DUP1 SWAP2 SUB SWAP1 REVERT JUMPDEST PUSH1 0x7 PUSH0 SWAP1 SLOAD SWAP1 PUSH2 0x100 EXP SWAP1 DIV PUSH1 0xFF AND ISZERO PUSH2 0xB03 JUMPI PUSH1 0x40 MLOAD PUSH32 0x8C379A000000000000000000000000000000000000000000000000000000000 DUP2 MSTORE PUSH1 0x4 ADD PUSH2 0xAFA SWAP1 PUSH2 0x18F8 JUMP JUMPDEST PUSH1 0x40 MLOAD DUP1 SWAP2 SUB SWAP1 REVERT JUMPDEST DUP2 PUSH1 0x2 PUSH0 DUP4 PUSH20 0xFFFFFFFFFFFFFFFFFFFFFFFFFFFFFFFFFFFFFFFF AND PUSH20 0xFFFFFFFFFFFFFFFFFFFFFFFFFFFFFFFFFFFFFFFF AND DUP2 MSTORE PUSH1 0x20 ADD SWAP1 DUP2 MSTORE PUSH1 0x20 ADD PUSH0 KECCAK256 DUP2 SWAP1 SSTORE POP TIMESTAMP PUSH1 0x3 PUSH0 DUP4 PUSH20 0xFFFFFFFFFFFFFFFFFFFFFFFFFFFFFFFFFFFFFFFF AND PUSH20 0xFFFFFFFFFFFFFFFFFFFFFFFFFFFFFFFFFFFFFFFF AND DUP2 MSTORE PUSH1 0x20 ADD SWAP1 DUP2 MSTORE PUSH1 0x20 ADD PUSH0 KECCAK256 DUP2 SWAP1 SSTORE POP PUSH2 0xBD4 DUP2 ADDRESS DUP5 PUSH32 0x0 PUSH20 0xFFFFFFFFFFFFFFFFFFFFFFFFFFFFFFFFFFFFFFFF AND PUSH2 0x1084 SWAP1 SWAP4 SWAP3 SWAP2 SWAP1 PUSH4 0xFFFFFFFF AND JUMP JUMPDEST DUP1 PUSH20 0xFFFFFFFFFFFFFFFFFFFFFFFFFFFFFFFFFFFFFFFF AND PUSH32 0x1449C6DD7851ABC30ABF37F57715F492010519147CC2652FBC38202C18A6EE90 DUP4 TIMESTAMP PUSH1 0x40 MLOAD PUSH2 0xC1C SWAP3 SWAP2 SWAP1 PUSH2 0x1916 JUMP JUMPDEST PUSH1 0x40 MLOAD DUP1 SWAP2 SUB SWAP1 LOG2 POP PUSH2 0xC2D PUSH2 0xFBA JUMP JUMPDEST POP JUMP JUMPDEST PUSH32 0x0 DUP2 JUMP JUMPDEST PUSH2 0xC5C PUSH2 0xE65 JUMP JUMPDEST PUSH0 DUP2 GT PUSH2 0xC9E JUMPI PUSH1 0x40 MLOAD PUSH32 0x8C379A000000000000000000000000000000000000000000000000000000000 DUP2 MSTORE PUSH1 0x4 ADD PUSH2 0xC95 SWAP1 PUSH2 0x1987 JUMP JUMPDEST PUSH1 0x40 MLOAD DUP1 SWAP2 SUB SWAP1 REVERT JUMPDEST DUP1 PUSH1 0x5 DUP2 SWAP1 SSTORE POP POP JUMP JUMPDEST PUSH0 PUSH0 PUSH1 0x2 PUSH0 DUP5 PUSH20 0xFFFFFFFFFFFFFFFFFFFFFFFFFFFFFFFFFFFFFFFF AND PUSH20 0xFFFFFFFFFFFFFFFFFFFFFFFFFFFFFFFFFFFFFFFF AND DUP2 MSTORE PUSH1 0x20 ADD SWAP1 DUP2 MSTORE PUSH1 0x20 ADD PUSH0 KECCAK256 SLOAD SWAP1 POP PUSH0 DUP2 SUB PUSH2 0xCFA JUMPI PUSH0 SWAP2 POP POP PUSH2 0xD7C JUMP JUMPDEST PUSH0 PUSH2 0xD27 DUP3 PUSH32 0x0 PUSH1 0x12 PUSH2 0x1106 JUMP JUMPDEST SWAP1 POP PUSH0 PUSH1 0x64 PUSH1 0x5 DUP4 PUSH2 0xD39 SWAP2 SWAP1 PUSH2 0x19A5 JUMP JUMPDEST PUSH2 0xD43 SWAP2 SWAP1 PUSH2 0x1A13 JUMP JUMPDEST SWAP1 POP PUSH0 PUSH2 0xD72 DUP3 PUSH1 0x12 PUSH32 0x0 PUSH2 0x1106 JUMP JUMPDEST SWAP1 POP DUP1 SWAP5 POP POP POP POP POP JUMPDEST SWAP2 SWAP1 POP JUMP JUMPDEST PUSH1 0x5 SLOAD DUP2 JUMP JUMPDEST PUSH2 0xD8F PUSH2 0xE65 JUMP JUMPDEST DUP1 PUSH1 0x7 PUSH0 PUSH2 0x100 EXP DUP2 SLOAD DUP2 PUSH1 0xFF MUL NOT AND SWAP1 DUP4 ISZERO ISZERO MUL OR SWAP1 SSTORE POP POP JUMP JUMPDEST PUSH2 0xDB3 PUSH2 0xE65 JUMP JUMPDEST PUSH0 PUSH20 0xFFFFFFFFFFFFFFFFFFFFFFFFFFFFFFFFFFFFFFFF AND DUP2 PUSH20 0xFFFFFFFFFFFFFFFFFFFFFFFFFFFFFFFFFFFFFFFF AND SUB PUSH2 0xE23 JUMPI PUSH0 PUSH1 0x40 MLOAD PUSH32 0x1E4FBDF700000000000000000000000000000000000000000000000000000000 DUP2 MSTORE PUSH1 0x4 ADD PUSH2 0xE1A SWAP2 SWAP1 PUSH2 0x13B5 JUMP JUMPDEST PUSH1 0x40 MLOAD DUP1 SWAP2 SUB SWAP1 REVERT JUMPDEST PUSH2 0xE2C DUP2 PUSH2 0xFC3 JUMP JUMPDEST POP JUMP JUMPDEST PUSH32 0x0 DUP2 JUMP JUMPDEST PUSH1 0x7 PUSH0 SWAP1 SLOAD SWAP1 PUSH2 0x100 EXP SWAP1 DIV PUSH1 0xFF AND DUP2 JUMP JUMPDEST PUSH2 0xE6D PUSH2 0x1181 JUMP JUMPDEST PUSH20 0xFFFFFFFFFFFFFFFFFFFFFFFFFFFFFFFFFFFFFFFF AND PUSH2 0xE8B PUSH2 0x901 JUMP JUMPDEST PUSH20 0xFFFFFFFFFFFFFFFFFFFFFFFFFFFFFFFFFFFFFFFF AND EQ PUSH2 0xEEA JUMPI PUSH2 0xEAE PUSH2 0x1181 JUMP JUMPDEST PUSH1 0x40 MLOAD PUSH32 0x118CDAA700000000000000000000000000000000000000000000000000000000 DUP2 MSTORE PUSH1 0x4 ADD PUSH2 0xEE1 SWAP2 SWAP1 PUSH2 0x13B5 JUMP JUMPDEST PUSH1 0x40 MLOAD DUP1 SWAP2 SUB SWAP1 REVERT JUMPDEST JUMP JUMPDEST PUSH1 0x2 PUSH1 0x1 SLOAD SUB PUSH2 0xF31 JUMPI PUSH1 0x40 MLOAD PUSH32 0x8C379A000000000000000000000000000000000000000000000000000000000 DUP2 MSTORE PUSH1 0x4 ADD PUSH2 0xF28 SWAP1 PUSH2 0x1A8D JUMP JUMPDEST PUSH1 0x40 MLOAD DUP1 SWAP2 SUB SWAP1 REVERT JUMPDEST PUSH1 0x2 PUSH1 0x1 DUP2 SWAP1 SSTORE POP JUMP JUMPDEST PUSH2 0xFB5 DUP4 DUP5 PUSH20 0xFFFFFFFFFFFFFFFFFFFFFFFFFFFFFFFFFFFFFFFF AND PUSH4 0xA9059CBB DUP6 DUP6 PUSH1 0x40 MLOAD PUSH1 0x24 ADD PUSH2 0xF6E SWAP3 SWAP2 SWAP1 PUSH2 0x1AAB JUMP JUMPDEST PUSH1 0x40 MLOAD PUSH1 0x20 DUP2 DUP4 SUB SUB DUP2 MSTORE SWAP1 PUSH1 0x40 MSTORE SWAP2 POP PUSH1 0xE0 SHL PUSH1 0x20 DUP3 ADD DUP1 MLOAD PUSH28 0xFFFFFFFFFFFFFFFFFFFFFFFFFFFFFFFFFFFFFFFFFFFFFFFFFFFFFFFF DUP4 DUP2 DUP4 AND OR DUP4 MSTORE POP POP POP POP PUSH2 0x1188 JUMP JUMPDEST POP POP POP JUMP JUMPDEST PUSH1 0x1 DUP1 DUP2 SWAP1 SSTORE POP JUMP JUMPDEST PUSH0 PUSH0 PUSH0 SWAP1 SLOAD SWAP1 PUSH2 0x100 EXP SWAP1 DIV PUSH20 0xFFFFFFFFFFFFFFFFFFFFFFFFFFFFFFFFFFFFFFFF AND SWAP1 POP DUP2 PUSH0 PUSH0 PUSH2 0x100 EXP DUP2 SLOAD DUP2 PUSH20 0xFFFFFFFFFFFFFFFFFFFFFFFFFFFFFFFFFFFFFFFF MUL NOT AND SWAP1 DUP4 PUSH20 0xFFFFFFFFFFFFFFFFFFFFFFFFFFFFFFFFFFFFFFFF AND MUL OR SWAP1 SSTORE POP DUP2 PUSH20 0xFFFFFFFFFFFFFFFFFFFFFFFFFFFFFFFFFFFFFFFF AND DUP2 PUSH20 0xFFFFFFFFFFFFFFFFFFFFFFFFFFFFFFFFFFFFFFFF AND PUSH32 0x8BE0079C531659141344CD1FD0A4F28419497F9722A3DAAFE3B4186F6B6457E0 PUSH1 0x40 MLOAD PUSH1 0x40 MLOAD DUP1 SWAP2 SUB SWAP1 LOG3 POP POP JUMP JUMPDEST PUSH2 0x1100 DUP5 DUP6 PUSH20 0xFFFFFFFFFFFFFFFFFFFFFFFFFFFFFFFFFFFFFFFF AND PUSH4 0x23B872DD DUP7 DUP7 DUP7 PUSH1 0x40 MLOAD PUSH1 0x24 ADD PUSH2 0x10B9 SWAP4 SWAP3 SWAP2 SWAP1 PUSH2 0x1AD2 JUMP JUMPDEST PUSH1 0x40 MLOAD PUSH1 0x20 DUP2 DUP4 SUB SUB DUP2 MSTORE SWAP1 PUSH1 0x40 MSTORE SWAP2 POP PUSH1 0xE0 SHL PUSH1 0x20 DUP3 ADD DUP1 MLOAD PUSH28 0xFFFFFFFFFFFFFFFFFFFFFFFFFFFFFFFFFFFFFFFFFFFFFFFFFFFFFFFF DUP4 DUP2 DUP4 AND OR DUP4 MSTORE POP POP POP POP PUSH2 0x1188 JUMP JUMPDEST POP POP POP POP JUMP JUMPDEST PUSH0 DUP2 PUSH1 0xFF AND DUP4 PUSH1 0xFF AND SUB PUSH2 0x111C JUMPI DUP4 SWAP1 POP PUSH2 0x117A JUMP JUMPDEST DUP2 PUSH1 0xFF AND DUP4 PUSH1 0xFF AND GT ISZERO PUSH2 0x1154 JUMPI DUP2 DUP4 PUSH2 0x1136 SWAP2 SWAP1 PUSH2 0x1B07 JUMP JUMPDEST PUSH1 0xA PUSH2 0x1142 SWAP2 SWAP1 PUSH2 0x1C6A JUMP JUMPDEST DUP5 PUSH2 0x114D SWAP2 SWAP1 PUSH2 0x1A13 JUMP JUMPDEST SWAP1 POP PUSH2 0x117A JUMP JUMPDEST DUP3 DUP3 PUSH2 0x1160 SWAP2 SWAP1 PUSH2 0x1B07 JUMP JUMPDEST PUSH1 0xA PUSH2 0x116C SWAP2 SWAP1 PUSH2 0x1C6A JUMP JUMPDEST DUP5 PUSH2 0x1177 SWAP2 SWAP1 PUSH2 0x19A5 JUMP JUMPDEST SWAP1 POP JUMPDEST SWAP4 SWAP3 POP POP POP JUMP JUMPDEST PUSH0 CALLER SWAP1 POP SWAP1 JUMP JUMPDEST PUSH0 PUSH0 PUSH1 0x20 PUSH0 DUP5 MLOAD PUSH1 0x20 DUP7 ADD PUSH0 DUP9 GAS CALL DUP1 PUSH2 0x11A7 JUMPI PUSH1 0x40 MLOAD RETURNDATASIZE PUSH0 DUP3 RETURNDATACOPY RETURNDATASIZE DUP2 REVERT JUMPDEST RETURNDATASIZE SWAP3 POP PUSH0 MLOAD SWAP2 POP POP PUSH0 DUP3 EQ PUSH2 0x11C0 JUMPI PUSH1 0x1 DUP2 EQ ISZERO PUSH2 0x11DB JUMP JUMPDEST PUSH0 DUP5 PUSH20 0xFFFFFFFFFFFFFFFFFFFFFFFFFFFFFFFFFFFFFFFF AND EXTCODESIZE EQ JUMPDEST ISZERO PUSH2 0x121D JUMPI DUP4 PUSH1 0x40 MLOAD PUSH32 0x5274AFE700000000000000000000000000000000000000000000000000000000 DUP2 MSTORE PUSH1 0x4 ADD PUSH2 0x1214 SWAP2 SWAP1 PUSH2 0x13B5 JUMP JUMPDEST PUSH1 0x40 MLOAD DUP1 SWAP2 SUB SWAP1 REVERT JUMPDEST POP POP POP POP JUMP JUMPDEST PUSH0 PUSH0 REVERT JUMPDEST PUSH0 PUSH20 0xFFFFFFFFFFFFFFFFFFFFFFFFFFFFFFFFFFFFFFFF DUP3 AND SWAP1 POP SWAP2 SWAP1 POP JUMP JUMPDEST PUSH0 PUSH2 0x1250 DUP3 PUSH2 0x1227 JUMP JUMPDEST SWAP1 POP SWAP2 SWAP1 POP JUMP JUMPDEST PUSH2 0x1260 DUP2 PUSH2 0x1246 JUMP JUMPDEST DUP2 EQ PUSH2 0x126A JUMPI PUSH0 PUSH0 REVERT JUMPDEST POP JUMP JUMPDEST PUSH0 DUP2 CALLDATALOAD SWAP1 POP PUSH2 0x127B DUP2 PUSH2 0x1257 JUMP JUMPDEST SWAP3 SWAP2 POP POP JUMP JUMPDEST PUSH0 PUSH1 0x20 DUP3 DUP5 SUB SLT ISZERO PUSH2 0x1296 JUMPI PUSH2 0x1295 PUSH2 0x1223 JUMP JUMPDEST JUMPDEST PUSH0 PUSH2 0x12A3 DUP5 DUP3 DUP6 ADD PUSH2 0x126D JUMP JUMPDEST SWAP2 POP POP SWAP3 SWAP2 POP POP JUMP JUMPDEST PUSH0 DUP2 SWAP1 POP SWAP2 SWAP1 POP JUMP JUMPDEST PUSH2 0x12BE DUP2 PUSH2 0x12AC JUMP JUMPDEST DUP3 MSTORE POP POP JUMP JUMPDEST PUSH0 PUSH1 0x20 DUP3 ADD SWAP1 POP PUSH2 0x12D7 PUSH0 DUP4 ADD DUP5 PUSH2 0x12B5 JUMP JUMPDEST SWAP3 SWAP2 POP POP JUMP JUMPDEST PUSH2 0x12E6 DUP2 PUSH2 0x12AC JUMP JUMPDEST DUP2 EQ PUSH2 0x12F0 JUMPI PUSH0 PUSH0 REVERT JUMPDEST POP JUMP JUMPDEST PUSH0 DUP2 CALLDATALOAD SWAP1 POP PUSH2 0x1301 DUP2 PUSH2 0x12DD JUMP JUMPDEST SWAP3 SWAP2 POP POP JUMP JUMPDEST PUSH0 PUSH1 0x20 DUP3 DUP5 SUB SLT ISZERO PUSH2 0x131C JUMPI PUSH2 0x131B PUSH2 0x1223 JUMP JUMPDEST JUMPDEST PUSH0 PUSH2 0x1329 DUP5 DUP3 DUP6 ADD PUSH2 0x12F3 JUMP JUMPDEST SWAP2 POP POP SWAP3 SWAP2 POP POP JUMP JUMPDEST PUSH0 DUP2 SWAP1 POP SWAP2 SWAP1 POP JUMP JUMPDEST PUSH0 PUSH2 0x1355 PUSH2 0x1350 PUSH2 0x134B DUP5 PUSH2 0x1227 JUMP JUMPDEST PUSH2 0x1332 JUMP JUMPDEST PUSH2 0x1227 JUMP JUMPDEST SWAP1 POP SWAP2 SWAP1 POP JUMP JUMPDEST PUSH0 PUSH2 0x1366 DUP3 PUSH2 0x133B JUMP JUMPDEST SWAP1 POP SWAP2 SWAP1 POP JUMP JUMPDEST PUSH0 PUSH2 0x1377 DUP3 PUSH2 0x135C JUMP JUMPDEST SWAP1 POP SWAP2 SWAP1 POP JUMP JUMPDEST PUSH2 0x1387 DUP2 PUSH2 0x136D JUMP JUMPDEST DUP3 MSTORE POP POP JUMP JUMPDEST PUSH0 PUSH1 0x20 DUP3 ADD SWAP1 POP PUSH2 0x13A0 PUSH0 DUP4 ADD DUP5 PUSH2 0x137E JUMP JUMPDEST SWAP3 SWAP2 POP POP JUMP JUMPDEST PUSH2 0x13AF DUP2 PUSH2 0x1246 JUMP JUMPDEST DUP3 MSTORE POP POP JUMP JUMPDEST PUSH0 PUSH1 0x20 DUP3 ADD SWAP1 POP PUSH2 0x13C8 PUSH0 DUP4 ADD DUP5 PUSH2 0x13A6 JUMP JUMPDEST SWAP3 SWAP2 POP POP JUMP JUMPDEST PUSH0 PUSH1 0xFF DUP3 AND SWAP1 POP SWAP2 SWAP1 POP JUMP JUMPDEST PUSH2 0x13E3 DUP2 PUSH2 0x13CE JUMP JUMPDEST DUP3 MSTORE POP POP JUMP JUMPDEST PUSH0 PUSH1 0x20 DUP3 ADD SWAP1 POP PUSH2 0x13FC PUSH0 DUP4 ADD DUP5 PUSH2 0x13DA JUMP JUMPDEST SWAP3 SWAP2 POP POP JUMP JUMPDEST PUSH0 DUP2 ISZERO ISZERO SWAP1 POP SWAP2 SWAP1 POP JUMP JUMPDEST PUSH2 0x1416 DUP2 PUSH2 0x1402 JUMP JUMPDEST DUP2 EQ PUSH2 0x1420 JUMPI PUSH0 PUSH0 REVERT JUMPDEST POP JUMP JUMPDEST PUSH0 DUP2 CALLDATALOAD SWAP1 POP PUSH2 0x1431 DUP2 PUSH2 0x140D JUMP JUMPDEST SWAP3 SWAP2 POP POP JUMP JUMPDEST PUSH0 PUSH1 0x20 DUP3 DUP5 SUB SLT ISZERO PUSH2 0x144C JUMPI PUSH2 0x144B PUSH2 0x1223 JUMP JUMPDEST JUMPDEST PUSH0 PUSH2 0x1459 DUP5 DUP3 DUP6 ADD PUSH2 0x1423 JUMP JUMPDEST SWAP2 POP POP SWAP3 SWAP2 POP POP JUMP JUMPDEST PUSH2 0x146B DUP2 PUSH2 0x1402 JUMP JUMPDEST DUP3 MSTORE POP POP JUMP JUMPDEST PUSH0 PUSH1 0x20 DUP3 ADD SWAP1 POP PUSH2 0x1484 PUSH0 DUP4 ADD DUP5 PUSH2 0x1462 JUMP JUMPDEST SWAP3 SWAP2 POP POP JUMP JUMPDEST PUSH0 DUP3 DUP3 MSTORE PUSH1 0x20 DUP3 ADD SWAP1 POP SWAP3 SWAP2 POP POP JUMP JUMPDEST PUSH32 0x496E76616C6964206D696E207374616B65000000000000000000000000000000 PUSH0 DUP3 ADD MSTORE POP JUMP JUMPDEST PUSH0 PUSH2 0x14CE PUSH1 0x11 DUP4 PUSH2 0x148A JUMP JUMPDEST SWAP2 POP PUSH2 0x14D9 DUP3 PUSH2 0x149A JUMP JUMPDEST PUSH1 0x20 DUP3 ADD SWAP1 POP SWAP2 SWAP1 POP JUMP JUMPDEST PUSH0 PUSH1 0x20 DUP3 ADD SWAP1 POP DUP2 DUP2 SUB PUSH0 DUP4 ADD MSTORE PUSH2 0x14FB DUP2 PUSH2 0x14C2 JUMP JUMPDEST SWAP1 POP SWAP2 SWAP1 POP JUMP JUMPDEST PUSH32 0x4E6F207374616B6520666F756E64000000000000000000000000000000000000 PUSH0 DUP3 ADD MSTORE POP JUMP JUMPDEST PUSH0 PUSH2 0x1536 PUSH1 0xE DUP4 PUSH2 0x148A JUMP JUMPDEST SWAP2 POP PUSH2 0x1541 DUP3 PUSH2 0x1502 JUMP JUMPDEST PUSH1 0x20 DUP3 ADD SWAP1 POP SWAP2 SWAP1 POP JUMP JUMPDEST PUSH0 PUSH1 0x20 DUP3 ADD SWAP1 POP DUP2 DUP2 SUB PUSH0 DUP4 ADD MSTORE PUSH2 0x1563 DUP2 PUSH2 0x152A JUMP JUMPDEST SWAP1 POP SWAP2 SWAP1 POP JUMP JUMPDEST PUSH32 0x4E487B7100000000000000000000000000000000000000000000000000000000 PUSH0 MSTORE PUSH1 0x11 PUSH1 0x4 MSTORE PUSH1 0x24 PUSH0 REVERT JUMPDEST PUSH0 PUSH2 0x15A1 DUP3 PUSH2 0x12AC JUMP JUMPDEST SWAP2 POP PUSH2 0x15AC DUP4 PUSH2 0x12AC JUMP JUMPDEST SWAP3 POP DUP3 DUP3 ADD SWAP1 POP DUP1 DUP3 GT ISZERO PUSH2 0x15C4 JUMPI PUSH2 0x15C3 PUSH2 0x156A JUMP JUMPDEST JUMPDEST SWAP3 SWAP2 POP POP JUMP JUMPDEST PUSH32 0x5374616B65206C6F636B65640000000000000000000000000000000000000000 PUSH0 DUP3 ADD MSTORE POP JUMP JUMPDEST PUSH0 PUSH2 0x15FE PUSH1 0xC DUP4 PUSH2 0x148A JUMP JUMPDEST SWAP2 POP PUSH2 0x1609 DUP3 PUSH2 0x15CA JUMP JUMPDEST PUSH1 0x20 DUP3 ADD SWAP1 POP SWAP2 SWAP1 POP JUMP JUMPDEST PUSH0 PUSH1 0x20 DUP3 ADD SWAP1 POP DUP2 DUP2 SUB PUSH0 DUP4 ADD MSTORE PUSH2 0x162B DUP2 PUSH2 0x15F2 JUMP JUMPDEST SWAP1 POP SWAP2 SWAP1 POP JUMP JUMPDEST PUSH0 DUP2 MLOAD SWAP1 POP PUSH2 0x1640 DUP2 PUSH2 0x12DD JUMP JUMPDEST SWAP3 SWAP2 POP POP JUMP JUMPDEST PUSH0 PUSH1 0x20 DUP3 DUP5 SUB SLT ISZERO PUSH2 0x165B JUMPI PUSH2 0x165A PUSH2 0x1223 JUMP JUMPDEST JUMPDEST PUSH0 PUSH2 0x1668 DUP5 DUP3 DUP6 ADD PUSH2 0x1632 JUMP JUMPDEST SWAP2 POP POP SWAP3 SWAP2 POP POP JUMP JUMPDEST PUSH32 0x496E73756666696369656E74207265776172642062616C616E63650000000000 PUSH0 DUP3 ADD MSTORE POP JUMP JUMPDEST PUSH0 PUSH2 0x16A5 PUSH1 0x1B DUP4 PUSH2 0x148A JUMP JUMPDEST SWAP2 POP PUSH2 0x16B0 DUP3 PUSH2 0x1671 JUMP JUMPDEST PUSH1 0x20 DUP3 ADD SWAP1 POP SWAP2 SWAP1 POP JUMP JUMPDEST PUSH0 PUSH1 0x20 DUP3 ADD SWAP1 POP DUP2 DUP2 SUB PUSH0 DUP4 ADD MSTORE PUSH2 0x16D2 DUP2 PUSH2 0x1699 JUMP JUMPDEST SWAP1 POP SWAP2 SWAP1 POP JUMP JUMPDEST PUSH0 PUSH1 0x60 DUP3 ADD SWAP1 POP PUSH2 0x16EC PUSH0 DUP4 ADD DUP7 PUSH2 0x12B5 JUMP JUMPDEST PUSH2 0x16F9 PUSH1 0x20 DUP4 ADD DUP6 PUSH2 0x12B5 JUMP JUMPDEST PUSH2 0x1706 PUSH1 0x40 DUP4 ADD DUP5 PUSH2 0x12B5 JUMP JUMPDEST SWAP5 SWAP4 POP POP POP POP JUMP JUMPDEST PUSH32 0x5374616B65206475726174696F6E206D757374206265203E2030000000000000 PUSH0 DUP3 ADD MSTORE POP JUMP JUMPDEST PUSH0 PUSH2 0x1742 PUSH1 0x1A DUP4 PUSH2 0x148A JUMP JUMPDEST SWAP2 POP PUSH2 0x174D DUP3 PUSH2 0x170E JUMP JUMPDEST PUSH1 0x20 DUP3 ADD SWAP1 POP SWAP2 SWAP1 POP JUMP JUMPDEST PUSH0 PUSH1 0x20 DUP3 ADD SWAP1 POP DUP2 DUP2 SUB PUSH0 DUP4 ADD MSTORE PUSH2 0x176F DUP2 PUSH2 0x1736 JUMP JUMPDEST SWAP1 POP SWAP2 SWAP1 POP JUMP JUMPDEST PUSH32 0x416C7265616479207374616B696E670000000000000000000000000000000000 PUSH0 DUP3 ADD MSTORE POP JUMP JUMPDEST PUSH0 PUSH2 0x17AA PUSH1 0xF DUP4 PUSH2 0x148A JUMP JUMPDEST SWAP2 POP PUSH2 0x17B5 DUP3 PUSH2 0x1776 JUMP JUMPDEST PUSH1 0x20 DUP3 ADD SWAP1 POP SWAP2 SWAP1 POP JUMP JUMPDEST PUSH0 PUSH1 0x20 DUP3 ADD SWAP1 POP DUP2 DUP2 SUB PUSH0 DUP4 ADD MSTORE PUSH2 0x17D7 DUP2 PUSH2 0x179E JUMP JUMPDEST SWAP1 POP SWAP2 SWAP1 POP JUMP JUMPDEST PUSH32 0x416D6F756E742062656C6F77206D696E5374616B650000000000000000000000 PUSH0 DUP3 ADD MSTORE POP JUMP JUMPDEST PUSH0 PUSH2 0x1812 PUSH1 0x15 DUP4 PUSH2 0x148A JUMP JUMPDEST SWAP2 POP PUSH2 0x181D DUP3 PUSH2 0x17DE JUMP JUMPDEST PUSH1 0x20 DUP3 ADD SWAP1 POP SWAP2 SWAP1 POP JUMP JUMPDEST PUSH0 PUSH1 0x20 DUP3 ADD SWAP1 POP DUP2 DUP2 SUB PUSH0 DUP4 ADD MSTORE PUSH2 0x183F DUP2 PUSH2 0x1806 JUMP JUMPDEST SWAP1 POP SWAP2 SWAP1 POP JUMP JUMPDEST PUSH32 0x416D6F756E742065786365656473206D61785374616B65000000000000000000 PUSH0 DUP3 ADD MSTORE POP JUMP JUMPDEST PUSH0 PUSH2 0x187A PUSH1 0x17 DUP4 PUSH2 0x148A JUMP JUMPDEST SWAP2 POP PUSH2 0x1885 DUP3 PUSH2 0x1846 JUMP JUMPDEST PUSH1 0x20 DUP3 ADD SWAP1 POP SWAP2 SWAP1 POP JUMP JUMPDEST PUSH0 PUSH1 0x20 DUP3 ADD SWAP1 POP DUP2 DUP2 SUB PUSH0 DUP4 ADD MSTORE PUSH2 0x18A7 DUP2 PUSH2 0x186E JUMP JUMPDEST SWAP1 POP SWAP2 SWAP1 POP JUMP JUMPDEST PUSH32 0x5374616B696E67206C6F636B6564000000000000000000000000000000000000 PUSH0 DUP3 ADD MSTORE POP JUMP JUMPDEST PUSH0 PUSH2 0x18E2 PUSH1 0xE DUP4 PUSH2 0x148A JUMP JUMPDEST SWAP2 POP PUSH2 0x18ED DUP3 PUSH2 0x18AE JUMP JUMPDEST PUSH1 0x20 DUP3 ADD SWAP1 POP SWAP2 SWAP1 POP JUMP JUMPDEST PUSH0 PUSH1 0x20 DUP3 ADD SWAP1 POP DUP2 DUP2 SUB PUSH0 DUP4 ADD MSTORE PUSH2 0x190F DUP2 PUSH2 0x18D6 JUMP JUMPDEST SWAP1 POP SWAP2 SWAP1 POP JUMP JUMPDEST PUSH0 PUSH1 0x40 DUP3 ADD SWAP1 POP PUSH2 0x1929 PUSH0 DUP4 ADD DUP6 PUSH2 0x12B5 JUMP JUMPDEST PUSH2 0x1936 PUSH1 0x20 DUP4 ADD DUP5 PUSH2 0x12B5 JUMP JUMPDEST SWAP4 SWAP3 POP POP POP JUMP JUMPDEST PUSH32 0x4D6178207374616B65206D757374206265203E20300000000000000000000000 PUSH0 DUP3 ADD MSTORE POP JUMP JUMPDEST PUSH0 PUSH2 0x1971 PUSH1 0x15 DUP4 PUSH2 0x148A JUMP JUMPDEST SWAP2 POP PUSH2 0x197C DUP3 PUSH2 0x193D JUMP JUMPDEST PUSH1 0x20 DUP3 ADD SWAP1 POP SWAP2 SWAP1 POP JUMP JUMPDEST PUSH0 PUSH1 0x20 DUP3 ADD SWAP1 POP DUP2 DUP2 SUB PUSH0 DUP4 ADD MSTORE PUSH2 0x199E DUP2 PUSH2 0x1965 JUMP JUMPDEST SWAP1 POP SWAP2 SWAP1 POP JUMP JUMPDEST PUSH0 PUSH2 0x19AF DUP3 PUSH2 0x12AC JUMP JUMPDEST SWAP2 POP PUSH2 0x19BA DUP4 PUSH2 0x12AC JUMP JUMPDEST SWAP3 POP DUP3 DUP3 MUL PUSH2 0x19C8 DUP2 PUSH2 0x12AC JUMP JUMPDEST SWAP2 POP DUP3 DUP3 DIV DUP5 EQ DUP4 ISZERO OR PUSH2 0x19DF JUMPI PUSH2 0x19DE PUSH2 0x156A JUMP JUMPDEST JUMPDEST POP SWAP3 SWAP2 POP POP JUMP JUMPDEST PUSH32 0x4E487B7100000000000000000000000000000000000000000000000000000000 PUSH0 MSTORE PUSH1 0x12 PUSH1 0x4 MSTORE PUSH1 0x24 PUSH0 REVERT JUMPDEST PUSH0 PUSH2 0x1A1D DUP3 PUSH2 0x12AC JUMP JUMPDEST SWAP2 POP PUSH2 0x1A28 DUP4 PUSH2 0x12AC JUMP JUMPDEST SWAP3 POP DUP3 PUSH2 0x1A38 JUMPI PUSH2 0x1A37 PUSH2 0x19E6 JUMP JUMPDEST JUMPDEST DUP3 DUP3 DIV SWAP1 POP SWAP3 SWAP2 POP POP JUMP JUMPDEST PUSH32 0x5265656E7472616E637947756172643A207265656E7472616E742063616C6C00 PUSH0 DUP3 ADD MSTORE POP JUMP JUMPDEST PUSH0 PUSH2 0x1A77 PUSH1 0x1F DUP4 PUSH2 0x148A JUMP JUMPDEST SWAP2 POP PUSH2 0x1A82 DUP3 PUSH2 0x1A43 JUMP JUMPDEST PUSH1 0x20 DUP3 ADD SWAP1 POP SWAP2 SWAP1 POP JUMP JUMPDEST PUSH0 PUSH1 0x20 DUP3 ADD SWAP1 POP DUP2 DUP2 SUB PUSH0 DUP4 ADD MSTORE PUSH2 0x1AA4 DUP2 PUSH2 0x1A6B JUMP JUMPDEST SWAP1 POP SWAP2 SWAP1 POP JUMP JUMPDEST PUSH0 PUSH1 0x40 DUP3 ADD SWAP1 POP PUSH2 0x1ABE PUSH0 DUP4 ADD DUP6 PUSH2 0x13A6 JUMP JUMPDEST PUSH2 0x1ACB PUSH1 0x20 DUP4 ADD DUP5 PUSH2 0x12B5 JUMP JUMPDEST SWAP4 SWAP3 POP POP POP JUMP JUMPDEST PUSH0 PUSH1 0x60 DUP3 ADD SWAP1 POP PUSH2 0x1AE5 PUSH0 DUP4 ADD DUP7 PUSH2 0x13A6 JUMP JUMPDEST PUSH2 0x1AF2 PUSH1 0x20 DUP4 ADD DUP6 PUSH2 0x13A6 JUMP JUMPDEST PUSH2 0x1AFF PUSH1 0x40 DUP4 ADD DUP5 PUSH2 0x12B5 JUMP JUMPDEST SWAP5 SWAP4 POP POP POP POP JUMP JUMPDEST PUSH0 PUSH2 0x1B11 DUP3 PUSH2 0x13CE JUMP JUMPDEST SWAP2 POP PUSH2 0x1B1C DUP4 PUSH2 0x13CE JUMP JUMPDEST SWAP3 POP DUP3 DUP3 SUB SWAP1 POP PUSH1 0xFF DUP2 GT ISZERO PUSH2 0x1B35 JUMPI PUSH2 0x1B34 PUSH2 0x156A JUMP JUMPDEST JUMPDEST SWAP3 SWAP2 POP POP JUMP JUMPDEST PUSH0 DUP2 PUSH1 0x1 SHR SWAP1 POP SWAP2 SWAP1 POP JUMP JUMPDEST PUSH0 PUSH0 DUP3 SWAP2 POP DUP4 SWAP1 POP JUMPDEST PUSH1 0x1 DUP6 GT ISZERO PUSH2 0x1B90 JUMPI DUP1 DUP7 DIV DUP2 GT ISZERO PUSH2 0x1B6C JUMPI PUSH2 0x1B6B PUSH2 0x156A JUMP JUMPDEST JUMPDEST PUSH1 0x1 DUP6 AND ISZERO PUSH2 0x1B7B JUMPI DUP1 DUP3 MUL SWAP2 POP JUMPDEST DUP1 DUP2 MUL SWAP1 POP PUSH2 0x1B89 DUP6 PUSH2 0x1B3B JUMP JUMPDEST SWAP5 POP PUSH2 0x1B50 JUMP JUMPDEST SWAP5 POP SWAP5 SWAP3 POP POP POP JUMP JUMPDEST PUSH0 DUP3 PUSH2 0x1BA8 JUMPI PUSH1 0x1 SWAP1 POP PUSH2 0x1C63 JUMP JUMPDEST DUP2 PUSH2 0x1BB5 JUMPI PUSH0 SWAP1 POP PUSH2 0x1C63 JUMP JUMPDEST DUP2 PUSH1 0x1 DUP2 EQ PUSH2 0x1BCB JUMPI PUSH1 0x2 DUP2 EQ PUSH2 0x1BD5 JUMPI PUSH2 0x1C04 JUMP JUMPDEST PUSH1 0x1 SWAP2 POP POP PUSH2 0x1C63 JUMP JUMPDEST PUSH1 0xFF DUP5 GT ISZERO PUSH2 0x1BE7 JUMPI PUSH2 0x1BE6 PUSH2 0x156A JUMP JUMPDEST JUMPDEST DUP4 PUSH1 0x2 EXP SWAP2 POP DUP5 DUP3 GT ISZERO PUSH2 0x1BFE JUMPI PUSH2 0x1BFD PUSH2 0x156A JUMP JUMPDEST JUMPDEST POP PUSH2 0x1C63 JUMP JUMPDEST POP PUSH1 0x20 DUP4 LT PUSH2 0x133 DUP4 LT AND PUSH1 0x4E DUP5 LT PUSH1 0xB DUP5 LT AND OR ISZERO PUSH2 0x1C39 JUMPI DUP3 DUP3 EXP SWAP1 POP DUP4 DUP2 GT ISZERO PUSH2 0x1C34 JUMPI PUSH2 0x1C33 PUSH2 0x156A JUMP JUMPDEST JUMPDEST PUSH2 0x1C63 JUMP JUMPDEST PUSH2 0x1C46 DUP5 DUP5 DUP5 PUSH1 0x1 PUSH2 0x1B47 JUMP JUMPDEST SWAP3 POP SWAP1 POP DUP2 DUP5 DIV DUP2 GT ISZERO PUSH2 0x1C5D JUMPI PUSH2 0x1C5C PUSH2 0x156A JUMP JUMPDEST JUMPDEST DUP2 DUP2 MUL SWAP1 POP JUMPDEST SWAP4 SWAP3 POP POP POP JUMP JUMPDEST PUSH0 PUSH2 0x1C74 DUP3 PUSH2 0x12AC JUMP JUMPDEST SWAP2 POP PUSH2 0x1C7F DUP4 PUSH2 0x13CE JUMP JUMPDEST SWAP3 POP PUSH2 0x1CAC PUSH32 0xFFFFFFFFFFFFFFFFFFFFFFFFFFFFFFFFFFFFFFFFFFFFFFFFFFFFFFFFFFFFFFFF DUP5 DUP5 PUSH2 0x1B99 JUMP JUMPDEST SWAP1 POP SWAP3 SWAP2 POP POP JUMP INVALID LOG2 PUSH5 0x6970667358 0x22 SLT KECCAK256 0xC0 PUSH13 0x700E0FAD9DBFFAE1D9B28CCC75 0x1F PUSH30 0xD4C76AD30B9FE7FC0327BD81EF18EB64736F6C634300081E003300000000 "
				},
				"gasEstimates": {
					"creation": {
						"codeDepositCost": "1480400",
						"executionCost": "infinite",
						"totalCost": "infinite"
					},
					"external": {
						"balanceOf(address)": "2918",
						"calculateReward(address)": "infinite",
						"changeFullUnlock(bool)": "infinite",
						"changeMaxStake(uint256)": "infinite",
						"changeMinStake(uint256)": "infinite",
						"changeStakeDuration(uint256)": "infinite",
						"depositTimestamps(address)": "2870",
						"fullUnlock()": "2598",
						"landFiDecimals()": "infinite",
						"landFiToken()": "infinite",
						"maxStake()": "2469",
						"minStake()": "2537",
						"owner()": "2647",
						"renounceOwnership()": "infinite",
						"rewardDecimals()": "infinite",
						"rewardToken()": "infinite",
						"stake(uint256)": "infinite",
						"stakeDuration()": "2470",
						"stakeUnlockTime(address)": "infinite",
						"stakes(address)": "2826",
						"transferOwnership(address)": "infinite",
						"withdraw()": "infinite"
					},
					"internal": {
						"_getDecimals(address)": "infinite",
						"_normalizeDecimals(uint256,uint8,uint8)": "infinite"
					}
				},
				"methodIdentifiers": {
					"balanceOf(address)": "70a08231",
					"calculateReward(address)": "d82e3962",
					"changeFullUnlock(bool)": "f1cddd55",
					"changeMaxStake(uint256)": "cd5692ee",
					"changeMinStake(uint256)": "23dcdb89",
					"changeStakeDuration(uint256)": "6747dd0e",
					"depositTimestamps(address)": "240be944",
					"fullUnlock()": "f908dc13",
					"landFiDecimals()": "9aae43f5",
					"landFiToken()": "292a6b19",
					"maxStake()": "ea1b28e0",
					"minStake()": "375b3c0a",
					"owner()": "8da5cb5b",
					"renounceOwnership()": "715018a6",
					"rewardDecimals()": "b60f75d8",
					"rewardToken()": "f7c618c1",
					"stake(uint256)": "a694fc3a",
					"stakeDuration()": "40f02ab6",
					"stakeUnlockTime(address)": "8dfb2dbc",
					"stakes(address)": "16934fc4",
					"transferOwnership(address)": "f2fde38b",
					"withdraw()": "3ccfd60b"
				}
			},
			"storageLayout": {
				"storage": [
					{
						"astId": 8,
						"contract": "contracts/LandFIStake2.sol:LandFiStakingWithRewards",
						"label": "_owner",
						"offset": 0,
						"slot": "0",
						"type": "t_address"
					},
					{
						"astId": 248,
						"contract": "contracts/LandFIStake2.sol:LandFiStakingWithRewards",
						"label": "_status",
						"offset": 0,
						"slot": "1",
						"type": "t_uint256"
					},
					{
						"astId": 916,
						"contract": "contracts/LandFIStake2.sol:LandFiStakingWithRewards",
						"label": "stakes",
						"offset": 0,
						"slot": "2",
						"type": "t_mapping(t_address,t_uint256)"
					},
					{
						"astId": 920,
						"contract": "contracts/LandFIStake2.sol:LandFiStakingWithRewards",
						"label": "depositTimestamps",
						"offset": 0,
						"slot": "3",
						"type": "t_mapping(t_address,t_uint256)"
					},
					{
						"astId": 922,
						"contract": "contracts/LandFIStake2.sol:LandFiStakingWithRewards",
						"label": "stakeDuration",
						"offset": 0,
						"slot": "4",
						"type": "t_uint256"
					},
					{
						"astId": 924,
						"contract": "contracts/LandFIStake2.sol:LandFiStakingWithRewards",
						"label": "maxStake",
						"offset": 0,
						"slot": "5",
						"type": "t_uint256"
					},
					{
						"astId": 926,
						"contract": "contracts/LandFIStake2.sol:LandFiStakingWithRewards",
						"label": "minStake",
						"offset": 0,
						"slot": "6",
						"type": "t_uint256"
					},
					{
						"astId": 928,
						"contract": "contracts/LandFIStake2.sol:LandFiStakingWithRewards",
						"label": "fullUnlock",
						"offset": 0,
						"slot": "7",
						"type": "t_bool"
					}
				],
				"types": {
					"t_address": {
						"encoding": "inplace",
						"label": "address",
						"numberOfBytes": "20"
					},
					"t_bool": {
						"encoding": "inplace",
						"label": "bool",
						"numberOfBytes": "1"
					},
					"t_mapping(t_address,t_uint256)": {
						"encoding": "mapping",
						"key": "t_address",
						"label": "mapping(address => uint256)",
						"numberOfBytes": "32",
						"value": "t_uint256"
					},
					"t_uint256": {
						"encoding": "inplace",
						"label": "uint256",
						"numberOfBytes": "32"
					}
				}
			},
			"userdoc": {
				"events": {
					"Staked(address,uint256,uint256)": {
						"notice": "Emitted when a user stakes tokens"
					},
					"Withdrawn(address,uint256,uint256,uint256)": {
						"notice": "Emitted when a user withdraws staked tokens and rewards"
					}
				},
				"kind": "user",
				"methods": {},
				"version": 1
			}
		}
	}
}