{
	"contracts/LandFIStake2.sol": {
		"LandFiStaking": {
			"abi": [
				{
					"inputs": [
						{
							"internalType": "address",
							"name": "_tokenAddress",
							"type": "address"
						}
					],
					"stateMutability": "nonpayable",
					"type": "constructor"
				},
				{
					"inputs": [
						{
							"internalType": "address",
							"name": "owner",
							"type": "address"
						}
					],
					"name": "OwnableInvalidOwner",
					"type": "error"
				},
				{
					"inputs": [
						{
							"internalType": "address",
							"name": "account",
							"type": "address"
						}
					],
					"name": "OwnableUnauthorizedAccount",
					"type": "error"
				},
				{
					"inputs": [
						{
							"internalType": "address",
							"name": "token",
							"type": "address"
						}
					],
					"name": "SafeERC20FailedOperation",
					"type": "error"
				},
				{
					"anonymous": false,
					"inputs": [
						{
							"indexed": true,
							"internalType": "address",
							"name": "previousOwner",
							"type": "address"
						},
						{
							"indexed": true,
							"internalType": "address",
							"name": "newOwner",
							"type": "address"
						}
					],
					"name": "OwnershipTransferred",
					"type": "event"
				},
				{
					"inputs": [
						{
							"internalType": "uint256",
							"name": "amount",
							"type": "uint256"
						},
						{
							"internalType": "uint256",
							"name": "boxNo",
							"type": "uint256"
						}
					],
					"name": "addStake",
					"outputs": [],
					"stateMutability": "nonpayable",
					"type": "function"
				},
				{
					"inputs": [
						{
							"internalType": "address",
							"name": "user",
							"type": "address"
						}
					],
					"name": "balanceOf",
					"outputs": [
						{
							"internalType": "uint256",
							"name": "",
							"type": "uint256"
						}
					],
					"stateMutability": "view",
					"type": "function"
				},
				{
					"inputs": [
						{
							"internalType": "address",
							"name": "",
							"type": "address"
						}
					],
					"name": "box1Balance",
					"outputs": [
						{
							"internalType": "uint256",
							"name": "",
							"type": "uint256"
						}
					],
					"stateMutability": "view",
					"type": "function"
				},
				{
					"inputs": [
						{
							"internalType": "address",
							"name": "",
							"type": "address"
						}
					],
					"name": "box1DepositDate",
					"outputs": [
						{
							"internalType": "uint256",
							"name": "",
							"type": "uint256"
						}
					],
					"stateMutability": "view",
					"type": "function"
				},
				{
					"inputs": [],
					"name": "box1Enabled",
					"outputs": [
						{
							"internalType": "bool",
							"name": "",
							"type": "bool"
						}
					],
					"stateMutability": "view",
					"type": "function"
				},
				{
					"inputs": [],
					"name": "box1Rate",
					"outputs": [
						{
							"internalType": "uint256",
							"name": "",
							"type": "uint256"
						}
					],
					"stateMutability": "view",
					"type": "function"
				},
				{
					"inputs": [],
					"name": "box1Time",
					"outputs": [
						{
							"internalType": "uint256",
							"name": "",
							"type": "uint256"
						}
					],
					"stateMutability": "view",
					"type": "function"
				},
				{
					"inputs": [
						{
							"internalType": "address",
							"name": "",
							"type": "address"
						}
					],
					"name": "box2Balance",
					"outputs": [
						{
							"internalType": "uint256",
							"name": "",
							"type": "uint256"
						}
					],
					"stateMutability": "view",
					"type": "function"
				},
				{
					"inputs": [
						{
							"internalType": "address",
							"name": "",
							"type": "address"
						}
					],
					"name": "box2DepositDate",
					"outputs": [
						{
							"internalType": "uint256",
							"name": "",
							"type": "uint256"
						}
					],
					"stateMutability": "view",
					"type": "function"
				},
				{
					"inputs": [],
					"name": "box2Enabled",
					"outputs": [
						{
							"internalType": "bool",
							"name": "",
							"type": "bool"
						}
					],
					"stateMutability": "view",
					"type": "function"
				},
				{
					"inputs": [],
					"name": "box2Rate",
					"outputs": [
						{
							"internalType": "uint256",
							"name": "",
							"type": "uint256"
						}
					],
					"stateMutability": "view",
					"type": "function"
				},
				{
					"inputs": [],
					"name": "box2Time",
					"outputs": [
						{
							"internalType": "uint256",
							"name": "",
							"type": "uint256"
						}
					],
					"stateMutability": "view",
					"type": "function"
				},
				{
					"inputs": [
						{
							"internalType": "address",
							"name": "",
							"type": "address"
						}
					],
					"name": "box3Balance",
					"outputs": [
						{
							"internalType": "uint256",
							"name": "",
							"type": "uint256"
						}
					],
					"stateMutability": "view",
					"type": "function"
				},
				{
					"inputs": [
						{
							"internalType": "address",
							"name": "",
							"type": "address"
						}
					],
					"name": "box3DepositDate",
					"outputs": [
						{
							"internalType": "uint256",
							"name": "",
							"type": "uint256"
						}
					],
					"stateMutability": "view",
					"type": "function"
				},
				{
					"inputs": [],
					"name": "box3Enabled",
					"outputs": [
						{
							"internalType": "bool",
							"name": "",
							"type": "bool"
						}
					],
					"stateMutability": "view",
					"type": "function"
				},
				{
					"inputs": [],
					"name": "box3Rate",
					"outputs": [
						{
							"internalType": "uint256",
							"name": "",
							"type": "uint256"
						}
					],
					"stateMutability": "view",
					"type": "function"
				},
				{
					"inputs": [],
					"name": "box3Time",
					"outputs": [
						{
							"internalType": "uint256",
							"name": "",
							"type": "uint256"
						}
					],
					"stateMutability": "view",
					"type": "function"
				},
				{
					"inputs": [
						{
							"internalType": "address",
							"name": "",
							"type": "address"
						}
					],
					"name": "box4Balance",
					"outputs": [
						{
							"internalType": "uint256",
							"name": "",
							"type": "uint256"
						}
					],
					"stateMutability": "view",
					"type": "function"
				},
				{
					"inputs": [
						{
							"internalType": "address",
							"name": "",
							"type": "address"
						}
					],
					"name": "box4DepositDate",
					"outputs": [
						{
							"internalType": "uint256",
							"name": "",
							"type": "uint256"
						}
					],
					"stateMutability": "view",
					"type": "function"
				},
				{
					"inputs": [],
					"name": "box4Enabled",
					"outputs": [
						{
							"internalType": "bool",
							"name": "",
							"type": "bool"
						}
					],
					"stateMutability": "view",
					"type": "function"
				},
				{
					"inputs": [],
					"name": "box4Rate",
					"outputs": [
						{
							"internalType": "uint256",
							"name": "",
							"type": "uint256"
						}
					],
					"stateMutability": "view",
					"type": "function"
				},
				{
					"inputs": [],
					"name": "box4Time",
					"outputs": [
						{
							"internalType": "uint256",
							"name": "",
							"type": "uint256"
						}
					],
					"stateMutability": "view",
					"type": "function"
				},
				{
					"inputs": [
						{
							"internalType": "bool",
							"name": "status",
							"type": "bool"
						}
					],
					"name": "changeBox1Status",
					"outputs": [],
					"stateMutability": "nonpayable",
					"type": "function"
				},
				{
					"inputs": [
						{
							"internalType": "bool",
							"name": "status",
							"type": "bool"
						}
					],
					"name": "changeBox2Status",
					"outputs": [],
					"stateMutability": "nonpayable",
					"type": "function"
				},
				{
					"inputs": [
						{
							"internalType": "bool",
							"name": "status",
							"type": "bool"
						}
					],
					"name": "changeBox3Status",
					"outputs": [],
					"stateMutability": "nonpayable",
					"type": "function"
				},
				{
					"inputs": [
						{
							"internalType": "bool",
							"name": "status",
							"type": "bool"
						}
					],
					"name": "changeBox4Status",
					"outputs": [],
					"stateMutability": "nonpayable",
					"type": "function"
				},
				{
					"inputs": [
						{
							"internalType": "bool",
							"name": "unlock",
							"type": "bool"
						}
					],
					"name": "changeFullUnlock",
					"outputs": [],
					"stateMutability": "nonpayable",
					"type": "function"
				},
				{
					"inputs": [
						{
							"internalType": "uint256",
							"name": "amount",
							"type": "uint256"
						}
					],
					"name": "changeMaxRewardDue",
					"outputs": [],
					"stateMutability": "nonpayable",
					"type": "function"
				},
				{
					"inputs": [
						{
							"internalType": "uint256",
							"name": "amount",
							"type": "uint256"
						}
					],
					"name": "changeMaxStake",
					"outputs": [],
					"stateMutability": "nonpayable",
					"type": "function"
				},
				{
					"inputs": [
						{
							"internalType": "uint256",
							"name": "amount",
							"type": "uint256"
						}
					],
					"name": "changeMinStake",
					"outputs": [],
					"stateMutability": "nonpayable",
					"type": "function"
				},
				{
					"inputs": [],
					"name": "fullUnlock",
					"outputs": [
						{
							"internalType": "bool",
							"name": "",
							"type": "bool"
						}
					],
					"stateMutability": "view",
					"type": "function"
				},
				{
					"inputs": [],
					"name": "landFiToken",
					"outputs": [
						{
							"internalType": "contract IERC20",
							"name": "",
							"type": "address"
						}
					],
					"stateMutability": "view",
					"type": "function"
				},
				{
					"inputs": [],
					"name": "maxRewardDue",
					"outputs": [
						{
							"internalType": "uint256",
							"name": "",
							"type": "uint256"
						}
					],
					"stateMutability": "view",
					"type": "function"
				},
				{
					"inputs": [],
					"name": "maxStake",
					"outputs": [
						{
							"internalType": "uint256",
							"name": "",
							"type": "uint256"
						}
					],
					"stateMutability": "view",
					"type": "function"
				},
				{
					"inputs": [],
					"name": "minStake",
					"outputs": [
						{
							"internalType": "uint256",
							"name": "",
							"type": "uint256"
						}
					],
					"stateMutability": "view",
					"type": "function"
				},
				{
					"inputs": [],
					"name": "owner",
					"outputs": [
						{
							"internalType": "address",
							"name": "",
							"type": "address"
						}
					],
					"stateMutability": "view",
					"type": "function"
				},
				{
					"inputs": [
						{
							"internalType": "uint256",
							"name": "boxNo",
							"type": "uint256"
						}
					],
					"name": "pullStake",
					"outputs": [],
					"stateMutability": "nonpayable",
					"type": "function"
				},
				{
					"inputs": [],
					"name": "renounceOwnership",
					"outputs": [],
					"stateMutability": "nonpayable",
					"type": "function"
				},
				{
					"inputs": [],
					"name": "rewardCount",
					"outputs": [
						{
							"internalType": "uint256",
							"name": "",
							"type": "uint256"
						}
					],
					"stateMutability": "view",
					"type": "function"
				},
				{
					"inputs": [],
					"name": "rewardCountDue",
					"outputs": [
						{
							"internalType": "uint256",
							"name": "",
							"type": "uint256"
						}
					],
					"stateMutability": "view",
					"type": "function"
				},
				{
					"inputs": [
						{
							"internalType": "address",
							"name": "user",
							"type": "address"
						},
						{
							"internalType": "uint256",
							"name": "boxNo",
							"type": "uint256"
						}
					],
					"name": "stakeAmount",
					"outputs": [
						{
							"internalType": "uint256",
							"name": "",
							"type": "uint256"
						}
					],
					"stateMutability": "view",
					"type": "function"
				},
				{
					"inputs": [
						{
							"internalType": "address",
							"name": "user",
							"type": "address"
						},
						{
							"internalType": "uint256",
							"name": "boxNo",
							"type": "uint256"
						}
					],
					"name": "stakeUnlockTime",
					"outputs": [
						{
							"internalType": "uint256",
							"name": "",
							"type": "uint256"
						}
					],
					"stateMutability": "view",
					"type": "function"
				},
				{
					"inputs": [],
					"name": "totalStaked",
					"outputs": [
						{
							"internalType": "uint256",
							"name": "",
							"type": "uint256"
						}
					],
					"stateMutability": "view",
					"type": "function"
				},
				{
					"inputs": [
						{
							"internalType": "address",
							"name": "newOwner",
							"type": "address"
						}
					],
					"name": "transferOwnership",
					"outputs": [],
					"stateMutability": "nonpayable",
					"type": "function"
				}
			],
			"devdoc": {
				"errors": {
					"OwnableInvalidOwner(address)": [
						{
							"details": "The owner is not a valid owner account. (eg. `address(0)`)"
						}
					],
					"OwnableUnauthorizedAccount(address)": [
						{
							"details": "The caller account is not authorized to perform an operation."
						}
					],
					"SafeERC20FailedOperation(address)": [
						{
							"details": "An operation with an ERC-20 token failed."
						}
					]
				},
				"kind": "dev",
				"methods": {
					"owner()": {
						"details": "Returns the address of the current owner."
					},
					"renounceOwnership()": {
						"details": "Leaves the contract without owner. It will not be possible to call `onlyOwner` functions. Can only be called by the current owner. NOTE: Renouncing ownership will leave the contract without an owner, thereby disabling any functionality that is only available to the owner."
					},
					"transferOwnership(address)": {
						"details": "Transfers ownership of the contract to a new account (`newOwner`). Can only be called by the current owner."
					}
				},
				"version": 1
			},
			"evm": {
				"assembly": "    /* \"contracts/LandFIStake2.sol\":362:7757  contract LandFiStaking is Ownable(msg.sender) {... */\n  mstore(0x40, 0xa0)\n    /* \"contracts/LandFIStake2.sol\":1694:2416  constructor(address _tokenAddress) {... */\n  callvalue\n  dup1\n  iszero\n  tag_1\n  jumpi\n  revert(0x00, 0x00)\ntag_1:\n  pop\n  mload(0x40)\n  sub(codesize, bytecodeSize)\n  dup1\n  bytecodeSize\n  dup4\n  codecopy\n  dup2\n  dup2\n  add\n  0x40\n  mstore\n  dup2\n  add\n  swap1\n  tag_2\n  swap2\n  swap1\n  tag_3\n  jump\t// in\ntag_2:\n    /* \"contracts/LandFIStake2.sol\":396:406  msg.sender */\n  caller\n    /* \"@openzeppelin/contracts/access/Ownable.sol\":1297:1298  0 */\n  0x00\n    /* \"@openzeppelin/contracts/access/Ownable.sol\":1273:1299  initialOwner == address(0) */\n  0xffffffffffffffffffffffffffffffffffffffff\n  and\n    /* \"@openzeppelin/contracts/access/Ownable.sol\":1273:1285  initialOwner */\n  dup2\n    /* \"@openzeppelin/contracts/access/Ownable.sol\":1273:1299  initialOwner == address(0) */\n  0xffffffffffffffffffffffffffffffffffffffff\n  and\n  sub\n    /* \"@openzeppelin/contracts/access/Ownable.sol\":1269:1364  if (initialOwner == address(0)) {... */\n  tag_7\n  jumpi\n    /* \"@openzeppelin/contracts/access/Ownable.sol\":1350:1351  0 */\n  0x00\n    /* \"@openzeppelin/contracts/access/Ownable.sol\":1322:1353  OwnableInvalidOwner(address(0)) */\n  mload(0x40)\n  0x1e4fbdf700000000000000000000000000000000000000000000000000000000\n  dup2\n  mstore\n  0x04\n  add\n  tag_8\n  swap2\n  swap1\n  tag_9\n  jump\t// in\ntag_8:\n  mload(0x40)\n  dup1\n  swap2\n  sub\n  swap1\n  revert\n    /* \"@openzeppelin/contracts/access/Ownable.sol\":1269:1364  if (initialOwner == address(0)) {... */\ntag_7:\n    /* \"@openzeppelin/contracts/access/Ownable.sol\":1373:1405  _transferOwnership(initialOwner) */\n  tag_10\n    /* \"@openzeppelin/contracts/access/Ownable.sol\":1392:1404  initialOwner */\n  dup2\n    /* \"@openzeppelin/contracts/access/Ownable.sol\":1373:1391  _transferOwnership */\n  shl(0x20, tag_11)\n    /* \"@openzeppelin/contracts/access/Ownable.sol\":1373:1405  _transferOwnership(initialOwner) */\n  0x20\n  shr\n  jump\t// in\ntag_10:\n    /* \"@openzeppelin/contracts/access/Ownable.sol\":1225:1412  constructor(address initialOwner) {... */\n  pop\n    /* \"contracts/LandFIStake2.sol\":1773:1774  0 */\n  0x00\n    /* \"contracts/LandFIStake2.sol\":1748:1775  _tokenAddress != address(0) */\n  0xffffffffffffffffffffffffffffffffffffffff\n  and\n    /* \"contracts/LandFIStake2.sol\":1748:1761  _tokenAddress */\n  dup2\n    /* \"contracts/LandFIStake2.sol\":1748:1775  _tokenAddress != address(0) */\n  0xffffffffffffffffffffffffffffffffffffffff\n  and\n  sub\n    /* \"contracts/LandFIStake2.sol\":1740:1808  require(_tokenAddress != address(0), \"Token address cannot be zero\") */\n  tag_13\n  jumpi\n  mload(0x40)\n  0x08c379a000000000000000000000000000000000000000000000000000000000\n  dup2\n  mstore\n  0x04\n  add\n  tag_14\n  swap1\n  tag_15\n  jump\t// in\ntag_14:\n  mload(0x40)\n  dup1\n  swap2\n  sub\n  swap1\n  revert\ntag_13:\n    /* \"contracts/LandFIStake2.sol\":1840:1853  _tokenAddress */\n  dup1\n    /* \"contracts/LandFIStake2.sol\":1819:1854  landFiToken = IERC20(_tokenAddress) */\n  0xffffffffffffffffffffffffffffffffffffffff\n  and\n  0x80\n  dup2\n  0xffffffffffffffffffffffffffffffffffffffff\n  and\n  dup2\n  mstore\n  pop\n  pop\n    /* \"contracts/LandFIStake2.sol\":1884:1885  0 */\n  0x00\n    /* \"contracts/LandFIStake2.sol\":1867:1881  rewardCountDue */\n  0x17\n    /* \"contracts/LandFIStake2.sol\":1867:1885  rewardCountDue = 0 */\n  dup2\n  swap1\n  sstore\n  pop\n    /* \"contracts/LandFIStake2.sol\":1910:1911  0 */\n  0x00\n    /* \"contracts/LandFIStake2.sol\":1896:1907  rewardCount */\n  0x18\n    /* \"contracts/LandFIStake2.sol\":1896:1911  rewardCount = 0 */\n  dup2\n  swap1\n  sstore\n  pop\n    /* \"contracts/LandFIStake2.sol\":1936:1937  0 */\n  0x00\n    /* \"contracts/LandFIStake2.sol\":1922:1933  totalStaked */\n  0x19\n    /* \"contracts/LandFIStake2.sol\":1922:1937  totalStaked = 0 */\n  dup2\n  swap1\n  sstore\n  pop\n    /* \"contracts/LandFIStake2.sol\":1959:1972  400_000 ether */\n  0x54b40b1f852bda000000\n    /* \"contracts/LandFIStake2.sol\":1948:1956  maxStake */\n  0x15\n    /* \"contracts/LandFIStake2.sol\":1948:1972  maxStake = 400_000 ether */\n  dup2\n  swap1\n  sstore\n  pop\n    /* \"contracts/LandFIStake2.sol\":1998:2011  500_000 ether */\n  0x69e10de76676d0800000\n    /* \"contracts/LandFIStake2.sol\":1983:1995  maxRewardDue */\n  0x1a\n    /* \"contracts/LandFIStake2.sol\":1983:2011  maxRewardDue = 500_000 ether */\n  dup2\n  swap1\n  sstore\n  pop\n    /* \"contracts/LandFIStake2.sol\":2033:2043  0.01 ether */\n  0x2386f26fc10000\n    /* \"contracts/LandFIStake2.sol\":2022:2030  minStake */\n  0x16\n    /* \"contracts/LandFIStake2.sol\":2022:2043  minStake = 0.01 ether */\n  dup2\n  swap1\n  sstore\n  pop\n    /* \"contracts/LandFIStake2.sol\":2067:2072  false */\n  0x00\n    /* \"contracts/LandFIStake2.sol\":2054:2064  fullUnlock */\n  0x1b\n  0x00\n    /* \"contracts/LandFIStake2.sol\":2054:2072  fullUnlock = false */\n  0x0100\n  exp\n  dup2\n  sload\n  dup2\n  0xff\n  mul\n  not\n  and\n  swap1\n  dup4\n  iszero\n  iszero\n  mul\n  or\n  swap1\n  sstore\n  pop\n    /* \"contracts/LandFIStake2.sol\":2096:2099  333 */\n  0x014d\n    /* \"contracts/LandFIStake2.sol\":2085:2093  box1Rate */\n  0x03\n    /* \"contracts/LandFIStake2.sol\":2085:2099  box1Rate = 333 */\n  dup2\n  swap1\n  sstore\n  pop\n    /* \"contracts/LandFIStake2.sol\":2121:2127  7 days */\n  0x093a80\n    /* \"contracts/LandFIStake2.sol\":2110:2118  box1Time */\n  0x04\n    /* \"contracts/LandFIStake2.sol\":2110:2127  box1Time = 7 days */\n  dup2\n  swap1\n  sstore\n  pop\n    /* \"contracts/LandFIStake2.sol\":2152:2156  true */\n  0x01\n    /* \"contracts/LandFIStake2.sol\":2138:2149  box1Enabled */\n  0x05\n  0x00\n    /* \"contracts/LandFIStake2.sol\":2138:2156  box1Enabled = true */\n  0x0100\n  exp\n  dup2\n  sload\n  dup2\n  0xff\n  mul\n  not\n  and\n  swap1\n  dup4\n  iszero\n  iszero\n  mul\n  or\n  swap1\n  sstore\n  pop\n    /* \"contracts/LandFIStake2.sol\":2180:2182  83 */\n  0x53\n    /* \"contracts/LandFIStake2.sol\":2169:2177  box2Rate */\n  0x08\n    /* \"contracts/LandFIStake2.sol\":2169:2182  box2Rate = 83 */\n  dup2\n  swap1\n  sstore\n  pop\n    /* \"contracts/LandFIStake2.sol\":2204:2211  14 days */\n  0x127500\n    /* \"contracts/LandFIStake2.sol\":2193:2201  box2Time */\n  0x09\n    /* \"contracts/LandFIStake2.sol\":2193:2211  box2Time = 14 days */\n  dup2\n  swap1\n  sstore\n  pop\n    /* \"contracts/LandFIStake2.sol\":2236:2240  true */\n  0x01\n    /* \"contracts/LandFIStake2.sol\":2222:2233  box2Enabled */\n  0x0a\n  0x00\n    /* \"contracts/LandFIStake2.sol\":2222:2240  box2Enabled = true */\n  0x0100\n  exp\n  dup2\n  sload\n  dup2\n  0xff\n  mul\n  not\n  and\n  swap1\n  dup4\n  iszero\n  iszero\n  mul\n  or\n  swap1\n  sstore\n  pop\n    /* \"contracts/LandFIStake2.sol\":2264:2266  32 */\n  0x20\n    /* \"contracts/LandFIStake2.sol\":2253:2261  box3Rate */\n  0x0d\n    /* \"contracts/LandFIStake2.sol\":2253:2266  box3Rate = 32 */\n  dup2\n  swap1\n  sstore\n  pop\n    /* \"contracts/LandFIStake2.sol\":2288:2295  28 days */\n  0x24ea00\n    /* \"contracts/LandFIStake2.sol\":2277:2285  box3Time */\n  0x0e\n    /* \"contracts/LandFIStake2.sol\":2277:2295  box3Time = 28 days */\n  dup2\n  swap1\n  sstore\n  pop\n    /* \"contracts/LandFIStake2.sol\":2320:2324  true */\n  0x01\n    /* \"contracts/LandFIStake2.sol\":2306:2317  box3Enabled */\n  0x0f\n  0x00\n    /* \"contracts/LandFIStake2.sol\":2306:2324  box3Enabled = true */\n  0x0100\n  exp\n  dup2\n  sload\n  dup2\n  0xff\n  mul\n  not\n  and\n  swap1\n  dup4\n  iszero\n  iszero\n  mul\n  or\n  swap1\n  sstore\n  pop\n    /* \"contracts/LandFIStake2.sol\":2348:2350  26 */\n  0x1a\n    /* \"contracts/LandFIStake2.sol\":2337:2345  box4Rate */\n  0x12\n    /* \"contracts/LandFIStake2.sol\":2337:2350  box4Rate = 26 */\n  dup2\n  swap1\n  sstore\n  pop\n    /* \"contracts/LandFIStake2.sol\":2372:2379  28 days */\n  0x24ea00\n    /* \"contracts/LandFIStake2.sol\":2361:2369  box4Time */\n  0x13\n    /* \"contracts/LandFIStake2.sol\":2361:2379  box4Time = 28 days */\n  dup2\n  swap1\n  sstore\n  pop\n    /* \"contracts/LandFIStake2.sol\":2404:2408  true */\n  0x01\n    /* \"contracts/LandFIStake2.sol\":2390:2401  box4Enabled */\n  0x14\n  0x00\n    /* \"contracts/LandFIStake2.sol\":2390:2408  box4Enabled = true */\n  0x0100\n  exp\n  dup2\n  sload\n  dup2\n  0xff\n  mul\n  not\n  and\n  swap1\n  dup4\n  iszero\n  iszero\n  mul\n  or\n  swap1\n  sstore\n  pop\n    /* \"contracts/LandFIStake2.sol\":1694:2416  constructor(address _tokenAddress) {... */\n  pop\n    /* \"contracts/LandFIStake2.sol\":362:7757  contract LandFiStaking is Ownable(msg.sender) {... */\n  jump(tag_16)\n    /* \"@openzeppelin/contracts/access/Ownable.sol\":2912:3099  function _transferOwnership(address newOwner) internal virtual {... */\ntag_11:\n    /* \"@openzeppelin/contracts/access/Ownable.sol\":2985:3001  address oldOwner */\n  0x00\n    /* \"@openzeppelin/contracts/access/Ownable.sol\":3004:3010  _owner */\n  0x00\n  0x00\n  swap1\n  sload\n  swap1\n  0x0100\n  exp\n  swap1\n  div\n  0xffffffffffffffffffffffffffffffffffffffff\n  and\n    /* \"@openzeppelin/contracts/access/Ownable.sol\":2985:3010  address oldOwner = _owner */\n  swap1\n  pop\n    /* \"@openzeppelin/contracts/access/Ownable.sol\":3029:3037  newOwner */\n  dup2\n    /* \"@openzeppelin/contracts/access/Ownable.sol\":3020:3026  _owner */\n  0x00\n  0x00\n    /* \"@openzeppelin/contracts/access/Ownable.sol\":3020:3037  _owner = newOwner */\n  0x0100\n  exp\n  dup2\n  sload\n  dup2\n  0xffffffffffffffffffffffffffffffffffffffff\n  mul\n  not\n  and\n  swap1\n  dup4\n  0xffffffffffffffffffffffffffffffffffffffff\n  and\n  mul\n  or\n  swap1\n  sstore\n  pop\n    /* \"@openzeppelin/contracts/access/Ownable.sol\":3083:3091  newOwner */\n  dup2\n    /* \"@openzeppelin/contracts/access/Ownable.sol\":3052:3092  OwnershipTransferred(oldOwner, newOwner) */\n  0xffffffffffffffffffffffffffffffffffffffff\n  and\n    /* \"@openzeppelin/contracts/access/Ownable.sol\":3073:3081  oldOwner */\n  dup2\n    /* \"@openzeppelin/contracts/access/Ownable.sol\":3052:3092  OwnershipTransferred(oldOwner, newOwner) */\n  0xffffffffffffffffffffffffffffffffffffffff\n  and\n  0x8be0079c531659141344cd1fd0a4f28419497f9722a3daafe3b4186f6b6457e0\n  mload(0x40)\n  mload(0x40)\n  dup1\n  swap2\n  sub\n  swap1\n  log3\n    /* \"@openzeppelin/contracts/access/Ownable.sol\":2975:3099  {... */\n  pop\n    /* \"@openzeppelin/contracts/access/Ownable.sol\":2912:3099  function _transferOwnership(address newOwner) internal virtual {... */\n  pop\n  jump\t// out\n    /* \"#utility.yul\":88:205   */\ntag_19:\n    /* \"#utility.yul\":197:198   */\n  0x00\n    /* \"#utility.yul\":194:195   */\n  0x00\n    /* \"#utility.yul\":187:199   */\n  revert\n    /* \"#utility.yul\":334:460   */\ntag_21:\n    /* \"#utility.yul\":371:378   */\n  0x00\n    /* \"#utility.yul\":411:453   */\n  0xffffffffffffffffffffffffffffffffffffffff\n    /* \"#utility.yul\":404:409   */\n  dup3\n    /* \"#utility.yul\":400:454   */\n  and\n    /* \"#utility.yul\":389:454   */\n  swap1\n  pop\n    /* \"#utility.yul\":334:460   */\n  swap2\n  swap1\n  pop\n  jump\t// out\n    /* \"#utility.yul\":466:562   */\ntag_22:\n    /* \"#utility.yul\":503:510   */\n  0x00\n    /* \"#utility.yul\":532:556   */\n  tag_35\n    /* \"#utility.yul\":550:555   */\n  dup3\n    /* \"#utility.yul\":532:556   */\n  tag_21\n  jump\t// in\ntag_35:\n    /* \"#utility.yul\":521:556   */\n  swap1\n  pop\n    /* \"#utility.yul\":466:562   */\n  swap2\n  swap1\n  pop\n  jump\t// out\n    /* \"#utility.yul\":568:690   */\ntag_23:\n    /* \"#utility.yul\":641:665   */\n  tag_37\n    /* \"#utility.yul\":659:664   */\n  dup2\n    /* \"#utility.yul\":641:665   */\n  tag_22\n  jump\t// in\ntag_37:\n    /* \"#utility.yul\":634:639   */\n  dup2\n    /* \"#utility.yul\":631:666   */\n  eq\n    /* \"#utility.yul\":621:684   */\n  tag_38\n  jumpi\n    /* \"#utility.yul\":680:681   */\n  0x00\n    /* \"#utility.yul\":677:678   */\n  0x00\n    /* \"#utility.yul\":670:682   */\n  revert\n    /* \"#utility.yul\":621:684   */\ntag_38:\n    /* \"#utility.yul\":568:690   */\n  pop\n  jump\t// out\n    /* \"#utility.yul\":696:839   */\ntag_24:\n    /* \"#utility.yul\":753:758   */\n  0x00\n    /* \"#utility.yul\":784:790   */\n  dup2\n    /* \"#utility.yul\":778:791   */\n  mload\n    /* \"#utility.yul\":769:791   */\n  swap1\n  pop\n    /* \"#utility.yul\":800:833   */\n  tag_40\n    /* \"#utility.yul\":827:832   */\n  dup2\n    /* \"#utility.yul\":800:833   */\n  tag_23\n  jump\t// in\ntag_40:\n    /* \"#utility.yul\":696:839   */\n  swap3\n  swap2\n  pop\n  pop\n  jump\t// out\n    /* \"#utility.yul\":845:1196   */\ntag_3:\n    /* \"#utility.yul\":915:921   */\n  0x00\n    /* \"#utility.yul\":964:966   */\n  0x20\n    /* \"#utility.yul\":952:961   */\n  dup3\n    /* \"#utility.yul\":943:950   */\n  dup5\n    /* \"#utility.yul\":939:962   */\n  sub\n    /* \"#utility.yul\":935:967   */\n  slt\n    /* \"#utility.yul\":932:1051   */\n  iszero\n  tag_42\n  jumpi\n    /* \"#utility.yul\":970:1049   */\n  tag_43\n  tag_19\n  jump\t// in\ntag_43:\n    /* \"#utility.yul\":932:1051   */\ntag_42:\n    /* \"#utility.yul\":1090:1091   */\n  0x00\n    /* \"#utility.yul\":1115:1179   */\n  tag_44\n    /* \"#utility.yul\":1171:1178   */\n  dup5\n    /* \"#utility.yul\":1162:1168   */\n  dup3\n    /* \"#utility.yul\":1151:1160   */\n  dup6\n    /* \"#utility.yul\":1147:1169   */\n  add\n    /* \"#utility.yul\":1115:1179   */\n  tag_24\n  jump\t// in\ntag_44:\n    /* \"#utility.yul\":1105:1179   */\n  swap2\n  pop\n    /* \"#utility.yul\":1061:1189   */\n  pop\n    /* \"#utility.yul\":845:1196   */\n  swap3\n  swap2\n  pop\n  pop\n  jump\t// out\n    /* \"#utility.yul\":1202:1320   */\ntag_25:\n    /* \"#utility.yul\":1289:1313   */\n  tag_46\n    /* \"#utility.yul\":1307:1312   */\n  dup2\n    /* \"#utility.yul\":1289:1313   */\n  tag_22\n  jump\t// in\ntag_46:\n    /* \"#utility.yul\":1284:1287   */\n  dup3\n    /* \"#utility.yul\":1277:1314   */\n  mstore\n    /* \"#utility.yul\":1202:1320   */\n  pop\n  pop\n  jump\t// out\n    /* \"#utility.yul\":1326:1548   */\ntag_9:\n    /* \"#utility.yul\":1419:1423   */\n  0x00\n    /* \"#utility.yul\":1457:1459   */\n  0x20\n    /* \"#utility.yul\":1446:1455   */\n  dup3\n    /* \"#utility.yul\":1442:1460   */\n  add\n    /* \"#utility.yul\":1434:1460   */\n  swap1\n  pop\n    /* \"#utility.yul\":1470:1541   */\n  tag_48\n    /* \"#utility.yul\":1538:1539   */\n  0x00\n    /* \"#utility.yul\":1527:1536   */\n  dup4\n    /* \"#utility.yul\":1523:1540   */\n  add\n    /* \"#utility.yul\":1514:1520   */\n  dup5\n    /* \"#utility.yul\":1470:1541   */\n  tag_25\n  jump\t// in\ntag_48:\n    /* \"#utility.yul\":1326:1548   */\n  swap3\n  swap2\n  pop\n  pop\n  jump\t// out\n    /* \"#utility.yul\":1554:1723   */\ntag_26:\n    /* \"#utility.yul\":1638:1649   */\n  0x00\n    /* \"#utility.yul\":1672:1678   */\n  dup3\n    /* \"#utility.yul\":1667:1670   */\n  dup3\n    /* \"#utility.yul\":1660:1679   */\n  mstore\n    /* \"#utility.yul\":1712:1716   */\n  0x20\n    /* \"#utility.yul\":1707:1710   */\n  dup3\n    /* \"#utility.yul\":1703:1717   */\n  add\n    /* \"#utility.yul\":1688:1717   */\n  swap1\n  pop\n    /* \"#utility.yul\":1554:1723   */\n  swap3\n  swap2\n  pop\n  pop\n  jump\t// out\n    /* \"#utility.yul\":1729:1907   */\ntag_27:\n    /* \"#utility.yul\":1869:1899   */\n  0x546f6b656e20616464726573732063616e6e6f74206265207a65726f00000000\n    /* \"#utility.yul\":1865:1866   */\n  0x00\n    /* \"#utility.yul\":1857:1863   */\n  dup3\n    /* \"#utility.yul\":1853:1867   */\n  add\n    /* \"#utility.yul\":1846:1900   */\n  mstore\n    /* \"#utility.yul\":1729:1907   */\n  pop\n  jump\t// out\n    /* \"#utility.yul\":1913:2279   */\ntag_28:\n    /* \"#utility.yul\":2055:2058   */\n  0x00\n    /* \"#utility.yul\":2076:2143   */\n  tag_52\n    /* \"#utility.yul\":2140:2142   */\n  0x1c\n    /* \"#utility.yul\":2135:2138   */\n  dup4\n    /* \"#utility.yul\":2076:2143   */\n  tag_26\n  jump\t// in\ntag_52:\n    /* \"#utility.yul\":2069:2143   */\n  swap2\n  pop\n    /* \"#utility.yul\":2152:2245   */\n  tag_53\n    /* \"#utility.yul\":2241:2244   */\n  dup3\n    /* \"#utility.yul\":2152:2245   */\n  tag_27\n  jump\t// in\ntag_53:\n    /* \"#utility.yul\":2270:2272   */\n  0x20\n    /* \"#utility.yul\":2265:2268   */\n  dup3\n    /* \"#utility.yul\":2261:2273   */\n  add\n    /* \"#utility.yul\":2254:2273   */\n  swap1\n  pop\n    /* \"#utility.yul\":1913:2279   */\n  swap2\n  swap1\n  pop\n  jump\t// out\n    /* \"#utility.yul\":2285:2704   */\ntag_15:\n    /* \"#utility.yul\":2451:2455   */\n  0x00\n    /* \"#utility.yul\":2489:2491   */\n  0x20\n    /* \"#utility.yul\":2478:2487   */\n  dup3\n    /* \"#utility.yul\":2474:2492   */\n  add\n    /* \"#utility.yul\":2466:2492   */\n  swap1\n  pop\n    /* \"#utility.yul\":2538:2547   */\n  dup2\n    /* \"#utility.yul\":2532:2536   */\n  dup2\n    /* \"#utility.yul\":2528:2548   */\n  sub\n    /* \"#utility.yul\":2524:2525   */\n  0x00\n    /* \"#utility.yul\":2513:2522   */\n  dup4\n    /* \"#utility.yul\":2509:2526   */\n  add\n    /* \"#utility.yul\":2502:2549   */\n  mstore\n    /* \"#utility.yul\":2566:2697   */\n  tag_55\n    /* \"#utility.yul\":2692:2696   */\n  dup2\n    /* \"#utility.yul\":2566:2697   */\n  tag_28\n  jump\t// in\ntag_55:\n    /* \"#utility.yul\":2558:2697   */\n  swap1\n  pop\n    /* \"#utility.yul\":2285:2704   */\n  swap2\n  swap1\n  pop\n  jump\t// out\n    /* \"contracts/LandFIStake2.sol\":362:7757  contract LandFiStaking is Ownable(msg.sender) {... */\ntag_16:\n  mload(0x80)\n  codecopy(0x00, dataOffset(sub_0), dataSize(sub_0))\n  0x00\n  assignImmutable(\"0x8933cd72e164c9b6ce552201c117297f7873e41b74a3438d5253e75d613ffbad\")\n  return(0x00, dataSize(sub_0))\nstop\n\nsub_0: assembly {\n        /* \"contracts/LandFIStake2.sol\":362:7757  contract LandFiStaking is Ownable(msg.sender) {... */\n      mstore(0x40, 0x80)\n      callvalue\n      dup1\n      iszero\n      tag_1\n      jumpi\n      revert(0x00, 0x00)\n    tag_1:\n      pop\n      jumpi(tag_2, lt(calldatasize, 0x04))\n      shr(0xe0, calldataload(0x00))\n      dup1\n      0x7b3e920c\n      gt\n      tag_47\n      jumpi\n      dup1\n      0xd0bcc009\n      gt\n      tag_48\n      jumpi\n      dup1\n      0xe7de2ceb\n      gt\n      tag_49\n      jumpi\n      dup1\n      0xe7de2ceb\n      eq\n      tag_41\n      jumpi\n      dup1\n      0xea1b28e0\n      eq\n      tag_42\n      jumpi\n      dup1\n      0xf1cddd55\n      eq\n      tag_43\n      jumpi\n      dup1\n      0xf2fde38b\n      eq\n      tag_44\n      jumpi\n      dup1\n      0xf908dc13\n      eq\n      tag_45\n      jumpi\n      dup1\n      0xfd2b5202\n      eq\n      tag_46\n      jumpi\n      jump(tag_2)\n    tag_49:\n      dup1\n      0xd0bcc009\n      eq\n      tag_36\n      jumpi\n      dup1\n      0xd19b090e\n      eq\n      tag_37\n      jumpi\n      dup1\n      0xd47c56e5\n      eq\n      tag_38\n      jumpi\n      dup1\n      0xd5c41d69\n      eq\n      tag_39\n      jumpi\n      dup1\n      0xd7d4918e\n      eq\n      tag_40\n      jumpi\n      jump(tag_2)\n    tag_48:\n      dup1\n      0x94387289\n      gt\n      tag_50\n      jumpi\n      dup1\n      0x94387289\n      eq\n      tag_30\n      jumpi\n      dup1\n      0xb39dc996\n      eq\n      tag_31\n      jumpi\n      dup1\n      0xbba4fefd\n      eq\n      tag_32\n      jumpi\n      dup1\n      0xbef7d12e\n      eq\n      tag_33\n      jumpi\n      dup1\n      0xc3630edb\n      eq\n      tag_34\n      jumpi\n      dup1\n      0xcd5692ee\n      eq\n      tag_35\n      jumpi\n      jump(tag_2)\n    tag_50:\n      dup1\n      0x7b3e920c\n      eq\n      tag_25\n      jumpi\n      dup1\n      0x817b1cd2\n      eq\n      tag_26\n      jumpi\n      dup1\n      0x89b0040a\n      eq\n      tag_27\n      jumpi\n      dup1\n      0x8a170ac1\n      eq\n      tag_28\n      jumpi\n      dup1\n      0x8da5cb5b\n      eq\n      tag_29\n      jumpi\n      jump(tag_2)\n    tag_47:\n      dup1\n      0x4b0c10d8\n      gt\n      tag_51\n      jumpi\n      dup1\n      0x6cbde5cf\n      gt\n      tag_52\n      jumpi\n      dup1\n      0x6cbde5cf\n      eq\n      tag_19\n      jumpi\n      dup1\n      0x70a08231\n      eq\n      tag_20\n      jumpi\n      dup1\n      0x715018a6\n      eq\n      tag_21\n      jumpi\n      dup1\n      0x73dec718\n      eq\n      tag_22\n      jumpi\n      dup1\n      0x79085425\n      eq\n      tag_23\n      jumpi\n      dup1\n      0x798cbe5e\n      eq\n      tag_24\n      jumpi\n      jump(tag_2)\n    tag_52:\n      dup1\n      0x4b0c10d8\n      eq\n      tag_14\n      jumpi\n      dup1\n      0x4b5effc2\n      eq\n      tag_15\n      jumpi\n      dup1\n      0x4f51d090\n      eq\n      tag_16\n      jumpi\n      dup1\n      0x5cd5a159\n      eq\n      tag_17\n      jumpi\n      dup1\n      0x5f75bcea\n      eq\n      tag_18\n      jumpi\n      jump(tag_2)\n    tag_51:\n      dup1\n      0x292a6b19\n      gt\n      tag_53\n      jumpi\n      dup1\n      0x292a6b19\n      eq\n      tag_8\n      jumpi\n      dup1\n      0x2e5f89ef\n      eq\n      tag_9\n      jumpi\n      dup1\n      0x35e63055\n      eq\n      tag_10\n      jumpi\n      dup1\n      0x375b3c0a\n      eq\n      tag_11\n      jumpi\n      dup1\n      0x38dc97fb\n      eq\n      tag_12\n      jumpi\n      dup1\n      0x4893afc1\n      eq\n      tag_13\n      jumpi\n      jump(tag_2)\n    tag_53:\n      dup1\n      0x058df0e8\n      eq\n      tag_3\n      jumpi\n      dup1\n      0x1d95985b\n      eq\n      tag_4\n      jumpi\n      dup1\n      0x1d95d52f\n      eq\n      tag_5\n      jumpi\n      dup1\n      0x23dcdb89\n      eq\n      tag_6\n      jumpi\n      dup1\n      0x24ebd9d2\n      eq\n      tag_7\n      jumpi\n    tag_2:\n      revert(0x00, 0x00)\n        /* \"contracts/LandFIStake2.sol\":763:810  mapping (address => uint256) public box2Balance */\n    tag_3:\n      tag_54\n      0x04\n      dup1\n      calldatasize\n      sub\n      dup2\n      add\n      swap1\n      tag_55\n      swap2\n      swap1\n      tag_56\n      jump\t// in\n    tag_55:\n      tag_57\n      jump\t// in\n    tag_54:\n      mload(0x40)\n      tag_58\n      swap2\n      swap1\n      tag_59\n      jump\t// in\n    tag_58:\n      mload(0x40)\n      dup1\n      swap2\n      sub\n      swap1\n      return\n        /* \"contracts/LandFIStake2.sol\":1109:1132  uint256 public box3Time */\n    tag_4:\n      tag_60\n      tag_61\n      jump\t// in\n    tag_60:\n      mload(0x40)\n      tag_62\n      swap2\n      swap1\n      tag_59\n      jump\t// in\n    tag_62:\n      mload(0x40)\n      dup1\n      swap2\n      sub\n      swap1\n      return\n        /* \"contracts/LandFIStake2.sol\":2713:2796  function changeBox4Status(bool status) external onlyOwner { box4Enabled = status; } */\n    tag_5:\n      tag_63\n      0x04\n      dup1\n      calldatasize\n      sub\n      dup2\n      add\n      swap1\n      tag_64\n      swap2\n      swap1\n      tag_65\n      jump\t// in\n    tag_64:\n      tag_66\n      jump\t// in\n    tag_63:\n      stop\n        /* \"contracts/LandFIStake2.sol\":2984:3065  function changeMinStake(uint256 amount) external onlyOwner { minStake = amount; } */\n    tag_6:\n      tag_67\n      0x04\n      dup1\n      calldatasize\n      sub\n      dup2\n      add\n      swap1\n      tag_68\n      swap2\n      swap1\n      tag_69\n      jump\t// in\n    tag_68:\n      tag_70\n      jump\t// in\n    tag_67:\n      stop\n        /* \"contracts/LandFIStake2.sol\":1171:1218  mapping (address => uint256) public box4Balance */\n    tag_7:\n      tag_71\n      0x04\n      dup1\n      calldatasize\n      sub\n      dup2\n      add\n      swap1\n      tag_72\n      swap2\n      swap1\n      tag_56\n      jump\t// in\n    tag_72:\n      tag_73\n      jump\t// in\n    tag_71:\n      mload(0x40)\n      tag_74\n      swap2\n      swap1\n      tag_59\n      jump\t// in\n    tag_74:\n      mload(0x40)\n      dup1\n      swap2\n      sub\n      swap1\n      return\n        /* \"contracts/LandFIStake2.sol\":515:550  IERC20 public immutable landFiToken */\n    tag_8:\n      tag_75\n      tag_76\n      jump\t// in\n    tag_75:\n      mload(0x40)\n      tag_77\n      swap2\n      swap1\n      tag_78\n      jump\t// in\n    tag_77:\n      mload(0x40)\n      dup1\n      swap2\n      sub\n      swap1\n      return\n        /* \"contracts/LandFIStake2.sol\":967:1014  mapping (address => uint256) public box3Balance */\n    tag_9:\n      tag_79\n      0x04\n      dup1\n      calldatasize\n      sub\n      dup2\n      add\n      swap1\n      tag_80\n      swap2\n      swap1\n      tag_56\n      jump\t// in\n    tag_80:\n      tag_81\n      jump\t// in\n    tag_79:\n      mload(0x40)\n      tag_82\n      swap2\n      swap1\n      tag_59\n      jump\t// in\n    tag_82:\n      mload(0x40)\n      dup1\n      swap2\n      sub\n      swap1\n      return\n        /* \"contracts/LandFIStake2.sol\":5679:7754  function pullStake(uint256 boxNo) external {... */\n    tag_10:\n      tag_83\n      0x04\n      dup1\n      calldatasize\n      sub\n      dup2\n      add\n      swap1\n      tag_84\n      swap2\n      swap1\n      tag_69\n      jump\t// in\n    tag_84:\n      tag_85\n      jump\t// in\n    tag_83:\n      stop\n        /* \"contracts/LandFIStake2.sol\":1495:1518  uint256 public minStake */\n    tag_11:\n      tag_86\n      tag_87\n      jump\t// in\n    tag_86:\n      mload(0x40)\n      tag_88\n      swap2\n      swap1\n      tag_59\n      jump\t// in\n    tag_88:\n      mload(0x40)\n      dup1\n      swap2\n      sub\n      swap1\n      return\n        /* \"contracts/LandFIStake2.sol\":1225:1276  mapping (address => uint256) public box4DepositDate */\n    tag_12:\n      tag_89\n      0x04\n      dup1\n      calldatasize\n      sub\n      dup2\n      add\n      swap1\n      tag_90\n      swap2\n      swap1\n      tag_56\n      jump\t// in\n    tag_90:\n      tag_91\n      jump\t// in\n    tag_89:\n      mload(0x40)\n      tag_92\n      swap2\n      swap1\n      tag_59\n      jump\t// in\n    tag_92:\n      mload(0x40)\n      dup1\n      swap2\n      sub\n      swap1\n      return\n        /* \"contracts/LandFIStake2.sol\":559:606  mapping (address => uint256) public box1Balance */\n    tag_13:\n      tag_93\n      0x04\n      dup1\n      calldatasize\n      sub\n      dup2\n      add\n      swap1\n      tag_94\n      swap2\n      swap1\n      tag_56\n      jump\t// in\n    tag_94:\n      tag_95\n      jump\t// in\n    tag_93:\n      mload(0x40)\n      tag_96\n      swap2\n      swap1\n      tag_59\n      jump\t// in\n    tag_96:\n      mload(0x40)\n      dup1\n      swap2\n      sub\n      swap1\n      return\n        /* \"contracts/LandFIStake2.sol\":701:724  uint256 public box1Time */\n    tag_14:\n      tag_97\n      tag_98\n      jump\t// in\n    tag_97:\n      mload(0x40)\n      tag_99\n      swap2\n      swap1\n      tag_59\n      jump\t// in\n    tag_99:\n      mload(0x40)\n      dup1\n      swap2\n      sub\n      swap1\n      return\n        /* \"contracts/LandFIStake2.sol\":3720:4031  function stakeAmount(address user, uint256 boxNo) public view returns (uint256) {... */\n    tag_15:\n      tag_100\n      0x04\n      dup1\n      calldatasize\n      sub\n      dup2\n      add\n      swap1\n      tag_101\n      swap2\n      swap1\n      tag_102\n      jump\t// in\n    tag_101:\n      tag_103\n      jump\t// in\n    tag_100:\n      mload(0x40)\n      tag_104\n      swap2\n      swap1\n      tag_59\n      jump\t// in\n    tag_104:\n      mload(0x40)\n      dup1\n      swap2\n      sub\n      swap1\n      return\n        /* \"contracts/LandFIStake2.sol\":613:664  mapping (address => uint256) public box1DepositDate */\n    tag_16:\n      tag_105\n      0x04\n      dup1\n      calldatasize\n      sub\n      dup2\n      add\n      swap1\n      tag_106\n      swap2\n      swap1\n      tag_56\n      jump\t// in\n    tag_106:\n      tag_107\n      jump\t// in\n    tag_105:\n      mload(0x40)\n      tag_108\n      swap2\n      swap1\n      tag_59\n      jump\t// in\n    tag_108:\n      mload(0x40)\n      dup1\n      swap2\n      sub\n      swap1\n      return\n        /* \"contracts/LandFIStake2.sol\":1343:1366  bool public box4Enabled */\n    tag_17:\n      tag_109\n      tag_110\n      jump\t// in\n    tag_109:\n      mload(0x40)\n      tag_111\n      swap2\n      swap1\n      tag_112\n      jump\t// in\n    tag_111:\n      mload(0x40)\n      dup1\n      swap2\n      sub\n      swap1\n      return\n        /* \"contracts/LandFIStake2.sol\":2535:2618  function changeBox2Status(bool status) external onlyOwner { box2Enabled = status; } */\n    tag_18:\n      tag_113\n      0x04\n      dup1\n      calldatasize\n      sub\n      dup2\n      add\n      swap1\n      tag_114\n      swap2\n      swap1\n      tag_65\n      jump\t// in\n    tag_114:\n      tag_115\n      jump\t// in\n    tag_113:\n      stop\n        /* \"contracts/LandFIStake2.sol\":2446:2529  function changeBox1Status(bool status) external onlyOwner { box1Enabled = status; } */\n    tag_19:\n      tag_116\n      0x04\n      dup1\n      calldatasize\n      sub\n      dup2\n      add\n      swap1\n      tag_117\n      swap2\n      swap1\n      tag_65\n      jump\t// in\n    tag_117:\n      tag_118\n      jump\t// in\n    tag_116:\n      stop\n        /* \"contracts/LandFIStake2.sol\":3161:3329  function balanceOf(address user) external view returns (uint256) {... */\n    tag_20:\n      tag_119\n      0x04\n      dup1\n      calldatasize\n      sub\n      dup2\n      add\n      swap1\n      tag_120\n      swap2\n      swap1\n      tag_56\n      jump\t// in\n    tag_120:\n      tag_121\n      jump\t// in\n    tag_119:\n      mload(0x40)\n      tag_122\n      swap2\n      swap1\n      tag_59\n      jump\t// in\n    tag_122:\n      mload(0x40)\n      dup1\n      swap2\n      sub\n      swap1\n      return\n        /* \"@openzeppelin/contracts/access/Ownable.sol\":2293:2394  function renounceOwnership() public virtual onlyOwner {... */\n    tag_21:\n      tag_123\n      tag_124\n      jump\t// in\n    tag_123:\n      stop\n        /* \"contracts/LandFIStake2.sol\":935:958  bool public box2Enabled */\n    tag_22:\n      tag_125\n      tag_126\n      jump\t// in\n    tag_125:\n      mload(0x40)\n      tag_127\n      swap2\n      swap1\n      tag_112\n      jump\t// in\n    tag_127:\n      mload(0x40)\n      dup1\n      swap2\n      sub\n      swap1\n      return\n        /* \"contracts/LandFIStake2.sol\":1561:1587  uint256 public rewardCount */\n    tag_23:\n      tag_128\n      tag_129\n      jump\t// in\n    tag_128:\n      mload(0x40)\n      tag_130\n      swap2\n      swap1\n      tag_59\n      jump\t// in\n    tag_130:\n      mload(0x40)\n      dup1\n      swap2\n      sub\n      swap1\n      return\n        /* \"contracts/LandFIStake2.sol\":1313:1336  uint256 public box4Time */\n    tag_24:\n      tag_131\n      tag_132\n      jump\t// in\n    tag_131:\n      mload(0x40)\n      tag_133\n      swap2\n      swap1\n      tag_59\n      jump\t// in\n    tag_133:\n      mload(0x40)\n      dup1\n      swap2\n      sub\n      swap1\n      return\n        /* \"contracts/LandFIStake2.sol\":817:868  mapping (address => uint256) public box2DepositDate */\n    tag_25:\n      tag_134\n      0x04\n      dup1\n      calldatasize\n      sub\n      dup2\n      add\n      swap1\n      tag_135\n      swap2\n      swap1\n      tag_56\n      jump\t// in\n    tag_135:\n      tag_136\n      jump\t// in\n    tag_134:\n      mload(0x40)\n      tag_137\n      swap2\n      swap1\n      tag_59\n      jump\t// in\n    tag_137:\n      mload(0x40)\n      dup1\n      swap2\n      sub\n      swap1\n      return\n        /* \"contracts/LandFIStake2.sol\":1594:1620  uint256 public totalStaked */\n    tag_26:\n      tag_138\n      tag_139\n      jump\t// in\n    tag_138:\n      mload(0x40)\n      tag_140\n      swap2\n      swap1\n      tag_59\n      jump\t// in\n    tag_140:\n      mload(0x40)\n      dup1\n      swap2\n      sub\n      swap1\n      return\n        /* \"contracts/LandFIStake2.sol\":1021:1072  mapping (address => uint256) public box3DepositDate */\n    tag_27:\n      tag_141\n      0x04\n      dup1\n      calldatasize\n      sub\n      dup2\n      add\n      swap1\n      tag_142\n      swap2\n      swap1\n      tag_56\n      jump\t// in\n    tag_142:\n      tag_143\n      jump\t// in\n    tag_141:\n      mload(0x40)\n      tag_144\n      swap2\n      swap1\n      tag_59\n      jump\t// in\n    tag_144:\n      mload(0x40)\n      dup1\n      swap2\n      sub\n      swap1\n      return\n        /* \"contracts/LandFIStake2.sol\":731:754  bool public box1Enabled */\n    tag_28:\n      tag_145\n      tag_146\n      jump\t// in\n    tag_145:\n      mload(0x40)\n      tag_147\n      swap2\n      swap1\n      tag_112\n      jump\t// in\n    tag_147:\n      mload(0x40)\n      dup1\n      swap2\n      sub\n      swap1\n      return\n        /* \"@openzeppelin/contracts/access/Ownable.sol\":1638:1723  function owner() public view virtual returns (address) {... */\n    tag_29:\n      tag_148\n      tag_149\n      jump\t// in\n    tag_148:\n      mload(0x40)\n      tag_150\n      swap2\n      swap1\n      tag_151\n      jump\t// in\n    tag_150:\n      mload(0x40)\n      dup1\n      swap2\n      sub\n      swap1\n      return\n        /* \"contracts/LandFIStake2.sol\":2802:2891  function changeMaxRewardDue(uint256 amount) external onlyOwner { maxRewardDue = amount; } */\n    tag_30:\n      tag_152\n      0x04\n      dup1\n      calldatasize\n      sub\n      dup2\n      add\n      swap1\n      tag_153\n      swap2\n      swap1\n      tag_69\n      jump\t// in\n    tag_153:\n      tag_154\n      jump\t// in\n    tag_152:\n      stop\n        /* \"contracts/LandFIStake2.sol\":1079:1102  uint256 public box3Rate */\n    tag_31:\n      tag_155\n      tag_156\n      jump\t// in\n    tag_155:\n      mload(0x40)\n      tag_157\n      swap2\n      swap1\n      tag_59\n      jump\t// in\n    tag_157:\n      mload(0x40)\n      dup1\n      swap2\n      sub\n      swap1\n      return\n        /* \"contracts/LandFIStake2.sol\":1525:1554  uint256 public rewardCountDue */\n    tag_32:\n      tag_158\n      tag_159\n      jump\t// in\n    tag_158:\n      mload(0x40)\n      tag_160\n      swap2\n      swap1\n      tag_59\n      jump\t// in\n    tag_160:\n      mload(0x40)\n      dup1\n      swap2\n      sub\n      swap1\n      return\n        /* \"contracts/LandFIStake2.sol\":3337:3712  function stakeUnlockTime(address user, uint256 boxNo) public view returns (uint256) {... */\n    tag_33:\n      tag_161\n      0x04\n      dup1\n      calldatasize\n      sub\n      dup2\n      add\n      swap1\n      tag_162\n      swap2\n      swap1\n      tag_102\n      jump\t// in\n    tag_162:\n      tag_163\n      jump\t// in\n    tag_161:\n      mload(0x40)\n      tag_164\n      swap2\n      swap1\n      tag_59\n      jump\t// in\n    tag_164:\n      mload(0x40)\n      dup1\n      swap2\n      sub\n      swap1\n      return\n        /* \"contracts/LandFIStake2.sol\":1283:1306  uint256 public box4Rate */\n    tag_34:\n      tag_165\n      tag_166\n      jump\t// in\n    tag_165:\n      mload(0x40)\n      tag_167\n      swap2\n      swap1\n      tag_59\n      jump\t// in\n    tag_167:\n      mload(0x40)\n      dup1\n      swap2\n      sub\n      swap1\n      return\n        /* \"contracts/LandFIStake2.sol\":2897:2978  function changeMaxStake(uint256 amount) external onlyOwner { maxStake = amount; } */\n    tag_35:\n      tag_168\n      0x04\n      dup1\n      calldatasize\n      sub\n      dup2\n      add\n      swap1\n      tag_169\n      swap2\n      swap1\n      tag_69\n      jump\t// in\n    tag_169:\n      tag_170\n      jump\t// in\n    tag_168:\n      stop\n        /* \"contracts/LandFIStake2.sol\":1139:1162  bool public box3Enabled */\n    tag_36:\n      tag_171\n      tag_172\n      jump\t// in\n    tag_171:\n      mload(0x40)\n      tag_173\n      swap2\n      swap1\n      tag_112\n      jump\t// in\n    tag_173:\n      mload(0x40)\n      dup1\n      swap2\n      sub\n      swap1\n      return\n        /* \"contracts/LandFIStake2.sol\":1627:1654  uint256 public maxRewardDue */\n    tag_37:\n      tag_174\n      tag_175\n      jump\t// in\n    tag_174:\n      mload(0x40)\n      tag_176\n      swap2\n      swap1\n      tag_59\n      jump\t// in\n    tag_176:\n      mload(0x40)\n      dup1\n      swap2\n      sub\n      swap1\n      return\n        /* \"contracts/LandFIStake2.sol\":905:928  uint256 public box2Time */\n    tag_38:\n      tag_177\n      tag_178\n      jump\t// in\n    tag_177:\n      mload(0x40)\n      tag_179\n      swap2\n      swap1\n      tag_59\n      jump\t// in\n    tag_179:\n      mload(0x40)\n      dup1\n      swap2\n      sub\n      swap1\n      return\n        /* \"contracts/LandFIStake2.sol\":2624:2707  function changeBox3Status(bool status) external onlyOwner { box3Enabled = status; } */\n    tag_39:\n      tag_180\n      0x04\n      dup1\n      calldatasize\n      sub\n      dup2\n      add\n      swap1\n      tag_181\n      swap2\n      swap1\n      tag_65\n      jump\t// in\n    tag_181:\n      tag_182\n      jump\t// in\n    tag_180:\n      stop\n        /* \"contracts/LandFIStake2.sol\":875:898  uint256 public box2Rate */\n    tag_40:\n      tag_183\n      tag_184\n      jump\t// in\n    tag_183:\n      mload(0x40)\n      tag_185\n      swap2\n      swap1\n      tag_59\n      jump\t// in\n    tag_185:\n      mload(0x40)\n      dup1\n      swap2\n      sub\n      swap1\n      return\n        /* \"contracts/LandFIStake2.sol\":671:694  uint256 public box1Rate */\n    tag_41:\n      tag_186\n      tag_187\n      jump\t// in\n    tag_186:\n      mload(0x40)\n      tag_188\n      swap2\n      swap1\n      tag_59\n      jump\t// in\n    tag_188:\n      mload(0x40)\n      dup1\n      swap2\n      sub\n      swap1\n      return\n        /* \"contracts/LandFIStake2.sol\":1465:1488  uint256 public maxStake */\n    tag_42:\n      tag_189\n      tag_190\n      jump\t// in\n    tag_189:\n      mload(0x40)\n      tag_191\n      swap2\n      swap1\n      tag_59\n      jump\t// in\n    tag_191:\n      mload(0x40)\n      dup1\n      swap2\n      sub\n      swap1\n      return\n        /* \"contracts/LandFIStake2.sol\":3071:3153  function changeFullUnlock(bool unlock) external onlyOwner { fullUnlock = unlock; } */\n    tag_43:\n      tag_192\n      0x04\n      dup1\n      calldatasize\n      sub\n      dup2\n      add\n      swap1\n      tag_193\n      swap2\n      swap1\n      tag_65\n      jump\t// in\n    tag_193:\n      tag_194\n      jump\t// in\n    tag_192:\n      stop\n        /* \"@openzeppelin/contracts/access/Ownable.sol\":2543:2758  function transferOwnership(address newOwner) public virtual onlyOwner {... */\n    tag_44:\n      tag_195\n      0x04\n      dup1\n      calldatasize\n      sub\n      dup2\n      add\n      swap1\n      tag_196\n      swap2\n      swap1\n      tag_56\n      jump\t// in\n    tag_196:\n      tag_197\n      jump\t// in\n    tag_195:\n      stop\n        /* \"contracts/LandFIStake2.sol\":1663:1685  bool public fullUnlock */\n    tag_45:\n      tag_198\n      tag_199\n      jump\t// in\n    tag_198:\n      mload(0x40)\n      tag_200\n      swap2\n      swap1\n      tag_112\n      jump\t// in\n    tag_200:\n      mload(0x40)\n      dup1\n      swap2\n      sub\n      swap1\n      return\n        /* \"contracts/LandFIStake2.sol\":4039:5671  function addStake(uint256 amount, uint256 boxNo) external {... */\n    tag_46:\n      tag_201\n      0x04\n      dup1\n      calldatasize\n      sub\n      dup2\n      add\n      swap1\n      tag_202\n      swap2\n      swap1\n      tag_203\n      jump\t// in\n    tag_202:\n      tag_204\n      jump\t// in\n    tag_201:\n      stop\n        /* \"contracts/LandFIStake2.sol\":763:810  mapping (address => uint256) public box2Balance */\n    tag_57:\n      mstore(0x20, 0x06)\n      dup1\n      0x00\n      mstore\n      keccak256(0x00, 0x40)\n      0x00\n      swap2\n      pop\n      swap1\n      pop\n      sload\n      dup2\n      jump\t// out\n        /* \"contracts/LandFIStake2.sol\":1109:1132  uint256 public box3Time */\n    tag_61:\n      sload(0x0e)\n      dup2\n      jump\t// out\n        /* \"contracts/LandFIStake2.sol\":2713:2796  function changeBox4Status(bool status) external onlyOwner { box4Enabled = status; } */\n    tag_66:\n        /* \"@openzeppelin/contracts/access/Ownable.sol\":1531:1544  _checkOwner() */\n      tag_206\n        /* \"@openzeppelin/contracts/access/Ownable.sol\":1531:1542  _checkOwner */\n      tag_207\n        /* \"@openzeppelin/contracts/access/Ownable.sol\":1531:1544  _checkOwner() */\n      jump\t// in\n    tag_206:\n        /* \"contracts/LandFIStake2.sol\":2787:2793  status */\n      dup1\n        /* \"contracts/LandFIStake2.sol\":2773:2784  box4Enabled */\n      0x14\n      0x00\n        /* \"contracts/LandFIStake2.sol\":2773:2793  box4Enabled = status */\n      0x0100\n      exp\n      dup2\n      sload\n      dup2\n      0xff\n      mul\n      not\n      and\n      swap1\n      dup4\n      iszero\n      iszero\n      mul\n      or\n      swap1\n      sstore\n      pop\n        /* \"contracts/LandFIStake2.sol\":2713:2796  function changeBox4Status(bool status) external onlyOwner { box4Enabled = status; } */\n      pop\n      jump\t// out\n        /* \"contracts/LandFIStake2.sol\":2984:3065  function changeMinStake(uint256 amount) external onlyOwner { minStake = amount; } */\n    tag_70:\n        /* \"@openzeppelin/contracts/access/Ownable.sol\":1531:1544  _checkOwner() */\n      tag_210\n        /* \"@openzeppelin/contracts/access/Ownable.sol\":1531:1542  _checkOwner */\n      tag_207\n        /* \"@openzeppelin/contracts/access/Ownable.sol\":1531:1544  _checkOwner() */\n      jump\t// in\n    tag_210:\n        /* \"contracts/LandFIStake2.sol\":3056:3062  amount */\n      dup1\n        /* \"contracts/LandFIStake2.sol\":3045:3053  minStake */\n      0x16\n        /* \"contracts/LandFIStake2.sol\":3045:3062  minStake = amount */\n      dup2\n      swap1\n      sstore\n      pop\n        /* \"contracts/LandFIStake2.sol\":2984:3065  function changeMinStake(uint256 amount) external onlyOwner { minStake = amount; } */\n      pop\n      jump\t// out\n        /* \"contracts/LandFIStake2.sol\":1171:1218  mapping (address => uint256) public box4Balance */\n    tag_73:\n      mstore(0x20, 0x10)\n      dup1\n      0x00\n      mstore\n      keccak256(0x00, 0x40)\n      0x00\n      swap2\n      pop\n      swap1\n      pop\n      sload\n      dup2\n      jump\t// out\n        /* \"contracts/LandFIStake2.sol\":515:550  IERC20 public immutable landFiToken */\n    tag_76:\n      immutable(\"0x8933cd72e164c9b6ce552201c117297f7873e41b74a3438d5253e75d613ffbad\")\n      dup2\n      jump\t// out\n        /* \"contracts/LandFIStake2.sol\":967:1014  mapping (address => uint256) public box3Balance */\n    tag_81:\n      mstore(0x20, 0x0b)\n      dup1\n      0x00\n      mstore\n      keccak256(0x00, 0x40)\n      0x00\n      swap2\n      pop\n      swap1\n      pop\n      sload\n      dup2\n      jump\t// out\n        /* \"contracts/LandFIStake2.sol\":5679:7754  function pullStake(uint256 boxNo) external {... */\n    tag_85:\n        /* \"contracts/LandFIStake2.sol\":5750:5751  1 */\n      0x01\n        /* \"contracts/LandFIStake2.sol\":5741:5746  boxNo */\n      dup2\n        /* \"contracts/LandFIStake2.sol\":5741:5751  boxNo >= 1 */\n      lt\n      iszero\n        /* \"contracts/LandFIStake2.sol\":5741:5765  boxNo >= 1 && boxNo <= 4 */\n      dup1\n      iszero\n      tag_213\n      jumpi\n      pop\n        /* \"contracts/LandFIStake2.sol\":5764:5765  4 */\n      0x04\n        /* \"contracts/LandFIStake2.sol\":5755:5760  boxNo */\n      dup2\n        /* \"contracts/LandFIStake2.sol\":5755:5765  boxNo <= 4 */\n      gt\n      iszero\n        /* \"contracts/LandFIStake2.sol\":5741:5765  boxNo >= 1 && boxNo <= 4 */\n    tag_213:\n        /* \"contracts/LandFIStake2.sol\":5733:5781  require(boxNo >= 1 && boxNo <= 4, \"Invalid box\") */\n      tag_214\n      jumpi\n      mload(0x40)\n      0x08c379a000000000000000000000000000000000000000000000000000000000\n      dup2\n      mstore\n      0x04\n      add\n      tag_215\n      swap1\n      tag_216\n      jump\t// in\n    tag_215:\n      mload(0x40)\n      dup1\n      swap2\n      sub\n      swap1\n      revert\n    tag_214:\n        /* \"contracts/LandFIStake2.sol\":5794:5806  address user */\n      0x00\n        /* \"contracts/LandFIStake2.sol\":5809:5819  msg.sender */\n      caller\n        /* \"contracts/LandFIStake2.sol\":5794:5819  address user = msg.sender */\n      swap1\n      pop\n        /* \"contracts/LandFIStake2.sol\":5830:5850  uint256 rewardAmount */\n      0x00\n        /* \"contracts/LandFIStake2.sol\":5861:5875  uint256 amount */\n      0x00\n        /* \"contracts/LandFIStake2.sol\":5901:5902  1 */\n      0x01\n        /* \"contracts/LandFIStake2.sol\":5892:5897  boxNo */\n      dup5\n        /* \"contracts/LandFIStake2.sol\":5892:5902  boxNo == 1 */\n      sub\n        /* \"contracts/LandFIStake2.sol\":5888:7278  if (boxNo == 1) {... */\n      tag_217\n      jumpi\n        /* \"contracts/LandFIStake2.sol\":5928:5939  box1Balance */\n      0x01\n        /* \"contracts/LandFIStake2.sol\":5928:5945  box1Balance[user] */\n      0x00\n        /* \"contracts/LandFIStake2.sol\":5940:5944  user */\n      dup5\n        /* \"contracts/LandFIStake2.sol\":5928:5945  box1Balance[user] */\n      0xffffffffffffffffffffffffffffffffffffffff\n      and\n      0xffffffffffffffffffffffffffffffffffffffff\n      and\n      dup2\n      mstore\n      0x20\n      add\n      swap1\n      dup2\n      mstore\n      0x20\n      add\n      0x00\n      keccak256\n      sload\n        /* \"contracts/LandFIStake2.sol\":5919:5945  amount = box1Balance[user] */\n      swap1\n      pop\n        /* \"contracts/LandFIStake2.sol\":5977:5978  0 */\n      0x00\n        /* \"contracts/LandFIStake2.sol\":5968:5974  amount */\n      dup2\n        /* \"contracts/LandFIStake2.sol\":5968:5978  amount > 0 */\n      gt\n        /* \"contracts/LandFIStake2.sol\":5960:5991  require(amount > 0, \"No stake\") */\n      tag_218\n      jumpi\n      mload(0x40)\n      0x08c379a000000000000000000000000000000000000000000000000000000000\n      dup2\n      mstore\n      0x04\n      add\n      tag_219\n      swap1\n      tag_220\n      jump\t// in\n    tag_219:\n      mload(0x40)\n      dup1\n      swap2\n      sub\n      swap1\n      revert\n    tag_218:\n        /* \"contracts/LandFIStake2.sol\":6014:6024  fullUnlock */\n      0x1b\n      0x00\n      swap1\n      sload\n      swap1\n      0x0100\n      exp\n      swap1\n      div\n      0xff\n      and\n        /* \"contracts/LandFIStake2.sol\":6014:6079  fullUnlock || block.timestamp >= box1DepositDate[user] + box1Time */\n      dup1\n      tag_221\n      jumpi\n      pop\n        /* \"contracts/LandFIStake2.sol\":6071:6079  box1Time */\n      sload(0x04)\n        /* \"contracts/LandFIStake2.sol\":6047:6062  box1DepositDate */\n      0x02\n        /* \"contracts/LandFIStake2.sol\":6047:6068  box1DepositDate[user] */\n      0x00\n        /* \"contracts/LandFIStake2.sol\":6063:6067  user */\n      dup6\n        /* \"contracts/LandFIStake2.sol\":6047:6068  box1DepositDate[user] */\n      0xffffffffffffffffffffffffffffffffffffffff\n      and\n      0xffffffffffffffffffffffffffffffffffffffff\n      and\n      dup2\n      mstore\n      0x20\n      add\n      swap1\n      dup2\n      mstore\n      0x20\n      add\n      0x00\n      keccak256\n      sload\n        /* \"contracts/LandFIStake2.sol\":6047:6079  box1DepositDate[user] + box1Time */\n      tag_222\n      swap2\n      swap1\n      tag_223\n      jump\t// in\n    tag_222:\n        /* \"contracts/LandFIStake2.sol\":6028:6043  block.timestamp */\n      timestamp\n        /* \"contracts/LandFIStake2.sol\":6028:6079  block.timestamp >= box1DepositDate[user] + box1Time */\n      lt\n      iszero\n        /* \"contracts/LandFIStake2.sol\":6014:6079  fullUnlock || block.timestamp >= box1DepositDate[user] + box1Time */\n    tag_221:\n        /* \"contracts/LandFIStake2.sol\":6006:6096  require(fullUnlock || block.timestamp >= box1DepositDate[user] + box1Time, \"Not unlocked\") */\n      tag_224\n      jumpi\n      mload(0x40)\n      0x08c379a000000000000000000000000000000000000000000000000000000000\n      dup2\n      mstore\n      0x04\n      add\n      tag_225\n      swap1\n      tag_226\n      jump\t// in\n    tag_225:\n      mload(0x40)\n      dup1\n      swap2\n      sub\n      swap1\n      revert\n    tag_224:\n        /* \"contracts/LandFIStake2.sol\":6135:6143  box1Rate */\n      sload(0x03)\n        /* \"contracts/LandFIStake2.sol\":6126:6132  amount */\n      dup2\n        /* \"contracts/LandFIStake2.sol\":6126:6143  amount / box1Rate */\n      tag_227\n      swap2\n      swap1\n      tag_228\n      jump\t// in\n    tag_227:\n        /* \"contracts/LandFIStake2.sol\":6111:6143  rewardAmount = amount / box1Rate */\n      swap2\n      pop\n        /* \"contracts/LandFIStake2.sol\":6178:6179  0 */\n      0x00\n        /* \"contracts/LandFIStake2.sol\":6158:6169  box1Balance */\n      0x01\n        /* \"contracts/LandFIStake2.sol\":6158:6175  box1Balance[user] */\n      0x00\n        /* \"contracts/LandFIStake2.sol\":6170:6174  user */\n      dup6\n        /* \"contracts/LandFIStake2.sol\":6158:6175  box1Balance[user] */\n      0xffffffffffffffffffffffffffffffffffffffff\n      and\n      0xffffffffffffffffffffffffffffffffffffffff\n      and\n      dup2\n      mstore\n      0x20\n      add\n      swap1\n      dup2\n      mstore\n      0x20\n      add\n      0x00\n      keccak256\n        /* \"contracts/LandFIStake2.sol\":6158:6179  box1Balance[user] = 0 */\n      dup2\n      swap1\n      sstore\n      pop\n        /* \"contracts/LandFIStake2.sol\":6218:6219  0 */\n      0x00\n        /* \"contracts/LandFIStake2.sol\":6194:6209  box1DepositDate */\n      0x02\n        /* \"contracts/LandFIStake2.sol\":6194:6215  box1DepositDate[user] */\n      0x00\n        /* \"contracts/LandFIStake2.sol\":6210:6214  user */\n      dup6\n        /* \"contracts/LandFIStake2.sol\":6194:6215  box1DepositDate[user] */\n      0xffffffffffffffffffffffffffffffffffffffff\n      and\n      0xffffffffffffffffffffffffffffffffffffffff\n      and\n      dup2\n      mstore\n      0x20\n      add\n      swap1\n      dup2\n      mstore\n      0x20\n      add\n      0x00\n      keccak256\n        /* \"contracts/LandFIStake2.sol\":6194:6219  box1DepositDate[user] = 0 */\n      dup2\n      swap1\n      sstore\n      pop\n        /* \"contracts/LandFIStake2.sol\":5888:7278  if (boxNo == 1) {... */\n      jump(tag_229)\n    tag_217:\n        /* \"contracts/LandFIStake2.sol\":6250:6251  2 */\n      0x02\n        /* \"contracts/LandFIStake2.sol\":6241:6246  boxNo */\n      dup5\n        /* \"contracts/LandFIStake2.sol\":6241:6251  boxNo == 2 */\n      sub\n        /* \"contracts/LandFIStake2.sol\":6237:7278  if (boxNo == 2) {... */\n      tag_230\n      jumpi\n        /* \"contracts/LandFIStake2.sol\":6277:6288  box2Balance */\n      0x06\n        /* \"contracts/LandFIStake2.sol\":6277:6294  box2Balance[user] */\n      0x00\n        /* \"contracts/LandFIStake2.sol\":6289:6293  user */\n      dup5\n        /* \"contracts/LandFIStake2.sol\":6277:6294  box2Balance[user] */\n      0xffffffffffffffffffffffffffffffffffffffff\n      and\n      0xffffffffffffffffffffffffffffffffffffffff\n      and\n      dup2\n      mstore\n      0x20\n      add\n      swap1\n      dup2\n      mstore\n      0x20\n      add\n      0x00\n      keccak256\n      sload\n        /* \"contracts/LandFIStake2.sol\":6268:6294  amount = box2Balance[user] */\n      swap1\n      pop\n        /* \"contracts/LandFIStake2.sol\":6326:6327  0 */\n      0x00\n        /* \"contracts/LandFIStake2.sol\":6317:6323  amount */\n      dup2\n        /* \"contracts/LandFIStake2.sol\":6317:6327  amount > 0 */\n      gt\n        /* \"contracts/LandFIStake2.sol\":6309:6340  require(amount > 0, \"No stake\") */\n      tag_231\n      jumpi\n      mload(0x40)\n      0x08c379a000000000000000000000000000000000000000000000000000000000\n      dup2\n      mstore\n      0x04\n      add\n      tag_232\n      swap1\n      tag_220\n      jump\t// in\n    tag_232:\n      mload(0x40)\n      dup1\n      swap2\n      sub\n      swap1\n      revert\n    tag_231:\n        /* \"contracts/LandFIStake2.sol\":6363:6373  fullUnlock */\n      0x1b\n      0x00\n      swap1\n      sload\n      swap1\n      0x0100\n      exp\n      swap1\n      div\n      0xff\n      and\n        /* \"contracts/LandFIStake2.sol\":6363:6428  fullUnlock || block.timestamp >= box2DepositDate[user] + box2Time */\n      dup1\n      tag_233\n      jumpi\n      pop\n        /* \"contracts/LandFIStake2.sol\":6420:6428  box2Time */\n      sload(0x09)\n        /* \"contracts/LandFIStake2.sol\":6396:6411  box2DepositDate */\n      0x07\n        /* \"contracts/LandFIStake2.sol\":6396:6417  box2DepositDate[user] */\n      0x00\n        /* \"contracts/LandFIStake2.sol\":6412:6416  user */\n      dup6\n        /* \"contracts/LandFIStake2.sol\":6396:6417  box2DepositDate[user] */\n      0xffffffffffffffffffffffffffffffffffffffff\n      and\n      0xffffffffffffffffffffffffffffffffffffffff\n      and\n      dup2\n      mstore\n      0x20\n      add\n      swap1\n      dup2\n      mstore\n      0x20\n      add\n      0x00\n      keccak256\n      sload\n        /* \"contracts/LandFIStake2.sol\":6396:6428  box2DepositDate[user] + box2Time */\n      tag_234\n      swap2\n      swap1\n      tag_223\n      jump\t// in\n    tag_234:\n        /* \"contracts/LandFIStake2.sol\":6377:6392  block.timestamp */\n      timestamp\n        /* \"contracts/LandFIStake2.sol\":6377:6428  block.timestamp >= box2DepositDate[user] + box2Time */\n      lt\n      iszero\n        /* \"contracts/LandFIStake2.sol\":6363:6428  fullUnlock || block.timestamp >= box2DepositDate[user] + box2Time */\n    tag_233:\n        /* \"contracts/LandFIStake2.sol\":6355:6445  require(fullUnlock || block.timestamp >= box2DepositDate[user] + box2Time, \"Not unlocked\") */\n      tag_235\n      jumpi\n      mload(0x40)\n      0x08c379a000000000000000000000000000000000000000000000000000000000\n      dup2\n      mstore\n      0x04\n      add\n      tag_236\n      swap1\n      tag_226\n      jump\t// in\n    tag_236:\n      mload(0x40)\n      dup1\n      swap2\n      sub\n      swap1\n      revert\n    tag_235:\n        /* \"contracts/LandFIStake2.sol\":6484:6492  box2Rate */\n      sload(0x08)\n        /* \"contracts/LandFIStake2.sol\":6475:6481  amount */\n      dup2\n        /* \"contracts/LandFIStake2.sol\":6475:6492  amount / box2Rate */\n      tag_237\n      swap2\n      swap1\n      tag_228\n      jump\t// in\n    tag_237:\n        /* \"contracts/LandFIStake2.sol\":6460:6492  rewardAmount = amount / box2Rate */\n      swap2\n      pop\n        /* \"contracts/LandFIStake2.sol\":6527:6528  0 */\n      0x00\n        /* \"contracts/LandFIStake2.sol\":6507:6518  box2Balance */\n      0x06\n        /* \"contracts/LandFIStake2.sol\":6507:6524  box2Balance[user] */\n      0x00\n        /* \"contracts/LandFIStake2.sol\":6519:6523  user */\n      dup6\n        /* \"contracts/LandFIStake2.sol\":6507:6524  box2Balance[user] */\n      0xffffffffffffffffffffffffffffffffffffffff\n      and\n      0xffffffffffffffffffffffffffffffffffffffff\n      and\n      dup2\n      mstore\n      0x20\n      add\n      swap1\n      dup2\n      mstore\n      0x20\n      add\n      0x00\n      keccak256\n        /* \"contracts/LandFIStake2.sol\":6507:6528  box2Balance[user] = 0 */\n      dup2\n      swap1\n      sstore\n      pop\n        /* \"contracts/LandFIStake2.sol\":6567:6568  0 */\n      0x00\n        /* \"contracts/LandFIStake2.sol\":6543:6558  box2DepositDate */\n      0x07\n        /* \"contracts/LandFIStake2.sol\":6543:6564  box2DepositDate[user] */\n      0x00\n        /* \"contracts/LandFIStake2.sol\":6559:6563  user */\n      dup6\n        /* \"contracts/LandFIStake2.sol\":6543:6564  box2DepositDate[user] */\n      0xffffffffffffffffffffffffffffffffffffffff\n      and\n      0xffffffffffffffffffffffffffffffffffffffff\n      and\n      dup2\n      mstore\n      0x20\n      add\n      swap1\n      dup2\n      mstore\n      0x20\n      add\n      0x00\n      keccak256\n        /* \"contracts/LandFIStake2.sol\":6543:6568  box2DepositDate[user] = 0 */\n      dup2\n      swap1\n      sstore\n      pop\n        /* \"contracts/LandFIStake2.sol\":6237:7278  if (boxNo == 2) {... */\n      jump(tag_238)\n    tag_230:\n        /* \"contracts/LandFIStake2.sol\":6599:6600  3 */\n      0x03\n        /* \"contracts/LandFIStake2.sol\":6590:6595  boxNo */\n      dup5\n        /* \"contracts/LandFIStake2.sol\":6590:6600  boxNo == 3 */\n      sub\n        /* \"contracts/LandFIStake2.sol\":6586:7278  if (boxNo == 3) {... */\n      tag_239\n      jumpi\n        /* \"contracts/LandFIStake2.sol\":6626:6637  box3Balance */\n      0x0b\n        /* \"contracts/LandFIStake2.sol\":6626:6643  box3Balance[user] */\n      0x00\n        /* \"contracts/LandFIStake2.sol\":6638:6642  user */\n      dup5\n        /* \"contracts/LandFIStake2.sol\":6626:6643  box3Balance[user] */\n      0xffffffffffffffffffffffffffffffffffffffff\n      and\n      0xffffffffffffffffffffffffffffffffffffffff\n      and\n      dup2\n      mstore\n      0x20\n      add\n      swap1\n      dup2\n      mstore\n      0x20\n      add\n      0x00\n      keccak256\n      sload\n        /* \"contracts/LandFIStake2.sol\":6617:6643  amount = box3Balance[user] */\n      swap1\n      pop\n        /* \"contracts/LandFIStake2.sol\":6675:6676  0 */\n      0x00\n        /* \"contracts/LandFIStake2.sol\":6666:6672  amount */\n      dup2\n        /* \"contracts/LandFIStake2.sol\":6666:6676  amount > 0 */\n      gt\n        /* \"contracts/LandFIStake2.sol\":6658:6689  require(amount > 0, \"No stake\") */\n      tag_240\n      jumpi\n      mload(0x40)\n      0x08c379a000000000000000000000000000000000000000000000000000000000\n      dup2\n      mstore\n      0x04\n      add\n      tag_241\n      swap1\n      tag_220\n      jump\t// in\n    tag_241:\n      mload(0x40)\n      dup1\n      swap2\n      sub\n      swap1\n      revert\n    tag_240:\n        /* \"contracts/LandFIStake2.sol\":6712:6722  fullUnlock */\n      0x1b\n      0x00\n      swap1\n      sload\n      swap1\n      0x0100\n      exp\n      swap1\n      div\n      0xff\n      and\n        /* \"contracts/LandFIStake2.sol\":6712:6777  fullUnlock || block.timestamp >= box3DepositDate[user] + box3Time */\n      dup1\n      tag_242\n      jumpi\n      pop\n        /* \"contracts/LandFIStake2.sol\":6769:6777  box3Time */\n      sload(0x0e)\n        /* \"contracts/LandFIStake2.sol\":6745:6760  box3DepositDate */\n      0x0c\n        /* \"contracts/LandFIStake2.sol\":6745:6766  box3DepositDate[user] */\n      0x00\n        /* \"contracts/LandFIStake2.sol\":6761:6765  user */\n      dup6\n        /* \"contracts/LandFIStake2.sol\":6745:6766  box3DepositDate[user] */\n      0xffffffffffffffffffffffffffffffffffffffff\n      and\n      0xffffffffffffffffffffffffffffffffffffffff\n      and\n      dup2\n      mstore\n      0x20\n      add\n      swap1\n      dup2\n      mstore\n      0x20\n      add\n      0x00\n      keccak256\n      sload\n        /* \"contracts/LandFIStake2.sol\":6745:6777  box3DepositDate[user] + box3Time */\n      tag_243\n      swap2\n      swap1\n      tag_223\n      jump\t// in\n    tag_243:\n        /* \"contracts/LandFIStake2.sol\":6726:6741  block.timestamp */\n      timestamp\n        /* \"contracts/LandFIStake2.sol\":6726:6777  block.timestamp >= box3DepositDate[user] + box3Time */\n      lt\n      iszero\n        /* \"contracts/LandFIStake2.sol\":6712:6777  fullUnlock || block.timestamp >= box3DepositDate[user] + box3Time */\n    tag_242:\n        /* \"contracts/LandFIStake2.sol\":6704:6794  require(fullUnlock || block.timestamp >= box3DepositDate[user] + box3Time, \"Not unlocked\") */\n      tag_244\n      jumpi\n      mload(0x40)\n      0x08c379a000000000000000000000000000000000000000000000000000000000\n      dup2\n      mstore\n      0x04\n      add\n      tag_245\n      swap1\n      tag_226\n      jump\t// in\n    tag_245:\n      mload(0x40)\n      dup1\n      swap2\n      sub\n      swap1\n      revert\n    tag_244:\n        /* \"contracts/LandFIStake2.sol\":6833:6841  box3Rate */\n      sload(0x0d)\n        /* \"contracts/LandFIStake2.sol\":6824:6830  amount */\n      dup2\n        /* \"contracts/LandFIStake2.sol\":6824:6841  amount / box3Rate */\n      tag_246\n      swap2\n      swap1\n      tag_228\n      jump\t// in\n    tag_246:\n        /* \"contracts/LandFIStake2.sol\":6809:6841  rewardAmount = amount / box3Rate */\n      swap2\n      pop\n        /* \"contracts/LandFIStake2.sol\":6876:6877  0 */\n      0x00\n        /* \"contracts/LandFIStake2.sol\":6856:6867  box3Balance */\n      0x0b\n        /* \"contracts/LandFIStake2.sol\":6856:6873  box3Balance[user] */\n      0x00\n        /* \"contracts/LandFIStake2.sol\":6868:6872  user */\n      dup6\n        /* \"contracts/LandFIStake2.sol\":6856:6873  box3Balance[user] */\n      0xffffffffffffffffffffffffffffffffffffffff\n      and\n      0xffffffffffffffffffffffffffffffffffffffff\n      and\n      dup2\n      mstore\n      0x20\n      add\n      swap1\n      dup2\n      mstore\n      0x20\n      add\n      0x00\n      keccak256\n        /* \"contracts/LandFIStake2.sol\":6856:6877  box3Balance[user] = 0 */\n      dup2\n      swap1\n      sstore\n      pop\n        /* \"contracts/LandFIStake2.sol\":6916:6917  0 */\n      0x00\n        /* \"contracts/LandFIStake2.sol\":6892:6907  box3DepositDate */\n      0x0c\n        /* \"contracts/LandFIStake2.sol\":6892:6913  box3DepositDate[user] */\n      0x00\n        /* \"contracts/LandFIStake2.sol\":6908:6912  user */\n      dup6\n        /* \"contracts/LandFIStake2.sol\":6892:6913  box3DepositDate[user] */\n      0xffffffffffffffffffffffffffffffffffffffff\n      and\n      0xffffffffffffffffffffffffffffffffffffffff\n      and\n      dup2\n      mstore\n      0x20\n      add\n      swap1\n      dup2\n      mstore\n      0x20\n      add\n      0x00\n      keccak256\n        /* \"contracts/LandFIStake2.sol\":6892:6917  box3DepositDate[user] = 0 */\n      dup2\n      swap1\n      sstore\n      pop\n        /* \"contracts/LandFIStake2.sol\":6586:7278  if (boxNo == 3) {... */\n      jump(tag_247)\n    tag_239:\n        /* \"contracts/LandFIStake2.sol\":6948:6949  4 */\n      0x04\n        /* \"contracts/LandFIStake2.sol\":6939:6944  boxNo */\n      dup5\n        /* \"contracts/LandFIStake2.sol\":6939:6949  boxNo == 4 */\n      sub\n        /* \"contracts/LandFIStake2.sol\":6935:7278  if (boxNo == 4) {... */\n      tag_248\n      jumpi\n        /* \"contracts/LandFIStake2.sol\":6975:6986  box4Balance */\n      0x10\n        /* \"contracts/LandFIStake2.sol\":6975:6992  box4Balance[user] */\n      0x00\n        /* \"contracts/LandFIStake2.sol\":6987:6991  user */\n      dup5\n        /* \"contracts/LandFIStake2.sol\":6975:6992  box4Balance[user] */\n      0xffffffffffffffffffffffffffffffffffffffff\n      and\n      0xffffffffffffffffffffffffffffffffffffffff\n      and\n      dup2\n      mstore\n      0x20\n      add\n      swap1\n      dup2\n      mstore\n      0x20\n      add\n      0x00\n      keccak256\n      sload\n        /* \"contracts/LandFIStake2.sol\":6966:6992  amount = box4Balance[user] */\n      swap1\n      pop\n        /* \"contracts/LandFIStake2.sol\":7024:7025  0 */\n      0x00\n        /* \"contracts/LandFIStake2.sol\":7015:7021  amount */\n      dup2\n        /* \"contracts/LandFIStake2.sol\":7015:7025  amount > 0 */\n      gt\n        /* \"contracts/LandFIStake2.sol\":7007:7038  require(amount > 0, \"No stake\") */\n      tag_249\n      jumpi\n      mload(0x40)\n      0x08c379a000000000000000000000000000000000000000000000000000000000\n      dup2\n      mstore\n      0x04\n      add\n      tag_250\n      swap1\n      tag_220\n      jump\t// in\n    tag_250:\n      mload(0x40)\n      dup1\n      swap2\n      sub\n      swap1\n      revert\n    tag_249:\n        /* \"contracts/LandFIStake2.sol\":7061:7071  fullUnlock */\n      0x1b\n      0x00\n      swap1\n      sload\n      swap1\n      0x0100\n      exp\n      swap1\n      div\n      0xff\n      and\n        /* \"contracts/LandFIStake2.sol\":7061:7126  fullUnlock || block.timestamp >= box4DepositDate[user] + box4Time */\n      dup1\n      tag_251\n      jumpi\n      pop\n        /* \"contracts/LandFIStake2.sol\":7118:7126  box4Time */\n      sload(0x13)\n        /* \"contracts/LandFIStake2.sol\":7094:7109  box4DepositDate */\n      0x11\n        /* \"contracts/LandFIStake2.sol\":7094:7115  box4DepositDate[user] */\n      0x00\n        /* \"contracts/LandFIStake2.sol\":7110:7114  user */\n      dup6\n        /* \"contracts/LandFIStake2.sol\":7094:7115  box4DepositDate[user] */\n      0xffffffffffffffffffffffffffffffffffffffff\n      and\n      0xffffffffffffffffffffffffffffffffffffffff\n      and\n      dup2\n      mstore\n      0x20\n      add\n      swap1\n      dup2\n      mstore\n      0x20\n      add\n      0x00\n      keccak256\n      sload\n        /* \"contracts/LandFIStake2.sol\":7094:7126  box4DepositDate[user] + box4Time */\n      tag_252\n      swap2\n      swap1\n      tag_223\n      jump\t// in\n    tag_252:\n        /* \"contracts/LandFIStake2.sol\":7075:7090  block.timestamp */\n      timestamp\n        /* \"contracts/LandFIStake2.sol\":7075:7126  block.timestamp >= box4DepositDate[user] + box4Time */\n      lt\n      iszero\n        /* \"contracts/LandFIStake2.sol\":7061:7126  fullUnlock || block.timestamp >= box4DepositDate[user] + box4Time */\n    tag_251:\n        /* \"contracts/LandFIStake2.sol\":7053:7143  require(fullUnlock || block.timestamp >= box4DepositDate[user] + box4Time, \"Not unlocked\") */\n      tag_253\n      jumpi\n      mload(0x40)\n      0x08c379a000000000000000000000000000000000000000000000000000000000\n      dup2\n      mstore\n      0x04\n      add\n      tag_254\n      swap1\n      tag_226\n      jump\t// in\n    tag_254:\n      mload(0x40)\n      dup1\n      swap2\n      sub\n      swap1\n      revert\n    tag_253:\n        /* \"contracts/LandFIStake2.sol\":7182:7190  box4Rate */\n      sload(0x12)\n        /* \"contracts/LandFIStake2.sol\":7173:7179  amount */\n      dup2\n        /* \"contracts/LandFIStake2.sol\":7173:7190  amount / box4Rate */\n      tag_255\n      swap2\n      swap1\n      tag_228\n      jump\t// in\n    tag_255:\n        /* \"contracts/LandFIStake2.sol\":7158:7190  rewardAmount = amount / box4Rate */\n      swap2\n      pop\n        /* \"contracts/LandFIStake2.sol\":7225:7226  0 */\n      0x00\n        /* \"contracts/LandFIStake2.sol\":7205:7216  box4Balance */\n      0x10\n        /* \"contracts/LandFIStake2.sol\":7205:7222  box4Balance[user] */\n      0x00\n        /* \"contracts/LandFIStake2.sol\":7217:7221  user */\n      dup6\n        /* \"contracts/LandFIStake2.sol\":7205:7222  box4Balance[user] */\n      0xffffffffffffffffffffffffffffffffffffffff\n      and\n      0xffffffffffffffffffffffffffffffffffffffff\n      and\n      dup2\n      mstore\n      0x20\n      add\n      swap1\n      dup2\n      mstore\n      0x20\n      add\n      0x00\n      keccak256\n        /* \"contracts/LandFIStake2.sol\":7205:7226  box4Balance[user] = 0 */\n      dup2\n      swap1\n      sstore\n      pop\n        /* \"contracts/LandFIStake2.sol\":7265:7266  0 */\n      0x00\n        /* \"contracts/LandFIStake2.sol\":7241:7256  box4DepositDate */\n      0x11\n        /* \"contracts/LandFIStake2.sol\":7241:7262  box4DepositDate[user] */\n      0x00\n        /* \"contracts/LandFIStake2.sol\":7257:7261  user */\n      dup6\n        /* \"contracts/LandFIStake2.sol\":7241:7262  box4DepositDate[user] */\n      0xffffffffffffffffffffffffffffffffffffffff\n      and\n      0xffffffffffffffffffffffffffffffffffffffff\n      and\n      dup2\n      mstore\n      0x20\n      add\n      swap1\n      dup2\n      mstore\n      0x20\n      add\n      0x00\n      keccak256\n        /* \"contracts/LandFIStake2.sol\":7241:7266  box4DepositDate[user] = 0 */\n      dup2\n      swap1\n      sstore\n      pop\n        /* \"contracts/LandFIStake2.sol\":6935:7278  if (boxNo == 4) {... */\n    tag_248:\n        /* \"contracts/LandFIStake2.sol\":6586:7278  if (boxNo == 3) {... */\n    tag_247:\n        /* \"contracts/LandFIStake2.sol\":6237:7278  if (boxNo == 2) {... */\n    tag_238:\n        /* \"contracts/LandFIStake2.sol\":5888:7278  if (boxNo == 1) {... */\n    tag_229:\n        /* \"contracts/LandFIStake2.sol\":7305:7311  amount */\n      dup1\n        /* \"contracts/LandFIStake2.sol\":7290:7301  totalStaked */\n      0x19\n      0x00\n        /* \"contracts/LandFIStake2.sol\":7290:7311  totalStaked -= amount */\n      dup3\n      dup3\n      sload\n      tag_256\n      swap2\n      swap1\n      tag_257\n      jump\t// in\n    tag_256:\n      swap3\n      pop\n      pop\n      dup2\n      swap1\n      sstore\n      pop\n        /* \"contracts/LandFIStake2.sol\":7327:7337  fullUnlock */\n      0x1b\n      0x00\n      swap1\n      sload\n      swap1\n      0x0100\n      exp\n      swap1\n      div\n      0xff\n      and\n        /* \"contracts/LandFIStake2.sol\":7322:7379  if (!fullUnlock) rewardCount = rewardCount + rewardAmount */\n      tag_258\n      jumpi\n        /* \"contracts/LandFIStake2.sol\":7367:7379  rewardAmount */\n      dup2\n        /* \"contracts/LandFIStake2.sol\":7353:7364  rewardCount */\n      sload(0x18)\n        /* \"contracts/LandFIStake2.sol\":7353:7379  rewardCount + rewardAmount */\n      tag_259\n      swap2\n      swap1\n      tag_223\n      jump\t// in\n    tag_259:\n        /* \"contracts/LandFIStake2.sol\":7339:7350  rewardCount */\n      0x18\n        /* \"contracts/LandFIStake2.sol\":7339:7379  rewardCount = rewardCount + rewardAmount */\n      dup2\n      swap1\n      sstore\n      pop\n        /* \"contracts/LandFIStake2.sol\":7322:7379  if (!fullUnlock) rewardCount = rewardCount + rewardAmount */\n    tag_258:\n        /* \"contracts/LandFIStake2.sol\":7395:7405  fullUnlock */\n      0x1b\n      0x00\n      swap1\n      sload\n      swap1\n      0x0100\n      exp\n      swap1\n      div\n      0xff\n      and\n        /* \"contracts/LandFIStake2.sol\":7390:7453  if (!fullUnlock) rewardCountDue = rewardCountDue - rewardAmount */\n      tag_260\n      jumpi\n        /* \"contracts/LandFIStake2.sol\":7441:7453  rewardAmount */\n      dup2\n        /* \"contracts/LandFIStake2.sol\":7424:7438  rewardCountDue */\n      sload(0x17)\n        /* \"contracts/LandFIStake2.sol\":7424:7453  rewardCountDue - rewardAmount */\n      tag_261\n      swap2\n      swap1\n      tag_257\n      jump\t// in\n    tag_261:\n        /* \"contracts/LandFIStake2.sol\":7407:7421  rewardCountDue */\n      0x17\n        /* \"contracts/LandFIStake2.sol\":7407:7453  rewardCountDue = rewardCountDue - rewardAmount */\n      dup2\n      swap1\n      sstore\n      pop\n        /* \"contracts/LandFIStake2.sol\":7390:7453  if (!fullUnlock) rewardCountDue = rewardCountDue - rewardAmount */\n    tag_260:\n        /* \"contracts/LandFIStake2.sol\":7466:7504  landFiToken.safeTransfer(user, amount) */\n      tag_262\n        /* \"contracts/LandFIStake2.sol\":7491:7495  user */\n      dup4\n        /* \"contracts/LandFIStake2.sol\":7497:7503  amount */\n      dup3\n        /* \"contracts/LandFIStake2.sol\":7466:7477  landFiToken */\n      immutable(\"0x8933cd72e164c9b6ce552201c117297f7873e41b74a3438d5253e75d613ffbad\")\n        /* \"contracts/LandFIStake2.sol\":7466:7490  landFiToken.safeTransfer */\n      0xffffffffffffffffffffffffffffffffffffffff\n      and\n      tag_263\n      swap1\n        /* \"contracts/LandFIStake2.sol\":7466:7504  landFiToken.safeTransfer(user, amount) */\n      swap3\n      swap2\n      swap1\n      0xffffffff\n      and\n      jump\t// in\n    tag_262:\n        /* \"contracts/LandFIStake2.sol\":7522:7532  fullUnlock */\n      0x1b\n      0x00\n      swap1\n      sload\n      swap1\n      0x0100\n      exp\n      swap1\n      div\n      0xff\n      and\n        /* \"contracts/LandFIStake2.sol\":7517:7747  if (!fullUnlock) {... */\n      tag_264\n      jumpi\n        /* \"contracts/LandFIStake2.sol\":7562:7563  4 */\n      0x04\n        /* \"contracts/LandFIStake2.sol\":7553:7558  boxNo */\n      dup5\n        /* \"contracts/LandFIStake2.sol\":7553:7563  boxNo == 4 */\n      sub\n        /* \"contracts/LandFIStake2.sol\":7549:7736  if (boxNo == 4) {... */\n      tag_265\n      jumpi\n        /* \"contracts/LandFIStake2.sol\":7584:7635  landFiToken.safeTransfer(burnAddress, rewardAmount) */\n      tag_266\n        /* \"contracts/LandFIStake2.sol\":1414:1456  0x000000000000000000000000000000000000dEaD */\n      0xdead\n        /* \"contracts/LandFIStake2.sol\":7622:7634  rewardAmount */\n      dup4\n        /* \"contracts/LandFIStake2.sol\":7584:7595  landFiToken */\n      immutable(\"0x8933cd72e164c9b6ce552201c117297f7873e41b74a3438d5253e75d613ffbad\")\n        /* \"contracts/LandFIStake2.sol\":7584:7608  landFiToken.safeTransfer */\n      0xffffffffffffffffffffffffffffffffffffffff\n      and\n      tag_263\n      swap1\n        /* \"contracts/LandFIStake2.sol\":7584:7635  landFiToken.safeTransfer(burnAddress, rewardAmount) */\n      swap3\n      swap2\n      swap1\n      0xffffffff\n      and\n      jump\t// in\n    tag_266:\n        /* \"contracts/LandFIStake2.sol\":7549:7736  if (boxNo == 4) {... */\n      jump(tag_267)\n    tag_265:\n        /* \"contracts/LandFIStake2.sol\":7676:7720  landFiToken.safeTransfer(user, rewardAmount) */\n      tag_268\n        /* \"contracts/LandFIStake2.sol\":7701:7705  user */\n      dup4\n        /* \"contracts/LandFIStake2.sol\":7707:7719  rewardAmount */\n      dup4\n        /* \"contracts/LandFIStake2.sol\":7676:7687  landFiToken */\n      immutable(\"0x8933cd72e164c9b6ce552201c117297f7873e41b74a3438d5253e75d613ffbad\")\n        /* \"contracts/LandFIStake2.sol\":7676:7700  landFiToken.safeTransfer */\n      0xffffffffffffffffffffffffffffffffffffffff\n      and\n      tag_263\n      swap1\n        /* \"contracts/LandFIStake2.sol\":7676:7720  landFiToken.safeTransfer(user, rewardAmount) */\n      swap3\n      swap2\n      swap1\n      0xffffffff\n      and\n      jump\t// in\n    tag_268:\n        /* \"contracts/LandFIStake2.sol\":7549:7736  if (boxNo == 4) {... */\n    tag_267:\n        /* \"contracts/LandFIStake2.sol\":7517:7747  if (!fullUnlock) {... */\n    tag_264:\n        /* \"contracts/LandFIStake2.sol\":5722:7754  {... */\n      pop\n      pop\n      pop\n        /* \"contracts/LandFIStake2.sol\":5679:7754  function pullStake(uint256 boxNo) external {... */\n      pop\n      jump\t// out\n        /* \"contracts/LandFIStake2.sol\":1495:1518  uint256 public minStake */\n    tag_87:\n      sload(0x16)\n      dup2\n      jump\t// out\n        /* \"contracts/LandFIStake2.sol\":1225:1276  mapping (address => uint256) public box4DepositDate */\n    tag_91:\n      mstore(0x20, 0x11)\n      dup1\n      0x00\n      mstore\n      keccak256(0x00, 0x40)\n      0x00\n      swap2\n      pop\n      swap1\n      pop\n      sload\n      dup2\n      jump\t// out\n        /* \"contracts/LandFIStake2.sol\":559:606  mapping (address => uint256) public box1Balance */\n    tag_95:\n      mstore(0x20, 0x01)\n      dup1\n      0x00\n      mstore\n      keccak256(0x00, 0x40)\n      0x00\n      swap2\n      pop\n      swap1\n      pop\n      sload\n      dup2\n      jump\t// out\n        /* \"contracts/LandFIStake2.sol\":701:724  uint256 public box1Time */\n    tag_98:\n      sload(0x04)\n      dup2\n      jump\t// out\n        /* \"contracts/LandFIStake2.sol\":3720:4031  function stakeAmount(address user, uint256 boxNo) public view returns (uint256) {... */\n    tag_103:\n        /* \"contracts/LandFIStake2.sol\":3791:3798  uint256 */\n      0x00\n        /* \"contracts/LandFIStake2.sol\":3824:3825  1 */\n      0x01\n        /* \"contracts/LandFIStake2.sol\":3815:3820  boxNo */\n      dup3\n        /* \"contracts/LandFIStake2.sol\":3815:3825  boxNo == 1 */\n      sub\n        /* \"contracts/LandFIStake2.sol\":3811:3851  if (boxNo == 1) return box1Balance[user] */\n      tag_270\n      jumpi\n        /* \"contracts/LandFIStake2.sol\":3834:3845  box1Balance */\n      0x01\n        /* \"contracts/LandFIStake2.sol\":3834:3851  box1Balance[user] */\n      0x00\n        /* \"contracts/LandFIStake2.sol\":3846:3850  user */\n      dup5\n        /* \"contracts/LandFIStake2.sol\":3834:3851  box1Balance[user] */\n      0xffffffffffffffffffffffffffffffffffffffff\n      and\n      0xffffffffffffffffffffffffffffffffffffffff\n      and\n      dup2\n      mstore\n      0x20\n      add\n      swap1\n      dup2\n      mstore\n      0x20\n      add\n      0x00\n      keccak256\n      sload\n        /* \"contracts/LandFIStake2.sol\":3827:3851  return box1Balance[user] */\n      swap1\n      pop\n      jump(tag_269)\n        /* \"contracts/LandFIStake2.sol\":3811:3851  if (boxNo == 1) return box1Balance[user] */\n    tag_270:\n        /* \"contracts/LandFIStake2.sol\":3875:3876  2 */\n      0x02\n        /* \"contracts/LandFIStake2.sol\":3866:3871  boxNo */\n      dup3\n        /* \"contracts/LandFIStake2.sol\":3866:3876  boxNo == 2 */\n      sub\n        /* \"contracts/LandFIStake2.sol\":3862:3902  if (boxNo == 2) return box2Balance[user] */\n      tag_271\n      jumpi\n        /* \"contracts/LandFIStake2.sol\":3885:3896  box2Balance */\n      0x06\n        /* \"contracts/LandFIStake2.sol\":3885:3902  box2Balance[user] */\n      0x00\n        /* \"contracts/LandFIStake2.sol\":3897:3901  user */\n      dup5\n        /* \"contracts/LandFIStake2.sol\":3885:3902  box2Balance[user] */\n      0xffffffffffffffffffffffffffffffffffffffff\n      and\n      0xffffffffffffffffffffffffffffffffffffffff\n      and\n      dup2\n      mstore\n      0x20\n      add\n      swap1\n      dup2\n      mstore\n      0x20\n      add\n      0x00\n      keccak256\n      sload\n        /* \"contracts/LandFIStake2.sol\":3878:3902  return box2Balance[user] */\n      swap1\n      pop\n      jump(tag_269)\n        /* \"contracts/LandFIStake2.sol\":3862:3902  if (boxNo == 2) return box2Balance[user] */\n    tag_271:\n        /* \"contracts/LandFIStake2.sol\":3926:3927  3 */\n      0x03\n        /* \"contracts/LandFIStake2.sol\":3917:3922  boxNo */\n      dup3\n        /* \"contracts/LandFIStake2.sol\":3917:3927  boxNo == 3 */\n      sub\n        /* \"contracts/LandFIStake2.sol\":3913:3953  if (boxNo == 3) return box3Balance[user] */\n      tag_272\n      jumpi\n        /* \"contracts/LandFIStake2.sol\":3936:3947  box3Balance */\n      0x0b\n        /* \"contracts/LandFIStake2.sol\":3936:3953  box3Balance[user] */\n      0x00\n        /* \"contracts/LandFIStake2.sol\":3948:3952  user */\n      dup5\n        /* \"contracts/LandFIStake2.sol\":3936:3953  box3Balance[user] */\n      0xffffffffffffffffffffffffffffffffffffffff\n      and\n      0xffffffffffffffffffffffffffffffffffffffff\n      and\n      dup2\n      mstore\n      0x20\n      add\n      swap1\n      dup2\n      mstore\n      0x20\n      add\n      0x00\n      keccak256\n      sload\n        /* \"contracts/LandFIStake2.sol\":3929:3953  return box3Balance[user] */\n      swap1\n      pop\n      jump(tag_269)\n        /* \"contracts/LandFIStake2.sol\":3913:3953  if (boxNo == 3) return box3Balance[user] */\n    tag_272:\n        /* \"contracts/LandFIStake2.sol\":3977:3978  4 */\n      0x04\n        /* \"contracts/LandFIStake2.sol\":3968:3973  boxNo */\n      dup3\n        /* \"contracts/LandFIStake2.sol\":3968:3978  boxNo == 4 */\n      sub\n        /* \"contracts/LandFIStake2.sol\":3964:4004  if (boxNo == 4) return box4Balance[user] */\n      tag_273\n      jumpi\n        /* \"contracts/LandFIStake2.sol\":3987:3998  box4Balance */\n      0x10\n        /* \"contracts/LandFIStake2.sol\":3987:4004  box4Balance[user] */\n      0x00\n        /* \"contracts/LandFIStake2.sol\":3999:4003  user */\n      dup5\n        /* \"contracts/LandFIStake2.sol\":3987:4004  box4Balance[user] */\n      0xffffffffffffffffffffffffffffffffffffffff\n      and\n      0xffffffffffffffffffffffffffffffffffffffff\n      and\n      dup2\n      mstore\n      0x20\n      add\n      swap1\n      dup2\n      mstore\n      0x20\n      add\n      0x00\n      keccak256\n      sload\n        /* \"contracts/LandFIStake2.sol\":3980:4004  return box4Balance[user] */\n      swap1\n      pop\n      jump(tag_269)\n        /* \"contracts/LandFIStake2.sol\":3964:4004  if (boxNo == 4) return box4Balance[user] */\n    tag_273:\n        /* \"contracts/LandFIStake2.sol\":4022:4023  0 */\n      0x00\n        /* \"contracts/LandFIStake2.sol\":4015:4023  return 0 */\n      swap1\n      pop\n        /* \"contracts/LandFIStake2.sol\":3720:4031  function stakeAmount(address user, uint256 boxNo) public view returns (uint256) {... */\n    tag_269:\n      swap3\n      swap2\n      pop\n      pop\n      jump\t// out\n        /* \"contracts/LandFIStake2.sol\":613:664  mapping (address => uint256) public box1DepositDate */\n    tag_107:\n      mstore(0x20, 0x02)\n      dup1\n      0x00\n      mstore\n      keccak256(0x00, 0x40)\n      0x00\n      swap2\n      pop\n      swap1\n      pop\n      sload\n      dup2\n      jump\t// out\n        /* \"contracts/LandFIStake2.sol\":1343:1366  bool public box4Enabled */\n    tag_110:\n      0x14\n      0x00\n      swap1\n      sload\n      swap1\n      0x0100\n      exp\n      swap1\n      div\n      0xff\n      and\n      dup2\n      jump\t// out\n        /* \"contracts/LandFIStake2.sol\":2535:2618  function changeBox2Status(bool status) external onlyOwner { box2Enabled = status; } */\n    tag_115:\n        /* \"@openzeppelin/contracts/access/Ownable.sol\":1531:1544  _checkOwner() */\n      tag_275\n        /* \"@openzeppelin/contracts/access/Ownable.sol\":1531:1542  _checkOwner */\n      tag_207\n        /* \"@openzeppelin/contracts/access/Ownable.sol\":1531:1544  _checkOwner() */\n      jump\t// in\n    tag_275:\n        /* \"contracts/LandFIStake2.sol\":2609:2615  status */\n      dup1\n        /* \"contracts/LandFIStake2.sol\":2595:2606  box2Enabled */\n      0x0a\n      0x00\n        /* \"contracts/LandFIStake2.sol\":2595:2615  box2Enabled = status */\n      0x0100\n      exp\n      dup2\n      sload\n      dup2\n      0xff\n      mul\n      not\n      and\n      swap1\n      dup4\n      iszero\n      iszero\n      mul\n      or\n      swap1\n      sstore\n      pop\n        /* \"contracts/LandFIStake2.sol\":2535:2618  function changeBox2Status(bool status) external onlyOwner { box2Enabled = status; } */\n      pop\n      jump\t// out\n        /* \"contracts/LandFIStake2.sol\":2446:2529  function changeBox1Status(bool status) external onlyOwner { box1Enabled = status; } */\n    tag_118:\n        /* \"@openzeppelin/contracts/access/Ownable.sol\":1531:1544  _checkOwner() */\n      tag_278\n        /* \"@openzeppelin/contracts/access/Ownable.sol\":1531:1542  _checkOwner */\n      tag_207\n        /* \"@openzeppelin/contracts/access/Ownable.sol\":1531:1544  _checkOwner() */\n      jump\t// in\n    tag_278:\n        /* \"contracts/LandFIStake2.sol\":2520:2526  status */\n      dup1\n        /* \"contracts/LandFIStake2.sol\":2506:2517  box1Enabled */\n      0x05\n      0x00\n        /* \"contracts/LandFIStake2.sol\":2506:2526  box1Enabled = status */\n      0x0100\n      exp\n      dup2\n      sload\n      dup2\n      0xff\n      mul\n      not\n      and\n      swap1\n      dup4\n      iszero\n      iszero\n      mul\n      or\n      swap1\n      sstore\n      pop\n        /* \"contracts/LandFIStake2.sol\":2446:2529  function changeBox1Status(bool status) external onlyOwner { box1Enabled = status; } */\n      pop\n      jump\t// out\n        /* \"contracts/LandFIStake2.sol\":3161:3329  function balanceOf(address user) external view returns (uint256) {... */\n    tag_121:\n        /* \"contracts/LandFIStake2.sol\":3217:3224  uint256 */\n      0x00\n        /* \"contracts/LandFIStake2.sol\":3304:3315  box4Balance */\n      0x10\n        /* \"contracts/LandFIStake2.sol\":3304:3321  box4Balance[user] */\n      0x00\n        /* \"contracts/LandFIStake2.sol\":3316:3320  user */\n      dup4\n        /* \"contracts/LandFIStake2.sol\":3304:3321  box4Balance[user] */\n      0xffffffffffffffffffffffffffffffffffffffff\n      and\n      0xffffffffffffffffffffffffffffffffffffffff\n      and\n      dup2\n      mstore\n      0x20\n      add\n      swap1\n      dup2\n      mstore\n      0x20\n      add\n      0x00\n      keccak256\n      sload\n        /* \"contracts/LandFIStake2.sol\":3284:3295  box3Balance */\n      0x0b\n        /* \"contracts/LandFIStake2.sol\":3284:3301  box3Balance[user] */\n      0x00\n        /* \"contracts/LandFIStake2.sol\":3296:3300  user */\n      dup5\n        /* \"contracts/LandFIStake2.sol\":3284:3301  box3Balance[user] */\n      0xffffffffffffffffffffffffffffffffffffffff\n      and\n      0xffffffffffffffffffffffffffffffffffffffff\n      and\n      dup2\n      mstore\n      0x20\n      add\n      swap1\n      dup2\n      mstore\n      0x20\n      add\n      0x00\n      keccak256\n      sload\n        /* \"contracts/LandFIStake2.sol\":3264:3275  box2Balance */\n      0x06\n        /* \"contracts/LandFIStake2.sol\":3264:3281  box2Balance[user] */\n      0x00\n        /* \"contracts/LandFIStake2.sol\":3276:3280  user */\n      dup6\n        /* \"contracts/LandFIStake2.sol\":3264:3281  box2Balance[user] */\n      0xffffffffffffffffffffffffffffffffffffffff\n      and\n      0xffffffffffffffffffffffffffffffffffffffff\n      and\n      dup2\n      mstore\n      0x20\n      add\n      swap1\n      dup2\n      mstore\n      0x20\n      add\n      0x00\n      keccak256\n      sload\n        /* \"contracts/LandFIStake2.sol\":3244:3255  box1Balance */\n      0x01\n        /* \"contracts/LandFIStake2.sol\":3244:3261  box1Balance[user] */\n      0x00\n        /* \"contracts/LandFIStake2.sol\":3256:3260  user */\n      dup7\n        /* \"contracts/LandFIStake2.sol\":3244:3261  box1Balance[user] */\n      0xffffffffffffffffffffffffffffffffffffffff\n      and\n      0xffffffffffffffffffffffffffffffffffffffff\n      and\n      dup2\n      mstore\n      0x20\n      add\n      swap1\n      dup2\n      mstore\n      0x20\n      add\n      0x00\n      keccak256\n      sload\n        /* \"contracts/LandFIStake2.sol\":3244:3281  box1Balance[user] + box2Balance[user] */\n      tag_281\n      swap2\n      swap1\n      tag_223\n      jump\t// in\n    tag_281:\n        /* \"contracts/LandFIStake2.sol\":3244:3301  box1Balance[user] + box2Balance[user] + box3Balance[user] */\n      tag_282\n      swap2\n      swap1\n      tag_223\n      jump\t// in\n    tag_282:\n        /* \"contracts/LandFIStake2.sol\":3244:3321  box1Balance[user] + box2Balance[user] + box3Balance[user] + box4Balance[user] */\n      tag_283\n      swap2\n      swap1\n      tag_223\n      jump\t// in\n    tag_283:\n        /* \"contracts/LandFIStake2.sol\":3237:3321  return box1Balance[user] + box2Balance[user] + box3Balance[user] + box4Balance[user] */\n      swap1\n      pop\n        /* \"contracts/LandFIStake2.sol\":3161:3329  function balanceOf(address user) external view returns (uint256) {... */\n      swap2\n      swap1\n      pop\n      jump\t// out\n        /* \"@openzeppelin/contracts/access/Ownable.sol\":2293:2394  function renounceOwnership() public virtual onlyOwner {... */\n    tag_124:\n        /* \"@openzeppelin/contracts/access/Ownable.sol\":1531:1544  _checkOwner() */\n      tag_285\n        /* \"@openzeppelin/contracts/access/Ownable.sol\":1531:1542  _checkOwner */\n      tag_207\n        /* \"@openzeppelin/contracts/access/Ownable.sol\":1531:1544  _checkOwner() */\n      jump\t// in\n    tag_285:\n        /* \"@openzeppelin/contracts/access/Ownable.sol\":2357:2387  _transferOwnership(address(0)) */\n      tag_287\n        /* \"@openzeppelin/contracts/access/Ownable.sol\":2384:2385  0 */\n      0x00\n        /* \"@openzeppelin/contracts/access/Ownable.sol\":2357:2375  _transferOwnership */\n      tag_288\n        /* \"@openzeppelin/contracts/access/Ownable.sol\":2357:2387  _transferOwnership(address(0)) */\n      jump\t// in\n    tag_287:\n        /* \"@openzeppelin/contracts/access/Ownable.sol\":2293:2394  function renounceOwnership() public virtual onlyOwner {... */\n      jump\t// out\n        /* \"contracts/LandFIStake2.sol\":935:958  bool public box2Enabled */\n    tag_126:\n      0x0a\n      0x00\n      swap1\n      sload\n      swap1\n      0x0100\n      exp\n      swap1\n      div\n      0xff\n      and\n      dup2\n      jump\t// out\n        /* \"contracts/LandFIStake2.sol\":1561:1587  uint256 public rewardCount */\n    tag_129:\n      sload(0x18)\n      dup2\n      jump\t// out\n        /* \"contracts/LandFIStake2.sol\":1313:1336  uint256 public box4Time */\n    tag_132:\n      sload(0x13)\n      dup2\n      jump\t// out\n        /* \"contracts/LandFIStake2.sol\":817:868  mapping (address => uint256) public box2DepositDate */\n    tag_136:\n      mstore(0x20, 0x07)\n      dup1\n      0x00\n      mstore\n      keccak256(0x00, 0x40)\n      0x00\n      swap2\n      pop\n      swap1\n      pop\n      sload\n      dup2\n      jump\t// out\n        /* \"contracts/LandFIStake2.sol\":1594:1620  uint256 public totalStaked */\n    tag_139:\n      sload(0x19)\n      dup2\n      jump\t// out\n        /* \"contracts/LandFIStake2.sol\":1021:1072  mapping (address => uint256) public box3DepositDate */\n    tag_143:\n      mstore(0x20, 0x0c)\n      dup1\n      0x00\n      mstore\n      keccak256(0x00, 0x40)\n      0x00\n      swap2\n      pop\n      swap1\n      pop\n      sload\n      dup2\n      jump\t// out\n        /* \"contracts/LandFIStake2.sol\":731:754  bool public box1Enabled */\n    tag_146:\n      0x05\n      0x00\n      swap1\n      sload\n      swap1\n      0x0100\n      exp\n      swap1\n      div\n      0xff\n      and\n      dup2\n      jump\t// out\n        /* \"@openzeppelin/contracts/access/Ownable.sol\":1638:1723  function owner() public view virtual returns (address) {... */\n    tag_149:\n        /* \"@openzeppelin/contracts/access/Ownable.sol\":1684:1691  address */\n      0x00\n        /* \"@openzeppelin/contracts/access/Ownable.sol\":1710:1716  _owner */\n      0x00\n      0x00\n      swap1\n      sload\n      swap1\n      0x0100\n      exp\n      swap1\n      div\n      0xffffffffffffffffffffffffffffffffffffffff\n      and\n        /* \"@openzeppelin/contracts/access/Ownable.sol\":1703:1716  return _owner */\n      swap1\n      pop\n        /* \"@openzeppelin/contracts/access/Ownable.sol\":1638:1723  function owner() public view virtual returns (address) {... */\n      swap1\n      jump\t// out\n        /* \"contracts/LandFIStake2.sol\":2802:2891  function changeMaxRewardDue(uint256 amount) external onlyOwner { maxRewardDue = amount; } */\n    tag_154:\n        /* \"@openzeppelin/contracts/access/Ownable.sol\":1531:1544  _checkOwner() */\n      tag_291\n        /* \"@openzeppelin/contracts/access/Ownable.sol\":1531:1542  _checkOwner */\n      tag_207\n        /* \"@openzeppelin/contracts/access/Ownable.sol\":1531:1544  _checkOwner() */\n      jump\t// in\n    tag_291:\n        /* \"contracts/LandFIStake2.sol\":2882:2888  amount */\n      dup1\n        /* \"contracts/LandFIStake2.sol\":2867:2879  maxRewardDue */\n      0x1a\n        /* \"contracts/LandFIStake2.sol\":2867:2888  maxRewardDue = amount */\n      dup2\n      swap1\n      sstore\n      pop\n        /* \"contracts/LandFIStake2.sol\":2802:2891  function changeMaxRewardDue(uint256 amount) external onlyOwner { maxRewardDue = amount; } */\n      pop\n      jump\t// out\n        /* \"contracts/LandFIStake2.sol\":1079:1102  uint256 public box3Rate */\n    tag_156:\n      sload(0x0d)\n      dup2\n      jump\t// out\n        /* \"contracts/LandFIStake2.sol\":1525:1554  uint256 public rewardCountDue */\n    tag_159:\n      sload(0x17)\n      dup2\n      jump\t// out\n        /* \"contracts/LandFIStake2.sol\":3337:3712  function stakeUnlockTime(address user, uint256 boxNo) public view returns (uint256) {... */\n    tag_163:\n        /* \"contracts/LandFIStake2.sol\":3412:3419  uint256 */\n      0x00\n        /* \"contracts/LandFIStake2.sol\":3445:3446  1 */\n      0x01\n        /* \"contracts/LandFIStake2.sol\":3436:3441  boxNo */\n      dup3\n        /* \"contracts/LandFIStake2.sol\":3436:3446  boxNo == 1 */\n      sub\n        /* \"contracts/LandFIStake2.sol\":3432:3487  if (boxNo == 1) return box1DepositDate[user] + box1Time */\n      tag_294\n      jumpi\n        /* \"contracts/LandFIStake2.sol\":3479:3487  box1Time */\n      sload(0x04)\n        /* \"contracts/LandFIStake2.sol\":3455:3470  box1DepositDate */\n      0x02\n        /* \"contracts/LandFIStake2.sol\":3455:3476  box1DepositDate[user] */\n      0x00\n        /* \"contracts/LandFIStake2.sol\":3471:3475  user */\n      dup6\n        /* \"contracts/LandFIStake2.sol\":3455:3476  box1DepositDate[user] */\n      0xffffffffffffffffffffffffffffffffffffffff\n      and\n      0xffffffffffffffffffffffffffffffffffffffff\n      and\n      dup2\n      mstore\n      0x20\n      add\n      swap1\n      dup2\n      mstore\n      0x20\n      add\n      0x00\n      keccak256\n      sload\n        /* \"contracts/LandFIStake2.sol\":3455:3487  box1DepositDate[user] + box1Time */\n      tag_295\n      swap2\n      swap1\n      tag_223\n      jump\t// in\n    tag_295:\n        /* \"contracts/LandFIStake2.sol\":3448:3487  return box1DepositDate[user] + box1Time */\n      swap1\n      pop\n      jump(tag_293)\n        /* \"contracts/LandFIStake2.sol\":3432:3487  if (boxNo == 1) return box1DepositDate[user] + box1Time */\n    tag_294:\n        /* \"contracts/LandFIStake2.sol\":3511:3512  2 */\n      0x02\n        /* \"contracts/LandFIStake2.sol\":3502:3507  boxNo */\n      dup3\n        /* \"contracts/LandFIStake2.sol\":3502:3512  boxNo == 2 */\n      sub\n        /* \"contracts/LandFIStake2.sol\":3498:3553  if (boxNo == 2) return box2DepositDate[user] + box2Time */\n      tag_296\n      jumpi\n        /* \"contracts/LandFIStake2.sol\":3545:3553  box2Time */\n      sload(0x09)\n        /* \"contracts/LandFIStake2.sol\":3521:3536  box2DepositDate */\n      0x07\n        /* \"contracts/LandFIStake2.sol\":3521:3542  box2DepositDate[user] */\n      0x00\n        /* \"contracts/LandFIStake2.sol\":3537:3541  user */\n      dup6\n        /* \"contracts/LandFIStake2.sol\":3521:3542  box2DepositDate[user] */\n      0xffffffffffffffffffffffffffffffffffffffff\n      and\n      0xffffffffffffffffffffffffffffffffffffffff\n      and\n      dup2\n      mstore\n      0x20\n      add\n      swap1\n      dup2\n      mstore\n      0x20\n      add\n      0x00\n      keccak256\n      sload\n        /* \"contracts/LandFIStake2.sol\":3521:3553  box2DepositDate[user] + box2Time */\n      tag_297\n      swap2\n      swap1\n      tag_223\n      jump\t// in\n    tag_297:\n        /* \"contracts/LandFIStake2.sol\":3514:3553  return box2DepositDate[user] + box2Time */\n      swap1\n      pop\n      jump(tag_293)\n        /* \"contracts/LandFIStake2.sol\":3498:3553  if (boxNo == 2) return box2DepositDate[user] + box2Time */\n    tag_296:\n        /* \"contracts/LandFIStake2.sol\":3577:3578  3 */\n      0x03\n        /* \"contracts/LandFIStake2.sol\":3568:3573  boxNo */\n      dup3\n        /* \"contracts/LandFIStake2.sol\":3568:3578  boxNo == 3 */\n      sub\n        /* \"contracts/LandFIStake2.sol\":3564:3619  if (boxNo == 3) return box3DepositDate[user] + box3Time */\n      tag_298\n      jumpi\n        /* \"contracts/LandFIStake2.sol\":3611:3619  box3Time */\n      sload(0x0e)\n        /* \"contracts/LandFIStake2.sol\":3587:3602  box3DepositDate */\n      0x0c\n        /* \"contracts/LandFIStake2.sol\":3587:3608  box3DepositDate[user] */\n      0x00\n        /* \"contracts/LandFIStake2.sol\":3603:3607  user */\n      dup6\n        /* \"contracts/LandFIStake2.sol\":3587:3608  box3DepositDate[user] */\n      0xffffffffffffffffffffffffffffffffffffffff\n      and\n      0xffffffffffffffffffffffffffffffffffffffff\n      and\n      dup2\n      mstore\n      0x20\n      add\n      swap1\n      dup2\n      mstore\n      0x20\n      add\n      0x00\n      keccak256\n      sload\n        /* \"contracts/LandFIStake2.sol\":3587:3619  box3DepositDate[user] + box3Time */\n      tag_299\n      swap2\n      swap1\n      tag_223\n      jump\t// in\n    tag_299:\n        /* \"contracts/LandFIStake2.sol\":3580:3619  return box3DepositDate[user] + box3Time */\n      swap1\n      pop\n      jump(tag_293)\n        /* \"contracts/LandFIStake2.sol\":3564:3619  if (boxNo == 3) return box3DepositDate[user] + box3Time */\n    tag_298:\n        /* \"contracts/LandFIStake2.sol\":3643:3644  4 */\n      0x04\n        /* \"contracts/LandFIStake2.sol\":3634:3639  boxNo */\n      dup3\n        /* \"contracts/LandFIStake2.sol\":3634:3644  boxNo == 4 */\n      sub\n        /* \"contracts/LandFIStake2.sol\":3630:3685  if (boxNo == 4) return box4DepositDate[user] + box4Time */\n      tag_300\n      jumpi\n        /* \"contracts/LandFIStake2.sol\":3677:3685  box4Time */\n      sload(0x13)\n        /* \"contracts/LandFIStake2.sol\":3653:3668  box4DepositDate */\n      0x11\n        /* \"contracts/LandFIStake2.sol\":3653:3674  box4DepositDate[user] */\n      0x00\n        /* \"contracts/LandFIStake2.sol\":3669:3673  user */\n      dup6\n        /* \"contracts/LandFIStake2.sol\":3653:3674  box4DepositDate[user] */\n      0xffffffffffffffffffffffffffffffffffffffff\n      and\n      0xffffffffffffffffffffffffffffffffffffffff\n      and\n      dup2\n      mstore\n      0x20\n      add\n      swap1\n      dup2\n      mstore\n      0x20\n      add\n      0x00\n      keccak256\n      sload\n        /* \"contracts/LandFIStake2.sol\":3653:3685  box4DepositDate[user] + box4Time */\n      tag_301\n      swap2\n      swap1\n      tag_223\n      jump\t// in\n    tag_301:\n        /* \"contracts/LandFIStake2.sol\":3646:3685  return box4DepositDate[user] + box4Time */\n      swap1\n      pop\n      jump(tag_293)\n        /* \"contracts/LandFIStake2.sol\":3630:3685  if (boxNo == 4) return box4DepositDate[user] + box4Time */\n    tag_300:\n        /* \"contracts/LandFIStake2.sol\":3703:3704  0 */\n      0x00\n        /* \"contracts/LandFIStake2.sol\":3696:3704  return 0 */\n      swap1\n      pop\n        /* \"contracts/LandFIStake2.sol\":3337:3712  function stakeUnlockTime(address user, uint256 boxNo) public view returns (uint256) {... */\n    tag_293:\n      swap3\n      swap2\n      pop\n      pop\n      jump\t// out\n        /* \"contracts/LandFIStake2.sol\":1283:1306  uint256 public box4Rate */\n    tag_166:\n      sload(0x12)\n      dup2\n      jump\t// out\n        /* \"contracts/LandFIStake2.sol\":2897:2978  function changeMaxStake(uint256 amount) external onlyOwner { maxStake = amount; } */\n    tag_170:\n        /* \"@openzeppelin/contracts/access/Ownable.sol\":1531:1544  _checkOwner() */\n      tag_303\n        /* \"@openzeppelin/contracts/access/Ownable.sol\":1531:1542  _checkOwner */\n      tag_207\n        /* \"@openzeppelin/contracts/access/Ownable.sol\":1531:1544  _checkOwner() */\n      jump\t// in\n    tag_303:\n        /* \"contracts/LandFIStake2.sol\":2969:2975  amount */\n      dup1\n        /* \"contracts/LandFIStake2.sol\":2958:2966  maxStake */\n      0x15\n        /* \"contracts/LandFIStake2.sol\":2958:2975  maxStake = amount */\n      dup2\n      swap1\n      sstore\n      pop\n        /* \"contracts/LandFIStake2.sol\":2897:2978  function changeMaxStake(uint256 amount) external onlyOwner { maxStake = amount; } */\n      pop\n      jump\t// out\n        /* \"contracts/LandFIStake2.sol\":1139:1162  bool public box3Enabled */\n    tag_172:\n      0x0f\n      0x00\n      swap1\n      sload\n      swap1\n      0x0100\n      exp\n      swap1\n      div\n      0xff\n      and\n      dup2\n      jump\t// out\n        /* \"contracts/LandFIStake2.sol\":1627:1654  uint256 public maxRewardDue */\n    tag_175:\n      sload(0x1a)\n      dup2\n      jump\t// out\n        /* \"contracts/LandFIStake2.sol\":905:928  uint256 public box2Time */\n    tag_178:\n      sload(0x09)\n      dup2\n      jump\t// out\n        /* \"contracts/LandFIStake2.sol\":2624:2707  function changeBox3Status(bool status) external onlyOwner { box3Enabled = status; } */\n    tag_182:\n        /* \"@openzeppelin/contracts/access/Ownable.sol\":1531:1544  _checkOwner() */\n      tag_306\n        /* \"@openzeppelin/contracts/access/Ownable.sol\":1531:1542  _checkOwner */\n      tag_207\n        /* \"@openzeppelin/contracts/access/Ownable.sol\":1531:1544  _checkOwner() */\n      jump\t// in\n    tag_306:\n        /* \"contracts/LandFIStake2.sol\":2698:2704  status */\n      dup1\n        /* \"contracts/LandFIStake2.sol\":2684:2695  box3Enabled */\n      0x0f\n      0x00\n        /* \"contracts/LandFIStake2.sol\":2684:2704  box3Enabled = status */\n      0x0100\n      exp\n      dup2\n      sload\n      dup2\n      0xff\n      mul\n      not\n      and\n      swap1\n      dup4\n      iszero\n      iszero\n      mul\n      or\n      swap1\n      sstore\n      pop\n        /* \"contracts/LandFIStake2.sol\":2624:2707  function changeBox3Status(bool status) external onlyOwner { box3Enabled = status; } */\n      pop\n      jump\t// out\n        /* \"contracts/LandFIStake2.sol\":875:898  uint256 public box2Rate */\n    tag_184:\n      sload(0x08)\n      dup2\n      jump\t// out\n        /* \"contracts/LandFIStake2.sol\":671:694  uint256 public box1Rate */\n    tag_187:\n      sload(0x03)\n      dup2\n      jump\t// out\n        /* \"contracts/LandFIStake2.sol\":1465:1488  uint256 public maxStake */\n    tag_190:\n      sload(0x15)\n      dup2\n      jump\t// out\n        /* \"contracts/LandFIStake2.sol\":3071:3153  function changeFullUnlock(bool unlock) external onlyOwner { fullUnlock = unlock; } */\n    tag_194:\n        /* \"@openzeppelin/contracts/access/Ownable.sol\":1531:1544  _checkOwner() */\n      tag_309\n        /* \"@openzeppelin/contracts/access/Ownable.sol\":1531:1542  _checkOwner */\n      tag_207\n        /* \"@openzeppelin/contracts/access/Ownable.sol\":1531:1544  _checkOwner() */\n      jump\t// in\n    tag_309:\n        /* \"contracts/LandFIStake2.sol\":3144:3150  unlock */\n      dup1\n        /* \"contracts/LandFIStake2.sol\":3131:3141  fullUnlock */\n      0x1b\n      0x00\n        /* \"contracts/LandFIStake2.sol\":3131:3150  fullUnlock = unlock */\n      0x0100\n      exp\n      dup2\n      sload\n      dup2\n      0xff\n      mul\n      not\n      and\n      swap1\n      dup4\n      iszero\n      iszero\n      mul\n      or\n      swap1\n      sstore\n      pop\n        /* \"contracts/LandFIStake2.sol\":3071:3153  function changeFullUnlock(bool unlock) external onlyOwner { fullUnlock = unlock; } */\n      pop\n      jump\t// out\n        /* \"@openzeppelin/contracts/access/Ownable.sol\":2543:2758  function transferOwnership(address newOwner) public virtual onlyOwner {... */\n    tag_197:\n        /* \"@openzeppelin/contracts/access/Ownable.sol\":1531:1544  _checkOwner() */\n      tag_312\n        /* \"@openzeppelin/contracts/access/Ownable.sol\":1531:1542  _checkOwner */\n      tag_207\n        /* \"@openzeppelin/contracts/access/Ownable.sol\":1531:1544  _checkOwner() */\n      jump\t// in\n    tag_312:\n        /* \"@openzeppelin/contracts/access/Ownable.sol\":2647:2648  0 */\n      0x00\n        /* \"@openzeppelin/contracts/access/Ownable.sol\":2627:2649  newOwner == address(0) */\n      0xffffffffffffffffffffffffffffffffffffffff\n      and\n        /* \"@openzeppelin/contracts/access/Ownable.sol\":2627:2635  newOwner */\n      dup2\n        /* \"@openzeppelin/contracts/access/Ownable.sol\":2627:2649  newOwner == address(0) */\n      0xffffffffffffffffffffffffffffffffffffffff\n      and\n      sub\n        /* \"@openzeppelin/contracts/access/Ownable.sol\":2623:2714  if (newOwner == address(0)) {... */\n      tag_314\n      jumpi\n        /* \"@openzeppelin/contracts/access/Ownable.sol\":2700:2701  0 */\n      0x00\n        /* \"@openzeppelin/contracts/access/Ownable.sol\":2672:2703  OwnableInvalidOwner(address(0)) */\n      mload(0x40)\n      0x1e4fbdf700000000000000000000000000000000000000000000000000000000\n      dup2\n      mstore\n      0x04\n      add\n      tag_315\n      swap2\n      swap1\n      tag_151\n      jump\t// in\n    tag_315:\n      mload(0x40)\n      dup1\n      swap2\n      sub\n      swap1\n      revert\n        /* \"@openzeppelin/contracts/access/Ownable.sol\":2623:2714  if (newOwner == address(0)) {... */\n    tag_314:\n        /* \"@openzeppelin/contracts/access/Ownable.sol\":2723:2751  _transferOwnership(newOwner) */\n      tag_316\n        /* \"@openzeppelin/contracts/access/Ownable.sol\":2742:2750  newOwner */\n      dup2\n        /* \"@openzeppelin/contracts/access/Ownable.sol\":2723:2741  _transferOwnership */\n      tag_288\n        /* \"@openzeppelin/contracts/access/Ownable.sol\":2723:2751  _transferOwnership(newOwner) */\n      jump\t// in\n    tag_316:\n        /* \"@openzeppelin/contracts/access/Ownable.sol\":2543:2758  function transferOwnership(address newOwner) public virtual onlyOwner {... */\n      pop\n      jump\t// out\n        /* \"contracts/LandFIStake2.sol\":1663:1685  bool public fullUnlock */\n    tag_199:\n      0x1b\n      0x00\n      swap1\n      sload\n      swap1\n      0x0100\n      exp\n      swap1\n      div\n      0xff\n      and\n      dup2\n      jump\t// out\n        /* \"contracts/LandFIStake2.sol\":4039:5671  function addStake(uint256 amount, uint256 boxNo) external {... */\n    tag_204:\n        /* \"contracts/LandFIStake2.sol\":4125:4126  1 */\n      0x01\n        /* \"contracts/LandFIStake2.sol\":4116:4121  boxNo */\n      dup2\n        /* \"contracts/LandFIStake2.sol\":4116:4126  boxNo >= 1 */\n      lt\n      iszero\n        /* \"contracts/LandFIStake2.sol\":4116:4140  boxNo >= 1 && boxNo <= 4 */\n      dup1\n      iszero\n      tag_318\n      jumpi\n      pop\n        /* \"contracts/LandFIStake2.sol\":4139:4140  4 */\n      0x04\n        /* \"contracts/LandFIStake2.sol\":4130:4135  boxNo */\n      dup2\n        /* \"contracts/LandFIStake2.sol\":4130:4140  boxNo <= 4 */\n      gt\n      iszero\n        /* \"contracts/LandFIStake2.sol\":4116:4140  boxNo >= 1 && boxNo <= 4 */\n    tag_318:\n        /* \"contracts/LandFIStake2.sol\":4108:4156  require(boxNo >= 1 && boxNo <= 4, \"Invalid box\") */\n      tag_319\n      jumpi\n      mload(0x40)\n      0x08c379a000000000000000000000000000000000000000000000000000000000\n      dup2\n      mstore\n      0x04\n      add\n      tag_320\n      swap1\n      tag_216\n      jump\t// in\n    tag_320:\n      mload(0x40)\n      dup1\n      swap2\n      sub\n      swap1\n      revert\n    tag_319:\n        /* \"contracts/LandFIStake2.sol\":4185:4193  minStake */\n      sload(0x16)\n        /* \"contracts/LandFIStake2.sol\":4175:4181  amount */\n      dup3\n        /* \"contracts/LandFIStake2.sol\":4175:4193  amount >= minStake */\n      lt\n      iszero\n        /* \"contracts/LandFIStake2.sol\":4175:4215  amount >= minStake && amount <= maxStake */\n      dup1\n      iszero\n      tag_321\n      jumpi\n      pop\n        /* \"contracts/LandFIStake2.sol\":4207:4215  maxStake */\n      sload(0x15)\n        /* \"contracts/LandFIStake2.sol\":4197:4203  amount */\n      dup3\n        /* \"contracts/LandFIStake2.sol\":4197:4215  amount <= maxStake */\n      gt\n      iszero\n        /* \"contracts/LandFIStake2.sol\":4175:4215  amount >= minStake && amount <= maxStake */\n    tag_321:\n        /* \"contracts/LandFIStake2.sol\":4167:4234  require(amount >= minStake && amount <= maxStake, \"Invalid amount\") */\n      tag_322\n      jumpi\n      mload(0x40)\n      0x08c379a000000000000000000000000000000000000000000000000000000000\n      dup2\n      mstore\n      0x04\n      add\n      tag_323\n      swap1\n      tag_324\n      jump\t// in\n    tag_323:\n      mload(0x40)\n      dup1\n      swap2\n      sub\n      swap1\n      revert\n    tag_322:\n        /* \"contracts/LandFIStake2.sol\":4254:4264  fullUnlock */\n      0x1b\n      0x00\n      swap1\n      sload\n      swap1\n      0x0100\n      exp\n      swap1\n      div\n      0xff\n      and\n        /* \"contracts/LandFIStake2.sol\":4253:4264  !fullUnlock */\n      iszero\n        /* \"contracts/LandFIStake2.sol\":4245:4287  require(!fullUnlock, \"Unlock mode active\") */\n      tag_325\n      jumpi\n      mload(0x40)\n      0x08c379a000000000000000000000000000000000000000000000000000000000\n      dup2\n      mstore\n      0x04\n      add\n      tag_326\n      swap1\n      tag_327\n      jump\t// in\n    tag_326:\n      mload(0x40)\n      dup1\n      swap2\n      sub\n      swap1\n      revert\n    tag_325:\n        /* \"contracts/LandFIStake2.sol\":4322:4333  rewardCount */\n      sload(0x18)\n        /* \"contracts/LandFIStake2.sol\":4306:4318  maxRewardDue */\n      sload(0x1a)\n        /* \"contracts/LandFIStake2.sol\":4306:4333  maxRewardDue >= rewardCount */\n      lt\n      iszero\n        /* \"contracts/LandFIStake2.sol\":4298:4351  require(maxRewardDue >= rewardCount, \"Staking ended\") */\n      tag_328\n      jumpi\n      mload(0x40)\n      0x08c379a000000000000000000000000000000000000000000000000000000000\n      dup2\n      mstore\n      0x04\n      add\n      tag_329\n      swap1\n      tag_330\n      jump\t// in\n    tag_329:\n      mload(0x40)\n      dup1\n      swap2\n      sub\n      swap1\n      revert\n    tag_328:\n        /* \"contracts/LandFIStake2.sol\":4364:4376  address user */\n      0x00\n        /* \"contracts/LandFIStake2.sol\":4379:4389  msg.sender */\n      caller\n        /* \"contracts/LandFIStake2.sol\":4364:4389  address user = msg.sender */\n      swap1\n      pop\n        /* \"contracts/LandFIStake2.sol\":4400:4420  uint256 rewardAmount */\n      0x00\n        /* \"contracts/LandFIStake2.sol\":4446:4447  1 */\n      0x01\n        /* \"contracts/LandFIStake2.sol\":4437:4442  boxNo */\n      dup4\n        /* \"contracts/LandFIStake2.sol\":4437:4447  boxNo == 1 */\n      sub\n        /* \"contracts/LandFIStake2.sol\":4433:5519  if (boxNo == 1) {... */\n      tag_331\n      jumpi\n        /* \"contracts/LandFIStake2.sol\":4472:4483  box1Enabled */\n      0x05\n      0x00\n      swap1\n      sload\n      swap1\n      0x0100\n      exp\n      swap1\n      div\n      0xff\n      and\n        /* \"contracts/LandFIStake2.sol\":4472:4509  box1Enabled && box1Balance[user] == 0 */\n      dup1\n      iszero\n      tag_332\n      jumpi\n      pop\n        /* \"contracts/LandFIStake2.sol\":4508:4509  0 */\n      0x00\n        /* \"contracts/LandFIStake2.sol\":4487:4498  box1Balance */\n      0x01\n        /* \"contracts/LandFIStake2.sol\":4487:4504  box1Balance[user] */\n      0x00\n        /* \"contracts/LandFIStake2.sol\":4499:4503  user */\n      dup5\n        /* \"contracts/LandFIStake2.sol\":4487:4504  box1Balance[user] */\n      0xffffffffffffffffffffffffffffffffffffffff\n      and\n      0xffffffffffffffffffffffffffffffffffffffff\n      and\n      dup2\n      mstore\n      0x20\n      add\n      swap1\n      dup2\n      mstore\n      0x20\n      add\n      0x00\n      keccak256\n      sload\n        /* \"contracts/LandFIStake2.sol\":4487:4509  box1Balance[user] == 0 */\n      eq\n        /* \"contracts/LandFIStake2.sol\":4472:4509  box1Enabled && box1Balance[user] == 0 */\n    tag_332:\n        /* \"contracts/LandFIStake2.sol\":4464:4546  require(box1Enabled && box1Balance[user] == 0, \"Box 1 disabled or already staked\") */\n      tag_333\n      jumpi\n      mload(0x40)\n      0x08c379a000000000000000000000000000000000000000000000000000000000\n      dup2\n      mstore\n      0x04\n      add\n      tag_334\n      swap1\n      tag_335\n      jump\t// in\n    tag_334:\n      mload(0x40)\n      dup1\n      swap2\n      sub\n      swap1\n      revert\n    tag_333:\n        /* \"contracts/LandFIStake2.sol\":4585:4593  box1Rate */\n      sload(0x03)\n        /* \"contracts/LandFIStake2.sol\":4576:4582  amount */\n      dup5\n        /* \"contracts/LandFIStake2.sol\":4576:4593  amount / box1Rate */\n      tag_336\n      swap2\n      swap1\n      tag_228\n      jump\t// in\n    tag_336:\n        /* \"contracts/LandFIStake2.sol\":4561:4593  rewardAmount = amount / box1Rate */\n      swap1\n      pop\n        /* \"contracts/LandFIStake2.sol\":4628:4634  amount */\n      dup4\n        /* \"contracts/LandFIStake2.sol\":4608:4619  box1Balance */\n      0x01\n        /* \"contracts/LandFIStake2.sol\":4608:4625  box1Balance[user] */\n      0x00\n        /* \"contracts/LandFIStake2.sol\":4620:4624  user */\n      dup5\n        /* \"contracts/LandFIStake2.sol\":4608:4625  box1Balance[user] */\n      0xffffffffffffffffffffffffffffffffffffffff\n      and\n      0xffffffffffffffffffffffffffffffffffffffff\n      and\n      dup2\n      mstore\n      0x20\n      add\n      swap1\n      dup2\n      mstore\n      0x20\n      add\n      0x00\n      keccak256\n        /* \"contracts/LandFIStake2.sol\":4608:4634  box1Balance[user] = amount */\n      dup2\n      swap1\n      sstore\n      pop\n        /* \"contracts/LandFIStake2.sol\":4673:4688  block.timestamp */\n      timestamp\n        /* \"contracts/LandFIStake2.sol\":4649:4664  box1DepositDate */\n      0x02\n        /* \"contracts/LandFIStake2.sol\":4649:4670  box1DepositDate[user] */\n      0x00\n        /* \"contracts/LandFIStake2.sol\":4665:4669  user */\n      dup5\n        /* \"contracts/LandFIStake2.sol\":4649:4670  box1DepositDate[user] */\n      0xffffffffffffffffffffffffffffffffffffffff\n      and\n      0xffffffffffffffffffffffffffffffffffffffff\n      and\n      dup2\n      mstore\n      0x20\n      add\n      swap1\n      dup2\n      mstore\n      0x20\n      add\n      0x00\n      keccak256\n        /* \"contracts/LandFIStake2.sol\":4649:4688  box1DepositDate[user] = block.timestamp */\n      dup2\n      swap1\n      sstore\n      pop\n        /* \"contracts/LandFIStake2.sol\":4433:5519  if (boxNo == 1) {... */\n      jump(tag_337)\n    tag_331:\n        /* \"contracts/LandFIStake2.sol\":4719:4720  2 */\n      0x02\n        /* \"contracts/LandFIStake2.sol\":4710:4715  boxNo */\n      dup4\n        /* \"contracts/LandFIStake2.sol\":4710:4720  boxNo == 2 */\n      sub\n        /* \"contracts/LandFIStake2.sol\":4706:5519  if (boxNo == 2) {... */\n      tag_338\n      jumpi\n        /* \"contracts/LandFIStake2.sol\":4745:4756  box2Enabled */\n      0x0a\n      0x00\n      swap1\n      sload\n      swap1\n      0x0100\n      exp\n      swap1\n      div\n      0xff\n      and\n        /* \"contracts/LandFIStake2.sol\":4745:4782  box2Enabled && box2Balance[user] == 0 */\n      dup1\n      iszero\n      tag_339\n      jumpi\n      pop\n        /* \"contracts/LandFIStake2.sol\":4781:4782  0 */\n      0x00\n        /* \"contracts/LandFIStake2.sol\":4760:4771  box2Balance */\n      0x06\n        /* \"contracts/LandFIStake2.sol\":4760:4777  box2Balance[user] */\n      0x00\n        /* \"contracts/LandFIStake2.sol\":4772:4776  user */\n      dup5\n        /* \"contracts/LandFIStake2.sol\":4760:4777  box2Balance[user] */\n      0xffffffffffffffffffffffffffffffffffffffff\n      and\n      0xffffffffffffffffffffffffffffffffffffffff\n      and\n      dup2\n      mstore\n      0x20\n      add\n      swap1\n      dup2\n      mstore\n      0x20\n      add\n      0x00\n      keccak256\n      sload\n        /* \"contracts/LandFIStake2.sol\":4760:4782  box2Balance[user] == 0 */\n      eq\n        /* \"contracts/LandFIStake2.sol\":4745:4782  box2Enabled && box2Balance[user] == 0 */\n    tag_339:\n        /* \"contracts/LandFIStake2.sol\":4737:4819  require(box2Enabled && box2Balance[user] == 0, \"Box 2 disabled or already staked\") */\n      tag_340\n      jumpi\n      mload(0x40)\n      0x08c379a000000000000000000000000000000000000000000000000000000000\n      dup2\n      mstore\n      0x04\n      add\n      tag_341\n      swap1\n      tag_342\n      jump\t// in\n    tag_341:\n      mload(0x40)\n      dup1\n      swap2\n      sub\n      swap1\n      revert\n    tag_340:\n        /* \"contracts/LandFIStake2.sol\":4858:4866  box2Rate */\n      sload(0x08)\n        /* \"contracts/LandFIStake2.sol\":4849:4855  amount */\n      dup5\n        /* \"contracts/LandFIStake2.sol\":4849:4866  amount / box2Rate */\n      tag_343\n      swap2\n      swap1\n      tag_228\n      jump\t// in\n    tag_343:\n        /* \"contracts/LandFIStake2.sol\":4834:4866  rewardAmount = amount / box2Rate */\n      swap1\n      pop\n        /* \"contracts/LandFIStake2.sol\":4901:4907  amount */\n      dup4\n        /* \"contracts/LandFIStake2.sol\":4881:4892  box2Balance */\n      0x06\n        /* \"contracts/LandFIStake2.sol\":4881:4898  box2Balance[user] */\n      0x00\n        /* \"contracts/LandFIStake2.sol\":4893:4897  user */\n      dup5\n        /* \"contracts/LandFIStake2.sol\":4881:4898  box2Balance[user] */\n      0xffffffffffffffffffffffffffffffffffffffff\n      and\n      0xffffffffffffffffffffffffffffffffffffffff\n      and\n      dup2\n      mstore\n      0x20\n      add\n      swap1\n      dup2\n      mstore\n      0x20\n      add\n      0x00\n      keccak256\n        /* \"contracts/LandFIStake2.sol\":4881:4907  box2Balance[user] = amount */\n      dup2\n      swap1\n      sstore\n      pop\n        /* \"contracts/LandFIStake2.sol\":4946:4961  block.timestamp */\n      timestamp\n        /* \"contracts/LandFIStake2.sol\":4922:4937  box2DepositDate */\n      0x07\n        /* \"contracts/LandFIStake2.sol\":4922:4943  box2DepositDate[user] */\n      0x00\n        /* \"contracts/LandFIStake2.sol\":4938:4942  user */\n      dup5\n        /* \"contracts/LandFIStake2.sol\":4922:4943  box2DepositDate[user] */\n      0xffffffffffffffffffffffffffffffffffffffff\n      and\n      0xffffffffffffffffffffffffffffffffffffffff\n      and\n      dup2\n      mstore\n      0x20\n      add\n      swap1\n      dup2\n      mstore\n      0x20\n      add\n      0x00\n      keccak256\n        /* \"contracts/LandFIStake2.sol\":4922:4961  box2DepositDate[user] = block.timestamp */\n      dup2\n      swap1\n      sstore\n      pop\n        /* \"contracts/LandFIStake2.sol\":4706:5519  if (boxNo == 2) {... */\n      jump(tag_344)\n    tag_338:\n        /* \"contracts/LandFIStake2.sol\":4992:4993  3 */\n      0x03\n        /* \"contracts/LandFIStake2.sol\":4983:4988  boxNo */\n      dup4\n        /* \"contracts/LandFIStake2.sol\":4983:4993  boxNo == 3 */\n      sub\n        /* \"contracts/LandFIStake2.sol\":4979:5519  if (boxNo == 3) {... */\n      tag_345\n      jumpi\n        /* \"contracts/LandFIStake2.sol\":5018:5029  box3Enabled */\n      0x0f\n      0x00\n      swap1\n      sload\n      swap1\n      0x0100\n      exp\n      swap1\n      div\n      0xff\n      and\n        /* \"contracts/LandFIStake2.sol\":5018:5055  box3Enabled && box3Balance[user] == 0 */\n      dup1\n      iszero\n      tag_346\n      jumpi\n      pop\n        /* \"contracts/LandFIStake2.sol\":5054:5055  0 */\n      0x00\n        /* \"contracts/LandFIStake2.sol\":5033:5044  box3Balance */\n      0x0b\n        /* \"contracts/LandFIStake2.sol\":5033:5050  box3Balance[user] */\n      0x00\n        /* \"contracts/LandFIStake2.sol\":5045:5049  user */\n      dup5\n        /* \"contracts/LandFIStake2.sol\":5033:5050  box3Balance[user] */\n      0xffffffffffffffffffffffffffffffffffffffff\n      and\n      0xffffffffffffffffffffffffffffffffffffffff\n      and\n      dup2\n      mstore\n      0x20\n      add\n      swap1\n      dup2\n      mstore\n      0x20\n      add\n      0x00\n      keccak256\n      sload\n        /* \"contracts/LandFIStake2.sol\":5033:5055  box3Balance[user] == 0 */\n      eq\n        /* \"contracts/LandFIStake2.sol\":5018:5055  box3Enabled && box3Balance[user] == 0 */\n    tag_346:\n        /* \"contracts/LandFIStake2.sol\":5010:5092  require(box3Enabled && box3Balance[user] == 0, \"Box 3 disabled or already staked\") */\n      tag_347\n      jumpi\n      mload(0x40)\n      0x08c379a000000000000000000000000000000000000000000000000000000000\n      dup2\n      mstore\n      0x04\n      add\n      tag_348\n      swap1\n      tag_349\n      jump\t// in\n    tag_348:\n      mload(0x40)\n      dup1\n      swap2\n      sub\n      swap1\n      revert\n    tag_347:\n        /* \"contracts/LandFIStake2.sol\":5131:5139  box3Rate */\n      sload(0x0d)\n        /* \"contracts/LandFIStake2.sol\":5122:5128  amount */\n      dup5\n        /* \"contracts/LandFIStake2.sol\":5122:5139  amount / box3Rate */\n      tag_350\n      swap2\n      swap1\n      tag_228\n      jump\t// in\n    tag_350:\n        /* \"contracts/LandFIStake2.sol\":5107:5139  rewardAmount = amount / box3Rate */\n      swap1\n      pop\n        /* \"contracts/LandFIStake2.sol\":5174:5180  amount */\n      dup4\n        /* \"contracts/LandFIStake2.sol\":5154:5165  box3Balance */\n      0x0b\n        /* \"contracts/LandFIStake2.sol\":5154:5171  box3Balance[user] */\n      0x00\n        /* \"contracts/LandFIStake2.sol\":5166:5170  user */\n      dup5\n        /* \"contracts/LandFIStake2.sol\":5154:5171  box3Balance[user] */\n      0xffffffffffffffffffffffffffffffffffffffff\n      and\n      0xffffffffffffffffffffffffffffffffffffffff\n      and\n      dup2\n      mstore\n      0x20\n      add\n      swap1\n      dup2\n      mstore\n      0x20\n      add\n      0x00\n      keccak256\n        /* \"contracts/LandFIStake2.sol\":5154:5180  box3Balance[user] = amount */\n      dup2\n      swap1\n      sstore\n      pop\n        /* \"contracts/LandFIStake2.sol\":5219:5234  block.timestamp */\n      timestamp\n        /* \"contracts/LandFIStake2.sol\":5195:5210  box3DepositDate */\n      0x0c\n        /* \"contracts/LandFIStake2.sol\":5195:5216  box3DepositDate[user] */\n      0x00\n        /* \"contracts/LandFIStake2.sol\":5211:5215  user */\n      dup5\n        /* \"contracts/LandFIStake2.sol\":5195:5216  box3DepositDate[user] */\n      0xffffffffffffffffffffffffffffffffffffffff\n      and\n      0xffffffffffffffffffffffffffffffffffffffff\n      and\n      dup2\n      mstore\n      0x20\n      add\n      swap1\n      dup2\n      mstore\n      0x20\n      add\n      0x00\n      keccak256\n        /* \"contracts/LandFIStake2.sol\":5195:5234  box3DepositDate[user] = block.timestamp */\n      dup2\n      swap1\n      sstore\n      pop\n        /* \"contracts/LandFIStake2.sol\":4979:5519  if (boxNo == 3) {... */\n      jump(tag_351)\n    tag_345:\n        /* \"contracts/LandFIStake2.sol\":5265:5266  4 */\n      0x04\n        /* \"contracts/LandFIStake2.sol\":5256:5261  boxNo */\n      dup4\n        /* \"contracts/LandFIStake2.sol\":5256:5266  boxNo == 4 */\n      sub\n        /* \"contracts/LandFIStake2.sol\":5252:5519  if (boxNo == 4) {... */\n      tag_352\n      jumpi\n        /* \"contracts/LandFIStake2.sol\":5291:5302  box4Enabled */\n      0x14\n      0x00\n      swap1\n      sload\n      swap1\n      0x0100\n      exp\n      swap1\n      div\n      0xff\n      and\n        /* \"contracts/LandFIStake2.sol\":5291:5328  box4Enabled && box4Balance[user] == 0 */\n      dup1\n      iszero\n      tag_353\n      jumpi\n      pop\n        /* \"contracts/LandFIStake2.sol\":5327:5328  0 */\n      0x00\n        /* \"contracts/LandFIStake2.sol\":5306:5317  box4Balance */\n      0x10\n        /* \"contracts/LandFIStake2.sol\":5306:5323  box4Balance[user] */\n      0x00\n        /* \"contracts/LandFIStake2.sol\":5318:5322  user */\n      dup5\n        /* \"contracts/LandFIStake2.sol\":5306:5323  box4Balance[user] */\n      0xffffffffffffffffffffffffffffffffffffffff\n      and\n      0xffffffffffffffffffffffffffffffffffffffff\n      and\n      dup2\n      mstore\n      0x20\n      add\n      swap1\n      dup2\n      mstore\n      0x20\n      add\n      0x00\n      keccak256\n      sload\n        /* \"contracts/LandFIStake2.sol\":5306:5328  box4Balance[user] == 0 */\n      eq\n        /* \"contracts/LandFIStake2.sol\":5291:5328  box4Enabled && box4Balance[user] == 0 */\n    tag_353:\n        /* \"contracts/LandFIStake2.sol\":5283:5365  require(box4Enabled && box4Balance[user] == 0, \"Box 4 disabled or already staked\") */\n      tag_354\n      jumpi\n      mload(0x40)\n      0x08c379a000000000000000000000000000000000000000000000000000000000\n      dup2\n      mstore\n      0x04\n      add\n      tag_355\n      swap1\n      tag_356\n      jump\t// in\n    tag_355:\n      mload(0x40)\n      dup1\n      swap2\n      sub\n      swap1\n      revert\n    tag_354:\n        /* \"contracts/LandFIStake2.sol\":5404:5412  box4Rate */\n      sload(0x12)\n        /* \"contracts/LandFIStake2.sol\":5395:5401  amount */\n      dup5\n        /* \"contracts/LandFIStake2.sol\":5395:5412  amount / box4Rate */\n      tag_357\n      swap2\n      swap1\n      tag_228\n      jump\t// in\n    tag_357:\n        /* \"contracts/LandFIStake2.sol\":5380:5412  rewardAmount = amount / box4Rate */\n      swap1\n      pop\n        /* \"contracts/LandFIStake2.sol\":5447:5453  amount */\n      dup4\n        /* \"contracts/LandFIStake2.sol\":5427:5438  box4Balance */\n      0x10\n        /* \"contracts/LandFIStake2.sol\":5427:5444  box4Balance[user] */\n      0x00\n        /* \"contracts/LandFIStake2.sol\":5439:5443  user */\n      dup5\n        /* \"contracts/LandFIStake2.sol\":5427:5444  box4Balance[user] */\n      0xffffffffffffffffffffffffffffffffffffffff\n      and\n      0xffffffffffffffffffffffffffffffffffffffff\n      and\n      dup2\n      mstore\n      0x20\n      add\n      swap1\n      dup2\n      mstore\n      0x20\n      add\n      0x00\n      keccak256\n        /* \"contracts/LandFIStake2.sol\":5427:5453  box4Balance[user] = amount */\n      dup2\n      swap1\n      sstore\n      pop\n        /* \"contracts/LandFIStake2.sol\":5492:5507  block.timestamp */\n      timestamp\n        /* \"contracts/LandFIStake2.sol\":5468:5483  box4DepositDate */\n      0x11\n        /* \"contracts/LandFIStake2.sol\":5468:5489  box4DepositDate[user] */\n      0x00\n        /* \"contracts/LandFIStake2.sol\":5484:5488  user */\n      dup5\n        /* \"contracts/LandFIStake2.sol\":5468:5489  box4DepositDate[user] */\n      0xffffffffffffffffffffffffffffffffffffffff\n      and\n      0xffffffffffffffffffffffffffffffffffffffff\n      and\n      dup2\n      mstore\n      0x20\n      add\n      swap1\n      dup2\n      mstore\n      0x20\n      add\n      0x00\n      keccak256\n        /* \"contracts/LandFIStake2.sol\":5468:5507  box4DepositDate[user] = block.timestamp */\n      dup2\n      swap1\n      sstore\n      pop\n        /* \"contracts/LandFIStake2.sol\":5252:5519  if (boxNo == 4) {... */\n    tag_352:\n        /* \"contracts/LandFIStake2.sol\":4979:5519  if (boxNo == 3) {... */\n    tag_351:\n        /* \"contracts/LandFIStake2.sol\":4706:5519  if (boxNo == 2) {... */\n    tag_344:\n        /* \"contracts/LandFIStake2.sol\":4433:5519  if (boxNo == 1) {... */\n    tag_337:\n        /* \"contracts/LandFIStake2.sol\":5549:5561  rewardAmount */\n      dup1\n        /* \"contracts/LandFIStake2.sol\":5531:5545  rewardCountDue */\n      0x17\n      0x00\n        /* \"contracts/LandFIStake2.sol\":5531:5561  rewardCountDue += rewardAmount */\n      dup3\n      dup3\n      sload\n      tag_358\n      swap2\n      swap1\n      tag_223\n      jump\t// in\n    tag_358:\n      swap3\n      pop\n      pop\n      dup2\n      swap1\n      sstore\n      pop\n        /* \"contracts/LandFIStake2.sol\":5587:5593  amount */\n      dup4\n        /* \"contracts/LandFIStake2.sol\":5572:5583  totalStaked */\n      0x19\n      0x00\n        /* \"contracts/LandFIStake2.sol\":5572:5593  totalStaked += amount */\n      dup3\n      dup3\n      sload\n      tag_359\n      swap2\n      swap1\n      tag_223\n      jump\t// in\n    tag_359:\n      swap3\n      pop\n      pop\n      dup2\n      swap1\n      sstore\n      pop\n        /* \"contracts/LandFIStake2.sol\":5606:5663  landFiToken.safeTransferFrom(user, address(this), amount) */\n      tag_360\n        /* \"contracts/LandFIStake2.sol\":5635:5639  user */\n      dup3\n        /* \"contracts/LandFIStake2.sol\":5649:5653  this */\n      address\n        /* \"contracts/LandFIStake2.sol\":5656:5662  amount */\n      dup7\n        /* \"contracts/LandFIStake2.sol\":5606:5617  landFiToken */\n      immutable(\"0x8933cd72e164c9b6ce552201c117297f7873e41b74a3438d5253e75d613ffbad\")\n        /* \"contracts/LandFIStake2.sol\":5606:5634  landFiToken.safeTransferFrom */\n      0xffffffffffffffffffffffffffffffffffffffff\n      and\n      tag_361\n      swap1\n        /* \"contracts/LandFIStake2.sol\":5606:5663  landFiToken.safeTransferFrom(user, address(this), amount) */\n      swap4\n      swap3\n      swap2\n      swap1\n      0xffffffff\n      and\n      jump\t// in\n    tag_360:\n        /* \"contracts/LandFIStake2.sol\":4097:5671  {... */\n      pop\n      pop\n        /* \"contracts/LandFIStake2.sol\":4039:5671  function addStake(uint256 amount, uint256 boxNo) external {... */\n      pop\n      pop\n      jump\t// out\n        /* \"@openzeppelin/contracts/access/Ownable.sol\":1796:1958  function _checkOwner() internal view virtual {... */\n    tag_207:\n        /* \"@openzeppelin/contracts/access/Ownable.sol\":1866:1878  _msgSender() */\n      tag_363\n        /* \"@openzeppelin/contracts/access/Ownable.sol\":1866:1876  _msgSender */\n      tag_364\n        /* \"@openzeppelin/contracts/access/Ownable.sol\":1866:1878  _msgSender() */\n      jump\t// in\n    tag_363:\n        /* \"@openzeppelin/contracts/access/Ownable.sol\":1855:1878  owner() != _msgSender() */\n      0xffffffffffffffffffffffffffffffffffffffff\n      and\n        /* \"@openzeppelin/contracts/access/Ownable.sol\":1855:1862  owner() */\n      tag_365\n        /* \"@openzeppelin/contracts/access/Ownable.sol\":1855:1860  owner */\n      tag_149\n        /* \"@openzeppelin/contracts/access/Ownable.sol\":1855:1862  owner() */\n      jump\t// in\n    tag_365:\n        /* \"@openzeppelin/contracts/access/Ownable.sol\":1855:1878  owner() != _msgSender() */\n      0xffffffffffffffffffffffffffffffffffffffff\n      and\n      eq\n        /* \"@openzeppelin/contracts/access/Ownable.sol\":1851:1952  if (owner() != _msgSender()) {... */\n      tag_366\n      jumpi\n        /* \"@openzeppelin/contracts/access/Ownable.sol\":1928:1940  _msgSender() */\n      tag_367\n        /* \"@openzeppelin/contracts/access/Ownable.sol\":1928:1938  _msgSender */\n      tag_364\n        /* \"@openzeppelin/contracts/access/Ownable.sol\":1928:1940  _msgSender() */\n      jump\t// in\n    tag_367:\n        /* \"@openzeppelin/contracts/access/Ownable.sol\":1901:1941  OwnableUnauthorizedAccount(_msgSender()) */\n      mload(0x40)\n      0x118cdaa700000000000000000000000000000000000000000000000000000000\n      dup2\n      mstore\n      0x04\n      add\n      tag_368\n      swap2\n      swap1\n      tag_151\n      jump\t// in\n    tag_368:\n      mload(0x40)\n      dup1\n      swap2\n      sub\n      swap1\n      revert\n        /* \"@openzeppelin/contracts/access/Ownable.sol\":1851:1952  if (owner() != _msgSender()) {... */\n    tag_366:\n        /* \"@openzeppelin/contracts/access/Ownable.sol\":1796:1958  function _checkOwner() internal view virtual {... */\n      jump\t// out\n        /* \"@openzeppelin/contracts/token/ERC20/utils/SafeERC20.sol\":1219:1379  function safeTransfer(IERC20 token, address to, uint256 value) internal {... */\n    tag_263:\n        /* \"@openzeppelin/contracts/token/ERC20/utils/SafeERC20.sol\":1301:1372  _callOptionalReturn(token, abi.encodeCall(token.transfer, (to, value))) */\n      tag_370\n        /* \"@openzeppelin/contracts/token/ERC20/utils/SafeERC20.sol\":1321:1326  token */\n      dup4\n        /* \"@openzeppelin/contracts/token/ERC20/utils/SafeERC20.sol\":1343:1348  token */\n      dup5\n        /* \"@openzeppelin/contracts/token/ERC20/utils/SafeERC20.sol\":1343:1357  token.transfer */\n      0xffffffffffffffffffffffffffffffffffffffff\n      and\n      0xa9059cbb\n        /* \"@openzeppelin/contracts/token/ERC20/utils/SafeERC20.sol\":1360:1362  to */\n      dup6\n        /* \"@openzeppelin/contracts/token/ERC20/utils/SafeERC20.sol\":1364:1369  value */\n      dup6\n        /* \"@openzeppelin/contracts/token/ERC20/utils/SafeERC20.sol\":1328:1371  abi.encodeCall(token.transfer, (to, value)) */\n      add(0x24, mload(0x40))\n      tag_371\n      swap3\n      swap2\n      swap1\n      tag_372\n      jump\t// in\n    tag_371:\n      mload(0x40)\n      0x20\n      dup2\n      dup4\n      sub\n      sub\n      dup2\n      mstore\n      swap1\n      0x40\n      mstore\n      swap2\n      pop\n      0xe0\n      shl\n      0x20\n      dup3\n      add\n      dup1\n      mload\n      0xffffffffffffffffffffffffffffffffffffffffffffffffffffffff\n      dup4\n      dup2\n      dup4\n      and\n      or\n      dup4\n      mstore\n      pop\n      pop\n      pop\n      pop\n        /* \"@openzeppelin/contracts/token/ERC20/utils/SafeERC20.sol\":1301:1320  _callOptionalReturn */\n      tag_373\n        /* \"@openzeppelin/contracts/token/ERC20/utils/SafeERC20.sol\":1301:1372  _callOptionalReturn(token, abi.encodeCall(token.transfer, (to, value))) */\n      jump\t// in\n    tag_370:\n        /* \"@openzeppelin/contracts/token/ERC20/utils/SafeERC20.sol\":1219:1379  function safeTransfer(IERC20 token, address to, uint256 value) internal {... */\n      pop\n      pop\n      pop\n      jump\t// out\n        /* \"@openzeppelin/contracts/access/Ownable.sol\":2912:3099  function _transferOwnership(address newOwner) internal virtual {... */\n    tag_288:\n        /* \"@openzeppelin/contracts/access/Ownable.sol\":2985:3001  address oldOwner */\n      0x00\n        /* \"@openzeppelin/contracts/access/Ownable.sol\":3004:3010  _owner */\n      0x00\n      0x00\n      swap1\n      sload\n      swap1\n      0x0100\n      exp\n      swap1\n      div\n      0xffffffffffffffffffffffffffffffffffffffff\n      and\n        /* \"@openzeppelin/contracts/access/Ownable.sol\":2985:3010  address oldOwner = _owner */\n      swap1\n      pop\n        /* \"@openzeppelin/contracts/access/Ownable.sol\":3029:3037  newOwner */\n      dup2\n        /* \"@openzeppelin/contracts/access/Ownable.sol\":3020:3026  _owner */\n      0x00\n      0x00\n        /* \"@openzeppelin/contracts/access/Ownable.sol\":3020:3037  _owner = newOwner */\n      0x0100\n      exp\n      dup2\n      sload\n      dup2\n      0xffffffffffffffffffffffffffffffffffffffff\n      mul\n      not\n      and\n      swap1\n      dup4\n      0xffffffffffffffffffffffffffffffffffffffff\n      and\n      mul\n      or\n      swap1\n      sstore\n      pop\n        /* \"@openzeppelin/contracts/access/Ownable.sol\":3083:3091  newOwner */\n      dup2\n        /* \"@openzeppelin/contracts/access/Ownable.sol\":3052:3092  OwnershipTransferred(oldOwner, newOwner) */\n      0xffffffffffffffffffffffffffffffffffffffff\n      and\n        /* \"@openzeppelin/contracts/access/Ownable.sol\":3073:3081  oldOwner */\n      dup2\n        /* \"@openzeppelin/contracts/access/Ownable.sol\":3052:3092  OwnershipTransferred(oldOwner, newOwner) */\n      0xffffffffffffffffffffffffffffffffffffffff\n      and\n      0x8be0079c531659141344cd1fd0a4f28419497f9722a3daafe3b4186f6b6457e0\n      mload(0x40)\n      mload(0x40)\n      dup1\n      swap2\n      sub\n      swap1\n      log3\n        /* \"@openzeppelin/contracts/access/Ownable.sol\":2975:3099  {... */\n      pop\n        /* \"@openzeppelin/contracts/access/Ownable.sol\":2912:3099  function _transferOwnership(address newOwner) internal virtual {... */\n      pop\n      jump\t// out\n        /* \"@openzeppelin/contracts/token/ERC20/utils/SafeERC20.sol\":1618:1806  function safeTransferFrom(IERC20 token, address from, address to, uint256 value) internal {... */\n    tag_361:\n        /* \"@openzeppelin/contracts/token/ERC20/utils/SafeERC20.sol\":1718:1799  _callOptionalReturn(token, abi.encodeCall(token.transferFrom, (from, to, value))) */\n      tag_376\n        /* \"@openzeppelin/contracts/token/ERC20/utils/SafeERC20.sol\":1738:1743  token */\n      dup5\n        /* \"@openzeppelin/contracts/token/ERC20/utils/SafeERC20.sol\":1760:1765  token */\n      dup6\n        /* \"@openzeppelin/contracts/token/ERC20/utils/SafeERC20.sol\":1760:1778  token.transferFrom */\n      0xffffffffffffffffffffffffffffffffffffffff\n      and\n      0x23b872dd\n        /* \"@openzeppelin/contracts/token/ERC20/utils/SafeERC20.sol\":1781:1785  from */\n      dup7\n        /* \"@openzeppelin/contracts/token/ERC20/utils/SafeERC20.sol\":1787:1789  to */\n      dup7\n        /* \"@openzeppelin/contracts/token/ERC20/utils/SafeERC20.sol\":1791:1796  value */\n      dup7\n        /* \"@openzeppelin/contracts/token/ERC20/utils/SafeERC20.sol\":1745:1798  abi.encodeCall(token.transferFrom, (from, to, value)) */\n      add(0x24, mload(0x40))\n      tag_377\n      swap4\n      swap3\n      swap2\n      swap1\n      tag_378\n      jump\t// in\n    tag_377:\n      mload(0x40)\n      0x20\n      dup2\n      dup4\n      sub\n      sub\n      dup2\n      mstore\n      swap1\n      0x40\n      mstore\n      swap2\n      pop\n      0xe0\n      shl\n      0x20\n      dup3\n      add\n      dup1\n      mload\n      0xffffffffffffffffffffffffffffffffffffffffffffffffffffffff\n      dup4\n      dup2\n      dup4\n      and\n      or\n      dup4\n      mstore\n      pop\n      pop\n      pop\n      pop\n        /* \"@openzeppelin/contracts/token/ERC20/utils/SafeERC20.sol\":1718:1737  _callOptionalReturn */\n      tag_373\n        /* \"@openzeppelin/contracts/token/ERC20/utils/SafeERC20.sol\":1718:1799  _callOptionalReturn(token, abi.encodeCall(token.transferFrom, (from, to, value))) */\n      jump\t// in\n    tag_376:\n        /* \"@openzeppelin/contracts/token/ERC20/utils/SafeERC20.sol\":1618:1806  function safeTransferFrom(IERC20 token, address from, address to, uint256 value) internal {... */\n      pop\n      pop\n      pop\n      pop\n      jump\t// out\n        /* \"@openzeppelin/contracts/utils/Context.sol\":656:752  function _msgSender() internal view virtual returns (address) {... */\n    tag_364:\n        /* \"@openzeppelin/contracts/utils/Context.sol\":709:716  address */\n      0x00\n        /* \"@openzeppelin/contracts/utils/Context.sol\":735:745  msg.sender */\n      caller\n        /* \"@openzeppelin/contracts/utils/Context.sol\":728:745  return msg.sender */\n      swap1\n      pop\n        /* \"@openzeppelin/contracts/utils/Context.sol\":656:752  function _msgSender() internal view virtual returns (address) {... */\n      swap1\n      jump\t// out\n        /* \"@openzeppelin/contracts/token/ERC20/utils/SafeERC20.sol\":8370:9090  function _callOptionalReturn(IERC20 token, bytes memory data) private {... */\n    tag_373:\n        /* \"@openzeppelin/contracts/token/ERC20/utils/SafeERC20.sol\":8450:8468  uint256 returnSize */\n      0x00\n        /* \"@openzeppelin/contracts/token/ERC20/utils/SafeERC20.sol\":8478:8497  uint256 returnValue */\n      0x00\n        /* \"@openzeppelin/contracts/token/ERC20/utils/SafeERC20.sol\":8616:8620  0x20 */\n      0x20\n        /* \"@openzeppelin/contracts/token/ERC20/utils/SafeERC20.sol\":8613:8614  0 */\n      0x00\n        /* \"@openzeppelin/contracts/token/ERC20/utils/SafeERC20.sol\":8606:8610  data */\n      dup5\n        /* \"@openzeppelin/contracts/token/ERC20/utils/SafeERC20.sol\":8600:8611  mload(data) */\n      mload\n        /* \"@openzeppelin/contracts/token/ERC20/utils/SafeERC20.sol\":8593:8597  0x20 */\n      0x20\n        /* \"@openzeppelin/contracts/token/ERC20/utils/SafeERC20.sol\":8587:8591  data */\n      dup7\n        /* \"@openzeppelin/contracts/token/ERC20/utils/SafeERC20.sol\":8583:8598  add(data, 0x20) */\n      add\n        /* \"@openzeppelin/contracts/token/ERC20/utils/SafeERC20.sol\":8580:8581  0 */\n      0x00\n        /* \"@openzeppelin/contracts/token/ERC20/utils/SafeERC20.sol\":8573:8578  token */\n      dup9\n        /* \"@openzeppelin/contracts/token/ERC20/utils/SafeERC20.sol\":8566:8571  gas() */\n      gas\n        /* \"@openzeppelin/contracts/token/ERC20/utils/SafeERC20.sol\":8561:8621  call(gas(), token, 0, add(data, 0x20), mload(data), 0, 0x20) */\n      call\n        /* \"@openzeppelin/contracts/token/ERC20/utils/SafeERC20.sol\":8673:8680  success */\n      dup1\n        /* \"@openzeppelin/contracts/token/ERC20/utils/SafeERC20.sol\":8663:8839  if iszero(success) {... */\n      tag_381\n      jumpi\n        /* \"@openzeppelin/contracts/token/ERC20/utils/SafeERC20.sol\":8717:8721  0x40 */\n      0x40\n        /* \"@openzeppelin/contracts/token/ERC20/utils/SafeERC20.sol\":8711:8722  mload(0x40) */\n      mload\n        /* \"@openzeppelin/contracts/token/ERC20/utils/SafeERC20.sol\":8762:8778  returndatasize() */\n      returndatasize\n        /* \"@openzeppelin/contracts/token/ERC20/utils/SafeERC20.sol\":8759:8760  0 */\n      0x00\n        /* \"@openzeppelin/contracts/token/ERC20/utils/SafeERC20.sol\":8754:8757  ptr */\n      dup3\n        /* \"@openzeppelin/contracts/token/ERC20/utils/SafeERC20.sol\":8739:8779  returndatacopy(ptr, 0, returndatasize()) */\n      returndatacopy\n        /* \"@openzeppelin/contracts/token/ERC20/utils/SafeERC20.sol\":8808:8824  returndatasize() */\n      returndatasize\n        /* \"@openzeppelin/contracts/token/ERC20/utils/SafeERC20.sol\":8803:8806  ptr */\n      dup2\n        /* \"@openzeppelin/contracts/token/ERC20/utils/SafeERC20.sol\":8796:8825  revert(ptr, returndatasize()) */\n      revert\n        /* \"@openzeppelin/contracts/token/ERC20/utils/SafeERC20.sol\":8663:8839  if iszero(success) {... */\n    tag_381:\n        /* \"@openzeppelin/contracts/token/ERC20/utils/SafeERC20.sol\":8866:8882  returndatasize() */\n      returndatasize\n        /* \"@openzeppelin/contracts/token/ERC20/utils/SafeERC20.sol\":8852:8882  returnSize := returndatasize() */\n      swap3\n      pop\n        /* \"@openzeppelin/contracts/token/ERC20/utils/SafeERC20.sol\":8916:8917  0 */\n      0x00\n        /* \"@openzeppelin/contracts/token/ERC20/utils/SafeERC20.sol\":8910:8918  mload(0) */\n      mload\n        /* \"@openzeppelin/contracts/token/ERC20/utils/SafeERC20.sol\":8895:8918  returnValue := mload(0) */\n      swap2\n      pop\n        /* \"@openzeppelin/contracts/token/ERC20/utils/SafeERC20.sol\":8532:8928  {... */\n      pop\n        /* \"@openzeppelin/contracts/token/ERC20/utils/SafeERC20.sol\":8956:8957  0 */\n      0x00\n        /* \"@openzeppelin/contracts/token/ERC20/utils/SafeERC20.sol\":8942:8952  returnSize */\n      dup3\n        /* \"@openzeppelin/contracts/token/ERC20/utils/SafeERC20.sol\":8942:8957  returnSize == 0 */\n      eq\n        /* \"@openzeppelin/contracts/token/ERC20/utils/SafeERC20.sol\":8942:9010  returnSize == 0 ? address(token).code.length == 0 : returnValue != 1 */\n      tag_382\n      jumpi\n        /* \"@openzeppelin/contracts/token/ERC20/utils/SafeERC20.sol\":9009:9010  1 */\n      0x01\n        /* \"@openzeppelin/contracts/token/ERC20/utils/SafeERC20.sol\":8994:9005  returnValue */\n      dup2\n        /* \"@openzeppelin/contracts/token/ERC20/utils/SafeERC20.sol\":8994:9010  returnValue != 1 */\n      eq\n      iszero\n        /* \"@openzeppelin/contracts/token/ERC20/utils/SafeERC20.sol\":8942:9010  returnSize == 0 ? address(token).code.length == 0 : returnValue != 1 */\n      jump(tag_383)\n    tag_382:\n        /* \"@openzeppelin/contracts/token/ERC20/utils/SafeERC20.sol\":8990:8991  0 */\n      0x00\n        /* \"@openzeppelin/contracts/token/ERC20/utils/SafeERC20.sol\":8968:8973  token */\n      dup5\n        /* \"@openzeppelin/contracts/token/ERC20/utils/SafeERC20.sol\":8960:8986  address(token).code.length */\n      0xffffffffffffffffffffffffffffffffffffffff\n      and\n      extcodesize\n        /* \"@openzeppelin/contracts/token/ERC20/utils/SafeERC20.sol\":8960:8991  address(token).code.length == 0 */\n      eq\n        /* \"@openzeppelin/contracts/token/ERC20/utils/SafeERC20.sol\":8942:9010  returnSize == 0 ? address(token).code.length == 0 : returnValue != 1 */\n    tag_383:\n        /* \"@openzeppelin/contracts/token/ERC20/utils/SafeERC20.sol\":8938:9084  if (returnSize == 0 ? address(token).code.length == 0 : returnValue != 1) {... */\n      iszero\n      tag_384\n      jumpi\n        /* \"@openzeppelin/contracts/token/ERC20/utils/SafeERC20.sol\":9066:9071  token */\n      dup4\n        /* \"@openzeppelin/contracts/token/ERC20/utils/SafeERC20.sol\":9033:9073  SafeERC20FailedOperation(address(token)) */\n      mload(0x40)\n      0x5274afe700000000000000000000000000000000000000000000000000000000\n      dup2\n      mstore\n      0x04\n      add\n      tag_385\n      swap2\n      swap1\n      tag_151\n      jump\t// in\n    tag_385:\n      mload(0x40)\n      dup1\n      swap2\n      sub\n      swap1\n      revert\n        /* \"@openzeppelin/contracts/token/ERC20/utils/SafeERC20.sol\":8938:9084  if (returnSize == 0 ? address(token).code.length == 0 : returnValue != 1) {... */\n    tag_384:\n        /* \"@openzeppelin/contracts/token/ERC20/utils/SafeERC20.sol\":8440:9090  {... */\n      pop\n      pop\n        /* \"@openzeppelin/contracts/token/ERC20/utils/SafeERC20.sol\":8370:9090  function _callOptionalReturn(IERC20 token, bytes memory data) private {... */\n      pop\n      pop\n      jump\t// out\n        /* \"#utility.yul\":88:205   */\n    tag_387:\n        /* \"#utility.yul\":197:198   */\n      0x00\n        /* \"#utility.yul\":194:195   */\n      0x00\n        /* \"#utility.yul\":187:199   */\n      revert\n        /* \"#utility.yul\":334:460   */\n    tag_389:\n        /* \"#utility.yul\":371:378   */\n      0x00\n        /* \"#utility.yul\":411:453   */\n      0xffffffffffffffffffffffffffffffffffffffff\n        /* \"#utility.yul\":404:409   */\n      dup3\n        /* \"#utility.yul\":400:454   */\n      and\n        /* \"#utility.yul\":389:454   */\n      swap1\n      pop\n        /* \"#utility.yul\":334:460   */\n      swap2\n      swap1\n      pop\n      jump\t// out\n        /* \"#utility.yul\":466:562   */\n    tag_390:\n        /* \"#utility.yul\":503:510   */\n      0x00\n        /* \"#utility.yul\":532:556   */\n      tag_436\n        /* \"#utility.yul\":550:555   */\n      dup3\n        /* \"#utility.yul\":532:556   */\n      tag_389\n      jump\t// in\n    tag_436:\n        /* \"#utility.yul\":521:556   */\n      swap1\n      pop\n        /* \"#utility.yul\":466:562   */\n      swap2\n      swap1\n      pop\n      jump\t// out\n        /* \"#utility.yul\":568:690   */\n    tag_391:\n        /* \"#utility.yul\":641:665   */\n      tag_438\n        /* \"#utility.yul\":659:664   */\n      dup2\n        /* \"#utility.yul\":641:665   */\n      tag_390\n      jump\t// in\n    tag_438:\n        /* \"#utility.yul\":634:639   */\n      dup2\n        /* \"#utility.yul\":631:666   */\n      eq\n        /* \"#utility.yul\":621:684   */\n      tag_439\n      jumpi\n        /* \"#utility.yul\":680:681   */\n      0x00\n        /* \"#utility.yul\":677:678   */\n      0x00\n        /* \"#utility.yul\":670:682   */\n      revert\n        /* \"#utility.yul\":621:684   */\n    tag_439:\n        /* \"#utility.yul\":568:690   */\n      pop\n      jump\t// out\n        /* \"#utility.yul\":696:835   */\n    tag_392:\n        /* \"#utility.yul\":742:747   */\n      0x00\n        /* \"#utility.yul\":780:786   */\n      dup2\n        /* \"#utility.yul\":767:787   */\n      calldataload\n        /* \"#utility.yul\":758:787   */\n      swap1\n      pop\n        /* \"#utility.yul\":796:829   */\n      tag_441\n        /* \"#utility.yul\":823:828   */\n      dup2\n        /* \"#utility.yul\":796:829   */\n      tag_391\n      jump\t// in\n    tag_441:\n        /* \"#utility.yul\":696:835   */\n      swap3\n      swap2\n      pop\n      pop\n      jump\t// out\n        /* \"#utility.yul\":841:1170   */\n    tag_56:\n        /* \"#utility.yul\":900:906   */\n      0x00\n        /* \"#utility.yul\":949:951   */\n      0x20\n        /* \"#utility.yul\":937:946   */\n      dup3\n        /* \"#utility.yul\":928:935   */\n      dup5\n        /* \"#utility.yul\":924:947   */\n      sub\n        /* \"#utility.yul\":920:952   */\n      slt\n        /* \"#utility.yul\":917:1036   */\n      iszero\n      tag_443\n      jumpi\n        /* \"#utility.yul\":955:1034   */\n      tag_444\n      tag_387\n      jump\t// in\n    tag_444:\n        /* \"#utility.yul\":917:1036   */\n    tag_443:\n        /* \"#utility.yul\":1075:1076   */\n      0x00\n        /* \"#utility.yul\":1100:1153   */\n      tag_445\n        /* \"#utility.yul\":1145:1152   */\n      dup5\n        /* \"#utility.yul\":1136:1142   */\n      dup3\n        /* \"#utility.yul\":1125:1134   */\n      dup6\n        /* \"#utility.yul\":1121:1143   */\n      add\n        /* \"#utility.yul\":1100:1153   */\n      tag_392\n      jump\t// in\n    tag_445:\n        /* \"#utility.yul\":1090:1153   */\n      swap2\n      pop\n        /* \"#utility.yul\":1046:1163   */\n      pop\n        /* \"#utility.yul\":841:1170   */\n      swap3\n      swap2\n      pop\n      pop\n      jump\t// out\n        /* \"#utility.yul\":1176:1253   */\n    tag_393:\n        /* \"#utility.yul\":1213:1220   */\n      0x00\n        /* \"#utility.yul\":1242:1247   */\n      dup2\n        /* \"#utility.yul\":1231:1247   */\n      swap1\n      pop\n        /* \"#utility.yul\":1176:1253   */\n      swap2\n      swap1\n      pop\n      jump\t// out\n        /* \"#utility.yul\":1259:1377   */\n    tag_394:\n        /* \"#utility.yul\":1346:1370   */\n      tag_448\n        /* \"#utility.yul\":1364:1369   */\n      dup2\n        /* \"#utility.yul\":1346:1370   */\n      tag_393\n      jump\t// in\n    tag_448:\n        /* \"#utility.yul\":1341:1344   */\n      dup3\n        /* \"#utility.yul\":1334:1371   */\n      mstore\n        /* \"#utility.yul\":1259:1377   */\n      pop\n      pop\n      jump\t// out\n        /* \"#utility.yul\":1383:1605   */\n    tag_59:\n        /* \"#utility.yul\":1476:1480   */\n      0x00\n        /* \"#utility.yul\":1514:1516   */\n      0x20\n        /* \"#utility.yul\":1503:1512   */\n      dup3\n        /* \"#utility.yul\":1499:1517   */\n      add\n        /* \"#utility.yul\":1491:1517   */\n      swap1\n      pop\n        /* \"#utility.yul\":1527:1598   */\n      tag_450\n        /* \"#utility.yul\":1595:1596   */\n      0x00\n        /* \"#utility.yul\":1584:1593   */\n      dup4\n        /* \"#utility.yul\":1580:1597   */\n      add\n        /* \"#utility.yul\":1571:1577   */\n      dup5\n        /* \"#utility.yul\":1527:1598   */\n      tag_394\n      jump\t// in\n    tag_450:\n        /* \"#utility.yul\":1383:1605   */\n      swap3\n      swap2\n      pop\n      pop\n      jump\t// out\n        /* \"#utility.yul\":1611:1701   */\n    tag_395:\n        /* \"#utility.yul\":1645:1652   */\n      0x00\n        /* \"#utility.yul\":1688:1693   */\n      dup2\n        /* \"#utility.yul\":1681:1694   */\n      iszero\n        /* \"#utility.yul\":1674:1695   */\n      iszero\n        /* \"#utility.yul\":1663:1695   */\n      swap1\n      pop\n        /* \"#utility.yul\":1611:1701   */\n      swap2\n      swap1\n      pop\n      jump\t// out\n        /* \"#utility.yul\":1707:1823   */\n    tag_396:\n        /* \"#utility.yul\":1777:1798   */\n      tag_453\n        /* \"#utility.yul\":1792:1797   */\n      dup2\n        /* \"#utility.yul\":1777:1798   */\n      tag_395\n      jump\t// in\n    tag_453:\n        /* \"#utility.yul\":1770:1775   */\n      dup2\n        /* \"#utility.yul\":1767:1799   */\n      eq\n        /* \"#utility.yul\":1757:1817   */\n      tag_454\n      jumpi\n        /* \"#utility.yul\":1813:1814   */\n      0x00\n        /* \"#utility.yul\":1810:1811   */\n      0x00\n        /* \"#utility.yul\":1803:1815   */\n      revert\n        /* \"#utility.yul\":1757:1817   */\n    tag_454:\n        /* \"#utility.yul\":1707:1823   */\n      pop\n      jump\t// out\n        /* \"#utility.yul\":1829:1962   */\n    tag_397:\n        /* \"#utility.yul\":1872:1877   */\n      0x00\n        /* \"#utility.yul\":1910:1916   */\n      dup2\n        /* \"#utility.yul\":1897:1917   */\n      calldataload\n        /* \"#utility.yul\":1888:1917   */\n      swap1\n      pop\n        /* \"#utility.yul\":1926:1956   */\n      tag_456\n        /* \"#utility.yul\":1950:1955   */\n      dup2\n        /* \"#utility.yul\":1926:1956   */\n      tag_396\n      jump\t// in\n    tag_456:\n        /* \"#utility.yul\":1829:1962   */\n      swap3\n      swap2\n      pop\n      pop\n      jump\t// out\n        /* \"#utility.yul\":1968:2291   */\n    tag_65:\n        /* \"#utility.yul\":2024:2030   */\n      0x00\n        /* \"#utility.yul\":2073:2075   */\n      0x20\n        /* \"#utility.yul\":2061:2070   */\n      dup3\n        /* \"#utility.yul\":2052:2059   */\n      dup5\n        /* \"#utility.yul\":2048:2071   */\n      sub\n        /* \"#utility.yul\":2044:2076   */\n      slt\n        /* \"#utility.yul\":2041:2160   */\n      iszero\n      tag_458\n      jumpi\n        /* \"#utility.yul\":2079:2158   */\n      tag_459\n      tag_387\n      jump\t// in\n    tag_459:\n        /* \"#utility.yul\":2041:2160   */\n    tag_458:\n        /* \"#utility.yul\":2199:2200   */\n      0x00\n        /* \"#utility.yul\":2224:2274   */\n      tag_460\n        /* \"#utility.yul\":2266:2273   */\n      dup5\n        /* \"#utility.yul\":2257:2263   */\n      dup3\n        /* \"#utility.yul\":2246:2255   */\n      dup6\n        /* \"#utility.yul\":2242:2264   */\n      add\n        /* \"#utility.yul\":2224:2274   */\n      tag_397\n      jump\t// in\n    tag_460:\n        /* \"#utility.yul\":2214:2274   */\n      swap2\n      pop\n        /* \"#utility.yul\":2170:2284   */\n      pop\n        /* \"#utility.yul\":1968:2291   */\n      swap3\n      swap2\n      pop\n      pop\n      jump\t// out\n        /* \"#utility.yul\":2297:2419   */\n    tag_398:\n        /* \"#utility.yul\":2370:2394   */\n      tag_462\n        /* \"#utility.yul\":2388:2393   */\n      dup2\n        /* \"#utility.yul\":2370:2394   */\n      tag_393\n      jump\t// in\n    tag_462:\n        /* \"#utility.yul\":2363:2368   */\n      dup2\n        /* \"#utility.yul\":2360:2395   */\n      eq\n        /* \"#utility.yul\":2350:2413   */\n      tag_463\n      jumpi\n        /* \"#utility.yul\":2409:2410   */\n      0x00\n        /* \"#utility.yul\":2406:2407   */\n      0x00\n        /* \"#utility.yul\":2399:2411   */\n      revert\n        /* \"#utility.yul\":2350:2413   */\n    tag_463:\n        /* \"#utility.yul\":2297:2419   */\n      pop\n      jump\t// out\n        /* \"#utility.yul\":2425:2564   */\n    tag_399:\n        /* \"#utility.yul\":2471:2476   */\n      0x00\n        /* \"#utility.yul\":2509:2515   */\n      dup2\n        /* \"#utility.yul\":2496:2516   */\n      calldataload\n        /* \"#utility.yul\":2487:2516   */\n      swap1\n      pop\n        /* \"#utility.yul\":2525:2558   */\n      tag_465\n        /* \"#utility.yul\":2552:2557   */\n      dup2\n        /* \"#utility.yul\":2525:2558   */\n      tag_398\n      jump\t// in\n    tag_465:\n        /* \"#utility.yul\":2425:2564   */\n      swap3\n      swap2\n      pop\n      pop\n      jump\t// out\n        /* \"#utility.yul\":2570:2899   */\n    tag_69:\n        /* \"#utility.yul\":2629:2635   */\n      0x00\n        /* \"#utility.yul\":2678:2680   */\n      0x20\n        /* \"#utility.yul\":2666:2675   */\n      dup3\n        /* \"#utility.yul\":2657:2664   */\n      dup5\n        /* \"#utility.yul\":2653:2676   */\n      sub\n        /* \"#utility.yul\":2649:2681   */\n      slt\n        /* \"#utility.yul\":2646:2765   */\n      iszero\n      tag_467\n      jumpi\n        /* \"#utility.yul\":2684:2763   */\n      tag_468\n      tag_387\n      jump\t// in\n    tag_468:\n        /* \"#utility.yul\":2646:2765   */\n    tag_467:\n        /* \"#utility.yul\":2804:2805   */\n      0x00\n        /* \"#utility.yul\":2829:2882   */\n      tag_469\n        /* \"#utility.yul\":2874:2881   */\n      dup5\n        /* \"#utility.yul\":2865:2871   */\n      dup3\n        /* \"#utility.yul\":2854:2863   */\n      dup6\n        /* \"#utility.yul\":2850:2872   */\n      add\n        /* \"#utility.yul\":2829:2882   */\n      tag_399\n      jump\t// in\n    tag_469:\n        /* \"#utility.yul\":2819:2882   */\n      swap2\n      pop\n        /* \"#utility.yul\":2775:2892   */\n      pop\n        /* \"#utility.yul\":2570:2899   */\n      swap3\n      swap2\n      pop\n      pop\n      jump\t// out\n        /* \"#utility.yul\":2905:2965   */\n    tag_400:\n        /* \"#utility.yul\":2933:2936   */\n      0x00\n        /* \"#utility.yul\":2954:2959   */\n      dup2\n        /* \"#utility.yul\":2947:2959   */\n      swap1\n      pop\n        /* \"#utility.yul\":2905:2965   */\n      swap2\n      swap1\n      pop\n      jump\t// out\n        /* \"#utility.yul\":2971:3113   */\n    tag_401:\n        /* \"#utility.yul\":3021:3030   */\n      0x00\n        /* \"#utility.yul\":3054:3107   */\n      tag_472\n        /* \"#utility.yul\":3072:3106   */\n      tag_473\n        /* \"#utility.yul\":3081:3105   */\n      tag_474\n        /* \"#utility.yul\":3099:3104   */\n      dup5\n        /* \"#utility.yul\":3081:3105   */\n      tag_389\n      jump\t// in\n    tag_474:\n        /* \"#utility.yul\":3072:3106   */\n      tag_400\n      jump\t// in\n    tag_473:\n        /* \"#utility.yul\":3054:3107   */\n      tag_389\n      jump\t// in\n    tag_472:\n        /* \"#utility.yul\":3041:3107   */\n      swap1\n      pop\n        /* \"#utility.yul\":2971:3113   */\n      swap2\n      swap1\n      pop\n      jump\t// out\n        /* \"#utility.yul\":3119:3245   */\n    tag_402:\n        /* \"#utility.yul\":3169:3178   */\n      0x00\n        /* \"#utility.yul\":3202:3239   */\n      tag_476\n        /* \"#utility.yul\":3233:3238   */\n      dup3\n        /* \"#utility.yul\":3202:3239   */\n      tag_401\n      jump\t// in\n    tag_476:\n        /* \"#utility.yul\":3189:3239   */\n      swap1\n      pop\n        /* \"#utility.yul\":3119:3245   */\n      swap2\n      swap1\n      pop\n      jump\t// out\n        /* \"#utility.yul\":3251:3391   */\n    tag_403:\n        /* \"#utility.yul\":3315:3324   */\n      0x00\n        /* \"#utility.yul\":3348:3385   */\n      tag_478\n        /* \"#utility.yul\":3379:3384   */\n      dup3\n        /* \"#utility.yul\":3348:3385   */\n      tag_402\n      jump\t// in\n    tag_478:\n        /* \"#utility.yul\":3335:3385   */\n      swap1\n      pop\n        /* \"#utility.yul\":3251:3391   */\n      swap2\n      swap1\n      pop\n      jump\t// out\n        /* \"#utility.yul\":3397:3556   */\n    tag_404:\n        /* \"#utility.yul\":3498:3549   */\n      tag_480\n        /* \"#utility.yul\":3543:3548   */\n      dup2\n        /* \"#utility.yul\":3498:3549   */\n      tag_403\n      jump\t// in\n    tag_480:\n        /* \"#utility.yul\":3493:3496   */\n      dup3\n        /* \"#utility.yul\":3486:3550   */\n      mstore\n        /* \"#utility.yul\":3397:3556   */\n      pop\n      pop\n      jump\t// out\n        /* \"#utility.yul\":3562:3812   */\n    tag_78:\n        /* \"#utility.yul\":3669:3673   */\n      0x00\n        /* \"#utility.yul\":3707:3709   */\n      0x20\n        /* \"#utility.yul\":3696:3705   */\n      dup3\n        /* \"#utility.yul\":3692:3710   */\n      add\n        /* \"#utility.yul\":3684:3710   */\n      swap1\n      pop\n        /* \"#utility.yul\":3720:3805   */\n      tag_482\n        /* \"#utility.yul\":3802:3803   */\n      0x00\n        /* \"#utility.yul\":3791:3800   */\n      dup4\n        /* \"#utility.yul\":3787:3804   */\n      add\n        /* \"#utility.yul\":3778:3784   */\n      dup5\n        /* \"#utility.yul\":3720:3805   */\n      tag_404\n      jump\t// in\n    tag_482:\n        /* \"#utility.yul\":3562:3812   */\n      swap3\n      swap2\n      pop\n      pop\n      jump\t// out\n        /* \"#utility.yul\":3818:4292   */\n    tag_102:\n        /* \"#utility.yul\":3886:3892   */\n      0x00\n        /* \"#utility.yul\":3894:3900   */\n      0x00\n        /* \"#utility.yul\":3943:3945   */\n      0x40\n        /* \"#utility.yul\":3931:3940   */\n      dup4\n        /* \"#utility.yul\":3922:3929   */\n      dup6\n        /* \"#utility.yul\":3918:3941   */\n      sub\n        /* \"#utility.yul\":3914:3946   */\n      slt\n        /* \"#utility.yul\":3911:4030   */\n      iszero\n      tag_484\n      jumpi\n        /* \"#utility.yul\":3949:4028   */\n      tag_485\n      tag_387\n      jump\t// in\n    tag_485:\n        /* \"#utility.yul\":3911:4030   */\n    tag_484:\n        /* \"#utility.yul\":4069:4070   */\n      0x00\n        /* \"#utility.yul\":4094:4147   */\n      tag_486\n        /* \"#utility.yul\":4139:4146   */\n      dup6\n        /* \"#utility.yul\":4130:4136   */\n      dup3\n        /* \"#utility.yul\":4119:4128   */\n      dup7\n        /* \"#utility.yul\":4115:4137   */\n      add\n        /* \"#utility.yul\":4094:4147   */\n      tag_392\n      jump\t// in\n    tag_486:\n        /* \"#utility.yul\":4084:4147   */\n      swap3\n      pop\n        /* \"#utility.yul\":4040:4157   */\n      pop\n        /* \"#utility.yul\":4196:4198   */\n      0x20\n        /* \"#utility.yul\":4222:4275   */\n      tag_487\n        /* \"#utility.yul\":4267:4274   */\n      dup6\n        /* \"#utility.yul\":4258:4264   */\n      dup3\n        /* \"#utility.yul\":4247:4256   */\n      dup7\n        /* \"#utility.yul\":4243:4265   */\n      add\n        /* \"#utility.yul\":4222:4275   */\n      tag_399\n      jump\t// in\n    tag_487:\n        /* \"#utility.yul\":4212:4275   */\n      swap2\n      pop\n        /* \"#utility.yul\":4167:4285   */\n      pop\n        /* \"#utility.yul\":3818:4292   */\n      swap3\n      pop\n      swap3\n      swap1\n      pop\n      jump\t// out\n        /* \"#utility.yul\":4298:4407   */\n    tag_405:\n        /* \"#utility.yul\":4379:4400   */\n      tag_489\n        /* \"#utility.yul\":4394:4399   */\n      dup2\n        /* \"#utility.yul\":4379:4400   */\n      tag_395\n      jump\t// in\n    tag_489:\n        /* \"#utility.yul\":4374:4377   */\n      dup3\n        /* \"#utility.yul\":4367:4401   */\n      mstore\n        /* \"#utility.yul\":4298:4407   */\n      pop\n      pop\n      jump\t// out\n        /* \"#utility.yul\":4413:4623   */\n    tag_112:\n        /* \"#utility.yul\":4500:4504   */\n      0x00\n        /* \"#utility.yul\":4538:4540   */\n      0x20\n        /* \"#utility.yul\":4527:4536   */\n      dup3\n        /* \"#utility.yul\":4523:4541   */\n      add\n        /* \"#utility.yul\":4515:4541   */\n      swap1\n      pop\n        /* \"#utility.yul\":4551:4616   */\n      tag_491\n        /* \"#utility.yul\":4613:4614   */\n      0x00\n        /* \"#utility.yul\":4602:4611   */\n      dup4\n        /* \"#utility.yul\":4598:4615   */\n      add\n        /* \"#utility.yul\":4589:4595   */\n      dup5\n        /* \"#utility.yul\":4551:4616   */\n      tag_405\n      jump\t// in\n    tag_491:\n        /* \"#utility.yul\":4413:4623   */\n      swap3\n      swap2\n      pop\n      pop\n      jump\t// out\n        /* \"#utility.yul\":4629:4747   */\n    tag_406:\n        /* \"#utility.yul\":4716:4740   */\n      tag_493\n        /* \"#utility.yul\":4734:4739   */\n      dup2\n        /* \"#utility.yul\":4716:4740   */\n      tag_390\n      jump\t// in\n    tag_493:\n        /* \"#utility.yul\":4711:4714   */\n      dup3\n        /* \"#utility.yul\":4704:4741   */\n      mstore\n        /* \"#utility.yul\":4629:4747   */\n      pop\n      pop\n      jump\t// out\n        /* \"#utility.yul\":4753:4975   */\n    tag_151:\n        /* \"#utility.yul\":4846:4850   */\n      0x00\n        /* \"#utility.yul\":4884:4886   */\n      0x20\n        /* \"#utility.yul\":4873:4882   */\n      dup3\n        /* \"#utility.yul\":4869:4887   */\n      add\n        /* \"#utility.yul\":4861:4887   */\n      swap1\n      pop\n        /* \"#utility.yul\":4897:4968   */\n      tag_495\n        /* \"#utility.yul\":4965:4966   */\n      0x00\n        /* \"#utility.yul\":4954:4963   */\n      dup4\n        /* \"#utility.yul\":4950:4967   */\n      add\n        /* \"#utility.yul\":4941:4947   */\n      dup5\n        /* \"#utility.yul\":4897:4968   */\n      tag_406\n      jump\t// in\n    tag_495:\n        /* \"#utility.yul\":4753:4975   */\n      swap3\n      swap2\n      pop\n      pop\n      jump\t// out\n        /* \"#utility.yul\":4981:5455   */\n    tag_203:\n        /* \"#utility.yul\":5049:5055   */\n      0x00\n        /* \"#utility.yul\":5057:5063   */\n      0x00\n        /* \"#utility.yul\":5106:5108   */\n      0x40\n        /* \"#utility.yul\":5094:5103   */\n      dup4\n        /* \"#utility.yul\":5085:5092   */\n      dup6\n        /* \"#utility.yul\":5081:5104   */\n      sub\n        /* \"#utility.yul\":5077:5109   */\n      slt\n        /* \"#utility.yul\":5074:5193   */\n      iszero\n      tag_497\n      jumpi\n        /* \"#utility.yul\":5112:5191   */\n      tag_498\n      tag_387\n      jump\t// in\n    tag_498:\n        /* \"#utility.yul\":5074:5193   */\n    tag_497:\n        /* \"#utility.yul\":5232:5233   */\n      0x00\n        /* \"#utility.yul\":5257:5310   */\n      tag_499\n        /* \"#utility.yul\":5302:5309   */\n      dup6\n        /* \"#utility.yul\":5293:5299   */\n      dup3\n        /* \"#utility.yul\":5282:5291   */\n      dup7\n        /* \"#utility.yul\":5278:5300   */\n      add\n        /* \"#utility.yul\":5257:5310   */\n      tag_399\n      jump\t// in\n    tag_499:\n        /* \"#utility.yul\":5247:5310   */\n      swap3\n      pop\n        /* \"#utility.yul\":5203:5320   */\n      pop\n        /* \"#utility.yul\":5359:5361   */\n      0x20\n        /* \"#utility.yul\":5385:5438   */\n      tag_500\n        /* \"#utility.yul\":5430:5437   */\n      dup6\n        /* \"#utility.yul\":5421:5427   */\n      dup3\n        /* \"#utility.yul\":5410:5419   */\n      dup7\n        /* \"#utility.yul\":5406:5428   */\n      add\n        /* \"#utility.yul\":5385:5438   */\n      tag_399\n      jump\t// in\n    tag_500:\n        /* \"#utility.yul\":5375:5438   */\n      swap2\n      pop\n        /* \"#utility.yul\":5330:5448   */\n      pop\n        /* \"#utility.yul\":4981:5455   */\n      swap3\n      pop\n      swap3\n      swap1\n      pop\n      jump\t// out\n        /* \"#utility.yul\":5461:5630   */\n    tag_407:\n        /* \"#utility.yul\":5545:5556   */\n      0x00\n        /* \"#utility.yul\":5579:5585   */\n      dup3\n        /* \"#utility.yul\":5574:5577   */\n      dup3\n        /* \"#utility.yul\":5567:5586   */\n      mstore\n        /* \"#utility.yul\":5619:5623   */\n      0x20\n        /* \"#utility.yul\":5614:5617   */\n      dup3\n        /* \"#utility.yul\":5610:5624   */\n      add\n        /* \"#utility.yul\":5595:5624   */\n      swap1\n      pop\n        /* \"#utility.yul\":5461:5630   */\n      swap3\n      swap2\n      pop\n      pop\n      jump\t// out\n        /* \"#utility.yul\":5636:5797   */\n    tag_408:\n        /* \"#utility.yul\":5776:5789   */\n      0x496e76616c696420626f78000000000000000000000000000000000000000000\n        /* \"#utility.yul\":5772:5773   */\n      0x00\n        /* \"#utility.yul\":5764:5770   */\n      dup3\n        /* \"#utility.yul\":5760:5774   */\n      add\n        /* \"#utility.yul\":5753:5790   */\n      mstore\n        /* \"#utility.yul\":5636:5797   */\n      pop\n      jump\t// out\n        /* \"#utility.yul\":5803:6169   */\n    tag_409:\n        /* \"#utility.yul\":5945:5948   */\n      0x00\n        /* \"#utility.yul\":5966:6033   */\n      tag_504\n        /* \"#utility.yul\":6030:6032   */\n      0x0b\n        /* \"#utility.yul\":6025:6028   */\n      dup4\n        /* \"#utility.yul\":5966:6033   */\n      tag_407\n      jump\t// in\n    tag_504:\n        /* \"#utility.yul\":5959:6033   */\n      swap2\n      pop\n        /* \"#utility.yul\":6042:6135   */\n      tag_505\n        /* \"#utility.yul\":6131:6134   */\n      dup3\n        /* \"#utility.yul\":6042:6135   */\n      tag_408\n      jump\t// in\n    tag_505:\n        /* \"#utility.yul\":6160:6162   */\n      0x20\n        /* \"#utility.yul\":6155:6158   */\n      dup3\n        /* \"#utility.yul\":6151:6163   */\n      add\n        /* \"#utility.yul\":6144:6163   */\n      swap1\n      pop\n        /* \"#utility.yul\":5803:6169   */\n      swap2\n      swap1\n      pop\n      jump\t// out\n        /* \"#utility.yul\":6175:6594   */\n    tag_216:\n        /* \"#utility.yul\":6341:6345   */\n      0x00\n        /* \"#utility.yul\":6379:6381   */\n      0x20\n        /* \"#utility.yul\":6368:6377   */\n      dup3\n        /* \"#utility.yul\":6364:6382   */\n      add\n        /* \"#utility.yul\":6356:6382   */\n      swap1\n      pop\n        /* \"#utility.yul\":6428:6437   */\n      dup2\n        /* \"#utility.yul\":6422:6426   */\n      dup2\n        /* \"#utility.yul\":6418:6438   */\n      sub\n        /* \"#utility.yul\":6414:6415   */\n      0x00\n        /* \"#utility.yul\":6403:6412   */\n      dup4\n        /* \"#utility.yul\":6399:6416   */\n      add\n        /* \"#utility.yul\":6392:6439   */\n      mstore\n        /* \"#utility.yul\":6456:6587   */\n      tag_507\n        /* \"#utility.yul\":6582:6586   */\n      dup2\n        /* \"#utility.yul\":6456:6587   */\n      tag_409\n      jump\t// in\n    tag_507:\n        /* \"#utility.yul\":6448:6587   */\n      swap1\n      pop\n        /* \"#utility.yul\":6175:6594   */\n      swap2\n      swap1\n      pop\n      jump\t// out\n        /* \"#utility.yul\":6600:6758   */\n    tag_410:\n        /* \"#utility.yul\":6740:6750   */\n      0x4e6f207374616b65000000000000000000000000000000000000000000000000\n        /* \"#utility.yul\":6736:6737   */\n      0x00\n        /* \"#utility.yul\":6728:6734   */\n      dup3\n        /* \"#utility.yul\":6724:6738   */\n      add\n        /* \"#utility.yul\":6717:6751   */\n      mstore\n        /* \"#utility.yul\":6600:6758   */\n      pop\n      jump\t// out\n        /* \"#utility.yul\":6764:7129   */\n    tag_411:\n        /* \"#utility.yul\":6906:6909   */\n      0x00\n        /* \"#utility.yul\":6927:6993   */\n      tag_510\n        /* \"#utility.yul\":6991:6992   */\n      0x08\n        /* \"#utility.yul\":6986:6989   */\n      dup4\n        /* \"#utility.yul\":6927:6993   */\n      tag_407\n      jump\t// in\n    tag_510:\n        /* \"#utility.yul\":6920:6993   */\n      swap2\n      pop\n        /* \"#utility.yul\":7002:7095   */\n      tag_511\n        /* \"#utility.yul\":7091:7094   */\n      dup3\n        /* \"#utility.yul\":7002:7095   */\n      tag_410\n      jump\t// in\n    tag_511:\n        /* \"#utility.yul\":7120:7122   */\n      0x20\n        /* \"#utility.yul\":7115:7118   */\n      dup3\n        /* \"#utility.yul\":7111:7123   */\n      add\n        /* \"#utility.yul\":7104:7123   */\n      swap1\n      pop\n        /* \"#utility.yul\":6764:7129   */\n      swap2\n      swap1\n      pop\n      jump\t// out\n        /* \"#utility.yul\":7135:7554   */\n    tag_220:\n        /* \"#utility.yul\":7301:7305   */\n      0x00\n        /* \"#utility.yul\":7339:7341   */\n      0x20\n        /* \"#utility.yul\":7328:7337   */\n      dup3\n        /* \"#utility.yul\":7324:7342   */\n      add\n        /* \"#utility.yul\":7316:7342   */\n      swap1\n      pop\n        /* \"#utility.yul\":7388:7397   */\n      dup2\n        /* \"#utility.yul\":7382:7386   */\n      dup2\n        /* \"#utility.yul\":7378:7398   */\n      sub\n        /* \"#utility.yul\":7374:7375   */\n      0x00\n        /* \"#utility.yul\":7363:7372   */\n      dup4\n        /* \"#utility.yul\":7359:7376   */\n      add\n        /* \"#utility.yul\":7352:7399   */\n      mstore\n        /* \"#utility.yul\":7416:7547   */\n      tag_513\n        /* \"#utility.yul\":7542:7546   */\n      dup2\n        /* \"#utility.yul\":7416:7547   */\n      tag_411\n      jump\t// in\n    tag_513:\n        /* \"#utility.yul\":7408:7547   */\n      swap1\n      pop\n        /* \"#utility.yul\":7135:7554   */\n      swap2\n      swap1\n      pop\n      jump\t// out\n        /* \"#utility.yul\":7560:7740   */\n    tag_412:\n        /* \"#utility.yul\":7608:7685   */\n      0x4e487b7100000000000000000000000000000000000000000000000000000000\n        /* \"#utility.yul\":7605:7606   */\n      0x00\n        /* \"#utility.yul\":7598:7686   */\n      mstore\n        /* \"#utility.yul\":7705:7709   */\n      0x11\n        /* \"#utility.yul\":7702:7703   */\n      0x04\n        /* \"#utility.yul\":7695:7710   */\n      mstore\n        /* \"#utility.yul\":7729:7733   */\n      0x24\n        /* \"#utility.yul\":7726:7727   */\n      0x00\n        /* \"#utility.yul\":7719:7734   */\n      revert\n        /* \"#utility.yul\":7746:7937   */\n    tag_223:\n        /* \"#utility.yul\":7786:7789   */\n      0x00\n        /* \"#utility.yul\":7805:7825   */\n      tag_516\n        /* \"#utility.yul\":7823:7824   */\n      dup3\n        /* \"#utility.yul\":7805:7825   */\n      tag_393\n      jump\t// in\n    tag_516:\n        /* \"#utility.yul\":7800:7825   */\n      swap2\n      pop\n        /* \"#utility.yul\":7839:7859   */\n      tag_517\n        /* \"#utility.yul\":7857:7858   */\n      dup4\n        /* \"#utility.yul\":7839:7859   */\n      tag_393\n      jump\t// in\n    tag_517:\n        /* \"#utility.yul\":7834:7859   */\n      swap3\n      pop\n        /* \"#utility.yul\":7882:7883   */\n      dup3\n        /* \"#utility.yul\":7879:7880   */\n      dup3\n        /* \"#utility.yul\":7875:7884   */\n      add\n        /* \"#utility.yul\":7868:7884   */\n      swap1\n      pop\n        /* \"#utility.yul\":7903:7906   */\n      dup1\n        /* \"#utility.yul\":7900:7901   */\n      dup3\n        /* \"#utility.yul\":7897:7907   */\n      gt\n        /* \"#utility.yul\":7894:7930   */\n      iszero\n      tag_518\n      jumpi\n        /* \"#utility.yul\":7910:7928   */\n      tag_519\n      tag_412\n      jump\t// in\n    tag_519:\n        /* \"#utility.yul\":7894:7930   */\n    tag_518:\n        /* \"#utility.yul\":7746:7937   */\n      swap3\n      swap2\n      pop\n      pop\n      jump\t// out\n        /* \"#utility.yul\":7943:8105   */\n    tag_413:\n        /* \"#utility.yul\":8083:8097   */\n      0x4e6f7420756e6c6f636b65640000000000000000000000000000000000000000\n        /* \"#utility.yul\":8079:8080   */\n      0x00\n        /* \"#utility.yul\":8071:8077   */\n      dup3\n        /* \"#utility.yul\":8067:8081   */\n      add\n        /* \"#utility.yul\":8060:8098   */\n      mstore\n        /* \"#utility.yul\":7943:8105   */\n      pop\n      jump\t// out\n        /* \"#utility.yul\":8111:8477   */\n    tag_414:\n        /* \"#utility.yul\":8253:8256   */\n      0x00\n        /* \"#utility.yul\":8274:8341   */\n      tag_522\n        /* \"#utility.yul\":8338:8340   */\n      0x0c\n        /* \"#utility.yul\":8333:8336   */\n      dup4\n        /* \"#utility.yul\":8274:8341   */\n      tag_407\n      jump\t// in\n    tag_522:\n        /* \"#utility.yul\":8267:8341   */\n      swap2\n      pop\n        /* \"#utility.yul\":8350:8443   */\n      tag_523\n        /* \"#utility.yul\":8439:8442   */\n      dup3\n        /* \"#utility.yul\":8350:8443   */\n      tag_413\n      jump\t// in\n    tag_523:\n        /* \"#utility.yul\":8468:8470   */\n      0x20\n        /* \"#utility.yul\":8463:8466   */\n      dup3\n        /* \"#utility.yul\":8459:8471   */\n      add\n        /* \"#utility.yul\":8452:8471   */\n      swap1\n      pop\n        /* \"#utility.yul\":8111:8477   */\n      swap2\n      swap1\n      pop\n      jump\t// out\n        /* \"#utility.yul\":8483:8902   */\n    tag_226:\n        /* \"#utility.yul\":8649:8653   */\n      0x00\n        /* \"#utility.yul\":8687:8689   */\n      0x20\n        /* \"#utility.yul\":8676:8685   */\n      dup3\n        /* \"#utility.yul\":8672:8690   */\n      add\n        /* \"#utility.yul\":8664:8690   */\n      swap1\n      pop\n        /* \"#utility.yul\":8736:8745   */\n      dup2\n        /* \"#utility.yul\":8730:8734   */\n      dup2\n        /* \"#utility.yul\":8726:8746   */\n      sub\n        /* \"#utility.yul\":8722:8723   */\n      0x00\n        /* \"#utility.yul\":8711:8720   */\n      dup4\n        /* \"#utility.yul\":8707:8724   */\n      add\n        /* \"#utility.yul\":8700:8747   */\n      mstore\n        /* \"#utility.yul\":8764:8895   */\n      tag_525\n        /* \"#utility.yul\":8890:8894   */\n      dup2\n        /* \"#utility.yul\":8764:8895   */\n      tag_414\n      jump\t// in\n    tag_525:\n        /* \"#utility.yul\":8756:8895   */\n      swap1\n      pop\n        /* \"#utility.yul\":8483:8902   */\n      swap2\n      swap1\n      pop\n      jump\t// out\n        /* \"#utility.yul\":8908:9088   */\n    tag_415:\n        /* \"#utility.yul\":8956:9033   */\n      0x4e487b7100000000000000000000000000000000000000000000000000000000\n        /* \"#utility.yul\":8953:8954   */\n      0x00\n        /* \"#utility.yul\":8946:9034   */\n      mstore\n        /* \"#utility.yul\":9053:9057   */\n      0x12\n        /* \"#utility.yul\":9050:9051   */\n      0x04\n        /* \"#utility.yul\":9043:9058   */\n      mstore\n        /* \"#utility.yul\":9077:9081   */\n      0x24\n        /* \"#utility.yul\":9074:9075   */\n      0x00\n        /* \"#utility.yul\":9067:9082   */\n      revert\n        /* \"#utility.yul\":9094:9279   */\n    tag_228:\n        /* \"#utility.yul\":9134:9135   */\n      0x00\n        /* \"#utility.yul\":9151:9171   */\n      tag_528\n        /* \"#utility.yul\":9169:9170   */\n      dup3\n        /* \"#utility.yul\":9151:9171   */\n      tag_393\n      jump\t// in\n    tag_528:\n        /* \"#utility.yul\":9146:9171   */\n      swap2\n      pop\n        /* \"#utility.yul\":9185:9205   */\n      tag_529\n        /* \"#utility.yul\":9203:9204   */\n      dup4\n        /* \"#utility.yul\":9185:9205   */\n      tag_393\n      jump\t// in\n    tag_529:\n        /* \"#utility.yul\":9180:9205   */\n      swap3\n      pop\n        /* \"#utility.yul\":9224:9225   */\n      dup3\n        /* \"#utility.yul\":9214:9249   */\n      tag_530\n      jumpi\n        /* \"#utility.yul\":9229:9247   */\n      tag_531\n      tag_415\n      jump\t// in\n    tag_531:\n        /* \"#utility.yul\":9214:9249   */\n    tag_530:\n        /* \"#utility.yul\":9271:9272   */\n      dup3\n        /* \"#utility.yul\":9268:9269   */\n      dup3\n        /* \"#utility.yul\":9264:9273   */\n      div\n        /* \"#utility.yul\":9259:9273   */\n      swap1\n      pop\n        /* \"#utility.yul\":9094:9279   */\n      swap3\n      swap2\n      pop\n      pop\n      jump\t// out\n        /* \"#utility.yul\":9285:9479   */\n    tag_257:\n        /* \"#utility.yul\":9325:9329   */\n      0x00\n        /* \"#utility.yul\":9345:9365   */\n      tag_533\n        /* \"#utility.yul\":9363:9364   */\n      dup3\n        /* \"#utility.yul\":9345:9365   */\n      tag_393\n      jump\t// in\n    tag_533:\n        /* \"#utility.yul\":9340:9365   */\n      swap2\n      pop\n        /* \"#utility.yul\":9379:9399   */\n      tag_534\n        /* \"#utility.yul\":9397:9398   */\n      dup4\n        /* \"#utility.yul\":9379:9399   */\n      tag_393\n      jump\t// in\n    tag_534:\n        /* \"#utility.yul\":9374:9399   */\n      swap3\n      pop\n        /* \"#utility.yul\":9423:9424   */\n      dup3\n        /* \"#utility.yul\":9420:9421   */\n      dup3\n        /* \"#utility.yul\":9416:9425   */\n      sub\n        /* \"#utility.yul\":9408:9425   */\n      swap1\n      pop\n        /* \"#utility.yul\":9447:9448   */\n      dup2\n        /* \"#utility.yul\":9441:9445   */\n      dup2\n        /* \"#utility.yul\":9438:9449   */\n      gt\n        /* \"#utility.yul\":9435:9472   */\n      iszero\n      tag_535\n      jumpi\n        /* \"#utility.yul\":9452:9470   */\n      tag_536\n      tag_412\n      jump\t// in\n    tag_536:\n        /* \"#utility.yul\":9435:9472   */\n    tag_535:\n        /* \"#utility.yul\":9285:9479   */\n      swap3\n      swap2\n      pop\n      pop\n      jump\t// out\n        /* \"#utility.yul\":9485:9649   */\n    tag_416:\n        /* \"#utility.yul\":9625:9641   */\n      0x496e76616c696420616d6f756e74000000000000000000000000000000000000\n        /* \"#utility.yul\":9621:9622   */\n      0x00\n        /* \"#utility.yul\":9613:9619   */\n      dup3\n        /* \"#utility.yul\":9609:9623   */\n      add\n        /* \"#utility.yul\":9602:9642   */\n      mstore\n        /* \"#utility.yul\":9485:9649   */\n      pop\n      jump\t// out\n        /* \"#utility.yul\":9655:10021   */\n    tag_417:\n        /* \"#utility.yul\":9797:9800   */\n      0x00\n        /* \"#utility.yul\":9818:9885   */\n      tag_539\n        /* \"#utility.yul\":9882:9884   */\n      0x0e\n        /* \"#utility.yul\":9877:9880   */\n      dup4\n        /* \"#utility.yul\":9818:9885   */\n      tag_407\n      jump\t// in\n    tag_539:\n        /* \"#utility.yul\":9811:9885   */\n      swap2\n      pop\n        /* \"#utility.yul\":9894:9987   */\n      tag_540\n        /* \"#utility.yul\":9983:9986   */\n      dup3\n        /* \"#utility.yul\":9894:9987   */\n      tag_416\n      jump\t// in\n    tag_540:\n        /* \"#utility.yul\":10012:10014   */\n      0x20\n        /* \"#utility.yul\":10007:10010   */\n      dup3\n        /* \"#utility.yul\":10003:10015   */\n      add\n        /* \"#utility.yul\":9996:10015   */\n      swap1\n      pop\n        /* \"#utility.yul\":9655:10021   */\n      swap2\n      swap1\n      pop\n      jump\t// out\n        /* \"#utility.yul\":10027:10446   */\n    tag_324:\n        /* \"#utility.yul\":10193:10197   */\n      0x00\n        /* \"#utility.yul\":10231:10233   */\n      0x20\n        /* \"#utility.yul\":10220:10229   */\n      dup3\n        /* \"#utility.yul\":10216:10234   */\n      add\n        /* \"#utility.yul\":10208:10234   */\n      swap1\n      pop\n        /* \"#utility.yul\":10280:10289   */\n      dup2\n        /* \"#utility.yul\":10274:10278   */\n      dup2\n        /* \"#utility.yul\":10270:10290   */\n      sub\n        /* \"#utility.yul\":10266:10267   */\n      0x00\n        /* \"#utility.yul\":10255:10264   */\n      dup4\n        /* \"#utility.yul\":10251:10268   */\n      add\n        /* \"#utility.yul\":10244:10291   */\n      mstore\n        /* \"#utility.yul\":10308:10439   */\n      tag_542\n        /* \"#utility.yul\":10434:10438   */\n      dup2\n        /* \"#utility.yul\":10308:10439   */\n      tag_417\n      jump\t// in\n    tag_542:\n        /* \"#utility.yul\":10300:10439   */\n      swap1\n      pop\n        /* \"#utility.yul\":10027:10446   */\n      swap2\n      swap1\n      pop\n      jump\t// out\n        /* \"#utility.yul\":10452:10620   */\n    tag_418:\n        /* \"#utility.yul\":10592:10612   */\n      0x556e6c6f636b206d6f6465206163746976650000000000000000000000000000\n        /* \"#utility.yul\":10588:10589   */\n      0x00\n        /* \"#utility.yul\":10580:10586   */\n      dup3\n        /* \"#utility.yul\":10576:10590   */\n      add\n        /* \"#utility.yul\":10569:10613   */\n      mstore\n        /* \"#utility.yul\":10452:10620   */\n      pop\n      jump\t// out\n        /* \"#utility.yul\":10626:10992   */\n    tag_419:\n        /* \"#utility.yul\":10768:10771   */\n      0x00\n        /* \"#utility.yul\":10789:10856   */\n      tag_545\n        /* \"#utility.yul\":10853:10855   */\n      0x12\n        /* \"#utility.yul\":10848:10851   */\n      dup4\n        /* \"#utility.yul\":10789:10856   */\n      tag_407\n      jump\t// in\n    tag_545:\n        /* \"#utility.yul\":10782:10856   */\n      swap2\n      pop\n        /* \"#utility.yul\":10865:10958   */\n      tag_546\n        /* \"#utility.yul\":10954:10957   */\n      dup3\n        /* \"#utility.yul\":10865:10958   */\n      tag_418\n      jump\t// in\n    tag_546:\n        /* \"#utility.yul\":10983:10985   */\n      0x20\n        /* \"#utility.yul\":10978:10981   */\n      dup3\n        /* \"#utility.yul\":10974:10986   */\n      add\n        /* \"#utility.yul\":10967:10986   */\n      swap1\n      pop\n        /* \"#utility.yul\":10626:10992   */\n      swap2\n      swap1\n      pop\n      jump\t// out\n        /* \"#utility.yul\":10998:11417   */\n    tag_327:\n        /* \"#utility.yul\":11164:11168   */\n      0x00\n        /* \"#utility.yul\":11202:11204   */\n      0x20\n        /* \"#utility.yul\":11191:11200   */\n      dup3\n        /* \"#utility.yul\":11187:11205   */\n      add\n        /* \"#utility.yul\":11179:11205   */\n      swap1\n      pop\n        /* \"#utility.yul\":11251:11260   */\n      dup2\n        /* \"#utility.yul\":11245:11249   */\n      dup2\n        /* \"#utility.yul\":11241:11261   */\n      sub\n        /* \"#utility.yul\":11237:11238   */\n      0x00\n        /* \"#utility.yul\":11226:11235   */\n      dup4\n        /* \"#utility.yul\":11222:11239   */\n      add\n        /* \"#utility.yul\":11215:11262   */\n      mstore\n        /* \"#utility.yul\":11279:11410   */\n      tag_548\n        /* \"#utility.yul\":11405:11409   */\n      dup2\n        /* \"#utility.yul\":11279:11410   */\n      tag_419\n      jump\t// in\n    tag_548:\n        /* \"#utility.yul\":11271:11410   */\n      swap1\n      pop\n        /* \"#utility.yul\":10998:11417   */\n      swap2\n      swap1\n      pop\n      jump\t// out\n        /* \"#utility.yul\":11423:11586   */\n    tag_420:\n        /* \"#utility.yul\":11563:11578   */\n      0x5374616b696e6720656e64656400000000000000000000000000000000000000\n        /* \"#utility.yul\":11559:11560   */\n      0x00\n        /* \"#utility.yul\":11551:11557   */\n      dup3\n        /* \"#utility.yul\":11547:11561   */\n      add\n        /* \"#utility.yul\":11540:11579   */\n      mstore\n        /* \"#utility.yul\":11423:11586   */\n      pop\n      jump\t// out\n        /* \"#utility.yul\":11592:11958   */\n    tag_421:\n        /* \"#utility.yul\":11734:11737   */\n      0x00\n        /* \"#utility.yul\":11755:11822   */\n      tag_551\n        /* \"#utility.yul\":11819:11821   */\n      0x0d\n        /* \"#utility.yul\":11814:11817   */\n      dup4\n        /* \"#utility.yul\":11755:11822   */\n      tag_407\n      jump\t// in\n    tag_551:\n        /* \"#utility.yul\":11748:11822   */\n      swap2\n      pop\n        /* \"#utility.yul\":11831:11924   */\n      tag_552\n        /* \"#utility.yul\":11920:11923   */\n      dup3\n        /* \"#utility.yul\":11831:11924   */\n      tag_420\n      jump\t// in\n    tag_552:\n        /* \"#utility.yul\":11949:11951   */\n      0x20\n        /* \"#utility.yul\":11944:11947   */\n      dup3\n        /* \"#utility.yul\":11940:11952   */\n      add\n        /* \"#utility.yul\":11933:11952   */\n      swap1\n      pop\n        /* \"#utility.yul\":11592:11958   */\n      swap2\n      swap1\n      pop\n      jump\t// out\n        /* \"#utility.yul\":11964:12383   */\n    tag_330:\n        /* \"#utility.yul\":12130:12134   */\n      0x00\n        /* \"#utility.yul\":12168:12170   */\n      0x20\n        /* \"#utility.yul\":12157:12166   */\n      dup3\n        /* \"#utility.yul\":12153:12171   */\n      add\n        /* \"#utility.yul\":12145:12171   */\n      swap1\n      pop\n        /* \"#utility.yul\":12217:12226   */\n      dup2\n        /* \"#utility.yul\":12211:12215   */\n      dup2\n        /* \"#utility.yul\":12207:12227   */\n      sub\n        /* \"#utility.yul\":12203:12204   */\n      0x00\n        /* \"#utility.yul\":12192:12201   */\n      dup4\n        /* \"#utility.yul\":12188:12205   */\n      add\n        /* \"#utility.yul\":12181:12228   */\n      mstore\n        /* \"#utility.yul\":12245:12376   */\n      tag_554\n        /* \"#utility.yul\":12371:12375   */\n      dup2\n        /* \"#utility.yul\":12245:12376   */\n      tag_421\n      jump\t// in\n    tag_554:\n        /* \"#utility.yul\":12237:12376   */\n      swap1\n      pop\n        /* \"#utility.yul\":11964:12383   */\n      swap2\n      swap1\n      pop\n      jump\t// out\n        /* \"#utility.yul\":12389:12571   */\n    tag_422:\n        /* \"#utility.yul\":12529:12563   */\n      0x426f7820312064697361626c6564206f7220616c7265616479207374616b6564\n        /* \"#utility.yul\":12525:12526   */\n      0x00\n        /* \"#utility.yul\":12517:12523   */\n      dup3\n        /* \"#utility.yul\":12513:12527   */\n      add\n        /* \"#utility.yul\":12506:12564   */\n      mstore\n        /* \"#utility.yul\":12389:12571   */\n      pop\n      jump\t// out\n        /* \"#utility.yul\":12577:12943   */\n    tag_423:\n        /* \"#utility.yul\":12719:12722   */\n      0x00\n        /* \"#utility.yul\":12740:12807   */\n      tag_557\n        /* \"#utility.yul\":12804:12806   */\n      0x20\n        /* \"#utility.yul\":12799:12802   */\n      dup4\n        /* \"#utility.yul\":12740:12807   */\n      tag_407\n      jump\t// in\n    tag_557:\n        /* \"#utility.yul\":12733:12807   */\n      swap2\n      pop\n        /* \"#utility.yul\":12816:12909   */\n      tag_558\n        /* \"#utility.yul\":12905:12908   */\n      dup3\n        /* \"#utility.yul\":12816:12909   */\n      tag_422\n      jump\t// in\n    tag_558:\n        /* \"#utility.yul\":12934:12936   */\n      0x20\n        /* \"#utility.yul\":12929:12932   */\n      dup3\n        /* \"#utility.yul\":12925:12937   */\n      add\n        /* \"#utility.yul\":12918:12937   */\n      swap1\n      pop\n        /* \"#utility.yul\":12577:12943   */\n      swap2\n      swap1\n      pop\n      jump\t// out\n        /* \"#utility.yul\":12949:13368   */\n    tag_335:\n        /* \"#utility.yul\":13115:13119   */\n      0x00\n        /* \"#utility.yul\":13153:13155   */\n      0x20\n        /* \"#utility.yul\":13142:13151   */\n      dup3\n        /* \"#utility.yul\":13138:13156   */\n      add\n        /* \"#utility.yul\":13130:13156   */\n      swap1\n      pop\n        /* \"#utility.yul\":13202:13211   */\n      dup2\n        /* \"#utility.yul\":13196:13200   */\n      dup2\n        /* \"#utility.yul\":13192:13212   */\n      sub\n        /* \"#utility.yul\":13188:13189   */\n      0x00\n        /* \"#utility.yul\":13177:13186   */\n      dup4\n        /* \"#utility.yul\":13173:13190   */\n      add\n        /* \"#utility.yul\":13166:13213   */\n      mstore\n        /* \"#utility.yul\":13230:13361   */\n      tag_560\n        /* \"#utility.yul\":13356:13360   */\n      dup2\n        /* \"#utility.yul\":13230:13361   */\n      tag_423\n      jump\t// in\n    tag_560:\n        /* \"#utility.yul\":13222:13361   */\n      swap1\n      pop\n        /* \"#utility.yul\":12949:13368   */\n      swap2\n      swap1\n      pop\n      jump\t// out\n        /* \"#utility.yul\":13374:13556   */\n    tag_424:\n        /* \"#utility.yul\":13514:13548   */\n      0x426f7820322064697361626c6564206f7220616c7265616479207374616b6564\n        /* \"#utility.yul\":13510:13511   */\n      0x00\n        /* \"#utility.yul\":13502:13508   */\n      dup3\n        /* \"#utility.yul\":13498:13512   */\n      add\n        /* \"#utility.yul\":13491:13549   */\n      mstore\n        /* \"#utility.yul\":13374:13556   */\n      pop\n      jump\t// out\n        /* \"#utility.yul\":13562:13928   */\n    tag_425:\n        /* \"#utility.yul\":13704:13707   */\n      0x00\n        /* \"#utility.yul\":13725:13792   */\n      tag_563\n        /* \"#utility.yul\":13789:13791   */\n      0x20\n        /* \"#utility.yul\":13784:13787   */\n      dup4\n        /* \"#utility.yul\":13725:13792   */\n      tag_407\n      jump\t// in\n    tag_563:\n        /* \"#utility.yul\":13718:13792   */\n      swap2\n      pop\n        /* \"#utility.yul\":13801:13894   */\n      tag_564\n        /* \"#utility.yul\":13890:13893   */\n      dup3\n        /* \"#utility.yul\":13801:13894   */\n      tag_424\n      jump\t// in\n    tag_564:\n        /* \"#utility.yul\":13919:13921   */\n      0x20\n        /* \"#utility.yul\":13914:13917   */\n      dup3\n        /* \"#utility.yul\":13910:13922   */\n      add\n        /* \"#utility.yul\":13903:13922   */\n      swap1\n      pop\n        /* \"#utility.yul\":13562:13928   */\n      swap2\n      swap1\n      pop\n      jump\t// out\n        /* \"#utility.yul\":13934:14353   */\n    tag_342:\n        /* \"#utility.yul\":14100:14104   */\n      0x00\n        /* \"#utility.yul\":14138:14140   */\n      0x20\n        /* \"#utility.yul\":14127:14136   */\n      dup3\n        /* \"#utility.yul\":14123:14141   */\n      add\n        /* \"#utility.yul\":14115:14141   */\n      swap1\n      pop\n        /* \"#utility.yul\":14187:14196   */\n      dup2\n        /* \"#utility.yul\":14181:14185   */\n      dup2\n        /* \"#utility.yul\":14177:14197   */\n      sub\n        /* \"#utility.yul\":14173:14174   */\n      0x00\n        /* \"#utility.yul\":14162:14171   */\n      dup4\n        /* \"#utility.yul\":14158:14175   */\n      add\n        /* \"#utility.yul\":14151:14198   */\n      mstore\n        /* \"#utility.yul\":14215:14346   */\n      tag_566\n        /* \"#utility.yul\":14341:14345   */\n      dup2\n        /* \"#utility.yul\":14215:14346   */\n      tag_425\n      jump\t// in\n    tag_566:\n        /* \"#utility.yul\":14207:14346   */\n      swap1\n      pop\n        /* \"#utility.yul\":13934:14353   */\n      swap2\n      swap1\n      pop\n      jump\t// out\n        /* \"#utility.yul\":14359:14541   */\n    tag_426:\n        /* \"#utility.yul\":14499:14533   */\n      0x426f7820332064697361626c6564206f7220616c7265616479207374616b6564\n        /* \"#utility.yul\":14495:14496   */\n      0x00\n        /* \"#utility.yul\":14487:14493   */\n      dup3\n        /* \"#utility.yul\":14483:14497   */\n      add\n        /* \"#utility.yul\":14476:14534   */\n      mstore\n        /* \"#utility.yul\":14359:14541   */\n      pop\n      jump\t// out\n        /* \"#utility.yul\":14547:14913   */\n    tag_427:\n        /* \"#utility.yul\":14689:14692   */\n      0x00\n        /* \"#utility.yul\":14710:14777   */\n      tag_569\n        /* \"#utility.yul\":14774:14776   */\n      0x20\n        /* \"#utility.yul\":14769:14772   */\n      dup4\n        /* \"#utility.yul\":14710:14777   */\n      tag_407\n      jump\t// in\n    tag_569:\n        /* \"#utility.yul\":14703:14777   */\n      swap2\n      pop\n        /* \"#utility.yul\":14786:14879   */\n      tag_570\n        /* \"#utility.yul\":14875:14878   */\n      dup3\n        /* \"#utility.yul\":14786:14879   */\n      tag_426\n      jump\t// in\n    tag_570:\n        /* \"#utility.yul\":14904:14906   */\n      0x20\n        /* \"#utility.yul\":14899:14902   */\n      dup3\n        /* \"#utility.yul\":14895:14907   */\n      add\n        /* \"#utility.yul\":14888:14907   */\n      swap1\n      pop\n        /* \"#utility.yul\":14547:14913   */\n      swap2\n      swap1\n      pop\n      jump\t// out\n        /* \"#utility.yul\":14919:15338   */\n    tag_349:\n        /* \"#utility.yul\":15085:15089   */\n      0x00\n        /* \"#utility.yul\":15123:15125   */\n      0x20\n        /* \"#utility.yul\":15112:15121   */\n      dup3\n        /* \"#utility.yul\":15108:15126   */\n      add\n        /* \"#utility.yul\":15100:15126   */\n      swap1\n      pop\n        /* \"#utility.yul\":15172:15181   */\n      dup2\n        /* \"#utility.yul\":15166:15170   */\n      dup2\n        /* \"#utility.yul\":15162:15182   */\n      sub\n        /* \"#utility.yul\":15158:15159   */\n      0x00\n        /* \"#utility.yul\":15147:15156   */\n      dup4\n        /* \"#utility.yul\":15143:15160   */\n      add\n        /* \"#utility.yul\":15136:15183   */\n      mstore\n        /* \"#utility.yul\":15200:15331   */\n      tag_572\n        /* \"#utility.yul\":15326:15330   */\n      dup2\n        /* \"#utility.yul\":15200:15331   */\n      tag_427\n      jump\t// in\n    tag_572:\n        /* \"#utility.yul\":15192:15331   */\n      swap1\n      pop\n        /* \"#utility.yul\":14919:15338   */\n      swap2\n      swap1\n      pop\n      jump\t// out\n        /* \"#utility.yul\":15344:15526   */\n    tag_428:\n        /* \"#utility.yul\":15484:15518   */\n      0x426f7820342064697361626c6564206f7220616c7265616479207374616b6564\n        /* \"#utility.yul\":15480:15481   */\n      0x00\n        /* \"#utility.yul\":15472:15478   */\n      dup3\n        /* \"#utility.yul\":15468:15482   */\n      add\n        /* \"#utility.yul\":15461:15519   */\n      mstore\n        /* \"#utility.yul\":15344:15526   */\n      pop\n      jump\t// out\n        /* \"#utility.yul\":15532:15898   */\n    tag_429:\n        /* \"#utility.yul\":15674:15677   */\n      0x00\n        /* \"#utility.yul\":15695:15762   */\n      tag_575\n        /* \"#utility.yul\":15759:15761   */\n      0x20\n        /* \"#utility.yul\":15754:15757   */\n      dup4\n        /* \"#utility.yul\":15695:15762   */\n      tag_407\n      jump\t// in\n    tag_575:\n        /* \"#utility.yul\":15688:15762   */\n      swap2\n      pop\n        /* \"#utility.yul\":15771:15864   */\n      tag_576\n        /* \"#utility.yul\":15860:15863   */\n      dup3\n        /* \"#utility.yul\":15771:15864   */\n      tag_428\n      jump\t// in\n    tag_576:\n        /* \"#utility.yul\":15889:15891   */\n      0x20\n        /* \"#utility.yul\":15884:15887   */\n      dup3\n        /* \"#utility.yul\":15880:15892   */\n      add\n        /* \"#utility.yul\":15873:15892   */\n      swap1\n      pop\n        /* \"#utility.yul\":15532:15898   */\n      swap2\n      swap1\n      pop\n      jump\t// out\n        /* \"#utility.yul\":15904:16323   */\n    tag_356:\n        /* \"#utility.yul\":16070:16074   */\n      0x00\n        /* \"#utility.yul\":16108:16110   */\n      0x20\n        /* \"#utility.yul\":16097:16106   */\n      dup3\n        /* \"#utility.yul\":16093:16111   */\n      add\n        /* \"#utility.yul\":16085:16111   */\n      swap1\n      pop\n        /* \"#utility.yul\":16157:16166   */\n      dup2\n        /* \"#utility.yul\":16151:16155   */\n      dup2\n        /* \"#utility.yul\":16147:16167   */\n      sub\n        /* \"#utility.yul\":16143:16144   */\n      0x00\n        /* \"#utility.yul\":16132:16141   */\n      dup4\n        /* \"#utility.yul\":16128:16145   */\n      add\n        /* \"#utility.yul\":16121:16168   */\n      mstore\n        /* \"#utility.yul\":16185:16316   */\n      tag_578\n        /* \"#utility.yul\":16311:16315   */\n      dup2\n        /* \"#utility.yul\":16185:16316   */\n      tag_429\n      jump\t// in\n    tag_578:\n        /* \"#utility.yul\":16177:16316   */\n      swap1\n      pop\n        /* \"#utility.yul\":15904:16323   */\n      swap2\n      swap1\n      pop\n      jump\t// out\n        /* \"#utility.yul\":16329:16661   */\n    tag_372:\n        /* \"#utility.yul\":16450:16454   */\n      0x00\n        /* \"#utility.yul\":16488:16490   */\n      0x40\n        /* \"#utility.yul\":16477:16486   */\n      dup3\n        /* \"#utility.yul\":16473:16491   */\n      add\n        /* \"#utility.yul\":16465:16491   */\n      swap1\n      pop\n        /* \"#utility.yul\":16501:16572   */\n      tag_580\n        /* \"#utility.yul\":16569:16570   */\n      0x00\n        /* \"#utility.yul\":16558:16567   */\n      dup4\n        /* \"#utility.yul\":16554:16571   */\n      add\n        /* \"#utility.yul\":16545:16551   */\n      dup6\n        /* \"#utility.yul\":16501:16572   */\n      tag_406\n      jump\t// in\n    tag_580:\n        /* \"#utility.yul\":16582:16654   */\n      tag_581\n        /* \"#utility.yul\":16650:16652   */\n      0x20\n        /* \"#utility.yul\":16639:16648   */\n      dup4\n        /* \"#utility.yul\":16635:16653   */\n      add\n        /* \"#utility.yul\":16626:16632   */\n      dup5\n        /* \"#utility.yul\":16582:16654   */\n      tag_394\n      jump\t// in\n    tag_581:\n        /* \"#utility.yul\":16329:16661   */\n      swap4\n      swap3\n      pop\n      pop\n      pop\n      jump\t// out\n        /* \"#utility.yul\":16667:17109   */\n    tag_378:\n        /* \"#utility.yul\":16816:16820   */\n      0x00\n        /* \"#utility.yul\":16854:16856   */\n      0x60\n        /* \"#utility.yul\":16843:16852   */\n      dup3\n        /* \"#utility.yul\":16839:16857   */\n      add\n        /* \"#utility.yul\":16831:16857   */\n      swap1\n      pop\n        /* \"#utility.yul\":16867:16938   */\n      tag_583\n        /* \"#utility.yul\":16935:16936   */\n      0x00\n        /* \"#utility.yul\":16924:16933   */\n      dup4\n        /* \"#utility.yul\":16920:16937   */\n      add\n        /* \"#utility.yul\":16911:16917   */\n      dup7\n        /* \"#utility.yul\":16867:16938   */\n      tag_406\n      jump\t// in\n    tag_583:\n        /* \"#utility.yul\":16948:17020   */\n      tag_584\n        /* \"#utility.yul\":17016:17018   */\n      0x20\n        /* \"#utility.yul\":17005:17014   */\n      dup4\n        /* \"#utility.yul\":17001:17019   */\n      add\n        /* \"#utility.yul\":16992:16998   */\n      dup6\n        /* \"#utility.yul\":16948:17020   */\n      tag_406\n      jump\t// in\n    tag_584:\n        /* \"#utility.yul\":17030:17102   */\n      tag_585\n        /* \"#utility.yul\":17098:17100   */\n      0x40\n        /* \"#utility.yul\":17087:17096   */\n      dup4\n        /* \"#utility.yul\":17083:17101   */\n      add\n        /* \"#utility.yul\":17074:17080   */\n      dup5\n        /* \"#utility.yul\":17030:17102   */\n      tag_394\n      jump\t// in\n    tag_585:\n        /* \"#utility.yul\":16667:17109   */\n      swap5\n      swap4\n      pop\n      pop\n      pop\n      pop\n      jump\t// out\n\n    auxdata: 0xa264697066735822122005d93b648ad3b0d7cad9c00587a635b46755b283a43b3e13239781ef7ad2f0fd64736f6c634300081e0033\n}\n",
				"bytecode": {
					"linkReferences": {},
					"object": "60a060405234801561000f575f5ffd5b50604051612e6d380380612e6d83398181016040528101906100319190610388565b335f73ffffffffffffffffffffffffffffffffffffffff168173ffffffffffffffffffffffffffffffffffffffff16036100a2575f6040517f1e4fbdf700000000000000000000000000000000000000000000000000000000815260040161009991906103c2565b60405180910390fd5b6100b18161026960201b60201c565b505f73ffffffffffffffffffffffffffffffffffffffff168173ffffffffffffffffffffffffffffffffffffffff1603610120576040517f08c379a000000000000000000000000000000000000000000000000000000000815260040161011790610435565b60405180910390fd5b8073ffffffffffffffffffffffffffffffffffffffff1660808173ffffffffffffffffffffffffffffffffffffffff16815250505f6017819055505f6018819055505f6019819055506954b40b1f852bda0000006015819055506969e10de76676d0800000601a81905550662386f26fc100006016819055505f601b5f6101000a81548160ff02191690831515021790555061014d60038190555062093a80600481905550600160055f6101000a81548160ff0219169083151502179055506053600881905550621275006009819055506001600a5f6101000a81548160ff0219169083151502179055506020600d819055506224ea00600e819055506001600f5f6101000a81548160ff021916908315150217905550601a6012819055506224ea00601381905550600160145f6101000a81548160ff02191690831515021790555050610453565b5f5f5f9054906101000a900473ffffffffffffffffffffffffffffffffffffffff169050815f5f6101000a81548173ffffffffffffffffffffffffffffffffffffffff021916908373ffffffffffffffffffffffffffffffffffffffff1602179055508173ffffffffffffffffffffffffffffffffffffffff168173ffffffffffffffffffffffffffffffffffffffff167f8be0079c531659141344cd1fd0a4f28419497f9722a3daafe3b4186f6b6457e060405160405180910390a35050565b5f5ffd5b5f73ffffffffffffffffffffffffffffffffffffffff82169050919050565b5f6103578261032e565b9050919050565b6103678161034d565b8114610371575f5ffd5b50565b5f815190506103828161035e565b92915050565b5f6020828403121561039d5761039c61032a565b5b5f6103aa84828501610374565b91505092915050565b6103bc8161034d565b82525050565b5f6020820190506103d55f8301846103b3565b92915050565b5f82825260208201905092915050565b7f546f6b656e20616464726573732063616e6e6f74206265207a65726f000000005f82015250565b5f61041f601c836103db565b915061042a826103eb565b602082019050919050565b5f6020820190508181035f83015261044c81610413565b9050919050565b6080516129e66104875f395f81816108a2015281816110b60152818161111e0152818161116e0152611e5f01526129e65ff3fe608060405234801561000f575f5ffd5b5060043610610272575f3560e01c80637b3e920c1161014f578063d0bcc009116100c1578063e7de2ceb11610085578063e7de2ceb1461078c578063ea1b28e0146107aa578063f1cddd55146107c8578063f2fde38b146107e4578063f908dc1314610800578063fd2b52021461081e57610272565b8063d0bcc009146106f8578063d19b090e14610716578063d47c56e514610734578063d5c41d6914610752578063d7d4918e1461076e57610272565b806394387289116101135780639438728914610636578063b39dc99614610652578063bba4fefd14610670578063bef7d12e1461068e578063c3630edb146106be578063cd5692ee146106dc57610272565b80637b3e920c1461057c578063817b1cd2146105ac57806389b0040a146105ca5780638a170ac1146105fa5780638da5cb5b1461061857610272565b80634b0c10d8116101e85780636cbde5cf116101ac5780636cbde5cf146104cc57806370a08231146104e8578063715018a61461051857806373dec718146105225780637908542514610540578063798cbe5e1461055e57610272565b80634b0c10d8146104145780634b5effc2146104325780634f51d090146104625780635cd5a159146104925780635f75bcea146104b057610272565b8063292a6b191161023a578063292a6b191461032c5780632e5f89ef1461034a57806335e630551461037a578063375b3c0a1461039657806338dc97fb146103b45780634893afc1146103e457610272565b8063058df0e8146102765780631d95985b146102a65780631d95d52f146102c457806323dcdb89146102e057806324ebd9d2146102fc575b5f5ffd5b610290600480360381019061028b91906121f3565b61083a565b60405161029d9190612236565b60405180910390f35b6102ae61084f565b6040516102bb9190612236565b60405180910390f35b6102de60048036038101906102d99190612284565b610855565b005b6102fa60048036038101906102f591906122d9565b610879565b005b610316600480360381019061031191906121f3565b61088b565b6040516103239190612236565b60405180910390f35b6103346108a0565b604051610341919061235f565b60405180910390f35b610364600480360381019061035f91906121f3565b6108c4565b6040516103719190612236565b60405180910390f35b610394600480360381019061038f91906122d9565b6108d9565b005b61039e6111ba565b6040516103ab9190612236565b60405180910390f35b6103ce60048036038101906103c991906121f3565b6111c0565b6040516103db9190612236565b60405180910390f35b6103fe60048036038101906103f991906121f3565b6111d5565b60405161040b9190612236565b60405180910390f35b61041c6111ea565b6040516104299190612236565b60405180910390f35b61044c60048036038101906104479190612378565b6111f0565b6040516104599190612236565b60405180910390f35b61047c600480360381019061047791906121f3565b61132f565b6040516104899190612236565b60405180910390f35b61049a611344565b6040516104a791906123c5565b60405180910390f35b6104ca60048036038101906104c59190612284565b611356565b005b6104e660048036038101906104e19190612284565b61137a565b005b61050260048036038101906104fd91906121f3565b61139e565b60405161050f9190612236565b60405180910390f35b6105206114bc565b005b61052a6114cf565b60405161053791906123c5565b60405180910390f35b6105486114e1565b6040516105559190612236565b60405180910390f35b6105666114e7565b6040516105739190612236565b60405180910390f35b610596600480360381019061059191906121f3565b6114ed565b6040516105a39190612236565b60405180910390f35b6105b4611502565b6040516105c19190612236565b60405180910390f35b6105e460048036038101906105df91906121f3565b611508565b6040516105f19190612236565b60405180910390f35b61060261151d565b60405161060f91906123c5565b60405180910390f35b61062061152f565b60405161062d91906123ed565b60405180910390f35b610650600480360381019061064b91906122d9565b611556565b005b61065a611568565b6040516106679190612236565b60405180910390f35b61067861156e565b6040516106859190612236565b60405180910390f35b6106a860048036038101906106a39190612378565b611574565b6040516106b59190612236565b60405180910390f35b6106c66116e7565b6040516106d39190612236565b60405180910390f35b6106f660048036038101906106f191906122d9565b6116ed565b005b6107006116ff565b60405161070d91906123c5565b60405180910390f35b61071e611711565b60405161072b9190612236565b60405180910390f35b61073c611717565b6040516107499190612236565b60405180910390f35b61076c60048036038101906107679190612284565b61171d565b005b610776611741565b6040516107839190612236565b60405180910390f35b610794611747565b6040516107a19190612236565b60405180910390f35b6107b261174d565b6040516107bf9190612236565b60405180910390f35b6107e260048036038101906107dd9190612284565b611753565b005b6107fe60048036038101906107f991906121f3565b611777565b005b6108086117fb565b60405161081591906123c5565b60405180910390f35b61083860048036038101906108339190612406565b61180d565b005b6006602052805f5260405f205f915090505481565b600e5481565b61085d611eaa565b8060145f6101000a81548160ff02191690831515021790555050565b610881611eaa565b8060168190555050565b6010602052805f5260405f205f915090505481565b7f000000000000000000000000000000000000000000000000000000000000000081565b600b602052805f5260405f205f915090505481565b600181101580156108eb575060048111155b61092a576040517f08c379a00000000000000000000000000000000000000000000000000000000081526004016109219061249e565b60405180910390fd5b5f3390505f5f60018403610af65760015f8473ffffffffffffffffffffffffffffffffffffffff1673ffffffffffffffffffffffffffffffffffffffff1681526020019081526020015f205490505f81116109ba576040517f08c379a00000000000000000000000000000000000000000000000000000000081526004016109b190612506565b60405180910390fd5b601b5f9054906101000a900460ff1680610a1e575060045460025f8573ffffffffffffffffffffffffffffffffffffffff1673ffffffffffffffffffffffffffffffffffffffff1681526020019081526020015f2054610a1a9190612551565b4210155b610a5d576040517f08c379a0000000000000000000000000000000000000000000000000000000008152600401610a54906125ce565b60405180910390fd5b60035481610a6b9190612619565b91505f60015f8573ffffffffffffffffffffffffffffffffffffffff1673ffffffffffffffffffffffffffffffffffffffff1681526020019081526020015f20819055505f60025f8573ffffffffffffffffffffffffffffffffffffffff1673ffffffffffffffffffffffffffffffffffffffff1681526020019081526020015f2081905550611047565b60028403610cbc5760065f8473ffffffffffffffffffffffffffffffffffffffff1673ffffffffffffffffffffffffffffffffffffffff1681526020019081526020015f205490505f8111610b80576040517f08c379a0000000000000000000000000000000000000000000000000000000008152600401610b7790612506565b60405180910390fd5b601b5f9054906101000a900460ff1680610be4575060095460075f8573ffffffffffffffffffffffffffffffffffffffff1673ffffffffffffffffffffffffffffffffffffffff1681526020019081526020015f2054610be09190612551565b4210155b610c23576040517f08c379a0000000000000000000000000000000000000000000000000000000008152600401610c1a906125ce565b60405180910390fd5b60085481610c319190612619565b91505f60065f8573ffffffffffffffffffffffffffffffffffffffff1673ffffffffffffffffffffffffffffffffffffffff1681526020019081526020015f20819055505f60075f8573ffffffffffffffffffffffffffffffffffffffff1673ffffffffffffffffffffffffffffffffffffffff1681526020019081526020015f2081905550611046565b60038403610e8257600b5f8473ffffffffffffffffffffffffffffffffffffffff1673ffffffffffffffffffffffffffffffffffffffff1681526020019081526020015f205490505f8111610d46576040517f08c379a0000000000000000000000000000000000000000000000000000000008152600401610d3d90612506565b60405180910390fd5b601b5f9054906101000a900460ff1680610daa5750600e54600c5f8573ffffffffffffffffffffffffffffffffffffffff1673ffffffffffffffffffffffffffffffffffffffff1681526020019081526020015f2054610da69190612551565b4210155b610de9576040517f08c379a0000000000000000000000000000000000000000000000000000000008152600401610de0906125ce565b60405180910390fd5b600d5481610df79190612619565b91505f600b5f8573ffffffffffffffffffffffffffffffffffffffff1673ffffffffffffffffffffffffffffffffffffffff1681526020019081526020015f20819055505f600c5f8573ffffffffffffffffffffffffffffffffffffffff1673ffffffffffffffffffffffffffffffffffffffff1681526020019081526020015f2081905550611045565b600484036110445760105f8473ffffffffffffffffffffffffffffffffffffffff1673ffffffffffffffffffffffffffffffffffffffff1681526020019081526020015f205490505f8111610f0c576040517f08c379a0000000000000000000000000000000000000000000000000000000008152600401610f0390612506565b60405180910390fd5b601b5f9054906101000a900460ff1680610f70575060135460115f8573ffffffffffffffffffffffffffffffffffffffff1673ffffffffffffffffffffffffffffffffffffffff1681526020019081526020015f2054610f6c9190612551565b4210155b610faf576040517f08c379a0000000000000000000000000000000000000000000000000000000008152600401610fa6906125ce565b60405180910390fd5b60125481610fbd9190612619565b91505f60105f8573ffffffffffffffffffffffffffffffffffffffff1673ffffffffffffffffffffffffffffffffffffffff1681526020019081526020015f20819055505f60115f8573ffffffffffffffffffffffffffffffffffffffff1673ffffffffffffffffffffffffffffffffffffffff1681526020019081526020015f20819055505b5b5b5b8060195f8282546110589190612649565b92505081905550601b5f9054906101000a900460ff1661108757816018546110809190612551565b6018819055505b601b5f9054906101000a900460ff166110af57816017546110a89190612649565b6017819055505b6110fa83827f000000000000000000000000000000000000000000000000000000000000000073ffffffffffffffffffffffffffffffffffffffff16611f319092919063ffffffff16565b601b5f9054906101000a900460ff166111b457600484036111675761116261dead837f000000000000000000000000000000000000000000000000000000000000000073ffffffffffffffffffffffffffffffffffffffff16611f319092919063ffffffff16565b6111b3565b6111b283837f000000000000000000000000000000000000000000000000000000000000000073ffffffffffffffffffffffffffffffffffffffff16611f319092919063ffffffff16565b5b5b50505050565b60165481565b6011602052805f5260405f205f915090505481565b6001602052805f5260405f205f915090505481565b60045481565b5f6001820361123e5760015f8473ffffffffffffffffffffffffffffffffffffffff1673ffffffffffffffffffffffffffffffffffffffff1681526020019081526020015f20549050611329565b6002820361128b5760065f8473ffffffffffffffffffffffffffffffffffffffff1673ffffffffffffffffffffffffffffffffffffffff1681526020019081526020015f20549050611329565b600382036112d857600b5f8473ffffffffffffffffffffffffffffffffffffffff1673ffffffffffffffffffffffffffffffffffffffff1681526020019081526020015f20549050611329565b600482036113255760105f8473ffffffffffffffffffffffffffffffffffffffff1673ffffffffffffffffffffffffffffffffffffffff1681526020019081526020015f20549050611329565b5f90505b92915050565b6002602052805f5260405f205f915090505481565b60145f9054906101000a900460ff1681565b61135e611eaa565b80600a5f6101000a81548160ff02191690831515021790555050565b611382611eaa565b8060055f6101000a81548160ff02191690831515021790555050565b5f60105f8373ffffffffffffffffffffffffffffffffffffffff1673ffffffffffffffffffffffffffffffffffffffff1681526020019081526020015f2054600b5f8473ffffffffffffffffffffffffffffffffffffffff1673ffffffffffffffffffffffffffffffffffffffff1681526020019081526020015f205460065f8573ffffffffffffffffffffffffffffffffffffffff1673ffffffffffffffffffffffffffffffffffffffff1681526020019081526020015f205460015f8673ffffffffffffffffffffffffffffffffffffffff1673ffffffffffffffffffffffffffffffffffffffff1681526020019081526020015f20546114a19190612551565b6114ab9190612551565b6114b59190612551565b9050919050565b6114c4611eaa565b6114cd5f611fb0565b565b600a5f9054906101000a900460ff1681565b60185481565b60135481565b6007602052805f5260405f205f915090505481565b60195481565b600c602052805f5260405f205f915090505481565b60055f9054906101000a900460ff1681565b5f5f5f9054906101000a900473ffffffffffffffffffffffffffffffffffffffff16905090565b61155e611eaa565b80601a8190555050565b600d5481565b60175481565b5f600182036115cf5760045460025f8573ffffffffffffffffffffffffffffffffffffffff1673ffffffffffffffffffffffffffffffffffffffff1681526020019081526020015f20546115c89190612551565b90506116e1565b600282036116295760095460075f8573ffffffffffffffffffffffffffffffffffffffff1673ffffffffffffffffffffffffffffffffffffffff1681526020019081526020015f20546116229190612551565b90506116e1565b6003820361168357600e54600c5f8573ffffffffffffffffffffffffffffffffffffffff1673ffffffffffffffffffffffffffffffffffffffff1681526020019081526020015f205461167c9190612551565b90506116e1565b600482036116dd5760135460115f8573ffffffffffffffffffffffffffffffffffffffff1673ffffffffffffffffffffffffffffffffffffffff1681526020019081526020015f20546116d69190612551565b90506116e1565b5f90505b92915050565b60125481565b6116f5611eaa565b8060158190555050565b600f5f9054906101000a900460ff1681565b601a5481565b60095481565b611725611eaa565b80600f5f6101000a81548160ff02191690831515021790555050565b60085481565b60035481565b60155481565b61175b611eaa565b80601b5f6101000a81548160ff02191690831515021790555050565b61177f611eaa565b5f73ffffffffffffffffffffffffffffffffffffffff168173ffffffffffffffffffffffffffffffffffffffff16036117ef575f6040517f1e4fbdf70000000000000000000000000000000000000000000000000000000081526004016117e691906123ed565b60405180910390fd5b6117f881611fb0565b50565b601b5f9054906101000a900460ff1681565b6001811015801561181f575060048111155b61185e576040517f08c379a00000000000000000000000000000000000000000000000000000000081526004016118559061249e565b60405180910390fd5b601654821015801561187257506015548211155b6118b1576040517f08c379a00000000000000000000000000000000000000000000000000000000081526004016118a8906126c6565b60405180910390fd5b601b5f9054906101000a900460ff1615611900576040517f08c379a00000000000000000000000000000000000000000000000000000000081526004016118f79061272e565b60405180910390fd5b601854601a541015611947576040517f08c379a000000000000000000000000000000000000000000000000000000000815260040161193e90612796565b60405180910390fd5b5f3390505f60018303611a835760055f9054906101000a900460ff1680156119ab57505f60015f8473ffffffffffffffffffffffffffffffffffffffff1673ffffffffffffffffffffffffffffffffffffffff1681526020019081526020015f2054145b6119ea576040517f08c379a00000000000000000000000000000000000000000000000000000000081526004016119e1906127fe565b60405180910390fd5b600354846119f89190612619565b90508360015f8473ffffffffffffffffffffffffffffffffffffffff1673ffffffffffffffffffffffffffffffffffffffff1681526020019081526020015f20819055504260025f8473ffffffffffffffffffffffffffffffffffffffff1673ffffffffffffffffffffffffffffffffffffffff1681526020019081526020015f2081905550611e27565b60028303611bba57600a5f9054906101000a900460ff168015611ae257505f60065f8473ffffffffffffffffffffffffffffffffffffffff1673ffffffffffffffffffffffffffffffffffffffff1681526020019081526020015f2054145b611b21576040517f08c379a0000000000000000000000000000000000000000000000000000000008152600401611b1890612866565b60405180910390fd5b60085484611b2f9190612619565b90508360065f8473ffffffffffffffffffffffffffffffffffffffff1673ffffffffffffffffffffffffffffffffffffffff1681526020019081526020015f20819055504260075f8473ffffffffffffffffffffffffffffffffffffffff1673ffffffffffffffffffffffffffffffffffffffff1681526020019081526020015f2081905550611e26565b60038303611cf157600f5f9054906101000a900460ff168015611c1957505f600b5f8473ffffffffffffffffffffffffffffffffffffffff1673ffffffffffffffffffffffffffffffffffffffff1681526020019081526020015f2054145b611c58576040517f08c379a0000000000000000000000000000000000000000000000000000000008152600401611c4f906128ce565b60405180910390fd5b600d5484611c669190612619565b905083600b5f8473ffffffffffffffffffffffffffffffffffffffff1673ffffffffffffffffffffffffffffffffffffffff1681526020019081526020015f208190555042600c5f8473ffffffffffffffffffffffffffffffffffffffff1673ffffffffffffffffffffffffffffffffffffffff1681526020019081526020015f2081905550611e25565b60048303611e245760145f9054906101000a900460ff168015611d5057505f60105f8473ffffffffffffffffffffffffffffffffffffffff1673ffffffffffffffffffffffffffffffffffffffff1681526020019081526020015f2054145b611d8f576040517f08c379a0000000000000000000000000000000000000000000000000000000008152600401611d8690612936565b60405180910390fd5b60125484611d9d9190612619565b90508360105f8473ffffffffffffffffffffffffffffffffffffffff1673ffffffffffffffffffffffffffffffffffffffff1681526020019081526020015f20819055504260115f8473ffffffffffffffffffffffffffffffffffffffff1673ffffffffffffffffffffffffffffffffffffffff1681526020019081526020015f20819055505b5b5b5b8060175f828254611e389190612551565b925050819055508360195f828254611e509190612551565b92505081905550611ea48230867f000000000000000000000000000000000000000000000000000000000000000073ffffffffffffffffffffffffffffffffffffffff16612071909392919063ffffffff16565b50505050565b611eb26120f3565b73ffffffffffffffffffffffffffffffffffffffff16611ed061152f565b73ffffffffffffffffffffffffffffffffffffffff1614611f2f57611ef36120f3565b6040517f118cdaa7000000000000000000000000000000000000000000000000000000008152600401611f2691906123ed565b60405180910390fd5b565b611fab838473ffffffffffffffffffffffffffffffffffffffff1663a9059cbb8585604051602401611f64929190612954565b604051602081830303815290604052915060e01b6020820180517bffffffffffffffffffffffffffffffffffffffffffffffffffffffff83818316178352505050506120fa565b505050565b5f5f5f9054906101000a900473ffffffffffffffffffffffffffffffffffffffff169050815f5f6101000a81548173ffffffffffffffffffffffffffffffffffffffff021916908373ffffffffffffffffffffffffffffffffffffffff1602179055508173ffffffffffffffffffffffffffffffffffffffff168173ffffffffffffffffffffffffffffffffffffffff167f8be0079c531659141344cd1fd0a4f28419497f9722a3daafe3b4186f6b6457e060405160405180910390a35050565b6120ed848573ffffffffffffffffffffffffffffffffffffffff166323b872dd8686866040516024016120a69392919061297b565b604051602081830303815290604052915060e01b6020820180517bffffffffffffffffffffffffffffffffffffffffffffffffffffffff83818316178352505050506120fa565b50505050565b5f33905090565b5f5f60205f8451602086015f885af180612119576040513d5f823e3d81fd5b3d92505f519150505f821461213257600181141561214d565b5f8473ffffffffffffffffffffffffffffffffffffffff163b145b1561218f57836040517f5274afe700000000000000000000000000000000000000000000000000000000815260040161218691906123ed565b60405180910390fd5b50505050565b5f5ffd5b5f73ffffffffffffffffffffffffffffffffffffffff82169050919050565b5f6121c282612199565b9050919050565b6121d2816121b8565b81146121dc575f5ffd5b50565b5f813590506121ed816121c9565b92915050565b5f6020828403121561220857612207612195565b5b5f612215848285016121df565b91505092915050565b5f819050919050565b6122308161221e565b82525050565b5f6020820190506122495f830184612227565b92915050565b5f8115159050919050565b6122638161224f565b811461226d575f5ffd5b50565b5f8135905061227e8161225a565b92915050565b5f6020828403121561229957612298612195565b5b5f6122a684828501612270565b91505092915050565b6122b88161221e565b81146122c2575f5ffd5b50565b5f813590506122d3816122af565b92915050565b5f602082840312156122ee576122ed612195565b5b5f6122fb848285016122c5565b91505092915050565b5f819050919050565b5f61232761232261231d84612199565b612304565b612199565b9050919050565b5f6123388261230d565b9050919050565b5f6123498261232e565b9050919050565b6123598161233f565b82525050565b5f6020820190506123725f830184612350565b92915050565b5f5f6040838503121561238e5761238d612195565b5b5f61239b858286016121df565b92505060206123ac858286016122c5565b9150509250929050565b6123bf8161224f565b82525050565b5f6020820190506123d85f8301846123b6565b92915050565b6123e7816121b8565b82525050565b5f6020820190506124005f8301846123de565b92915050565b5f5f6040838503121561241c5761241b612195565b5b5f612429858286016122c5565b925050602061243a858286016122c5565b9150509250929050565b5f82825260208201905092915050565b7f496e76616c696420626f780000000000000000000000000000000000000000005f82015250565b5f612488600b83612444565b915061249382612454565b602082019050919050565b5f6020820190508181035f8301526124b58161247c565b9050919050565b7f4e6f207374616b650000000000000000000000000000000000000000000000005f82015250565b5f6124f0600883612444565b91506124fb826124bc565b602082019050919050565b5f6020820190508181035f83015261251d816124e4565b9050919050565b7f4e487b71000000000000000000000000000000000000000000000000000000005f52601160045260245ffd5b5f61255b8261221e565b91506125668361221e565b925082820190508082111561257e5761257d612524565b5b92915050565b7f4e6f7420756e6c6f636b656400000000000000000000000000000000000000005f82015250565b5f6125b8600c83612444565b91506125c382612584565b602082019050919050565b5f6020820190508181035f8301526125e5816125ac565b9050919050565b7f4e487b71000000000000000000000000000000000000000000000000000000005f52601260045260245ffd5b5f6126238261221e565b915061262e8361221e565b92508261263e5761263d6125ec565b5b828204905092915050565b5f6126538261221e565b915061265e8361221e565b925082820390508181111561267657612675612524565b5b92915050565b7f496e76616c696420616d6f756e740000000000000000000000000000000000005f82015250565b5f6126b0600e83612444565b91506126bb8261267c565b602082019050919050565b5f6020820190508181035f8301526126dd816126a4565b9050919050565b7f556e6c6f636b206d6f64652061637469766500000000000000000000000000005f82015250565b5f612718601283612444565b9150612723826126e4565b602082019050919050565b5f6020820190508181035f8301526127458161270c565b9050919050565b7f5374616b696e6720656e646564000000000000000000000000000000000000005f82015250565b5f612780600d83612444565b915061278b8261274c565b602082019050919050565b5f6020820190508181035f8301526127ad81612774565b9050919050565b7f426f7820312064697361626c6564206f7220616c7265616479207374616b65645f82015250565b5f6127e8602083612444565b91506127f3826127b4565b602082019050919050565b5f6020820190508181035f830152612815816127dc565b9050919050565b7f426f7820322064697361626c6564206f7220616c7265616479207374616b65645f82015250565b5f612850602083612444565b915061285b8261281c565b602082019050919050565b5f6020820190508181035f83015261287d81612844565b9050919050565b7f426f7820332064697361626c6564206f7220616c7265616479207374616b65645f82015250565b5f6128b8602083612444565b91506128c382612884565b602082019050919050565b5f6020820190508181035f8301526128e5816128ac565b9050919050565b7f426f7820342064697361626c6564206f7220616c7265616479207374616b65645f82015250565b5f612920602083612444565b915061292b826128ec565b602082019050919050565b5f6020820190508181035f83015261294d81612914565b9050919050565b5f6040820190506129675f8301856123de565b6129746020830184612227565b9392505050565b5f60608201905061298e5f8301866123de565b61299b60208301856123de565b6129a86040830184612227565b94935050505056fea264697066735822122005d93b648ad3b0d7cad9c00587a635b46755b283a43b3e13239781ef7ad2f0fd64736f6c634300081e0033",
					"opcodes": "PUSH1 0xA0 PUSH1 0x40 MSTORE CALLVALUE DUP1 ISZERO PUSH2 0xF JUMPI PUSH0 PUSH0 REVERT JUMPDEST POP PUSH1 0x40 MLOAD PUSH2 0x2E6D CODESIZE SUB DUP1 PUSH2 0x2E6D DUP4 CODECOPY DUP2 DUP2 ADD PUSH1 0x40 MSTORE DUP2 ADD SWAP1 PUSH2 0x31 SWAP2 SWAP1 PUSH2 0x388 JUMP JUMPDEST CALLER PUSH0 PUSH20 0xFFFFFFFFFFFFFFFFFFFFFFFFFFFFFFFFFFFFFFFF AND DUP2 PUSH20 0xFFFFFFFFFFFFFFFFFFFFFFFFFFFFFFFFFFFFFFFF AND SUB PUSH2 0xA2 JUMPI PUSH0 PUSH1 0x40 MLOAD PUSH32 0x1E4FBDF700000000000000000000000000000000000000000000000000000000 DUP2 MSTORE PUSH1 0x4 ADD PUSH2 0x99 SWAP2 SWAP1 PUSH2 0x3C2 JUMP JUMPDEST PUSH1 0x40 MLOAD DUP1 SWAP2 SUB SWAP1 REVERT JUMPDEST PUSH2 0xB1 DUP2 PUSH2 0x269 PUSH1 0x20 SHL PUSH1 0x20 SHR JUMP JUMPDEST POP PUSH0 PUSH20 0xFFFFFFFFFFFFFFFFFFFFFFFFFFFFFFFFFFFFFFFF AND DUP2 PUSH20 0xFFFFFFFFFFFFFFFFFFFFFFFFFFFFFFFFFFFFFFFF AND SUB PUSH2 0x120 JUMPI PUSH1 0x40 MLOAD PUSH32 0x8C379A000000000000000000000000000000000000000000000000000000000 DUP2 MSTORE PUSH1 0x4 ADD PUSH2 0x117 SWAP1 PUSH2 0x435 JUMP JUMPDEST PUSH1 0x40 MLOAD DUP1 SWAP2 SUB SWAP1 REVERT JUMPDEST DUP1 PUSH20 0xFFFFFFFFFFFFFFFFFFFFFFFFFFFFFFFFFFFFFFFF AND PUSH1 0x80 DUP2 PUSH20 0xFFFFFFFFFFFFFFFFFFFFFFFFFFFFFFFFFFFFFFFF AND DUP2 MSTORE POP POP PUSH0 PUSH1 0x17 DUP2 SWAP1 SSTORE POP PUSH0 PUSH1 0x18 DUP2 SWAP1 SSTORE POP PUSH0 PUSH1 0x19 DUP2 SWAP1 SSTORE POP PUSH10 0x54B40B1F852BDA000000 PUSH1 0x15 DUP2 SWAP1 SSTORE POP PUSH10 0x69E10DE76676D0800000 PUSH1 0x1A DUP2 SWAP1 SSTORE POP PUSH7 0x2386F26FC10000 PUSH1 0x16 DUP2 SWAP1 SSTORE POP PUSH0 PUSH1 0x1B PUSH0 PUSH2 0x100 EXP DUP2 SLOAD DUP2 PUSH1 0xFF MUL NOT AND SWAP1 DUP4 ISZERO ISZERO MUL OR SWAP1 SSTORE POP PUSH2 0x14D PUSH1 0x3 DUP2 SWAP1 SSTORE POP PUSH3 0x93A80 PUSH1 0x4 DUP2 SWAP1 SSTORE POP PUSH1 0x1 PUSH1 0x5 PUSH0 PUSH2 0x100 EXP DUP2 SLOAD DUP2 PUSH1 0xFF MUL NOT AND SWAP1 DUP4 ISZERO ISZERO MUL OR SWAP1 SSTORE POP PUSH1 0x53 PUSH1 0x8 DUP2 SWAP1 SSTORE POP PUSH3 0x127500 PUSH1 0x9 DUP2 SWAP1 SSTORE POP PUSH1 0x1 PUSH1 0xA PUSH0 PUSH2 0x100 EXP DUP2 SLOAD DUP2 PUSH1 0xFF MUL NOT AND SWAP1 DUP4 ISZERO ISZERO MUL OR SWAP1 SSTORE POP PUSH1 0x20 PUSH1 0xD DUP2 SWAP1 SSTORE POP PUSH3 0x24EA00 PUSH1 0xE DUP2 SWAP1 SSTORE POP PUSH1 0x1 PUSH1 0xF PUSH0 PUSH2 0x100 EXP DUP2 SLOAD DUP2 PUSH1 0xFF MUL NOT AND SWAP1 DUP4 ISZERO ISZERO MUL OR SWAP1 SSTORE POP PUSH1 0x1A PUSH1 0x12 DUP2 SWAP1 SSTORE POP PUSH3 0x24EA00 PUSH1 0x13 DUP2 SWAP1 SSTORE POP PUSH1 0x1 PUSH1 0x14 PUSH0 PUSH2 0x100 EXP DUP2 SLOAD DUP2 PUSH1 0xFF MUL NOT AND SWAP1 DUP4 ISZERO ISZERO MUL OR SWAP1 SSTORE POP POP PUSH2 0x453 JUMP JUMPDEST PUSH0 PUSH0 PUSH0 SWAP1 SLOAD SWAP1 PUSH2 0x100 EXP SWAP1 DIV PUSH20 0xFFFFFFFFFFFFFFFFFFFFFFFFFFFFFFFFFFFFFFFF AND SWAP1 POP DUP2 PUSH0 PUSH0 PUSH2 0x100 EXP DUP2 SLOAD DUP2 PUSH20 0xFFFFFFFFFFFFFFFFFFFFFFFFFFFFFFFFFFFFFFFF MUL NOT AND SWAP1 DUP4 PUSH20 0xFFFFFFFFFFFFFFFFFFFFFFFFFFFFFFFFFFFFFFFF AND MUL OR SWAP1 SSTORE POP DUP2 PUSH20 0xFFFFFFFFFFFFFFFFFFFFFFFFFFFFFFFFFFFFFFFF AND DUP2 PUSH20 0xFFFFFFFFFFFFFFFFFFFFFFFFFFFFFFFFFFFFFFFF AND PUSH32 0x8BE0079C531659141344CD1FD0A4F28419497F9722A3DAAFE3B4186F6B6457E0 PUSH1 0x40 MLOAD PUSH1 0x40 MLOAD DUP1 SWAP2 SUB SWAP1 LOG3 POP POP JUMP JUMPDEST PUSH0 PUSH0 REVERT JUMPDEST PUSH0 PUSH20 0xFFFFFFFFFFFFFFFFFFFFFFFFFFFFFFFFFFFFFFFF DUP3 AND SWAP1 POP SWAP2 SWAP1 POP JUMP JUMPDEST PUSH0 PUSH2 0x357 DUP3 PUSH2 0x32E JUMP JUMPDEST SWAP1 POP SWAP2 SWAP1 POP JUMP JUMPDEST PUSH2 0x367 DUP2 PUSH2 0x34D JUMP JUMPDEST DUP2 EQ PUSH2 0x371 JUMPI PUSH0 PUSH0 REVERT JUMPDEST POP JUMP JUMPDEST PUSH0 DUP2 MLOAD SWAP1 POP PUSH2 0x382 DUP2 PUSH2 0x35E JUMP JUMPDEST SWAP3 SWAP2 POP POP JUMP JUMPDEST PUSH0 PUSH1 0x20 DUP3 DUP5 SUB SLT ISZERO PUSH2 0x39D JUMPI PUSH2 0x39C PUSH2 0x32A JUMP JUMPDEST JUMPDEST PUSH0 PUSH2 0x3AA DUP5 DUP3 DUP6 ADD PUSH2 0x374 JUMP JUMPDEST SWAP2 POP POP SWAP3 SWAP2 POP POP JUMP JUMPDEST PUSH2 0x3BC DUP2 PUSH2 0x34D JUMP JUMPDEST DUP3 MSTORE POP POP JUMP JUMPDEST PUSH0 PUSH1 0x20 DUP3 ADD SWAP1 POP PUSH2 0x3D5 PUSH0 DUP4 ADD DUP5 PUSH2 0x3B3 JUMP JUMPDEST SWAP3 SWAP2 POP POP JUMP JUMPDEST PUSH0 DUP3 DUP3 MSTORE PUSH1 0x20 DUP3 ADD SWAP1 POP SWAP3 SWAP2 POP POP JUMP JUMPDEST PUSH32 0x546F6B656E20616464726573732063616E6E6F74206265207A65726F00000000 PUSH0 DUP3 ADD MSTORE POP JUMP JUMPDEST PUSH0 PUSH2 0x41F PUSH1 0x1C DUP4 PUSH2 0x3DB JUMP JUMPDEST SWAP2 POP PUSH2 0x42A DUP3 PUSH2 0x3EB JUMP JUMPDEST PUSH1 0x20 DUP3 ADD SWAP1 POP SWAP2 SWAP1 POP JUMP JUMPDEST PUSH0 PUSH1 0x20 DUP3 ADD SWAP1 POP DUP2 DUP2 SUB PUSH0 DUP4 ADD MSTORE PUSH2 0x44C DUP2 PUSH2 0x413 JUMP JUMPDEST SWAP1 POP SWAP2 SWAP1 POP JUMP JUMPDEST PUSH1 0x80 MLOAD PUSH2 0x29E6 PUSH2 0x487 PUSH0 CODECOPY PUSH0 DUP2 DUP2 PUSH2 0x8A2 ADD MSTORE DUP2 DUP2 PUSH2 0x10B6 ADD MSTORE DUP2 DUP2 PUSH2 0x111E ADD MSTORE DUP2 DUP2 PUSH2 0x116E ADD MSTORE PUSH2 0x1E5F ADD MSTORE PUSH2 0x29E6 PUSH0 RETURN INVALID PUSH1 0x80 PUSH1 0x40 MSTORE CALLVALUE DUP1 ISZERO PUSH2 0xF JUMPI PUSH0 PUSH0 REVERT JUMPDEST POP PUSH1 0x4 CALLDATASIZE LT PUSH2 0x272 JUMPI PUSH0 CALLDATALOAD PUSH1 0xE0 SHR DUP1 PUSH4 0x7B3E920C GT PUSH2 0x14F JUMPI DUP1 PUSH4 0xD0BCC009 GT PUSH2 0xC1 JUMPI DUP1 PUSH4 0xE7DE2CEB GT PUSH2 0x85 JUMPI DUP1 PUSH4 0xE7DE2CEB EQ PUSH2 0x78C JUMPI DUP1 PUSH4 0xEA1B28E0 EQ PUSH2 0x7AA JUMPI DUP1 PUSH4 0xF1CDDD55 EQ PUSH2 0x7C8 JUMPI DUP1 PUSH4 0xF2FDE38B EQ PUSH2 0x7E4 JUMPI DUP1 PUSH4 0xF908DC13 EQ PUSH2 0x800 JUMPI DUP1 PUSH4 0xFD2B5202 EQ PUSH2 0x81E JUMPI PUSH2 0x272 JUMP JUMPDEST DUP1 PUSH4 0xD0BCC009 EQ PUSH2 0x6F8 JUMPI DUP1 PUSH4 0xD19B090E EQ PUSH2 0x716 JUMPI DUP1 PUSH4 0xD47C56E5 EQ PUSH2 0x734 JUMPI DUP1 PUSH4 0xD5C41D69 EQ PUSH2 0x752 JUMPI DUP1 PUSH4 0xD7D4918E EQ PUSH2 0x76E JUMPI PUSH2 0x272 JUMP JUMPDEST DUP1 PUSH4 0x94387289 GT PUSH2 0x113 JUMPI DUP1 PUSH4 0x94387289 EQ PUSH2 0x636 JUMPI DUP1 PUSH4 0xB39DC996 EQ PUSH2 0x652 JUMPI DUP1 PUSH4 0xBBA4FEFD EQ PUSH2 0x670 JUMPI DUP1 PUSH4 0xBEF7D12E EQ PUSH2 0x68E JUMPI DUP1 PUSH4 0xC3630EDB EQ PUSH2 0x6BE JUMPI DUP1 PUSH4 0xCD5692EE EQ PUSH2 0x6DC JUMPI PUSH2 0x272 JUMP JUMPDEST DUP1 PUSH4 0x7B3E920C EQ PUSH2 0x57C JUMPI DUP1 PUSH4 0x817B1CD2 EQ PUSH2 0x5AC JUMPI DUP1 PUSH4 0x89B0040A EQ PUSH2 0x5CA JUMPI DUP1 PUSH4 0x8A170AC1 EQ PUSH2 0x5FA JUMPI DUP1 PUSH4 0x8DA5CB5B EQ PUSH2 0x618 JUMPI PUSH2 0x272 JUMP JUMPDEST DUP1 PUSH4 0x4B0C10D8 GT PUSH2 0x1E8 JUMPI DUP1 PUSH4 0x6CBDE5CF GT PUSH2 0x1AC JUMPI DUP1 PUSH4 0x6CBDE5CF EQ PUSH2 0x4CC JUMPI DUP1 PUSH4 0x70A08231 EQ PUSH2 0x4E8 JUMPI DUP1 PUSH4 0x715018A6 EQ PUSH2 0x518 JUMPI DUP1 PUSH4 0x73DEC718 EQ PUSH2 0x522 JUMPI DUP1 PUSH4 0x79085425 EQ PUSH2 0x540 JUMPI DUP1 PUSH4 0x798CBE5E EQ PUSH2 0x55E JUMPI PUSH2 0x272 JUMP JUMPDEST DUP1 PUSH4 0x4B0C10D8 EQ PUSH2 0x414 JUMPI DUP1 PUSH4 0x4B5EFFC2 EQ PUSH2 0x432 JUMPI DUP1 PUSH4 0x4F51D090 EQ PUSH2 0x462 JUMPI DUP1 PUSH4 0x5CD5A159 EQ PUSH2 0x492 JUMPI DUP1 PUSH4 0x5F75BCEA EQ PUSH2 0x4B0 JUMPI PUSH2 0x272 JUMP JUMPDEST DUP1 PUSH4 0x292A6B19 GT PUSH2 0x23A JUMPI DUP1 PUSH4 0x292A6B19 EQ PUSH2 0x32C JUMPI DUP1 PUSH4 0x2E5F89EF EQ PUSH2 0x34A JUMPI DUP1 PUSH4 0x35E63055 EQ PUSH2 0x37A JUMPI DUP1 PUSH4 0x375B3C0A EQ PUSH2 0x396 JUMPI DUP1 PUSH4 0x38DC97FB EQ PUSH2 0x3B4 JUMPI DUP1 PUSH4 0x4893AFC1 EQ PUSH2 0x3E4 JUMPI PUSH2 0x272 JUMP JUMPDEST DUP1 PUSH4 0x58DF0E8 EQ PUSH2 0x276 JUMPI DUP1 PUSH4 0x1D95985B EQ PUSH2 0x2A6 JUMPI DUP1 PUSH4 0x1D95D52F EQ PUSH2 0x2C4 JUMPI DUP1 PUSH4 0x23DCDB89 EQ PUSH2 0x2E0 JUMPI DUP1 PUSH4 0x24EBD9D2 EQ PUSH2 0x2FC JUMPI JUMPDEST PUSH0 PUSH0 REVERT JUMPDEST PUSH2 0x290 PUSH1 0x4 DUP1 CALLDATASIZE SUB DUP2 ADD SWAP1 PUSH2 0x28B SWAP2 SWAP1 PUSH2 0x21F3 JUMP JUMPDEST PUSH2 0x83A JUMP JUMPDEST PUSH1 0x40 MLOAD PUSH2 0x29D SWAP2 SWAP1 PUSH2 0x2236 JUMP JUMPDEST PUSH1 0x40 MLOAD DUP1 SWAP2 SUB SWAP1 RETURN JUMPDEST PUSH2 0x2AE PUSH2 0x84F JUMP JUMPDEST PUSH1 0x40 MLOAD PUSH2 0x2BB SWAP2 SWAP1 PUSH2 0x2236 JUMP JUMPDEST PUSH1 0x40 MLOAD DUP1 SWAP2 SUB SWAP1 RETURN JUMPDEST PUSH2 0x2DE PUSH1 0x4 DUP1 CALLDATASIZE SUB DUP2 ADD SWAP1 PUSH2 0x2D9 SWAP2 SWAP1 PUSH2 0x2284 JUMP JUMPDEST PUSH2 0x855 JUMP JUMPDEST STOP JUMPDEST PUSH2 0x2FA PUSH1 0x4 DUP1 CALLDATASIZE SUB DUP2 ADD SWAP1 PUSH2 0x2F5 SWAP2 SWAP1 PUSH2 0x22D9 JUMP JUMPDEST PUSH2 0x879 JUMP JUMPDEST STOP JUMPDEST PUSH2 0x316 PUSH1 0x4 DUP1 CALLDATASIZE SUB DUP2 ADD SWAP1 PUSH2 0x311 SWAP2 SWAP1 PUSH2 0x21F3 JUMP JUMPDEST PUSH2 0x88B JUMP JUMPDEST PUSH1 0x40 MLOAD PUSH2 0x323 SWAP2 SWAP1 PUSH2 0x2236 JUMP JUMPDEST PUSH1 0x40 MLOAD DUP1 SWAP2 SUB SWAP1 RETURN JUMPDEST PUSH2 0x334 PUSH2 0x8A0 JUMP JUMPDEST PUSH1 0x40 MLOAD PUSH2 0x341 SWAP2 SWAP1 PUSH2 0x235F JUMP JUMPDEST PUSH1 0x40 MLOAD DUP1 SWAP2 SUB SWAP1 RETURN JUMPDEST PUSH2 0x364 PUSH1 0x4 DUP1 CALLDATASIZE SUB DUP2 ADD SWAP1 PUSH2 0x35F SWAP2 SWAP1 PUSH2 0x21F3 JUMP JUMPDEST PUSH2 0x8C4 JUMP JUMPDEST PUSH1 0x40 MLOAD PUSH2 0x371 SWAP2 SWAP1 PUSH2 0x2236 JUMP JUMPDEST PUSH1 0x40 MLOAD DUP1 SWAP2 SUB SWAP1 RETURN JUMPDEST PUSH2 0x394 PUSH1 0x4 DUP1 CALLDATASIZE SUB DUP2 ADD SWAP1 PUSH2 0x38F SWAP2 SWAP1 PUSH2 0x22D9 JUMP JUMPDEST PUSH2 0x8D9 JUMP JUMPDEST STOP JUMPDEST PUSH2 0x39E PUSH2 0x11BA JUMP JUMPDEST PUSH1 0x40 MLOAD PUSH2 0x3AB SWAP2 SWAP1 PUSH2 0x2236 JUMP JUMPDEST PUSH1 0x40 MLOAD DUP1 SWAP2 SUB SWAP1 RETURN JUMPDEST PUSH2 0x3CE PUSH1 0x4 DUP1 CALLDATASIZE SUB DUP2 ADD SWAP1 PUSH2 0x3C9 SWAP2 SWAP1 PUSH2 0x21F3 JUMP JUMPDEST PUSH2 0x11C0 JUMP JUMPDEST PUSH1 0x40 MLOAD PUSH2 0x3DB SWAP2 SWAP1 PUSH2 0x2236 JUMP JUMPDEST PUSH1 0x40 MLOAD DUP1 SWAP2 SUB SWAP1 RETURN JUMPDEST PUSH2 0x3FE PUSH1 0x4 DUP1 CALLDATASIZE SUB DUP2 ADD SWAP1 PUSH2 0x3F9 SWAP2 SWAP1 PUSH2 0x21F3 JUMP JUMPDEST PUSH2 0x11D5 JUMP JUMPDEST PUSH1 0x40 MLOAD PUSH2 0x40B SWAP2 SWAP1 PUSH2 0x2236 JUMP JUMPDEST PUSH1 0x40 MLOAD DUP1 SWAP2 SUB SWAP1 RETURN JUMPDEST PUSH2 0x41C PUSH2 0x11EA JUMP JUMPDEST PUSH1 0x40 MLOAD PUSH2 0x429 SWAP2 SWAP1 PUSH2 0x2236 JUMP JUMPDEST PUSH1 0x40 MLOAD DUP1 SWAP2 SUB SWAP1 RETURN JUMPDEST PUSH2 0x44C PUSH1 0x4 DUP1 CALLDATASIZE SUB DUP2 ADD SWAP1 PUSH2 0x447 SWAP2 SWAP1 PUSH2 0x2378 JUMP JUMPDEST PUSH2 0x11F0 JUMP JUMPDEST PUSH1 0x40 MLOAD PUSH2 0x459 SWAP2 SWAP1 PUSH2 0x2236 JUMP JUMPDEST PUSH1 0x40 MLOAD DUP1 SWAP2 SUB SWAP1 RETURN JUMPDEST PUSH2 0x47C PUSH1 0x4 DUP1 CALLDATASIZE SUB DUP2 ADD SWAP1 PUSH2 0x477 SWAP2 SWAP1 PUSH2 0x21F3 JUMP JUMPDEST PUSH2 0x132F JUMP JUMPDEST PUSH1 0x40 MLOAD PUSH2 0x489 SWAP2 SWAP1 PUSH2 0x2236 JUMP JUMPDEST PUSH1 0x40 MLOAD DUP1 SWAP2 SUB SWAP1 RETURN JUMPDEST PUSH2 0x49A PUSH2 0x1344 JUMP JUMPDEST PUSH1 0x40 MLOAD PUSH2 0x4A7 SWAP2 SWAP1 PUSH2 0x23C5 JUMP JUMPDEST PUSH1 0x40 MLOAD DUP1 SWAP2 SUB SWAP1 RETURN JUMPDEST PUSH2 0x4CA PUSH1 0x4 DUP1 CALLDATASIZE SUB DUP2 ADD SWAP1 PUSH2 0x4C5 SWAP2 SWAP1 PUSH2 0x2284 JUMP JUMPDEST PUSH2 0x1356 JUMP JUMPDEST STOP JUMPDEST PUSH2 0x4E6 PUSH1 0x4 DUP1 CALLDATASIZE SUB DUP2 ADD SWAP1 PUSH2 0x4E1 SWAP2 SWAP1 PUSH2 0x2284 JUMP JUMPDEST PUSH2 0x137A JUMP JUMPDEST STOP JUMPDEST PUSH2 0x502 PUSH1 0x4 DUP1 CALLDATASIZE SUB DUP2 ADD SWAP1 PUSH2 0x4FD SWAP2 SWAP1 PUSH2 0x21F3 JUMP JUMPDEST PUSH2 0x139E JUMP JUMPDEST PUSH1 0x40 MLOAD PUSH2 0x50F SWAP2 SWAP1 PUSH2 0x2236 JUMP JUMPDEST PUSH1 0x40 MLOAD DUP1 SWAP2 SUB SWAP1 RETURN JUMPDEST PUSH2 0x520 PUSH2 0x14BC JUMP JUMPDEST STOP JUMPDEST PUSH2 0x52A PUSH2 0x14CF JUMP JUMPDEST PUSH1 0x40 MLOAD PUSH2 0x537 SWAP2 SWAP1 PUSH2 0x23C5 JUMP JUMPDEST PUSH1 0x40 MLOAD DUP1 SWAP2 SUB SWAP1 RETURN JUMPDEST PUSH2 0x548 PUSH2 0x14E1 JUMP JUMPDEST PUSH1 0x40 MLOAD PUSH2 0x555 SWAP2 SWAP1 PUSH2 0x2236 JUMP JUMPDEST PUSH1 0x40 MLOAD DUP1 SWAP2 SUB SWAP1 RETURN JUMPDEST PUSH2 0x566 PUSH2 0x14E7 JUMP JUMPDEST PUSH1 0x40 MLOAD PUSH2 0x573 SWAP2 SWAP1 PUSH2 0x2236 JUMP JUMPDEST PUSH1 0x40 MLOAD DUP1 SWAP2 SUB SWAP1 RETURN JUMPDEST PUSH2 0x596 PUSH1 0x4 DUP1 CALLDATASIZE SUB DUP2 ADD SWAP1 PUSH2 0x591 SWAP2 SWAP1 PUSH2 0x21F3 JUMP JUMPDEST PUSH2 0x14ED JUMP JUMPDEST PUSH1 0x40 MLOAD PUSH2 0x5A3 SWAP2 SWAP1 PUSH2 0x2236 JUMP JUMPDEST PUSH1 0x40 MLOAD DUP1 SWAP2 SUB SWAP1 RETURN JUMPDEST PUSH2 0x5B4 PUSH2 0x1502 JUMP JUMPDEST PUSH1 0x40 MLOAD PUSH2 0x5C1 SWAP2 SWAP1 PUSH2 0x2236 JUMP JUMPDEST PUSH1 0x40 MLOAD DUP1 SWAP2 SUB SWAP1 RETURN JUMPDEST PUSH2 0x5E4 PUSH1 0x4 DUP1 CALLDATASIZE SUB DUP2 ADD SWAP1 PUSH2 0x5DF SWAP2 SWAP1 PUSH2 0x21F3 JUMP JUMPDEST PUSH2 0x1508 JUMP JUMPDEST PUSH1 0x40 MLOAD PUSH2 0x5F1 SWAP2 SWAP1 PUSH2 0x2236 JUMP JUMPDEST PUSH1 0x40 MLOAD DUP1 SWAP2 SUB SWAP1 RETURN JUMPDEST PUSH2 0x602 PUSH2 0x151D JUMP JUMPDEST PUSH1 0x40 MLOAD PUSH2 0x60F SWAP2 SWAP1 PUSH2 0x23C5 JUMP JUMPDEST PUSH1 0x40 MLOAD DUP1 SWAP2 SUB SWAP1 RETURN JUMPDEST PUSH2 0x620 PUSH2 0x152F JUMP JUMPDEST PUSH1 0x40 MLOAD PUSH2 0x62D SWAP2 SWAP1 PUSH2 0x23ED JUMP JUMPDEST PUSH1 0x40 MLOAD DUP1 SWAP2 SUB SWAP1 RETURN JUMPDEST PUSH2 0x650 PUSH1 0x4 DUP1 CALLDATASIZE SUB DUP2 ADD SWAP1 PUSH2 0x64B SWAP2 SWAP1 PUSH2 0x22D9 JUMP JUMPDEST PUSH2 0x1556 JUMP JUMPDEST STOP JUMPDEST PUSH2 0x65A PUSH2 0x1568 JUMP JUMPDEST PUSH1 0x40 MLOAD PUSH2 0x667 SWAP2 SWAP1 PUSH2 0x2236 JUMP JUMPDEST PUSH1 0x40 MLOAD DUP1 SWAP2 SUB SWAP1 RETURN JUMPDEST PUSH2 0x678 PUSH2 0x156E JUMP JUMPDEST PUSH1 0x40 MLOAD PUSH2 0x685 SWAP2 SWAP1 PUSH2 0x2236 JUMP JUMPDEST PUSH1 0x40 MLOAD DUP1 SWAP2 SUB SWAP1 RETURN JUMPDEST PUSH2 0x6A8 PUSH1 0x4 DUP1 CALLDATASIZE SUB DUP2 ADD SWAP1 PUSH2 0x6A3 SWAP2 SWAP1 PUSH2 0x2378 JUMP JUMPDEST PUSH2 0x1574 JUMP JUMPDEST PUSH1 0x40 MLOAD PUSH2 0x6B5 SWAP2 SWAP1 PUSH2 0x2236 JUMP JUMPDEST PUSH1 0x40 MLOAD DUP1 SWAP2 SUB SWAP1 RETURN JUMPDEST PUSH2 0x6C6 PUSH2 0x16E7 JUMP JUMPDEST PUSH1 0x40 MLOAD PUSH2 0x6D3 SWAP2 SWAP1 PUSH2 0x2236 JUMP JUMPDEST PUSH1 0x40 MLOAD DUP1 SWAP2 SUB SWAP1 RETURN JUMPDEST PUSH2 0x6F6 PUSH1 0x4 DUP1 CALLDATASIZE SUB DUP2 ADD SWAP1 PUSH2 0x6F1 SWAP2 SWAP1 PUSH2 0x22D9 JUMP JUMPDEST PUSH2 0x16ED JUMP JUMPDEST STOP JUMPDEST PUSH2 0x700 PUSH2 0x16FF JUMP JUMPDEST PUSH1 0x40 MLOAD PUSH2 0x70D SWAP2 SWAP1 PUSH2 0x23C5 JUMP JUMPDEST PUSH1 0x40 MLOAD DUP1 SWAP2 SUB SWAP1 RETURN JUMPDEST PUSH2 0x71E PUSH2 0x1711 JUMP JUMPDEST PUSH1 0x40 MLOAD PUSH2 0x72B SWAP2 SWAP1 PUSH2 0x2236 JUMP JUMPDEST PUSH1 0x40 MLOAD DUP1 SWAP2 SUB SWAP1 RETURN JUMPDEST PUSH2 0x73C PUSH2 0x1717 JUMP JUMPDEST PUSH1 0x40 MLOAD PUSH2 0x749 SWAP2 SWAP1 PUSH2 0x2236 JUMP JUMPDEST PUSH1 0x40 MLOAD DUP1 SWAP2 SUB SWAP1 RETURN JUMPDEST PUSH2 0x76C PUSH1 0x4 DUP1 CALLDATASIZE SUB DUP2 ADD SWAP1 PUSH2 0x767 SWAP2 SWAP1 PUSH2 0x2284 JUMP JUMPDEST PUSH2 0x171D JUMP JUMPDEST STOP JUMPDEST PUSH2 0x776 PUSH2 0x1741 JUMP JUMPDEST PUSH1 0x40 MLOAD PUSH2 0x783 SWAP2 SWAP1 PUSH2 0x2236 JUMP JUMPDEST PUSH1 0x40 MLOAD DUP1 SWAP2 SUB SWAP1 RETURN JUMPDEST PUSH2 0x794 PUSH2 0x1747 JUMP JUMPDEST PUSH1 0x40 MLOAD PUSH2 0x7A1 SWAP2 SWAP1 PUSH2 0x2236 JUMP JUMPDEST PUSH1 0x40 MLOAD DUP1 SWAP2 SUB SWAP1 RETURN JUMPDEST PUSH2 0x7B2 PUSH2 0x174D JUMP JUMPDEST PUSH1 0x40 MLOAD PUSH2 0x7BF SWAP2 SWAP1 PUSH2 0x2236 JUMP JUMPDEST PUSH1 0x40 MLOAD DUP1 SWAP2 SUB SWAP1 RETURN JUMPDEST PUSH2 0x7E2 PUSH1 0x4 DUP1 CALLDATASIZE SUB DUP2 ADD SWAP1 PUSH2 0x7DD SWAP2 SWAP1 PUSH2 0x2284 JUMP JUMPDEST PUSH2 0x1753 JUMP JUMPDEST STOP JUMPDEST PUSH2 0x7FE PUSH1 0x4 DUP1 CALLDATASIZE SUB DUP2 ADD SWAP1 PUSH2 0x7F9 SWAP2 SWAP1 PUSH2 0x21F3 JUMP JUMPDEST PUSH2 0x1777 JUMP JUMPDEST STOP JUMPDEST PUSH2 0x808 PUSH2 0x17FB JUMP JUMPDEST PUSH1 0x40 MLOAD PUSH2 0x815 SWAP2 SWAP1 PUSH2 0x23C5 JUMP JUMPDEST PUSH1 0x40 MLOAD DUP1 SWAP2 SUB SWAP1 RETURN JUMPDEST PUSH2 0x838 PUSH1 0x4 DUP1 CALLDATASIZE SUB DUP2 ADD SWAP1 PUSH2 0x833 SWAP2 SWAP1 PUSH2 0x2406 JUMP JUMPDEST PUSH2 0x180D JUMP JUMPDEST STOP JUMPDEST PUSH1 0x6 PUSH1 0x20 MSTORE DUP1 PUSH0 MSTORE PUSH1 0x40 PUSH0 KECCAK256 PUSH0 SWAP2 POP SWAP1 POP SLOAD DUP2 JUMP JUMPDEST PUSH1 0xE SLOAD DUP2 JUMP JUMPDEST PUSH2 0x85D PUSH2 0x1EAA JUMP JUMPDEST DUP1 PUSH1 0x14 PUSH0 PUSH2 0x100 EXP DUP2 SLOAD DUP2 PUSH1 0xFF MUL NOT AND SWAP1 DUP4 ISZERO ISZERO MUL OR SWAP1 SSTORE POP POP JUMP JUMPDEST PUSH2 0x881 PUSH2 0x1EAA JUMP JUMPDEST DUP1 PUSH1 0x16 DUP2 SWAP1 SSTORE POP POP JUMP JUMPDEST PUSH1 0x10 PUSH1 0x20 MSTORE DUP1 PUSH0 MSTORE PUSH1 0x40 PUSH0 KECCAK256 PUSH0 SWAP2 POP SWAP1 POP SLOAD DUP2 JUMP JUMPDEST PUSH32 0x0 DUP2 JUMP JUMPDEST PUSH1 0xB PUSH1 0x20 MSTORE DUP1 PUSH0 MSTORE PUSH1 0x40 PUSH0 KECCAK256 PUSH0 SWAP2 POP SWAP1 POP SLOAD DUP2 JUMP JUMPDEST PUSH1 0x1 DUP2 LT ISZERO DUP1 ISZERO PUSH2 0x8EB JUMPI POP PUSH1 0x4 DUP2 GT ISZERO JUMPDEST PUSH2 0x92A JUMPI PUSH1 0x40 MLOAD PUSH32 0x8C379A000000000000000000000000000000000000000000000000000000000 DUP2 MSTORE PUSH1 0x4 ADD PUSH2 0x921 SWAP1 PUSH2 0x249E JUMP JUMPDEST PUSH1 0x40 MLOAD DUP1 SWAP2 SUB SWAP1 REVERT JUMPDEST PUSH0 CALLER SWAP1 POP PUSH0 PUSH0 PUSH1 0x1 DUP5 SUB PUSH2 0xAF6 JUMPI PUSH1 0x1 PUSH0 DUP5 PUSH20 0xFFFFFFFFFFFFFFFFFFFFFFFFFFFFFFFFFFFFFFFF AND PUSH20 0xFFFFFFFFFFFFFFFFFFFFFFFFFFFFFFFFFFFFFFFF AND DUP2 MSTORE PUSH1 0x20 ADD SWAP1 DUP2 MSTORE PUSH1 0x20 ADD PUSH0 KECCAK256 SLOAD SWAP1 POP PUSH0 DUP2 GT PUSH2 0x9BA JUMPI PUSH1 0x40 MLOAD PUSH32 0x8C379A000000000000000000000000000000000000000000000000000000000 DUP2 MSTORE PUSH1 0x4 ADD PUSH2 0x9B1 SWAP1 PUSH2 0x2506 JUMP JUMPDEST PUSH1 0x40 MLOAD DUP1 SWAP2 SUB SWAP1 REVERT JUMPDEST PUSH1 0x1B PUSH0 SWAP1 SLOAD SWAP1 PUSH2 0x100 EXP SWAP1 DIV PUSH1 0xFF AND DUP1 PUSH2 0xA1E JUMPI POP PUSH1 0x4 SLOAD PUSH1 0x2 PUSH0 DUP6 PUSH20 0xFFFFFFFFFFFFFFFFFFFFFFFFFFFFFFFFFFFFFFFF AND PUSH20 0xFFFFFFFFFFFFFFFFFFFFFFFFFFFFFFFFFFFFFFFF AND DUP2 MSTORE PUSH1 0x20 ADD SWAP1 DUP2 MSTORE PUSH1 0x20 ADD PUSH0 KECCAK256 SLOAD PUSH2 0xA1A SWAP2 SWAP1 PUSH2 0x2551 JUMP JUMPDEST TIMESTAMP LT ISZERO JUMPDEST PUSH2 0xA5D JUMPI PUSH1 0x40 MLOAD PUSH32 0x8C379A000000000000000000000000000000000000000000000000000000000 DUP2 MSTORE PUSH1 0x4 ADD PUSH2 0xA54 SWAP1 PUSH2 0x25CE JUMP JUMPDEST PUSH1 0x40 MLOAD DUP1 SWAP2 SUB SWAP1 REVERT JUMPDEST PUSH1 0x3 SLOAD DUP2 PUSH2 0xA6B SWAP2 SWAP1 PUSH2 0x2619 JUMP JUMPDEST SWAP2 POP PUSH0 PUSH1 0x1 PUSH0 DUP6 PUSH20 0xFFFFFFFFFFFFFFFFFFFFFFFFFFFFFFFFFFFFFFFF AND PUSH20 0xFFFFFFFFFFFFFFFFFFFFFFFFFFFFFFFFFFFFFFFF AND DUP2 MSTORE PUSH1 0x20 ADD SWAP1 DUP2 MSTORE PUSH1 0x20 ADD PUSH0 KECCAK256 DUP2 SWAP1 SSTORE POP PUSH0 PUSH1 0x2 PUSH0 DUP6 PUSH20 0xFFFFFFFFFFFFFFFFFFFFFFFFFFFFFFFFFFFFFFFF AND PUSH20 0xFFFFFFFFFFFFFFFFFFFFFFFFFFFFFFFFFFFFFFFF AND DUP2 MSTORE PUSH1 0x20 ADD SWAP1 DUP2 MSTORE PUSH1 0x20 ADD PUSH0 KECCAK256 DUP2 SWAP1 SSTORE POP PUSH2 0x1047 JUMP JUMPDEST PUSH1 0x2 DUP5 SUB PUSH2 0xCBC JUMPI PUSH1 0x6 PUSH0 DUP5 PUSH20 0xFFFFFFFFFFFFFFFFFFFFFFFFFFFFFFFFFFFFFFFF AND PUSH20 0xFFFFFFFFFFFFFFFFFFFFFFFFFFFFFFFFFFFFFFFF AND DUP2 MSTORE PUSH1 0x20 ADD SWAP1 DUP2 MSTORE PUSH1 0x20 ADD PUSH0 KECCAK256 SLOAD SWAP1 POP PUSH0 DUP2 GT PUSH2 0xB80 JUMPI PUSH1 0x40 MLOAD PUSH32 0x8C379A000000000000000000000000000000000000000000000000000000000 DUP2 MSTORE PUSH1 0x4 ADD PUSH2 0xB77 SWAP1 PUSH2 0x2506 JUMP JUMPDEST PUSH1 0x40 MLOAD DUP1 SWAP2 SUB SWAP1 REVERT JUMPDEST PUSH1 0x1B PUSH0 SWAP1 SLOAD SWAP1 PUSH2 0x100 EXP SWAP1 DIV PUSH1 0xFF AND DUP1 PUSH2 0xBE4 JUMPI POP PUSH1 0x9 SLOAD PUSH1 0x7 PUSH0 DUP6 PUSH20 0xFFFFFFFFFFFFFFFFFFFFFFFFFFFFFFFFFFFFFFFF AND PUSH20 0xFFFFFFFFFFFFFFFFFFFFFFFFFFFFFFFFFFFFFFFF AND DUP2 MSTORE PUSH1 0x20 ADD SWAP1 DUP2 MSTORE PUSH1 0x20 ADD PUSH0 KECCAK256 SLOAD PUSH2 0xBE0 SWAP2 SWAP1 PUSH2 0x2551 JUMP JUMPDEST TIMESTAMP LT ISZERO JUMPDEST PUSH2 0xC23 JUMPI PUSH1 0x40 MLOAD PUSH32 0x8C379A000000000000000000000000000000000000000000000000000000000 DUP2 MSTORE PUSH1 0x4 ADD PUSH2 0xC1A SWAP1 PUSH2 0x25CE JUMP JUMPDEST PUSH1 0x40 MLOAD DUP1 SWAP2 SUB SWAP1 REVERT JUMPDEST PUSH1 0x8 SLOAD DUP2 PUSH2 0xC31 SWAP2 SWAP1 PUSH2 0x2619 JUMP JUMPDEST SWAP2 POP PUSH0 PUSH1 0x6 PUSH0 DUP6 PUSH20 0xFFFFFFFFFFFFFFFFFFFFFFFFFFFFFFFFFFFFFFFF AND PUSH20 0xFFFFFFFFFFFFFFFFFFFFFFFFFFFFFFFFFFFFFFFF AND DUP2 MSTORE PUSH1 0x20 ADD SWAP1 DUP2 MSTORE PUSH1 0x20 ADD PUSH0 KECCAK256 DUP2 SWAP1 SSTORE POP PUSH0 PUSH1 0x7 PUSH0 DUP6 PUSH20 0xFFFFFFFFFFFFFFFFFFFFFFFFFFFFFFFFFFFFFFFF AND PUSH20 0xFFFFFFFFFFFFFFFFFFFFFFFFFFFFFFFFFFFFFFFF AND DUP2 MSTORE PUSH1 0x20 ADD SWAP1 DUP2 MSTORE PUSH1 0x20 ADD PUSH0 KECCAK256 DUP2 SWAP1 SSTORE POP PUSH2 0x1046 JUMP JUMPDEST PUSH1 0x3 DUP5 SUB PUSH2 0xE82 JUMPI PUSH1 0xB PUSH0 DUP5 PUSH20 0xFFFFFFFFFFFFFFFFFFFFFFFFFFFFFFFFFFFFFFFF AND PUSH20 0xFFFFFFFFFFFFFFFFFFFFFFFFFFFFFFFFFFFFFFFF AND DUP2 MSTORE PUSH1 0x20 ADD SWAP1 DUP2 MSTORE PUSH1 0x20 ADD PUSH0 KECCAK256 SLOAD SWAP1 POP PUSH0 DUP2 GT PUSH2 0xD46 JUMPI PUSH1 0x40 MLOAD PUSH32 0x8C379A000000000000000000000000000000000000000000000000000000000 DUP2 MSTORE PUSH1 0x4 ADD PUSH2 0xD3D SWAP1 PUSH2 0x2506 JUMP JUMPDEST PUSH1 0x40 MLOAD DUP1 SWAP2 SUB SWAP1 REVERT JUMPDEST PUSH1 0x1B PUSH0 SWAP1 SLOAD SWAP1 PUSH2 0x100 EXP SWAP1 DIV PUSH1 0xFF AND DUP1 PUSH2 0xDAA JUMPI POP PUSH1 0xE SLOAD PUSH1 0xC PUSH0 DUP6 PUSH20 0xFFFFFFFFFFFFFFFFFFFFFFFFFFFFFFFFFFFFFFFF AND PUSH20 0xFFFFFFFFFFFFFFFFFFFFFFFFFFFFFFFFFFFFFFFF AND DUP2 MSTORE PUSH1 0x20 ADD SWAP1 DUP2 MSTORE PUSH1 0x20 ADD PUSH0 KECCAK256 SLOAD PUSH2 0xDA6 SWAP2 SWAP1 PUSH2 0x2551 JUMP JUMPDEST TIMESTAMP LT ISZERO JUMPDEST PUSH2 0xDE9 JUMPI PUSH1 0x40 MLOAD PUSH32 0x8C379A000000000000000000000000000000000000000000000000000000000 DUP2 MSTORE PUSH1 0x4 ADD PUSH2 0xDE0 SWAP1 PUSH2 0x25CE JUMP JUMPDEST PUSH1 0x40 MLOAD DUP1 SWAP2 SUB SWAP1 REVERT JUMPDEST PUSH1 0xD SLOAD DUP2 PUSH2 0xDF7 SWAP2 SWAP1 PUSH2 0x2619 JUMP JUMPDEST SWAP2 POP PUSH0 PUSH1 0xB PUSH0 DUP6 PUSH20 0xFFFFFFFFFFFFFFFFFFFFFFFFFFFFFFFFFFFFFFFF AND PUSH20 0xFFFFFFFFFFFFFFFFFFFFFFFFFFFFFFFFFFFFFFFF AND DUP2 MSTORE PUSH1 0x20 ADD SWAP1 DUP2 MSTORE PUSH1 0x20 ADD PUSH0 KECCAK256 DUP2 SWAP1 SSTORE POP PUSH0 PUSH1 0xC PUSH0 DUP6 PUSH20 0xFFFFFFFFFFFFFFFFFFFFFFFFFFFFFFFFFFFFFFFF AND PUSH20 0xFFFFFFFFFFFFFFFFFFFFFFFFFFFFFFFFFFFFFFFF AND DUP2 MSTORE PUSH1 0x20 ADD SWAP1 DUP2 MSTORE PUSH1 0x20 ADD PUSH0 KECCAK256 DUP2 SWAP1 SSTORE POP PUSH2 0x1045 JUMP JUMPDEST PUSH1 0x4 DUP5 SUB PUSH2 0x1044 JUMPI PUSH1 0x10 PUSH0 DUP5 PUSH20 0xFFFFFFFFFFFFFFFFFFFFFFFFFFFFFFFFFFFFFFFF AND PUSH20 0xFFFFFFFFFFFFFFFFFFFFFFFFFFFFFFFFFFFFFFFF AND DUP2 MSTORE PUSH1 0x20 ADD SWAP1 DUP2 MSTORE PUSH1 0x20 ADD PUSH0 KECCAK256 SLOAD SWAP1 POP PUSH0 DUP2 GT PUSH2 0xF0C JUMPI PUSH1 0x40 MLOAD PUSH32 0x8C379A000000000000000000000000000000000000000000000000000000000 DUP2 MSTORE PUSH1 0x4 ADD PUSH2 0xF03 SWAP1 PUSH2 0x2506 JUMP JUMPDEST PUSH1 0x40 MLOAD DUP1 SWAP2 SUB SWAP1 REVERT JUMPDEST PUSH1 0x1B PUSH0 SWAP1 SLOAD SWAP1 PUSH2 0x100 EXP SWAP1 DIV PUSH1 0xFF AND DUP1 PUSH2 0xF70 JUMPI POP PUSH1 0x13 SLOAD PUSH1 0x11 PUSH0 DUP6 PUSH20 0xFFFFFFFFFFFFFFFFFFFFFFFFFFFFFFFFFFFFFFFF AND PUSH20 0xFFFFFFFFFFFFFFFFFFFFFFFFFFFFFFFFFFFFFFFF AND DUP2 MSTORE PUSH1 0x20 ADD SWAP1 DUP2 MSTORE PUSH1 0x20 ADD PUSH0 KECCAK256 SLOAD PUSH2 0xF6C SWAP2 SWAP1 PUSH2 0x2551 JUMP JUMPDEST TIMESTAMP LT ISZERO JUMPDEST PUSH2 0xFAF JUMPI PUSH1 0x40 MLOAD PUSH32 0x8C379A000000000000000000000000000000000000000000000000000000000 DUP2 MSTORE PUSH1 0x4 ADD PUSH2 0xFA6 SWAP1 PUSH2 0x25CE JUMP JUMPDEST PUSH1 0x40 MLOAD DUP1 SWAP2 SUB SWAP1 REVERT JUMPDEST PUSH1 0x12 SLOAD DUP2 PUSH2 0xFBD SWAP2 SWAP1 PUSH2 0x2619 JUMP JUMPDEST SWAP2 POP PUSH0 PUSH1 0x10 PUSH0 DUP6 PUSH20 0xFFFFFFFFFFFFFFFFFFFFFFFFFFFFFFFFFFFFFFFF AND PUSH20 0xFFFFFFFFFFFFFFFFFFFFFFFFFFFFFFFFFFFFFFFF AND DUP2 MSTORE PUSH1 0x20 ADD SWAP1 DUP2 MSTORE PUSH1 0x20 ADD PUSH0 KECCAK256 DUP2 SWAP1 SSTORE POP PUSH0 PUSH1 0x11 PUSH0 DUP6 PUSH20 0xFFFFFFFFFFFFFFFFFFFFFFFFFFFFFFFFFFFFFFFF AND PUSH20 0xFFFFFFFFFFFFFFFFFFFFFFFFFFFFFFFFFFFFFFFF AND DUP2 MSTORE PUSH1 0x20 ADD SWAP1 DUP2 MSTORE PUSH1 0x20 ADD PUSH0 KECCAK256 DUP2 SWAP1 SSTORE POP JUMPDEST JUMPDEST JUMPDEST JUMPDEST DUP1 PUSH1 0x19 PUSH0 DUP3 DUP3 SLOAD PUSH2 0x1058 SWAP2 SWAP1 PUSH2 0x2649 JUMP JUMPDEST SWAP3 POP POP DUP2 SWAP1 SSTORE POP PUSH1 0x1B PUSH0 SWAP1 SLOAD SWAP1 PUSH2 0x100 EXP SWAP1 DIV PUSH1 0xFF AND PUSH2 0x1087 JUMPI DUP2 PUSH1 0x18 SLOAD PUSH2 0x1080 SWAP2 SWAP1 PUSH2 0x2551 JUMP JUMPDEST PUSH1 0x18 DUP2 SWAP1 SSTORE POP JUMPDEST PUSH1 0x1B PUSH0 SWAP1 SLOAD SWAP1 PUSH2 0x100 EXP SWAP1 DIV PUSH1 0xFF AND PUSH2 0x10AF JUMPI DUP2 PUSH1 0x17 SLOAD PUSH2 0x10A8 SWAP2 SWAP1 PUSH2 0x2649 JUMP JUMPDEST PUSH1 0x17 DUP2 SWAP1 SSTORE POP JUMPDEST PUSH2 0x10FA DUP4 DUP3 PUSH32 0x0 PUSH20 0xFFFFFFFFFFFFFFFFFFFFFFFFFFFFFFFFFFFFFFFF AND PUSH2 0x1F31 SWAP1 SWAP3 SWAP2 SWAP1 PUSH4 0xFFFFFFFF AND JUMP JUMPDEST PUSH1 0x1B PUSH0 SWAP1 SLOAD SWAP1 PUSH2 0x100 EXP SWAP1 DIV PUSH1 0xFF AND PUSH2 0x11B4 JUMPI PUSH1 0x4 DUP5 SUB PUSH2 0x1167 JUMPI PUSH2 0x1162 PUSH2 0xDEAD DUP4 PUSH32 0x0 PUSH20 0xFFFFFFFFFFFFFFFFFFFFFFFFFFFFFFFFFFFFFFFF AND PUSH2 0x1F31 SWAP1 SWAP3 SWAP2 SWAP1 PUSH4 0xFFFFFFFF AND JUMP JUMPDEST PUSH2 0x11B3 JUMP JUMPDEST PUSH2 0x11B2 DUP4 DUP4 PUSH32 0x0 PUSH20 0xFFFFFFFFFFFFFFFFFFFFFFFFFFFFFFFFFFFFFFFF AND PUSH2 0x1F31 SWAP1 SWAP3 SWAP2 SWAP1 PUSH4 0xFFFFFFFF AND JUMP JUMPDEST JUMPDEST JUMPDEST POP POP POP POP JUMP JUMPDEST PUSH1 0x16 SLOAD DUP2 JUMP JUMPDEST PUSH1 0x11 PUSH1 0x20 MSTORE DUP1 PUSH0 MSTORE PUSH1 0x40 PUSH0 KECCAK256 PUSH0 SWAP2 POP SWAP1 POP SLOAD DUP2 JUMP JUMPDEST PUSH1 0x1 PUSH1 0x20 MSTORE DUP1 PUSH0 MSTORE PUSH1 0x40 PUSH0 KECCAK256 PUSH0 SWAP2 POP SWAP1 POP SLOAD DUP2 JUMP JUMPDEST PUSH1 0x4 SLOAD DUP2 JUMP JUMPDEST PUSH0 PUSH1 0x1 DUP3 SUB PUSH2 0x123E JUMPI PUSH1 0x1 PUSH0 DUP5 PUSH20 0xFFFFFFFFFFFFFFFFFFFFFFFFFFFFFFFFFFFFFFFF AND PUSH20 0xFFFFFFFFFFFFFFFFFFFFFFFFFFFFFFFFFFFFFFFF AND DUP2 MSTORE PUSH1 0x20 ADD SWAP1 DUP2 MSTORE PUSH1 0x20 ADD PUSH0 KECCAK256 SLOAD SWAP1 POP PUSH2 0x1329 JUMP JUMPDEST PUSH1 0x2 DUP3 SUB PUSH2 0x128B JUMPI PUSH1 0x6 PUSH0 DUP5 PUSH20 0xFFFFFFFFFFFFFFFFFFFFFFFFFFFFFFFFFFFFFFFF AND PUSH20 0xFFFFFFFFFFFFFFFFFFFFFFFFFFFFFFFFFFFFFFFF AND DUP2 MSTORE PUSH1 0x20 ADD SWAP1 DUP2 MSTORE PUSH1 0x20 ADD PUSH0 KECCAK256 SLOAD SWAP1 POP PUSH2 0x1329 JUMP JUMPDEST PUSH1 0x3 DUP3 SUB PUSH2 0x12D8 JUMPI PUSH1 0xB PUSH0 DUP5 PUSH20 0xFFFFFFFFFFFFFFFFFFFFFFFFFFFFFFFFFFFFFFFF AND PUSH20 0xFFFFFFFFFFFFFFFFFFFFFFFFFFFFFFFFFFFFFFFF AND DUP2 MSTORE PUSH1 0x20 ADD SWAP1 DUP2 MSTORE PUSH1 0x20 ADD PUSH0 KECCAK256 SLOAD SWAP1 POP PUSH2 0x1329 JUMP JUMPDEST PUSH1 0x4 DUP3 SUB PUSH2 0x1325 JUMPI PUSH1 0x10 PUSH0 DUP5 PUSH20 0xFFFFFFFFFFFFFFFFFFFFFFFFFFFFFFFFFFFFFFFF AND PUSH20 0xFFFFFFFFFFFFFFFFFFFFFFFFFFFFFFFFFFFFFFFF AND DUP2 MSTORE PUSH1 0x20 ADD SWAP1 DUP2 MSTORE PUSH1 0x20 ADD PUSH0 KECCAK256 SLOAD SWAP1 POP PUSH2 0x1329 JUMP JUMPDEST PUSH0 SWAP1 POP JUMPDEST SWAP3 SWAP2 POP POP JUMP JUMPDEST PUSH1 0x2 PUSH1 0x20 MSTORE DUP1 PUSH0 MSTORE PUSH1 0x40 PUSH0 KECCAK256 PUSH0 SWAP2 POP SWAP1 POP SLOAD DUP2 JUMP JUMPDEST PUSH1 0x14 PUSH0 SWAP1 SLOAD SWAP1 PUSH2 0x100 EXP SWAP1 DIV PUSH1 0xFF AND DUP2 JUMP JUMPDEST PUSH2 0x135E PUSH2 0x1EAA JUMP JUMPDEST DUP1 PUSH1 0xA PUSH0 PUSH2 0x100 EXP DUP2 SLOAD DUP2 PUSH1 0xFF MUL NOT AND SWAP1 DUP4 ISZERO ISZERO MUL OR SWAP1 SSTORE POP POP JUMP JUMPDEST PUSH2 0x1382 PUSH2 0x1EAA JUMP JUMPDEST DUP1 PUSH1 0x5 PUSH0 PUSH2 0x100 EXP DUP2 SLOAD DUP2 PUSH1 0xFF MUL NOT AND SWAP1 DUP4 ISZERO ISZERO MUL OR SWAP1 SSTORE POP POP JUMP JUMPDEST PUSH0 PUSH1 0x10 PUSH0 DUP4 PUSH20 0xFFFFFFFFFFFFFFFFFFFFFFFFFFFFFFFFFFFFFFFF AND PUSH20 0xFFFFFFFFFFFFFFFFFFFFFFFFFFFFFFFFFFFFFFFF AND DUP2 MSTORE PUSH1 0x20 ADD SWAP1 DUP2 MSTORE PUSH1 0x20 ADD PUSH0 KECCAK256 SLOAD PUSH1 0xB PUSH0 DUP5 PUSH20 0xFFFFFFFFFFFFFFFFFFFFFFFFFFFFFFFFFFFFFFFF AND PUSH20 0xFFFFFFFFFFFFFFFFFFFFFFFFFFFFFFFFFFFFFFFF AND DUP2 MSTORE PUSH1 0x20 ADD SWAP1 DUP2 MSTORE PUSH1 0x20 ADD PUSH0 KECCAK256 SLOAD PUSH1 0x6 PUSH0 DUP6 PUSH20 0xFFFFFFFFFFFFFFFFFFFFFFFFFFFFFFFFFFFFFFFF AND PUSH20 0xFFFFFFFFFFFFFFFFFFFFFFFFFFFFFFFFFFFFFFFF AND DUP2 MSTORE PUSH1 0x20 ADD SWAP1 DUP2 MSTORE PUSH1 0x20 ADD PUSH0 KECCAK256 SLOAD PUSH1 0x1 PUSH0 DUP7 PUSH20 0xFFFFFFFFFFFFFFFFFFFFFFFFFFFFFFFFFFFFFFFF AND PUSH20 0xFFFFFFFFFFFFFFFFFFFFFFFFFFFFFFFFFFFFFFFF AND DUP2 MSTORE PUSH1 0x20 ADD SWAP1 DUP2 MSTORE PUSH1 0x20 ADD PUSH0 KECCAK256 SLOAD PUSH2 0x14A1 SWAP2 SWAP1 PUSH2 0x2551 JUMP JUMPDEST PUSH2 0x14AB SWAP2 SWAP1 PUSH2 0x2551 JUMP JUMPDEST PUSH2 0x14B5 SWAP2 SWAP1 PUSH2 0x2551 JUMP JUMPDEST SWAP1 POP SWAP2 SWAP1 POP JUMP JUMPDEST PUSH2 0x14C4 PUSH2 0x1EAA JUMP JUMPDEST PUSH2 0x14CD PUSH0 PUSH2 0x1FB0 JUMP JUMPDEST JUMP JUMPDEST PUSH1 0xA PUSH0 SWAP1 SLOAD SWAP1 PUSH2 0x100 EXP SWAP1 DIV PUSH1 0xFF AND DUP2 JUMP JUMPDEST PUSH1 0x18 SLOAD DUP2 JUMP JUMPDEST PUSH1 0x13 SLOAD DUP2 JUMP JUMPDEST PUSH1 0x7 PUSH1 0x20 MSTORE DUP1 PUSH0 MSTORE PUSH1 0x40 PUSH0 KECCAK256 PUSH0 SWAP2 POP SWAP1 POP SLOAD DUP2 JUMP JUMPDEST PUSH1 0x19 SLOAD DUP2 JUMP JUMPDEST PUSH1 0xC PUSH1 0x20 MSTORE DUP1 PUSH0 MSTORE PUSH1 0x40 PUSH0 KECCAK256 PUSH0 SWAP2 POP SWAP1 POP SLOAD DUP2 JUMP JUMPDEST PUSH1 0x5 PUSH0 SWAP1 SLOAD SWAP1 PUSH2 0x100 EXP SWAP1 DIV PUSH1 0xFF AND DUP2 JUMP JUMPDEST PUSH0 PUSH0 PUSH0 SWAP1 SLOAD SWAP1 PUSH2 0x100 EXP SWAP1 DIV PUSH20 0xFFFFFFFFFFFFFFFFFFFFFFFFFFFFFFFFFFFFFFFF AND SWAP1 POP SWAP1 JUMP JUMPDEST PUSH2 0x155E PUSH2 0x1EAA JUMP JUMPDEST DUP1 PUSH1 0x1A DUP2 SWAP1 SSTORE POP POP JUMP JUMPDEST PUSH1 0xD SLOAD DUP2 JUMP JUMPDEST PUSH1 0x17 SLOAD DUP2 JUMP JUMPDEST PUSH0 PUSH1 0x1 DUP3 SUB PUSH2 0x15CF JUMPI PUSH1 0x4 SLOAD PUSH1 0x2 PUSH0 DUP6 PUSH20 0xFFFFFFFFFFFFFFFFFFFFFFFFFFFFFFFFFFFFFFFF AND PUSH20 0xFFFFFFFFFFFFFFFFFFFFFFFFFFFFFFFFFFFFFFFF AND DUP2 MSTORE PUSH1 0x20 ADD SWAP1 DUP2 MSTORE PUSH1 0x20 ADD PUSH0 KECCAK256 SLOAD PUSH2 0x15C8 SWAP2 SWAP1 PUSH2 0x2551 JUMP JUMPDEST SWAP1 POP PUSH2 0x16E1 JUMP JUMPDEST PUSH1 0x2 DUP3 SUB PUSH2 0x1629 JUMPI PUSH1 0x9 SLOAD PUSH1 0x7 PUSH0 DUP6 PUSH20 0xFFFFFFFFFFFFFFFFFFFFFFFFFFFFFFFFFFFFFFFF AND PUSH20 0xFFFFFFFFFFFFFFFFFFFFFFFFFFFFFFFFFFFFFFFF AND DUP2 MSTORE PUSH1 0x20 ADD SWAP1 DUP2 MSTORE PUSH1 0x20 ADD PUSH0 KECCAK256 SLOAD PUSH2 0x1622 SWAP2 SWAP1 PUSH2 0x2551 JUMP JUMPDEST SWAP1 POP PUSH2 0x16E1 JUMP JUMPDEST PUSH1 0x3 DUP3 SUB PUSH2 0x1683 JUMPI PUSH1 0xE SLOAD PUSH1 0xC PUSH0 DUP6 PUSH20 0xFFFFFFFFFFFFFFFFFFFFFFFFFFFFFFFFFFFFFFFF AND PUSH20 0xFFFFFFFFFFFFFFFFFFFFFFFFFFFFFFFFFFFFFFFF AND DUP2 MSTORE PUSH1 0x20 ADD SWAP1 DUP2 MSTORE PUSH1 0x20 ADD PUSH0 KECCAK256 SLOAD PUSH2 0x167C SWAP2 SWAP1 PUSH2 0x2551 JUMP JUMPDEST SWAP1 POP PUSH2 0x16E1 JUMP JUMPDEST PUSH1 0x4 DUP3 SUB PUSH2 0x16DD JUMPI PUSH1 0x13 SLOAD PUSH1 0x11 PUSH0 DUP6 PUSH20 0xFFFFFFFFFFFFFFFFFFFFFFFFFFFFFFFFFFFFFFFF AND PUSH20 0xFFFFFFFFFFFFFFFFFFFFFFFFFFFFFFFFFFFFFFFF AND DUP2 MSTORE PUSH1 0x20 ADD SWAP1 DUP2 MSTORE PUSH1 0x20 ADD PUSH0 KECCAK256 SLOAD PUSH2 0x16D6 SWAP2 SWAP1 PUSH2 0x2551 JUMP JUMPDEST SWAP1 POP PUSH2 0x16E1 JUMP JUMPDEST PUSH0 SWAP1 POP JUMPDEST SWAP3 SWAP2 POP POP JUMP JUMPDEST PUSH1 0x12 SLOAD DUP2 JUMP JUMPDEST PUSH2 0x16F5 PUSH2 0x1EAA JUMP JUMPDEST DUP1 PUSH1 0x15 DUP2 SWAP1 SSTORE POP POP JUMP JUMPDEST PUSH1 0xF PUSH0 SWAP1 SLOAD SWAP1 PUSH2 0x100 EXP SWAP1 DIV PUSH1 0xFF AND DUP2 JUMP JUMPDEST PUSH1 0x1A SLOAD DUP2 JUMP JUMPDEST PUSH1 0x9 SLOAD DUP2 JUMP JUMPDEST PUSH2 0x1725 PUSH2 0x1EAA JUMP JUMPDEST DUP1 PUSH1 0xF PUSH0 PUSH2 0x100 EXP DUP2 SLOAD DUP2 PUSH1 0xFF MUL NOT AND SWAP1 DUP4 ISZERO ISZERO MUL OR SWAP1 SSTORE POP POP JUMP JUMPDEST PUSH1 0x8 SLOAD DUP2 JUMP JUMPDEST PUSH1 0x3 SLOAD DUP2 JUMP JUMPDEST PUSH1 0x15 SLOAD DUP2 JUMP JUMPDEST PUSH2 0x175B PUSH2 0x1EAA JUMP JUMPDEST DUP1 PUSH1 0x1B PUSH0 PUSH2 0x100 EXP DUP2 SLOAD DUP2 PUSH1 0xFF MUL NOT AND SWAP1 DUP4 ISZERO ISZERO MUL OR SWAP1 SSTORE POP POP JUMP JUMPDEST PUSH2 0x177F PUSH2 0x1EAA JUMP JUMPDEST PUSH0 PUSH20 0xFFFFFFFFFFFFFFFFFFFFFFFFFFFFFFFFFFFFFFFF AND DUP2 PUSH20 0xFFFFFFFFFFFFFFFFFFFFFFFFFFFFFFFFFFFFFFFF AND SUB PUSH2 0x17EF JUMPI PUSH0 PUSH1 0x40 MLOAD PUSH32 0x1E4FBDF700000000000000000000000000000000000000000000000000000000 DUP2 MSTORE PUSH1 0x4 ADD PUSH2 0x17E6 SWAP2 SWAP1 PUSH2 0x23ED JUMP JUMPDEST PUSH1 0x40 MLOAD DUP1 SWAP2 SUB SWAP1 REVERT JUMPDEST PUSH2 0x17F8 DUP2 PUSH2 0x1FB0 JUMP JUMPDEST POP JUMP JUMPDEST PUSH1 0x1B PUSH0 SWAP1 SLOAD SWAP1 PUSH2 0x100 EXP SWAP1 DIV PUSH1 0xFF AND DUP2 JUMP JUMPDEST PUSH1 0x1 DUP2 LT ISZERO DUP1 ISZERO PUSH2 0x181F JUMPI POP PUSH1 0x4 DUP2 GT ISZERO JUMPDEST PUSH2 0x185E JUMPI PUSH1 0x40 MLOAD PUSH32 0x8C379A000000000000000000000000000000000000000000000000000000000 DUP2 MSTORE PUSH1 0x4 ADD PUSH2 0x1855 SWAP1 PUSH2 0x249E JUMP JUMPDEST PUSH1 0x40 MLOAD DUP1 SWAP2 SUB SWAP1 REVERT JUMPDEST PUSH1 0x16 SLOAD DUP3 LT ISZERO DUP1 ISZERO PUSH2 0x1872 JUMPI POP PUSH1 0x15 SLOAD DUP3 GT ISZERO JUMPDEST PUSH2 0x18B1 JUMPI PUSH1 0x40 MLOAD PUSH32 0x8C379A000000000000000000000000000000000000000000000000000000000 DUP2 MSTORE PUSH1 0x4 ADD PUSH2 0x18A8 SWAP1 PUSH2 0x26C6 JUMP JUMPDEST PUSH1 0x40 MLOAD DUP1 SWAP2 SUB SWAP1 REVERT JUMPDEST PUSH1 0x1B PUSH0 SWAP1 SLOAD SWAP1 PUSH2 0x100 EXP SWAP1 DIV PUSH1 0xFF AND ISZERO PUSH2 0x1900 JUMPI PUSH1 0x40 MLOAD PUSH32 0x8C379A000000000000000000000000000000000000000000000000000000000 DUP2 MSTORE PUSH1 0x4 ADD PUSH2 0x18F7 SWAP1 PUSH2 0x272E JUMP JUMPDEST PUSH1 0x40 MLOAD DUP1 SWAP2 SUB SWAP1 REVERT JUMPDEST PUSH1 0x18 SLOAD PUSH1 0x1A SLOAD LT ISZERO PUSH2 0x1947 JUMPI PUSH1 0x40 MLOAD PUSH32 0x8C379A000000000000000000000000000000000000000000000000000000000 DUP2 MSTORE PUSH1 0x4 ADD PUSH2 0x193E SWAP1 PUSH2 0x2796 JUMP JUMPDEST PUSH1 0x40 MLOAD DUP1 SWAP2 SUB SWAP1 REVERT JUMPDEST PUSH0 CALLER SWAP1 POP PUSH0 PUSH1 0x1 DUP4 SUB PUSH2 0x1A83 JUMPI PUSH1 0x5 PUSH0 SWAP1 SLOAD SWAP1 PUSH2 0x100 EXP SWAP1 DIV PUSH1 0xFF AND DUP1 ISZERO PUSH2 0x19AB JUMPI POP PUSH0 PUSH1 0x1 PUSH0 DUP5 PUSH20 0xFFFFFFFFFFFFFFFFFFFFFFFFFFFFFFFFFFFFFFFF AND PUSH20 0xFFFFFFFFFFFFFFFFFFFFFFFFFFFFFFFFFFFFFFFF AND DUP2 MSTORE PUSH1 0x20 ADD SWAP1 DUP2 MSTORE PUSH1 0x20 ADD PUSH0 KECCAK256 SLOAD EQ JUMPDEST PUSH2 0x19EA JUMPI PUSH1 0x40 MLOAD PUSH32 0x8C379A000000000000000000000000000000000000000000000000000000000 DUP2 MSTORE PUSH1 0x4 ADD PUSH2 0x19E1 SWAP1 PUSH2 0x27FE JUMP JUMPDEST PUSH1 0x40 MLOAD DUP1 SWAP2 SUB SWAP1 REVERT JUMPDEST PUSH1 0x3 SLOAD DUP5 PUSH2 0x19F8 SWAP2 SWAP1 PUSH2 0x2619 JUMP JUMPDEST SWAP1 POP DUP4 PUSH1 0x1 PUSH0 DUP5 PUSH20 0xFFFFFFFFFFFFFFFFFFFFFFFFFFFFFFFFFFFFFFFF AND PUSH20 0xFFFFFFFFFFFFFFFFFFFFFFFFFFFFFFFFFFFFFFFF AND DUP2 MSTORE PUSH1 0x20 ADD SWAP1 DUP2 MSTORE PUSH1 0x20 ADD PUSH0 KECCAK256 DUP2 SWAP1 SSTORE POP TIMESTAMP PUSH1 0x2 PUSH0 DUP5 PUSH20 0xFFFFFFFFFFFFFFFFFFFFFFFFFFFFFFFFFFFFFFFF AND PUSH20 0xFFFFFFFFFFFFFFFFFFFFFFFFFFFFFFFFFFFFFFFF AND DUP2 MSTORE PUSH1 0x20 ADD SWAP1 DUP2 MSTORE PUSH1 0x20 ADD PUSH0 KECCAK256 DUP2 SWAP1 SSTORE POP PUSH2 0x1E27 JUMP JUMPDEST PUSH1 0x2 DUP4 SUB PUSH2 0x1BBA JUMPI PUSH1 0xA PUSH0 SWAP1 SLOAD SWAP1 PUSH2 0x100 EXP SWAP1 DIV PUSH1 0xFF AND DUP1 ISZERO PUSH2 0x1AE2 JUMPI POP PUSH0 PUSH1 0x6 PUSH0 DUP5 PUSH20 0xFFFFFFFFFFFFFFFFFFFFFFFFFFFFFFFFFFFFFFFF AND PUSH20 0xFFFFFFFFFFFFFFFFFFFFFFFFFFFFFFFFFFFFFFFF AND DUP2 MSTORE PUSH1 0x20 ADD SWAP1 DUP2 MSTORE PUSH1 0x20 ADD PUSH0 KECCAK256 SLOAD EQ JUMPDEST PUSH2 0x1B21 JUMPI PUSH1 0x40 MLOAD PUSH32 0x8C379A000000000000000000000000000000000000000000000000000000000 DUP2 MSTORE PUSH1 0x4 ADD PUSH2 0x1B18 SWAP1 PUSH2 0x2866 JUMP JUMPDEST PUSH1 0x40 MLOAD DUP1 SWAP2 SUB SWAP1 REVERT JUMPDEST PUSH1 0x8 SLOAD DUP5 PUSH2 0x1B2F SWAP2 SWAP1 PUSH2 0x2619 JUMP JUMPDEST SWAP1 POP DUP4 PUSH1 0x6 PUSH0 DUP5 PUSH20 0xFFFFFFFFFFFFFFFFFFFFFFFFFFFFFFFFFFFFFFFF AND PUSH20 0xFFFFFFFFFFFFFFFFFFFFFFFFFFFFFFFFFFFFFFFF AND DUP2 MSTORE PUSH1 0x20 ADD SWAP1 DUP2 MSTORE PUSH1 0x20 ADD PUSH0 KECCAK256 DUP2 SWAP1 SSTORE POP TIMESTAMP PUSH1 0x7 PUSH0 DUP5 PUSH20 0xFFFFFFFFFFFFFFFFFFFFFFFFFFFFFFFFFFFFFFFF AND PUSH20 0xFFFFFFFFFFFFFFFFFFFFFFFFFFFFFFFFFFFFFFFF AND DUP2 MSTORE PUSH1 0x20 ADD SWAP1 DUP2 MSTORE PUSH1 0x20 ADD PUSH0 KECCAK256 DUP2 SWAP1 SSTORE POP PUSH2 0x1E26 JUMP JUMPDEST PUSH1 0x3 DUP4 SUB PUSH2 0x1CF1 JUMPI PUSH1 0xF PUSH0 SWAP1 SLOAD SWAP1 PUSH2 0x100 EXP SWAP1 DIV PUSH1 0xFF AND DUP1 ISZERO PUSH2 0x1C19 JUMPI POP PUSH0 PUSH1 0xB PUSH0 DUP5 PUSH20 0xFFFFFFFFFFFFFFFFFFFFFFFFFFFFFFFFFFFFFFFF AND PUSH20 0xFFFFFFFFFFFFFFFFFFFFFFFFFFFFFFFFFFFFFFFF AND DUP2 MSTORE PUSH1 0x20 ADD SWAP1 DUP2 MSTORE PUSH1 0x20 ADD PUSH0 KECCAK256 SLOAD EQ JUMPDEST PUSH2 0x1C58 JUMPI PUSH1 0x40 MLOAD PUSH32 0x8C379A000000000000000000000000000000000000000000000000000000000 DUP2 MSTORE PUSH1 0x4 ADD PUSH2 0x1C4F SWAP1 PUSH2 0x28CE JUMP JUMPDEST PUSH1 0x40 MLOAD DUP1 SWAP2 SUB SWAP1 REVERT JUMPDEST PUSH1 0xD SLOAD DUP5 PUSH2 0x1C66 SWAP2 SWAP1 PUSH2 0x2619 JUMP JUMPDEST SWAP1 POP DUP4 PUSH1 0xB PUSH0 DUP5 PUSH20 0xFFFFFFFFFFFFFFFFFFFFFFFFFFFFFFFFFFFFFFFF AND PUSH20 0xFFFFFFFFFFFFFFFFFFFFFFFFFFFFFFFFFFFFFFFF AND DUP2 MSTORE PUSH1 0x20 ADD SWAP1 DUP2 MSTORE PUSH1 0x20 ADD PUSH0 KECCAK256 DUP2 SWAP1 SSTORE POP TIMESTAMP PUSH1 0xC PUSH0 DUP5 PUSH20 0xFFFFFFFFFFFFFFFFFFFFFFFFFFFFFFFFFFFFFFFF AND PUSH20 0xFFFFFFFFFFFFFFFFFFFFFFFFFFFFFFFFFFFFFFFF AND DUP2 MSTORE PUSH1 0x20 ADD SWAP1 DUP2 MSTORE PUSH1 0x20 ADD PUSH0 KECCAK256 DUP2 SWAP1 SSTORE POP PUSH2 0x1E25 JUMP JUMPDEST PUSH1 0x4 DUP4 SUB PUSH2 0x1E24 JUMPI PUSH1 0x14 PUSH0 SWAP1 SLOAD SWAP1 PUSH2 0x100 EXP SWAP1 DIV PUSH1 0xFF AND DUP1 ISZERO PUSH2 0x1D50 JUMPI POP PUSH0 PUSH1 0x10 PUSH0 DUP5 PUSH20 0xFFFFFFFFFFFFFFFFFFFFFFFFFFFFFFFFFFFFFFFF AND PUSH20 0xFFFFFFFFFFFFFFFFFFFFFFFFFFFFFFFFFFFFFFFF AND DUP2 MSTORE PUSH1 0x20 ADD SWAP1 DUP2 MSTORE PUSH1 0x20 ADD PUSH0 KECCAK256 SLOAD EQ JUMPDEST PUSH2 0x1D8F JUMPI PUSH1 0x40 MLOAD PUSH32 0x8C379A000000000000000000000000000000000000000000000000000000000 DUP2 MSTORE PUSH1 0x4 ADD PUSH2 0x1D86 SWAP1 PUSH2 0x2936 JUMP JUMPDEST PUSH1 0x40 MLOAD DUP1 SWAP2 SUB SWAP1 REVERT JUMPDEST PUSH1 0x12 SLOAD DUP5 PUSH2 0x1D9D SWAP2 SWAP1 PUSH2 0x2619 JUMP JUMPDEST SWAP1 POP DUP4 PUSH1 0x10 PUSH0 DUP5 PUSH20 0xFFFFFFFFFFFFFFFFFFFFFFFFFFFFFFFFFFFFFFFF AND PUSH20 0xFFFFFFFFFFFFFFFFFFFFFFFFFFFFFFFFFFFFFFFF AND DUP2 MSTORE PUSH1 0x20 ADD SWAP1 DUP2 MSTORE PUSH1 0x20 ADD PUSH0 KECCAK256 DUP2 SWAP1 SSTORE POP TIMESTAMP PUSH1 0x11 PUSH0 DUP5 PUSH20 0xFFFFFFFFFFFFFFFFFFFFFFFFFFFFFFFFFFFFFFFF AND PUSH20 0xFFFFFFFFFFFFFFFFFFFFFFFFFFFFFFFFFFFFFFFF AND DUP2 MSTORE PUSH1 0x20 ADD SWAP1 DUP2 MSTORE PUSH1 0x20 ADD PUSH0 KECCAK256 DUP2 SWAP1 SSTORE POP JUMPDEST JUMPDEST JUMPDEST JUMPDEST DUP1 PUSH1 0x17 PUSH0 DUP3 DUP3 SLOAD PUSH2 0x1E38 SWAP2 SWAP1 PUSH2 0x2551 JUMP JUMPDEST SWAP3 POP POP DUP2 SWAP1 SSTORE POP DUP4 PUSH1 0x19 PUSH0 DUP3 DUP3 SLOAD PUSH2 0x1E50 SWAP2 SWAP1 PUSH2 0x2551 JUMP JUMPDEST SWAP3 POP POP DUP2 SWAP1 SSTORE POP PUSH2 0x1EA4 DUP3 ADDRESS DUP7 PUSH32 0x0 PUSH20 0xFFFFFFFFFFFFFFFFFFFFFFFFFFFFFFFFFFFFFFFF AND PUSH2 0x2071 SWAP1 SWAP4 SWAP3 SWAP2 SWAP1 PUSH4 0xFFFFFFFF AND JUMP JUMPDEST POP POP POP POP JUMP JUMPDEST PUSH2 0x1EB2 PUSH2 0x20F3 JUMP JUMPDEST PUSH20 0xFFFFFFFFFFFFFFFFFFFFFFFFFFFFFFFFFFFFFFFF AND PUSH2 0x1ED0 PUSH2 0x152F JUMP JUMPDEST PUSH20 0xFFFFFFFFFFFFFFFFFFFFFFFFFFFFFFFFFFFFFFFF AND EQ PUSH2 0x1F2F JUMPI PUSH2 0x1EF3 PUSH2 0x20F3 JUMP JUMPDEST PUSH1 0x40 MLOAD PUSH32 0x118CDAA700000000000000000000000000000000000000000000000000000000 DUP2 MSTORE PUSH1 0x4 ADD PUSH2 0x1F26 SWAP2 SWAP1 PUSH2 0x23ED JUMP JUMPDEST PUSH1 0x40 MLOAD DUP1 SWAP2 SUB SWAP1 REVERT JUMPDEST JUMP JUMPDEST PUSH2 0x1FAB DUP4 DUP5 PUSH20 0xFFFFFFFFFFFFFFFFFFFFFFFFFFFFFFFFFFFFFFFF AND PUSH4 0xA9059CBB DUP6 DUP6 PUSH1 0x40 MLOAD PUSH1 0x24 ADD PUSH2 0x1F64 SWAP3 SWAP2 SWAP1 PUSH2 0x2954 JUMP JUMPDEST PUSH1 0x40 MLOAD PUSH1 0x20 DUP2 DUP4 SUB SUB DUP2 MSTORE SWAP1 PUSH1 0x40 MSTORE SWAP2 POP PUSH1 0xE0 SHL PUSH1 0x20 DUP3 ADD DUP1 MLOAD PUSH28 0xFFFFFFFFFFFFFFFFFFFFFFFFFFFFFFFFFFFFFFFFFFFFFFFFFFFFFFFF DUP4 DUP2 DUP4 AND OR DUP4 MSTORE POP POP POP POP PUSH2 0x20FA JUMP JUMPDEST POP POP POP JUMP JUMPDEST PUSH0 PUSH0 PUSH0 SWAP1 SLOAD SWAP1 PUSH2 0x100 EXP SWAP1 DIV PUSH20 0xFFFFFFFFFFFFFFFFFFFFFFFFFFFFFFFFFFFFFFFF AND SWAP1 POP DUP2 PUSH0 PUSH0 PUSH2 0x100 EXP DUP2 SLOAD DUP2 PUSH20 0xFFFFFFFFFFFFFFFFFFFFFFFFFFFFFFFFFFFFFFFF MUL NOT AND SWAP1 DUP4 PUSH20 0xFFFFFFFFFFFFFFFFFFFFFFFFFFFFFFFFFFFFFFFF AND MUL OR SWAP1 SSTORE POP DUP2 PUSH20 0xFFFFFFFFFFFFFFFFFFFFFFFFFFFFFFFFFFFFFFFF AND DUP2 PUSH20 0xFFFFFFFFFFFFFFFFFFFFFFFFFFFFFFFFFFFFFFFF AND PUSH32 0x8BE0079C531659141344CD1FD0A4F28419497F9722A3DAAFE3B4186F6B6457E0 PUSH1 0x40 MLOAD PUSH1 0x40 MLOAD DUP1 SWAP2 SUB SWAP1 LOG3 POP POP JUMP JUMPDEST PUSH2 0x20ED DUP5 DUP6 PUSH20 0xFFFFFFFFFFFFFFFFFFFFFFFFFFFFFFFFFFFFFFFF AND PUSH4 0x23B872DD DUP7 DUP7 DUP7 PUSH1 0x40 MLOAD PUSH1 0x24 ADD PUSH2 0x20A6 SWAP4 SWAP3 SWAP2 SWAP1 PUSH2 0x297B JUMP JUMPDEST PUSH1 0x40 MLOAD PUSH1 0x20 DUP2 DUP4 SUB SUB DUP2 MSTORE SWAP1 PUSH1 0x40 MSTORE SWAP2 POP PUSH1 0xE0 SHL PUSH1 0x20 DUP3 ADD DUP1 MLOAD PUSH28 0xFFFFFFFFFFFFFFFFFFFFFFFFFFFFFFFFFFFFFFFFFFFFFFFFFFFFFFFF DUP4 DUP2 DUP4 AND OR DUP4 MSTORE POP POP POP POP PUSH2 0x20FA JUMP JUMPDEST POP POP POP POP JUMP JUMPDEST PUSH0 CALLER SWAP1 POP SWAP1 JUMP JUMPDEST PUSH0 PUSH0 PUSH1 0x20 PUSH0 DUP5 MLOAD PUSH1 0x20 DUP7 ADD PUSH0 DUP9 GAS CALL DUP1 PUSH2 0x2119 JUMPI PUSH1 0x40 MLOAD RETURNDATASIZE PUSH0 DUP3 RETURNDATACOPY RETURNDATASIZE DUP2 REVERT JUMPDEST RETURNDATASIZE SWAP3 POP PUSH0 MLOAD SWAP2 POP POP PUSH0 DUP3 EQ PUSH2 0x2132 JUMPI PUSH1 0x1 DUP2 EQ ISZERO PUSH2 0x214D JUMP JUMPDEST PUSH0 DUP5 PUSH20 0xFFFFFFFFFFFFFFFFFFFFFFFFFFFFFFFFFFFFFFFF AND EXTCODESIZE EQ JUMPDEST ISZERO PUSH2 0x218F JUMPI DUP4 PUSH1 0x40 MLOAD PUSH32 0x5274AFE700000000000000000000000000000000000000000000000000000000 DUP2 MSTORE PUSH1 0x4 ADD PUSH2 0x2186 SWAP2 SWAP1 PUSH2 0x23ED JUMP JUMPDEST PUSH1 0x40 MLOAD DUP1 SWAP2 SUB SWAP1 REVERT JUMPDEST POP POP POP POP JUMP JUMPDEST PUSH0 PUSH0 REVERT JUMPDEST PUSH0 PUSH20 0xFFFFFFFFFFFFFFFFFFFFFFFFFFFFFFFFFFFFFFFF DUP3 AND SWAP1 POP SWAP2 SWAP1 POP JUMP JUMPDEST PUSH0 PUSH2 0x21C2 DUP3 PUSH2 0x2199 JUMP JUMPDEST SWAP1 POP SWAP2 SWAP1 POP JUMP JUMPDEST PUSH2 0x21D2 DUP2 PUSH2 0x21B8 JUMP JUMPDEST DUP2 EQ PUSH2 0x21DC JUMPI PUSH0 PUSH0 REVERT JUMPDEST POP JUMP JUMPDEST PUSH0 DUP2 CALLDATALOAD SWAP1 POP PUSH2 0x21ED DUP2 PUSH2 0x21C9 JUMP JUMPDEST SWAP3 SWAP2 POP POP JUMP JUMPDEST PUSH0 PUSH1 0x20 DUP3 DUP5 SUB SLT ISZERO PUSH2 0x2208 JUMPI PUSH2 0x2207 PUSH2 0x2195 JUMP JUMPDEST JUMPDEST PUSH0 PUSH2 0x2215 DUP5 DUP3 DUP6 ADD PUSH2 0x21DF JUMP JUMPDEST SWAP2 POP POP SWAP3 SWAP2 POP POP JUMP JUMPDEST PUSH0 DUP2 SWAP1 POP SWAP2 SWAP1 POP JUMP JUMPDEST PUSH2 0x2230 DUP2 PUSH2 0x221E JUMP JUMPDEST DUP3 MSTORE POP POP JUMP JUMPDEST PUSH0 PUSH1 0x20 DUP3 ADD SWAP1 POP PUSH2 0x2249 PUSH0 DUP4 ADD DUP5 PUSH2 0x2227 JUMP JUMPDEST SWAP3 SWAP2 POP POP JUMP JUMPDEST PUSH0 DUP2 ISZERO ISZERO SWAP1 POP SWAP2 SWAP1 POP JUMP JUMPDEST PUSH2 0x2263 DUP2 PUSH2 0x224F JUMP JUMPDEST DUP2 EQ PUSH2 0x226D JUMPI PUSH0 PUSH0 REVERT JUMPDEST POP JUMP JUMPDEST PUSH0 DUP2 CALLDATALOAD SWAP1 POP PUSH2 0x227E DUP2 PUSH2 0x225A JUMP JUMPDEST SWAP3 SWAP2 POP POP JUMP JUMPDEST PUSH0 PUSH1 0x20 DUP3 DUP5 SUB SLT ISZERO PUSH2 0x2299 JUMPI PUSH2 0x2298 PUSH2 0x2195 JUMP JUMPDEST JUMPDEST PUSH0 PUSH2 0x22A6 DUP5 DUP3 DUP6 ADD PUSH2 0x2270 JUMP JUMPDEST SWAP2 POP POP SWAP3 SWAP2 POP POP JUMP JUMPDEST PUSH2 0x22B8 DUP2 PUSH2 0x221E JUMP JUMPDEST DUP2 EQ PUSH2 0x22C2 JUMPI PUSH0 PUSH0 REVERT JUMPDEST POP JUMP JUMPDEST PUSH0 DUP2 CALLDATALOAD SWAP1 POP PUSH2 0x22D3 DUP2 PUSH2 0x22AF JUMP JUMPDEST SWAP3 SWAP2 POP POP JUMP JUMPDEST PUSH0 PUSH1 0x20 DUP3 DUP5 SUB SLT ISZERO PUSH2 0x22EE JUMPI PUSH2 0x22ED PUSH2 0x2195 JUMP JUMPDEST JUMPDEST PUSH0 PUSH2 0x22FB DUP5 DUP3 DUP6 ADD PUSH2 0x22C5 JUMP JUMPDEST SWAP2 POP POP SWAP3 SWAP2 POP POP JUMP JUMPDEST PUSH0 DUP2 SWAP1 POP SWAP2 SWAP1 POP JUMP JUMPDEST PUSH0 PUSH2 0x2327 PUSH2 0x2322 PUSH2 0x231D DUP5 PUSH2 0x2199 JUMP JUMPDEST PUSH2 0x2304 JUMP JUMPDEST PUSH2 0x2199 JUMP JUMPDEST SWAP1 POP SWAP2 SWAP1 POP JUMP JUMPDEST PUSH0 PUSH2 0x2338 DUP3 PUSH2 0x230D JUMP JUMPDEST SWAP1 POP SWAP2 SWAP1 POP JUMP JUMPDEST PUSH0 PUSH2 0x2349 DUP3 PUSH2 0x232E JUMP JUMPDEST SWAP1 POP SWAP2 SWAP1 POP JUMP JUMPDEST PUSH2 0x2359 DUP2 PUSH2 0x233F JUMP JUMPDEST DUP3 MSTORE POP POP JUMP JUMPDEST PUSH0 PUSH1 0x20 DUP3 ADD SWAP1 POP PUSH2 0x2372 PUSH0 DUP4 ADD DUP5 PUSH2 0x2350 JUMP JUMPDEST SWAP3 SWAP2 POP POP JUMP JUMPDEST PUSH0 PUSH0 PUSH1 0x40 DUP4 DUP6 SUB SLT ISZERO PUSH2 0x238E JUMPI PUSH2 0x238D PUSH2 0x2195 JUMP JUMPDEST JUMPDEST PUSH0 PUSH2 0x239B DUP6 DUP3 DUP7 ADD PUSH2 0x21DF JUMP JUMPDEST SWAP3 POP POP PUSH1 0x20 PUSH2 0x23AC DUP6 DUP3 DUP7 ADD PUSH2 0x22C5 JUMP JUMPDEST SWAP2 POP POP SWAP3 POP SWAP3 SWAP1 POP JUMP JUMPDEST PUSH2 0x23BF DUP2 PUSH2 0x224F JUMP JUMPDEST DUP3 MSTORE POP POP JUMP JUMPDEST PUSH0 PUSH1 0x20 DUP3 ADD SWAP1 POP PUSH2 0x23D8 PUSH0 DUP4 ADD DUP5 PUSH2 0x23B6 JUMP JUMPDEST SWAP3 SWAP2 POP POP JUMP JUMPDEST PUSH2 0x23E7 DUP2 PUSH2 0x21B8 JUMP JUMPDEST DUP3 MSTORE POP POP JUMP JUMPDEST PUSH0 PUSH1 0x20 DUP3 ADD SWAP1 POP PUSH2 0x2400 PUSH0 DUP4 ADD DUP5 PUSH2 0x23DE JUMP JUMPDEST SWAP3 SWAP2 POP POP JUMP JUMPDEST PUSH0 PUSH0 PUSH1 0x40 DUP4 DUP6 SUB SLT ISZERO PUSH2 0x241C JUMPI PUSH2 0x241B PUSH2 0x2195 JUMP JUMPDEST JUMPDEST PUSH0 PUSH2 0x2429 DUP6 DUP3 DUP7 ADD PUSH2 0x22C5 JUMP JUMPDEST SWAP3 POP POP PUSH1 0x20 PUSH2 0x243A DUP6 DUP3 DUP7 ADD PUSH2 0x22C5 JUMP JUMPDEST SWAP2 POP POP SWAP3 POP SWAP3 SWAP1 POP JUMP JUMPDEST PUSH0 DUP3 DUP3 MSTORE PUSH1 0x20 DUP3 ADD SWAP1 POP SWAP3 SWAP2 POP POP JUMP JUMPDEST PUSH32 0x496E76616C696420626F78000000000000000000000000000000000000000000 PUSH0 DUP3 ADD MSTORE POP JUMP JUMPDEST PUSH0 PUSH2 0x2488 PUSH1 0xB DUP4 PUSH2 0x2444 JUMP JUMPDEST SWAP2 POP PUSH2 0x2493 DUP3 PUSH2 0x2454 JUMP JUMPDEST PUSH1 0x20 DUP3 ADD SWAP1 POP SWAP2 SWAP1 POP JUMP JUMPDEST PUSH0 PUSH1 0x20 DUP3 ADD SWAP1 POP DUP2 DUP2 SUB PUSH0 DUP4 ADD MSTORE PUSH2 0x24B5 DUP2 PUSH2 0x247C JUMP JUMPDEST SWAP1 POP SWAP2 SWAP1 POP JUMP JUMPDEST PUSH32 0x4E6F207374616B65000000000000000000000000000000000000000000000000 PUSH0 DUP3 ADD MSTORE POP JUMP JUMPDEST PUSH0 PUSH2 0x24F0 PUSH1 0x8 DUP4 PUSH2 0x2444 JUMP JUMPDEST SWAP2 POP PUSH2 0x24FB DUP3 PUSH2 0x24BC JUMP JUMPDEST PUSH1 0x20 DUP3 ADD SWAP1 POP SWAP2 SWAP1 POP JUMP JUMPDEST PUSH0 PUSH1 0x20 DUP3 ADD SWAP1 POP DUP2 DUP2 SUB PUSH0 DUP4 ADD MSTORE PUSH2 0x251D DUP2 PUSH2 0x24E4 JUMP JUMPDEST SWAP1 POP SWAP2 SWAP1 POP JUMP JUMPDEST PUSH32 0x4E487B7100000000000000000000000000000000000000000000000000000000 PUSH0 MSTORE PUSH1 0x11 PUSH1 0x4 MSTORE PUSH1 0x24 PUSH0 REVERT JUMPDEST PUSH0 PUSH2 0x255B DUP3 PUSH2 0x221E JUMP JUMPDEST SWAP2 POP PUSH2 0x2566 DUP4 PUSH2 0x221E JUMP JUMPDEST SWAP3 POP DUP3 DUP3 ADD SWAP1 POP DUP1 DUP3 GT ISZERO PUSH2 0x257E JUMPI PUSH2 0x257D PUSH2 0x2524 JUMP JUMPDEST JUMPDEST SWAP3 SWAP2 POP POP JUMP JUMPDEST PUSH32 0x4E6F7420756E6C6F636B65640000000000000000000000000000000000000000 PUSH0 DUP3 ADD MSTORE POP JUMP JUMPDEST PUSH0 PUSH2 0x25B8 PUSH1 0xC DUP4 PUSH2 0x2444 JUMP JUMPDEST SWAP2 POP PUSH2 0x25C3 DUP3 PUSH2 0x2584 JUMP JUMPDEST PUSH1 0x20 DUP3 ADD SWAP1 POP SWAP2 SWAP1 POP JUMP JUMPDEST PUSH0 PUSH1 0x20 DUP3 ADD SWAP1 POP DUP2 DUP2 SUB PUSH0 DUP4 ADD MSTORE PUSH2 0x25E5 DUP2 PUSH2 0x25AC JUMP JUMPDEST SWAP1 POP SWAP2 SWAP1 POP JUMP JUMPDEST PUSH32 0x4E487B7100000000000000000000000000000000000000000000000000000000 PUSH0 MSTORE PUSH1 0x12 PUSH1 0x4 MSTORE PUSH1 0x24 PUSH0 REVERT JUMPDEST PUSH0 PUSH2 0x2623 DUP3 PUSH2 0x221E JUMP JUMPDEST SWAP2 POP PUSH2 0x262E DUP4 PUSH2 0x221E JUMP JUMPDEST SWAP3 POP DUP3 PUSH2 0x263E JUMPI PUSH2 0x263D PUSH2 0x25EC JUMP JUMPDEST JUMPDEST DUP3 DUP3 DIV SWAP1 POP SWAP3 SWAP2 POP POP JUMP JUMPDEST PUSH0 PUSH2 0x2653 DUP3 PUSH2 0x221E JUMP JUMPDEST SWAP2 POP PUSH2 0x265E DUP4 PUSH2 0x221E JUMP JUMPDEST SWAP3 POP DUP3 DUP3 SUB SWAP1 POP DUP2 DUP2 GT ISZERO PUSH2 0x2676 JUMPI PUSH2 0x2675 PUSH2 0x2524 JUMP JUMPDEST JUMPDEST SWAP3 SWAP2 POP POP JUMP JUMPDEST PUSH32 0x496E76616C696420616D6F756E74000000000000000000000000000000000000 PUSH0 DUP3 ADD MSTORE POP JUMP JUMPDEST PUSH0 PUSH2 0x26B0 PUSH1 0xE DUP4 PUSH2 0x2444 JUMP JUMPDEST SWAP2 POP PUSH2 0x26BB DUP3 PUSH2 0x267C JUMP JUMPDEST PUSH1 0x20 DUP3 ADD SWAP1 POP SWAP2 SWAP1 POP JUMP JUMPDEST PUSH0 PUSH1 0x20 DUP3 ADD SWAP1 POP DUP2 DUP2 SUB PUSH0 DUP4 ADD MSTORE PUSH2 0x26DD DUP2 PUSH2 0x26A4 JUMP JUMPDEST SWAP1 POP SWAP2 SWAP1 POP JUMP JUMPDEST PUSH32 0x556E6C6F636B206D6F6465206163746976650000000000000000000000000000 PUSH0 DUP3 ADD MSTORE POP JUMP JUMPDEST PUSH0 PUSH2 0x2718 PUSH1 0x12 DUP4 PUSH2 0x2444 JUMP JUMPDEST SWAP2 POP PUSH2 0x2723 DUP3 PUSH2 0x26E4 JUMP JUMPDEST PUSH1 0x20 DUP3 ADD SWAP1 POP SWAP2 SWAP1 POP JUMP JUMPDEST PUSH0 PUSH1 0x20 DUP3 ADD SWAP1 POP DUP2 DUP2 SUB PUSH0 DUP4 ADD MSTORE PUSH2 0x2745 DUP2 PUSH2 0x270C JUMP JUMPDEST SWAP1 POP SWAP2 SWAP1 POP JUMP JUMPDEST PUSH32 0x5374616B696E6720656E64656400000000000000000000000000000000000000 PUSH0 DUP3 ADD MSTORE POP JUMP JUMPDEST PUSH0 PUSH2 0x2780 PUSH1 0xD DUP4 PUSH2 0x2444 JUMP JUMPDEST SWAP2 POP PUSH2 0x278B DUP3 PUSH2 0x274C JUMP JUMPDEST PUSH1 0x20 DUP3 ADD SWAP1 POP SWAP2 SWAP1 POP JUMP JUMPDEST PUSH0 PUSH1 0x20 DUP3 ADD SWAP1 POP DUP2 DUP2 SUB PUSH0 DUP4 ADD MSTORE PUSH2 0x27AD DUP2 PUSH2 0x2774 JUMP JUMPDEST SWAP1 POP SWAP2 SWAP1 POP JUMP JUMPDEST PUSH32 0x426F7820312064697361626C6564206F7220616C7265616479207374616B6564 PUSH0 DUP3 ADD MSTORE POP JUMP JUMPDEST PUSH0 PUSH2 0x27E8 PUSH1 0x20 DUP4 PUSH2 0x2444 JUMP JUMPDEST SWAP2 POP PUSH2 0x27F3 DUP3 PUSH2 0x27B4 JUMP JUMPDEST PUSH1 0x20 DUP3 ADD SWAP1 POP SWAP2 SWAP1 POP JUMP JUMPDEST PUSH0 PUSH1 0x20 DUP3 ADD SWAP1 POP DUP2 DUP2 SUB PUSH0 DUP4 ADD MSTORE PUSH2 0x2815 DUP2 PUSH2 0x27DC JUMP JUMPDEST SWAP1 POP SWAP2 SWAP1 POP JUMP JUMPDEST PUSH32 0x426F7820322064697361626C6564206F7220616C7265616479207374616B6564 PUSH0 DUP3 ADD MSTORE POP JUMP JUMPDEST PUSH0 PUSH2 0x2850 PUSH1 0x20 DUP4 PUSH2 0x2444 JUMP JUMPDEST SWAP2 POP PUSH2 0x285B DUP3 PUSH2 0x281C JUMP JUMPDEST PUSH1 0x20 DUP3 ADD SWAP1 POP SWAP2 SWAP1 POP JUMP JUMPDEST PUSH0 PUSH1 0x20 DUP3 ADD SWAP1 POP DUP2 DUP2 SUB PUSH0 DUP4 ADD MSTORE PUSH2 0x287D DUP2 PUSH2 0x2844 JUMP JUMPDEST SWAP1 POP SWAP2 SWAP1 POP JUMP JUMPDEST PUSH32 0x426F7820332064697361626C6564206F7220616C7265616479207374616B6564 PUSH0 DUP3 ADD MSTORE POP JUMP JUMPDEST PUSH0 PUSH2 0x28B8 PUSH1 0x20 DUP4 PUSH2 0x2444 JUMP JUMPDEST SWAP2 POP PUSH2 0x28C3 DUP3 PUSH2 0x2884 JUMP JUMPDEST PUSH1 0x20 DUP3 ADD SWAP1 POP SWAP2 SWAP1 POP JUMP JUMPDEST PUSH0 PUSH1 0x20 DUP3 ADD SWAP1 POP DUP2 DUP2 SUB PUSH0 DUP4 ADD MSTORE PUSH2 0x28E5 DUP2 PUSH2 0x28AC JUMP JUMPDEST SWAP1 POP SWAP2 SWAP1 POP JUMP JUMPDEST PUSH32 0x426F7820342064697361626C6564206F7220616C7265616479207374616B6564 PUSH0 DUP3 ADD MSTORE POP JUMP JUMPDEST PUSH0 PUSH2 0x2920 PUSH1 0x20 DUP4 PUSH2 0x2444 JUMP JUMPDEST SWAP2 POP PUSH2 0x292B DUP3 PUSH2 0x28EC JUMP JUMPDEST PUSH1 0x20 DUP3 ADD SWAP1 POP SWAP2 SWAP1 POP JUMP JUMPDEST PUSH0 PUSH1 0x20 DUP3 ADD SWAP1 POP DUP2 DUP2 SUB PUSH0 DUP4 ADD MSTORE PUSH2 0x294D DUP2 PUSH2 0x2914 JUMP JUMPDEST SWAP1 POP SWAP2 SWAP1 POP JUMP JUMPDEST PUSH0 PUSH1 0x40 DUP3 ADD SWAP1 POP PUSH2 0x2967 PUSH0 DUP4 ADD DUP6 PUSH2 0x23DE JUMP JUMPDEST PUSH2 0x2974 PUSH1 0x20 DUP4 ADD DUP5 PUSH2 0x2227 JUMP JUMPDEST SWAP4 SWAP3 POP POP POP JUMP JUMPDEST PUSH0 PUSH1 0x60 DUP3 ADD SWAP1 POP PUSH2 0x298E PUSH0 DUP4 ADD DUP7 PUSH2 0x23DE JUMP JUMPDEST PUSH2 0x299B PUSH1 0x20 DUP4 ADD DUP6 PUSH2 0x23DE JUMP JUMPDEST PUSH2 0x29A8 PUSH1 0x40 DUP4 ADD DUP5 PUSH2 0x2227 JUMP JUMPDEST SWAP5 SWAP4 POP POP POP POP JUMP INVALID LOG2 PUSH5 0x6970667358 0x22 SLT KECCAK256 SDIV 0xD9 EXTCODESIZE PUSH5 0x8AD3B0D7CA 0xD9 0xC0 SDIV DUP8 0xA6 CALLDATALOAD 0xB4 PUSH8 0x55B283A43B3E1323 SWAP8 DUP2 0xEF PUSH27 0xD2F0FD64736F6C634300081E003300000000000000000000000000 "
				},
				"gasEstimates": {
					"creation": {
						"codeDepositCost": "2145200",
						"executionCost": "infinite",
						"totalCost": "infinite"
					},
					"external": {
						"addStake(uint256,uint256)": "infinite",
						"balanceOf(address)": "infinite",
						"box1Balance(address)": "2958",
						"box1DepositDate(address)": "2892",
						"box1Enabled()": "2578",
						"box1Rate()": "2469",
						"box1Time()": "2471",
						"box2Balance(address)": "2849",
						"box2DepositDate(address)": "2848",
						"box2Enabled()": "2577",
						"box2Rate()": "2558",
						"box2Time()": "2514",
						"box3Balance(address)": "2870",
						"box3DepositDate(address)": "2892",
						"box3Enabled()": "2511",
						"box3Rate()": "2492",
						"box3Time()": "2494",
						"box4Balance(address)": "2937",
						"box4DepositDate(address)": "2936",
						"box4Enabled()": "2578",
						"box4Rate()": "2558",
						"box4Time()": "2580",
						"changeBox1Status(bool)": "infinite",
						"changeBox2Status(bool)": "infinite",
						"changeBox3Status(bool)": "infinite",
						"changeBox4Status(bool)": "infinite",
						"changeFullUnlock(bool)": "infinite",
						"changeMaxRewardDue(uint256)": "infinite",
						"changeMaxStake(uint256)": "infinite",
						"changeMinStake(uint256)": "infinite",
						"fullUnlock()": "2598",
						"landFiToken()": "infinite",
						"maxRewardDue()": "2492",
						"maxStake()": "2491",
						"minStake()": "2537",
						"owner()": "2648",
						"pullStake(uint256)": "infinite",
						"renounceOwnership()": "infinite",
						"rewardCount()": "2558",
						"rewardCountDue()": "2514",
						"stakeAmount(address,uint256)": "infinite",
						"stakeUnlockTime(address,uint256)": "infinite",
						"totalStaked()": "2493",
						"transferOwnership(address)": "infinite"
					}
				},
				"methodIdentifiers": {
					"addStake(uint256,uint256)": "fd2b5202",
					"balanceOf(address)": "70a08231",
					"box1Balance(address)": "4893afc1",
					"box1DepositDate(address)": "4f51d090",
					"box1Enabled()": "8a170ac1",
					"box1Rate()": "e7de2ceb",
					"box1Time()": "4b0c10d8",
					"box2Balance(address)": "058df0e8",
					"box2DepositDate(address)": "7b3e920c",
					"box2Enabled()": "73dec718",
					"box2Rate()": "d7d4918e",
					"box2Time()": "d47c56e5",
					"box3Balance(address)": "2e5f89ef",
					"box3DepositDate(address)": "89b0040a",
					"box3Enabled()": "d0bcc009",
					"box3Rate()": "b39dc996",
					"box3Time()": "1d95985b",
					"box4Balance(address)": "24ebd9d2",
					"box4DepositDate(address)": "38dc97fb",
					"box4Enabled()": "5cd5a159",
					"box4Rate()": "c3630edb",
					"box4Time()": "798cbe5e",
					"changeBox1Status(bool)": "6cbde5cf",
					"changeBox2Status(bool)": "5f75bcea",
					"changeBox3Status(bool)": "d5c41d69",
					"changeBox4Status(bool)": "1d95d52f",
					"changeFullUnlock(bool)": "f1cddd55",
					"changeMaxRewardDue(uint256)": "94387289",
					"changeMaxStake(uint256)": "cd5692ee",
					"changeMinStake(uint256)": "23dcdb89",
					"fullUnlock()": "f908dc13",
					"landFiToken()": "292a6b19",
					"maxRewardDue()": "d19b090e",
					"maxStake()": "ea1b28e0",
					"minStake()": "375b3c0a",
					"owner()": "8da5cb5b",
					"pullStake(uint256)": "35e63055",
					"renounceOwnership()": "715018a6",
					"rewardCount()": "79085425",
					"rewardCountDue()": "bba4fefd",
					"stakeAmount(address,uint256)": "4b5effc2",
					"stakeUnlockTime(address,uint256)": "bef7d12e",
					"totalStaked()": "817b1cd2",
					"transferOwnership(address)": "f2fde38b"
				}
			},
			"storageLayout": {
				"storage": [
					{
						"astId": 8,
						"contract": "contracts/LandFIStake2.sol:LandFiStaking",
						"label": "_owner",
						"offset": 0,
						"slot": "0",
						"type": "t_address"
					},
					{
						"astId": 1443,
						"contract": "contracts/LandFIStake2.sol:LandFiStaking",
						"label": "box1Balance",
						"offset": 0,
						"slot": "1",
						"type": "t_mapping(t_address,t_uint256)"
					},
					{
						"astId": 1447,
						"contract": "contracts/LandFIStake2.sol:LandFiStaking",
						"label": "box1DepositDate",
						"offset": 0,
						"slot": "2",
						"type": "t_mapping(t_address,t_uint256)"
					},
					{
						"astId": 1449,
						"contract": "contracts/LandFIStake2.sol:LandFiStaking",
						"label": "box1Rate",
						"offset": 0,
						"slot": "3",
						"type": "t_uint256"
					},
					{
						"astId": 1451,
						"contract": "contracts/LandFIStake2.sol:LandFiStaking",
						"label": "box1Time",
						"offset": 0,
						"slot": "4",
						"type": "t_uint256"
					},
					{
						"astId": 1453,
						"contract": "contracts/LandFIStake2.sol:LandFiStaking",
						"label": "box1Enabled",
						"offset": 0,
						"slot": "5",
						"type": "t_bool"
					},
					{
						"astId": 1457,
						"contract": "contracts/LandFIStake2.sol:LandFiStaking",
						"label": "box2Balance",
						"offset": 0,
						"slot": "6",
						"type": "t_mapping(t_address,t_uint256)"
					},
					{
						"astId": 1461,
						"contract": "contracts/LandFIStake2.sol:LandFiStaking",
						"label": "box2DepositDate",
						"offset": 0,
						"slot": "7",
						"type": "t_mapping(t_address,t_uint256)"
					},
					{
						"astId": 1463,
						"contract": "contracts/LandFIStake2.sol:LandFiStaking",
						"label": "box2Rate",
						"offset": 0,
						"slot": "8",
						"type": "t_uint256"
					},
					{
						"astId": 1465,
						"contract": "contracts/LandFIStake2.sol:LandFiStaking",
						"label": "box2Time",
						"offset": 0,
						"slot": "9",
						"type": "t_uint256"
					},
					{
						"astId": 1467,
						"contract": "contracts/LandFIStake2.sol:LandFiStaking",
						"label": "box2Enabled",
						"offset": 0,
						"slot": "10",
						"type": "t_bool"
					},
					{
						"astId": 1471,
						"contract": "contracts/LandFIStake2.sol:LandFiStaking",
						"label": "box3Balance",
						"offset": 0,
						"slot": "11",
						"type": "t_mapping(t_address,t_uint256)"
					},
					{
						"astId": 1475,
						"contract": "contracts/LandFIStake2.sol:LandFiStaking",
						"label": "box3DepositDate",
						"offset": 0,
						"slot": "12",
						"type": "t_mapping(t_address,t_uint256)"
					},
					{
						"astId": 1477,
						"contract": "contracts/LandFIStake2.sol:LandFiStaking",
						"label": "box3Rate",
						"offset": 0,
						"slot": "13",
						"type": "t_uint256"
					},
					{
						"astId": 1479,
						"contract": "contracts/LandFIStake2.sol:LandFiStaking",
						"label": "box3Time",
						"offset": 0,
						"slot": "14",
						"type": "t_uint256"
					},
					{
						"astId": 1481,
						"contract": "contracts/LandFIStake2.sol:LandFiStaking",
						"label": "box3Enabled",
						"offset": 0,
						"slot": "15",
						"type": "t_bool"
					},
					{
						"astId": 1485,
						"contract": "contracts/LandFIStake2.sol:LandFiStaking",
						"label": "box4Balance",
						"offset": 0,
						"slot": "16",
						"type": "t_mapping(t_address,t_uint256)"
					},
					{
						"astId": 1489,
						"contract": "contracts/LandFIStake2.sol:LandFiStaking",
						"label": "box4DepositDate",
						"offset": 0,
						"slot": "17",
						"type": "t_mapping(t_address,t_uint256)"
					},
					{
						"astId": 1491,
						"contract": "contracts/LandFIStake2.sol:LandFiStaking",
						"label": "box4Rate",
						"offset": 0,
						"slot": "18",
						"type": "t_uint256"
					},
					{
						"astId": 1493,
						"contract": "contracts/LandFIStake2.sol:LandFiStaking",
						"label": "box4Time",
						"offset": 0,
						"slot": "19",
						"type": "t_uint256"
					},
					{
						"astId": 1495,
						"contract": "contracts/LandFIStake2.sol:LandFiStaking",
						"label": "box4Enabled",
						"offset": 0,
						"slot": "20",
						"type": "t_bool"
					},
					{
						"astId": 1500,
						"contract": "contracts/LandFIStake2.sol:LandFiStaking",
						"label": "maxStake",
						"offset": 0,
						"slot": "21",
						"type": "t_uint256"
					},
					{
						"astId": 1502,
						"contract": "contracts/LandFIStake2.sol:LandFiStaking",
						"label": "minStake",
						"offset": 0,
						"slot": "22",
						"type": "t_uint256"
					},
					{
						"astId": 1504,
						"contract": "contracts/LandFIStake2.sol:LandFiStaking",
						"label": "rewardCountDue",
						"offset": 0,
						"slot": "23",
						"type": "t_uint256"
					},
					{
						"astId": 1506,
						"contract": "contracts/LandFIStake2.sol:LandFiStaking",
						"label": "rewardCount",
						"offset": 0,
						"slot": "24",
						"type": "t_uint256"
					},
					{
						"astId": 1508,
						"contract": "contracts/LandFIStake2.sol:LandFiStaking",
						"label": "totalStaked",
						"offset": 0,
						"slot": "25",
						"type": "t_uint256"
					},
					{
						"astId": 1510,
						"contract": "contracts/LandFIStake2.sol:LandFiStaking",
						"label": "maxRewardDue",
						"offset": 0,
						"slot": "26",
						"type": "t_uint256"
					},
					{
						"astId": 1512,
						"contract": "contracts/LandFIStake2.sol:LandFiStaking",
						"label": "fullUnlock",
						"offset": 0,
						"slot": "27",
						"type": "t_bool"
					}
				],
				"types": {
					"t_address": {
						"encoding": "inplace",
						"label": "address",
						"numberOfBytes": "20"
					},
					"t_bool": {
						"encoding": "inplace",
						"label": "bool",
						"numberOfBytes": "1"
					},
					"t_mapping(t_address,t_uint256)": {
						"encoding": "mapping",
						"key": "t_address",
						"label": "mapping(address => uint256)",
						"numberOfBytes": "32",
						"value": "t_uint256"
					},
					"t_uint256": {
						"encoding": "inplace",
						"label": "uint256",
						"numberOfBytes": "32"
					}
				}
			},
			"userdoc": {
				"kind": "user",
				"methods": {},
				"version": 1
			}
		}
	}
}