{
	"contracts/LandFiStake3.sol": {
		"LandFiStaking": {
			"abi": [
				{
					"inputs": [
						{
							"internalType": "address",
							"name": "_landFiToken",
							"type": "address"
						},
						{
							"internalType": "address",
							"name": "_rewardToken",
							"type": "address"
						},
						{
							"internalType": "address",
							"name": "_teamWallet",
							"type": "address"
						},
						{
							"internalType": "uint256",
							"name": "_buyDuration",
							"type": "uint256"
						},
						{
							"internalType": "uint256",
							"name": "_stakeDuration",
							"type": "uint256"
						},
						{
							"internalType": "uint256",
							"name": "_minStake",
							"type": "uint256"
						},
						{
							"internalType": "uint256",
							"name": "_maxStake",
							"type": "uint256"
						},
						{
							"internalType": "uint256",
							"name": "_maxTotalStake",
							"type": "uint256"
						},
						{
							"internalType": "uint256",
							"name": "_rewardTotal",
							"type": "uint256"
						}
					],
					"stateMutability": "nonpayable",
					"type": "constructor"
				},
				{
					"inputs": [
						{
							"internalType": "address",
							"name": "owner",
							"type": "address"
						}
					],
					"name": "OwnableInvalidOwner",
					"type": "error"
				},
				{
					"inputs": [
						{
							"internalType": "address",
							"name": "account",
							"type": "address"
						}
					],
					"name": "OwnableUnauthorizedAccount",
					"type": "error"
				},
				{
					"inputs": [
						{
							"internalType": "address",
							"name": "token",
							"type": "address"
						}
					],
					"name": "SafeERC20FailedOperation",
					"type": "error"
				},
				{
					"anonymous": false,
					"inputs": [
						{
							"indexed": false,
							"internalType": "uint256",
							"name": "completeTime",
							"type": "uint256"
						}
					],
					"name": "Complete",
					"type": "event"
				},
				{
					"anonymous": false,
					"inputs": [
						{
							"indexed": false,
							"internalType": "uint256",
							"name": "launchTime",
							"type": "uint256"
						}
					],
					"name": "Launch",
					"type": "event"
				},
				{
					"anonymous": false,
					"inputs": [
						{
							"indexed": true,
							"internalType": "address",
							"name": "previousOwner",
							"type": "address"
						},
						{
							"indexed": true,
							"internalType": "address",
							"name": "newOwner",
							"type": "address"
						}
					],
					"name": "OwnershipTransferred",
					"type": "event"
				},
				{
					"anonymous": false,
					"inputs": [
						{
							"indexed": true,
							"internalType": "address",
							"name": "user",
							"type": "address"
						},
						{
							"indexed": false,
							"internalType": "uint256",
							"name": "stake",
							"type": "uint256"
						},
						{
							"indexed": false,
							"internalType": "uint256",
							"name": "reward",
							"type": "uint256"
						}
					],
					"name": "RewardDistributed",
					"type": "event"
				},
				{
					"anonymous": false,
					"inputs": [
						{
							"indexed": true,
							"internalType": "address",
							"name": "user",
							"type": "address"
						},
						{
							"indexed": false,
							"internalType": "uint256",
							"name": "amount",
							"type": "uint256"
						}
					],
					"name": "Stake",
					"type": "event"
				},
				{
					"anonymous": false,
					"inputs": [
						{
							"indexed": true,
							"internalType": "address",
							"name": "user",
							"type": "address"
						},
						{
							"indexed": false,
							"internalType": "uint256",
							"name": "amount",
							"type": "uint256"
						}
					],
					"name": "Terminated",
					"type": "event"
				},
				{
					"anonymous": false,
					"inputs": [
						{
							"indexed": true,
							"internalType": "address",
							"name": "user",
							"type": "address"
						},
						{
							"indexed": false,
							"internalType": "uint256",
							"name": "amount",
							"type": "uint256"
						}
					],
					"name": "TerminatedSingle",
					"type": "event"
				},
				{
					"inputs": [],
					"name": "buyDuration",
					"outputs": [
						{
							"internalType": "uint256",
							"name": "",
							"type": "uint256"
						}
					],
					"stateMutability": "view",
					"type": "function"
				},
				{
					"inputs": [],
					"name": "completeStaking",
					"outputs": [],
					"stateMutability": "nonpayable",
					"type": "function"
				},
				{
					"inputs": [],
					"name": "distributeRewards",
					"outputs": [],
					"stateMutability": "nonpayable",
					"type": "function"
				},
				{
					"inputs": [],
					"name": "getStakedUsers",
					"outputs": [
						{
							"internalType": "address[]",
							"name": "",
							"type": "address[]"
						}
					],
					"stateMutability": "view",
					"type": "function"
				},
				{
					"inputs": [],
					"name": "getStakingStatus",
					"outputs": [
						{
							"internalType": "enum LandFiStaking.Status",
							"name": "",
							"type": "uint8"
						}
					],
					"stateMutability": "view",
					"type": "function"
				},
				{
					"inputs": [],
					"name": "landFiToken",
					"outputs": [
						{
							"internalType": "contract IERC20",
							"name": "",
							"type": "address"
						}
					],
					"stateMutability": "view",
					"type": "function"
				},
				{
					"inputs": [],
					"name": "launch",
					"outputs": [],
					"stateMutability": "nonpayable",
					"type": "function"
				},
				{
					"inputs": [],
					"name": "launchStaking",
					"outputs": [
						{
							"internalType": "bool",
							"name": "",
							"type": "bool"
						}
					],
					"stateMutability": "view",
					"type": "function"
				},
				{
					"inputs": [],
					"name": "launchTime",
					"outputs": [
						{
							"internalType": "uint256",
							"name": "",
							"type": "uint256"
						}
					],
					"stateMutability": "view",
					"type": "function"
				},
				{
					"inputs": [],
					"name": "maxStake",
					"outputs": [
						{
							"internalType": "uint256",
							"name": "",
							"type": "uint256"
						}
					],
					"stateMutability": "view",
					"type": "function"
				},
				{
					"inputs": [],
					"name": "maxTotalStake",
					"outputs": [
						{
							"internalType": "uint256",
							"name": "",
							"type": "uint256"
						}
					],
					"stateMutability": "view",
					"type": "function"
				},
				{
					"inputs": [],
					"name": "minStake",
					"outputs": [
						{
							"internalType": "uint256",
							"name": "",
							"type": "uint256"
						}
					],
					"stateMutability": "view",
					"type": "function"
				},
				{
					"inputs": [],
					"name": "owner",
					"outputs": [
						{
							"internalType": "address",
							"name": "",
							"type": "address"
						}
					],
					"stateMutability": "view",
					"type": "function"
				},
				{
					"inputs": [],
					"name": "pause",
					"outputs": [],
					"stateMutability": "nonpayable",
					"type": "function"
				},
				{
					"inputs": [
						{
							"internalType": "uint256",
							"name": "amount",
							"type": "uint256"
						}
					],
					"name": "previewReward",
					"outputs": [
						{
							"internalType": "uint256",
							"name": "reward",
							"type": "uint256"
						}
					],
					"stateMutability": "view",
					"type": "function"
				},
				{
					"inputs": [],
					"name": "renounceOwnership",
					"outputs": [],
					"stateMutability": "nonpayable",
					"type": "function"
				},
				{
					"inputs": [],
					"name": "rewardToken",
					"outputs": [
						{
							"internalType": "contract IERC20",
							"name": "",
							"type": "address"
						}
					],
					"stateMutability": "view",
					"type": "function"
				},
				{
					"inputs": [],
					"name": "rewardTotal",
					"outputs": [
						{
							"internalType": "uint256",
							"name": "",
							"type": "uint256"
						}
					],
					"stateMutability": "view",
					"type": "function"
				},
				{
					"inputs": [
						{
							"internalType": "uint256",
							"name": "amount",
							"type": "uint256"
						}
					],
					"name": "stake",
					"outputs": [],
					"stateMutability": "nonpayable",
					"type": "function"
				},
				{
					"inputs": [],
					"name": "stakeDuration",
					"outputs": [
						{
							"internalType": "uint256",
							"name": "",
							"type": "uint256"
						}
					],
					"stateMutability": "view",
					"type": "function"
				},
				{
					"inputs": [
						{
							"internalType": "uint256",
							"name": "",
							"type": "uint256"
						}
					],
					"name": "stakedList",
					"outputs": [
						{
							"internalType": "address",
							"name": "",
							"type": "address"
						}
					],
					"stateMutability": "view",
					"type": "function"
				},
				{
					"inputs": [],
					"name": "stakingStatus",
					"outputs": [
						{
							"internalType": "enum LandFiStaking.Status",
							"name": "",
							"type": "uint8"
						}
					],
					"stateMutability": "view",
					"type": "function"
				},
				{
					"inputs": [],
					"name": "teamWallet",
					"outputs": [
						{
							"internalType": "address",
							"name": "",
							"type": "address"
						}
					],
					"stateMutability": "view",
					"type": "function"
				},
				{
					"inputs": [],
					"name": "terminateAll",
					"outputs": [],
					"stateMutability": "nonpayable",
					"type": "function"
				},
				{
					"inputs": [
						{
							"internalType": "address",
							"name": "user",
							"type": "address"
						}
					],
					"name": "terminateSingle",
					"outputs": [],
					"stateMutability": "nonpayable",
					"type": "function"
				},
				{
					"inputs": [],
					"name": "totalStaked",
					"outputs": [
						{
							"internalType": "uint256",
							"name": "",
							"type": "uint256"
						}
					],
					"stateMutability": "view",
					"type": "function"
				},
				{
					"inputs": [
						{
							"internalType": "address",
							"name": "newOwner",
							"type": "address"
						}
					],
					"name": "transferOwnership",
					"outputs": [],
					"stateMutability": "nonpayable",
					"type": "function"
				},
				{
					"inputs": [],
					"name": "unpause",
					"outputs": [],
					"stateMutability": "nonpayable",
					"type": "function"
				},
				{
					"inputs": [
						{
							"internalType": "address",
							"name": "",
							"type": "address"
						}
					],
					"name": "userStakes",
					"outputs": [
						{
							"internalType": "uint256",
							"name": "",
							"type": "uint256"
						}
					],
					"stateMutability": "view",
					"type": "function"
				}
			],
			"devdoc": {
				"errors": {
					"OwnableInvalidOwner(address)": [
						{
							"details": "The owner is not a valid owner account. (eg. `address(0)`)"
						}
					],
					"OwnableUnauthorizedAccount(address)": [
						{
							"details": "The caller account is not authorized to perform an operation."
						}
					],
					"SafeERC20FailedOperation(address)": [
						{
							"details": "An operation with an ERC-20 token failed."
						}
					]
				},
				"kind": "dev",
				"methods": {
					"owner()": {
						"details": "Returns the address of the current owner."
					},
					"renounceOwnership()": {
						"details": "Leaves the contract without owner. It will not be possible to call `onlyOwner` functions. Can only be called by the current owner. NOTE: Renouncing ownership will leave the contract without an owner, thereby disabling any functionality that is only available to the owner."
					},
					"transferOwnership(address)": {
						"details": "Transfers ownership of the contract to a new account (`newOwner`). Can only be called by the current owner."
					}
				},
				"version": 1
			},
			"evm": {
				"assembly": "    /* \"contracts/LandFiStake3.sol\":306:6089  contract LandFiStaking is Ownable(msg.sender), ReentrancyGuard {... */\n  mstore(0x40, 0x01a0)\n    /* \"contracts/LandFiStake3.sol\":920:925  false */\n  0x00\n    /* \"contracts/LandFiStake3.sol\":892:925  bool public launchStaking = false */\n  0x02\n  exp(0x0100, 0x00)\n  dup2\n  sload\n  dup2\n  0xff\n  mul\n  not\n  and\n  swap1\n  dup4\n  iszero\n  iszero\n  mul\n  or\n  swap1\n  sstore\n  pop\n    /* \"contracts/LandFiStake3.sol\":994:1008  Status.Pending */\n  0x00\n    /* \"contracts/LandFiStake3.sol\":964:1008  Status public stakingStatus = Status.Pending */\n  0x04\n  exp(0x0100, 0x00)\n  dup2\n  sload\n  dup2\n  0xff\n  mul\n  not\n  and\n  swap1\n  dup4\n  0x03\n  dup2\n  gt\n  iszero\n  tag_1\n  jumpi\n  tag_2\n  tag_3\n  jump\t// in\ntag_2:\ntag_1:\n  mul\n  or\n  swap1\n  sstore\n  pop\n    /* \"contracts/LandFiStake3.sol\":1636:2493  constructor(... */\n  callvalue\n  dup1\n  iszero\n  tag_4\n  jumpi\n  revert(0x00, 0x00)\ntag_4:\n  pop\n  mload(0x40)\n  sub(codesize, bytecodeSize)\n  dup1\n  bytecodeSize\n  dup4\n  codecopy\n  dup2\n  dup2\n  add\n  0x40\n  mstore\n  dup2\n  add\n  swap1\n  tag_5\n  swap2\n  swap1\n  tag_6\n  jump\t// in\ntag_5:\n    /* \"contracts/LandFiStake3.sol\":340:350  msg.sender */\n  caller\n    /* \"@openzeppelin/contracts/access/Ownable.sol\":1297:1298  0 */\n  0x00\n    /* \"@openzeppelin/contracts/access/Ownable.sol\":1273:1299  initialOwner == address(0) */\n  0xffffffffffffffffffffffffffffffffffffffff\n  and\n    /* \"@openzeppelin/contracts/access/Ownable.sol\":1273:1285  initialOwner */\n  dup2\n    /* \"@openzeppelin/contracts/access/Ownable.sol\":1273:1299  initialOwner == address(0) */\n  0xffffffffffffffffffffffffffffffffffffffff\n  and\n  sub\n    /* \"@openzeppelin/contracts/access/Ownable.sol\":1269:1364  if (initialOwner == address(0)) {... */\n  tag_11\n  jumpi\n    /* \"@openzeppelin/contracts/access/Ownable.sol\":1350:1351  0 */\n  0x00\n    /* \"@openzeppelin/contracts/access/Ownable.sol\":1322:1353  OwnableInvalidOwner(address(0)) */\n  mload(0x40)\n  0x1e4fbdf700000000000000000000000000000000000000000000000000000000\n  dup2\n  mstore\n  0x04\n  add\n  tag_12\n  swap2\n  swap1\n  tag_13\n  jump\t// in\ntag_12:\n  mload(0x40)\n  dup1\n  swap2\n  sub\n  swap1\n  revert\n    /* \"@openzeppelin/contracts/access/Ownable.sol\":1269:1364  if (initialOwner == address(0)) {... */\ntag_11:\n    /* \"@openzeppelin/contracts/access/Ownable.sol\":1373:1405  _transferOwnership(initialOwner) */\n  tag_14\n    /* \"@openzeppelin/contracts/access/Ownable.sol\":1392:1404  initialOwner */\n  dup2\n    /* \"@openzeppelin/contracts/access/Ownable.sol\":1373:1391  _transferOwnership */\n  shl(0x20, tag_15)\n    /* \"@openzeppelin/contracts/access/Ownable.sol\":1373:1405  _transferOwnership(initialOwner) */\n  0x20\n  shr\n  jump\t// in\ntag_14:\n    /* \"@openzeppelin/contracts/access/Ownable.sol\":1225:1412  constructor(address initialOwner) {... */\n  pop\n    /* \"@openzeppelin/contracts/security/ReentrancyGuard.sol\":1716:1717  1 */\n  0x01\n    /* \"@openzeppelin/contracts/security/ReentrancyGuard.sol\":1821:1828  _status */\n  dup1\n    /* \"@openzeppelin/contracts/security/ReentrancyGuard.sol\":1821:1843  _status = _NOT_ENTERED */\n  dup2\n  swap1\n  sstore\n  pop\n    /* \"contracts/LandFiStake3.sol\":1974:1975  0 */\n  0x00\n    /* \"contracts/LandFiStake3.sol\":1950:1976  _landFiToken != address(0) */\n  0xffffffffffffffffffffffffffffffffffffffff\n  and\n    /* \"contracts/LandFiStake3.sol\":1950:1962  _landFiToken */\n  dup10\n    /* \"contracts/LandFiStake3.sol\":1950:1976  _landFiToken != address(0) */\n  0xffffffffffffffffffffffffffffffffffffffff\n  and\n  sub\n    /* \"contracts/LandFiStake3.sol\":1942:2000  require(_landFiToken != address(0), \"Invalid stake token\") */\n  tag_18\n  jumpi\n  mload(0x40)\n  0x08c379a000000000000000000000000000000000000000000000000000000000\n  dup2\n  mstore\n  0x04\n  add\n  tag_19\n  swap1\n  tag_20\n  jump\t// in\ntag_19:\n  mload(0x40)\n  dup1\n  swap2\n  sub\n  swap1\n  revert\ntag_18:\n    /* \"contracts/LandFiStake3.sol\":2043:2044  0 */\n  0x00\n    /* \"contracts/LandFiStake3.sol\":2019:2045  _rewardToken != address(0) */\n  0xffffffffffffffffffffffffffffffffffffffff\n  and\n    /* \"contracts/LandFiStake3.sol\":2019:2031  _rewardToken */\n  dup9\n    /* \"contracts/LandFiStake3.sol\":2019:2045  _rewardToken != address(0) */\n  0xffffffffffffffffffffffffffffffffffffffff\n  and\n  sub\n    /* \"contracts/LandFiStake3.sol\":2011:2070  require(_rewardToken != address(0), \"Invalid reward token\") */\n  tag_21\n  jumpi\n  mload(0x40)\n  0x08c379a000000000000000000000000000000000000000000000000000000000\n  dup2\n  mstore\n  0x04\n  add\n  tag_22\n  swap1\n  tag_23\n  jump\t// in\ntag_22:\n  mload(0x40)\n  dup1\n  swap2\n  sub\n  swap1\n  revert\ntag_21:\n    /* \"contracts/LandFiStake3.sol\":2112:2113  0 */\n  0x00\n    /* \"contracts/LandFiStake3.sol\":2089:2114  _teamWallet != address(0) */\n  0xffffffffffffffffffffffffffffffffffffffff\n  and\n    /* \"contracts/LandFiStake3.sol\":2089:2100  _teamWallet */\n  dup8\n    /* \"contracts/LandFiStake3.sol\":2089:2114  _teamWallet != address(0) */\n  0xffffffffffffffffffffffffffffffffffffffff\n  and\n  sub\n    /* \"contracts/LandFiStake3.sol\":2081:2138  require(_teamWallet != address(0), \"Invalid team wallet\") */\n  tag_24\n  jumpi\n  mload(0x40)\n  0x08c379a000000000000000000000000000000000000000000000000000000000\n  dup2\n  mstore\n  0x04\n  add\n  tag_25\n  swap1\n  tag_26\n  jump\t// in\ntag_25:\n  mload(0x40)\n  dup1\n  swap2\n  sub\n  swap1\n  revert\ntag_24:\n    /* \"contracts/LandFiStake3.sol\":2172:2184  _landFiToken */\n  dup9\n    /* \"contracts/LandFiStake3.sol\":2151:2185  landFiToken = IERC20(_landFiToken) */\n  0xffffffffffffffffffffffffffffffffffffffff\n  and\n  0x80\n  dup2\n  0xffffffffffffffffffffffffffffffffffffffff\n  and\n  dup2\n  mstore\n  pop\n  pop\n    /* \"contracts/LandFiStake3.sol\":2217:2229  _rewardToken */\n  dup8\n    /* \"contracts/LandFiStake3.sol\":2196:2230  rewardToken = IERC20(_rewardToken) */\n  0xffffffffffffffffffffffffffffffffffffffff\n  and\n  0xa0\n  dup2\n  0xffffffffffffffffffffffffffffffffffffffff\n  and\n  dup2\n  mstore\n  pop\n  pop\n    /* \"contracts/LandFiStake3.sol\":2254:2265  _teamWallet */\n  dup7\n    /* \"contracts/LandFiStake3.sol\":2241:2265  teamWallet = _teamWallet */\n  0xffffffffffffffffffffffffffffffffffffffff\n  and\n  0xc0\n  dup2\n  0xffffffffffffffffffffffffffffffffffffffff\n  and\n  dup2\n  mstore\n  pop\n  pop\n    /* \"contracts/LandFiStake3.sol\":2292:2304  _buyDuration */\n  dup6\n    /* \"contracts/LandFiStake3.sol\":2278:2304  buyDuration = _buyDuration */\n  0xe0\n  dup2\n  dup2\n  mstore\n  pop\n  pop\n    /* \"contracts/LandFiStake3.sol\":2331:2345  _stakeDuration */\n  dup5\n    /* \"contracts/LandFiStake3.sol\":2315:2345  stakeDuration = _stakeDuration */\n  0x0100\n  dup2\n  dup2\n  mstore\n  pop\n  pop\n    /* \"contracts/LandFiStake3.sol\":2367:2376  _minStake */\n  dup4\n    /* \"contracts/LandFiStake3.sol\":2356:2376  minStake = _minStake */\n  0x0120\n  dup2\n  dup2\n  mstore\n  pop\n  pop\n    /* \"contracts/LandFiStake3.sol\":2398:2407  _maxStake */\n  dup3\n    /* \"contracts/LandFiStake3.sol\":2387:2407  maxStake = _maxStake */\n  0x0140\n  dup2\n  dup2\n  mstore\n  pop\n  pop\n    /* \"contracts/LandFiStake3.sol\":2434:2448  _maxTotalStake */\n  dup2\n    /* \"contracts/LandFiStake3.sol\":2418:2448  maxTotalStake = _maxTotalStake */\n  0x0160\n  dup2\n  dup2\n  mstore\n  pop\n  pop\n    /* \"contracts/LandFiStake3.sol\":2473:2485  _rewardTotal */\n  dup1\n    /* \"contracts/LandFiStake3.sol\":2459:2485  rewardTotal = _rewardTotal */\n  0x0180\n  dup2\n  dup2\n  mstore\n  pop\n  pop\n    /* \"contracts/LandFiStake3.sol\":1636:2493  constructor(... */\n  pop\n  pop\n  pop\n  pop\n  pop\n  pop\n  pop\n  pop\n  pop\n    /* \"contracts/LandFiStake3.sol\":306:6089  contract LandFiStaking is Ownable(msg.sender), ReentrancyGuard {... */\n  jump(tag_27)\n    /* \"@openzeppelin/contracts/access/Ownable.sol\":2912:3099  function _transferOwnership(address newOwner) internal virtual {... */\ntag_15:\n    /* \"@openzeppelin/contracts/access/Ownable.sol\":2985:3001  address oldOwner */\n  0x00\n    /* \"@openzeppelin/contracts/access/Ownable.sol\":3004:3010  _owner */\n  0x00\n  0x00\n  swap1\n  sload\n  swap1\n  0x0100\n  exp\n  swap1\n  div\n  0xffffffffffffffffffffffffffffffffffffffff\n  and\n    /* \"@openzeppelin/contracts/access/Ownable.sol\":2985:3010  address oldOwner = _owner */\n  swap1\n  pop\n    /* \"@openzeppelin/contracts/access/Ownable.sol\":3029:3037  newOwner */\n  dup2\n    /* \"@openzeppelin/contracts/access/Ownable.sol\":3020:3026  _owner */\n  0x00\n  0x00\n    /* \"@openzeppelin/contracts/access/Ownable.sol\":3020:3037  _owner = newOwner */\n  0x0100\n  exp\n  dup2\n  sload\n  dup2\n  0xffffffffffffffffffffffffffffffffffffffff\n  mul\n  not\n  and\n  swap1\n  dup4\n  0xffffffffffffffffffffffffffffffffffffffff\n  and\n  mul\n  or\n  swap1\n  sstore\n  pop\n    /* \"@openzeppelin/contracts/access/Ownable.sol\":3083:3091  newOwner */\n  dup2\n    /* \"@openzeppelin/contracts/access/Ownable.sol\":3052:3092  OwnershipTransferred(oldOwner, newOwner) */\n  0xffffffffffffffffffffffffffffffffffffffff\n  and\n    /* \"@openzeppelin/contracts/access/Ownable.sol\":3073:3081  oldOwner */\n  dup2\n    /* \"@openzeppelin/contracts/access/Ownable.sol\":3052:3092  OwnershipTransferred(oldOwner, newOwner) */\n  0xffffffffffffffffffffffffffffffffffffffff\n  and\n  0x8be0079c531659141344cd1fd0a4f28419497f9722a3daafe3b4186f6b6457e0\n  mload(0x40)\n  mload(0x40)\n  dup1\n  swap2\n  sub\n  swap1\n  log3\n    /* \"@openzeppelin/contracts/access/Ownable.sol\":2975:3099  {... */\n  pop\n    /* \"@openzeppelin/contracts/access/Ownable.sol\":2912:3099  function _transferOwnership(address newOwner) internal virtual {... */\n  pop\n  jump\t// out\n    /* \"#utility.yul\":7:187   */\ntag_3:\n    /* \"#utility.yul\":55:132   */\n  0x4e487b7100000000000000000000000000000000000000000000000000000000\n    /* \"#utility.yul\":52:53   */\n  0x00\n    /* \"#utility.yul\":45:133   */\n  mstore\n    /* \"#utility.yul\":152:156   */\n  0x21\n    /* \"#utility.yul\":149:150   */\n  0x04\n    /* \"#utility.yul\":142:157   */\n  mstore\n    /* \"#utility.yul\":176:180   */\n  0x24\n    /* \"#utility.yul\":173:174   */\n  0x00\n    /* \"#utility.yul\":166:181   */\n  revert\n    /* \"#utility.yul\":274:391   */\ntag_30:\n    /* \"#utility.yul\":383:384   */\n  0x00\n    /* \"#utility.yul\":380:381   */\n  0x00\n    /* \"#utility.yul\":373:385   */\n  revert\n    /* \"#utility.yul\":520:646   */\ntag_32:\n    /* \"#utility.yul\":557:564   */\n  0x00\n    /* \"#utility.yul\":597:639   */\n  0xffffffffffffffffffffffffffffffffffffffff\n    /* \"#utility.yul\":590:595   */\n  dup3\n    /* \"#utility.yul\":586:640   */\n  and\n    /* \"#utility.yul\":575:640   */\n  swap1\n  pop\n    /* \"#utility.yul\":520:646   */\n  swap2\n  swap1\n  pop\n  jump\t// out\n    /* \"#utility.yul\":652:748   */\ntag_33:\n    /* \"#utility.yul\":689:696   */\n  0x00\n    /* \"#utility.yul\":718:742   */\n  tag_54\n    /* \"#utility.yul\":736:741   */\n  dup3\n    /* \"#utility.yul\":718:742   */\n  tag_32\n  jump\t// in\ntag_54:\n    /* \"#utility.yul\":707:742   */\n  swap1\n  pop\n    /* \"#utility.yul\":652:748   */\n  swap2\n  swap1\n  pop\n  jump\t// out\n    /* \"#utility.yul\":754:876   */\ntag_34:\n    /* \"#utility.yul\":827:851   */\n  tag_56\n    /* \"#utility.yul\":845:850   */\n  dup2\n    /* \"#utility.yul\":827:851   */\n  tag_33\n  jump\t// in\ntag_56:\n    /* \"#utility.yul\":820:825   */\n  dup2\n    /* \"#utility.yul\":817:852   */\n  eq\n    /* \"#utility.yul\":807:870   */\n  tag_57\n  jumpi\n    /* \"#utility.yul\":866:867   */\n  0x00\n    /* \"#utility.yul\":863:864   */\n  0x00\n    /* \"#utility.yul\":856:868   */\n  revert\n    /* \"#utility.yul\":807:870   */\ntag_57:\n    /* \"#utility.yul\":754:876   */\n  pop\n  jump\t// out\n    /* \"#utility.yul\":882:1025   */\ntag_35:\n    /* \"#utility.yul\":939:944   */\n  0x00\n    /* \"#utility.yul\":970:976   */\n  dup2\n    /* \"#utility.yul\":964:977   */\n  mload\n    /* \"#utility.yul\":955:977   */\n  swap1\n  pop\n    /* \"#utility.yul\":986:1019   */\n  tag_59\n    /* \"#utility.yul\":1013:1018   */\n  dup2\n    /* \"#utility.yul\":986:1019   */\n  tag_34\n  jump\t// in\ntag_59:\n    /* \"#utility.yul\":882:1025   */\n  swap3\n  swap2\n  pop\n  pop\n  jump\t// out\n    /* \"#utility.yul\":1031:1108   */\ntag_36:\n    /* \"#utility.yul\":1068:1075   */\n  0x00\n    /* \"#utility.yul\":1097:1102   */\n  dup2\n    /* \"#utility.yul\":1086:1102   */\n  swap1\n  pop\n    /* \"#utility.yul\":1031:1108   */\n  swap2\n  swap1\n  pop\n  jump\t// out\n    /* \"#utility.yul\":1114:1236   */\ntag_37:\n    /* \"#utility.yul\":1187:1211   */\n  tag_62\n    /* \"#utility.yul\":1205:1210   */\n  dup2\n    /* \"#utility.yul\":1187:1211   */\n  tag_36\n  jump\t// in\ntag_62:\n    /* \"#utility.yul\":1180:1185   */\n  dup2\n    /* \"#utility.yul\":1177:1212   */\n  eq\n    /* \"#utility.yul\":1167:1230   */\n  tag_63\n  jumpi\n    /* \"#utility.yul\":1226:1227   */\n  0x00\n    /* \"#utility.yul\":1223:1224   */\n  0x00\n    /* \"#utility.yul\":1216:1228   */\n  revert\n    /* \"#utility.yul\":1167:1230   */\ntag_63:\n    /* \"#utility.yul\":1114:1236   */\n  pop\n  jump\t// out\n    /* \"#utility.yul\":1242:1385   */\ntag_38:\n    /* \"#utility.yul\":1299:1304   */\n  0x00\n    /* \"#utility.yul\":1330:1336   */\n  dup2\n    /* \"#utility.yul\":1324:1337   */\n  mload\n    /* \"#utility.yul\":1315:1337   */\n  swap1\n  pop\n    /* \"#utility.yul\":1346:1379   */\n  tag_65\n    /* \"#utility.yul\":1373:1378   */\n  dup2\n    /* \"#utility.yul\":1346:1379   */\n  tag_37\n  jump\t// in\ntag_65:\n    /* \"#utility.yul\":1242:1385   */\n  swap3\n  swap2\n  pop\n  pop\n  jump\t// out\n    /* \"#utility.yul\":1391:2996   */\ntag_6:\n    /* \"#utility.yul\":1533:1539   */\n  0x00\n    /* \"#utility.yul\":1541:1547   */\n  0x00\n    /* \"#utility.yul\":1549:1555   */\n  0x00\n    /* \"#utility.yul\":1557:1563   */\n  0x00\n    /* \"#utility.yul\":1565:1571   */\n  0x00\n    /* \"#utility.yul\":1573:1579   */\n  0x00\n    /* \"#utility.yul\":1581:1587   */\n  0x00\n    /* \"#utility.yul\":1589:1595   */\n  0x00\n    /* \"#utility.yul\":1597:1603   */\n  0x00\n    /* \"#utility.yul\":1646:1649   */\n  0x0120\n    /* \"#utility.yul\":1634:1643   */\n  dup11\n    /* \"#utility.yul\":1625:1632   */\n  dup13\n    /* \"#utility.yul\":1621:1644   */\n  sub\n    /* \"#utility.yul\":1617:1650   */\n  slt\n    /* \"#utility.yul\":1614:1734   */\n  iszero\n  tag_67\n  jumpi\n    /* \"#utility.yul\":1653:1732   */\n  tag_68\n  tag_30\n  jump\t// in\ntag_68:\n    /* \"#utility.yul\":1614:1734   */\ntag_67:\n    /* \"#utility.yul\":1773:1774   */\n  0x00\n    /* \"#utility.yul\":1798:1862   */\n  tag_69\n    /* \"#utility.yul\":1854:1861   */\n  dup13\n    /* \"#utility.yul\":1845:1851   */\n  dup3\n    /* \"#utility.yul\":1834:1843   */\n  dup14\n    /* \"#utility.yul\":1830:1852   */\n  add\n    /* \"#utility.yul\":1798:1862   */\n  tag_35\n  jump\t// in\ntag_69:\n    /* \"#utility.yul\":1788:1862   */\n  swap10\n  pop\n    /* \"#utility.yul\":1744:1872   */\n  pop\n    /* \"#utility.yul\":1911:1913   */\n  0x20\n    /* \"#utility.yul\":1937:2001   */\n  tag_70\n    /* \"#utility.yul\":1993:2000   */\n  dup13\n    /* \"#utility.yul\":1984:1990   */\n  dup3\n    /* \"#utility.yul\":1973:1982   */\n  dup14\n    /* \"#utility.yul\":1969:1991   */\n  add\n    /* \"#utility.yul\":1937:2001   */\n  tag_35\n  jump\t// in\ntag_70:\n    /* \"#utility.yul\":1927:2001   */\n  swap9\n  pop\n    /* \"#utility.yul\":1882:2011   */\n  pop\n    /* \"#utility.yul\":2050:2052   */\n  0x40\n    /* \"#utility.yul\":2076:2140   */\n  tag_71\n    /* \"#utility.yul\":2132:2139   */\n  dup13\n    /* \"#utility.yul\":2123:2129   */\n  dup3\n    /* \"#utility.yul\":2112:2121   */\n  dup14\n    /* \"#utility.yul\":2108:2130   */\n  add\n    /* \"#utility.yul\":2076:2140   */\n  tag_35\n  jump\t// in\ntag_71:\n    /* \"#utility.yul\":2066:2140   */\n  swap8\n  pop\n    /* \"#utility.yul\":2021:2150   */\n  pop\n    /* \"#utility.yul\":2189:2191   */\n  0x60\n    /* \"#utility.yul\":2215:2279   */\n  tag_72\n    /* \"#utility.yul\":2271:2278   */\n  dup13\n    /* \"#utility.yul\":2262:2268   */\n  dup3\n    /* \"#utility.yul\":2251:2260   */\n  dup14\n    /* \"#utility.yul\":2247:2269   */\n  add\n    /* \"#utility.yul\":2215:2279   */\n  tag_38\n  jump\t// in\ntag_72:\n    /* \"#utility.yul\":2205:2279   */\n  swap7\n  pop\n    /* \"#utility.yul\":2160:2289   */\n  pop\n    /* \"#utility.yul\":2328:2331   */\n  0x80\n    /* \"#utility.yul\":2355:2419   */\n  tag_73\n    /* \"#utility.yul\":2411:2418   */\n  dup13\n    /* \"#utility.yul\":2402:2408   */\n  dup3\n    /* \"#utility.yul\":2391:2400   */\n  dup14\n    /* \"#utility.yul\":2387:2409   */\n  add\n    /* \"#utility.yul\":2355:2419   */\n  tag_38\n  jump\t// in\ntag_73:\n    /* \"#utility.yul\":2345:2419   */\n  swap6\n  pop\n    /* \"#utility.yul\":2299:2429   */\n  pop\n    /* \"#utility.yul\":2468:2471   */\n  0xa0\n    /* \"#utility.yul\":2495:2559   */\n  tag_74\n    /* \"#utility.yul\":2551:2558   */\n  dup13\n    /* \"#utility.yul\":2542:2548   */\n  dup3\n    /* \"#utility.yul\":2531:2540   */\n  dup14\n    /* \"#utility.yul\":2527:2549   */\n  add\n    /* \"#utility.yul\":2495:2559   */\n  tag_38\n  jump\t// in\ntag_74:\n    /* \"#utility.yul\":2485:2559   */\n  swap5\n  pop\n    /* \"#utility.yul\":2439:2569   */\n  pop\n    /* \"#utility.yul\":2608:2611   */\n  0xc0\n    /* \"#utility.yul\":2635:2699   */\n  tag_75\n    /* \"#utility.yul\":2691:2698   */\n  dup13\n    /* \"#utility.yul\":2682:2688   */\n  dup3\n    /* \"#utility.yul\":2671:2680   */\n  dup14\n    /* \"#utility.yul\":2667:2689   */\n  add\n    /* \"#utility.yul\":2635:2699   */\n  tag_38\n  jump\t// in\ntag_75:\n    /* \"#utility.yul\":2625:2699   */\n  swap4\n  pop\n    /* \"#utility.yul\":2579:2709   */\n  pop\n    /* \"#utility.yul\":2748:2751   */\n  0xe0\n    /* \"#utility.yul\":2775:2839   */\n  tag_76\n    /* \"#utility.yul\":2831:2838   */\n  dup13\n    /* \"#utility.yul\":2822:2828   */\n  dup3\n    /* \"#utility.yul\":2811:2820   */\n  dup14\n    /* \"#utility.yul\":2807:2829   */\n  add\n    /* \"#utility.yul\":2775:2839   */\n  tag_38\n  jump\t// in\ntag_76:\n    /* \"#utility.yul\":2765:2839   */\n  swap3\n  pop\n    /* \"#utility.yul\":2719:2849   */\n  pop\n    /* \"#utility.yul\":2888:2891   */\n  0x0100\n    /* \"#utility.yul\":2915:2979   */\n  tag_77\n    /* \"#utility.yul\":2971:2978   */\n  dup13\n    /* \"#utility.yul\":2962:2968   */\n  dup3\n    /* \"#utility.yul\":2951:2960   */\n  dup14\n    /* \"#utility.yul\":2947:2969   */\n  add\n    /* \"#utility.yul\":2915:2979   */\n  tag_38\n  jump\t// in\ntag_77:\n    /* \"#utility.yul\":2905:2979   */\n  swap2\n  pop\n    /* \"#utility.yul\":2859:2989   */\n  pop\n    /* \"#utility.yul\":1391:2996   */\n  swap3\n  swap6\n  swap9\n  pop\n  swap3\n  swap6\n  swap9\n  pop\n  swap3\n  swap6\n  swap9\n  jump\t// out\n    /* \"#utility.yul\":3002:3120   */\ntag_39:\n    /* \"#utility.yul\":3089:3113   */\n  tag_79\n    /* \"#utility.yul\":3107:3112   */\n  dup2\n    /* \"#utility.yul\":3089:3113   */\n  tag_33\n  jump\t// in\ntag_79:\n    /* \"#utility.yul\":3084:3087   */\n  dup3\n    /* \"#utility.yul\":3077:3114   */\n  mstore\n    /* \"#utility.yul\":3002:3120   */\n  pop\n  pop\n  jump\t// out\n    /* \"#utility.yul\":3126:3348   */\ntag_13:\n    /* \"#utility.yul\":3219:3223   */\n  0x00\n    /* \"#utility.yul\":3257:3259   */\n  0x20\n    /* \"#utility.yul\":3246:3255   */\n  dup3\n    /* \"#utility.yul\":3242:3260   */\n  add\n    /* \"#utility.yul\":3234:3260   */\n  swap1\n  pop\n    /* \"#utility.yul\":3270:3341   */\n  tag_81\n    /* \"#utility.yul\":3338:3339   */\n  0x00\n    /* \"#utility.yul\":3327:3336   */\n  dup4\n    /* \"#utility.yul\":3323:3340   */\n  add\n    /* \"#utility.yul\":3314:3320   */\n  dup5\n    /* \"#utility.yul\":3270:3341   */\n  tag_39\n  jump\t// in\ntag_81:\n    /* \"#utility.yul\":3126:3348   */\n  swap3\n  swap2\n  pop\n  pop\n  jump\t// out\n    /* \"#utility.yul\":3354:3523   */\ntag_40:\n    /* \"#utility.yul\":3438:3449   */\n  0x00\n    /* \"#utility.yul\":3472:3478   */\n  dup3\n    /* \"#utility.yul\":3467:3470   */\n  dup3\n    /* \"#utility.yul\":3460:3479   */\n  mstore\n    /* \"#utility.yul\":3512:3516   */\n  0x20\n    /* \"#utility.yul\":3507:3510   */\n  dup3\n    /* \"#utility.yul\":3503:3517   */\n  add\n    /* \"#utility.yul\":3488:3517   */\n  swap1\n  pop\n    /* \"#utility.yul\":3354:3523   */\n  swap3\n  swap2\n  pop\n  pop\n  jump\t// out\n    /* \"#utility.yul\":3529:3698   */\ntag_41:\n    /* \"#utility.yul\":3669:3690   */\n  0x496e76616c6964207374616b6520746f6b656e00000000000000000000000000\n    /* \"#utility.yul\":3665:3666   */\n  0x00\n    /* \"#utility.yul\":3657:3663   */\n  dup3\n    /* \"#utility.yul\":3653:3667   */\n  add\n    /* \"#utility.yul\":3646:3691   */\n  mstore\n    /* \"#utility.yul\":3529:3698   */\n  pop\n  jump\t// out\n    /* \"#utility.yul\":3704:4070   */\ntag_42:\n    /* \"#utility.yul\":3846:3849   */\n  0x00\n    /* \"#utility.yul\":3867:3934   */\n  tag_85\n    /* \"#utility.yul\":3931:3933   */\n  0x13\n    /* \"#utility.yul\":3926:3929   */\n  dup4\n    /* \"#utility.yul\":3867:3934   */\n  tag_40\n  jump\t// in\ntag_85:\n    /* \"#utility.yul\":3860:3934   */\n  swap2\n  pop\n    /* \"#utility.yul\":3943:4036   */\n  tag_86\n    /* \"#utility.yul\":4032:4035   */\n  dup3\n    /* \"#utility.yul\":3943:4036   */\n  tag_41\n  jump\t// in\ntag_86:\n    /* \"#utility.yul\":4061:4063   */\n  0x20\n    /* \"#utility.yul\":4056:4059   */\n  dup3\n    /* \"#utility.yul\":4052:4064   */\n  add\n    /* \"#utility.yul\":4045:4064   */\n  swap1\n  pop\n    /* \"#utility.yul\":3704:4070   */\n  swap2\n  swap1\n  pop\n  jump\t// out\n    /* \"#utility.yul\":4076:4495   */\ntag_20:\n    /* \"#utility.yul\":4242:4246   */\n  0x00\n    /* \"#utility.yul\":4280:4282   */\n  0x20\n    /* \"#utility.yul\":4269:4278   */\n  dup3\n    /* \"#utility.yul\":4265:4283   */\n  add\n    /* \"#utility.yul\":4257:4283   */\n  swap1\n  pop\n    /* \"#utility.yul\":4329:4338   */\n  dup2\n    /* \"#utility.yul\":4323:4327   */\n  dup2\n    /* \"#utility.yul\":4319:4339   */\n  sub\n    /* \"#utility.yul\":4315:4316   */\n  0x00\n    /* \"#utility.yul\":4304:4313   */\n  dup4\n    /* \"#utility.yul\":4300:4317   */\n  add\n    /* \"#utility.yul\":4293:4340   */\n  mstore\n    /* \"#utility.yul\":4357:4488   */\n  tag_88\n    /* \"#utility.yul\":4483:4487   */\n  dup2\n    /* \"#utility.yul\":4357:4488   */\n  tag_42\n  jump\t// in\ntag_88:\n    /* \"#utility.yul\":4349:4488   */\n  swap1\n  pop\n    /* \"#utility.yul\":4076:4495   */\n  swap2\n  swap1\n  pop\n  jump\t// out\n    /* \"#utility.yul\":4501:4671   */\ntag_43:\n    /* \"#utility.yul\":4641:4663   */\n  0x496e76616c69642072657761726420746f6b656e000000000000000000000000\n    /* \"#utility.yul\":4637:4638   */\n  0x00\n    /* \"#utility.yul\":4629:4635   */\n  dup3\n    /* \"#utility.yul\":4625:4639   */\n  add\n    /* \"#utility.yul\":4618:4664   */\n  mstore\n    /* \"#utility.yul\":4501:4671   */\n  pop\n  jump\t// out\n    /* \"#utility.yul\":4677:5043   */\ntag_44:\n    /* \"#utility.yul\":4819:4822   */\n  0x00\n    /* \"#utility.yul\":4840:4907   */\n  tag_91\n    /* \"#utility.yul\":4904:4906   */\n  0x14\n    /* \"#utility.yul\":4899:4902   */\n  dup4\n    /* \"#utility.yul\":4840:4907   */\n  tag_40\n  jump\t// in\ntag_91:\n    /* \"#utility.yul\":4833:4907   */\n  swap2\n  pop\n    /* \"#utility.yul\":4916:5009   */\n  tag_92\n    /* \"#utility.yul\":5005:5008   */\n  dup3\n    /* \"#utility.yul\":4916:5009   */\n  tag_43\n  jump\t// in\ntag_92:\n    /* \"#utility.yul\":5034:5036   */\n  0x20\n    /* \"#utility.yul\":5029:5032   */\n  dup3\n    /* \"#utility.yul\":5025:5037   */\n  add\n    /* \"#utility.yul\":5018:5037   */\n  swap1\n  pop\n    /* \"#utility.yul\":4677:5043   */\n  swap2\n  swap1\n  pop\n  jump\t// out\n    /* \"#utility.yul\":5049:5468   */\ntag_23:\n    /* \"#utility.yul\":5215:5219   */\n  0x00\n    /* \"#utility.yul\":5253:5255   */\n  0x20\n    /* \"#utility.yul\":5242:5251   */\n  dup3\n    /* \"#utility.yul\":5238:5256   */\n  add\n    /* \"#utility.yul\":5230:5256   */\n  swap1\n  pop\n    /* \"#utility.yul\":5302:5311   */\n  dup2\n    /* \"#utility.yul\":5296:5300   */\n  dup2\n    /* \"#utility.yul\":5292:5312   */\n  sub\n    /* \"#utility.yul\":5288:5289   */\n  0x00\n    /* \"#utility.yul\":5277:5286   */\n  dup4\n    /* \"#utility.yul\":5273:5290   */\n  add\n    /* \"#utility.yul\":5266:5313   */\n  mstore\n    /* \"#utility.yul\":5330:5461   */\n  tag_94\n    /* \"#utility.yul\":5456:5460   */\n  dup2\n    /* \"#utility.yul\":5330:5461   */\n  tag_44\n  jump\t// in\ntag_94:\n    /* \"#utility.yul\":5322:5461   */\n  swap1\n  pop\n    /* \"#utility.yul\":5049:5468   */\n  swap2\n  swap1\n  pop\n  jump\t// out\n    /* \"#utility.yul\":5474:5643   */\ntag_45:\n    /* \"#utility.yul\":5614:5635   */\n  0x496e76616c6964207465616d2077616c6c657400000000000000000000000000\n    /* \"#utility.yul\":5610:5611   */\n  0x00\n    /* \"#utility.yul\":5602:5608   */\n  dup3\n    /* \"#utility.yul\":5598:5612   */\n  add\n    /* \"#utility.yul\":5591:5636   */\n  mstore\n    /* \"#utility.yul\":5474:5643   */\n  pop\n  jump\t// out\n    /* \"#utility.yul\":5649:6015   */\ntag_46:\n    /* \"#utility.yul\":5791:5794   */\n  0x00\n    /* \"#utility.yul\":5812:5879   */\n  tag_97\n    /* \"#utility.yul\":5876:5878   */\n  0x13\n    /* \"#utility.yul\":5871:5874   */\n  dup4\n    /* \"#utility.yul\":5812:5879   */\n  tag_40\n  jump\t// in\ntag_97:\n    /* \"#utility.yul\":5805:5879   */\n  swap2\n  pop\n    /* \"#utility.yul\":5888:5981   */\n  tag_98\n    /* \"#utility.yul\":5977:5980   */\n  dup3\n    /* \"#utility.yul\":5888:5981   */\n  tag_45\n  jump\t// in\ntag_98:\n    /* \"#utility.yul\":6006:6008   */\n  0x20\n    /* \"#utility.yul\":6001:6004   */\n  dup3\n    /* \"#utility.yul\":5997:6009   */\n  add\n    /* \"#utility.yul\":5990:6009   */\n  swap1\n  pop\n    /* \"#utility.yul\":5649:6015   */\n  swap2\n  swap1\n  pop\n  jump\t// out\n    /* \"#utility.yul\":6021:6440   */\ntag_26:\n    /* \"#utility.yul\":6187:6191   */\n  0x00\n    /* \"#utility.yul\":6225:6227   */\n  0x20\n    /* \"#utility.yul\":6214:6223   */\n  dup3\n    /* \"#utility.yul\":6210:6228   */\n  add\n    /* \"#utility.yul\":6202:6228   */\n  swap1\n  pop\n    /* \"#utility.yul\":6274:6283   */\n  dup2\n    /* \"#utility.yul\":6268:6272   */\n  dup2\n    /* \"#utility.yul\":6264:6284   */\n  sub\n    /* \"#utility.yul\":6260:6261   */\n  0x00\n    /* \"#utility.yul\":6249:6258   */\n  dup4\n    /* \"#utility.yul\":6245:6262   */\n  add\n    /* \"#utility.yul\":6238:6285   */\n  mstore\n    /* \"#utility.yul\":6302:6433   */\n  tag_100\n    /* \"#utility.yul\":6428:6432   */\n  dup2\n    /* \"#utility.yul\":6302:6433   */\n  tag_46\n  jump\t// in\ntag_100:\n    /* \"#utility.yul\":6294:6433   */\n  swap1\n  pop\n    /* \"#utility.yul\":6021:6440   */\n  swap2\n  swap1\n  pop\n  jump\t// out\n    /* \"contracts/LandFiStake3.sol\":306:6089  contract LandFiStaking is Ownable(msg.sender), ReentrancyGuard {... */\ntag_27:\n  mload(0x80)\n  mload(0xa0)\n  mload(0xc0)\n  mload(0xe0)\n  mload(0x0100)\n  mload(0x0120)\n  mload(0x0140)\n  mload(0x0160)\n  mload(0x0180)\n  codecopy(0x00, dataOffset(sub_0), dataSize(sub_0))\n  0x00\n  assignImmutable(\"0x1ac5f1ff5c22b675095d7de80c4f0796d8bf1ebc411b96ebd8b39a839de5c12e\")\n  0x00\n  assignImmutable(\"0x7705a66c05de96d79dddf8024a7669ad29d5b174f4aa496e3ca7c392f0ca18e1\")\n  0x00\n  assignImmutable(\"0x7788a34765a1848103cae61102f343cc0b1a9985ae3a59de22223016042ad663\")\n  0x00\n  assignImmutable(\"0xdc2a25037b2bbcedb14daf80b8aa2c09c28caff3d2f2ec216b72117d71331e12\")\n  0x00\n  assignImmutable(\"0x6dada6d1ec3b2e3878674118e8d86948ebe4d584ee013eb690e56f8e53016879\")\n  0x00\n  assignImmutable(\"0x1599b065c17883492f21704cb8488060e90dc8dd041de3cfae3e3631a601abed\")\n  0x00\n  assignImmutable(\"0x07f054c10757ecd7ba45558d1f545708449fb2687cb03aabf8acf0687ec069b0\")\n  0x00\n  assignImmutable(\"0x6357266b9d53c0f9af6b7cc53f59dc85b165702d9398eebfa95f674cadfbd638\")\n  0x00\n  assignImmutable(\"0x3a2a6f4e0dcd4611e0c200ca45f55d44b54b380ac384ae0bef4a36eff139c211\")\n  return(0x00, dataSize(sub_0))\nstop\n\nsub_0: assembly {\n        /* \"contracts/LandFiStake3.sol\":306:6089  contract LandFiStaking is Ownable(msg.sender), ReentrancyGuard {... */\n      mstore(0x40, 0x80)\n      callvalue\n      dup1\n      iszero\n      tag_1\n      jumpi\n      revert(0x00, 0x00)\n    tag_1:\n      pop\n      jumpi(tag_2, lt(calldatasize, 0x04))\n      shr(0xe0, calldataload(0x00))\n      dup1\n      0x817b1cd2\n      gt\n      tag_32\n      jumpi\n      dup1\n      0xcab9b8fb\n      gt\n      tag_33\n      jumpi\n      dup1\n      0xf2fde38b\n      gt\n      tag_34\n      jumpi\n      dup1\n      0xf2fde38b\n      eq\n      tag_28\n      jumpi\n      dup1\n      0xf7c618c1\n      eq\n      tag_29\n      jumpi\n      dup1\n      0xf959680b\n      eq\n      tag_30\n      jumpi\n      dup1\n      0xfe1d3795\n      eq\n      tag_31\n      jumpi\n      jump(tag_2)\n    tag_34:\n      dup1\n      0xcab9b8fb\n      eq\n      tag_24\n      jumpi\n      dup1\n      0xd719fa97\n      eq\n      tag_25\n      jumpi\n      dup1\n      0xe9b98746\n      eq\n      tag_26\n      jumpi\n      dup1\n      0xea1b28e0\n      eq\n      tag_27\n      jumpi\n      jump(tag_2)\n    tag_33:\n      dup1\n      0x8da7ad23\n      gt\n      tag_35\n      jumpi\n      dup1\n      0x8da7ad23\n      eq\n      tag_20\n      jumpi\n      dup1\n      0xa30a2474\n      eq\n      tag_21\n      jumpi\n      dup1\n      0xa694fc3a\n      eq\n      tag_22\n      jumpi\n      dup1\n      0xb973e1bf\n      eq\n      tag_23\n      jumpi\n      jump(tag_2)\n    tag_35:\n      dup1\n      0x817b1cd2\n      eq\n      tag_17\n      jumpi\n      dup1\n      0x8456cb59\n      eq\n      tag_18\n      jumpi\n      dup1\n      0x8da5cb5b\n      eq\n      tag_19\n      jumpi\n      jump(tag_2)\n    tag_32:\n      dup1\n      0x455ab53c\n      gt\n      tag_36\n      jumpi\n      dup1\n      0x64904071\n      gt\n      tag_37\n      jumpi\n      dup1\n      0x64904071\n      eq\n      tag_13\n      jumpi\n      dup1\n      0x6f4a2cd0\n      eq\n      tag_14\n      jumpi\n      dup1\n      0x715018a6\n      eq\n      tag_15\n      jumpi\n      dup1\n      0x790ca413\n      eq\n      tag_16\n      jumpi\n      jump(tag_2)\n    tag_37:\n      dup1\n      0x455ab53c\n      eq\n      tag_10\n      jumpi\n      dup1\n      0x4f984c5c\n      eq\n      tag_11\n      jumpi\n      dup1\n      0x59927044\n      eq\n      tag_12\n      jumpi\n      jump(tag_2)\n    tag_36:\n      dup1\n      0x292a6b19\n      gt\n      tag_38\n      jumpi\n      dup1\n      0x292a6b19\n      eq\n      tag_6\n      jumpi\n      dup1\n      0x375b3c0a\n      eq\n      tag_7\n      jumpi\n      dup1\n      0x3f4ba83a\n      eq\n      tag_8\n      jumpi\n      dup1\n      0x40f02ab6\n      eq\n      tag_9\n      jumpi\n      jump(tag_2)\n    tag_38:\n      dup1\n      0x01339c21\n      eq\n      tag_3\n      jumpi\n      dup1\n      0x02ac512f\n      eq\n      tag_4\n      jumpi\n      dup1\n      0x10d63d03\n      eq\n      tag_5\n      jumpi\n    tag_2:\n      revert(0x00, 0x00)\n        /* \"contracts/LandFiStake3.sol\":2527:2771  function launch() external onlyOwner {... */\n    tag_3:\n      tag_39\n      tag_40\n      jump\t// in\n    tag_39:\n      stop\n        /* \"contracts/LandFiStake3.sol\":1102:1129  address[] public stakedList */\n    tag_4:\n      tag_41\n      0x04\n      dup1\n      calldatasize\n      sub\n      dup2\n      add\n      swap1\n      tag_42\n      swap2\n      swap1\n      tag_43\n      jump\t// in\n    tag_42:\n      tag_44\n      jump\t// in\n    tag_41:\n      mload(0x40)\n      tag_45\n      swap2\n      swap1\n      tag_46\n      jump\t// in\n    tag_45:\n      mload(0x40)\n      dup1\n      swap2\n      sub\n      swap1\n      return\n        /* \"contracts/LandFiStake3.sol\":5348:5639  function terminateSingle(address user) external onlyOwner nonReentrant {... */\n    tag_5:\n      tag_47\n      0x04\n      dup1\n      calldatasize\n      sub\n      dup2\n      add\n      swap1\n      tag_48\n      swap2\n      swap1\n      tag_49\n      jump\t// in\n    tag_48:\n      tag_50\n      jump\t// in\n    tag_47:\n      stop\n        /* \"contracts/LandFiStake3.sol\":494:529  IERC20 public immutable landFiToken */\n    tag_6:\n      tag_51\n      tag_52\n      jump\t// in\n    tag_51:\n      mload(0x40)\n      tag_53\n      swap2\n      swap1\n      tag_54\n      jump\t// in\n    tag_53:\n      mload(0x40)\n      dup1\n      swap2\n      sub\n      swap1\n      return\n        /* \"contracts/LandFiStake3.sol\":708:741  uint256 public immutable minStake */\n    tag_7:\n      tag_55\n      tag_56\n      jump\t// in\n    tag_55:\n      mload(0x40)\n      tag_57\n      swap2\n      swap1\n      tag_58\n      jump\t// in\n    tag_57:\n      mload(0x40)\n      dup1\n      swap2\n      sub\n      swap1\n      return\n        /* \"contracts/LandFiStake3.sol\":2871:2958  function unpause() external onlyOwner {... */\n    tag_8:\n      tag_59\n      tag_60\n      jump\t// in\n    tag_59:\n      stop\n        /* \"contracts/LandFiStake3.sol\":663:701  uint256 public immutable stakeDuration */\n    tag_9:\n      tag_61\n      tag_62\n      jump\t// in\n    tag_61:\n      mload(0x40)\n      tag_63\n      swap2\n      swap1\n      tag_58\n      jump\t// in\n    tag_63:\n      mload(0x40)\n      dup1\n      swap2\n      sub\n      swap1\n      return\n        /* \"contracts/LandFiStake3.sol\":964:1008  Status public stakingStatus = Status.Pending */\n    tag_10:\n      tag_64\n      tag_65\n      jump\t// in\n    tag_64:\n      mload(0x40)\n      tag_66\n      swap2\n      swap1\n      tag_67\n      jump\t// in\n    tag_66:\n      mload(0x40)\n      dup1\n      swap2\n      sub\n      swap1\n      return\n        /* \"contracts/LandFiStake3.sol\":4895:5340  function terminateAll() external onlyOwner nonReentrant {... */\n    tag_11:\n      tag_68\n      tag_69\n      jump\t// in\n    tag_68:\n      stop\n        /* \"contracts/LandFiStake3.sol\":578:613  address public immutable teamWallet */\n    tag_12:\n      tag_70\n      tag_71\n      jump\t// in\n    tag_70:\n      mload(0x40)\n      tag_72\n      swap2\n      swap1\n      tag_46\n      jump\t// in\n    tag_72:\n      mload(0x40)\n      dup1\n      swap2\n      sub\n      swap1\n      return\n        /* \"contracts/LandFiStake3.sol\":788:826  uint256 public immutable maxTotalStake */\n    tag_13:\n      tag_73\n      tag_74\n      jump\t// in\n    tag_73:\n      mload(0x40)\n      tag_75\n      swap2\n      swap1\n      tag_58\n      jump\t// in\n    tag_75:\n      mload(0x40)\n      dup1\n      swap2\n      sub\n      swap1\n      return\n        /* \"contracts/LandFiStake3.sol\":3995:4859  function distributeRewards() external onlyOwner nonReentrant {... */\n    tag_14:\n      tag_76\n      tag_77\n      jump\t// in\n    tag_76:\n      stop\n        /* \"@openzeppelin/contracts/access/Ownable.sol\":2293:2394  function renounceOwnership() public virtual onlyOwner {... */\n    tag_15:\n      tag_78\n      tag_79\n      jump\t// in\n    tag_78:\n      stop\n        /* \"contracts/LandFiStake3.sol\":932:957  uint256 public launchTime */\n    tag_16:\n      tag_80\n      tag_81\n      jump\t// in\n    tag_80:\n      mload(0x40)\n      tag_82\n      swap2\n      swap1\n      tag_58\n      jump\t// in\n    tag_82:\n      mload(0x40)\n      dup1\n      swap2\n      sub\n      swap1\n      return\n        /* \"contracts/LandFiStake3.sol\":1015:1041  uint256 public totalStaked */\n    tag_17:\n      tag_83\n      tag_84\n      jump\t// in\n    tag_83:\n      mload(0x40)\n      tag_85\n      swap2\n      swap1\n      tag_58\n      jump\t// in\n    tag_85:\n      mload(0x40)\n      dup1\n      swap2\n      sub\n      swap1\n      return\n        /* \"contracts/LandFiStake3.sol\":2779:2863  function pause() external onlyOwner {... */\n    tag_18:\n      tag_86\n      tag_87\n      jump\t// in\n    tag_86:\n      stop\n        /* \"@openzeppelin/contracts/access/Ownable.sol\":1638:1723  function owner() public view virtual returns (address) {... */\n    tag_19:\n      tag_88\n      tag_89\n      jump\t// in\n    tag_88:\n      mload(0x40)\n      tag_90\n      swap2\n      swap1\n      tag_46\n      jump\t// in\n    tag_90:\n      mload(0x40)\n      dup1\n      swap2\n      sub\n      swap1\n      return\n        /* \"contracts/LandFiStake3.sol\":1050:1095  mapping(address => uint256) public userStakes */\n    tag_20:\n      tag_91\n      0x04\n      dup1\n      calldatasize\n      sub\n      dup2\n      add\n      swap1\n      tag_92\n      swap2\n      swap1\n      tag_49\n      jump\t// in\n    tag_92:\n      tag_93\n      jump\t// in\n    tag_91:\n      mload(0x40)\n      tag_94\n      swap2\n      swap1\n      tag_58\n      jump\t// in\n    tag_94:\n      mload(0x40)\n      dup1\n      swap2\n      sub\n      swap1\n      return\n        /* \"contracts/LandFiStake3.sol\":892:925  bool public launchStaking = false */\n    tag_21:\n      tag_95\n      tag_96\n      jump\t// in\n    tag_95:\n      mload(0x40)\n      tag_97\n      swap2\n      swap1\n      tag_98\n      jump\t// in\n    tag_97:\n      mload(0x40)\n      dup1\n      swap2\n      sub\n      swap1\n      return\n        /* \"contracts/LandFiStake3.sol\":3230:3951  function stake(uint256 amount) external nonReentrant onlyRunning {... */\n    tag_22:\n      tag_99\n      0x04\n      dup1\n      calldatasize\n      sub\n      dup2\n      add\n      swap1\n      tag_100\n      swap2\n      swap1\n      tag_43\n      jump\t// in\n    tag_100:\n      tag_101\n      jump\t// in\n    tag_99:\n      stop\n        /* \"contracts/LandFiStake3.sol\":5888:6086  function previewReward(uint256 amount) external view returns (uint256 reward) {... */\n    tag_23:\n      tag_102\n      0x04\n      dup1\n      calldatasize\n      sub\n      dup2\n      add\n      swap1\n      tag_103\n      swap2\n      swap1\n      tag_43\n      jump\t// in\n    tag_103:\n      tag_104\n      jump\t// in\n    tag_102:\n      mload(0x40)\n      tag_105\n      swap2\n      swap1\n      tag_58\n      jump\t// in\n    tag_105:\n      mload(0x40)\n      dup1\n      swap2\n      sub\n      swap1\n      return\n        /* \"contracts/LandFiStake3.sol\":5782:5880  function getStakingStatus() external view returns (Status) {... */\n    tag_24:\n      tag_106\n      tag_107\n      jump\t// in\n    tag_106:\n      mload(0x40)\n      tag_108\n      swap2\n      swap1\n      tag_67\n      jump\t// in\n    tag_108:\n      mload(0x40)\n      dup1\n      swap2\n      sub\n      swap1\n      return\n        /* \"contracts/LandFiStake3.sol\":5671:5774  function getStakedUsers() external view returns (address[] memory) {... */\n    tag_25:\n      tag_109\n      tag_110\n      jump\t// in\n    tag_109:\n      mload(0x40)\n      tag_111\n      swap2\n      swap1\n      tag_112\n      jump\t// in\n    tag_111:\n      mload(0x40)\n      dup1\n      swap2\n      sub\n      swap1\n      return\n        /* \"contracts/LandFiStake3.sol\":620:656  uint256 public immutable buyDuration */\n    tag_26:\n      tag_113\n      tag_114\n      jump\t// in\n    tag_113:\n      mload(0x40)\n      tag_115\n      swap2\n      swap1\n      tag_58\n      jump\t// in\n    tag_115:\n      mload(0x40)\n      dup1\n      swap2\n      sub\n      swap1\n      return\n        /* \"contracts/LandFiStake3.sol\":748:781  uint256 public immutable maxStake */\n    tag_27:\n      tag_116\n      tag_117\n      jump\t// in\n    tag_116:\n      mload(0x40)\n      tag_118\n      swap2\n      swap1\n      tag_58\n      jump\t// in\n    tag_118:\n      mload(0x40)\n      dup1\n      swap2\n      sub\n      swap1\n      return\n        /* \"@openzeppelin/contracts/access/Ownable.sol\":2543:2758  function transferOwnership(address newOwner) public virtual onlyOwner {... */\n    tag_28:\n      tag_119\n      0x04\n      dup1\n      calldatasize\n      sub\n      dup2\n      add\n      swap1\n      tag_120\n      swap2\n      swap1\n      tag_49\n      jump\t// in\n    tag_120:\n      tag_121\n      jump\t// in\n    tag_119:\n      stop\n        /* \"contracts/LandFiStake3.sol\":536:571  IERC20 public immutable rewardToken */\n    tag_29:\n      tag_122\n      tag_123\n      jump\t// in\n    tag_122:\n      mload(0x40)\n      tag_124\n      swap2\n      swap1\n      tag_54\n      jump\t// in\n    tag_124:\n      mload(0x40)\n      dup1\n      swap2\n      sub\n      swap1\n      return\n        /* \"contracts/LandFiStake3.sol\":833:869  uint256 public immutable rewardTotal */\n    tag_30:\n      tag_125\n      tag_126\n      jump\t// in\n    tag_125:\n      mload(0x40)\n      tag_127\n      swap2\n      swap1\n      tag_58\n      jump\t// in\n    tag_127:\n      mload(0x40)\n      dup1\n      swap2\n      sub\n      swap1\n      return\n        /* \"contracts/LandFiStake3.sol\":2966:3200  function completeStaking() external onlyOwner {... */\n    tag_31:\n      tag_128\n      tag_129\n      jump\t// in\n    tag_128:\n      stop\n        /* \"contracts/LandFiStake3.sol\":2527:2771  function launch() external onlyOwner {... */\n    tag_40:\n        /* \"@openzeppelin/contracts/access/Ownable.sol\":1531:1544  _checkOwner() */\n      tag_131\n        /* \"@openzeppelin/contracts/access/Ownable.sol\":1531:1542  _checkOwner */\n      tag_132\n        /* \"@openzeppelin/contracts/access/Ownable.sol\":1531:1544  _checkOwner() */\n      jump\t// in\n    tag_131:\n        /* \"contracts/LandFiStake3.sol\":2584:2597  launchStaking */\n      0x02\n      0x00\n      swap1\n      sload\n      swap1\n      0x0100\n      exp\n      swap1\n      div\n      0xff\n      and\n        /* \"contracts/LandFiStake3.sol\":2583:2597  !launchStaking */\n      iszero\n        /* \"contracts/LandFiStake3.sol\":2575:2618  require(!launchStaking, \"Already launched\") */\n      tag_134\n      jumpi\n      mload(0x40)\n      0x08c379a000000000000000000000000000000000000000000000000000000000\n      dup2\n      mstore\n      0x04\n      add\n      tag_135\n      swap1\n      tag_136\n      jump\t// in\n    tag_135:\n      mload(0x40)\n      dup1\n      swap2\n      sub\n      swap1\n      revert\n    tag_134:\n        /* \"contracts/LandFiStake3.sol\":2645:2649  true */\n      0x01\n        /* \"contracts/LandFiStake3.sol\":2629:2642  launchStaking */\n      0x02\n      0x00\n        /* \"contracts/LandFiStake3.sol\":2629:2649  launchStaking = true */\n      0x0100\n      exp\n      dup2\n      sload\n      dup2\n      0xff\n      mul\n      not\n      and\n      swap1\n      dup4\n      iszero\n      iszero\n      mul\n      or\n      swap1\n      sstore\n      pop\n        /* \"contracts/LandFiStake3.sol\":2673:2688  block.timestamp */\n      timestamp\n        /* \"contracts/LandFiStake3.sol\":2660:2670  launchTime */\n      0x03\n        /* \"contracts/LandFiStake3.sol\":2660:2688  launchTime = block.timestamp */\n      dup2\n      swap1\n      sstore\n      pop\n        /* \"contracts/LandFiStake3.sol\":2715:2729  Status.Running */\n      0x01\n        /* \"contracts/LandFiStake3.sol\":2699:2712  stakingStatus */\n      0x04\n      0x00\n        /* \"contracts/LandFiStake3.sol\":2699:2729  stakingStatus = Status.Running */\n      0x0100\n      exp\n      dup2\n      sload\n      dup2\n      0xff\n      mul\n      not\n      and\n      swap1\n      dup4\n      0x03\n      dup2\n      gt\n      iszero\n      tag_137\n      jumpi\n      tag_138\n      tag_139\n      jump\t// in\n    tag_138:\n    tag_137:\n      mul\n      or\n      swap1\n      sstore\n      pop\n        /* \"contracts/LandFiStake3.sol\":2745:2763  Launch(launchTime) */\n      0xa72e5e150ebe7b67363131cf1d5e72a8053adc58eb1879467ebd529ae3d4ecca\n        /* \"contracts/LandFiStake3.sol\":2752:2762  launchTime */\n      sload(0x03)\n        /* \"contracts/LandFiStake3.sol\":2745:2763  Launch(launchTime) */\n      mload(0x40)\n      tag_140\n      swap2\n      swap1\n      tag_58\n      jump\t// in\n    tag_140:\n      mload(0x40)\n      dup1\n      swap2\n      sub\n      swap1\n      log1\n        /* \"contracts/LandFiStake3.sol\":2527:2771  function launch() external onlyOwner {... */\n      jump\t// out\n        /* \"contracts/LandFiStake3.sol\":1102:1129  address[] public stakedList */\n    tag_44:\n      0x07\n      dup2\n      dup2\n      sload\n      dup2\n      lt\n      tag_141\n      jumpi\n      0x00\n      dup1\n      revert\n    tag_141:\n      swap1\n      0x00\n      mstore\n      keccak256(0x00, 0x20)\n      add\n      0x00\n      swap2\n      pop\n      sload\n      swap1\n      0x0100\n      exp\n      swap1\n      div\n      0xffffffffffffffffffffffffffffffffffffffff\n      and\n      dup2\n      jump\t// out\n        /* \"contracts/LandFiStake3.sol\":5348:5639  function terminateSingle(address user) external onlyOwner nonReentrant {... */\n    tag_50:\n        /* \"@openzeppelin/contracts/access/Ownable.sol\":1531:1544  _checkOwner() */\n      tag_144\n        /* \"@openzeppelin/contracts/access/Ownable.sol\":1531:1542  _checkOwner */\n      tag_132\n        /* \"@openzeppelin/contracts/access/Ownable.sol\":1531:1544  _checkOwner() */\n      jump\t// in\n    tag_144:\n        /* \"@openzeppelin/contracts/security/ReentrancyGuard.sol\":2261:2282  _nonReentrantBefore() */\n      tag_146\n        /* \"@openzeppelin/contracts/security/ReentrancyGuard.sol\":2261:2280  _nonReentrantBefore */\n      tag_147\n        /* \"@openzeppelin/contracts/security/ReentrancyGuard.sol\":2261:2282  _nonReentrantBefore() */\n      jump\t// in\n    tag_146:\n        /* \"contracts/LandFiStake3.sol\":5430:5441  uint256 amt */\n      0x00\n        /* \"contracts/LandFiStake3.sol\":5444:5454  userStakes */\n      0x06\n        /* \"contracts/LandFiStake3.sol\":5444:5460  userStakes[user] */\n      0x00\n        /* \"contracts/LandFiStake3.sol\":5455:5459  user */\n      dup4\n        /* \"contracts/LandFiStake3.sol\":5444:5460  userStakes[user] */\n      0xffffffffffffffffffffffffffffffffffffffff\n      and\n      0xffffffffffffffffffffffffffffffffffffffff\n      and\n      dup2\n      mstore\n      0x20\n      add\n      swap1\n      dup2\n      mstore\n      0x20\n      add\n      0x00\n      keccak256\n      sload\n        /* \"contracts/LandFiStake3.sol\":5430:5460  uint256 amt = userStakes[user] */\n      swap1\n      pop\n        /* \"contracts/LandFiStake3.sol\":5485:5486  0 */\n      0x00\n        /* \"contracts/LandFiStake3.sol\":5479:5482  amt */\n      dup2\n        /* \"contracts/LandFiStake3.sol\":5479:5486  amt > 0 */\n      gt\n        /* \"contracts/LandFiStake3.sol\":5471:5511  require(amt > 0, \"Nothing to terminate\") */\n      tag_149\n      jumpi\n      mload(0x40)\n      0x08c379a000000000000000000000000000000000000000000000000000000000\n      dup2\n      mstore\n      0x04\n      add\n      tag_150\n      swap1\n      tag_151\n      jump\t// in\n    tag_150:\n      mload(0x40)\n      dup1\n      swap2\n      sub\n      swap1\n      revert\n    tag_149:\n        /* \"contracts/LandFiStake3.sol\":5522:5557  landFiToken.safeTransfer(user, amt) */\n      tag_152\n        /* \"contracts/LandFiStake3.sol\":5547:5551  user */\n      dup3\n        /* \"contracts/LandFiStake3.sol\":5553:5556  amt */\n      dup3\n        /* \"contracts/LandFiStake3.sol\":5522:5533  landFiToken */\n      immutable(\"0x3a2a6f4e0dcd4611e0c200ca45f55d44b54b380ac384ae0bef4a36eff139c211\")\n        /* \"contracts/LandFiStake3.sol\":5522:5546  landFiToken.safeTransfer */\n      0xffffffffffffffffffffffffffffffffffffffff\n      and\n      tag_153\n      swap1\n        /* \"contracts/LandFiStake3.sol\":5522:5557  landFiToken.safeTransfer(user, amt) */\n      swap3\n      swap2\n      swap1\n      0xffffffff\n      and\n      jump\t// in\n    tag_152:\n        /* \"contracts/LandFiStake3.sol\":5587:5588  0 */\n      0x00\n        /* \"contracts/LandFiStake3.sol\":5568:5578  userStakes */\n      0x06\n        /* \"contracts/LandFiStake3.sol\":5568:5584  userStakes[user] */\n      0x00\n        /* \"contracts/LandFiStake3.sol\":5579:5583  user */\n      dup5\n        /* \"contracts/LandFiStake3.sol\":5568:5584  userStakes[user] */\n      0xffffffffffffffffffffffffffffffffffffffff\n      and\n      0xffffffffffffffffffffffffffffffffffffffff\n      and\n      dup2\n      mstore\n      0x20\n      add\n      swap1\n      dup2\n      mstore\n      0x20\n      add\n      0x00\n      keccak256\n        /* \"contracts/LandFiStake3.sol\":5568:5588  userStakes[user] = 0 */\n      dup2\n      swap1\n      sstore\n      pop\n        /* \"contracts/LandFiStake3.sol\":5621:5625  user */\n      dup2\n        /* \"contracts/LandFiStake3.sol\":5604:5631  TerminatedSingle(user, amt) */\n      0xffffffffffffffffffffffffffffffffffffffff\n      and\n      0xbf8f812d3d85df21758e37a857352fb02610f4278c682198af5c5c00bbb3d500\n        /* \"contracts/LandFiStake3.sol\":5627:5630  amt */\n      dup3\n        /* \"contracts/LandFiStake3.sol\":5604:5631  TerminatedSingle(user, amt) */\n      mload(0x40)\n      tag_154\n      swap2\n      swap1\n      tag_58\n      jump\t// in\n    tag_154:\n      mload(0x40)\n      dup1\n      swap2\n      sub\n      swap1\n      log2\n        /* \"contracts/LandFiStake3.sol\":5419:5639  {... */\n      pop\n        /* \"@openzeppelin/contracts/security/ReentrancyGuard.sol\":2303:2323  _nonReentrantAfter() */\n      tag_155\n        /* \"@openzeppelin/contracts/security/ReentrancyGuard.sol\":2303:2321  _nonReentrantAfter */\n      tag_156\n        /* \"@openzeppelin/contracts/security/ReentrancyGuard.sol\":2303:2323  _nonReentrantAfter() */\n      jump\t// in\n    tag_155:\n        /* \"contracts/LandFiStake3.sol\":5348:5639  function terminateSingle(address user) external onlyOwner nonReentrant {... */\n      pop\n      jump\t// out\n        /* \"contracts/LandFiStake3.sol\":494:529  IERC20 public immutable landFiToken */\n    tag_52:\n      immutable(\"0x3a2a6f4e0dcd4611e0c200ca45f55d44b54b380ac384ae0bef4a36eff139c211\")\n      dup2\n      jump\t// out\n        /* \"contracts/LandFiStake3.sol\":708:741  uint256 public immutable minStake */\n    tag_56:\n      immutable(\"0xdc2a25037b2bbcedb14daf80b8aa2c09c28caff3d2f2ec216b72117d71331e12\")\n      dup2\n      jump\t// out\n        /* \"contracts/LandFiStake3.sol\":2871:2958  function unpause() external onlyOwner {... */\n    tag_60:\n        /* \"@openzeppelin/contracts/access/Ownable.sol\":1531:1544  _checkOwner() */\n      tag_158\n        /* \"@openzeppelin/contracts/access/Ownable.sol\":1531:1542  _checkOwner */\n      tag_132\n        /* \"@openzeppelin/contracts/access/Ownable.sol\":1531:1544  _checkOwner() */\n      jump\t// in\n    tag_158:\n        /* \"contracts/LandFiStake3.sol\":2936:2950  Status.Running */\n      0x01\n        /* \"contracts/LandFiStake3.sol\":2920:2933  stakingStatus */\n      0x04\n      0x00\n        /* \"contracts/LandFiStake3.sol\":2920:2950  stakingStatus = Status.Running */\n      0x0100\n      exp\n      dup2\n      sload\n      dup2\n      0xff\n      mul\n      not\n      and\n      swap1\n      dup4\n      0x03\n      dup2\n      gt\n      iszero\n      tag_160\n      jumpi\n      tag_161\n      tag_139\n      jump\t// in\n    tag_161:\n    tag_160:\n      mul\n      or\n      swap1\n      sstore\n      pop\n        /* \"contracts/LandFiStake3.sol\":2871:2958  function unpause() external onlyOwner {... */\n      jump\t// out\n        /* \"contracts/LandFiStake3.sol\":663:701  uint256 public immutable stakeDuration */\n    tag_62:\n      immutable(\"0x6dada6d1ec3b2e3878674118e8d86948ebe4d584ee013eb690e56f8e53016879\")\n      dup2\n      jump\t// out\n        /* \"contracts/LandFiStake3.sol\":964:1008  Status public stakingStatus = Status.Pending */\n    tag_65:\n      0x04\n      0x00\n      swap1\n      sload\n      swap1\n      0x0100\n      exp\n      swap1\n      div\n      0xff\n      and\n      dup2\n      jump\t// out\n        /* \"contracts/LandFiStake3.sol\":4895:5340  function terminateAll() external onlyOwner nonReentrant {... */\n    tag_69:\n        /* \"@openzeppelin/contracts/access/Ownable.sol\":1531:1544  _checkOwner() */\n      tag_163\n        /* \"@openzeppelin/contracts/access/Ownable.sol\":1531:1542  _checkOwner */\n      tag_132\n        /* \"@openzeppelin/contracts/access/Ownable.sol\":1531:1544  _checkOwner() */\n      jump\t// in\n    tag_163:\n        /* \"@openzeppelin/contracts/security/ReentrancyGuard.sol\":2261:2282  _nonReentrantBefore() */\n      tag_165\n        /* \"@openzeppelin/contracts/security/ReentrancyGuard.sol\":2261:2280  _nonReentrantBefore */\n      tag_147\n        /* \"@openzeppelin/contracts/security/ReentrancyGuard.sol\":2261:2282  _nonReentrantBefore() */\n      jump\t// in\n    tag_165:\n        /* \"contracts/LandFiStake3.sol\":4967:4976  uint256 i */\n      0x00\n        /* \"contracts/LandFiStake3.sol\":4979:4980  0 */\n      0x00\n        /* \"contracts/LandFiStake3.sol\":4967:4980  uint256 i = 0 */\n      swap1\n      pop\n        /* \"contracts/LandFiStake3.sol\":4962:5291  for (uint256 i = 0; i < stakedList.length; i++) {... */\n    tag_167:\n        /* \"contracts/LandFiStake3.sol\":4986:4996  stakedList */\n      0x07\n        /* \"contracts/LandFiStake3.sol\":4986:5003  stakedList.length */\n      dup1\n      sload\n      swap1\n      pop\n        /* \"contracts/LandFiStake3.sol\":4982:4983  i */\n      dup2\n        /* \"contracts/LandFiStake3.sol\":4982:5003  i < stakedList.length */\n      lt\n        /* \"contracts/LandFiStake3.sol\":4962:5291  for (uint256 i = 0; i < stakedList.length; i++) {... */\n      iszero\n      tag_168\n      jumpi\n        /* \"contracts/LandFiStake3.sol\":5025:5037  address user */\n      0x00\n        /* \"contracts/LandFiStake3.sol\":5040:5050  stakedList */\n      0x07\n        /* \"contracts/LandFiStake3.sol\":5051:5052  i */\n      dup3\n        /* \"contracts/LandFiStake3.sol\":5040:5053  stakedList[i] */\n      dup2\n      sload\n      dup2\n      lt\n      tag_170\n      jumpi\n      tag_171\n      tag_172\n      jump\t// in\n    tag_171:\n    tag_170:\n      swap1\n      0x00\n      mstore\n      keccak256(0x00, 0x20)\n      add\n      0x00\n      swap1\n      sload\n      swap1\n      0x0100\n      exp\n      swap1\n      div\n      0xffffffffffffffffffffffffffffffffffffffff\n      and\n        /* \"contracts/LandFiStake3.sol\":5025:5053  address user = stakedList[i] */\n      swap1\n      pop\n        /* \"contracts/LandFiStake3.sol\":5068:5079  uint256 amt */\n      0x00\n        /* \"contracts/LandFiStake3.sol\":5082:5092  userStakes */\n      0x06\n        /* \"contracts/LandFiStake3.sol\":5082:5098  userStakes[user] */\n      0x00\n        /* \"contracts/LandFiStake3.sol\":5093:5097  user */\n      dup4\n        /* \"contracts/LandFiStake3.sol\":5082:5098  userStakes[user] */\n      0xffffffffffffffffffffffffffffffffffffffff\n      and\n      0xffffffffffffffffffffffffffffffffffffffff\n      and\n      dup2\n      mstore\n      0x20\n      add\n      swap1\n      dup2\n      mstore\n      0x20\n      add\n      0x00\n      keccak256\n      sload\n        /* \"contracts/LandFiStake3.sol\":5068:5098  uint256 amt = userStakes[user] */\n      swap1\n      pop\n        /* \"contracts/LandFiStake3.sol\":5123:5124  0 */\n      0x00\n        /* \"contracts/LandFiStake3.sol\":5117:5120  amt */\n      dup2\n        /* \"contracts/LandFiStake3.sol\":5117:5124  amt > 0 */\n      gt\n        /* \"contracts/LandFiStake3.sol\":5113:5280  if (amt > 0) {... */\n      iszero\n      tag_174\n      jumpi\n        /* \"contracts/LandFiStake3.sol\":5145:5180  landFiToken.safeTransfer(user, amt) */\n      tag_175\n        /* \"contracts/LandFiStake3.sol\":5170:5174  user */\n      dup3\n        /* \"contracts/LandFiStake3.sol\":5176:5179  amt */\n      dup3\n        /* \"contracts/LandFiStake3.sol\":5145:5156  landFiToken */\n      immutable(\"0x3a2a6f4e0dcd4611e0c200ca45f55d44b54b380ac384ae0bef4a36eff139c211\")\n        /* \"contracts/LandFiStake3.sol\":5145:5169  landFiToken.safeTransfer */\n      0xffffffffffffffffffffffffffffffffffffffff\n      and\n      tag_153\n      swap1\n        /* \"contracts/LandFiStake3.sol\":5145:5180  landFiToken.safeTransfer(user, amt) */\n      swap3\n      swap2\n      swap1\n      0xffffffff\n      and\n      jump\t// in\n    tag_175:\n        /* \"contracts/LandFiStake3.sol\":5218:5219  0 */\n      0x00\n        /* \"contracts/LandFiStake3.sol\":5199:5209  userStakes */\n      0x06\n        /* \"contracts/LandFiStake3.sol\":5199:5215  userStakes[user] */\n      0x00\n        /* \"contracts/LandFiStake3.sol\":5210:5214  user */\n      dup5\n        /* \"contracts/LandFiStake3.sol\":5199:5215  userStakes[user] */\n      0xffffffffffffffffffffffffffffffffffffffff\n      and\n      0xffffffffffffffffffffffffffffffffffffffff\n      and\n      dup2\n      mstore\n      0x20\n      add\n      swap1\n      dup2\n      mstore\n      0x20\n      add\n      0x00\n      keccak256\n        /* \"contracts/LandFiStake3.sol\":5199:5219  userStakes[user] = 0 */\n      dup2\n      swap1\n      sstore\n      pop\n        /* \"contracts/LandFiStake3.sol\":5254:5258  user */\n      dup2\n        /* \"contracts/LandFiStake3.sol\":5243:5264  Terminated(user, amt) */\n      0xffffffffffffffffffffffffffffffffffffffff\n      and\n      0xb2372f309a2c0b54c10ce95469012d95c4d8cc7c8a154bfc22db66d993abbc71\n        /* \"contracts/LandFiStake3.sol\":5260:5263  amt */\n      dup3\n        /* \"contracts/LandFiStake3.sol\":5243:5264  Terminated(user, amt) */\n      mload(0x40)\n      tag_176\n      swap2\n      swap1\n      tag_58\n      jump\t// in\n    tag_176:\n      mload(0x40)\n      dup1\n      swap2\n      sub\n      swap1\n      log2\n        /* \"contracts/LandFiStake3.sol\":5113:5280  if (amt > 0) {... */\n    tag_174:\n        /* \"contracts/LandFiStake3.sol\":5010:5291  {... */\n      pop\n      pop\n        /* \"contracts/LandFiStake3.sol\":5005:5008  i++ */\n      dup1\n      dup1\n      0x01\n      add\n      swap2\n      pop\n      pop\n        /* \"contracts/LandFiStake3.sol\":4962:5291  for (uint256 i = 0; i < stakedList.length; i++) {... */\n      jump(tag_167)\n    tag_168:\n      pop\n        /* \"contracts/LandFiStake3.sol\":5317:5332  Status.Complete */\n      0x03\n        /* \"contracts/LandFiStake3.sol\":5301:5314  stakingStatus */\n      0x04\n      0x00\n        /* \"contracts/LandFiStake3.sol\":5301:5332  stakingStatus = Status.Complete */\n      0x0100\n      exp\n      dup2\n      sload\n      dup2\n      0xff\n      mul\n      not\n      and\n      swap1\n      dup4\n      0x03\n      dup2\n      gt\n      iszero\n      tag_177\n      jumpi\n      tag_178\n      tag_139\n      jump\t// in\n    tag_178:\n    tag_177:\n      mul\n      or\n      swap1\n      sstore\n      pop\n        /* \"@openzeppelin/contracts/security/ReentrancyGuard.sol\":2303:2323  _nonReentrantAfter() */\n      tag_179\n        /* \"@openzeppelin/contracts/security/ReentrancyGuard.sol\":2303:2321  _nonReentrantAfter */\n      tag_156\n        /* \"@openzeppelin/contracts/security/ReentrancyGuard.sol\":2303:2323  _nonReentrantAfter() */\n      jump\t// in\n    tag_179:\n        /* \"contracts/LandFiStake3.sol\":4895:5340  function terminateAll() external onlyOwner nonReentrant {... */\n      jump\t// out\n        /* \"contracts/LandFiStake3.sol\":578:613  address public immutable teamWallet */\n    tag_71:\n      immutable(\"0x07f054c10757ecd7ba45558d1f545708449fb2687cb03aabf8acf0687ec069b0\")\n      dup2\n      jump\t// out\n        /* \"contracts/LandFiStake3.sol\":788:826  uint256 public immutable maxTotalStake */\n    tag_74:\n      immutable(\"0x7705a66c05de96d79dddf8024a7669ad29d5b174f4aa496e3ca7c392f0ca18e1\")\n      dup2\n      jump\t// out\n        /* \"contracts/LandFiStake3.sol\":3995:4859  function distributeRewards() external onlyOwner nonReentrant {... */\n    tag_77:\n        /* \"@openzeppelin/contracts/access/Ownable.sol\":1531:1544  _checkOwner() */\n      tag_181\n        /* \"@openzeppelin/contracts/access/Ownable.sol\":1531:1542  _checkOwner */\n      tag_132\n        /* \"@openzeppelin/contracts/access/Ownable.sol\":1531:1544  _checkOwner() */\n      jump\t// in\n    tag_181:\n        /* \"@openzeppelin/contracts/security/ReentrancyGuard.sol\":2261:2282  _nonReentrantBefore() */\n      tag_183\n        /* \"@openzeppelin/contracts/security/ReentrancyGuard.sol\":2261:2280  _nonReentrantBefore */\n      tag_147\n        /* \"@openzeppelin/contracts/security/ReentrancyGuard.sol\":2261:2282  _nonReentrantBefore() */\n      jump\t// in\n    tag_183:\n        /* \"contracts/LandFiStake3.sol\":4092:4107  Status.Complete */\n      0x03\n        /* \"contracts/LandFiStake3.sol\":4075:4107  stakingStatus == Status.Complete */\n      dup1\n      dup2\n      gt\n      iszero\n      tag_185\n      jumpi\n      tag_186\n      tag_139\n      jump\t// in\n    tag_186:\n    tag_185:\n        /* \"contracts/LandFiStake3.sol\":4075:4088  stakingStatus */\n      0x04\n      0x00\n      swap1\n      sload\n      swap1\n      0x0100\n      exp\n      swap1\n      div\n      0xff\n      and\n        /* \"contracts/LandFiStake3.sol\":4075:4107  stakingStatus == Status.Complete */\n      0x03\n      dup2\n      gt\n      iszero\n      tag_187\n      jumpi\n      tag_188\n      tag_139\n      jump\t// in\n    tag_188:\n    tag_187:\n      eq\n        /* \"contracts/LandFiStake3.sol\":4067:4132  require(stakingStatus == Status.Complete, \"Staking not complete\") */\n      tag_189\n      jumpi\n      mload(0x40)\n      0x08c379a000000000000000000000000000000000000000000000000000000000\n      dup2\n      mstore\n      0x04\n      add\n      tag_190\n      swap1\n      tag_191\n      jump\t// in\n    tag_190:\n      mload(0x40)\n      dup1\n      swap2\n      sub\n      swap1\n      revert\n    tag_189:\n        /* \"contracts/LandFiStake3.sol\":4150:4159  uint256 i */\n      0x00\n        /* \"contracts/LandFiStake3.sol\":4162:4163  0 */\n      0x00\n        /* \"contracts/LandFiStake3.sol\":4150:4163  uint256 i = 0 */\n      swap1\n      pop\n        /* \"contracts/LandFiStake3.sol\":4145:4625  for (uint256 i = 0; i < stakedList.length; i++) {... */\n    tag_192:\n        /* \"contracts/LandFiStake3.sol\":4169:4179  stakedList */\n      0x07\n        /* \"contracts/LandFiStake3.sol\":4169:4186  stakedList.length */\n      dup1\n      sload\n      swap1\n      pop\n        /* \"contracts/LandFiStake3.sol\":4165:4166  i */\n      dup2\n        /* \"contracts/LandFiStake3.sol\":4165:4186  i < stakedList.length */\n      lt\n        /* \"contracts/LandFiStake3.sol\":4145:4625  for (uint256 i = 0; i < stakedList.length; i++) {... */\n      iszero\n      tag_193\n      jumpi\n        /* \"contracts/LandFiStake3.sol\":4208:4220  address user */\n      0x00\n        /* \"contracts/LandFiStake3.sol\":4223:4233  stakedList */\n      0x07\n        /* \"contracts/LandFiStake3.sol\":4234:4235  i */\n      dup3\n        /* \"contracts/LandFiStake3.sol\":4223:4236  stakedList[i] */\n      dup2\n      sload\n      dup2\n      lt\n      tag_195\n      jumpi\n      tag_196\n      tag_172\n      jump\t// in\n    tag_196:\n    tag_195:\n      swap1\n      0x00\n      mstore\n      keccak256(0x00, 0x20)\n      add\n      0x00\n      swap1\n      sload\n      swap1\n      0x0100\n      exp\n      swap1\n      div\n      0xffffffffffffffffffffffffffffffffffffffff\n      and\n        /* \"contracts/LandFiStake3.sol\":4208:4236  address user = stakedList[i] */\n      swap1\n      pop\n        /* \"contracts/LandFiStake3.sol\":4251:4268  uint256 userStake */\n      0x00\n        /* \"contracts/LandFiStake3.sol\":4271:4281  userStakes */\n      0x06\n        /* \"contracts/LandFiStake3.sol\":4271:4287  userStakes[user] */\n      0x00\n        /* \"contracts/LandFiStake3.sol\":4282:4286  user */\n      dup4\n        /* \"contracts/LandFiStake3.sol\":4271:4287  userStakes[user] */\n      0xffffffffffffffffffffffffffffffffffffffff\n      and\n      0xffffffffffffffffffffffffffffffffffffffff\n      and\n      dup2\n      mstore\n      0x20\n      add\n      swap1\n      dup2\n      mstore\n      0x20\n      add\n      0x00\n      keccak256\n      sload\n        /* \"contracts/LandFiStake3.sol\":4251:4287  uint256 userStake = userStakes[user] */\n      swap1\n      pop\n        /* \"contracts/LandFiStake3.sol\":4319:4320  0 */\n      0x00\n        /* \"contracts/LandFiStake3.sol\":4306:4315  userStake */\n      dup2\n        /* \"contracts/LandFiStake3.sol\":4306:4320  userStake == 0 */\n      sub\n        /* \"contracts/LandFiStake3.sol\":4302:4330  if (userStake == 0) continue */\n      tag_198\n      jumpi\n        /* \"contracts/LandFiStake3.sol\":4322:4330  continue */\n      pop\n      pop\n      jump(tag_194)\n        /* \"contracts/LandFiStake3.sol\":4302:4330  if (userStake == 0) continue */\n    tag_198:\n        /* \"contracts/LandFiStake3.sol\":4347:4361  uint256 reward */\n      0x00\n        /* \"contracts/LandFiStake3.sol\":4392:4403  totalStaked */\n      sload(0x05)\n        /* \"contracts/LandFiStake3.sol\":4377:4388  rewardTotal */\n      immutable(\"0x1ac5f1ff5c22b675095d7de80c4f0796d8bf1ebc411b96ebd8b39a839de5c12e\")\n        /* \"contracts/LandFiStake3.sol\":4365:4374  userStake */\n      dup4\n        /* \"contracts/LandFiStake3.sol\":4365:4388  userStake * rewardTotal */\n      tag_199\n      swap2\n      swap1\n      tag_200\n      jump\t// in\n    tag_199:\n        /* \"contracts/LandFiStake3.sol\":4364:4403  (userStake * rewardTotal) / totalStaked */\n      tag_201\n      swap2\n      swap1\n      tag_202\n      jump\t// in\n    tag_201:\n        /* \"contracts/LandFiStake3.sol\":4347:4403  uint256 reward = (userStake * rewardTotal) / totalStaked */\n      swap1\n      pop\n        /* \"contracts/LandFiStake3.sol\":4420:4461  landFiToken.safeTransfer(user, userStake) */\n      tag_203\n        /* \"contracts/LandFiStake3.sol\":4445:4449  user */\n      dup4\n        /* \"contracts/LandFiStake3.sol\":4451:4460  userStake */\n      dup4\n        /* \"contracts/LandFiStake3.sol\":4420:4431  landFiToken */\n      immutable(\"0x3a2a6f4e0dcd4611e0c200ca45f55d44b54b380ac384ae0bef4a36eff139c211\")\n        /* \"contracts/LandFiStake3.sol\":4420:4444  landFiToken.safeTransfer */\n      0xffffffffffffffffffffffffffffffffffffffff\n      and\n      tag_153\n      swap1\n        /* \"contracts/LandFiStake3.sol\":4420:4461  landFiToken.safeTransfer(user, userStake) */\n      swap3\n      swap2\n      swap1\n      0xffffffff\n      and\n      jump\t// in\n    tag_203:\n        /* \"contracts/LandFiStake3.sol\":4476:4514  rewardToken.safeTransfer(user, reward) */\n      tag_204\n        /* \"contracts/LandFiStake3.sol\":4501:4505  user */\n      dup4\n        /* \"contracts/LandFiStake3.sol\":4507:4513  reward */\n      dup3\n        /* \"contracts/LandFiStake3.sol\":4476:4487  rewardToken */\n      immutable(\"0x6357266b9d53c0f9af6b7cc53f59dc85b165702d9398eebfa95f674cadfbd638\")\n        /* \"contracts/LandFiStake3.sol\":4476:4500  rewardToken.safeTransfer */\n      0xffffffffffffffffffffffffffffffffffffffff\n      and\n      tag_153\n      swap1\n        /* \"contracts/LandFiStake3.sol\":4476:4514  rewardToken.safeTransfer(user, reward) */\n      swap3\n      swap2\n      swap1\n      0xffffffff\n      and\n      jump\t// in\n    tag_204:\n        /* \"contracts/LandFiStake3.sol\":4548:4549  0 */\n      0x00\n        /* \"contracts/LandFiStake3.sol\":4529:4539  userStakes */\n      0x06\n        /* \"contracts/LandFiStake3.sol\":4529:4545  userStakes[user] */\n      0x00\n        /* \"contracts/LandFiStake3.sol\":4540:4544  user */\n      dup6\n        /* \"contracts/LandFiStake3.sol\":4529:4545  userStakes[user] */\n      0xffffffffffffffffffffffffffffffffffffffff\n      and\n      0xffffffffffffffffffffffffffffffffffffffff\n      and\n      dup2\n      mstore\n      0x20\n      add\n      swap1\n      dup2\n      mstore\n      0x20\n      add\n      0x00\n      keccak256\n        /* \"contracts/LandFiStake3.sol\":4529:4549  userStakes[user] = 0 */\n      dup2\n      swap1\n      sstore\n      pop\n        /* \"contracts/LandFiStake3.sol\":4589:4593  user */\n      dup3\n        /* \"contracts/LandFiStake3.sol\":4571:4613  RewardDistributed(user, userStake, reward) */\n      0xffffffffffffffffffffffffffffffffffffffff\n      and\n      0x53118bff2fb56701752f5bf54053d24fb83cec92f9f6ce664b90c38a2991caa4\n        /* \"contracts/LandFiStake3.sol\":4595:4604  userStake */\n      dup4\n        /* \"contracts/LandFiStake3.sol\":4606:4612  reward */\n      dup4\n        /* \"contracts/LandFiStake3.sol\":4571:4613  RewardDistributed(user, userStake, reward) */\n      mload(0x40)\n      tag_205\n      swap3\n      swap2\n      swap1\n      tag_206\n      jump\t// in\n    tag_205:\n      mload(0x40)\n      dup1\n      swap2\n      sub\n      swap1\n      log2\n        /* \"contracts/LandFiStake3.sol\":4193:4625  {... */\n      pop\n      pop\n      pop\n        /* \"contracts/LandFiStake3.sol\":4145:4625  for (uint256 i = 0; i < stakedList.length; i++) {... */\n    tag_194:\n        /* \"contracts/LandFiStake3.sol\":4188:4191  i++ */\n      dup1\n      dup1\n      0x01\n      add\n      swap2\n      pop\n      pop\n        /* \"contracts/LandFiStake3.sol\":4145:4625  for (uint256 i = 0; i < stakedList.length; i++) {... */\n      jump(tag_192)\n    tag_193:\n      pop\n        /* \"contracts/LandFiStake3.sol\":4695:4711  uint256 leftover */\n      0x00\n        /* \"contracts/LandFiStake3.sol\":4714:4725  rewardToken */\n      immutable(\"0x6357266b9d53c0f9af6b7cc53f59dc85b165702d9398eebfa95f674cadfbd638\")\n        /* \"contracts/LandFiStake3.sol\":4714:4735  rewardToken.balanceOf */\n      0xffffffffffffffffffffffffffffffffffffffff\n      and\n      0x70a08231\n        /* \"contracts/LandFiStake3.sol\":4744:4748  this */\n      address\n        /* \"contracts/LandFiStake3.sol\":4714:4750  rewardToken.balanceOf(address(this)) */\n      mload(0x40)\n      dup3\n      0xffffffff\n      and\n      0xe0\n      shl\n      dup2\n      mstore\n      0x04\n      add\n      tag_207\n      swap2\n      swap1\n      tag_46\n      jump\t// in\n    tag_207:\n      0x20\n      mload(0x40)\n      dup1\n      dup4\n      sub\n      dup2\n      dup7\n      gas\n      staticcall\n      iszero\n      dup1\n      iszero\n      tag_209\n      jumpi\n      returndatacopy(0x00, 0x00, returndatasize)\n      revert(0x00, returndatasize)\n    tag_209:\n      pop\n      pop\n      pop\n      pop\n      mload(0x40)\n      returndatasize\n      not(0x1f)\n      0x1f\n      dup3\n      add\n      and\n      dup3\n      add\n      dup1\n      0x40\n      mstore\n      pop\n      dup2\n      add\n      swap1\n      tag_210\n      swap2\n      swap1\n      tag_211\n      jump\t// in\n    tag_210:\n        /* \"contracts/LandFiStake3.sol\":4695:4750  uint256 leftover = rewardToken.balanceOf(address(this)) */\n      swap1\n      pop\n        /* \"contracts/LandFiStake3.sol\":4776:4777  0 */\n      0x00\n        /* \"contracts/LandFiStake3.sol\":4765:4773  leftover */\n      dup2\n        /* \"contracts/LandFiStake3.sol\":4765:4777  leftover > 0 */\n      gt\n        /* \"contracts/LandFiStake3.sol\":4761:4852  if (leftover > 0) {... */\n      iszero\n      tag_212\n      jumpi\n        /* \"contracts/LandFiStake3.sol\":4794:4840  rewardToken.safeTransfer(teamWallet, leftover) */\n      tag_213\n        /* \"contracts/LandFiStake3.sol\":4819:4829  teamWallet */\n      immutable(\"0x07f054c10757ecd7ba45558d1f545708449fb2687cb03aabf8acf0687ec069b0\")\n        /* \"contracts/LandFiStake3.sol\":4831:4839  leftover */\n      dup3\n        /* \"contracts/LandFiStake3.sol\":4794:4805  rewardToken */\n      immutable(\"0x6357266b9d53c0f9af6b7cc53f59dc85b165702d9398eebfa95f674cadfbd638\")\n        /* \"contracts/LandFiStake3.sol\":4794:4818  rewardToken.safeTransfer */\n      0xffffffffffffffffffffffffffffffffffffffff\n      and\n      tag_153\n      swap1\n        /* \"contracts/LandFiStake3.sol\":4794:4840  rewardToken.safeTransfer(teamWallet, leftover) */\n      swap3\n      swap2\n      swap1\n      0xffffffff\n      and\n      jump\t// in\n    tag_213:\n        /* \"contracts/LandFiStake3.sol\":4761:4852  if (leftover > 0) {... */\n    tag_212:\n        /* \"contracts/LandFiStake3.sol\":4056:4859  {... */\n      pop\n        /* \"@openzeppelin/contracts/security/ReentrancyGuard.sol\":2303:2323  _nonReentrantAfter() */\n      tag_214\n        /* \"@openzeppelin/contracts/security/ReentrancyGuard.sol\":2303:2321  _nonReentrantAfter */\n      tag_156\n        /* \"@openzeppelin/contracts/security/ReentrancyGuard.sol\":2303:2323  _nonReentrantAfter() */\n      jump\t// in\n    tag_214:\n        /* \"contracts/LandFiStake3.sol\":3995:4859  function distributeRewards() external onlyOwner nonReentrant {... */\n      jump\t// out\n        /* \"@openzeppelin/contracts/access/Ownable.sol\":2293:2394  function renounceOwnership() public virtual onlyOwner {... */\n    tag_79:\n        /* \"@openzeppelin/contracts/access/Ownable.sol\":1531:1544  _checkOwner() */\n      tag_216\n        /* \"@openzeppelin/contracts/access/Ownable.sol\":1531:1542  _checkOwner */\n      tag_132\n        /* \"@openzeppelin/contracts/access/Ownable.sol\":1531:1544  _checkOwner() */\n      jump\t// in\n    tag_216:\n        /* \"@openzeppelin/contracts/access/Ownable.sol\":2357:2387  _transferOwnership(address(0)) */\n      tag_218\n        /* \"@openzeppelin/contracts/access/Ownable.sol\":2384:2385  0 */\n      0x00\n        /* \"@openzeppelin/contracts/access/Ownable.sol\":2357:2375  _transferOwnership */\n      tag_219\n        /* \"@openzeppelin/contracts/access/Ownable.sol\":2357:2387  _transferOwnership(address(0)) */\n      jump\t// in\n    tag_218:\n        /* \"@openzeppelin/contracts/access/Ownable.sol\":2293:2394  function renounceOwnership() public virtual onlyOwner {... */\n      jump\t// out\n        /* \"contracts/LandFiStake3.sol\":932:957  uint256 public launchTime */\n    tag_81:\n      sload(0x03)\n      dup2\n      jump\t// out\n        /* \"contracts/LandFiStake3.sol\":1015:1041  uint256 public totalStaked */\n    tag_84:\n      sload(0x05)\n      dup2\n      jump\t// out\n        /* \"contracts/LandFiStake3.sol\":2779:2863  function pause() external onlyOwner {... */\n    tag_87:\n        /* \"@openzeppelin/contracts/access/Ownable.sol\":1531:1544  _checkOwner() */\n      tag_221\n        /* \"@openzeppelin/contracts/access/Ownable.sol\":1531:1542  _checkOwner */\n      tag_132\n        /* \"@openzeppelin/contracts/access/Ownable.sol\":1531:1544  _checkOwner() */\n      jump\t// in\n    tag_221:\n        /* \"contracts/LandFiStake3.sol\":2842:2855  Status.Paused */\n      0x02\n        /* \"contracts/LandFiStake3.sol\":2826:2839  stakingStatus */\n      0x04\n      0x00\n        /* \"contracts/LandFiStake3.sol\":2826:2855  stakingStatus = Status.Paused */\n      0x0100\n      exp\n      dup2\n      sload\n      dup2\n      0xff\n      mul\n      not\n      and\n      swap1\n      dup4\n      0x03\n      dup2\n      gt\n      iszero\n      tag_223\n      jumpi\n      tag_224\n      tag_139\n      jump\t// in\n    tag_224:\n    tag_223:\n      mul\n      or\n      swap1\n      sstore\n      pop\n        /* \"contracts/LandFiStake3.sol\":2779:2863  function pause() external onlyOwner {... */\n      jump\t// out\n        /* \"@openzeppelin/contracts/access/Ownable.sol\":1638:1723  function owner() public view virtual returns (address) {... */\n    tag_89:\n        /* \"@openzeppelin/contracts/access/Ownable.sol\":1684:1691  address */\n      0x00\n        /* \"@openzeppelin/contracts/access/Ownable.sol\":1710:1716  _owner */\n      0x00\n      0x00\n      swap1\n      sload\n      swap1\n      0x0100\n      exp\n      swap1\n      div\n      0xffffffffffffffffffffffffffffffffffffffff\n      and\n        /* \"@openzeppelin/contracts/access/Ownable.sol\":1703:1716  return _owner */\n      swap1\n      pop\n        /* \"@openzeppelin/contracts/access/Ownable.sol\":1638:1723  function owner() public view virtual returns (address) {... */\n      swap1\n      jump\t// out\n        /* \"contracts/LandFiStake3.sol\":1050:1095  mapping(address => uint256) public userStakes */\n    tag_93:\n      mstore(0x20, 0x06)\n      dup1\n      0x00\n      mstore\n      keccak256(0x00, 0x40)\n      0x00\n      swap2\n      pop\n      swap1\n      pop\n      sload\n      dup2\n      jump\t// out\n        /* \"contracts/LandFiStake3.sol\":892:925  bool public launchStaking = false */\n    tag_96:\n      0x02\n      0x00\n      swap1\n      sload\n      swap1\n      0x0100\n      exp\n      swap1\n      div\n      0xff\n      and\n      dup2\n      jump\t// out\n        /* \"contracts/LandFiStake3.sol\":3230:3951  function stake(uint256 amount) external nonReentrant onlyRunning {... */\n    tag_101:\n        /* \"@openzeppelin/contracts/security/ReentrancyGuard.sol\":2261:2282  _nonReentrantBefore() */\n      tag_227\n        /* \"@openzeppelin/contracts/security/ReentrancyGuard.sol\":2261:2280  _nonReentrantBefore */\n      tag_147\n        /* \"@openzeppelin/contracts/security/ReentrancyGuard.sol\":2261:2282  _nonReentrantBefore() */\n      jump\t// in\n    tag_227:\n        /* \"contracts/LandFiStake3.sol\":1571:1585  Status.Running */\n      0x01\n        /* \"contracts/LandFiStake3.sol\":1554:1585  stakingStatus == Status.Running */\n      0x03\n      dup2\n      gt\n      iszero\n      tag_229\n      jumpi\n      tag_230\n      tag_139\n      jump\t// in\n    tag_230:\n    tag_229:\n        /* \"contracts/LandFiStake3.sol\":1554:1567  stakingStatus */\n      0x04\n      0x00\n      swap1\n      sload\n      swap1\n      0x0100\n      exp\n      swap1\n      div\n      0xff\n      and\n        /* \"contracts/LandFiStake3.sol\":1554:1585  stakingStatus == Status.Running */\n      0x03\n      dup2\n      gt\n      iszero\n      tag_231\n      jumpi\n      tag_232\n      tag_139\n      jump\t// in\n    tag_232:\n    tag_231:\n      eq\n        /* \"contracts/LandFiStake3.sol\":1546:1608  require(stakingStatus == Status.Running, \"Staking not active\") */\n      tag_233\n      jumpi\n      mload(0x40)\n      0x08c379a000000000000000000000000000000000000000000000000000000000\n      dup2\n      mstore\n      0x04\n      add\n      tag_234\n      swap1\n      tag_235\n      jump\t// in\n    tag_234:\n      mload(0x40)\n      dup1\n      swap2\n      sub\n      swap1\n      revert\n    tag_233:\n        /* \"contracts/LandFiStake3.sol\":3314:3327  launchStaking */\n      0x02\n      0x00\n      swap1\n      sload\n      swap1\n      0x0100\n      exp\n      swap1\n      div\n      0xff\n      and\n        /* \"contracts/LandFiStake3.sol\":3306:3348  require(launchStaking, \"Staking not live\") */\n      tag_237\n      jumpi\n      mload(0x40)\n      0x08c379a000000000000000000000000000000000000000000000000000000000\n      dup2\n      mstore\n      0x04\n      add\n      tag_238\n      swap1\n      tag_239\n      jump\t// in\n    tag_238:\n      mload(0x40)\n      dup1\n      swap2\n      sub\n      swap1\n      revert\n    tag_237:\n        /* \"contracts/LandFiStake3.sol\":3399:3410  buyDuration */\n      immutable(\"0x1599b065c17883492f21704cb8488060e90dc8dd041de3cfae3e3631a601abed\")\n        /* \"contracts/LandFiStake3.sol\":3386:3396  launchTime */\n      sload(0x03)\n        /* \"contracts/LandFiStake3.sol\":3386:3410  launchTime + buyDuration */\n      tag_240\n      swap2\n      swap1\n      tag_241\n      jump\t// in\n    tag_240:\n        /* \"contracts/LandFiStake3.sol\":3367:3382  block.timestamp */\n      timestamp\n        /* \"contracts/LandFiStake3.sol\":3367:3410  block.timestamp <= launchTime + buyDuration */\n      gt\n      iszero\n        /* \"contracts/LandFiStake3.sol\":3359:3430  require(block.timestamp <= launchTime + buyDuration, \"Buy period over\") */\n      tag_242\n      jumpi\n      mload(0x40)\n      0x08c379a000000000000000000000000000000000000000000000000000000000\n      dup2\n      mstore\n      0x04\n      add\n      tag_243\n      swap1\n      tag_244\n      jump\t// in\n    tag_243:\n      mload(0x40)\n      dup1\n      swap2\n      sub\n      swap1\n      revert\n    tag_242:\n        /* \"contracts/LandFiStake3.sol\":3459:3467  minStake */\n      immutable(\"0xdc2a25037b2bbcedb14daf80b8aa2c09c28caff3d2f2ec216b72117d71331e12\")\n        /* \"contracts/LandFiStake3.sol\":3449:3455  amount */\n      dup2\n        /* \"contracts/LandFiStake3.sol\":3449:3467  amount >= minStake */\n      lt\n      iszero\n        /* \"contracts/LandFiStake3.sol\":3441:3487  require(amount >= minStake, \"Below min stake\") */\n      tag_245\n      jumpi\n      mload(0x40)\n      0x08c379a000000000000000000000000000000000000000000000000000000000\n      dup2\n      mstore\n      0x04\n      add\n      tag_246\n      swap1\n      tag_247\n      jump\t// in\n    tag_246:\n      mload(0x40)\n      dup1\n      swap2\n      sub\n      swap1\n      revert\n    tag_245:\n        /* \"contracts/LandFiStake3.sol\":3541:3549  maxStake */\n      immutable(\"0x7788a34765a1848103cae61102f343cc0b1a9985ae3a59de22223016042ad663\")\n        /* \"contracts/LandFiStake3.sol\":3531:3537  amount */\n      dup2\n        /* \"contracts/LandFiStake3.sol\":3506:3516  userStakes */\n      0x06\n        /* \"contracts/LandFiStake3.sol\":3506:3528  userStakes[msg.sender] */\n      0x00\n        /* \"contracts/LandFiStake3.sol\":3517:3527  msg.sender */\n      caller\n        /* \"contracts/LandFiStake3.sol\":3506:3528  userStakes[msg.sender] */\n      0xffffffffffffffffffffffffffffffffffffffff\n      and\n      0xffffffffffffffffffffffffffffffffffffffff\n      and\n      dup2\n      mstore\n      0x20\n      add\n      swap1\n      dup2\n      mstore\n      0x20\n      add\n      0x00\n      keccak256\n      sload\n        /* \"contracts/LandFiStake3.sol\":3506:3537  userStakes[msg.sender] + amount */\n      tag_248\n      swap2\n      swap1\n      tag_241\n      jump\t// in\n    tag_248:\n        /* \"contracts/LandFiStake3.sol\":3506:3549  userStakes[msg.sender] + amount <= maxStake */\n      gt\n      iszero\n        /* \"contracts/LandFiStake3.sol\":3498:3571  require(userStakes[msg.sender] + amount <= maxStake, \"Exceeds max stake\") */\n      tag_249\n      jumpi\n      mload(0x40)\n      0x08c379a000000000000000000000000000000000000000000000000000000000\n      dup2\n      mstore\n      0x04\n      add\n      tag_250\n      swap1\n      tag_251\n      jump\t// in\n    tag_250:\n      mload(0x40)\n      dup1\n      swap2\n      sub\n      swap1\n      revert\n    tag_249:\n        /* \"contracts/LandFiStake3.sol\":3614:3627  maxTotalStake */\n      immutable(\"0x7705a66c05de96d79dddf8024a7669ad29d5b174f4aa496e3ca7c392f0ca18e1\")\n        /* \"contracts/LandFiStake3.sol\":3604:3610  amount */\n      dup2\n        /* \"contracts/LandFiStake3.sol\":3590:3601  totalStaked */\n      sload(0x05)\n        /* \"contracts/LandFiStake3.sol\":3590:3610  totalStaked + amount */\n      tag_252\n      swap2\n      swap1\n      tag_241\n      jump\t// in\n    tag_252:\n        /* \"contracts/LandFiStake3.sol\":3590:3627  totalStaked + amount <= maxTotalStake */\n      gt\n      iszero\n        /* \"contracts/LandFiStake3.sol\":3582:3650  require(totalStaked + amount <= maxTotalStake, \"Exceeds total pool\") */\n      tag_253\n      jumpi\n      mload(0x40)\n      0x08c379a000000000000000000000000000000000000000000000000000000000\n      dup2\n      mstore\n      0x04\n      add\n      tag_254\n      swap1\n      tag_255\n      jump\t// in\n    tag_254:\n      mload(0x40)\n      dup1\n      swap2\n      sub\n      swap1\n      revert\n    tag_253:\n        /* \"contracts/LandFiStake3.sol\":3693:3694  0 */\n      0x00\n        /* \"contracts/LandFiStake3.sol\":3667:3677  userStakes */\n      0x06\n        /* \"contracts/LandFiStake3.sol\":3667:3689  userStakes[msg.sender] */\n      0x00\n        /* \"contracts/LandFiStake3.sol\":3678:3688  msg.sender */\n      caller\n        /* \"contracts/LandFiStake3.sol\":3667:3689  userStakes[msg.sender] */\n      0xffffffffffffffffffffffffffffffffffffffff\n      and\n      0xffffffffffffffffffffffffffffffffffffffff\n      and\n      dup2\n      mstore\n      0x20\n      add\n      swap1\n      dup2\n      mstore\n      0x20\n      add\n      0x00\n      keccak256\n      sload\n        /* \"contracts/LandFiStake3.sol\":3667:3694  userStakes[msg.sender] == 0 */\n      sub\n        /* \"contracts/LandFiStake3.sol\":3663:3750  if (userStakes[msg.sender] == 0) {... */\n      tag_256\n      jumpi\n        /* \"contracts/LandFiStake3.sol\":3711:3721  stakedList */\n      0x07\n        /* \"contracts/LandFiStake3.sol\":3727:3737  msg.sender */\n      caller\n        /* \"contracts/LandFiStake3.sol\":3711:3738  stakedList.push(msg.sender) */\n      swap1\n      dup1\n      0x01\n      dup2\n      sload\n      add\n      dup1\n      dup3\n      sstore\n      dup1\n      swap2\n      pop\n      pop\n      0x01\n      swap1\n      sub\n      swap1\n      0x00\n      mstore\n      keccak256(0x00, 0x20)\n      add\n      0x00\n      swap1\n      swap2\n      swap1\n      swap2\n      swap1\n      swap2\n      0x0100\n      exp\n      dup2\n      sload\n      dup2\n      0xffffffffffffffffffffffffffffffffffffffff\n      mul\n      not\n      and\n      swap1\n      dup4\n      0xffffffffffffffffffffffffffffffffffffffff\n      and\n      mul\n      or\n      swap1\n      sstore\n      pop\n        /* \"contracts/LandFiStake3.sol\":3663:3750  if (userStakes[msg.sender] == 0) {... */\n    tag_256:\n        /* \"contracts/LandFiStake3.sol\":3762:3825  landFiToken.safeTransferFrom(msg.sender, address(this), amount) */\n      tag_258\n        /* \"contracts/LandFiStake3.sol\":3791:3801  msg.sender */\n      caller\n        /* \"contracts/LandFiStake3.sol\":3811:3815  this */\n      address\n        /* \"contracts/LandFiStake3.sol\":3818:3824  amount */\n      dup4\n        /* \"contracts/LandFiStake3.sol\":3762:3773  landFiToken */\n      immutable(\"0x3a2a6f4e0dcd4611e0c200ca45f55d44b54b380ac384ae0bef4a36eff139c211\")\n        /* \"contracts/LandFiStake3.sol\":3762:3790  landFiToken.safeTransferFrom */\n      0xffffffffffffffffffffffffffffffffffffffff\n      and\n      tag_259\n      swap1\n        /* \"contracts/LandFiStake3.sol\":3762:3825  landFiToken.safeTransferFrom(msg.sender, address(this), amount) */\n      swap4\n      swap3\n      swap2\n      swap1\n      0xffffffff\n      and\n      jump\t// in\n    tag_258:\n        /* \"contracts/LandFiStake3.sol\":3862:3868  amount */\n      dup1\n        /* \"contracts/LandFiStake3.sol\":3836:3846  userStakes */\n      0x06\n        /* \"contracts/LandFiStake3.sol\":3836:3858  userStakes[msg.sender] */\n      0x00\n        /* \"contracts/LandFiStake3.sol\":3847:3857  msg.sender */\n      caller\n        /* \"contracts/LandFiStake3.sol\":3836:3858  userStakes[msg.sender] */\n      0xffffffffffffffffffffffffffffffffffffffff\n      and\n      0xffffffffffffffffffffffffffffffffffffffff\n      and\n      dup2\n      mstore\n      0x20\n      add\n      swap1\n      dup2\n      mstore\n      0x20\n      add\n      0x00\n      keccak256\n      0x00\n        /* \"contracts/LandFiStake3.sol\":3836:3868  userStakes[msg.sender] += amount */\n      dup3\n      dup3\n      sload\n      tag_260\n      swap2\n      swap1\n      tag_241\n      jump\t// in\n    tag_260:\n      swap3\n      pop\n      pop\n      dup2\n      swap1\n      sstore\n      pop\n        /* \"contracts/LandFiStake3.sol\":3894:3900  amount */\n      dup1\n        /* \"contracts/LandFiStake3.sol\":3879:3890  totalStaked */\n      0x05\n      0x00\n        /* \"contracts/LandFiStake3.sol\":3879:3900  totalStaked += amount */\n      dup3\n      dup3\n      sload\n      tag_261\n      swap2\n      swap1\n      tag_241\n      jump\t// in\n    tag_261:\n      swap3\n      pop\n      pop\n      dup2\n      swap1\n      sstore\n      pop\n        /* \"contracts/LandFiStake3.sol\":3924:3934  msg.sender */\n      caller\n        /* \"contracts/LandFiStake3.sol\":3918:3943  Stake(msg.sender, amount) */\n      0xffffffffffffffffffffffffffffffffffffffff\n      and\n      0xebedb8b3c678666e7f36970bc8f57abf6d8fa2e828c0da91ea5b75bf68ed101a\n        /* \"contracts/LandFiStake3.sol\":3936:3942  amount */\n      dup3\n        /* \"contracts/LandFiStake3.sol\":3918:3943  Stake(msg.sender, amount) */\n      mload(0x40)\n      tag_262\n      swap2\n      swap1\n      tag_58\n      jump\t// in\n    tag_262:\n      mload(0x40)\n      dup1\n      swap2\n      sub\n      swap1\n      log2\n        /* \"@openzeppelin/contracts/security/ReentrancyGuard.sol\":2303:2323  _nonReentrantAfter() */\n      tag_263\n        /* \"@openzeppelin/contracts/security/ReentrancyGuard.sol\":2303:2321  _nonReentrantAfter */\n      tag_156\n        /* \"@openzeppelin/contracts/security/ReentrancyGuard.sol\":2303:2323  _nonReentrantAfter() */\n      jump\t// in\n    tag_263:\n        /* \"contracts/LandFiStake3.sol\":3230:3951  function stake(uint256 amount) external nonReentrant onlyRunning {... */\n      pop\n      jump\t// out\n        /* \"contracts/LandFiStake3.sol\":5888:6086  function previewReward(uint256 amount) external view returns (uint256 reward) {... */\n    tag_104:\n        /* \"contracts/LandFiStake3.sol\":5950:5964  uint256 reward */\n      0x00\n        /* \"contracts/LandFiStake3.sol\":5996:5997  0 */\n      0x00\n        /* \"contracts/LandFiStake3.sol\":5981:5992  totalStaked */\n      sload(0x05)\n        /* \"contracts/LandFiStake3.sol\":5981:5997  totalStaked == 0 */\n      eq\n        /* \"contracts/LandFiStake3.sol\":5981:6012  totalStaked == 0 || amount == 0 */\n      dup1\n      tag_265\n      jumpi\n      pop\n        /* \"contracts/LandFiStake3.sol\":6011:6012  0 */\n      0x00\n        /* \"contracts/LandFiStake3.sol\":6001:6007  amount */\n      dup3\n        /* \"contracts/LandFiStake3.sol\":6001:6012  amount == 0 */\n      eq\n        /* \"contracts/LandFiStake3.sol\":5981:6012  totalStaked == 0 || amount == 0 */\n    tag_265:\n        /* \"contracts/LandFiStake3.sol\":5977:6022  if (totalStaked == 0 || amount == 0) return 0 */\n      iszero\n      tag_266\n      jumpi\n        /* \"contracts/LandFiStake3.sol\":6021:6022  0 */\n      0x00\n        /* \"contracts/LandFiStake3.sol\":6014:6022  return 0 */\n      swap1\n      pop\n      jump(tag_264)\n        /* \"contracts/LandFiStake3.sol\":5977:6022  if (totalStaked == 0 || amount == 0) return 0 */\n    tag_266:\n        /* \"contracts/LandFiStake3.sol\":6067:6078  totalStaked */\n      sload(0x05)\n        /* \"contracts/LandFiStake3.sol\":6052:6063  rewardTotal */\n      immutable(\"0x1ac5f1ff5c22b675095d7de80c4f0796d8bf1ebc411b96ebd8b39a839de5c12e\")\n        /* \"contracts/LandFiStake3.sol\":6043:6049  amount */\n      dup4\n        /* \"contracts/LandFiStake3.sol\":6043:6063  amount * rewardTotal */\n      tag_267\n      swap2\n      swap1\n      tag_200\n      jump\t// in\n    tag_267:\n        /* \"contracts/LandFiStake3.sol\":6042:6078  (amount * rewardTotal) / totalStaked */\n      tag_268\n      swap2\n      swap1\n      tag_202\n      jump\t// in\n    tag_268:\n        /* \"contracts/LandFiStake3.sol\":6033:6078  reward = (amount * rewardTotal) / totalStaked */\n      swap1\n      pop\n        /* \"contracts/LandFiStake3.sol\":5888:6086  function previewReward(uint256 amount) external view returns (uint256 reward) {... */\n    tag_264:\n      swap2\n      swap1\n      pop\n      jump\t// out\n        /* \"contracts/LandFiStake3.sol\":5782:5880  function getStakingStatus() external view returns (Status) {... */\n    tag_107:\n        /* \"contracts/LandFiStake3.sol\":5833:5839  Status */\n      0x00\n        /* \"contracts/LandFiStake3.sol\":5859:5872  stakingStatus */\n      0x04\n      0x00\n      swap1\n      sload\n      swap1\n      0x0100\n      exp\n      swap1\n      div\n      0xff\n      and\n        /* \"contracts/LandFiStake3.sol\":5852:5872  return stakingStatus */\n      swap1\n      pop\n        /* \"contracts/LandFiStake3.sol\":5782:5880  function getStakingStatus() external view returns (Status) {... */\n      swap1\n      jump\t// out\n        /* \"contracts/LandFiStake3.sol\":5671:5774  function getStakedUsers() external view returns (address[] memory) {... */\n    tag_110:\n        /* \"contracts/LandFiStake3.sol\":5720:5736  address[] memory */\n      0x60\n        /* \"contracts/LandFiStake3.sol\":5756:5766  stakedList */\n      0x07\n        /* \"contracts/LandFiStake3.sol\":5749:5766  return stakedList */\n      dup1\n      sload\n      dup1\n      0x20\n      mul\n      0x20\n      add\n      mload(0x40)\n      swap1\n      dup2\n      add\n      0x40\n      mstore\n      dup1\n      swap3\n      swap2\n      swap1\n      dup2\n      dup2\n      mstore\n      0x20\n      add\n      dup3\n      dup1\n      sload\n      dup1\n      iszero\n      tag_271\n      jumpi\n      0x20\n      mul\n      dup3\n      add\n      swap2\n      swap1\n      0x00\n      mstore\n      keccak256(0x00, 0x20)\n      swap1\n    tag_272:\n      dup2\n      0x00\n      swap1\n      sload\n      swap1\n      0x0100\n      exp\n      swap1\n      div\n      0xffffffffffffffffffffffffffffffffffffffff\n      and\n      0xffffffffffffffffffffffffffffffffffffffff\n      and\n      dup2\n      mstore\n      0x20\n      add\n      swap1\n      0x01\n      add\n      swap1\n      dup1\n      dup4\n      gt\n      tag_272\n      jumpi\n    tag_271:\n      pop\n      pop\n      pop\n      pop\n      pop\n      swap1\n      pop\n        /* \"contracts/LandFiStake3.sol\":5671:5774  function getStakedUsers() external view returns (address[] memory) {... */\n      swap1\n      jump\t// out\n        /* \"contracts/LandFiStake3.sol\":620:656  uint256 public immutable buyDuration */\n    tag_114:\n      immutable(\"0x1599b065c17883492f21704cb8488060e90dc8dd041de3cfae3e3631a601abed\")\n      dup2\n      jump\t// out\n        /* \"contracts/LandFiStake3.sol\":748:781  uint256 public immutable maxStake */\n    tag_117:\n      immutable(\"0x7788a34765a1848103cae61102f343cc0b1a9985ae3a59de22223016042ad663\")\n      dup2\n      jump\t// out\n        /* \"@openzeppelin/contracts/access/Ownable.sol\":2543:2758  function transferOwnership(address newOwner) public virtual onlyOwner {... */\n    tag_121:\n        /* \"@openzeppelin/contracts/access/Ownable.sol\":1531:1544  _checkOwner() */\n      tag_274\n        /* \"@openzeppelin/contracts/access/Ownable.sol\":1531:1542  _checkOwner */\n      tag_132\n        /* \"@openzeppelin/contracts/access/Ownable.sol\":1531:1544  _checkOwner() */\n      jump\t// in\n    tag_274:\n        /* \"@openzeppelin/contracts/access/Ownable.sol\":2647:2648  0 */\n      0x00\n        /* \"@openzeppelin/contracts/access/Ownable.sol\":2627:2649  newOwner == address(0) */\n      0xffffffffffffffffffffffffffffffffffffffff\n      and\n        /* \"@openzeppelin/contracts/access/Ownable.sol\":2627:2635  newOwner */\n      dup2\n        /* \"@openzeppelin/contracts/access/Ownable.sol\":2627:2649  newOwner == address(0) */\n      0xffffffffffffffffffffffffffffffffffffffff\n      and\n      sub\n        /* \"@openzeppelin/contracts/access/Ownable.sol\":2623:2714  if (newOwner == address(0)) {... */\n      tag_276\n      jumpi\n        /* \"@openzeppelin/contracts/access/Ownable.sol\":2700:2701  0 */\n      0x00\n        /* \"@openzeppelin/contracts/access/Ownable.sol\":2672:2703  OwnableInvalidOwner(address(0)) */\n      mload(0x40)\n      0x1e4fbdf700000000000000000000000000000000000000000000000000000000\n      dup2\n      mstore\n      0x04\n      add\n      tag_277\n      swap2\n      swap1\n      tag_46\n      jump\t// in\n    tag_277:\n      mload(0x40)\n      dup1\n      swap2\n      sub\n      swap1\n      revert\n        /* \"@openzeppelin/contracts/access/Ownable.sol\":2623:2714  if (newOwner == address(0)) {... */\n    tag_276:\n        /* \"@openzeppelin/contracts/access/Ownable.sol\":2723:2751  _transferOwnership(newOwner) */\n      tag_278\n        /* \"@openzeppelin/contracts/access/Ownable.sol\":2742:2750  newOwner */\n      dup2\n        /* \"@openzeppelin/contracts/access/Ownable.sol\":2723:2741  _transferOwnership */\n      tag_219\n        /* \"@openzeppelin/contracts/access/Ownable.sol\":2723:2751  _transferOwnership(newOwner) */\n      jump\t// in\n    tag_278:\n        /* \"@openzeppelin/contracts/access/Ownable.sol\":2543:2758  function transferOwnership(address newOwner) public virtual onlyOwner {... */\n      pop\n      jump\t// out\n        /* \"contracts/LandFiStake3.sol\":536:571  IERC20 public immutable rewardToken */\n    tag_123:\n      immutable(\"0x6357266b9d53c0f9af6b7cc53f59dc85b165702d9398eebfa95f674cadfbd638\")\n      dup2\n      jump\t// out\n        /* \"contracts/LandFiStake3.sol\":833:869  uint256 public immutable rewardTotal */\n    tag_126:\n      immutable(\"0x1ac5f1ff5c22b675095d7de80c4f0796d8bf1ebc411b96ebd8b39a839de5c12e\")\n      dup2\n      jump\t// out\n        /* \"contracts/LandFiStake3.sol\":2966:3200  function completeStaking() external onlyOwner {... */\n    tag_129:\n        /* \"@openzeppelin/contracts/access/Ownable.sol\":1531:1544  _checkOwner() */\n      tag_280\n        /* \"@openzeppelin/contracts/access/Ownable.sol\":1531:1542  _checkOwner */\n      tag_132\n        /* \"@openzeppelin/contracts/access/Ownable.sol\":1531:1544  _checkOwner() */\n      jump\t// in\n    tag_280:\n        /* \"contracts/LandFiStake3.sol\":3076:3089  stakeDuration */\n      immutable(\"0x6dada6d1ec3b2e3878674118e8d86948ebe4d584ee013eb690e56f8e53016879\")\n        /* \"contracts/LandFiStake3.sol\":3062:3073  buyDuration */\n      immutable(\"0x1599b065c17883492f21704cb8488060e90dc8dd041de3cfae3e3631a601abed\")\n        /* \"contracts/LandFiStake3.sol\":3049:3059  launchTime */\n      sload(0x03)\n        /* \"contracts/LandFiStake3.sol\":3049:3073  launchTime + buyDuration */\n      tag_282\n      swap2\n      swap1\n      tag_241\n      jump\t// in\n    tag_282:\n        /* \"contracts/LandFiStake3.sol\":3049:3089  launchTime + buyDuration + stakeDuration */\n      tag_283\n      swap2\n      swap1\n      tag_241\n      jump\t// in\n    tag_283:\n        /* \"contracts/LandFiStake3.sol\":3031:3046  block.timestamp */\n      timestamp\n        /* \"contracts/LandFiStake3.sol\":3031:3089  block.timestamp > launchTime + buyDuration + stakeDuration */\n      gt\n        /* \"contracts/LandFiStake3.sol\":3023:3109  require(block.timestamp > launchTime + buyDuration + stakeDuration, \"Stake not ended\") */\n      tag_284\n      jumpi\n      mload(0x40)\n      0x08c379a000000000000000000000000000000000000000000000000000000000\n      dup2\n      mstore\n      0x04\n      add\n      tag_285\n      swap1\n      tag_286\n      jump\t// in\n    tag_285:\n      mload(0x40)\n      dup1\n      swap2\n      sub\n      swap1\n      revert\n    tag_284:\n        /* \"contracts/LandFiStake3.sol\":3136:3151  Status.Complete */\n      0x03\n        /* \"contracts/LandFiStake3.sol\":3120:3133  stakingStatus */\n      0x04\n      0x00\n        /* \"contracts/LandFiStake3.sol\":3120:3151  stakingStatus = Status.Complete */\n      0x0100\n      exp\n      dup2\n      sload\n      dup2\n      0xff\n      mul\n      not\n      and\n      swap1\n      dup4\n      0x03\n      dup2\n      gt\n      iszero\n      tag_287\n      jumpi\n      tag_288\n      tag_139\n      jump\t// in\n    tag_288:\n    tag_287:\n      mul\n      or\n      swap1\n      sstore\n      pop\n        /* \"contracts/LandFiStake3.sol\":3167:3192  Complete(block.timestamp) */\n      0xaaaf03c480f43393f2414d5013b316f6cc36576bed29ae1ea15d8936dcc0d5e7\n        /* \"contracts/LandFiStake3.sol\":3176:3191  block.timestamp */\n      timestamp\n        /* \"contracts/LandFiStake3.sol\":3167:3192  Complete(block.timestamp) */\n      mload(0x40)\n      tag_289\n      swap2\n      swap1\n      tag_58\n      jump\t// in\n    tag_289:\n      mload(0x40)\n      dup1\n      swap2\n      sub\n      swap1\n      log1\n        /* \"contracts/LandFiStake3.sol\":2966:3200  function completeStaking() external onlyOwner {... */\n      jump\t// out\n        /* \"@openzeppelin/contracts/access/Ownable.sol\":1796:1958  function _checkOwner() internal view virtual {... */\n    tag_132:\n        /* \"@openzeppelin/contracts/access/Ownable.sol\":1866:1878  _msgSender() */\n      tag_291\n        /* \"@openzeppelin/contracts/access/Ownable.sol\":1866:1876  _msgSender */\n      tag_292\n        /* \"@openzeppelin/contracts/access/Ownable.sol\":1866:1878  _msgSender() */\n      jump\t// in\n    tag_291:\n        /* \"@openzeppelin/contracts/access/Ownable.sol\":1855:1878  owner() != _msgSender() */\n      0xffffffffffffffffffffffffffffffffffffffff\n      and\n        /* \"@openzeppelin/contracts/access/Ownable.sol\":1855:1862  owner() */\n      tag_293\n        /* \"@openzeppelin/contracts/access/Ownable.sol\":1855:1860  owner */\n      tag_89\n        /* \"@openzeppelin/contracts/access/Ownable.sol\":1855:1862  owner() */\n      jump\t// in\n    tag_293:\n        /* \"@openzeppelin/contracts/access/Ownable.sol\":1855:1878  owner() != _msgSender() */\n      0xffffffffffffffffffffffffffffffffffffffff\n      and\n      eq\n        /* \"@openzeppelin/contracts/access/Ownable.sol\":1851:1952  if (owner() != _msgSender()) {... */\n      tag_294\n      jumpi\n        /* \"@openzeppelin/contracts/access/Ownable.sol\":1928:1940  _msgSender() */\n      tag_295\n        /* \"@openzeppelin/contracts/access/Ownable.sol\":1928:1938  _msgSender */\n      tag_292\n        /* \"@openzeppelin/contracts/access/Ownable.sol\":1928:1940  _msgSender() */\n      jump\t// in\n    tag_295:\n        /* \"@openzeppelin/contracts/access/Ownable.sol\":1901:1941  OwnableUnauthorizedAccount(_msgSender()) */\n      mload(0x40)\n      0x118cdaa700000000000000000000000000000000000000000000000000000000\n      dup2\n      mstore\n      0x04\n      add\n      tag_296\n      swap2\n      swap1\n      tag_46\n      jump\t// in\n    tag_296:\n      mload(0x40)\n      dup1\n      swap2\n      sub\n      swap1\n      revert\n        /* \"@openzeppelin/contracts/access/Ownable.sol\":1851:1952  if (owner() != _msgSender()) {... */\n    tag_294:\n        /* \"@openzeppelin/contracts/access/Ownable.sol\":1796:1958  function _checkOwner() internal view virtual {... */\n      jump\t// out\n        /* \"@openzeppelin/contracts/security/ReentrancyGuard.sol\":2336:2623  function _nonReentrantBefore() private {... */\n    tag_147:\n        /* \"@openzeppelin/contracts/security/ReentrancyGuard.sol\":1759:1760  2 */\n      0x02\n        /* \"@openzeppelin/contracts/security/ReentrancyGuard.sol\":2468:2475  _status */\n      sload(0x01)\n        /* \"@openzeppelin/contracts/security/ReentrancyGuard.sol\":2468:2487  _status != _ENTERED */\n      sub\n        /* \"@openzeppelin/contracts/security/ReentrancyGuard.sol\":2460:2523  require(_status != _ENTERED, \"ReentrancyGuard: reentrant call\") */\n      tag_298\n      jumpi\n      mload(0x40)\n      0x08c379a000000000000000000000000000000000000000000000000000000000\n      dup2\n      mstore\n      0x04\n      add\n      tag_299\n      swap1\n      tag_300\n      jump\t// in\n    tag_299:\n      mload(0x40)\n      dup1\n      swap2\n      sub\n      swap1\n      revert\n    tag_298:\n        /* \"@openzeppelin/contracts/security/ReentrancyGuard.sol\":1759:1760  2 */\n      0x02\n        /* \"@openzeppelin/contracts/security/ReentrancyGuard.sol\":2598:2605  _status */\n      0x01\n        /* \"@openzeppelin/contracts/security/ReentrancyGuard.sol\":2598:2616  _status = _ENTERED */\n      dup2\n      swap1\n      sstore\n      pop\n        /* \"@openzeppelin/contracts/security/ReentrancyGuard.sol\":2336:2623  function _nonReentrantBefore() private {... */\n      jump\t// out\n        /* \"@openzeppelin/contracts/token/ERC20/utils/SafeERC20.sol\":1219:1379  function safeTransfer(IERC20 token, address to, uint256 value) internal {... */\n    tag_153:\n        /* \"@openzeppelin/contracts/token/ERC20/utils/SafeERC20.sol\":1301:1372  _callOptionalReturn(token, abi.encodeCall(token.transfer, (to, value))) */\n      tag_302\n        /* \"@openzeppelin/contracts/token/ERC20/utils/SafeERC20.sol\":1321:1326  token */\n      dup4\n        /* \"@openzeppelin/contracts/token/ERC20/utils/SafeERC20.sol\":1343:1348  token */\n      dup5\n        /* \"@openzeppelin/contracts/token/ERC20/utils/SafeERC20.sol\":1343:1357  token.transfer */\n      0xffffffffffffffffffffffffffffffffffffffff\n      and\n      0xa9059cbb\n        /* \"@openzeppelin/contracts/token/ERC20/utils/SafeERC20.sol\":1360:1362  to */\n      dup6\n        /* \"@openzeppelin/contracts/token/ERC20/utils/SafeERC20.sol\":1364:1369  value */\n      dup6\n        /* \"@openzeppelin/contracts/token/ERC20/utils/SafeERC20.sol\":1328:1371  abi.encodeCall(token.transfer, (to, value)) */\n      add(0x24, mload(0x40))\n      tag_303\n      swap3\n      swap2\n      swap1\n      tag_304\n      jump\t// in\n    tag_303:\n      mload(0x40)\n      0x20\n      dup2\n      dup4\n      sub\n      sub\n      dup2\n      mstore\n      swap1\n      0x40\n      mstore\n      swap2\n      pop\n      0xe0\n      shl\n      0x20\n      dup3\n      add\n      dup1\n      mload\n      0xffffffffffffffffffffffffffffffffffffffffffffffffffffffff\n      dup4\n      dup2\n      dup4\n      and\n      or\n      dup4\n      mstore\n      pop\n      pop\n      pop\n      pop\n        /* \"@openzeppelin/contracts/token/ERC20/utils/SafeERC20.sol\":1301:1320  _callOptionalReturn */\n      tag_305\n        /* \"@openzeppelin/contracts/token/ERC20/utils/SafeERC20.sol\":1301:1372  _callOptionalReturn(token, abi.encodeCall(token.transfer, (to, value))) */\n      jump\t// in\n    tag_302:\n        /* \"@openzeppelin/contracts/token/ERC20/utils/SafeERC20.sol\":1219:1379  function safeTransfer(IERC20 token, address to, uint256 value) internal {... */\n      pop\n      pop\n      pop\n      jump\t// out\n        /* \"@openzeppelin/contracts/security/ReentrancyGuard.sol\":2629:2838  function _nonReentrantAfter() private {... */\n    tag_156:\n        /* \"@openzeppelin/contracts/security/ReentrancyGuard.sol\":1716:1717  1 */\n      0x01\n        /* \"@openzeppelin/contracts/security/ReentrancyGuard.sol\":2809:2816  _status */\n      dup1\n        /* \"@openzeppelin/contracts/security/ReentrancyGuard.sol\":2809:2831  _status = _NOT_ENTERED */\n      dup2\n      swap1\n      sstore\n      pop\n        /* \"@openzeppelin/contracts/security/ReentrancyGuard.sol\":2629:2838  function _nonReentrantAfter() private {... */\n      jump\t// out\n        /* \"@openzeppelin/contracts/access/Ownable.sol\":2912:3099  function _transferOwnership(address newOwner) internal virtual {... */\n    tag_219:\n        /* \"@openzeppelin/contracts/access/Ownable.sol\":2985:3001  address oldOwner */\n      0x00\n        /* \"@openzeppelin/contracts/access/Ownable.sol\":3004:3010  _owner */\n      0x00\n      0x00\n      swap1\n      sload\n      swap1\n      0x0100\n      exp\n      swap1\n      div\n      0xffffffffffffffffffffffffffffffffffffffff\n      and\n        /* \"@openzeppelin/contracts/access/Ownable.sol\":2985:3010  address oldOwner = _owner */\n      swap1\n      pop\n        /* \"@openzeppelin/contracts/access/Ownable.sol\":3029:3037  newOwner */\n      dup2\n        /* \"@openzeppelin/contracts/access/Ownable.sol\":3020:3026  _owner */\n      0x00\n      0x00\n        /* \"@openzeppelin/contracts/access/Ownable.sol\":3020:3037  _owner = newOwner */\n      0x0100\n      exp\n      dup2\n      sload\n      dup2\n      0xffffffffffffffffffffffffffffffffffffffff\n      mul\n      not\n      and\n      swap1\n      dup4\n      0xffffffffffffffffffffffffffffffffffffffff\n      and\n      mul\n      or\n      swap1\n      sstore\n      pop\n        /* \"@openzeppelin/contracts/access/Ownable.sol\":3083:3091  newOwner */\n      dup2\n        /* \"@openzeppelin/contracts/access/Ownable.sol\":3052:3092  OwnershipTransferred(oldOwner, newOwner) */\n      0xffffffffffffffffffffffffffffffffffffffff\n      and\n        /* \"@openzeppelin/contracts/access/Ownable.sol\":3073:3081  oldOwner */\n      dup2\n        /* \"@openzeppelin/contracts/access/Ownable.sol\":3052:3092  OwnershipTransferred(oldOwner, newOwner) */\n      0xffffffffffffffffffffffffffffffffffffffff\n      and\n      0x8be0079c531659141344cd1fd0a4f28419497f9722a3daafe3b4186f6b6457e0\n      mload(0x40)\n      mload(0x40)\n      dup1\n      swap2\n      sub\n      swap1\n      log3\n        /* \"@openzeppelin/contracts/access/Ownable.sol\":2975:3099  {... */\n      pop\n        /* \"@openzeppelin/contracts/access/Ownable.sol\":2912:3099  function _transferOwnership(address newOwner) internal virtual {... */\n      pop\n      jump\t// out\n        /* \"@openzeppelin/contracts/token/ERC20/utils/SafeERC20.sol\":1618:1806  function safeTransferFrom(IERC20 token, address from, address to, uint256 value) internal {... */\n    tag_259:\n        /* \"@openzeppelin/contracts/token/ERC20/utils/SafeERC20.sol\":1718:1799  _callOptionalReturn(token, abi.encodeCall(token.transferFrom, (from, to, value))) */\n      tag_309\n        /* \"@openzeppelin/contracts/token/ERC20/utils/SafeERC20.sol\":1738:1743  token */\n      dup5\n        /* \"@openzeppelin/contracts/token/ERC20/utils/SafeERC20.sol\":1760:1765  token */\n      dup6\n        /* \"@openzeppelin/contracts/token/ERC20/utils/SafeERC20.sol\":1760:1778  token.transferFrom */\n      0xffffffffffffffffffffffffffffffffffffffff\n      and\n      0x23b872dd\n        /* \"@openzeppelin/contracts/token/ERC20/utils/SafeERC20.sol\":1781:1785  from */\n      dup7\n        /* \"@openzeppelin/contracts/token/ERC20/utils/SafeERC20.sol\":1787:1789  to */\n      dup7\n        /* \"@openzeppelin/contracts/token/ERC20/utils/SafeERC20.sol\":1791:1796  value */\n      dup7\n        /* \"@openzeppelin/contracts/token/ERC20/utils/SafeERC20.sol\":1745:1798  abi.encodeCall(token.transferFrom, (from, to, value)) */\n      add(0x24, mload(0x40))\n      tag_310\n      swap4\n      swap3\n      swap2\n      swap1\n      tag_311\n      jump\t// in\n    tag_310:\n      mload(0x40)\n      0x20\n      dup2\n      dup4\n      sub\n      sub\n      dup2\n      mstore\n      swap1\n      0x40\n      mstore\n      swap2\n      pop\n      0xe0\n      shl\n      0x20\n      dup3\n      add\n      dup1\n      mload\n      0xffffffffffffffffffffffffffffffffffffffffffffffffffffffff\n      dup4\n      dup2\n      dup4\n      and\n      or\n      dup4\n      mstore\n      pop\n      pop\n      pop\n      pop\n        /* \"@openzeppelin/contracts/token/ERC20/utils/SafeERC20.sol\":1718:1737  _callOptionalReturn */\n      tag_305\n        /* \"@openzeppelin/contracts/token/ERC20/utils/SafeERC20.sol\":1718:1799  _callOptionalReturn(token, abi.encodeCall(token.transferFrom, (from, to, value))) */\n      jump\t// in\n    tag_309:\n        /* \"@openzeppelin/contracts/token/ERC20/utils/SafeERC20.sol\":1618:1806  function safeTransferFrom(IERC20 token, address from, address to, uint256 value) internal {... */\n      pop\n      pop\n      pop\n      pop\n      jump\t// out\n        /* \"@openzeppelin/contracts/utils/Context.sol\":656:752  function _msgSender() internal view virtual returns (address) {... */\n    tag_292:\n        /* \"@openzeppelin/contracts/utils/Context.sol\":709:716  address */\n      0x00\n        /* \"@openzeppelin/contracts/utils/Context.sol\":735:745  msg.sender */\n      caller\n        /* \"@openzeppelin/contracts/utils/Context.sol\":728:745  return msg.sender */\n      swap1\n      pop\n        /* \"@openzeppelin/contracts/utils/Context.sol\":656:752  function _msgSender() internal view virtual returns (address) {... */\n      swap1\n      jump\t// out\n        /* \"@openzeppelin/contracts/token/ERC20/utils/SafeERC20.sol\":8370:9090  function _callOptionalReturn(IERC20 token, bytes memory data) private {... */\n    tag_305:\n        /* \"@openzeppelin/contracts/token/ERC20/utils/SafeERC20.sol\":8450:8468  uint256 returnSize */\n      0x00\n        /* \"@openzeppelin/contracts/token/ERC20/utils/SafeERC20.sol\":8478:8497  uint256 returnValue */\n      0x00\n        /* \"@openzeppelin/contracts/token/ERC20/utils/SafeERC20.sol\":8616:8620  0x20 */\n      0x20\n        /* \"@openzeppelin/contracts/token/ERC20/utils/SafeERC20.sol\":8613:8614  0 */\n      0x00\n        /* \"@openzeppelin/contracts/token/ERC20/utils/SafeERC20.sol\":8606:8610  data */\n      dup5\n        /* \"@openzeppelin/contracts/token/ERC20/utils/SafeERC20.sol\":8600:8611  mload(data) */\n      mload\n        /* \"@openzeppelin/contracts/token/ERC20/utils/SafeERC20.sol\":8593:8597  0x20 */\n      0x20\n        /* \"@openzeppelin/contracts/token/ERC20/utils/SafeERC20.sol\":8587:8591  data */\n      dup7\n        /* \"@openzeppelin/contracts/token/ERC20/utils/SafeERC20.sol\":8583:8598  add(data, 0x20) */\n      add\n        /* \"@openzeppelin/contracts/token/ERC20/utils/SafeERC20.sol\":8580:8581  0 */\n      0x00\n        /* \"@openzeppelin/contracts/token/ERC20/utils/SafeERC20.sol\":8573:8578  token */\n      dup9\n        /* \"@openzeppelin/contracts/token/ERC20/utils/SafeERC20.sol\":8566:8571  gas() */\n      gas\n        /* \"@openzeppelin/contracts/token/ERC20/utils/SafeERC20.sol\":8561:8621  call(gas(), token, 0, add(data, 0x20), mload(data), 0, 0x20) */\n      call\n        /* \"@openzeppelin/contracts/token/ERC20/utils/SafeERC20.sol\":8673:8680  success */\n      dup1\n        /* \"@openzeppelin/contracts/token/ERC20/utils/SafeERC20.sol\":8663:8839  if iszero(success) {... */\n      tag_314\n      jumpi\n        /* \"@openzeppelin/contracts/token/ERC20/utils/SafeERC20.sol\":8717:8721  0x40 */\n      0x40\n        /* \"@openzeppelin/contracts/token/ERC20/utils/SafeERC20.sol\":8711:8722  mload(0x40) */\n      mload\n        /* \"@openzeppelin/contracts/token/ERC20/utils/SafeERC20.sol\":8762:8778  returndatasize() */\n      returndatasize\n        /* \"@openzeppelin/contracts/token/ERC20/utils/SafeERC20.sol\":8759:8760  0 */\n      0x00\n        /* \"@openzeppelin/contracts/token/ERC20/utils/SafeERC20.sol\":8754:8757  ptr */\n      dup3\n        /* \"@openzeppelin/contracts/token/ERC20/utils/SafeERC20.sol\":8739:8779  returndatacopy(ptr, 0, returndatasize()) */\n      returndatacopy\n        /* \"@openzeppelin/contracts/token/ERC20/utils/SafeERC20.sol\":8808:8824  returndatasize() */\n      returndatasize\n        /* \"@openzeppelin/contracts/token/ERC20/utils/SafeERC20.sol\":8803:8806  ptr */\n      dup2\n        /* \"@openzeppelin/contracts/token/ERC20/utils/SafeERC20.sol\":8796:8825  revert(ptr, returndatasize()) */\n      revert\n        /* \"@openzeppelin/contracts/token/ERC20/utils/SafeERC20.sol\":8663:8839  if iszero(success) {... */\n    tag_314:\n        /* \"@openzeppelin/contracts/token/ERC20/utils/SafeERC20.sol\":8866:8882  returndatasize() */\n      returndatasize\n        /* \"@openzeppelin/contracts/token/ERC20/utils/SafeERC20.sol\":8852:8882  returnSize := returndatasize() */\n      swap3\n      pop\n        /* \"@openzeppelin/contracts/token/ERC20/utils/SafeERC20.sol\":8916:8917  0 */\n      0x00\n        /* \"@openzeppelin/contracts/token/ERC20/utils/SafeERC20.sol\":8910:8918  mload(0) */\n      mload\n        /* \"@openzeppelin/contracts/token/ERC20/utils/SafeERC20.sol\":8895:8918  returnValue := mload(0) */\n      swap2\n      pop\n        /* \"@openzeppelin/contracts/token/ERC20/utils/SafeERC20.sol\":8532:8928  {... */\n      pop\n        /* \"@openzeppelin/contracts/token/ERC20/utils/SafeERC20.sol\":8956:8957  0 */\n      0x00\n        /* \"@openzeppelin/contracts/token/ERC20/utils/SafeERC20.sol\":8942:8952  returnSize */\n      dup3\n        /* \"@openzeppelin/contracts/token/ERC20/utils/SafeERC20.sol\":8942:8957  returnSize == 0 */\n      eq\n        /* \"@openzeppelin/contracts/token/ERC20/utils/SafeERC20.sol\":8942:9010  returnSize == 0 ? address(token).code.length == 0 : returnValue != 1 */\n      tag_315\n      jumpi\n        /* \"@openzeppelin/contracts/token/ERC20/utils/SafeERC20.sol\":9009:9010  1 */\n      0x01\n        /* \"@openzeppelin/contracts/token/ERC20/utils/SafeERC20.sol\":8994:9005  returnValue */\n      dup2\n        /* \"@openzeppelin/contracts/token/ERC20/utils/SafeERC20.sol\":8994:9010  returnValue != 1 */\n      eq\n      iszero\n        /* \"@openzeppelin/contracts/token/ERC20/utils/SafeERC20.sol\":8942:9010  returnSize == 0 ? address(token).code.length == 0 : returnValue != 1 */\n      jump(tag_316)\n    tag_315:\n        /* \"@openzeppelin/contracts/token/ERC20/utils/SafeERC20.sol\":8990:8991  0 */\n      0x00\n        /* \"@openzeppelin/contracts/token/ERC20/utils/SafeERC20.sol\":8968:8973  token */\n      dup5\n        /* \"@openzeppelin/contracts/token/ERC20/utils/SafeERC20.sol\":8960:8986  address(token).code.length */\n      0xffffffffffffffffffffffffffffffffffffffff\n      and\n      extcodesize\n        /* \"@openzeppelin/contracts/token/ERC20/utils/SafeERC20.sol\":8960:8991  address(token).code.length == 0 */\n      eq\n        /* \"@openzeppelin/contracts/token/ERC20/utils/SafeERC20.sol\":8942:9010  returnSize == 0 ? address(token).code.length == 0 : returnValue != 1 */\n    tag_316:\n        /* \"@openzeppelin/contracts/token/ERC20/utils/SafeERC20.sol\":8938:9084  if (returnSize == 0 ? address(token).code.length == 0 : returnValue != 1) {... */\n      iszero\n      tag_317\n      jumpi\n        /* \"@openzeppelin/contracts/token/ERC20/utils/SafeERC20.sol\":9066:9071  token */\n      dup4\n        /* \"@openzeppelin/contracts/token/ERC20/utils/SafeERC20.sol\":9033:9073  SafeERC20FailedOperation(address(token)) */\n      mload(0x40)\n      0x5274afe700000000000000000000000000000000000000000000000000000000\n      dup2\n      mstore\n      0x04\n      add\n      tag_318\n      swap2\n      swap1\n      tag_46\n      jump\t// in\n    tag_318:\n      mload(0x40)\n      dup1\n      swap2\n      sub\n      swap1\n      revert\n        /* \"@openzeppelin/contracts/token/ERC20/utils/SafeERC20.sol\":8938:9084  if (returnSize == 0 ? address(token).code.length == 0 : returnValue != 1) {... */\n    tag_317:\n        /* \"@openzeppelin/contracts/token/ERC20/utils/SafeERC20.sol\":8440:9090  {... */\n      pop\n      pop\n        /* \"@openzeppelin/contracts/token/ERC20/utils/SafeERC20.sol\":8370:9090  function _callOptionalReturn(IERC20 token, bytes memory data) private {... */\n      pop\n      pop\n      jump\t// out\n        /* \"#utility.yul\":88:205   */\n    tag_320:\n        /* \"#utility.yul\":197:198   */\n      0x00\n        /* \"#utility.yul\":194:195   */\n      0x00\n        /* \"#utility.yul\":187:199   */\n      revert\n        /* \"#utility.yul\":334:411   */\n    tag_322:\n        /* \"#utility.yul\":371:378   */\n      0x00\n        /* \"#utility.yul\":400:405   */\n      dup2\n        /* \"#utility.yul\":389:405   */\n      swap1\n      pop\n        /* \"#utility.yul\":334:411   */\n      swap2\n      swap1\n      pop\n      jump\t// out\n        /* \"#utility.yul\":417:539   */\n    tag_323:\n        /* \"#utility.yul\":490:514   */\n      tag_381\n        /* \"#utility.yul\":508:513   */\n      dup2\n        /* \"#utility.yul\":490:514   */\n      tag_322\n      jump\t// in\n    tag_381:\n        /* \"#utility.yul\":483:488   */\n      dup2\n        /* \"#utility.yul\":480:515   */\n      eq\n        /* \"#utility.yul\":470:533   */\n      tag_382\n      jumpi\n        /* \"#utility.yul\":529:530   */\n      0x00\n        /* \"#utility.yul\":526:527   */\n      0x00\n        /* \"#utility.yul\":519:531   */\n      revert\n        /* \"#utility.yul\":470:533   */\n    tag_382:\n        /* \"#utility.yul\":417:539   */\n      pop\n      jump\t// out\n        /* \"#utility.yul\":545:684   */\n    tag_324:\n        /* \"#utility.yul\":591:596   */\n      0x00\n        /* \"#utility.yul\":629:635   */\n      dup2\n        /* \"#utility.yul\":616:636   */\n      calldataload\n        /* \"#utility.yul\":607:636   */\n      swap1\n      pop\n        /* \"#utility.yul\":645:678   */\n      tag_384\n        /* \"#utility.yul\":672:677   */\n      dup2\n        /* \"#utility.yul\":645:678   */\n      tag_323\n      jump\t// in\n    tag_384:\n        /* \"#utility.yul\":545:684   */\n      swap3\n      swap2\n      pop\n      pop\n      jump\t// out\n        /* \"#utility.yul\":690:1019   */\n    tag_43:\n        /* \"#utility.yul\":749:755   */\n      0x00\n        /* \"#utility.yul\":798:800   */\n      0x20\n        /* \"#utility.yul\":786:795   */\n      dup3\n        /* \"#utility.yul\":777:784   */\n      dup5\n        /* \"#utility.yul\":773:796   */\n      sub\n        /* \"#utility.yul\":769:801   */\n      slt\n        /* \"#utility.yul\":766:885   */\n      iszero\n      tag_386\n      jumpi\n        /* \"#utility.yul\":804:883   */\n      tag_387\n      tag_320\n      jump\t// in\n    tag_387:\n        /* \"#utility.yul\":766:885   */\n    tag_386:\n        /* \"#utility.yul\":924:925   */\n      0x00\n        /* \"#utility.yul\":949:1002   */\n      tag_388\n        /* \"#utility.yul\":994:1001   */\n      dup5\n        /* \"#utility.yul\":985:991   */\n      dup3\n        /* \"#utility.yul\":974:983   */\n      dup6\n        /* \"#utility.yul\":970:992   */\n      add\n        /* \"#utility.yul\":949:1002   */\n      tag_324\n      jump\t// in\n    tag_388:\n        /* \"#utility.yul\":939:1002   */\n      swap2\n      pop\n        /* \"#utility.yul\":895:1012   */\n      pop\n        /* \"#utility.yul\":690:1019   */\n      swap3\n      swap2\n      pop\n      pop\n      jump\t// out\n        /* \"#utility.yul\":1025:1151   */\n    tag_325:\n        /* \"#utility.yul\":1062:1069   */\n      0x00\n        /* \"#utility.yul\":1102:1144   */\n      0xffffffffffffffffffffffffffffffffffffffff\n        /* \"#utility.yul\":1095:1100   */\n      dup3\n        /* \"#utility.yul\":1091:1145   */\n      and\n        /* \"#utility.yul\":1080:1145   */\n      swap1\n      pop\n        /* \"#utility.yul\":1025:1151   */\n      swap2\n      swap1\n      pop\n      jump\t// out\n        /* \"#utility.yul\":1157:1253   */\n    tag_326:\n        /* \"#utility.yul\":1194:1201   */\n      0x00\n        /* \"#utility.yul\":1223:1247   */\n      tag_391\n        /* \"#utility.yul\":1241:1246   */\n      dup3\n        /* \"#utility.yul\":1223:1247   */\n      tag_325\n      jump\t// in\n    tag_391:\n        /* \"#utility.yul\":1212:1247   */\n      swap1\n      pop\n        /* \"#utility.yul\":1157:1253   */\n      swap2\n      swap1\n      pop\n      jump\t// out\n        /* \"#utility.yul\":1259:1377   */\n    tag_327:\n        /* \"#utility.yul\":1346:1370   */\n      tag_393\n        /* \"#utility.yul\":1364:1369   */\n      dup2\n        /* \"#utility.yul\":1346:1370   */\n      tag_326\n      jump\t// in\n    tag_393:\n        /* \"#utility.yul\":1341:1344   */\n      dup3\n        /* \"#utility.yul\":1334:1371   */\n      mstore\n        /* \"#utility.yul\":1259:1377   */\n      pop\n      pop\n      jump\t// out\n        /* \"#utility.yul\":1383:1605   */\n    tag_46:\n        /* \"#utility.yul\":1476:1480   */\n      0x00\n        /* \"#utility.yul\":1514:1516   */\n      0x20\n        /* \"#utility.yul\":1503:1512   */\n      dup3\n        /* \"#utility.yul\":1499:1517   */\n      add\n        /* \"#utility.yul\":1491:1517   */\n      swap1\n      pop\n        /* \"#utility.yul\":1527:1598   */\n      tag_395\n        /* \"#utility.yul\":1595:1596   */\n      0x00\n        /* \"#utility.yul\":1584:1593   */\n      dup4\n        /* \"#utility.yul\":1580:1597   */\n      add\n        /* \"#utility.yul\":1571:1577   */\n      dup5\n        /* \"#utility.yul\":1527:1598   */\n      tag_327\n      jump\t// in\n    tag_395:\n        /* \"#utility.yul\":1383:1605   */\n      swap3\n      swap2\n      pop\n      pop\n      jump\t// out\n        /* \"#utility.yul\":1611:1733   */\n    tag_328:\n        /* \"#utility.yul\":1684:1708   */\n      tag_397\n        /* \"#utility.yul\":1702:1707   */\n      dup2\n        /* \"#utility.yul\":1684:1708   */\n      tag_326\n      jump\t// in\n    tag_397:\n        /* \"#utility.yul\":1677:1682   */\n      dup2\n        /* \"#utility.yul\":1674:1709   */\n      eq\n        /* \"#utility.yul\":1664:1727   */\n      tag_398\n      jumpi\n        /* \"#utility.yul\":1723:1724   */\n      0x00\n        /* \"#utility.yul\":1720:1721   */\n      0x00\n        /* \"#utility.yul\":1713:1725   */\n      revert\n        /* \"#utility.yul\":1664:1727   */\n    tag_398:\n        /* \"#utility.yul\":1611:1733   */\n      pop\n      jump\t// out\n        /* \"#utility.yul\":1739:1878   */\n    tag_329:\n        /* \"#utility.yul\":1785:1790   */\n      0x00\n        /* \"#utility.yul\":1823:1829   */\n      dup2\n        /* \"#utility.yul\":1810:1830   */\n      calldataload\n        /* \"#utility.yul\":1801:1830   */\n      swap1\n      pop\n        /* \"#utility.yul\":1839:1872   */\n      tag_400\n        /* \"#utility.yul\":1866:1871   */\n      dup2\n        /* \"#utility.yul\":1839:1872   */\n      tag_328\n      jump\t// in\n    tag_400:\n        /* \"#utility.yul\":1739:1878   */\n      swap3\n      swap2\n      pop\n      pop\n      jump\t// out\n        /* \"#utility.yul\":1884:2213   */\n    tag_49:\n        /* \"#utility.yul\":1943:1949   */\n      0x00\n        /* \"#utility.yul\":1992:1994   */\n      0x20\n        /* \"#utility.yul\":1980:1989   */\n      dup3\n        /* \"#utility.yul\":1971:1978   */\n      dup5\n        /* \"#utility.yul\":1967:1990   */\n      sub\n        /* \"#utility.yul\":1963:1995   */\n      slt\n        /* \"#utility.yul\":1960:2079   */\n      iszero\n      tag_402\n      jumpi\n        /* \"#utility.yul\":1998:2077   */\n      tag_403\n      tag_320\n      jump\t// in\n    tag_403:\n        /* \"#utility.yul\":1960:2079   */\n    tag_402:\n        /* \"#utility.yul\":2118:2119   */\n      0x00\n        /* \"#utility.yul\":2143:2196   */\n      tag_404\n        /* \"#utility.yul\":2188:2195   */\n      dup5\n        /* \"#utility.yul\":2179:2185   */\n      dup3\n        /* \"#utility.yul\":2168:2177   */\n      dup6\n        /* \"#utility.yul\":2164:2186   */\n      add\n        /* \"#utility.yul\":2143:2196   */\n      tag_329\n      jump\t// in\n    tag_404:\n        /* \"#utility.yul\":2133:2196   */\n      swap2\n      pop\n        /* \"#utility.yul\":2089:2206   */\n      pop\n        /* \"#utility.yul\":1884:2213   */\n      swap3\n      swap2\n      pop\n      pop\n      jump\t// out\n        /* \"#utility.yul\":2219:2279   */\n    tag_330:\n        /* \"#utility.yul\":2247:2250   */\n      0x00\n        /* \"#utility.yul\":2268:2273   */\n      dup2\n        /* \"#utility.yul\":2261:2273   */\n      swap1\n      pop\n        /* \"#utility.yul\":2219:2279   */\n      swap2\n      swap1\n      pop\n      jump\t// out\n        /* \"#utility.yul\":2285:2427   */\n    tag_331:\n        /* \"#utility.yul\":2335:2344   */\n      0x00\n        /* \"#utility.yul\":2368:2421   */\n      tag_407\n        /* \"#utility.yul\":2386:2420   */\n      tag_408\n        /* \"#utility.yul\":2395:2419   */\n      tag_409\n        /* \"#utility.yul\":2413:2418   */\n      dup5\n        /* \"#utility.yul\":2395:2419   */\n      tag_325\n      jump\t// in\n    tag_409:\n        /* \"#utility.yul\":2386:2420   */\n      tag_330\n      jump\t// in\n    tag_408:\n        /* \"#utility.yul\":2368:2421   */\n      tag_325\n      jump\t// in\n    tag_407:\n        /* \"#utility.yul\":2355:2421   */\n      swap1\n      pop\n        /* \"#utility.yul\":2285:2427   */\n      swap2\n      swap1\n      pop\n      jump\t// out\n        /* \"#utility.yul\":2433:2559   */\n    tag_332:\n        /* \"#utility.yul\":2483:2492   */\n      0x00\n        /* \"#utility.yul\":2516:2553   */\n      tag_411\n        /* \"#utility.yul\":2547:2552   */\n      dup3\n        /* \"#utility.yul\":2516:2553   */\n      tag_331\n      jump\t// in\n    tag_411:\n        /* \"#utility.yul\":2503:2553   */\n      swap1\n      pop\n        /* \"#utility.yul\":2433:2559   */\n      swap2\n      swap1\n      pop\n      jump\t// out\n        /* \"#utility.yul\":2565:2705   */\n    tag_333:\n        /* \"#utility.yul\":2629:2638   */\n      0x00\n        /* \"#utility.yul\":2662:2699   */\n      tag_413\n        /* \"#utility.yul\":2693:2698   */\n      dup3\n        /* \"#utility.yul\":2662:2699   */\n      tag_332\n      jump\t// in\n    tag_413:\n        /* \"#utility.yul\":2649:2699   */\n      swap1\n      pop\n        /* \"#utility.yul\":2565:2705   */\n      swap2\n      swap1\n      pop\n      jump\t// out\n        /* \"#utility.yul\":2711:2870   */\n    tag_334:\n        /* \"#utility.yul\":2812:2863   */\n      tag_415\n        /* \"#utility.yul\":2857:2862   */\n      dup2\n        /* \"#utility.yul\":2812:2863   */\n      tag_333\n      jump\t// in\n    tag_415:\n        /* \"#utility.yul\":2807:2810   */\n      dup3\n        /* \"#utility.yul\":2800:2864   */\n      mstore\n        /* \"#utility.yul\":2711:2870   */\n      pop\n      pop\n      jump\t// out\n        /* \"#utility.yul\":2876:3126   */\n    tag_54:\n        /* \"#utility.yul\":2983:2987   */\n      0x00\n        /* \"#utility.yul\":3021:3023   */\n      0x20\n        /* \"#utility.yul\":3010:3019   */\n      dup3\n        /* \"#utility.yul\":3006:3024   */\n      add\n        /* \"#utility.yul\":2998:3024   */\n      swap1\n      pop\n        /* \"#utility.yul\":3034:3119   */\n      tag_417\n        /* \"#utility.yul\":3116:3117   */\n      0x00\n        /* \"#utility.yul\":3105:3114   */\n      dup4\n        /* \"#utility.yul\":3101:3118   */\n      add\n        /* \"#utility.yul\":3092:3098   */\n      dup5\n        /* \"#utility.yul\":3034:3119   */\n      tag_334\n      jump\t// in\n    tag_417:\n        /* \"#utility.yul\":2876:3126   */\n      swap3\n      swap2\n      pop\n      pop\n      jump\t// out\n        /* \"#utility.yul\":3132:3250   */\n    tag_335:\n        /* \"#utility.yul\":3219:3243   */\n      tag_419\n        /* \"#utility.yul\":3237:3242   */\n      dup2\n        /* \"#utility.yul\":3219:3243   */\n      tag_322\n      jump\t// in\n    tag_419:\n        /* \"#utility.yul\":3214:3217   */\n      dup3\n        /* \"#utility.yul\":3207:3244   */\n      mstore\n        /* \"#utility.yul\":3132:3250   */\n      pop\n      pop\n      jump\t// out\n        /* \"#utility.yul\":3256:3478   */\n    tag_58:\n        /* \"#utility.yul\":3349:3353   */\n      0x00\n        /* \"#utility.yul\":3387:3389   */\n      0x20\n        /* \"#utility.yul\":3376:3385   */\n      dup3\n        /* \"#utility.yul\":3372:3390   */\n      add\n        /* \"#utility.yul\":3364:3390   */\n      swap1\n      pop\n        /* \"#utility.yul\":3400:3471   */\n      tag_421\n        /* \"#utility.yul\":3468:3469   */\n      0x00\n        /* \"#utility.yul\":3457:3466   */\n      dup4\n        /* \"#utility.yul\":3453:3470   */\n      add\n        /* \"#utility.yul\":3444:3450   */\n      dup5\n        /* \"#utility.yul\":3400:3471   */\n      tag_335\n      jump\t// in\n    tag_421:\n        /* \"#utility.yul\":3256:3478   */\n      swap3\n      swap2\n      pop\n      pop\n      jump\t// out\n        /* \"#utility.yul\":3484:3664   */\n    tag_139:\n        /* \"#utility.yul\":3532:3609   */\n      0x4e487b7100000000000000000000000000000000000000000000000000000000\n        /* \"#utility.yul\":3529:3530   */\n      0x00\n        /* \"#utility.yul\":3522:3610   */\n      mstore\n        /* \"#utility.yul\":3629:3633   */\n      0x21\n        /* \"#utility.yul\":3626:3627   */\n      0x04\n        /* \"#utility.yul\":3619:3634   */\n      mstore\n        /* \"#utility.yul\":3653:3657   */\n      0x24\n        /* \"#utility.yul\":3650:3651   */\n      0x00\n        /* \"#utility.yul\":3643:3658   */\n      revert\n        /* \"#utility.yul\":3670:3785   */\n    tag_336:\n        /* \"#utility.yul\":3753:3754   */\n      0x04\n        /* \"#utility.yul\":3746:3751   */\n      dup2\n        /* \"#utility.yul\":3743:3755   */\n      lt\n        /* \"#utility.yul\":3733:3779   */\n      tag_424\n      jumpi\n        /* \"#utility.yul\":3759:3777   */\n      tag_425\n      tag_139\n      jump\t// in\n    tag_425:\n        /* \"#utility.yul\":3733:3779   */\n    tag_424:\n        /* \"#utility.yul\":3670:3785   */\n      pop\n      jump\t// out\n        /* \"#utility.yul\":3791:3922   */\n    tag_337:\n        /* \"#utility.yul\":3838:3845   */\n      0x00\n        /* \"#utility.yul\":3867:3872   */\n      dup2\n        /* \"#utility.yul\":3856:3872   */\n      swap1\n      pop\n        /* \"#utility.yul\":3873:3916   */\n      tag_427\n        /* \"#utility.yul\":3910:3915   */\n      dup3\n        /* \"#utility.yul\":3873:3916   */\n      tag_336\n      jump\t// in\n    tag_427:\n        /* \"#utility.yul\":3791:3922   */\n      swap2\n      swap1\n      pop\n      jump\t// out\n        /* \"#utility.yul\":3928:4059   */\n    tag_338:\n        /* \"#utility.yul\":3986:3995   */\n      0x00\n        /* \"#utility.yul\":4019:4053   */\n      tag_429\n        /* \"#utility.yul\":4047:4052   */\n      dup3\n        /* \"#utility.yul\":4019:4053   */\n      tag_337\n      jump\t// in\n    tag_429:\n        /* \"#utility.yul\":4006:4053   */\n      swap1\n      pop\n        /* \"#utility.yul\":3928:4059   */\n      swap2\n      swap1\n      pop\n      jump\t// out\n        /* \"#utility.yul\":4065:4212   */\n    tag_339:\n        /* \"#utility.yul\":4160:4205   */\n      tag_431\n        /* \"#utility.yul\":4199:4204   */\n      dup2\n        /* \"#utility.yul\":4160:4205   */\n      tag_338\n      jump\t// in\n    tag_431:\n        /* \"#utility.yul\":4155:4158   */\n      dup3\n        /* \"#utility.yul\":4148:4206   */\n      mstore\n        /* \"#utility.yul\":4065:4212   */\n      pop\n      pop\n      jump\t// out\n        /* \"#utility.yul\":4218:4456   */\n    tag_67:\n        /* \"#utility.yul\":4319:4323   */\n      0x00\n        /* \"#utility.yul\":4357:4359   */\n      0x20\n        /* \"#utility.yul\":4346:4355   */\n      dup3\n        /* \"#utility.yul\":4342:4360   */\n      add\n        /* \"#utility.yul\":4334:4360   */\n      swap1\n      pop\n        /* \"#utility.yul\":4370:4449   */\n      tag_433\n        /* \"#utility.yul\":4446:4447   */\n      0x00\n        /* \"#utility.yul\":4435:4444   */\n      dup4\n        /* \"#utility.yul\":4431:4448   */\n      add\n        /* \"#utility.yul\":4422:4428   */\n      dup5\n        /* \"#utility.yul\":4370:4449   */\n      tag_339\n      jump\t// in\n    tag_433:\n        /* \"#utility.yul\":4218:4456   */\n      swap3\n      swap2\n      pop\n      pop\n      jump\t// out\n        /* \"#utility.yul\":4462:4552   */\n    tag_340:\n        /* \"#utility.yul\":4496:4503   */\n      0x00\n        /* \"#utility.yul\":4539:4544   */\n      dup2\n        /* \"#utility.yul\":4532:4545   */\n      iszero\n        /* \"#utility.yul\":4525:4546   */\n      iszero\n        /* \"#utility.yul\":4514:4546   */\n      swap1\n      pop\n        /* \"#utility.yul\":4462:4552   */\n      swap2\n      swap1\n      pop\n      jump\t// out\n        /* \"#utility.yul\":4558:4667   */\n    tag_341:\n        /* \"#utility.yul\":4639:4660   */\n      tag_436\n        /* \"#utility.yul\":4654:4659   */\n      dup2\n        /* \"#utility.yul\":4639:4660   */\n      tag_340\n      jump\t// in\n    tag_436:\n        /* \"#utility.yul\":4634:4637   */\n      dup3\n        /* \"#utility.yul\":4627:4661   */\n      mstore\n        /* \"#utility.yul\":4558:4667   */\n      pop\n      pop\n      jump\t// out\n        /* \"#utility.yul\":4673:4883   */\n    tag_98:\n        /* \"#utility.yul\":4760:4764   */\n      0x00\n        /* \"#utility.yul\":4798:4800   */\n      0x20\n        /* \"#utility.yul\":4787:4796   */\n      dup3\n        /* \"#utility.yul\":4783:4801   */\n      add\n        /* \"#utility.yul\":4775:4801   */\n      swap1\n      pop\n        /* \"#utility.yul\":4811:4876   */\n      tag_438\n        /* \"#utility.yul\":4873:4874   */\n      0x00\n        /* \"#utility.yul\":4862:4871   */\n      dup4\n        /* \"#utility.yul\":4858:4875   */\n      add\n        /* \"#utility.yul\":4849:4855   */\n      dup5\n        /* \"#utility.yul\":4811:4876   */\n      tag_341\n      jump\t// in\n    tag_438:\n        /* \"#utility.yul\":4673:4883   */\n      swap3\n      swap2\n      pop\n      pop\n      jump\t// out\n        /* \"#utility.yul\":4889:5003   */\n    tag_342:\n        /* \"#utility.yul\":4956:4962   */\n      0x00\n        /* \"#utility.yul\":4990:4995   */\n      dup2\n        /* \"#utility.yul\":4984:4996   */\n      mload\n        /* \"#utility.yul\":4974:4996   */\n      swap1\n      pop\n        /* \"#utility.yul\":4889:5003   */\n      swap2\n      swap1\n      pop\n      jump\t// out\n        /* \"#utility.yul\":5009:5193   */\n    tag_343:\n        /* \"#utility.yul\":5108:5119   */\n      0x00\n        /* \"#utility.yul\":5142:5148   */\n      dup3\n        /* \"#utility.yul\":5137:5140   */\n      dup3\n        /* \"#utility.yul\":5130:5149   */\n      mstore\n        /* \"#utility.yul\":5182:5186   */\n      0x20\n        /* \"#utility.yul\":5177:5180   */\n      dup3\n        /* \"#utility.yul\":5173:5187   */\n      add\n        /* \"#utility.yul\":5158:5187   */\n      swap1\n      pop\n        /* \"#utility.yul\":5009:5193   */\n      swap3\n      swap2\n      pop\n      pop\n      jump\t// out\n        /* \"#utility.yul\":5199:5331   */\n    tag_344:\n        /* \"#utility.yul\":5266:5270   */\n      0x00\n        /* \"#utility.yul\":5289:5292   */\n      dup2\n        /* \"#utility.yul\":5281:5292   */\n      swap1\n      pop\n        /* \"#utility.yul\":5319:5323   */\n      0x20\n        /* \"#utility.yul\":5314:5317   */\n      dup3\n        /* \"#utility.yul\":5310:5324   */\n      add\n        /* \"#utility.yul\":5302:5324   */\n      swap1\n      pop\n        /* \"#utility.yul\":5199:5331   */\n      swap2\n      swap1\n      pop\n      jump\t// out\n        /* \"#utility.yul\":5337:5445   */\n    tag_345:\n        /* \"#utility.yul\":5414:5438   */\n      tag_443\n        /* \"#utility.yul\":5432:5437   */\n      dup2\n        /* \"#utility.yul\":5414:5438   */\n      tag_326\n      jump\t// in\n    tag_443:\n        /* \"#utility.yul\":5409:5412   */\n      dup3\n        /* \"#utility.yul\":5402:5439   */\n      mstore\n        /* \"#utility.yul\":5337:5445   */\n      pop\n      pop\n      jump\t// out\n        /* \"#utility.yul\":5451:5630   */\n    tag_346:\n        /* \"#utility.yul\":5520:5530   */\n      0x00\n        /* \"#utility.yul\":5541:5587   */\n      tag_445\n        /* \"#utility.yul\":5583:5586   */\n      dup4\n        /* \"#utility.yul\":5575:5581   */\n      dup4\n        /* \"#utility.yul\":5541:5587   */\n      tag_345\n      jump\t// in\n    tag_445:\n        /* \"#utility.yul\":5619:5623   */\n      0x20\n        /* \"#utility.yul\":5614:5617   */\n      dup4\n        /* \"#utility.yul\":5610:5624   */\n      add\n        /* \"#utility.yul\":5596:5624   */\n      swap1\n      pop\n        /* \"#utility.yul\":5451:5630   */\n      swap3\n      swap2\n      pop\n      pop\n      jump\t// out\n        /* \"#utility.yul\":5636:5749   */\n    tag_347:\n        /* \"#utility.yul\":5706:5710   */\n      0x00\n        /* \"#utility.yul\":5738:5742   */\n      0x20\n        /* \"#utility.yul\":5733:5736   */\n      dup3\n        /* \"#utility.yul\":5729:5743   */\n      add\n        /* \"#utility.yul\":5721:5743   */\n      swap1\n      pop\n        /* \"#utility.yul\":5636:5749   */\n      swap2\n      swap1\n      pop\n      jump\t// out\n        /* \"#utility.yul\":5785:6517   */\n    tag_348:\n        /* \"#utility.yul\":5904:5907   */\n      0x00\n        /* \"#utility.yul\":5933:5987   */\n      tag_448\n        /* \"#utility.yul\":5981:5986   */\n      dup3\n        /* \"#utility.yul\":5933:5987   */\n      tag_342\n      jump\t// in\n    tag_448:\n        /* \"#utility.yul\":6003:6089   */\n      tag_449\n        /* \"#utility.yul\":6082:6088   */\n      dup2\n        /* \"#utility.yul\":6077:6080   */\n      dup6\n        /* \"#utility.yul\":6003:6089   */\n      tag_343\n      jump\t// in\n    tag_449:\n        /* \"#utility.yul\":5996:6089   */\n      swap4\n      pop\n        /* \"#utility.yul\":6113:6169   */\n      tag_450\n        /* \"#utility.yul\":6163:6168   */\n      dup4\n        /* \"#utility.yul\":6113:6169   */\n      tag_344\n      jump\t// in\n    tag_450:\n        /* \"#utility.yul\":6192:6199   */\n      dup1\n        /* \"#utility.yul\":6223:6224   */\n      0x00\n        /* \"#utility.yul\":6208:6492   */\n    tag_451:\n        /* \"#utility.yul\":6233:6239   */\n      dup4\n        /* \"#utility.yul\":6230:6231   */\n      dup2\n        /* \"#utility.yul\":6227:6240   */\n      lt\n        /* \"#utility.yul\":6208:6492   */\n      iszero\n      tag_453\n      jumpi\n        /* \"#utility.yul\":6309:6315   */\n      dup2\n        /* \"#utility.yul\":6303:6316   */\n      mload\n        /* \"#utility.yul\":6336:6399   */\n      tag_454\n        /* \"#utility.yul\":6395:6398   */\n      dup9\n        /* \"#utility.yul\":6380:6393   */\n      dup3\n        /* \"#utility.yul\":6336:6399   */\n      tag_346\n      jump\t// in\n    tag_454:\n        /* \"#utility.yul\":6329:6399   */\n      swap8\n      pop\n        /* \"#utility.yul\":6422:6482   */\n      tag_455\n        /* \"#utility.yul\":6475:6481   */\n      dup4\n        /* \"#utility.yul\":6422:6482   */\n      tag_347\n      jump\t// in\n    tag_455:\n        /* \"#utility.yul\":6412:6482   */\n      swap3\n      pop\n        /* \"#utility.yul\":6268:6492   */\n      pop\n        /* \"#utility.yul\":6255:6256   */\n      0x01\n        /* \"#utility.yul\":6252:6253   */\n      dup2\n        /* \"#utility.yul\":6248:6257   */\n      add\n        /* \"#utility.yul\":6243:6257   */\n      swap1\n      pop\n        /* \"#utility.yul\":6208:6492   */\n      jump(tag_451)\n    tag_453:\n        /* \"#utility.yul\":6212:6226   */\n      pop\n        /* \"#utility.yul\":6508:6511   */\n      dup6\n        /* \"#utility.yul\":6501:6511   */\n      swap4\n      pop\n        /* \"#utility.yul\":5909:6517   */\n      pop\n      pop\n      pop\n        /* \"#utility.yul\":5785:6517   */\n      swap3\n      swap2\n      pop\n      pop\n      jump\t// out\n        /* \"#utility.yul\":6523:6896   */\n    tag_112:\n        /* \"#utility.yul\":6666:6670   */\n      0x00\n        /* \"#utility.yul\":6704:6706   */\n      0x20\n        /* \"#utility.yul\":6693:6702   */\n      dup3\n        /* \"#utility.yul\":6689:6707   */\n      add\n        /* \"#utility.yul\":6681:6707   */\n      swap1\n      pop\n        /* \"#utility.yul\":6753:6762   */\n      dup2\n        /* \"#utility.yul\":6747:6751   */\n      dup2\n        /* \"#utility.yul\":6743:6763   */\n      sub\n        /* \"#utility.yul\":6739:6740   */\n      0x00\n        /* \"#utility.yul\":6728:6737   */\n      dup4\n        /* \"#utility.yul\":6724:6741   */\n      add\n        /* \"#utility.yul\":6717:6764   */\n      mstore\n        /* \"#utility.yul\":6781:6889   */\n      tag_457\n        /* \"#utility.yul\":6884:6888   */\n      dup2\n        /* \"#utility.yul\":6875:6881   */\n      dup5\n        /* \"#utility.yul\":6781:6889   */\n      tag_348\n      jump\t// in\n    tag_457:\n        /* \"#utility.yul\":6773:6889   */\n      swap1\n      pop\n        /* \"#utility.yul\":6523:6896   */\n      swap3\n      swap2\n      pop\n      pop\n      jump\t// out\n        /* \"#utility.yul\":6902:7071   */\n    tag_349:\n        /* \"#utility.yul\":6986:6997   */\n      0x00\n        /* \"#utility.yul\":7020:7026   */\n      dup3\n        /* \"#utility.yul\":7015:7018   */\n      dup3\n        /* \"#utility.yul\":7008:7027   */\n      mstore\n        /* \"#utility.yul\":7060:7064   */\n      0x20\n        /* \"#utility.yul\":7055:7058   */\n      dup3\n        /* \"#utility.yul\":7051:7065   */\n      add\n        /* \"#utility.yul\":7036:7065   */\n      swap1\n      pop\n        /* \"#utility.yul\":6902:7071   */\n      swap3\n      swap2\n      pop\n      pop\n      jump\t// out\n        /* \"#utility.yul\":7077:7243   */\n    tag_350:\n        /* \"#utility.yul\":7217:7235   */\n      0x416c7265616479206c61756e6368656400000000000000000000000000000000\n        /* \"#utility.yul\":7213:7214   */\n      0x00\n        /* \"#utility.yul\":7205:7211   */\n      dup3\n        /* \"#utility.yul\":7201:7215   */\n      add\n        /* \"#utility.yul\":7194:7236   */\n      mstore\n        /* \"#utility.yul\":7077:7243   */\n      pop\n      jump\t// out\n        /* \"#utility.yul\":7249:7615   */\n    tag_351:\n        /* \"#utility.yul\":7391:7394   */\n      0x00\n        /* \"#utility.yul\":7412:7479   */\n      tag_461\n        /* \"#utility.yul\":7476:7478   */\n      0x10\n        /* \"#utility.yul\":7471:7474   */\n      dup4\n        /* \"#utility.yul\":7412:7479   */\n      tag_349\n      jump\t// in\n    tag_461:\n        /* \"#utility.yul\":7405:7479   */\n      swap2\n      pop\n        /* \"#utility.yul\":7488:7581   */\n      tag_462\n        /* \"#utility.yul\":7577:7580   */\n      dup3\n        /* \"#utility.yul\":7488:7581   */\n      tag_350\n      jump\t// in\n    tag_462:\n        /* \"#utility.yul\":7606:7608   */\n      0x20\n        /* \"#utility.yul\":7601:7604   */\n      dup3\n        /* \"#utility.yul\":7597:7609   */\n      add\n        /* \"#utility.yul\":7590:7609   */\n      swap1\n      pop\n        /* \"#utility.yul\":7249:7615   */\n      swap2\n      swap1\n      pop\n      jump\t// out\n        /* \"#utility.yul\":7621:8040   */\n    tag_136:\n        /* \"#utility.yul\":7787:7791   */\n      0x00\n        /* \"#utility.yul\":7825:7827   */\n      0x20\n        /* \"#utility.yul\":7814:7823   */\n      dup3\n        /* \"#utility.yul\":7810:7828   */\n      add\n        /* \"#utility.yul\":7802:7828   */\n      swap1\n      pop\n        /* \"#utility.yul\":7874:7883   */\n      dup2\n        /* \"#utility.yul\":7868:7872   */\n      dup2\n        /* \"#utility.yul\":7864:7884   */\n      sub\n        /* \"#utility.yul\":7860:7861   */\n      0x00\n        /* \"#utility.yul\":7849:7858   */\n      dup4\n        /* \"#utility.yul\":7845:7862   */\n      add\n        /* \"#utility.yul\":7838:7885   */\n      mstore\n        /* \"#utility.yul\":7902:8033   */\n      tag_464\n        /* \"#utility.yul\":8028:8032   */\n      dup2\n        /* \"#utility.yul\":7902:8033   */\n      tag_351\n      jump\t// in\n    tag_464:\n        /* \"#utility.yul\":7894:8033   */\n      swap1\n      pop\n        /* \"#utility.yul\":7621:8040   */\n      swap2\n      swap1\n      pop\n      jump\t// out\n        /* \"#utility.yul\":8046:8216   */\n    tag_352:\n        /* \"#utility.yul\":8186:8208   */\n      0x4e6f7468696e6720746f207465726d696e617465000000000000000000000000\n        /* \"#utility.yul\":8182:8183   */\n      0x00\n        /* \"#utility.yul\":8174:8180   */\n      dup3\n        /* \"#utility.yul\":8170:8184   */\n      add\n        /* \"#utility.yul\":8163:8209   */\n      mstore\n        /* \"#utility.yul\":8046:8216   */\n      pop\n      jump\t// out\n        /* \"#utility.yul\":8222:8588   */\n    tag_353:\n        /* \"#utility.yul\":8364:8367   */\n      0x00\n        /* \"#utility.yul\":8385:8452   */\n      tag_467\n        /* \"#utility.yul\":8449:8451   */\n      0x14\n        /* \"#utility.yul\":8444:8447   */\n      dup4\n        /* \"#utility.yul\":8385:8452   */\n      tag_349\n      jump\t// in\n    tag_467:\n        /* \"#utility.yul\":8378:8452   */\n      swap2\n      pop\n        /* \"#utility.yul\":8461:8554   */\n      tag_468\n        /* \"#utility.yul\":8550:8553   */\n      dup3\n        /* \"#utility.yul\":8461:8554   */\n      tag_352\n      jump\t// in\n    tag_468:\n        /* \"#utility.yul\":8579:8581   */\n      0x20\n        /* \"#utility.yul\":8574:8577   */\n      dup3\n        /* \"#utility.yul\":8570:8582   */\n      add\n        /* \"#utility.yul\":8563:8582   */\n      swap1\n      pop\n        /* \"#utility.yul\":8222:8588   */\n      swap2\n      swap1\n      pop\n      jump\t// out\n        /* \"#utility.yul\":8594:9013   */\n    tag_151:\n        /* \"#utility.yul\":8760:8764   */\n      0x00\n        /* \"#utility.yul\":8798:8800   */\n      0x20\n        /* \"#utility.yul\":8787:8796   */\n      dup3\n        /* \"#utility.yul\":8783:8801   */\n      add\n        /* \"#utility.yul\":8775:8801   */\n      swap1\n      pop\n        /* \"#utility.yul\":8847:8856   */\n      dup2\n        /* \"#utility.yul\":8841:8845   */\n      dup2\n        /* \"#utility.yul\":8837:8857   */\n      sub\n        /* \"#utility.yul\":8833:8834   */\n      0x00\n        /* \"#utility.yul\":8822:8831   */\n      dup4\n        /* \"#utility.yul\":8818:8835   */\n      add\n        /* \"#utility.yul\":8811:8858   */\n      mstore\n        /* \"#utility.yul\":8875:9006   */\n      tag_470\n        /* \"#utility.yul\":9001:9005   */\n      dup2\n        /* \"#utility.yul\":8875:9006   */\n      tag_353\n      jump\t// in\n    tag_470:\n        /* \"#utility.yul\":8867:9006   */\n      swap1\n      pop\n        /* \"#utility.yul\":8594:9013   */\n      swap2\n      swap1\n      pop\n      jump\t// out\n        /* \"#utility.yul\":9019:9199   */\n    tag_172:\n        /* \"#utility.yul\":9067:9144   */\n      0x4e487b7100000000000000000000000000000000000000000000000000000000\n        /* \"#utility.yul\":9064:9065   */\n      0x00\n        /* \"#utility.yul\":9057:9145   */\n      mstore\n        /* \"#utility.yul\":9164:9168   */\n      0x32\n        /* \"#utility.yul\":9161:9162   */\n      0x04\n        /* \"#utility.yul\":9154:9169   */\n      mstore\n        /* \"#utility.yul\":9188:9192   */\n      0x24\n        /* \"#utility.yul\":9185:9186   */\n      0x00\n        /* \"#utility.yul\":9178:9193   */\n      revert\n        /* \"#utility.yul\":9205:9375   */\n    tag_354:\n        /* \"#utility.yul\":9345:9367   */\n      0x5374616b696e67206e6f7420636f6d706c657465000000000000000000000000\n        /* \"#utility.yul\":9341:9342   */\n      0x00\n        /* \"#utility.yul\":9333:9339   */\n      dup3\n        /* \"#utility.yul\":9329:9343   */\n      add\n        /* \"#utility.yul\":9322:9368   */\n      mstore\n        /* \"#utility.yul\":9205:9375   */\n      pop\n      jump\t// out\n        /* \"#utility.yul\":9381:9747   */\n    tag_355:\n        /* \"#utility.yul\":9523:9526   */\n      0x00\n        /* \"#utility.yul\":9544:9611   */\n      tag_474\n        /* \"#utility.yul\":9608:9610   */\n      0x14\n        /* \"#utility.yul\":9603:9606   */\n      dup4\n        /* \"#utility.yul\":9544:9611   */\n      tag_349\n      jump\t// in\n    tag_474:\n        /* \"#utility.yul\":9537:9611   */\n      swap2\n      pop\n        /* \"#utility.yul\":9620:9713   */\n      tag_475\n        /* \"#utility.yul\":9709:9712   */\n      dup3\n        /* \"#utility.yul\":9620:9713   */\n      tag_354\n      jump\t// in\n    tag_475:\n        /* \"#utility.yul\":9738:9740   */\n      0x20\n        /* \"#utility.yul\":9733:9736   */\n      dup3\n        /* \"#utility.yul\":9729:9741   */\n      add\n        /* \"#utility.yul\":9722:9741   */\n      swap1\n      pop\n        /* \"#utility.yul\":9381:9747   */\n      swap2\n      swap1\n      pop\n      jump\t// out\n        /* \"#utility.yul\":9753:10172   */\n    tag_191:\n        /* \"#utility.yul\":9919:9923   */\n      0x00\n        /* \"#utility.yul\":9957:9959   */\n      0x20\n        /* \"#utility.yul\":9946:9955   */\n      dup3\n        /* \"#utility.yul\":9942:9960   */\n      add\n        /* \"#utility.yul\":9934:9960   */\n      swap1\n      pop\n        /* \"#utility.yul\":10006:10015   */\n      dup2\n        /* \"#utility.yul\":10000:10004   */\n      dup2\n        /* \"#utility.yul\":9996:10016   */\n      sub\n        /* \"#utility.yul\":9992:9993   */\n      0x00\n        /* \"#utility.yul\":9981:9990   */\n      dup4\n        /* \"#utility.yul\":9977:9994   */\n      add\n        /* \"#utility.yul\":9970:10017   */\n      mstore\n        /* \"#utility.yul\":10034:10165   */\n      tag_477\n        /* \"#utility.yul\":10160:10164   */\n      dup2\n        /* \"#utility.yul\":10034:10165   */\n      tag_355\n      jump\t// in\n    tag_477:\n        /* \"#utility.yul\":10026:10165   */\n      swap1\n      pop\n        /* \"#utility.yul\":9753:10172   */\n      swap2\n      swap1\n      pop\n      jump\t// out\n        /* \"#utility.yul\":10178:10358   */\n    tag_356:\n        /* \"#utility.yul\":10226:10303   */\n      0x4e487b7100000000000000000000000000000000000000000000000000000000\n        /* \"#utility.yul\":10223:10224   */\n      0x00\n        /* \"#utility.yul\":10216:10304   */\n      mstore\n        /* \"#utility.yul\":10323:10327   */\n      0x11\n        /* \"#utility.yul\":10320:10321   */\n      0x04\n        /* \"#utility.yul\":10313:10328   */\n      mstore\n        /* \"#utility.yul\":10347:10351   */\n      0x24\n        /* \"#utility.yul\":10344:10345   */\n      0x00\n        /* \"#utility.yul\":10337:10352   */\n      revert\n        /* \"#utility.yul\":10364:10774   */\n    tag_200:\n        /* \"#utility.yul\":10404:10411   */\n      0x00\n        /* \"#utility.yul\":10427:10447   */\n      tag_480\n        /* \"#utility.yul\":10445:10446   */\n      dup3\n        /* \"#utility.yul\":10427:10447   */\n      tag_322\n      jump\t// in\n    tag_480:\n        /* \"#utility.yul\":10422:10447   */\n      swap2\n      pop\n        /* \"#utility.yul\":10461:10481   */\n      tag_481\n        /* \"#utility.yul\":10479:10480   */\n      dup4\n        /* \"#utility.yul\":10461:10481   */\n      tag_322\n      jump\t// in\n    tag_481:\n        /* \"#utility.yul\":10456:10481   */\n      swap3\n      pop\n        /* \"#utility.yul\":10516:10517   */\n      dup3\n        /* \"#utility.yul\":10513:10514   */\n      dup3\n        /* \"#utility.yul\":10509:10518   */\n      mul\n        /* \"#utility.yul\":10538:10568   */\n      tag_482\n        /* \"#utility.yul\":10556:10567   */\n      dup2\n        /* \"#utility.yul\":10538:10568   */\n      tag_322\n      jump\t// in\n    tag_482:\n        /* \"#utility.yul\":10527:10568   */\n      swap2\n      pop\n        /* \"#utility.yul\":10717:10718   */\n      dup3\n        /* \"#utility.yul\":10708:10715   */\n      dup3\n        /* \"#utility.yul\":10704:10719   */\n      div\n        /* \"#utility.yul\":10701:10702   */\n      dup5\n        /* \"#utility.yul\":10698:10720   */\n      eq\n        /* \"#utility.yul\":10678:10679   */\n      dup4\n        /* \"#utility.yul\":10671:10680   */\n      iszero\n        /* \"#utility.yul\":10651:10734   */\n      or\n        /* \"#utility.yul\":10628:10767   */\n      tag_483\n      jumpi\n        /* \"#utility.yul\":10747:10765   */\n      tag_484\n      tag_356\n      jump\t// in\n    tag_484:\n        /* \"#utility.yul\":10628:10767   */\n    tag_483:\n        /* \"#utility.yul\":10412:10774   */\n      pop\n        /* \"#utility.yul\":10364:10774   */\n      swap3\n      swap2\n      pop\n      pop\n      jump\t// out\n        /* \"#utility.yul\":10780:10960   */\n    tag_357:\n        /* \"#utility.yul\":10828:10905   */\n      0x4e487b7100000000000000000000000000000000000000000000000000000000\n        /* \"#utility.yul\":10825:10826   */\n      0x00\n        /* \"#utility.yul\":10818:10906   */\n      mstore\n        /* \"#utility.yul\":10925:10929   */\n      0x12\n        /* \"#utility.yul\":10922:10923   */\n      0x04\n        /* \"#utility.yul\":10915:10930   */\n      mstore\n        /* \"#utility.yul\":10949:10953   */\n      0x24\n        /* \"#utility.yul\":10946:10947   */\n      0x00\n        /* \"#utility.yul\":10939:10954   */\n      revert\n        /* \"#utility.yul\":10966:11151   */\n    tag_202:\n        /* \"#utility.yul\":11006:11007   */\n      0x00\n        /* \"#utility.yul\":11023:11043   */\n      tag_487\n        /* \"#utility.yul\":11041:11042   */\n      dup3\n        /* \"#utility.yul\":11023:11043   */\n      tag_322\n      jump\t// in\n    tag_487:\n        /* \"#utility.yul\":11018:11043   */\n      swap2\n      pop\n        /* \"#utility.yul\":11057:11077   */\n      tag_488\n        /* \"#utility.yul\":11075:11076   */\n      dup4\n        /* \"#utility.yul\":11057:11077   */\n      tag_322\n      jump\t// in\n    tag_488:\n        /* \"#utility.yul\":11052:11077   */\n      swap3\n      pop\n        /* \"#utility.yul\":11096:11097   */\n      dup3\n        /* \"#utility.yul\":11086:11121   */\n      tag_489\n      jumpi\n        /* \"#utility.yul\":11101:11119   */\n      tag_490\n      tag_357\n      jump\t// in\n    tag_490:\n        /* \"#utility.yul\":11086:11121   */\n    tag_489:\n        /* \"#utility.yul\":11143:11144   */\n      dup3\n        /* \"#utility.yul\":11140:11141   */\n      dup3\n        /* \"#utility.yul\":11136:11145   */\n      div\n        /* \"#utility.yul\":11131:11145   */\n      swap1\n      pop\n        /* \"#utility.yul\":10966:11151   */\n      swap3\n      swap2\n      pop\n      pop\n      jump\t// out\n        /* \"#utility.yul\":11157:11489   */\n    tag_206:\n        /* \"#utility.yul\":11278:11282   */\n      0x00\n        /* \"#utility.yul\":11316:11318   */\n      0x40\n        /* \"#utility.yul\":11305:11314   */\n      dup3\n        /* \"#utility.yul\":11301:11319   */\n      add\n        /* \"#utility.yul\":11293:11319   */\n      swap1\n      pop\n        /* \"#utility.yul\":11329:11400   */\n      tag_492\n        /* \"#utility.yul\":11397:11398   */\n      0x00\n        /* \"#utility.yul\":11386:11395   */\n      dup4\n        /* \"#utility.yul\":11382:11399   */\n      add\n        /* \"#utility.yul\":11373:11379   */\n      dup6\n        /* \"#utility.yul\":11329:11400   */\n      tag_335\n      jump\t// in\n    tag_492:\n        /* \"#utility.yul\":11410:11482   */\n      tag_493\n        /* \"#utility.yul\":11478:11480   */\n      0x20\n        /* \"#utility.yul\":11467:11476   */\n      dup4\n        /* \"#utility.yul\":11463:11481   */\n      add\n        /* \"#utility.yul\":11454:11460   */\n      dup5\n        /* \"#utility.yul\":11410:11482   */\n      tag_335\n      jump\t// in\n    tag_493:\n        /* \"#utility.yul\":11157:11489   */\n      swap4\n      swap3\n      pop\n      pop\n      pop\n      jump\t// out\n        /* \"#utility.yul\":11495:11638   */\n    tag_358:\n        /* \"#utility.yul\":11552:11557   */\n      0x00\n        /* \"#utility.yul\":11583:11589   */\n      dup2\n        /* \"#utility.yul\":11577:11590   */\n      mload\n        /* \"#utility.yul\":11568:11590   */\n      swap1\n      pop\n        /* \"#utility.yul\":11599:11632   */\n      tag_495\n        /* \"#utility.yul\":11626:11631   */\n      dup2\n        /* \"#utility.yul\":11599:11632   */\n      tag_323\n      jump\t// in\n    tag_495:\n        /* \"#utility.yul\":11495:11638   */\n      swap3\n      swap2\n      pop\n      pop\n      jump\t// out\n        /* \"#utility.yul\":11644:11995   */\n    tag_211:\n        /* \"#utility.yul\":11714:11720   */\n      0x00\n        /* \"#utility.yul\":11763:11765   */\n      0x20\n        /* \"#utility.yul\":11751:11760   */\n      dup3\n        /* \"#utility.yul\":11742:11749   */\n      dup5\n        /* \"#utility.yul\":11738:11761   */\n      sub\n        /* \"#utility.yul\":11734:11766   */\n      slt\n        /* \"#utility.yul\":11731:11850   */\n      iszero\n      tag_497\n      jumpi\n        /* \"#utility.yul\":11769:11848   */\n      tag_498\n      tag_320\n      jump\t// in\n    tag_498:\n        /* \"#utility.yul\":11731:11850   */\n    tag_497:\n        /* \"#utility.yul\":11889:11890   */\n      0x00\n        /* \"#utility.yul\":11914:11978   */\n      tag_499\n        /* \"#utility.yul\":11970:11977   */\n      dup5\n        /* \"#utility.yul\":11961:11967   */\n      dup3\n        /* \"#utility.yul\":11950:11959   */\n      dup6\n        /* \"#utility.yul\":11946:11968   */\n      add\n        /* \"#utility.yul\":11914:11978   */\n      tag_358\n      jump\t// in\n    tag_499:\n        /* \"#utility.yul\":11904:11978   */\n      swap2\n      pop\n        /* \"#utility.yul\":11860:11988   */\n      pop\n        /* \"#utility.yul\":11644:11995   */\n      swap3\n      swap2\n      pop\n      pop\n      jump\t// out\n        /* \"#utility.yul\":12001:12169   */\n    tag_359:\n        /* \"#utility.yul\":12141:12161   */\n      0x5374616b696e67206e6f74206163746976650000000000000000000000000000\n        /* \"#utility.yul\":12137:12138   */\n      0x00\n        /* \"#utility.yul\":12129:12135   */\n      dup3\n        /* \"#utility.yul\":12125:12139   */\n      add\n        /* \"#utility.yul\":12118:12162   */\n      mstore\n        /* \"#utility.yul\":12001:12169   */\n      pop\n      jump\t// out\n        /* \"#utility.yul\":12175:12541   */\n    tag_360:\n        /* \"#utility.yul\":12317:12320   */\n      0x00\n        /* \"#utility.yul\":12338:12405   */\n      tag_502\n        /* \"#utility.yul\":12402:12404   */\n      0x12\n        /* \"#utility.yul\":12397:12400   */\n      dup4\n        /* \"#utility.yul\":12338:12405   */\n      tag_349\n      jump\t// in\n    tag_502:\n        /* \"#utility.yul\":12331:12405   */\n      swap2\n      pop\n        /* \"#utility.yul\":12414:12507   */\n      tag_503\n        /* \"#utility.yul\":12503:12506   */\n      dup3\n        /* \"#utility.yul\":12414:12507   */\n      tag_359\n      jump\t// in\n    tag_503:\n        /* \"#utility.yul\":12532:12534   */\n      0x20\n        /* \"#utility.yul\":12527:12530   */\n      dup3\n        /* \"#utility.yul\":12523:12535   */\n      add\n        /* \"#utility.yul\":12516:12535   */\n      swap1\n      pop\n        /* \"#utility.yul\":12175:12541   */\n      swap2\n      swap1\n      pop\n      jump\t// out\n        /* \"#utility.yul\":12547:12966   */\n    tag_235:\n        /* \"#utility.yul\":12713:12717   */\n      0x00\n        /* \"#utility.yul\":12751:12753   */\n      0x20\n        /* \"#utility.yul\":12740:12749   */\n      dup3\n        /* \"#utility.yul\":12736:12754   */\n      add\n        /* \"#utility.yul\":12728:12754   */\n      swap1\n      pop\n        /* \"#utility.yul\":12800:12809   */\n      dup2\n        /* \"#utility.yul\":12794:12798   */\n      dup2\n        /* \"#utility.yul\":12790:12810   */\n      sub\n        /* \"#utility.yul\":12786:12787   */\n      0x00\n        /* \"#utility.yul\":12775:12784   */\n      dup4\n        /* \"#utility.yul\":12771:12788   */\n      add\n        /* \"#utility.yul\":12764:12811   */\n      mstore\n        /* \"#utility.yul\":12828:12959   */\n      tag_505\n        /* \"#utility.yul\":12954:12958   */\n      dup2\n        /* \"#utility.yul\":12828:12959   */\n      tag_360\n      jump\t// in\n    tag_505:\n        /* \"#utility.yul\":12820:12959   */\n      swap1\n      pop\n        /* \"#utility.yul\":12547:12966   */\n      swap2\n      swap1\n      pop\n      jump\t// out\n        /* \"#utility.yul\":12972:13138   */\n    tag_361:\n        /* \"#utility.yul\":13112:13130   */\n      0x5374616b696e67206e6f74206c69766500000000000000000000000000000000\n        /* \"#utility.yul\":13108:13109   */\n      0x00\n        /* \"#utility.yul\":13100:13106   */\n      dup3\n        /* \"#utility.yul\":13096:13110   */\n      add\n        /* \"#utility.yul\":13089:13131   */\n      mstore\n        /* \"#utility.yul\":12972:13138   */\n      pop\n      jump\t// out\n        /* \"#utility.yul\":13144:13510   */\n    tag_362:\n        /* \"#utility.yul\":13286:13289   */\n      0x00\n        /* \"#utility.yul\":13307:13374   */\n      tag_508\n        /* \"#utility.yul\":13371:13373   */\n      0x10\n        /* \"#utility.yul\":13366:13369   */\n      dup4\n        /* \"#utility.yul\":13307:13374   */\n      tag_349\n      jump\t// in\n    tag_508:\n        /* \"#utility.yul\":13300:13374   */\n      swap2\n      pop\n        /* \"#utility.yul\":13383:13476   */\n      tag_509\n        /* \"#utility.yul\":13472:13475   */\n      dup3\n        /* \"#utility.yul\":13383:13476   */\n      tag_361\n      jump\t// in\n    tag_509:\n        /* \"#utility.yul\":13501:13503   */\n      0x20\n        /* \"#utility.yul\":13496:13499   */\n      dup3\n        /* \"#utility.yul\":13492:13504   */\n      add\n        /* \"#utility.yul\":13485:13504   */\n      swap1\n      pop\n        /* \"#utility.yul\":13144:13510   */\n      swap2\n      swap1\n      pop\n      jump\t// out\n        /* \"#utility.yul\":13516:13935   */\n    tag_239:\n        /* \"#utility.yul\":13682:13686   */\n      0x00\n        /* \"#utility.yul\":13720:13722   */\n      0x20\n        /* \"#utility.yul\":13709:13718   */\n      dup3\n        /* \"#utility.yul\":13705:13723   */\n      add\n        /* \"#utility.yul\":13697:13723   */\n      swap1\n      pop\n        /* \"#utility.yul\":13769:13778   */\n      dup2\n        /* \"#utility.yul\":13763:13767   */\n      dup2\n        /* \"#utility.yul\":13759:13779   */\n      sub\n        /* \"#utility.yul\":13755:13756   */\n      0x00\n        /* \"#utility.yul\":13744:13753   */\n      dup4\n        /* \"#utility.yul\":13740:13757   */\n      add\n        /* \"#utility.yul\":13733:13780   */\n      mstore\n        /* \"#utility.yul\":13797:13928   */\n      tag_511\n        /* \"#utility.yul\":13923:13927   */\n      dup2\n        /* \"#utility.yul\":13797:13928   */\n      tag_362\n      jump\t// in\n    tag_511:\n        /* \"#utility.yul\":13789:13928   */\n      swap1\n      pop\n        /* \"#utility.yul\":13516:13935   */\n      swap2\n      swap1\n      pop\n      jump\t// out\n        /* \"#utility.yul\":13941:14132   */\n    tag_241:\n        /* \"#utility.yul\":13981:13984   */\n      0x00\n        /* \"#utility.yul\":14000:14020   */\n      tag_513\n        /* \"#utility.yul\":14018:14019   */\n      dup3\n        /* \"#utility.yul\":14000:14020   */\n      tag_322\n      jump\t// in\n    tag_513:\n        /* \"#utility.yul\":13995:14020   */\n      swap2\n      pop\n        /* \"#utility.yul\":14034:14054   */\n      tag_514\n        /* \"#utility.yul\":14052:14053   */\n      dup4\n        /* \"#utility.yul\":14034:14054   */\n      tag_322\n      jump\t// in\n    tag_514:\n        /* \"#utility.yul\":14029:14054   */\n      swap3\n      pop\n        /* \"#utility.yul\":14077:14078   */\n      dup3\n        /* \"#utility.yul\":14074:14075   */\n      dup3\n        /* \"#utility.yul\":14070:14079   */\n      add\n        /* \"#utility.yul\":14063:14079   */\n      swap1\n      pop\n        /* \"#utility.yul\":14098:14101   */\n      dup1\n        /* \"#utility.yul\":14095:14096   */\n      dup3\n        /* \"#utility.yul\":14092:14102   */\n      gt\n        /* \"#utility.yul\":14089:14125   */\n      iszero\n      tag_515\n      jumpi\n        /* \"#utility.yul\":14105:14123   */\n      tag_516\n      tag_356\n      jump\t// in\n    tag_516:\n        /* \"#utility.yul\":14089:14125   */\n    tag_515:\n        /* \"#utility.yul\":13941:14132   */\n      swap3\n      swap2\n      pop\n      pop\n      jump\t// out\n        /* \"#utility.yul\":14138:14303   */\n    tag_363:\n        /* \"#utility.yul\":14278:14295   */\n      0x42757920706572696f64206f7665720000000000000000000000000000000000\n        /* \"#utility.yul\":14274:14275   */\n      0x00\n        /* \"#utility.yul\":14266:14272   */\n      dup3\n        /* \"#utility.yul\":14262:14276   */\n      add\n        /* \"#utility.yul\":14255:14296   */\n      mstore\n        /* \"#utility.yul\":14138:14303   */\n      pop\n      jump\t// out\n        /* \"#utility.yul\":14309:14675   */\n    tag_364:\n        /* \"#utility.yul\":14451:14454   */\n      0x00\n        /* \"#utility.yul\":14472:14539   */\n      tag_519\n        /* \"#utility.yul\":14536:14538   */\n      0x0f\n        /* \"#utility.yul\":14531:14534   */\n      dup4\n        /* \"#utility.yul\":14472:14539   */\n      tag_349\n      jump\t// in\n    tag_519:\n        /* \"#utility.yul\":14465:14539   */\n      swap2\n      pop\n        /* \"#utility.yul\":14548:14641   */\n      tag_520\n        /* \"#utility.yul\":14637:14640   */\n      dup3\n        /* \"#utility.yul\":14548:14641   */\n      tag_363\n      jump\t// in\n    tag_520:\n        /* \"#utility.yul\":14666:14668   */\n      0x20\n        /* \"#utility.yul\":14661:14664   */\n      dup3\n        /* \"#utility.yul\":14657:14669   */\n      add\n        /* \"#utility.yul\":14650:14669   */\n      swap1\n      pop\n        /* \"#utility.yul\":14309:14675   */\n      swap2\n      swap1\n      pop\n      jump\t// out\n        /* \"#utility.yul\":14681:15100   */\n    tag_244:\n        /* \"#utility.yul\":14847:14851   */\n      0x00\n        /* \"#utility.yul\":14885:14887   */\n      0x20\n        /* \"#utility.yul\":14874:14883   */\n      dup3\n        /* \"#utility.yul\":14870:14888   */\n      add\n        /* \"#utility.yul\":14862:14888   */\n      swap1\n      pop\n        /* \"#utility.yul\":14934:14943   */\n      dup2\n        /* \"#utility.yul\":14928:14932   */\n      dup2\n        /* \"#utility.yul\":14924:14944   */\n      sub\n        /* \"#utility.yul\":14920:14921   */\n      0x00\n        /* \"#utility.yul\":14909:14918   */\n      dup4\n        /* \"#utility.yul\":14905:14922   */\n      add\n        /* \"#utility.yul\":14898:14945   */\n      mstore\n        /* \"#utility.yul\":14962:15093   */\n      tag_522\n        /* \"#utility.yul\":15088:15092   */\n      dup2\n        /* \"#utility.yul\":14962:15093   */\n      tag_364\n      jump\t// in\n    tag_522:\n        /* \"#utility.yul\":14954:15093   */\n      swap1\n      pop\n        /* \"#utility.yul\":14681:15100   */\n      swap2\n      swap1\n      pop\n      jump\t// out\n        /* \"#utility.yul\":15106:15271   */\n    tag_365:\n        /* \"#utility.yul\":15246:15263   */\n      0x42656c6f77206d696e207374616b650000000000000000000000000000000000\n        /* \"#utility.yul\":15242:15243   */\n      0x00\n        /* \"#utility.yul\":15234:15240   */\n      dup3\n        /* \"#utility.yul\":15230:15244   */\n      add\n        /* \"#utility.yul\":15223:15264   */\n      mstore\n        /* \"#utility.yul\":15106:15271   */\n      pop\n      jump\t// out\n        /* \"#utility.yul\":15277:15643   */\n    tag_366:\n        /* \"#utility.yul\":15419:15422   */\n      0x00\n        /* \"#utility.yul\":15440:15507   */\n      tag_525\n        /* \"#utility.yul\":15504:15506   */\n      0x0f\n        /* \"#utility.yul\":15499:15502   */\n      dup4\n        /* \"#utility.yul\":15440:15507   */\n      tag_349\n      jump\t// in\n    tag_525:\n        /* \"#utility.yul\":15433:15507   */\n      swap2\n      pop\n        /* \"#utility.yul\":15516:15609   */\n      tag_526\n        /* \"#utility.yul\":15605:15608   */\n      dup3\n        /* \"#utility.yul\":15516:15609   */\n      tag_365\n      jump\t// in\n    tag_526:\n        /* \"#utility.yul\":15634:15636   */\n      0x20\n        /* \"#utility.yul\":15629:15632   */\n      dup3\n        /* \"#utility.yul\":15625:15637   */\n      add\n        /* \"#utility.yul\":15618:15637   */\n      swap1\n      pop\n        /* \"#utility.yul\":15277:15643   */\n      swap2\n      swap1\n      pop\n      jump\t// out\n        /* \"#utility.yul\":15649:16068   */\n    tag_247:\n        /* \"#utility.yul\":15815:15819   */\n      0x00\n        /* \"#utility.yul\":15853:15855   */\n      0x20\n        /* \"#utility.yul\":15842:15851   */\n      dup3\n        /* \"#utility.yul\":15838:15856   */\n      add\n        /* \"#utility.yul\":15830:15856   */\n      swap1\n      pop\n        /* \"#utility.yul\":15902:15911   */\n      dup2\n        /* \"#utility.yul\":15896:15900   */\n      dup2\n        /* \"#utility.yul\":15892:15912   */\n      sub\n        /* \"#utility.yul\":15888:15889   */\n      0x00\n        /* \"#utility.yul\":15877:15886   */\n      dup4\n        /* \"#utility.yul\":15873:15890   */\n      add\n        /* \"#utility.yul\":15866:15913   */\n      mstore\n        /* \"#utility.yul\":15930:16061   */\n      tag_528\n        /* \"#utility.yul\":16056:16060   */\n      dup2\n        /* \"#utility.yul\":15930:16061   */\n      tag_366\n      jump\t// in\n    tag_528:\n        /* \"#utility.yul\":15922:16061   */\n      swap1\n      pop\n        /* \"#utility.yul\":15649:16068   */\n      swap2\n      swap1\n      pop\n      jump\t// out\n        /* \"#utility.yul\":16074:16241   */\n    tag_367:\n        /* \"#utility.yul\":16214:16233   */\n      0x45786365656473206d6178207374616b65000000000000000000000000000000\n        /* \"#utility.yul\":16210:16211   */\n      0x00\n        /* \"#utility.yul\":16202:16208   */\n      dup3\n        /* \"#utility.yul\":16198:16212   */\n      add\n        /* \"#utility.yul\":16191:16234   */\n      mstore\n        /* \"#utility.yul\":16074:16241   */\n      pop\n      jump\t// out\n        /* \"#utility.yul\":16247:16613   */\n    tag_368:\n        /* \"#utility.yul\":16389:16392   */\n      0x00\n        /* \"#utility.yul\":16410:16477   */\n      tag_531\n        /* \"#utility.yul\":16474:16476   */\n      0x11\n        /* \"#utility.yul\":16469:16472   */\n      dup4\n        /* \"#utility.yul\":16410:16477   */\n      tag_349\n      jump\t// in\n    tag_531:\n        /* \"#utility.yul\":16403:16477   */\n      swap2\n      pop\n        /* \"#utility.yul\":16486:16579   */\n      tag_532\n        /* \"#utility.yul\":16575:16578   */\n      dup3\n        /* \"#utility.yul\":16486:16579   */\n      tag_367\n      jump\t// in\n    tag_532:\n        /* \"#utility.yul\":16604:16606   */\n      0x20\n        /* \"#utility.yul\":16599:16602   */\n      dup3\n        /* \"#utility.yul\":16595:16607   */\n      add\n        /* \"#utility.yul\":16588:16607   */\n      swap1\n      pop\n        /* \"#utility.yul\":16247:16613   */\n      swap2\n      swap1\n      pop\n      jump\t// out\n        /* \"#utility.yul\":16619:17038   */\n    tag_251:\n        /* \"#utility.yul\":16785:16789   */\n      0x00\n        /* \"#utility.yul\":16823:16825   */\n      0x20\n        /* \"#utility.yul\":16812:16821   */\n      dup3\n        /* \"#utility.yul\":16808:16826   */\n      add\n        /* \"#utility.yul\":16800:16826   */\n      swap1\n      pop\n        /* \"#utility.yul\":16872:16881   */\n      dup2\n        /* \"#utility.yul\":16866:16870   */\n      dup2\n        /* \"#utility.yul\":16862:16882   */\n      sub\n        /* \"#utility.yul\":16858:16859   */\n      0x00\n        /* \"#utility.yul\":16847:16856   */\n      dup4\n        /* \"#utility.yul\":16843:16860   */\n      add\n        /* \"#utility.yul\":16836:16883   */\n      mstore\n        /* \"#utility.yul\":16900:17031   */\n      tag_534\n        /* \"#utility.yul\":17026:17030   */\n      dup2\n        /* \"#utility.yul\":16900:17031   */\n      tag_368\n      jump\t// in\n    tag_534:\n        /* \"#utility.yul\":16892:17031   */\n      swap1\n      pop\n        /* \"#utility.yul\":16619:17038   */\n      swap2\n      swap1\n      pop\n      jump\t// out\n        /* \"#utility.yul\":17044:17212   */\n    tag_369:\n        /* \"#utility.yul\":17184:17204   */\n      0x4578636565647320746f74616c20706f6f6c0000000000000000000000000000\n        /* \"#utility.yul\":17180:17181   */\n      0x00\n        /* \"#utility.yul\":17172:17178   */\n      dup3\n        /* \"#utility.yul\":17168:17182   */\n      add\n        /* \"#utility.yul\":17161:17205   */\n      mstore\n        /* \"#utility.yul\":17044:17212   */\n      pop\n      jump\t// out\n        /* \"#utility.yul\":17218:17584   */\n    tag_370:\n        /* \"#utility.yul\":17360:17363   */\n      0x00\n        /* \"#utility.yul\":17381:17448   */\n      tag_537\n        /* \"#utility.yul\":17445:17447   */\n      0x12\n        /* \"#utility.yul\":17440:17443   */\n      dup4\n        /* \"#utility.yul\":17381:17448   */\n      tag_349\n      jump\t// in\n    tag_537:\n        /* \"#utility.yul\":17374:17448   */\n      swap2\n      pop\n        /* \"#utility.yul\":17457:17550   */\n      tag_538\n        /* \"#utility.yul\":17546:17549   */\n      dup3\n        /* \"#utility.yul\":17457:17550   */\n      tag_369\n      jump\t// in\n    tag_538:\n        /* \"#utility.yul\":17575:17577   */\n      0x20\n        /* \"#utility.yul\":17570:17573   */\n      dup3\n        /* \"#utility.yul\":17566:17578   */\n      add\n        /* \"#utility.yul\":17559:17578   */\n      swap1\n      pop\n        /* \"#utility.yul\":17218:17584   */\n      swap2\n      swap1\n      pop\n      jump\t// out\n        /* \"#utility.yul\":17590:18009   */\n    tag_255:\n        /* \"#utility.yul\":17756:17760   */\n      0x00\n        /* \"#utility.yul\":17794:17796   */\n      0x20\n        /* \"#utility.yul\":17783:17792   */\n      dup3\n        /* \"#utility.yul\":17779:17797   */\n      add\n        /* \"#utility.yul\":17771:17797   */\n      swap1\n      pop\n        /* \"#utility.yul\":17843:17852   */\n      dup2\n        /* \"#utility.yul\":17837:17841   */\n      dup2\n        /* \"#utility.yul\":17833:17853   */\n      sub\n        /* \"#utility.yul\":17829:17830   */\n      0x00\n        /* \"#utility.yul\":17818:17827   */\n      dup4\n        /* \"#utility.yul\":17814:17831   */\n      add\n        /* \"#utility.yul\":17807:17854   */\n      mstore\n        /* \"#utility.yul\":17871:18002   */\n      tag_540\n        /* \"#utility.yul\":17997:18001   */\n      dup2\n        /* \"#utility.yul\":17871:18002   */\n      tag_370\n      jump\t// in\n    tag_540:\n        /* \"#utility.yul\":17863:18002   */\n      swap1\n      pop\n        /* \"#utility.yul\":17590:18009   */\n      swap2\n      swap1\n      pop\n      jump\t// out\n        /* \"#utility.yul\":18015:18180   */\n    tag_371:\n        /* \"#utility.yul\":18155:18172   */\n      0x5374616b65206e6f7420656e6465640000000000000000000000000000000000\n        /* \"#utility.yul\":18151:18152   */\n      0x00\n        /* \"#utility.yul\":18143:18149   */\n      dup3\n        /* \"#utility.yul\":18139:18153   */\n      add\n        /* \"#utility.yul\":18132:18173   */\n      mstore\n        /* \"#utility.yul\":18015:18180   */\n      pop\n      jump\t// out\n        /* \"#utility.yul\":18186:18552   */\n    tag_372:\n        /* \"#utility.yul\":18328:18331   */\n      0x00\n        /* \"#utility.yul\":18349:18416   */\n      tag_543\n        /* \"#utility.yul\":18413:18415   */\n      0x0f\n        /* \"#utility.yul\":18408:18411   */\n      dup4\n        /* \"#utility.yul\":18349:18416   */\n      tag_349\n      jump\t// in\n    tag_543:\n        /* \"#utility.yul\":18342:18416   */\n      swap2\n      pop\n        /* \"#utility.yul\":18425:18518   */\n      tag_544\n        /* \"#utility.yul\":18514:18517   */\n      dup3\n        /* \"#utility.yul\":18425:18518   */\n      tag_371\n      jump\t// in\n    tag_544:\n        /* \"#utility.yul\":18543:18545   */\n      0x20\n        /* \"#utility.yul\":18538:18541   */\n      dup3\n        /* \"#utility.yul\":18534:18546   */\n      add\n        /* \"#utility.yul\":18527:18546   */\n      swap1\n      pop\n        /* \"#utility.yul\":18186:18552   */\n      swap2\n      swap1\n      pop\n      jump\t// out\n        /* \"#utility.yul\":18558:18977   */\n    tag_286:\n        /* \"#utility.yul\":18724:18728   */\n      0x00\n        /* \"#utility.yul\":18762:18764   */\n      0x20\n        /* \"#utility.yul\":18751:18760   */\n      dup3\n        /* \"#utility.yul\":18747:18765   */\n      add\n        /* \"#utility.yul\":18739:18765   */\n      swap1\n      pop\n        /* \"#utility.yul\":18811:18820   */\n      dup2\n        /* \"#utility.yul\":18805:18809   */\n      dup2\n        /* \"#utility.yul\":18801:18821   */\n      sub\n        /* \"#utility.yul\":18797:18798   */\n      0x00\n        /* \"#utility.yul\":18786:18795   */\n      dup4\n        /* \"#utility.yul\":18782:18799   */\n      add\n        /* \"#utility.yul\":18775:18822   */\n      mstore\n        /* \"#utility.yul\":18839:18970   */\n      tag_546\n        /* \"#utility.yul\":18965:18969   */\n      dup2\n        /* \"#utility.yul\":18839:18970   */\n      tag_372\n      jump\t// in\n    tag_546:\n        /* \"#utility.yul\":18831:18970   */\n      swap1\n      pop\n        /* \"#utility.yul\":18558:18977   */\n      swap2\n      swap1\n      pop\n      jump\t// out\n        /* \"#utility.yul\":18983:19164   */\n    tag_373:\n        /* \"#utility.yul\":19123:19156   */\n      0x5265656e7472616e637947756172643a207265656e7472616e742063616c6c00\n        /* \"#utility.yul\":19119:19120   */\n      0x00\n        /* \"#utility.yul\":19111:19117   */\n      dup3\n        /* \"#utility.yul\":19107:19121   */\n      add\n        /* \"#utility.yul\":19100:19157   */\n      mstore\n        /* \"#utility.yul\":18983:19164   */\n      pop\n      jump\t// out\n        /* \"#utility.yul\":19170:19536   */\n    tag_374:\n        /* \"#utility.yul\":19312:19315   */\n      0x00\n        /* \"#utility.yul\":19333:19400   */\n      tag_549\n        /* \"#utility.yul\":19397:19399   */\n      0x1f\n        /* \"#utility.yul\":19392:19395   */\n      dup4\n        /* \"#utility.yul\":19333:19400   */\n      tag_349\n      jump\t// in\n    tag_549:\n        /* \"#utility.yul\":19326:19400   */\n      swap2\n      pop\n        /* \"#utility.yul\":19409:19502   */\n      tag_550\n        /* \"#utility.yul\":19498:19501   */\n      dup3\n        /* \"#utility.yul\":19409:19502   */\n      tag_373\n      jump\t// in\n    tag_550:\n        /* \"#utility.yul\":19527:19529   */\n      0x20\n        /* \"#utility.yul\":19522:19525   */\n      dup3\n        /* \"#utility.yul\":19518:19530   */\n      add\n        /* \"#utility.yul\":19511:19530   */\n      swap1\n      pop\n        /* \"#utility.yul\":19170:19536   */\n      swap2\n      swap1\n      pop\n      jump\t// out\n        /* \"#utility.yul\":19542:19961   */\n    tag_300:\n        /* \"#utility.yul\":19708:19712   */\n      0x00\n        /* \"#utility.yul\":19746:19748   */\n      0x20\n        /* \"#utility.yul\":19735:19744   */\n      dup3\n        /* \"#utility.yul\":19731:19749   */\n      add\n        /* \"#utility.yul\":19723:19749   */\n      swap1\n      pop\n        /* \"#utility.yul\":19795:19804   */\n      dup2\n        /* \"#utility.yul\":19789:19793   */\n      dup2\n        /* \"#utility.yul\":19785:19805   */\n      sub\n        /* \"#utility.yul\":19781:19782   */\n      0x00\n        /* \"#utility.yul\":19770:19779   */\n      dup4\n        /* \"#utility.yul\":19766:19783   */\n      add\n        /* \"#utility.yul\":19759:19806   */\n      mstore\n        /* \"#utility.yul\":19823:19954   */\n      tag_552\n        /* \"#utility.yul\":19949:19953   */\n      dup2\n        /* \"#utility.yul\":19823:19954   */\n      tag_374\n      jump\t// in\n    tag_552:\n        /* \"#utility.yul\":19815:19954   */\n      swap1\n      pop\n        /* \"#utility.yul\":19542:19961   */\n      swap2\n      swap1\n      pop\n      jump\t// out\n        /* \"#utility.yul\":19967:20299   */\n    tag_304:\n        /* \"#utility.yul\":20088:20092   */\n      0x00\n        /* \"#utility.yul\":20126:20128   */\n      0x40\n        /* \"#utility.yul\":20115:20124   */\n      dup3\n        /* \"#utility.yul\":20111:20129   */\n      add\n        /* \"#utility.yul\":20103:20129   */\n      swap1\n      pop\n        /* \"#utility.yul\":20139:20210   */\n      tag_554\n        /* \"#utility.yul\":20207:20208   */\n      0x00\n        /* \"#utility.yul\":20196:20205   */\n      dup4\n        /* \"#utility.yul\":20192:20209   */\n      add\n        /* \"#utility.yul\":20183:20189   */\n      dup6\n        /* \"#utility.yul\":20139:20210   */\n      tag_327\n      jump\t// in\n    tag_554:\n        /* \"#utility.yul\":20220:20292   */\n      tag_555\n        /* \"#utility.yul\":20288:20290   */\n      0x20\n        /* \"#utility.yul\":20277:20286   */\n      dup4\n        /* \"#utility.yul\":20273:20291   */\n      add\n        /* \"#utility.yul\":20264:20270   */\n      dup5\n        /* \"#utility.yul\":20220:20292   */\n      tag_335\n      jump\t// in\n    tag_555:\n        /* \"#utility.yul\":19967:20299   */\n      swap4\n      swap3\n      pop\n      pop\n      pop\n      jump\t// out\n        /* \"#utility.yul\":20305:20747   */\n    tag_311:\n        /* \"#utility.yul\":20454:20458   */\n      0x00\n        /* \"#utility.yul\":20492:20494   */\n      0x60\n        /* \"#utility.yul\":20481:20490   */\n      dup3\n        /* \"#utility.yul\":20477:20495   */\n      add\n        /* \"#utility.yul\":20469:20495   */\n      swap1\n      pop\n        /* \"#utility.yul\":20505:20576   */\n      tag_557\n        /* \"#utility.yul\":20573:20574   */\n      0x00\n        /* \"#utility.yul\":20562:20571   */\n      dup4\n        /* \"#utility.yul\":20558:20575   */\n      add\n        /* \"#utility.yul\":20549:20555   */\n      dup7\n        /* \"#utility.yul\":20505:20576   */\n      tag_327\n      jump\t// in\n    tag_557:\n        /* \"#utility.yul\":20586:20658   */\n      tag_558\n        /* \"#utility.yul\":20654:20656   */\n      0x20\n        /* \"#utility.yul\":20643:20652   */\n      dup4\n        /* \"#utility.yul\":20639:20657   */\n      add\n        /* \"#utility.yul\":20630:20636   */\n      dup6\n        /* \"#utility.yul\":20586:20658   */\n      tag_327\n      jump\t// in\n    tag_558:\n        /* \"#utility.yul\":20668:20740   */\n      tag_559\n        /* \"#utility.yul\":20736:20738   */\n      0x40\n        /* \"#utility.yul\":20725:20734   */\n      dup4\n        /* \"#utility.yul\":20721:20739   */\n      add\n        /* \"#utility.yul\":20712:20718   */\n      dup5\n        /* \"#utility.yul\":20668:20740   */\n      tag_335\n      jump\t// in\n    tag_559:\n        /* \"#utility.yul\":20305:20747   */\n      swap5\n      swap4\n      pop\n      pop\n      pop\n      pop\n      jump\t// out\n\n    auxdata: 0xa26469706673582212205e89409125f5c943b6837e2fcb642abfb4fb5e2958f7363817e02a4d74f42eb264736f6c634300081e0033\n}\n",
				"bytecode": {
					"linkReferences": {},
					"object": "6101a06040525f60025f6101000a81548160ff0219169083151502179055505f60045f6101000a81548160ff02191690836003811115610042576100416103e6565b5b0217905550348015610052575f5ffd5b50604051612ae8380380612ae8833981810160405281019061007491906104a4565b335f73ffffffffffffffffffffffffffffffffffffffff168173ffffffffffffffffffffffffffffffffffffffff16036100e5575f6040517f1e4fbdf70000000000000000000000000000000000000000000000000000000081526004016100dc9190610577565b60405180910390fd5b6100f48161032560201b60201c565b50600180819055505f73ffffffffffffffffffffffffffffffffffffffff168973ffffffffffffffffffffffffffffffffffffffff160361016a576040517f08c379a0000000000000000000000000000000000000000000000000000000008152600401610161906105ea565b60405180910390fd5b5f73ffffffffffffffffffffffffffffffffffffffff168873ffffffffffffffffffffffffffffffffffffffff16036101d8576040517f08c379a00000000000000000000000000000000000000000000000000000000081526004016101cf90610652565b60405180910390fd5b5f73ffffffffffffffffffffffffffffffffffffffff168773ffffffffffffffffffffffffffffffffffffffff1603610246576040517f08c379a000000000000000000000000000000000000000000000000000000000815260040161023d906106ba565b60405180910390fd5b8873ffffffffffffffffffffffffffffffffffffffff1660808173ffffffffffffffffffffffffffffffffffffffff16815250508773ffffffffffffffffffffffffffffffffffffffff1660a08173ffffffffffffffffffffffffffffffffffffffff16815250508673ffffffffffffffffffffffffffffffffffffffff1660c08173ffffffffffffffffffffffffffffffffffffffff16815250508560e081815250508461010081815250508361012081815250508261014081815250508161016081815250508061018081815250505050505050505050506106d8565b5f5f5f9054906101000a900473ffffffffffffffffffffffffffffffffffffffff169050815f5f6101000a81548173ffffffffffffffffffffffffffffffffffffffff021916908373ffffffffffffffffffffffffffffffffffffffff1602179055508173ffffffffffffffffffffffffffffffffffffffff168173ffffffffffffffffffffffffffffffffffffffff167f8be0079c531659141344cd1fd0a4f28419497f9722a3daafe3b4186f6b6457e060405160405180910390a35050565b7f4e487b71000000000000000000000000000000000000000000000000000000005f52602160045260245ffd5b5f5ffd5b5f73ffffffffffffffffffffffffffffffffffffffff82169050919050565b5f61044082610417565b9050919050565b61045081610436565b811461045a575f5ffd5b50565b5f8151905061046b81610447565b92915050565b5f819050919050565b61048381610471565b811461048d575f5ffd5b50565b5f8151905061049e8161047a565b92915050565b5f5f5f5f5f5f5f5f5f6101208a8c0312156104c2576104c1610413565b5b5f6104cf8c828d0161045d565b99505060206104e08c828d0161045d565b98505060406104f18c828d0161045d565b97505060606105028c828d01610490565b96505060806105138c828d01610490565b95505060a06105248c828d01610490565b94505060c06105358c828d01610490565b93505060e06105468c828d01610490565b9250506101006105588c828d01610490565b9150509295985092959850929598565b61057181610436565b82525050565b5f60208201905061058a5f830184610568565b92915050565b5f82825260208201905092915050565b7f496e76616c6964207374616b6520746f6b656e000000000000000000000000005f82015250565b5f6105d4601383610590565b91506105df826105a0565b602082019050919050565b5f6020820190508181035f830152610601816105c8565b9050919050565b7f496e76616c69642072657761726420746f6b656e0000000000000000000000005f82015250565b5f61063c601483610590565b915061064782610608565b602082019050919050565b5f6020820190508181035f83015261066981610630565b9050919050565b7f496e76616c6964207465616d2077616c6c6574000000000000000000000000005f82015250565b5f6106a4601383610590565b91506106af82610670565b602082019050919050565b5f6020820190508181035f8301526106d181610698565b9050919050565b60805160a05160c05160e051610100516101205161014051610160516101805161233b6107ad5f395f8181610b5b0152818161131701526114e501525f8181610a0f01526110d101525f8181611026015261141901525f81816107930152610fc301525f81816107eb015261151101525f8181610f53015281816113f5015261153201525f81816109eb0152610d7301525f8181610be301528181610cce01528181610d9501526114c101525f818161068d0152818161076f015281816108d001528181610b9801526111ec015261233b5ff3fe608060405234801561000f575f5ffd5b50600436106101cd575f3560e01c8063817b1cd211610102578063cab9b8fb116100a0578063f2fde38b1161006f578063f2fde38b14610479578063f7c618c114610495578063f959680b146104b3578063fe1d3795146104d1576101cd565b8063cab9b8fb14610401578063d719fa971461041f578063e9b987461461043d578063ea1b28e01461045b576101cd565b80638da7ad23116100dc5780638da7ad2314610367578063a30a247414610397578063a694fc3a146103b5578063b973e1bf146103d1576101cd565b8063817b1cd2146103215780638456cb591461033f5780638da5cb5b14610349576101cd565b8063455ab53c1161016f578063649040711161014957806364904071146102d15780636f4a2cd0146102ef578063715018a6146102f9578063790ca41314610303576101cd565b8063455ab53c1461028b5780634f984c5c146102a957806359927044146102b3576101cd565b8063292a6b19116101ab578063292a6b1914610227578063375b3c0a146102455780633f4ba83a1461026357806340f02ab61461026d576101cd565b806301339c21146101d157806302ac512f146101db57806310d63d031461020b575b5f5ffd5b6101d96104db565b005b6101f560048036038101906101f09190611986565b6105b8565b60405161020291906119f0565b60405180910390f35b61022560048036038101906102209190611a33565b6105f3565b005b61022f61076d565b60405161023c9190611ab9565b60405180910390f35b61024d610791565b60405161025a9190611ae1565b60405180910390f35b61026b6107b5565b005b6102756107e9565b6040516102829190611ae1565b60405180910390f35b61029361080d565b6040516102a09190611b6d565b60405180910390f35b6102b161081f565b005b6102bb6109e9565b6040516102c891906119f0565b60405180910390f35b6102d9610a0d565b6040516102e69190611ae1565b60405180910390f35b6102f7610a31565b005b610301610de5565b005b61030b610df8565b6040516103189190611ae1565b60405180910390f35b610329610dfe565b6040516103369190611ae1565b60405180910390f35b610347610e04565b005b610351610e38565b60405161035e91906119f0565b60405180910390f35b610381600480360381019061037c9190611a33565b610e5f565b60405161038e9190611ae1565b60405180910390f35b61039f610e74565b6040516103ac9190611ba0565b60405180910390f35b6103cf60048036038101906103ca9190611986565b610e86565b005b6103eb60048036038101906103e69190611986565b6112f5565b6040516103f89190611ae1565b60405180910390f35b610409611353565b6040516104169190611b6d565b60405180910390f35b610427611368565b6040516104349190611c70565b60405180910390f35b6104456113f3565b6040516104529190611ae1565b60405180910390f35b610463611417565b6040516104709190611ae1565b60405180910390f35b610493600480360381019061048e9190611a33565b61143b565b005b61049d6114bf565b6040516104aa9190611ab9565b60405180910390f35b6104bb6114e3565b6040516104c89190611ae1565b60405180910390f35b6104d9611507565b005b6104e361160c565b60025f9054906101000a900460ff1615610532576040517f08c379a000000000000000000000000000000000000000000000000000000000815260040161052990611cea565b60405180910390fd5b600160025f6101000a81548160ff02191690831515021790555042600381905550600160045f6101000a81548160ff0219169083600381111561057857610577611afa565b5b02179055507fa72e5e150ebe7b67363131cf1d5e72a8053adc58eb1879467ebd529ae3d4ecca6003546040516105ae9190611ae1565b60405180910390a1565b600781815481106105c7575f80fd5b905f5260205f20015f915054906101000a900473ffffffffffffffffffffffffffffffffffffffff1681565b6105fb61160c565b610603611693565b5f60065f8373ffffffffffffffffffffffffffffffffffffffff1673ffffffffffffffffffffffffffffffffffffffff1681526020019081526020015f205490505f8111610686576040517f08c379a000000000000000000000000000000000000000000000000000000000815260040161067d90611d52565b60405180910390fd5b6106d182827f000000000000000000000000000000000000000000000000000000000000000073ffffffffffffffffffffffffffffffffffffffff166116e29092919063ffffffff16565b5f60065f8473ffffffffffffffffffffffffffffffffffffffff1673ffffffffffffffffffffffffffffffffffffffff1681526020019081526020015f20819055508173ffffffffffffffffffffffffffffffffffffffff167fbf8f812d3d85df21758e37a857352fb02610f4278c682198af5c5c00bbb3d500826040516107599190611ae1565b60405180910390a25061076a611761565b50565b7f000000000000000000000000000000000000000000000000000000000000000081565b7f000000000000000000000000000000000000000000000000000000000000000081565b6107bd61160c565b600160045f6101000a81548160ff021916908360038111156107e2576107e1611afa565b5b0217905550565b7f000000000000000000000000000000000000000000000000000000000000000081565b60045f9054906101000a900460ff1681565b61082761160c565b61082f611693565b5f5f90505b6007805490508110156109b4575f6007828154811061085657610855611d70565b5b905f5260205f20015f9054906101000a900473ffffffffffffffffffffffffffffffffffffffff1690505f60065f8373ffffffffffffffffffffffffffffffffffffffff1673ffffffffffffffffffffffffffffffffffffffff1681526020019081526020015f205490505f8111156109a55761091482827f000000000000000000000000000000000000000000000000000000000000000073ffffffffffffffffffffffffffffffffffffffff166116e29092919063ffffffff16565b5f60065f8473ffffffffffffffffffffffffffffffffffffffff1673ffffffffffffffffffffffffffffffffffffffff1681526020019081526020015f20819055508173ffffffffffffffffffffffffffffffffffffffff167fb2372f309a2c0b54c10ce95469012d95c4d8cc7c8a154bfc22db66d993abbc718260405161099c9190611ae1565b60405180910390a25b50508080600101915050610834565b50600360045f6101000a81548160ff021916908360038111156109da576109d9611afa565b5b02179055506109e7611761565b565b7f000000000000000000000000000000000000000000000000000000000000000081565b7f000000000000000000000000000000000000000000000000000000000000000081565b610a3961160c565b610a41611693565b600380811115610a5457610a53611afa565b5b60045f9054906101000a900460ff166003811115610a7557610a74611afa565b5b14610ab5576040517f08c379a0000000000000000000000000000000000000000000000000000000008152600401610aac90611de7565b60405180910390fd5b5f5f90505b600780549050811015610cca575f60078281548110610adc57610adb611d70565b5b905f5260205f20015f9054906101000a900473ffffffffffffffffffffffffffffffffffffffff1690505f60065f8373ffffffffffffffffffffffffffffffffffffffff1673ffffffffffffffffffffffffffffffffffffffff1681526020019081526020015f205490505f8103610b55575050610cbd565b5f6005547f000000000000000000000000000000000000000000000000000000000000000083610b859190611e32565b610b8f9190611ea0565b9050610bdc83837f000000000000000000000000000000000000000000000000000000000000000073ffffffffffffffffffffffffffffffffffffffff166116e29092919063ffffffff16565b610c2783827f000000000000000000000000000000000000000000000000000000000000000073ffffffffffffffffffffffffffffffffffffffff166116e29092919063ffffffff16565b5f60065f8573ffffffffffffffffffffffffffffffffffffffff1673ffffffffffffffffffffffffffffffffffffffff1681526020019081526020015f20819055508273ffffffffffffffffffffffffffffffffffffffff167f53118bff2fb56701752f5bf54053d24fb83cec92f9f6ce664b90c38a2991caa48383604051610cb1929190611ed0565b60405180910390a25050505b8080600101915050610aba565b505f7f000000000000000000000000000000000000000000000000000000000000000073ffffffffffffffffffffffffffffffffffffffff166370a08231306040518263ffffffff1660e01b8152600401610d2591906119f0565b602060405180830381865afa158015610d40573d5f5f3e3d5ffd5b505050506040513d601f19601f82011682018060405250810190610d649190611f0b565b90505f811115610dda57610dd97f0000000000000000000000000000000000000000000000000000000000000000827f000000000000000000000000000000000000000000000000000000000000000073ffffffffffffffffffffffffffffffffffffffff166116e29092919063ffffffff16565b5b50610de3611761565b565b610ded61160c565b610df65f61176a565b565b60035481565b60055481565b610e0c61160c565b600260045f6101000a81548160ff02191690836003811115610e3157610e30611afa565b5b0217905550565b5f5f5f9054906101000a900473ffffffffffffffffffffffffffffffffffffffff16905090565b6006602052805f5260405f205f915090505481565b60025f9054906101000a900460ff1681565b610e8e611693565b60016003811115610ea257610ea1611afa565b5b60045f9054906101000a900460ff166003811115610ec357610ec2611afa565b5b14610f03576040517f08c379a0000000000000000000000000000000000000000000000000000000008152600401610efa90611f80565b60405180910390fd5b60025f9054906101000a900460ff16610f51576040517f08c379a0000000000000000000000000000000000000000000000000000000008152600401610f4890611fe8565b60405180910390fd5b7f0000000000000000000000000000000000000000000000000000000000000000600354610f7f9190612006565b421115610fc1576040517f08c379a0000000000000000000000000000000000000000000000000000000008152600401610fb890612083565b60405180910390fd5b7f0000000000000000000000000000000000000000000000000000000000000000811015611024576040517f08c379a000000000000000000000000000000000000000000000000000000000815260040161101b906120eb565b60405180910390fd5b7f00000000000000000000000000000000000000000000000000000000000000008160065f3373ffffffffffffffffffffffffffffffffffffffff1673ffffffffffffffffffffffffffffffffffffffff1681526020019081526020015f205461108e9190612006565b11156110cf576040517f08c379a00000000000000000000000000000000000000000000000000000000081526004016110c690612153565b60405180910390fd5b7f0000000000000000000000000000000000000000000000000000000000000000816005546110fe9190612006565b111561113f576040517f08c379a0000000000000000000000000000000000000000000000000000000008152600401611136906121bb565b60405180910390fd5b5f60065f3373ffffffffffffffffffffffffffffffffffffffff1673ffffffffffffffffffffffffffffffffffffffff1681526020019081526020015f2054036111e457600733908060018154018082558091505060019003905f5260205f20015f9091909190916101000a81548173ffffffffffffffffffffffffffffffffffffffff021916908373ffffffffffffffffffffffffffffffffffffffff1602179055505b6112313330837f000000000000000000000000000000000000000000000000000000000000000073ffffffffffffffffffffffffffffffffffffffff1661182b909392919063ffffffff16565b8060065f3373ffffffffffffffffffffffffffffffffffffffff1673ffffffffffffffffffffffffffffffffffffffff1681526020019081526020015f205f82825461127d9190612006565b925050819055508060055f8282546112959190612006565b925050819055503373ffffffffffffffffffffffffffffffffffffffff167febedb8b3c678666e7f36970bc8f57abf6d8fa2e828c0da91ea5b75bf68ed101a826040516112e29190611ae1565b60405180910390a26112f2611761565b50565b5f5f600554148061130557505f82145b15611312575f905061134e565b6005547f0000000000000000000000000000000000000000000000000000000000000000836113419190611e32565b61134b9190611ea0565b90505b919050565b5f60045f9054906101000a900460ff16905090565b606060078054806020026020016040519081016040528092919081815260200182805480156113e957602002820191905f5260205f20905b815f9054906101000a900473ffffffffffffffffffffffffffffffffffffffff1673ffffffffffffffffffffffffffffffffffffffff16815260200190600101908083116113a0575b5050505050905090565b7f000000000000000000000000000000000000000000000000000000000000000081565b7f000000000000000000000000000000000000000000000000000000000000000081565b61144361160c565b5f73ffffffffffffffffffffffffffffffffffffffff168173ffffffffffffffffffffffffffffffffffffffff16036114b3575f6040517f1e4fbdf70000000000000000000000000000000000000000000000000000000081526004016114aa91906119f0565b60405180910390fd5b6114bc8161176a565b50565b7f000000000000000000000000000000000000000000000000000000000000000081565b7f000000000000000000000000000000000000000000000000000000000000000081565b61150f61160c565b7f00000000000000000000000000000000000000000000000000000000000000007f000000000000000000000000000000000000000000000000000000000000000060035461155e9190612006565b6115689190612006565b42116115a9576040517f08c379a00000000000000000000000000000000000000000000000000000000081526004016115a090612223565b60405180910390fd5b600360045f6101000a81548160ff021916908360038111156115ce576115cd611afa565b5b02179055507faaaf03c480f43393f2414d5013b316f6cc36576bed29ae1ea15d8936dcc0d5e7426040516116029190611ae1565b60405180910390a1565b6116146118ad565b73ffffffffffffffffffffffffffffffffffffffff16611632610e38565b73ffffffffffffffffffffffffffffffffffffffff1614611691576116556118ad565b6040517f118cdaa700000000000000000000000000000000000000000000000000000000815260040161168891906119f0565b60405180910390fd5b565b6002600154036116d8576040517f08c379a00000000000000000000000000000000000000000000000000000000081526004016116cf9061228b565b60405180910390fd5b6002600181905550565b61175c838473ffffffffffffffffffffffffffffffffffffffff1663a9059cbb85856040516024016117159291906122a9565b604051602081830303815290604052915060e01b6020820180517bffffffffffffffffffffffffffffffffffffffffffffffffffffffff83818316178352505050506118b4565b505050565b60018081905550565b5f5f5f9054906101000a900473ffffffffffffffffffffffffffffffffffffffff169050815f5f6101000a81548173ffffffffffffffffffffffffffffffffffffffff021916908373ffffffffffffffffffffffffffffffffffffffff1602179055508173ffffffffffffffffffffffffffffffffffffffff168173ffffffffffffffffffffffffffffffffffffffff167f8be0079c531659141344cd1fd0a4f28419497f9722a3daafe3b4186f6b6457e060405160405180910390a35050565b6118a7848573ffffffffffffffffffffffffffffffffffffffff166323b872dd868686604051602401611860939291906122d0565b604051602081830303815290604052915060e01b6020820180517bffffffffffffffffffffffffffffffffffffffffffffffffffffffff83818316178352505050506118b4565b50505050565b5f33905090565b5f5f60205f8451602086015f885af1806118d3576040513d5f823e3d81fd5b3d92505f519150505f82146118ec576001811415611907565b5f8473ffffffffffffffffffffffffffffffffffffffff163b145b1561194957836040517f5274afe700000000000000000000000000000000000000000000000000000000815260040161194091906119f0565b60405180910390fd5b50505050565b5f5ffd5b5f819050919050565b61196581611953565b811461196f575f5ffd5b50565b5f813590506119808161195c565b92915050565b5f6020828403121561199b5761199a61194f565b5b5f6119a884828501611972565b91505092915050565b5f73ffffffffffffffffffffffffffffffffffffffff82169050919050565b5f6119da826119b1565b9050919050565b6119ea816119d0565b82525050565b5f602082019050611a035f8301846119e1565b92915050565b611a12816119d0565b8114611a1c575f5ffd5b50565b5f81359050611a2d81611a09565b92915050565b5f60208284031215611a4857611a4761194f565b5b5f611a5584828501611a1f565b91505092915050565b5f819050919050565b5f611a81611a7c611a77846119b1565b611a5e565b6119b1565b9050919050565b5f611a9282611a67565b9050919050565b5f611aa382611a88565b9050919050565b611ab381611a99565b82525050565b5f602082019050611acc5f830184611aaa565b92915050565b611adb81611953565b82525050565b5f602082019050611af45f830184611ad2565b92915050565b7f4e487b71000000000000000000000000000000000000000000000000000000005f52602160045260245ffd5b60048110611b3857611b37611afa565b5b50565b5f819050611b4882611b27565b919050565b5f611b5782611b3b565b9050919050565b611b6781611b4d565b82525050565b5f602082019050611b805f830184611b5e565b92915050565b5f8115159050919050565b611b9a81611b86565b82525050565b5f602082019050611bb35f830184611b91565b92915050565b5f81519050919050565b5f82825260208201905092915050565b5f819050602082019050919050565b611beb816119d0565b82525050565b5f611bfc8383611be2565b60208301905092915050565b5f602082019050919050565b5f611c1e82611bb9565b611c288185611bc3565b9350611c3383611bd3565b805f5b83811015611c63578151611c4a8882611bf1565b9750611c5583611c08565b925050600181019050611c36565b5085935050505092915050565b5f6020820190508181035f830152611c888184611c14565b905092915050565b5f82825260208201905092915050565b7f416c7265616479206c61756e63686564000000000000000000000000000000005f82015250565b5f611cd4601083611c90565b9150611cdf82611ca0565b602082019050919050565b5f6020820190508181035f830152611d0181611cc8565b9050919050565b7f4e6f7468696e6720746f207465726d696e6174650000000000000000000000005f82015250565b5f611d3c601483611c90565b9150611d4782611d08565b602082019050919050565b5f6020820190508181035f830152611d6981611d30565b9050919050565b7f4e487b71000000000000000000000000000000000000000000000000000000005f52603260045260245ffd5b7f5374616b696e67206e6f7420636f6d706c6574650000000000000000000000005f82015250565b5f611dd1601483611c90565b9150611ddc82611d9d565b602082019050919050565b5f6020820190508181035f830152611dfe81611dc5565b9050919050565b7f4e487b71000000000000000000000000000000000000000000000000000000005f52601160045260245ffd5b5f611e3c82611953565b9150611e4783611953565b9250828202611e5581611953565b91508282048414831517611e6c57611e6b611e05565b5b5092915050565b7f4e487b71000000000000000000000000000000000000000000000000000000005f52601260045260245ffd5b5f611eaa82611953565b9150611eb583611953565b925082611ec557611ec4611e73565b5b828204905092915050565b5f604082019050611ee35f830185611ad2565b611ef06020830184611ad2565b9392505050565b5f81519050611f058161195c565b92915050565b5f60208284031215611f2057611f1f61194f565b5b5f611f2d84828501611ef7565b91505092915050565b7f5374616b696e67206e6f742061637469766500000000000000000000000000005f82015250565b5f611f6a601283611c90565b9150611f7582611f36565b602082019050919050565b5f6020820190508181035f830152611f9781611f5e565b9050919050565b7f5374616b696e67206e6f74206c697665000000000000000000000000000000005f82015250565b5f611fd2601083611c90565b9150611fdd82611f9e565b602082019050919050565b5f6020820190508181035f830152611fff81611fc6565b9050919050565b5f61201082611953565b915061201b83611953565b925082820190508082111561203357612032611e05565b5b92915050565b7f42757920706572696f64206f76657200000000000000000000000000000000005f82015250565b5f61206d600f83611c90565b915061207882612039565b602082019050919050565b5f6020820190508181035f83015261209a81612061565b9050919050565b7f42656c6f77206d696e207374616b6500000000000000000000000000000000005f82015250565b5f6120d5600f83611c90565b91506120e0826120a1565b602082019050919050565b5f6020820190508181035f830152612102816120c9565b9050919050565b7f45786365656473206d6178207374616b650000000000000000000000000000005f82015250565b5f61213d601183611c90565b915061214882612109565b602082019050919050565b5f6020820190508181035f83015261216a81612131565b9050919050565b7f4578636565647320746f74616c20706f6f6c00000000000000000000000000005f82015250565b5f6121a5601283611c90565b91506121b082612171565b602082019050919050565b5f6020820190508181035f8301526121d281612199565b9050919050565b7f5374616b65206e6f7420656e64656400000000000000000000000000000000005f82015250565b5f61220d600f83611c90565b9150612218826121d9565b602082019050919050565b5f6020820190508181035f83015261223a81612201565b9050919050565b7f5265656e7472616e637947756172643a207265656e7472616e742063616c6c005f82015250565b5f612275601f83611c90565b915061228082612241565b602082019050919050565b5f6020820190508181035f8301526122a281612269565b9050919050565b5f6040820190506122bc5f8301856119e1565b6122c96020830184611ad2565b9392505050565b5f6060820190506122e35f8301866119e1565b6122f060208301856119e1565b6122fd6040830184611ad2565b94935050505056fea26469706673582212205e89409125f5c943b6837e2fcb642abfb4fb5e2958f7363817e02a4d74f42eb264736f6c634300081e0033",
					"opcodes": "PUSH2 0x1A0 PUSH1 0x40 MSTORE PUSH0 PUSH1 0x2 PUSH0 PUSH2 0x100 EXP DUP2 SLOAD DUP2 PUSH1 0xFF MUL NOT AND SWAP1 DUP4 ISZERO ISZERO MUL OR SWAP1 SSTORE POP PUSH0 PUSH1 0x4 PUSH0 PUSH2 0x100 EXP DUP2 SLOAD DUP2 PUSH1 0xFF MUL NOT AND SWAP1 DUP4 PUSH1 0x3 DUP2 GT ISZERO PUSH2 0x42 JUMPI PUSH2 0x41 PUSH2 0x3E6 JUMP JUMPDEST JUMPDEST MUL OR SWAP1 SSTORE POP CALLVALUE DUP1 ISZERO PUSH2 0x52 JUMPI PUSH0 PUSH0 REVERT JUMPDEST POP PUSH1 0x40 MLOAD PUSH2 0x2AE8 CODESIZE SUB DUP1 PUSH2 0x2AE8 DUP4 CODECOPY DUP2 DUP2 ADD PUSH1 0x40 MSTORE DUP2 ADD SWAP1 PUSH2 0x74 SWAP2 SWAP1 PUSH2 0x4A4 JUMP JUMPDEST CALLER PUSH0 PUSH20 0xFFFFFFFFFFFFFFFFFFFFFFFFFFFFFFFFFFFFFFFF AND DUP2 PUSH20 0xFFFFFFFFFFFFFFFFFFFFFFFFFFFFFFFFFFFFFFFF AND SUB PUSH2 0xE5 JUMPI PUSH0 PUSH1 0x40 MLOAD PUSH32 0x1E4FBDF700000000000000000000000000000000000000000000000000000000 DUP2 MSTORE PUSH1 0x4 ADD PUSH2 0xDC SWAP2 SWAP1 PUSH2 0x577 JUMP JUMPDEST PUSH1 0x40 MLOAD DUP1 SWAP2 SUB SWAP1 REVERT JUMPDEST PUSH2 0xF4 DUP2 PUSH2 0x325 PUSH1 0x20 SHL PUSH1 0x20 SHR JUMP JUMPDEST POP PUSH1 0x1 DUP1 DUP2 SWAP1 SSTORE POP PUSH0 PUSH20 0xFFFFFFFFFFFFFFFFFFFFFFFFFFFFFFFFFFFFFFFF AND DUP10 PUSH20 0xFFFFFFFFFFFFFFFFFFFFFFFFFFFFFFFFFFFFFFFF AND SUB PUSH2 0x16A JUMPI PUSH1 0x40 MLOAD PUSH32 0x8C379A000000000000000000000000000000000000000000000000000000000 DUP2 MSTORE PUSH1 0x4 ADD PUSH2 0x161 SWAP1 PUSH2 0x5EA JUMP JUMPDEST PUSH1 0x40 MLOAD DUP1 SWAP2 SUB SWAP1 REVERT JUMPDEST PUSH0 PUSH20 0xFFFFFFFFFFFFFFFFFFFFFFFFFFFFFFFFFFFFFFFF AND DUP9 PUSH20 0xFFFFFFFFFFFFFFFFFFFFFFFFFFFFFFFFFFFFFFFF AND SUB PUSH2 0x1D8 JUMPI PUSH1 0x40 MLOAD PUSH32 0x8C379A000000000000000000000000000000000000000000000000000000000 DUP2 MSTORE PUSH1 0x4 ADD PUSH2 0x1CF SWAP1 PUSH2 0x652 JUMP JUMPDEST PUSH1 0x40 MLOAD DUP1 SWAP2 SUB SWAP1 REVERT JUMPDEST PUSH0 PUSH20 0xFFFFFFFFFFFFFFFFFFFFFFFFFFFFFFFFFFFFFFFF AND DUP8 PUSH20 0xFFFFFFFFFFFFFFFFFFFFFFFFFFFFFFFFFFFFFFFF AND SUB PUSH2 0x246 JUMPI PUSH1 0x40 MLOAD PUSH32 0x8C379A000000000000000000000000000000000000000000000000000000000 DUP2 MSTORE PUSH1 0x4 ADD PUSH2 0x23D SWAP1 PUSH2 0x6BA JUMP JUMPDEST PUSH1 0x40 MLOAD DUP1 SWAP2 SUB SWAP1 REVERT JUMPDEST DUP9 PUSH20 0xFFFFFFFFFFFFFFFFFFFFFFFFFFFFFFFFFFFFFFFF AND PUSH1 0x80 DUP2 PUSH20 0xFFFFFFFFFFFFFFFFFFFFFFFFFFFFFFFFFFFFFFFF AND DUP2 MSTORE POP POP DUP8 PUSH20 0xFFFFFFFFFFFFFFFFFFFFFFFFFFFFFFFFFFFFFFFF AND PUSH1 0xA0 DUP2 PUSH20 0xFFFFFFFFFFFFFFFFFFFFFFFFFFFFFFFFFFFFFFFF AND DUP2 MSTORE POP POP DUP7 PUSH20 0xFFFFFFFFFFFFFFFFFFFFFFFFFFFFFFFFFFFFFFFF AND PUSH1 0xC0 DUP2 PUSH20 0xFFFFFFFFFFFFFFFFFFFFFFFFFFFFFFFFFFFFFFFF AND DUP2 MSTORE POP POP DUP6 PUSH1 0xE0 DUP2 DUP2 MSTORE POP POP DUP5 PUSH2 0x100 DUP2 DUP2 MSTORE POP POP DUP4 PUSH2 0x120 DUP2 DUP2 MSTORE POP POP DUP3 PUSH2 0x140 DUP2 DUP2 MSTORE POP POP DUP2 PUSH2 0x160 DUP2 DUP2 MSTORE POP POP DUP1 PUSH2 0x180 DUP2 DUP2 MSTORE POP POP POP POP POP POP POP POP POP POP POP PUSH2 0x6D8 JUMP JUMPDEST PUSH0 PUSH0 PUSH0 SWAP1 SLOAD SWAP1 PUSH2 0x100 EXP SWAP1 DIV PUSH20 0xFFFFFFFFFFFFFFFFFFFFFFFFFFFFFFFFFFFFFFFF AND SWAP1 POP DUP2 PUSH0 PUSH0 PUSH2 0x100 EXP DUP2 SLOAD DUP2 PUSH20 0xFFFFFFFFFFFFFFFFFFFFFFFFFFFFFFFFFFFFFFFF MUL NOT AND SWAP1 DUP4 PUSH20 0xFFFFFFFFFFFFFFFFFFFFFFFFFFFFFFFFFFFFFFFF AND MUL OR SWAP1 SSTORE POP DUP2 PUSH20 0xFFFFFFFFFFFFFFFFFFFFFFFFFFFFFFFFFFFFFFFF AND DUP2 PUSH20 0xFFFFFFFFFFFFFFFFFFFFFFFFFFFFFFFFFFFFFFFF AND PUSH32 0x8BE0079C531659141344CD1FD0A4F28419497F9722A3DAAFE3B4186F6B6457E0 PUSH1 0x40 MLOAD PUSH1 0x40 MLOAD DUP1 SWAP2 SUB SWAP1 LOG3 POP POP JUMP JUMPDEST PUSH32 0x4E487B7100000000000000000000000000000000000000000000000000000000 PUSH0 MSTORE PUSH1 0x21 PUSH1 0x4 MSTORE PUSH1 0x24 PUSH0 REVERT JUMPDEST PUSH0 PUSH0 REVERT JUMPDEST PUSH0 PUSH20 0xFFFFFFFFFFFFFFFFFFFFFFFFFFFFFFFFFFFFFFFF DUP3 AND SWAP1 POP SWAP2 SWAP1 POP JUMP JUMPDEST PUSH0 PUSH2 0x440 DUP3 PUSH2 0x417 JUMP JUMPDEST SWAP1 POP SWAP2 SWAP1 POP JUMP JUMPDEST PUSH2 0x450 DUP2 PUSH2 0x436 JUMP JUMPDEST DUP2 EQ PUSH2 0x45A JUMPI PUSH0 PUSH0 REVERT JUMPDEST POP JUMP JUMPDEST PUSH0 DUP2 MLOAD SWAP1 POP PUSH2 0x46B DUP2 PUSH2 0x447 JUMP JUMPDEST SWAP3 SWAP2 POP POP JUMP JUMPDEST PUSH0 DUP2 SWAP1 POP SWAP2 SWAP1 POP JUMP JUMPDEST PUSH2 0x483 DUP2 PUSH2 0x471 JUMP JUMPDEST DUP2 EQ PUSH2 0x48D JUMPI PUSH0 PUSH0 REVERT JUMPDEST POP JUMP JUMPDEST PUSH0 DUP2 MLOAD SWAP1 POP PUSH2 0x49E DUP2 PUSH2 0x47A JUMP JUMPDEST SWAP3 SWAP2 POP POP JUMP JUMPDEST PUSH0 PUSH0 PUSH0 PUSH0 PUSH0 PUSH0 PUSH0 PUSH0 PUSH0 PUSH2 0x120 DUP11 DUP13 SUB SLT ISZERO PUSH2 0x4C2 JUMPI PUSH2 0x4C1 PUSH2 0x413 JUMP JUMPDEST JUMPDEST PUSH0 PUSH2 0x4CF DUP13 DUP3 DUP14 ADD PUSH2 0x45D JUMP JUMPDEST SWAP10 POP POP PUSH1 0x20 PUSH2 0x4E0 DUP13 DUP3 DUP14 ADD PUSH2 0x45D JUMP JUMPDEST SWAP9 POP POP PUSH1 0x40 PUSH2 0x4F1 DUP13 DUP3 DUP14 ADD PUSH2 0x45D JUMP JUMPDEST SWAP8 POP POP PUSH1 0x60 PUSH2 0x502 DUP13 DUP3 DUP14 ADD PUSH2 0x490 JUMP JUMPDEST SWAP7 POP POP PUSH1 0x80 PUSH2 0x513 DUP13 DUP3 DUP14 ADD PUSH2 0x490 JUMP JUMPDEST SWAP6 POP POP PUSH1 0xA0 PUSH2 0x524 DUP13 DUP3 DUP14 ADD PUSH2 0x490 JUMP JUMPDEST SWAP5 POP POP PUSH1 0xC0 PUSH2 0x535 DUP13 DUP3 DUP14 ADD PUSH2 0x490 JUMP JUMPDEST SWAP4 POP POP PUSH1 0xE0 PUSH2 0x546 DUP13 DUP3 DUP14 ADD PUSH2 0x490 JUMP JUMPDEST SWAP3 POP POP PUSH2 0x100 PUSH2 0x558 DUP13 DUP3 DUP14 ADD PUSH2 0x490 JUMP JUMPDEST SWAP2 POP POP SWAP3 SWAP6 SWAP9 POP SWAP3 SWAP6 SWAP9 POP SWAP3 SWAP6 SWAP9 JUMP JUMPDEST PUSH2 0x571 DUP2 PUSH2 0x436 JUMP JUMPDEST DUP3 MSTORE POP POP JUMP JUMPDEST PUSH0 PUSH1 0x20 DUP3 ADD SWAP1 POP PUSH2 0x58A PUSH0 DUP4 ADD DUP5 PUSH2 0x568 JUMP JUMPDEST SWAP3 SWAP2 POP POP JUMP JUMPDEST PUSH0 DUP3 DUP3 MSTORE PUSH1 0x20 DUP3 ADD SWAP1 POP SWAP3 SWAP2 POP POP JUMP JUMPDEST PUSH32 0x496E76616C6964207374616B6520746F6B656E00000000000000000000000000 PUSH0 DUP3 ADD MSTORE POP JUMP JUMPDEST PUSH0 PUSH2 0x5D4 PUSH1 0x13 DUP4 PUSH2 0x590 JUMP JUMPDEST SWAP2 POP PUSH2 0x5DF DUP3 PUSH2 0x5A0 JUMP JUMPDEST PUSH1 0x20 DUP3 ADD SWAP1 POP SWAP2 SWAP1 POP JUMP JUMPDEST PUSH0 PUSH1 0x20 DUP3 ADD SWAP1 POP DUP2 DUP2 SUB PUSH0 DUP4 ADD MSTORE PUSH2 0x601 DUP2 PUSH2 0x5C8 JUMP JUMPDEST SWAP1 POP SWAP2 SWAP1 POP JUMP JUMPDEST PUSH32 0x496E76616C69642072657761726420746F6B656E000000000000000000000000 PUSH0 DUP3 ADD MSTORE POP JUMP JUMPDEST PUSH0 PUSH2 0x63C PUSH1 0x14 DUP4 PUSH2 0x590 JUMP JUMPDEST SWAP2 POP PUSH2 0x647 DUP3 PUSH2 0x608 JUMP JUMPDEST PUSH1 0x20 DUP3 ADD SWAP1 POP SWAP2 SWAP1 POP JUMP JUMPDEST PUSH0 PUSH1 0x20 DUP3 ADD SWAP1 POP DUP2 DUP2 SUB PUSH0 DUP4 ADD MSTORE PUSH2 0x669 DUP2 PUSH2 0x630 JUMP JUMPDEST SWAP1 POP SWAP2 SWAP1 POP JUMP JUMPDEST PUSH32 0x496E76616C6964207465616D2077616C6C657400000000000000000000000000 PUSH0 DUP3 ADD MSTORE POP JUMP JUMPDEST PUSH0 PUSH2 0x6A4 PUSH1 0x13 DUP4 PUSH2 0x590 JUMP JUMPDEST SWAP2 POP PUSH2 0x6AF DUP3 PUSH2 0x670 JUMP JUMPDEST PUSH1 0x20 DUP3 ADD SWAP1 POP SWAP2 SWAP1 POP JUMP JUMPDEST PUSH0 PUSH1 0x20 DUP3 ADD SWAP1 POP DUP2 DUP2 SUB PUSH0 DUP4 ADD MSTORE PUSH2 0x6D1 DUP2 PUSH2 0x698 JUMP JUMPDEST SWAP1 POP SWAP2 SWAP1 POP JUMP JUMPDEST PUSH1 0x80 MLOAD PUSH1 0xA0 MLOAD PUSH1 0xC0 MLOAD PUSH1 0xE0 MLOAD PUSH2 0x100 MLOAD PUSH2 0x120 MLOAD PUSH2 0x140 MLOAD PUSH2 0x160 MLOAD PUSH2 0x180 MLOAD PUSH2 0x233B PUSH2 0x7AD PUSH0 CODECOPY PUSH0 DUP2 DUP2 PUSH2 0xB5B ADD MSTORE DUP2 DUP2 PUSH2 0x1317 ADD MSTORE PUSH2 0x14E5 ADD MSTORE PUSH0 DUP2 DUP2 PUSH2 0xA0F ADD MSTORE PUSH2 0x10D1 ADD MSTORE PUSH0 DUP2 DUP2 PUSH2 0x1026 ADD MSTORE PUSH2 0x1419 ADD MSTORE PUSH0 DUP2 DUP2 PUSH2 0x793 ADD MSTORE PUSH2 0xFC3 ADD MSTORE PUSH0 DUP2 DUP2 PUSH2 0x7EB ADD MSTORE PUSH2 0x1511 ADD MSTORE PUSH0 DUP2 DUP2 PUSH2 0xF53 ADD MSTORE DUP2 DUP2 PUSH2 0x13F5 ADD MSTORE PUSH2 0x1532 ADD MSTORE PUSH0 DUP2 DUP2 PUSH2 0x9EB ADD MSTORE PUSH2 0xD73 ADD MSTORE PUSH0 DUP2 DUP2 PUSH2 0xBE3 ADD MSTORE DUP2 DUP2 PUSH2 0xCCE ADD MSTORE DUP2 DUP2 PUSH2 0xD95 ADD MSTORE PUSH2 0x14C1 ADD MSTORE PUSH0 DUP2 DUP2 PUSH2 0x68D ADD MSTORE DUP2 DUP2 PUSH2 0x76F ADD MSTORE DUP2 DUP2 PUSH2 0x8D0 ADD MSTORE DUP2 DUP2 PUSH2 0xB98 ADD MSTORE PUSH2 0x11EC ADD MSTORE PUSH2 0x233B PUSH0 RETURN INVALID PUSH1 0x80 PUSH1 0x40 MSTORE CALLVALUE DUP1 ISZERO PUSH2 0xF JUMPI PUSH0 PUSH0 REVERT JUMPDEST POP PUSH1 0x4 CALLDATASIZE LT PUSH2 0x1CD JUMPI PUSH0 CALLDATALOAD PUSH1 0xE0 SHR DUP1 PUSH4 0x817B1CD2 GT PUSH2 0x102 JUMPI DUP1 PUSH4 0xCAB9B8FB GT PUSH2 0xA0 JUMPI DUP1 PUSH4 0xF2FDE38B GT PUSH2 0x6F JUMPI DUP1 PUSH4 0xF2FDE38B EQ PUSH2 0x479 JUMPI DUP1 PUSH4 0xF7C618C1 EQ PUSH2 0x495 JUMPI DUP1 PUSH4 0xF959680B EQ PUSH2 0x4B3 JUMPI DUP1 PUSH4 0xFE1D3795 EQ PUSH2 0x4D1 JUMPI PUSH2 0x1CD JUMP JUMPDEST DUP1 PUSH4 0xCAB9B8FB EQ PUSH2 0x401 JUMPI DUP1 PUSH4 0xD719FA97 EQ PUSH2 0x41F JUMPI DUP1 PUSH4 0xE9B98746 EQ PUSH2 0x43D JUMPI DUP1 PUSH4 0xEA1B28E0 EQ PUSH2 0x45B JUMPI PUSH2 0x1CD JUMP JUMPDEST DUP1 PUSH4 0x8DA7AD23 GT PUSH2 0xDC JUMPI DUP1 PUSH4 0x8DA7AD23 EQ PUSH2 0x367 JUMPI DUP1 PUSH4 0xA30A2474 EQ PUSH2 0x397 JUMPI DUP1 PUSH4 0xA694FC3A EQ PUSH2 0x3B5 JUMPI DUP1 PUSH4 0xB973E1BF EQ PUSH2 0x3D1 JUMPI PUSH2 0x1CD JUMP JUMPDEST DUP1 PUSH4 0x817B1CD2 EQ PUSH2 0x321 JUMPI DUP1 PUSH4 0x8456CB59 EQ PUSH2 0x33F JUMPI DUP1 PUSH4 0x8DA5CB5B EQ PUSH2 0x349 JUMPI PUSH2 0x1CD JUMP JUMPDEST DUP1 PUSH4 0x455AB53C GT PUSH2 0x16F JUMPI DUP1 PUSH4 0x64904071 GT PUSH2 0x149 JUMPI DUP1 PUSH4 0x64904071 EQ PUSH2 0x2D1 JUMPI DUP1 PUSH4 0x6F4A2CD0 EQ PUSH2 0x2EF JUMPI DUP1 PUSH4 0x715018A6 EQ PUSH2 0x2F9 JUMPI DUP1 PUSH4 0x790CA413 EQ PUSH2 0x303 JUMPI PUSH2 0x1CD JUMP JUMPDEST DUP1 PUSH4 0x455AB53C EQ PUSH2 0x28B JUMPI DUP1 PUSH4 0x4F984C5C EQ PUSH2 0x2A9 JUMPI DUP1 PUSH4 0x59927044 EQ PUSH2 0x2B3 JUMPI PUSH2 0x1CD JUMP JUMPDEST DUP1 PUSH4 0x292A6B19 GT PUSH2 0x1AB JUMPI DUP1 PUSH4 0x292A6B19 EQ PUSH2 0x227 JUMPI DUP1 PUSH4 0x375B3C0A EQ PUSH2 0x245 JUMPI DUP1 PUSH4 0x3F4BA83A EQ PUSH2 0x263 JUMPI DUP1 PUSH4 0x40F02AB6 EQ PUSH2 0x26D JUMPI PUSH2 0x1CD JUMP JUMPDEST DUP1 PUSH4 0x1339C21 EQ PUSH2 0x1D1 JUMPI DUP1 PUSH4 0x2AC512F EQ PUSH2 0x1DB JUMPI DUP1 PUSH4 0x10D63D03 EQ PUSH2 0x20B JUMPI JUMPDEST PUSH0 PUSH0 REVERT JUMPDEST PUSH2 0x1D9 PUSH2 0x4DB JUMP JUMPDEST STOP JUMPDEST PUSH2 0x1F5 PUSH1 0x4 DUP1 CALLDATASIZE SUB DUP2 ADD SWAP1 PUSH2 0x1F0 SWAP2 SWAP1 PUSH2 0x1986 JUMP JUMPDEST PUSH2 0x5B8 JUMP JUMPDEST PUSH1 0x40 MLOAD PUSH2 0x202 SWAP2 SWAP1 PUSH2 0x19F0 JUMP JUMPDEST PUSH1 0x40 MLOAD DUP1 SWAP2 SUB SWAP1 RETURN JUMPDEST PUSH2 0x225 PUSH1 0x4 DUP1 CALLDATASIZE SUB DUP2 ADD SWAP1 PUSH2 0x220 SWAP2 SWAP1 PUSH2 0x1A33 JUMP JUMPDEST PUSH2 0x5F3 JUMP JUMPDEST STOP JUMPDEST PUSH2 0x22F PUSH2 0x76D JUMP JUMPDEST PUSH1 0x40 MLOAD PUSH2 0x23C SWAP2 SWAP1 PUSH2 0x1AB9 JUMP JUMPDEST PUSH1 0x40 MLOAD DUP1 SWAP2 SUB SWAP1 RETURN JUMPDEST PUSH2 0x24D PUSH2 0x791 JUMP JUMPDEST PUSH1 0x40 MLOAD PUSH2 0x25A SWAP2 SWAP1 PUSH2 0x1AE1 JUMP JUMPDEST PUSH1 0x40 MLOAD DUP1 SWAP2 SUB SWAP1 RETURN JUMPDEST PUSH2 0x26B PUSH2 0x7B5 JUMP JUMPDEST STOP JUMPDEST PUSH2 0x275 PUSH2 0x7E9 JUMP JUMPDEST PUSH1 0x40 MLOAD PUSH2 0x282 SWAP2 SWAP1 PUSH2 0x1AE1 JUMP JUMPDEST PUSH1 0x40 MLOAD DUP1 SWAP2 SUB SWAP1 RETURN JUMPDEST PUSH2 0x293 PUSH2 0x80D JUMP JUMPDEST PUSH1 0x40 MLOAD PUSH2 0x2A0 SWAP2 SWAP1 PUSH2 0x1B6D JUMP JUMPDEST PUSH1 0x40 MLOAD DUP1 SWAP2 SUB SWAP1 RETURN JUMPDEST PUSH2 0x2B1 PUSH2 0x81F JUMP JUMPDEST STOP JUMPDEST PUSH2 0x2BB PUSH2 0x9E9 JUMP JUMPDEST PUSH1 0x40 MLOAD PUSH2 0x2C8 SWAP2 SWAP1 PUSH2 0x19F0 JUMP JUMPDEST PUSH1 0x40 MLOAD DUP1 SWAP2 SUB SWAP1 RETURN JUMPDEST PUSH2 0x2D9 PUSH2 0xA0D JUMP JUMPDEST PUSH1 0x40 MLOAD PUSH2 0x2E6 SWAP2 SWAP1 PUSH2 0x1AE1 JUMP JUMPDEST PUSH1 0x40 MLOAD DUP1 SWAP2 SUB SWAP1 RETURN JUMPDEST PUSH2 0x2F7 PUSH2 0xA31 JUMP JUMPDEST STOP JUMPDEST PUSH2 0x301 PUSH2 0xDE5 JUMP JUMPDEST STOP JUMPDEST PUSH2 0x30B PUSH2 0xDF8 JUMP JUMPDEST PUSH1 0x40 MLOAD PUSH2 0x318 SWAP2 SWAP1 PUSH2 0x1AE1 JUMP JUMPDEST PUSH1 0x40 MLOAD DUP1 SWAP2 SUB SWAP1 RETURN JUMPDEST PUSH2 0x329 PUSH2 0xDFE JUMP JUMPDEST PUSH1 0x40 MLOAD PUSH2 0x336 SWAP2 SWAP1 PUSH2 0x1AE1 JUMP JUMPDEST PUSH1 0x40 MLOAD DUP1 SWAP2 SUB SWAP1 RETURN JUMPDEST PUSH2 0x347 PUSH2 0xE04 JUMP JUMPDEST STOP JUMPDEST PUSH2 0x351 PUSH2 0xE38 JUMP JUMPDEST PUSH1 0x40 MLOAD PUSH2 0x35E SWAP2 SWAP1 PUSH2 0x19F0 JUMP JUMPDEST PUSH1 0x40 MLOAD DUP1 SWAP2 SUB SWAP1 RETURN JUMPDEST PUSH2 0x381 PUSH1 0x4 DUP1 CALLDATASIZE SUB DUP2 ADD SWAP1 PUSH2 0x37C SWAP2 SWAP1 PUSH2 0x1A33 JUMP JUMPDEST PUSH2 0xE5F JUMP JUMPDEST PUSH1 0x40 MLOAD PUSH2 0x38E SWAP2 SWAP1 PUSH2 0x1AE1 JUMP JUMPDEST PUSH1 0x40 MLOAD DUP1 SWAP2 SUB SWAP1 RETURN JUMPDEST PUSH2 0x39F PUSH2 0xE74 JUMP JUMPDEST PUSH1 0x40 MLOAD PUSH2 0x3AC SWAP2 SWAP1 PUSH2 0x1BA0 JUMP JUMPDEST PUSH1 0x40 MLOAD DUP1 SWAP2 SUB SWAP1 RETURN JUMPDEST PUSH2 0x3CF PUSH1 0x4 DUP1 CALLDATASIZE SUB DUP2 ADD SWAP1 PUSH2 0x3CA SWAP2 SWAP1 PUSH2 0x1986 JUMP JUMPDEST PUSH2 0xE86 JUMP JUMPDEST STOP JUMPDEST PUSH2 0x3EB PUSH1 0x4 DUP1 CALLDATASIZE SUB DUP2 ADD SWAP1 PUSH2 0x3E6 SWAP2 SWAP1 PUSH2 0x1986 JUMP JUMPDEST PUSH2 0x12F5 JUMP JUMPDEST PUSH1 0x40 MLOAD PUSH2 0x3F8 SWAP2 SWAP1 PUSH2 0x1AE1 JUMP JUMPDEST PUSH1 0x40 MLOAD DUP1 SWAP2 SUB SWAP1 RETURN JUMPDEST PUSH2 0x409 PUSH2 0x1353 JUMP JUMPDEST PUSH1 0x40 MLOAD PUSH2 0x416 SWAP2 SWAP1 PUSH2 0x1B6D JUMP JUMPDEST PUSH1 0x40 MLOAD DUP1 SWAP2 SUB SWAP1 RETURN JUMPDEST PUSH2 0x427 PUSH2 0x1368 JUMP JUMPDEST PUSH1 0x40 MLOAD PUSH2 0x434 SWAP2 SWAP1 PUSH2 0x1C70 JUMP JUMPDEST PUSH1 0x40 MLOAD DUP1 SWAP2 SUB SWAP1 RETURN JUMPDEST PUSH2 0x445 PUSH2 0x13F3 JUMP JUMPDEST PUSH1 0x40 MLOAD PUSH2 0x452 SWAP2 SWAP1 PUSH2 0x1AE1 JUMP JUMPDEST PUSH1 0x40 MLOAD DUP1 SWAP2 SUB SWAP1 RETURN JUMPDEST PUSH2 0x463 PUSH2 0x1417 JUMP JUMPDEST PUSH1 0x40 MLOAD PUSH2 0x470 SWAP2 SWAP1 PUSH2 0x1AE1 JUMP JUMPDEST PUSH1 0x40 MLOAD DUP1 SWAP2 SUB SWAP1 RETURN JUMPDEST PUSH2 0x493 PUSH1 0x4 DUP1 CALLDATASIZE SUB DUP2 ADD SWAP1 PUSH2 0x48E SWAP2 SWAP1 PUSH2 0x1A33 JUMP JUMPDEST PUSH2 0x143B JUMP JUMPDEST STOP JUMPDEST PUSH2 0x49D PUSH2 0x14BF JUMP JUMPDEST PUSH1 0x40 MLOAD PUSH2 0x4AA SWAP2 SWAP1 PUSH2 0x1AB9 JUMP JUMPDEST PUSH1 0x40 MLOAD DUP1 SWAP2 SUB SWAP1 RETURN JUMPDEST PUSH2 0x4BB PUSH2 0x14E3 JUMP JUMPDEST PUSH1 0x40 MLOAD PUSH2 0x4C8 SWAP2 SWAP1 PUSH2 0x1AE1 JUMP JUMPDEST PUSH1 0x40 MLOAD DUP1 SWAP2 SUB SWAP1 RETURN JUMPDEST PUSH2 0x4D9 PUSH2 0x1507 JUMP JUMPDEST STOP JUMPDEST PUSH2 0x4E3 PUSH2 0x160C JUMP JUMPDEST PUSH1 0x2 PUSH0 SWAP1 SLOAD SWAP1 PUSH2 0x100 EXP SWAP1 DIV PUSH1 0xFF AND ISZERO PUSH2 0x532 JUMPI PUSH1 0x40 MLOAD PUSH32 0x8C379A000000000000000000000000000000000000000000000000000000000 DUP2 MSTORE PUSH1 0x4 ADD PUSH2 0x529 SWAP1 PUSH2 0x1CEA JUMP JUMPDEST PUSH1 0x40 MLOAD DUP1 SWAP2 SUB SWAP1 REVERT JUMPDEST PUSH1 0x1 PUSH1 0x2 PUSH0 PUSH2 0x100 EXP DUP2 SLOAD DUP2 PUSH1 0xFF MUL NOT AND SWAP1 DUP4 ISZERO ISZERO MUL OR SWAP1 SSTORE POP TIMESTAMP PUSH1 0x3 DUP2 SWAP1 SSTORE POP PUSH1 0x1 PUSH1 0x4 PUSH0 PUSH2 0x100 EXP DUP2 SLOAD DUP2 PUSH1 0xFF MUL NOT AND SWAP1 DUP4 PUSH1 0x3 DUP2 GT ISZERO PUSH2 0x578 JUMPI PUSH2 0x577 PUSH2 0x1AFA JUMP JUMPDEST JUMPDEST MUL OR SWAP1 SSTORE POP PUSH32 0xA72E5E150EBE7B67363131CF1D5E72A8053ADC58EB1879467EBD529AE3D4ECCA PUSH1 0x3 SLOAD PUSH1 0x40 MLOAD PUSH2 0x5AE SWAP2 SWAP1 PUSH2 0x1AE1 JUMP JUMPDEST PUSH1 0x40 MLOAD DUP1 SWAP2 SUB SWAP1 LOG1 JUMP JUMPDEST PUSH1 0x7 DUP2 DUP2 SLOAD DUP2 LT PUSH2 0x5C7 JUMPI PUSH0 DUP1 REVERT JUMPDEST SWAP1 PUSH0 MSTORE PUSH1 0x20 PUSH0 KECCAK256 ADD PUSH0 SWAP2 POP SLOAD SWAP1 PUSH2 0x100 EXP SWAP1 DIV PUSH20 0xFFFFFFFFFFFFFFFFFFFFFFFFFFFFFFFFFFFFFFFF AND DUP2 JUMP JUMPDEST PUSH2 0x5FB PUSH2 0x160C JUMP JUMPDEST PUSH2 0x603 PUSH2 0x1693 JUMP JUMPDEST PUSH0 PUSH1 0x6 PUSH0 DUP4 PUSH20 0xFFFFFFFFFFFFFFFFFFFFFFFFFFFFFFFFFFFFFFFF AND PUSH20 0xFFFFFFFFFFFFFFFFFFFFFFFFFFFFFFFFFFFFFFFF AND DUP2 MSTORE PUSH1 0x20 ADD SWAP1 DUP2 MSTORE PUSH1 0x20 ADD PUSH0 KECCAK256 SLOAD SWAP1 POP PUSH0 DUP2 GT PUSH2 0x686 JUMPI PUSH1 0x40 MLOAD PUSH32 0x8C379A000000000000000000000000000000000000000000000000000000000 DUP2 MSTORE PUSH1 0x4 ADD PUSH2 0x67D SWAP1 PUSH2 0x1D52 JUMP JUMPDEST PUSH1 0x40 MLOAD DUP1 SWAP2 SUB SWAP1 REVERT JUMPDEST PUSH2 0x6D1 DUP3 DUP3 PUSH32 0x0 PUSH20 0xFFFFFFFFFFFFFFFFFFFFFFFFFFFFFFFFFFFFFFFF AND PUSH2 0x16E2 SWAP1 SWAP3 SWAP2 SWAP1 PUSH4 0xFFFFFFFF AND JUMP JUMPDEST PUSH0 PUSH1 0x6 PUSH0 DUP5 PUSH20 0xFFFFFFFFFFFFFFFFFFFFFFFFFFFFFFFFFFFFFFFF AND PUSH20 0xFFFFFFFFFFFFFFFFFFFFFFFFFFFFFFFFFFFFFFFF AND DUP2 MSTORE PUSH1 0x20 ADD SWAP1 DUP2 MSTORE PUSH1 0x20 ADD PUSH0 KECCAK256 DUP2 SWAP1 SSTORE POP DUP2 PUSH20 0xFFFFFFFFFFFFFFFFFFFFFFFFFFFFFFFFFFFFFFFF AND PUSH32 0xBF8F812D3D85DF21758E37A857352FB02610F4278C682198AF5C5C00BBB3D500 DUP3 PUSH1 0x40 MLOAD PUSH2 0x759 SWAP2 SWAP1 PUSH2 0x1AE1 JUMP JUMPDEST PUSH1 0x40 MLOAD DUP1 SWAP2 SUB SWAP1 LOG2 POP PUSH2 0x76A PUSH2 0x1761 JUMP JUMPDEST POP JUMP JUMPDEST PUSH32 0x0 DUP2 JUMP JUMPDEST PUSH32 0x0 DUP2 JUMP JUMPDEST PUSH2 0x7BD PUSH2 0x160C JUMP JUMPDEST PUSH1 0x1 PUSH1 0x4 PUSH0 PUSH2 0x100 EXP DUP2 SLOAD DUP2 PUSH1 0xFF MUL NOT AND SWAP1 DUP4 PUSH1 0x3 DUP2 GT ISZERO PUSH2 0x7E2 JUMPI PUSH2 0x7E1 PUSH2 0x1AFA JUMP JUMPDEST JUMPDEST MUL OR SWAP1 SSTORE POP JUMP JUMPDEST PUSH32 0x0 DUP2 JUMP JUMPDEST PUSH1 0x4 PUSH0 SWAP1 SLOAD SWAP1 PUSH2 0x100 EXP SWAP1 DIV PUSH1 0xFF AND DUP2 JUMP JUMPDEST PUSH2 0x827 PUSH2 0x160C JUMP JUMPDEST PUSH2 0x82F PUSH2 0x1693 JUMP JUMPDEST PUSH0 PUSH0 SWAP1 POP JUMPDEST PUSH1 0x7 DUP1 SLOAD SWAP1 POP DUP2 LT ISZERO PUSH2 0x9B4 JUMPI PUSH0 PUSH1 0x7 DUP3 DUP2 SLOAD DUP2 LT PUSH2 0x856 JUMPI PUSH2 0x855 PUSH2 0x1D70 JUMP JUMPDEST JUMPDEST SWAP1 PUSH0 MSTORE PUSH1 0x20 PUSH0 KECCAK256 ADD PUSH0 SWAP1 SLOAD SWAP1 PUSH2 0x100 EXP SWAP1 DIV PUSH20 0xFFFFFFFFFFFFFFFFFFFFFFFFFFFFFFFFFFFFFFFF AND SWAP1 POP PUSH0 PUSH1 0x6 PUSH0 DUP4 PUSH20 0xFFFFFFFFFFFFFFFFFFFFFFFFFFFFFFFFFFFFFFFF AND PUSH20 0xFFFFFFFFFFFFFFFFFFFFFFFFFFFFFFFFFFFFFFFF AND DUP2 MSTORE PUSH1 0x20 ADD SWAP1 DUP2 MSTORE PUSH1 0x20 ADD PUSH0 KECCAK256 SLOAD SWAP1 POP PUSH0 DUP2 GT ISZERO PUSH2 0x9A5 JUMPI PUSH2 0x914 DUP3 DUP3 PUSH32 0x0 PUSH20 0xFFFFFFFFFFFFFFFFFFFFFFFFFFFFFFFFFFFFFFFF AND PUSH2 0x16E2 SWAP1 SWAP3 SWAP2 SWAP1 PUSH4 0xFFFFFFFF AND JUMP JUMPDEST PUSH0 PUSH1 0x6 PUSH0 DUP5 PUSH20 0xFFFFFFFFFFFFFFFFFFFFFFFFFFFFFFFFFFFFFFFF AND PUSH20 0xFFFFFFFFFFFFFFFFFFFFFFFFFFFFFFFFFFFFFFFF AND DUP2 MSTORE PUSH1 0x20 ADD SWAP1 DUP2 MSTORE PUSH1 0x20 ADD PUSH0 KECCAK256 DUP2 SWAP1 SSTORE POP DUP2 PUSH20 0xFFFFFFFFFFFFFFFFFFFFFFFFFFFFFFFFFFFFFFFF AND PUSH32 0xB2372F309A2C0B54C10CE95469012D95C4D8CC7C8A154BFC22DB66D993ABBC71 DUP3 PUSH1 0x40 MLOAD PUSH2 0x99C SWAP2 SWAP1 PUSH2 0x1AE1 JUMP JUMPDEST PUSH1 0x40 MLOAD DUP1 SWAP2 SUB SWAP1 LOG2 JUMPDEST POP POP DUP1 DUP1 PUSH1 0x1 ADD SWAP2 POP POP PUSH2 0x834 JUMP JUMPDEST POP PUSH1 0x3 PUSH1 0x4 PUSH0 PUSH2 0x100 EXP DUP2 SLOAD DUP2 PUSH1 0xFF MUL NOT AND SWAP1 DUP4 PUSH1 0x3 DUP2 GT ISZERO PUSH2 0x9DA JUMPI PUSH2 0x9D9 PUSH2 0x1AFA JUMP JUMPDEST JUMPDEST MUL OR SWAP1 SSTORE POP PUSH2 0x9E7 PUSH2 0x1761 JUMP JUMPDEST JUMP JUMPDEST PUSH32 0x0 DUP2 JUMP JUMPDEST PUSH32 0x0 DUP2 JUMP JUMPDEST PUSH2 0xA39 PUSH2 0x160C JUMP JUMPDEST PUSH2 0xA41 PUSH2 0x1693 JUMP JUMPDEST PUSH1 0x3 DUP1 DUP2 GT ISZERO PUSH2 0xA54 JUMPI PUSH2 0xA53 PUSH2 0x1AFA JUMP JUMPDEST JUMPDEST PUSH1 0x4 PUSH0 SWAP1 SLOAD SWAP1 PUSH2 0x100 EXP SWAP1 DIV PUSH1 0xFF AND PUSH1 0x3 DUP2 GT ISZERO PUSH2 0xA75 JUMPI PUSH2 0xA74 PUSH2 0x1AFA JUMP JUMPDEST JUMPDEST EQ PUSH2 0xAB5 JUMPI PUSH1 0x40 MLOAD PUSH32 0x8C379A000000000000000000000000000000000000000000000000000000000 DUP2 MSTORE PUSH1 0x4 ADD PUSH2 0xAAC SWAP1 PUSH2 0x1DE7 JUMP JUMPDEST PUSH1 0x40 MLOAD DUP1 SWAP2 SUB SWAP1 REVERT JUMPDEST PUSH0 PUSH0 SWAP1 POP JUMPDEST PUSH1 0x7 DUP1 SLOAD SWAP1 POP DUP2 LT ISZERO PUSH2 0xCCA JUMPI PUSH0 PUSH1 0x7 DUP3 DUP2 SLOAD DUP2 LT PUSH2 0xADC JUMPI PUSH2 0xADB PUSH2 0x1D70 JUMP JUMPDEST JUMPDEST SWAP1 PUSH0 MSTORE PUSH1 0x20 PUSH0 KECCAK256 ADD PUSH0 SWAP1 SLOAD SWAP1 PUSH2 0x100 EXP SWAP1 DIV PUSH20 0xFFFFFFFFFFFFFFFFFFFFFFFFFFFFFFFFFFFFFFFF AND SWAP1 POP PUSH0 PUSH1 0x6 PUSH0 DUP4 PUSH20 0xFFFFFFFFFFFFFFFFFFFFFFFFFFFFFFFFFFFFFFFF AND PUSH20 0xFFFFFFFFFFFFFFFFFFFFFFFFFFFFFFFFFFFFFFFF AND DUP2 MSTORE PUSH1 0x20 ADD SWAP1 DUP2 MSTORE PUSH1 0x20 ADD PUSH0 KECCAK256 SLOAD SWAP1 POP PUSH0 DUP2 SUB PUSH2 0xB55 JUMPI POP POP PUSH2 0xCBD JUMP JUMPDEST PUSH0 PUSH1 0x5 SLOAD PUSH32 0x0 DUP4 PUSH2 0xB85 SWAP2 SWAP1 PUSH2 0x1E32 JUMP JUMPDEST PUSH2 0xB8F SWAP2 SWAP1 PUSH2 0x1EA0 JUMP JUMPDEST SWAP1 POP PUSH2 0xBDC DUP4 DUP4 PUSH32 0x0 PUSH20 0xFFFFFFFFFFFFFFFFFFFFFFFFFFFFFFFFFFFFFFFF AND PUSH2 0x16E2 SWAP1 SWAP3 SWAP2 SWAP1 PUSH4 0xFFFFFFFF AND JUMP JUMPDEST PUSH2 0xC27 DUP4 DUP3 PUSH32 0x0 PUSH20 0xFFFFFFFFFFFFFFFFFFFFFFFFFFFFFFFFFFFFFFFF AND PUSH2 0x16E2 SWAP1 SWAP3 SWAP2 SWAP1 PUSH4 0xFFFFFFFF AND JUMP JUMPDEST PUSH0 PUSH1 0x6 PUSH0 DUP6 PUSH20 0xFFFFFFFFFFFFFFFFFFFFFFFFFFFFFFFFFFFFFFFF AND PUSH20 0xFFFFFFFFFFFFFFFFFFFFFFFFFFFFFFFFFFFFFFFF AND DUP2 MSTORE PUSH1 0x20 ADD SWAP1 DUP2 MSTORE PUSH1 0x20 ADD PUSH0 KECCAK256 DUP2 SWAP1 SSTORE POP DUP3 PUSH20 0xFFFFFFFFFFFFFFFFFFFFFFFFFFFFFFFFFFFFFFFF AND PUSH32 0x53118BFF2FB56701752F5BF54053D24FB83CEC92F9F6CE664B90C38A2991CAA4 DUP4 DUP4 PUSH1 0x40 MLOAD PUSH2 0xCB1 SWAP3 SWAP2 SWAP1 PUSH2 0x1ED0 JUMP JUMPDEST PUSH1 0x40 MLOAD DUP1 SWAP2 SUB SWAP1 LOG2 POP POP POP JUMPDEST DUP1 DUP1 PUSH1 0x1 ADD SWAP2 POP POP PUSH2 0xABA JUMP JUMPDEST POP PUSH0 PUSH32 0x0 PUSH20 0xFFFFFFFFFFFFFFFFFFFFFFFFFFFFFFFFFFFFFFFF AND PUSH4 0x70A08231 ADDRESS PUSH1 0x40 MLOAD DUP3 PUSH4 0xFFFFFFFF AND PUSH1 0xE0 SHL DUP2 MSTORE PUSH1 0x4 ADD PUSH2 0xD25 SWAP2 SWAP1 PUSH2 0x19F0 JUMP JUMPDEST PUSH1 0x20 PUSH1 0x40 MLOAD DUP1 DUP4 SUB DUP2 DUP7 GAS STATICCALL ISZERO DUP1 ISZERO PUSH2 0xD40 JUMPI RETURNDATASIZE PUSH0 PUSH0 RETURNDATACOPY RETURNDATASIZE PUSH0 REVERT JUMPDEST POP POP POP POP PUSH1 0x40 MLOAD RETURNDATASIZE PUSH1 0x1F NOT PUSH1 0x1F DUP3 ADD AND DUP3 ADD DUP1 PUSH1 0x40 MSTORE POP DUP2 ADD SWAP1 PUSH2 0xD64 SWAP2 SWAP1 PUSH2 0x1F0B JUMP JUMPDEST SWAP1 POP PUSH0 DUP2 GT ISZERO PUSH2 0xDDA JUMPI PUSH2 0xDD9 PUSH32 0x0 DUP3 PUSH32 0x0 PUSH20 0xFFFFFFFFFFFFFFFFFFFFFFFFFFFFFFFFFFFFFFFF AND PUSH2 0x16E2 SWAP1 SWAP3 SWAP2 SWAP1 PUSH4 0xFFFFFFFF AND JUMP JUMPDEST JUMPDEST POP PUSH2 0xDE3 PUSH2 0x1761 JUMP JUMPDEST JUMP JUMPDEST PUSH2 0xDED PUSH2 0x160C JUMP JUMPDEST PUSH2 0xDF6 PUSH0 PUSH2 0x176A JUMP JUMPDEST JUMP JUMPDEST PUSH1 0x3 SLOAD DUP2 JUMP JUMPDEST PUSH1 0x5 SLOAD DUP2 JUMP JUMPDEST PUSH2 0xE0C PUSH2 0x160C JUMP JUMPDEST PUSH1 0x2 PUSH1 0x4 PUSH0 PUSH2 0x100 EXP DUP2 SLOAD DUP2 PUSH1 0xFF MUL NOT AND SWAP1 DUP4 PUSH1 0x3 DUP2 GT ISZERO PUSH2 0xE31 JUMPI PUSH2 0xE30 PUSH2 0x1AFA JUMP JUMPDEST JUMPDEST MUL OR SWAP1 SSTORE POP JUMP JUMPDEST PUSH0 PUSH0 PUSH0 SWAP1 SLOAD SWAP1 PUSH2 0x100 EXP SWAP1 DIV PUSH20 0xFFFFFFFFFFFFFFFFFFFFFFFFFFFFFFFFFFFFFFFF AND SWAP1 POP SWAP1 JUMP JUMPDEST PUSH1 0x6 PUSH1 0x20 MSTORE DUP1 PUSH0 MSTORE PUSH1 0x40 PUSH0 KECCAK256 PUSH0 SWAP2 POP SWAP1 POP SLOAD DUP2 JUMP JUMPDEST PUSH1 0x2 PUSH0 SWAP1 SLOAD SWAP1 PUSH2 0x100 EXP SWAP1 DIV PUSH1 0xFF AND DUP2 JUMP JUMPDEST PUSH2 0xE8E PUSH2 0x1693 JUMP JUMPDEST PUSH1 0x1 PUSH1 0x3 DUP2 GT ISZERO PUSH2 0xEA2 JUMPI PUSH2 0xEA1 PUSH2 0x1AFA JUMP JUMPDEST JUMPDEST PUSH1 0x4 PUSH0 SWAP1 SLOAD SWAP1 PUSH2 0x100 EXP SWAP1 DIV PUSH1 0xFF AND PUSH1 0x3 DUP2 GT ISZERO PUSH2 0xEC3 JUMPI PUSH2 0xEC2 PUSH2 0x1AFA JUMP JUMPDEST JUMPDEST EQ PUSH2 0xF03 JUMPI PUSH1 0x40 MLOAD PUSH32 0x8C379A000000000000000000000000000000000000000000000000000000000 DUP2 MSTORE PUSH1 0x4 ADD PUSH2 0xEFA SWAP1 PUSH2 0x1F80 JUMP JUMPDEST PUSH1 0x40 MLOAD DUP1 SWAP2 SUB SWAP1 REVERT JUMPDEST PUSH1 0x2 PUSH0 SWAP1 SLOAD SWAP1 PUSH2 0x100 EXP SWAP1 DIV PUSH1 0xFF AND PUSH2 0xF51 JUMPI PUSH1 0x40 MLOAD PUSH32 0x8C379A000000000000000000000000000000000000000000000000000000000 DUP2 MSTORE PUSH1 0x4 ADD PUSH2 0xF48 SWAP1 PUSH2 0x1FE8 JUMP JUMPDEST PUSH1 0x40 MLOAD DUP1 SWAP2 SUB SWAP1 REVERT JUMPDEST PUSH32 0x0 PUSH1 0x3 SLOAD PUSH2 0xF7F SWAP2 SWAP1 PUSH2 0x2006 JUMP JUMPDEST TIMESTAMP GT ISZERO PUSH2 0xFC1 JUMPI PUSH1 0x40 MLOAD PUSH32 0x8C379A000000000000000000000000000000000000000000000000000000000 DUP2 MSTORE PUSH1 0x4 ADD PUSH2 0xFB8 SWAP1 PUSH2 0x2083 JUMP JUMPDEST PUSH1 0x40 MLOAD DUP1 SWAP2 SUB SWAP1 REVERT JUMPDEST PUSH32 0x0 DUP2 LT ISZERO PUSH2 0x1024 JUMPI PUSH1 0x40 MLOAD PUSH32 0x8C379A000000000000000000000000000000000000000000000000000000000 DUP2 MSTORE PUSH1 0x4 ADD PUSH2 0x101B SWAP1 PUSH2 0x20EB JUMP JUMPDEST PUSH1 0x40 MLOAD DUP1 SWAP2 SUB SWAP1 REVERT JUMPDEST PUSH32 0x0 DUP2 PUSH1 0x6 PUSH0 CALLER PUSH20 0xFFFFFFFFFFFFFFFFFFFFFFFFFFFFFFFFFFFFFFFF AND PUSH20 0xFFFFFFFFFFFFFFFFFFFFFFFFFFFFFFFFFFFFFFFF AND DUP2 MSTORE PUSH1 0x20 ADD SWAP1 DUP2 MSTORE PUSH1 0x20 ADD PUSH0 KECCAK256 SLOAD PUSH2 0x108E SWAP2 SWAP1 PUSH2 0x2006 JUMP JUMPDEST GT ISZERO PUSH2 0x10CF JUMPI PUSH1 0x40 MLOAD PUSH32 0x8C379A000000000000000000000000000000000000000000000000000000000 DUP2 MSTORE PUSH1 0x4 ADD PUSH2 0x10C6 SWAP1 PUSH2 0x2153 JUMP JUMPDEST PUSH1 0x40 MLOAD DUP1 SWAP2 SUB SWAP1 REVERT JUMPDEST PUSH32 0x0 DUP2 PUSH1 0x5 SLOAD PUSH2 0x10FE SWAP2 SWAP1 PUSH2 0x2006 JUMP JUMPDEST GT ISZERO PUSH2 0x113F JUMPI PUSH1 0x40 MLOAD PUSH32 0x8C379A000000000000000000000000000000000000000000000000000000000 DUP2 MSTORE PUSH1 0x4 ADD PUSH2 0x1136 SWAP1 PUSH2 0x21BB JUMP JUMPDEST PUSH1 0x40 MLOAD DUP1 SWAP2 SUB SWAP1 REVERT JUMPDEST PUSH0 PUSH1 0x6 PUSH0 CALLER PUSH20 0xFFFFFFFFFFFFFFFFFFFFFFFFFFFFFFFFFFFFFFFF AND PUSH20 0xFFFFFFFFFFFFFFFFFFFFFFFFFFFFFFFFFFFFFFFF AND DUP2 MSTORE PUSH1 0x20 ADD SWAP1 DUP2 MSTORE PUSH1 0x20 ADD PUSH0 KECCAK256 SLOAD SUB PUSH2 0x11E4 JUMPI PUSH1 0x7 CALLER SWAP1 DUP1 PUSH1 0x1 DUP2 SLOAD ADD DUP1 DUP3 SSTORE DUP1 SWAP2 POP POP PUSH1 0x1 SWAP1 SUB SWAP1 PUSH0 MSTORE PUSH1 0x20 PUSH0 KECCAK256 ADD PUSH0 SWAP1 SWAP2 SWAP1 SWAP2 SWAP1 SWAP2 PUSH2 0x100 EXP DUP2 SLOAD DUP2 PUSH20 0xFFFFFFFFFFFFFFFFFFFFFFFFFFFFFFFFFFFFFFFF MUL NOT AND SWAP1 DUP4 PUSH20 0xFFFFFFFFFFFFFFFFFFFFFFFFFFFFFFFFFFFFFFFF AND MUL OR SWAP1 SSTORE POP JUMPDEST PUSH2 0x1231 CALLER ADDRESS DUP4 PUSH32 0x0 PUSH20 0xFFFFFFFFFFFFFFFFFFFFFFFFFFFFFFFFFFFFFFFF AND PUSH2 0x182B SWAP1 SWAP4 SWAP3 SWAP2 SWAP1 PUSH4 0xFFFFFFFF AND JUMP JUMPDEST DUP1 PUSH1 0x6 PUSH0 CALLER PUSH20 0xFFFFFFFFFFFFFFFFFFFFFFFFFFFFFFFFFFFFFFFF AND PUSH20 0xFFFFFFFFFFFFFFFFFFFFFFFFFFFFFFFFFFFFFFFF AND DUP2 MSTORE PUSH1 0x20 ADD SWAP1 DUP2 MSTORE PUSH1 0x20 ADD PUSH0 KECCAK256 PUSH0 DUP3 DUP3 SLOAD PUSH2 0x127D SWAP2 SWAP1 PUSH2 0x2006 JUMP JUMPDEST SWAP3 POP POP DUP2 SWAP1 SSTORE POP DUP1 PUSH1 0x5 PUSH0 DUP3 DUP3 SLOAD PUSH2 0x1295 SWAP2 SWAP1 PUSH2 0x2006 JUMP JUMPDEST SWAP3 POP POP DUP2 SWAP1 SSTORE POP CALLER PUSH20 0xFFFFFFFFFFFFFFFFFFFFFFFFFFFFFFFFFFFFFFFF AND PUSH32 0xEBEDB8B3C678666E7F36970BC8F57ABF6D8FA2E828C0DA91EA5B75BF68ED101A DUP3 PUSH1 0x40 MLOAD PUSH2 0x12E2 SWAP2 SWAP1 PUSH2 0x1AE1 JUMP JUMPDEST PUSH1 0x40 MLOAD DUP1 SWAP2 SUB SWAP1 LOG2 PUSH2 0x12F2 PUSH2 0x1761 JUMP JUMPDEST POP JUMP JUMPDEST PUSH0 PUSH0 PUSH1 0x5 SLOAD EQ DUP1 PUSH2 0x1305 JUMPI POP PUSH0 DUP3 EQ JUMPDEST ISZERO PUSH2 0x1312 JUMPI PUSH0 SWAP1 POP PUSH2 0x134E JUMP JUMPDEST PUSH1 0x5 SLOAD PUSH32 0x0 DUP4 PUSH2 0x1341 SWAP2 SWAP1 PUSH2 0x1E32 JUMP JUMPDEST PUSH2 0x134B SWAP2 SWAP1 PUSH2 0x1EA0 JUMP JUMPDEST SWAP1 POP JUMPDEST SWAP2 SWAP1 POP JUMP JUMPDEST PUSH0 PUSH1 0x4 PUSH0 SWAP1 SLOAD SWAP1 PUSH2 0x100 EXP SWAP1 DIV PUSH1 0xFF AND SWAP1 POP SWAP1 JUMP JUMPDEST PUSH1 0x60 PUSH1 0x7 DUP1 SLOAD DUP1 PUSH1 0x20 MUL PUSH1 0x20 ADD PUSH1 0x40 MLOAD SWAP1 DUP2 ADD PUSH1 0x40 MSTORE DUP1 SWAP3 SWAP2 SWAP1 DUP2 DUP2 MSTORE PUSH1 0x20 ADD DUP3 DUP1 SLOAD DUP1 ISZERO PUSH2 0x13E9 JUMPI PUSH1 0x20 MUL DUP3 ADD SWAP2 SWAP1 PUSH0 MSTORE PUSH1 0x20 PUSH0 KECCAK256 SWAP1 JUMPDEST DUP2 PUSH0 SWAP1 SLOAD SWAP1 PUSH2 0x100 EXP SWAP1 DIV PUSH20 0xFFFFFFFFFFFFFFFFFFFFFFFFFFFFFFFFFFFFFFFF AND PUSH20 0xFFFFFFFFFFFFFFFFFFFFFFFFFFFFFFFFFFFFFFFF AND DUP2 MSTORE PUSH1 0x20 ADD SWAP1 PUSH1 0x1 ADD SWAP1 DUP1 DUP4 GT PUSH2 0x13A0 JUMPI JUMPDEST POP POP POP POP POP SWAP1 POP SWAP1 JUMP JUMPDEST PUSH32 0x0 DUP2 JUMP JUMPDEST PUSH32 0x0 DUP2 JUMP JUMPDEST PUSH2 0x1443 PUSH2 0x160C JUMP JUMPDEST PUSH0 PUSH20 0xFFFFFFFFFFFFFFFFFFFFFFFFFFFFFFFFFFFFFFFF AND DUP2 PUSH20 0xFFFFFFFFFFFFFFFFFFFFFFFFFFFFFFFFFFFFFFFF AND SUB PUSH2 0x14B3 JUMPI PUSH0 PUSH1 0x40 MLOAD PUSH32 0x1E4FBDF700000000000000000000000000000000000000000000000000000000 DUP2 MSTORE PUSH1 0x4 ADD PUSH2 0x14AA SWAP2 SWAP1 PUSH2 0x19F0 JUMP JUMPDEST PUSH1 0x40 MLOAD DUP1 SWAP2 SUB SWAP1 REVERT JUMPDEST PUSH2 0x14BC DUP2 PUSH2 0x176A JUMP JUMPDEST POP JUMP JUMPDEST PUSH32 0x0 DUP2 JUMP JUMPDEST PUSH32 0x0 DUP2 JUMP JUMPDEST PUSH2 0x150F PUSH2 0x160C JUMP JUMPDEST PUSH32 0x0 PUSH32 0x0 PUSH1 0x3 SLOAD PUSH2 0x155E SWAP2 SWAP1 PUSH2 0x2006 JUMP JUMPDEST PUSH2 0x1568 SWAP2 SWAP1 PUSH2 0x2006 JUMP JUMPDEST TIMESTAMP GT PUSH2 0x15A9 JUMPI PUSH1 0x40 MLOAD PUSH32 0x8C379A000000000000000000000000000000000000000000000000000000000 DUP2 MSTORE PUSH1 0x4 ADD PUSH2 0x15A0 SWAP1 PUSH2 0x2223 JUMP JUMPDEST PUSH1 0x40 MLOAD DUP1 SWAP2 SUB SWAP1 REVERT JUMPDEST PUSH1 0x3 PUSH1 0x4 PUSH0 PUSH2 0x100 EXP DUP2 SLOAD DUP2 PUSH1 0xFF MUL NOT AND SWAP1 DUP4 PUSH1 0x3 DUP2 GT ISZERO PUSH2 0x15CE JUMPI PUSH2 0x15CD PUSH2 0x1AFA JUMP JUMPDEST JUMPDEST MUL OR SWAP1 SSTORE POP PUSH32 0xAAAF03C480F43393F2414D5013B316F6CC36576BED29AE1EA15D8936DCC0D5E7 TIMESTAMP PUSH1 0x40 MLOAD PUSH2 0x1602 SWAP2 SWAP1 PUSH2 0x1AE1 JUMP JUMPDEST PUSH1 0x40 MLOAD DUP1 SWAP2 SUB SWAP1 LOG1 JUMP JUMPDEST PUSH2 0x1614 PUSH2 0x18AD JUMP JUMPDEST PUSH20 0xFFFFFFFFFFFFFFFFFFFFFFFFFFFFFFFFFFFFFFFF AND PUSH2 0x1632 PUSH2 0xE38 JUMP JUMPDEST PUSH20 0xFFFFFFFFFFFFFFFFFFFFFFFFFFFFFFFFFFFFFFFF AND EQ PUSH2 0x1691 JUMPI PUSH2 0x1655 PUSH2 0x18AD JUMP JUMPDEST PUSH1 0x40 MLOAD PUSH32 0x118CDAA700000000000000000000000000000000000000000000000000000000 DUP2 MSTORE PUSH1 0x4 ADD PUSH2 0x1688 SWAP2 SWAP1 PUSH2 0x19F0 JUMP JUMPDEST PUSH1 0x40 MLOAD DUP1 SWAP2 SUB SWAP1 REVERT JUMPDEST JUMP JUMPDEST PUSH1 0x2 PUSH1 0x1 SLOAD SUB PUSH2 0x16D8 JUMPI PUSH1 0x40 MLOAD PUSH32 0x8C379A000000000000000000000000000000000000000000000000000000000 DUP2 MSTORE PUSH1 0x4 ADD PUSH2 0x16CF SWAP1 PUSH2 0x228B JUMP JUMPDEST PUSH1 0x40 MLOAD DUP1 SWAP2 SUB SWAP1 REVERT JUMPDEST PUSH1 0x2 PUSH1 0x1 DUP2 SWAP1 SSTORE POP JUMP JUMPDEST PUSH2 0x175C DUP4 DUP5 PUSH20 0xFFFFFFFFFFFFFFFFFFFFFFFFFFFFFFFFFFFFFFFF AND PUSH4 0xA9059CBB DUP6 DUP6 PUSH1 0x40 MLOAD PUSH1 0x24 ADD PUSH2 0x1715 SWAP3 SWAP2 SWAP1 PUSH2 0x22A9 JUMP JUMPDEST PUSH1 0x40 MLOAD PUSH1 0x20 DUP2 DUP4 SUB SUB DUP2 MSTORE SWAP1 PUSH1 0x40 MSTORE SWAP2 POP PUSH1 0xE0 SHL PUSH1 0x20 DUP3 ADD DUP1 MLOAD PUSH28 0xFFFFFFFFFFFFFFFFFFFFFFFFFFFFFFFFFFFFFFFFFFFFFFFFFFFFFFFF DUP4 DUP2 DUP4 AND OR DUP4 MSTORE POP POP POP POP PUSH2 0x18B4 JUMP JUMPDEST POP POP POP JUMP JUMPDEST PUSH1 0x1 DUP1 DUP2 SWAP1 SSTORE POP JUMP JUMPDEST PUSH0 PUSH0 PUSH0 SWAP1 SLOAD SWAP1 PUSH2 0x100 EXP SWAP1 DIV PUSH20 0xFFFFFFFFFFFFFFFFFFFFFFFFFFFFFFFFFFFFFFFF AND SWAP1 POP DUP2 PUSH0 PUSH0 PUSH2 0x100 EXP DUP2 SLOAD DUP2 PUSH20 0xFFFFFFFFFFFFFFFFFFFFFFFFFFFFFFFFFFFFFFFF MUL NOT AND SWAP1 DUP4 PUSH20 0xFFFFFFFFFFFFFFFFFFFFFFFFFFFFFFFFFFFFFFFF AND MUL OR SWAP1 SSTORE POP DUP2 PUSH20 0xFFFFFFFFFFFFFFFFFFFFFFFFFFFFFFFFFFFFFFFF AND DUP2 PUSH20 0xFFFFFFFFFFFFFFFFFFFFFFFFFFFFFFFFFFFFFFFF AND PUSH32 0x8BE0079C531659141344CD1FD0A4F28419497F9722A3DAAFE3B4186F6B6457E0 PUSH1 0x40 MLOAD PUSH1 0x40 MLOAD DUP1 SWAP2 SUB SWAP1 LOG3 POP POP JUMP JUMPDEST PUSH2 0x18A7 DUP5 DUP6 PUSH20 0xFFFFFFFFFFFFFFFFFFFFFFFFFFFFFFFFFFFFFFFF AND PUSH4 0x23B872DD DUP7 DUP7 DUP7 PUSH1 0x40 MLOAD PUSH1 0x24 ADD PUSH2 0x1860 SWAP4 SWAP3 SWAP2 SWAP1 PUSH2 0x22D0 JUMP JUMPDEST PUSH1 0x40 MLOAD PUSH1 0x20 DUP2 DUP4 SUB SUB DUP2 MSTORE SWAP1 PUSH1 0x40 MSTORE SWAP2 POP PUSH1 0xE0 SHL PUSH1 0x20 DUP3 ADD DUP1 MLOAD PUSH28 0xFFFFFFFFFFFFFFFFFFFFFFFFFFFFFFFFFFFFFFFFFFFFFFFFFFFFFFFF DUP4 DUP2 DUP4 AND OR DUP4 MSTORE POP POP POP POP PUSH2 0x18B4 JUMP JUMPDEST POP POP POP POP JUMP JUMPDEST PUSH0 CALLER SWAP1 POP SWAP1 JUMP JUMPDEST PUSH0 PUSH0 PUSH1 0x20 PUSH0 DUP5 MLOAD PUSH1 0x20 DUP7 ADD PUSH0 DUP9 GAS CALL DUP1 PUSH2 0x18D3 JUMPI PUSH1 0x40 MLOAD RETURNDATASIZE PUSH0 DUP3 RETURNDATACOPY RETURNDATASIZE DUP2 REVERT JUMPDEST RETURNDATASIZE SWAP3 POP PUSH0 MLOAD SWAP2 POP POP PUSH0 DUP3 EQ PUSH2 0x18EC JUMPI PUSH1 0x1 DUP2 EQ ISZERO PUSH2 0x1907 JUMP JUMPDEST PUSH0 DUP5 PUSH20 0xFFFFFFFFFFFFFFFFFFFFFFFFFFFFFFFFFFFFFFFF AND EXTCODESIZE EQ JUMPDEST ISZERO PUSH2 0x1949 JUMPI DUP4 PUSH1 0x40 MLOAD PUSH32 0x5274AFE700000000000000000000000000000000000000000000000000000000 DUP2 MSTORE PUSH1 0x4 ADD PUSH2 0x1940 SWAP2 SWAP1 PUSH2 0x19F0 JUMP JUMPDEST PUSH1 0x40 MLOAD DUP1 SWAP2 SUB SWAP1 REVERT JUMPDEST POP POP POP POP JUMP JUMPDEST PUSH0 PUSH0 REVERT JUMPDEST PUSH0 DUP2 SWAP1 POP SWAP2 SWAP1 POP JUMP JUMPDEST PUSH2 0x1965 DUP2 PUSH2 0x1953 JUMP JUMPDEST DUP2 EQ PUSH2 0x196F JUMPI PUSH0 PUSH0 REVERT JUMPDEST POP JUMP JUMPDEST PUSH0 DUP2 CALLDATALOAD SWAP1 POP PUSH2 0x1980 DUP2 PUSH2 0x195C JUMP JUMPDEST SWAP3 SWAP2 POP POP JUMP JUMPDEST PUSH0 PUSH1 0x20 DUP3 DUP5 SUB SLT ISZERO PUSH2 0x199B JUMPI PUSH2 0x199A PUSH2 0x194F JUMP JUMPDEST JUMPDEST PUSH0 PUSH2 0x19A8 DUP5 DUP3 DUP6 ADD PUSH2 0x1972 JUMP JUMPDEST SWAP2 POP POP SWAP3 SWAP2 POP POP JUMP JUMPDEST PUSH0 PUSH20 0xFFFFFFFFFFFFFFFFFFFFFFFFFFFFFFFFFFFFFFFF DUP3 AND SWAP1 POP SWAP2 SWAP1 POP JUMP JUMPDEST PUSH0 PUSH2 0x19DA DUP3 PUSH2 0x19B1 JUMP JUMPDEST SWAP1 POP SWAP2 SWAP1 POP JUMP JUMPDEST PUSH2 0x19EA DUP2 PUSH2 0x19D0 JUMP JUMPDEST DUP3 MSTORE POP POP JUMP JUMPDEST PUSH0 PUSH1 0x20 DUP3 ADD SWAP1 POP PUSH2 0x1A03 PUSH0 DUP4 ADD DUP5 PUSH2 0x19E1 JUMP JUMPDEST SWAP3 SWAP2 POP POP JUMP JUMPDEST PUSH2 0x1A12 DUP2 PUSH2 0x19D0 JUMP JUMPDEST DUP2 EQ PUSH2 0x1A1C JUMPI PUSH0 PUSH0 REVERT JUMPDEST POP JUMP JUMPDEST PUSH0 DUP2 CALLDATALOAD SWAP1 POP PUSH2 0x1A2D DUP2 PUSH2 0x1A09 JUMP JUMPDEST SWAP3 SWAP2 POP POP JUMP JUMPDEST PUSH0 PUSH1 0x20 DUP3 DUP5 SUB SLT ISZERO PUSH2 0x1A48 JUMPI PUSH2 0x1A47 PUSH2 0x194F JUMP JUMPDEST JUMPDEST PUSH0 PUSH2 0x1A55 DUP5 DUP3 DUP6 ADD PUSH2 0x1A1F JUMP JUMPDEST SWAP2 POP POP SWAP3 SWAP2 POP POP JUMP JUMPDEST PUSH0 DUP2 SWAP1 POP SWAP2 SWAP1 POP JUMP JUMPDEST PUSH0 PUSH2 0x1A81 PUSH2 0x1A7C PUSH2 0x1A77 DUP5 PUSH2 0x19B1 JUMP JUMPDEST PUSH2 0x1A5E JUMP JUMPDEST PUSH2 0x19B1 JUMP JUMPDEST SWAP1 POP SWAP2 SWAP1 POP JUMP JUMPDEST PUSH0 PUSH2 0x1A92 DUP3 PUSH2 0x1A67 JUMP JUMPDEST SWAP1 POP SWAP2 SWAP1 POP JUMP JUMPDEST PUSH0 PUSH2 0x1AA3 DUP3 PUSH2 0x1A88 JUMP JUMPDEST SWAP1 POP SWAP2 SWAP1 POP JUMP JUMPDEST PUSH2 0x1AB3 DUP2 PUSH2 0x1A99 JUMP JUMPDEST DUP3 MSTORE POP POP JUMP JUMPDEST PUSH0 PUSH1 0x20 DUP3 ADD SWAP1 POP PUSH2 0x1ACC PUSH0 DUP4 ADD DUP5 PUSH2 0x1AAA JUMP JUMPDEST SWAP3 SWAP2 POP POP JUMP JUMPDEST PUSH2 0x1ADB DUP2 PUSH2 0x1953 JUMP JUMPDEST DUP3 MSTORE POP POP JUMP JUMPDEST PUSH0 PUSH1 0x20 DUP3 ADD SWAP1 POP PUSH2 0x1AF4 PUSH0 DUP4 ADD DUP5 PUSH2 0x1AD2 JUMP JUMPDEST SWAP3 SWAP2 POP POP JUMP JUMPDEST PUSH32 0x4E487B7100000000000000000000000000000000000000000000000000000000 PUSH0 MSTORE PUSH1 0x21 PUSH1 0x4 MSTORE PUSH1 0x24 PUSH0 REVERT JUMPDEST PUSH1 0x4 DUP2 LT PUSH2 0x1B38 JUMPI PUSH2 0x1B37 PUSH2 0x1AFA JUMP JUMPDEST JUMPDEST POP JUMP JUMPDEST PUSH0 DUP2 SWAP1 POP PUSH2 0x1B48 DUP3 PUSH2 0x1B27 JUMP JUMPDEST SWAP2 SWAP1 POP JUMP JUMPDEST PUSH0 PUSH2 0x1B57 DUP3 PUSH2 0x1B3B JUMP JUMPDEST SWAP1 POP SWAP2 SWAP1 POP JUMP JUMPDEST PUSH2 0x1B67 DUP2 PUSH2 0x1B4D JUMP JUMPDEST DUP3 MSTORE POP POP JUMP JUMPDEST PUSH0 PUSH1 0x20 DUP3 ADD SWAP1 POP PUSH2 0x1B80 PUSH0 DUP4 ADD DUP5 PUSH2 0x1B5E JUMP JUMPDEST SWAP3 SWAP2 POP POP JUMP JUMPDEST PUSH0 DUP2 ISZERO ISZERO SWAP1 POP SWAP2 SWAP1 POP JUMP JUMPDEST PUSH2 0x1B9A DUP2 PUSH2 0x1B86 JUMP JUMPDEST DUP3 MSTORE POP POP JUMP JUMPDEST PUSH0 PUSH1 0x20 DUP3 ADD SWAP1 POP PUSH2 0x1BB3 PUSH0 DUP4 ADD DUP5 PUSH2 0x1B91 JUMP JUMPDEST SWAP3 SWAP2 POP POP JUMP JUMPDEST PUSH0 DUP2 MLOAD SWAP1 POP SWAP2 SWAP1 POP JUMP JUMPDEST PUSH0 DUP3 DUP3 MSTORE PUSH1 0x20 DUP3 ADD SWAP1 POP SWAP3 SWAP2 POP POP JUMP JUMPDEST PUSH0 DUP2 SWAP1 POP PUSH1 0x20 DUP3 ADD SWAP1 POP SWAP2 SWAP1 POP JUMP JUMPDEST PUSH2 0x1BEB DUP2 PUSH2 0x19D0 JUMP JUMPDEST DUP3 MSTORE POP POP JUMP JUMPDEST PUSH0 PUSH2 0x1BFC DUP4 DUP4 PUSH2 0x1BE2 JUMP JUMPDEST PUSH1 0x20 DUP4 ADD SWAP1 POP SWAP3 SWAP2 POP POP JUMP JUMPDEST PUSH0 PUSH1 0x20 DUP3 ADD SWAP1 POP SWAP2 SWAP1 POP JUMP JUMPDEST PUSH0 PUSH2 0x1C1E DUP3 PUSH2 0x1BB9 JUMP JUMPDEST PUSH2 0x1C28 DUP2 DUP6 PUSH2 0x1BC3 JUMP JUMPDEST SWAP4 POP PUSH2 0x1C33 DUP4 PUSH2 0x1BD3 JUMP JUMPDEST DUP1 PUSH0 JUMPDEST DUP4 DUP2 LT ISZERO PUSH2 0x1C63 JUMPI DUP2 MLOAD PUSH2 0x1C4A DUP9 DUP3 PUSH2 0x1BF1 JUMP JUMPDEST SWAP8 POP PUSH2 0x1C55 DUP4 PUSH2 0x1C08 JUMP JUMPDEST SWAP3 POP POP PUSH1 0x1 DUP2 ADD SWAP1 POP PUSH2 0x1C36 JUMP JUMPDEST POP DUP6 SWAP4 POP POP POP POP SWAP3 SWAP2 POP POP JUMP JUMPDEST PUSH0 PUSH1 0x20 DUP3 ADD SWAP1 POP DUP2 DUP2 SUB PUSH0 DUP4 ADD MSTORE PUSH2 0x1C88 DUP2 DUP5 PUSH2 0x1C14 JUMP JUMPDEST SWAP1 POP SWAP3 SWAP2 POP POP JUMP JUMPDEST PUSH0 DUP3 DUP3 MSTORE PUSH1 0x20 DUP3 ADD SWAP1 POP SWAP3 SWAP2 POP POP JUMP JUMPDEST PUSH32 0x416C7265616479206C61756E6368656400000000000000000000000000000000 PUSH0 DUP3 ADD MSTORE POP JUMP JUMPDEST PUSH0 PUSH2 0x1CD4 PUSH1 0x10 DUP4 PUSH2 0x1C90 JUMP JUMPDEST SWAP2 POP PUSH2 0x1CDF DUP3 PUSH2 0x1CA0 JUMP JUMPDEST PUSH1 0x20 DUP3 ADD SWAP1 POP SWAP2 SWAP1 POP JUMP JUMPDEST PUSH0 PUSH1 0x20 DUP3 ADD SWAP1 POP DUP2 DUP2 SUB PUSH0 DUP4 ADD MSTORE PUSH2 0x1D01 DUP2 PUSH2 0x1CC8 JUMP JUMPDEST SWAP1 POP SWAP2 SWAP1 POP JUMP JUMPDEST PUSH32 0x4E6F7468696E6720746F207465726D696E617465000000000000000000000000 PUSH0 DUP3 ADD MSTORE POP JUMP JUMPDEST PUSH0 PUSH2 0x1D3C PUSH1 0x14 DUP4 PUSH2 0x1C90 JUMP JUMPDEST SWAP2 POP PUSH2 0x1D47 DUP3 PUSH2 0x1D08 JUMP JUMPDEST PUSH1 0x20 DUP3 ADD SWAP1 POP SWAP2 SWAP1 POP JUMP JUMPDEST PUSH0 PUSH1 0x20 DUP3 ADD SWAP1 POP DUP2 DUP2 SUB PUSH0 DUP4 ADD MSTORE PUSH2 0x1D69 DUP2 PUSH2 0x1D30 JUMP JUMPDEST SWAP1 POP SWAP2 SWAP1 POP JUMP JUMPDEST PUSH32 0x4E487B7100000000000000000000000000000000000000000000000000000000 PUSH0 MSTORE PUSH1 0x32 PUSH1 0x4 MSTORE PUSH1 0x24 PUSH0 REVERT JUMPDEST PUSH32 0x5374616B696E67206E6F7420636F6D706C657465000000000000000000000000 PUSH0 DUP3 ADD MSTORE POP JUMP JUMPDEST PUSH0 PUSH2 0x1DD1 PUSH1 0x14 DUP4 PUSH2 0x1C90 JUMP JUMPDEST SWAP2 POP PUSH2 0x1DDC DUP3 PUSH2 0x1D9D JUMP JUMPDEST PUSH1 0x20 DUP3 ADD SWAP1 POP SWAP2 SWAP1 POP JUMP JUMPDEST PUSH0 PUSH1 0x20 DUP3 ADD SWAP1 POP DUP2 DUP2 SUB PUSH0 DUP4 ADD MSTORE PUSH2 0x1DFE DUP2 PUSH2 0x1DC5 JUMP JUMPDEST SWAP1 POP SWAP2 SWAP1 POP JUMP JUMPDEST PUSH32 0x4E487B7100000000000000000000000000000000000000000000000000000000 PUSH0 MSTORE PUSH1 0x11 PUSH1 0x4 MSTORE PUSH1 0x24 PUSH0 REVERT JUMPDEST PUSH0 PUSH2 0x1E3C DUP3 PUSH2 0x1953 JUMP JUMPDEST SWAP2 POP PUSH2 0x1E47 DUP4 PUSH2 0x1953 JUMP JUMPDEST SWAP3 POP DUP3 DUP3 MUL PUSH2 0x1E55 DUP2 PUSH2 0x1953 JUMP JUMPDEST SWAP2 POP DUP3 DUP3 DIV DUP5 EQ DUP4 ISZERO OR PUSH2 0x1E6C JUMPI PUSH2 0x1E6B PUSH2 0x1E05 JUMP JUMPDEST JUMPDEST POP SWAP3 SWAP2 POP POP JUMP JUMPDEST PUSH32 0x4E487B7100000000000000000000000000000000000000000000000000000000 PUSH0 MSTORE PUSH1 0x12 PUSH1 0x4 MSTORE PUSH1 0x24 PUSH0 REVERT JUMPDEST PUSH0 PUSH2 0x1EAA DUP3 PUSH2 0x1953 JUMP JUMPDEST SWAP2 POP PUSH2 0x1EB5 DUP4 PUSH2 0x1953 JUMP JUMPDEST SWAP3 POP DUP3 PUSH2 0x1EC5 JUMPI PUSH2 0x1EC4 PUSH2 0x1E73 JUMP JUMPDEST JUMPDEST DUP3 DUP3 DIV SWAP1 POP SWAP3 SWAP2 POP POP JUMP JUMPDEST PUSH0 PUSH1 0x40 DUP3 ADD SWAP1 POP PUSH2 0x1EE3 PUSH0 DUP4 ADD DUP6 PUSH2 0x1AD2 JUMP JUMPDEST PUSH2 0x1EF0 PUSH1 0x20 DUP4 ADD DUP5 PUSH2 0x1AD2 JUMP JUMPDEST SWAP4 SWAP3 POP POP POP JUMP JUMPDEST PUSH0 DUP2 MLOAD SWAP1 POP PUSH2 0x1F05 DUP2 PUSH2 0x195C JUMP JUMPDEST SWAP3 SWAP2 POP POP JUMP JUMPDEST PUSH0 PUSH1 0x20 DUP3 DUP5 SUB SLT ISZERO PUSH2 0x1F20 JUMPI PUSH2 0x1F1F PUSH2 0x194F JUMP JUMPDEST JUMPDEST PUSH0 PUSH2 0x1F2D DUP5 DUP3 DUP6 ADD PUSH2 0x1EF7 JUMP JUMPDEST SWAP2 POP POP SWAP3 SWAP2 POP POP JUMP JUMPDEST PUSH32 0x5374616B696E67206E6F74206163746976650000000000000000000000000000 PUSH0 DUP3 ADD MSTORE POP JUMP JUMPDEST PUSH0 PUSH2 0x1F6A PUSH1 0x12 DUP4 PUSH2 0x1C90 JUMP JUMPDEST SWAP2 POP PUSH2 0x1F75 DUP3 PUSH2 0x1F36 JUMP JUMPDEST PUSH1 0x20 DUP3 ADD SWAP1 POP SWAP2 SWAP1 POP JUMP JUMPDEST PUSH0 PUSH1 0x20 DUP3 ADD SWAP1 POP DUP2 DUP2 SUB PUSH0 DUP4 ADD MSTORE PUSH2 0x1F97 DUP2 PUSH2 0x1F5E JUMP JUMPDEST SWAP1 POP SWAP2 SWAP1 POP JUMP JUMPDEST PUSH32 0x5374616B696E67206E6F74206C69766500000000000000000000000000000000 PUSH0 DUP3 ADD MSTORE POP JUMP JUMPDEST PUSH0 PUSH2 0x1FD2 PUSH1 0x10 DUP4 PUSH2 0x1C90 JUMP JUMPDEST SWAP2 POP PUSH2 0x1FDD DUP3 PUSH2 0x1F9E JUMP JUMPDEST PUSH1 0x20 DUP3 ADD SWAP1 POP SWAP2 SWAP1 POP JUMP JUMPDEST PUSH0 PUSH1 0x20 DUP3 ADD SWAP1 POP DUP2 DUP2 SUB PUSH0 DUP4 ADD MSTORE PUSH2 0x1FFF DUP2 PUSH2 0x1FC6 JUMP JUMPDEST SWAP1 POP SWAP2 SWAP1 POP JUMP JUMPDEST PUSH0 PUSH2 0x2010 DUP3 PUSH2 0x1953 JUMP JUMPDEST SWAP2 POP PUSH2 0x201B DUP4 PUSH2 0x1953 JUMP JUMPDEST SWAP3 POP DUP3 DUP3 ADD SWAP1 POP DUP1 DUP3 GT ISZERO PUSH2 0x2033 JUMPI PUSH2 0x2032 PUSH2 0x1E05 JUMP JUMPDEST JUMPDEST SWAP3 SWAP2 POP POP JUMP JUMPDEST PUSH32 0x42757920706572696F64206F7665720000000000000000000000000000000000 PUSH0 DUP3 ADD MSTORE POP JUMP JUMPDEST PUSH0 PUSH2 0x206D PUSH1 0xF DUP4 PUSH2 0x1C90 JUMP JUMPDEST SWAP2 POP PUSH2 0x2078 DUP3 PUSH2 0x2039 JUMP JUMPDEST PUSH1 0x20 DUP3 ADD SWAP1 POP SWAP2 SWAP1 POP JUMP JUMPDEST PUSH0 PUSH1 0x20 DUP3 ADD SWAP1 POP DUP2 DUP2 SUB PUSH0 DUP4 ADD MSTORE PUSH2 0x209A DUP2 PUSH2 0x2061 JUMP JUMPDEST SWAP1 POP SWAP2 SWAP1 POP JUMP JUMPDEST PUSH32 0x42656C6F77206D696E207374616B650000000000000000000000000000000000 PUSH0 DUP3 ADD MSTORE POP JUMP JUMPDEST PUSH0 PUSH2 0x20D5 PUSH1 0xF DUP4 PUSH2 0x1C90 JUMP JUMPDEST SWAP2 POP PUSH2 0x20E0 DUP3 PUSH2 0x20A1 JUMP JUMPDEST PUSH1 0x20 DUP3 ADD SWAP1 POP SWAP2 SWAP1 POP JUMP JUMPDEST PUSH0 PUSH1 0x20 DUP3 ADD SWAP1 POP DUP2 DUP2 SUB PUSH0 DUP4 ADD MSTORE PUSH2 0x2102 DUP2 PUSH2 0x20C9 JUMP JUMPDEST SWAP1 POP SWAP2 SWAP1 POP JUMP JUMPDEST PUSH32 0x45786365656473206D6178207374616B65000000000000000000000000000000 PUSH0 DUP3 ADD MSTORE POP JUMP JUMPDEST PUSH0 PUSH2 0x213D PUSH1 0x11 DUP4 PUSH2 0x1C90 JUMP JUMPDEST SWAP2 POP PUSH2 0x2148 DUP3 PUSH2 0x2109 JUMP JUMPDEST PUSH1 0x20 DUP3 ADD SWAP1 POP SWAP2 SWAP1 POP JUMP JUMPDEST PUSH0 PUSH1 0x20 DUP3 ADD SWAP1 POP DUP2 DUP2 SUB PUSH0 DUP4 ADD MSTORE PUSH2 0x216A DUP2 PUSH2 0x2131 JUMP JUMPDEST SWAP1 POP SWAP2 SWAP1 POP JUMP JUMPDEST PUSH32 0x4578636565647320746F74616C20706F6F6C0000000000000000000000000000 PUSH0 DUP3 ADD MSTORE POP JUMP JUMPDEST PUSH0 PUSH2 0x21A5 PUSH1 0x12 DUP4 PUSH2 0x1C90 JUMP JUMPDEST SWAP2 POP PUSH2 0x21B0 DUP3 PUSH2 0x2171 JUMP JUMPDEST PUSH1 0x20 DUP3 ADD SWAP1 POP SWAP2 SWAP1 POP JUMP JUMPDEST PUSH0 PUSH1 0x20 DUP3 ADD SWAP1 POP DUP2 DUP2 SUB PUSH0 DUP4 ADD MSTORE PUSH2 0x21D2 DUP2 PUSH2 0x2199 JUMP JUMPDEST SWAP1 POP SWAP2 SWAP1 POP JUMP JUMPDEST PUSH32 0x5374616B65206E6F7420656E6465640000000000000000000000000000000000 PUSH0 DUP3 ADD MSTORE POP JUMP JUMPDEST PUSH0 PUSH2 0x220D PUSH1 0xF DUP4 PUSH2 0x1C90 JUMP JUMPDEST SWAP2 POP PUSH2 0x2218 DUP3 PUSH2 0x21D9 JUMP JUMPDEST PUSH1 0x20 DUP3 ADD SWAP1 POP SWAP2 SWAP1 POP JUMP JUMPDEST PUSH0 PUSH1 0x20 DUP3 ADD SWAP1 POP DUP2 DUP2 SUB PUSH0 DUP4 ADD MSTORE PUSH2 0x223A DUP2 PUSH2 0x2201 JUMP JUMPDEST SWAP1 POP SWAP2 SWAP1 POP JUMP JUMPDEST PUSH32 0x5265656E7472616E637947756172643A207265656E7472616E742063616C6C00 PUSH0 DUP3 ADD MSTORE POP JUMP JUMPDEST PUSH0 PUSH2 0x2275 PUSH1 0x1F DUP4 PUSH2 0x1C90 JUMP JUMPDEST SWAP2 POP PUSH2 0x2280 DUP3 PUSH2 0x2241 JUMP JUMPDEST PUSH1 0x20 DUP3 ADD SWAP1 POP SWAP2 SWAP1 POP JUMP JUMPDEST PUSH0 PUSH1 0x20 DUP3 ADD SWAP1 POP DUP2 DUP2 SUB PUSH0 DUP4 ADD MSTORE PUSH2 0x22A2 DUP2 PUSH2 0x2269 JUMP JUMPDEST SWAP1 POP SWAP2 SWAP1 POP JUMP JUMPDEST PUSH0 PUSH1 0x40 DUP3 ADD SWAP1 POP PUSH2 0x22BC PUSH0 DUP4 ADD DUP6 PUSH2 0x19E1 JUMP JUMPDEST PUSH2 0x22C9 PUSH1 0x20 DUP4 ADD DUP5 PUSH2 0x1AD2 JUMP JUMPDEST SWAP4 SWAP3 POP POP POP JUMP JUMPDEST PUSH0 PUSH1 0x60 DUP3 ADD SWAP1 POP PUSH2 0x22E3 PUSH0 DUP4 ADD DUP7 PUSH2 0x19E1 JUMP JUMPDEST PUSH2 0x22F0 PUSH1 0x20 DUP4 ADD DUP6 PUSH2 0x19E1 JUMP JUMPDEST PUSH2 0x22FD PUSH1 0x40 DUP4 ADD DUP5 PUSH2 0x1AD2 JUMP JUMPDEST SWAP5 SWAP4 POP POP POP POP JUMP INVALID LOG2 PUSH5 0x6970667358 0x22 SLT KECCAK256 MCOPY DUP10 BLOCKHASH SWAP2 0x25 CREATE2 0xC9 NUMBER 0xB6 DUP4 PUSH31 0x2FCB642ABFB4FB5E2958F7363817E02A4D74F42EB264736F6C634300081E00 CALLER "
				},
				"gasEstimates": {
					"creation": {
						"codeDepositCost": "1803800",
						"executionCost": "infinite",
						"totalCost": "infinite"
					},
					"external": {
						"buyDuration()": "infinite",
						"completeStaking()": "infinite",
						"distributeRewards()": "infinite",
						"getStakedUsers()": "infinite",
						"getStakingStatus()": "2606",
						"landFiToken()": "infinite",
						"launch()": "infinite",
						"launchStaking()": "2533",
						"launchTime()": "2536",
						"maxStake()": "infinite",
						"maxTotalStake()": "infinite",
						"minStake()": "infinite",
						"owner()": "2604",
						"pause()": "infinite",
						"previewReward(uint256)": "infinite",
						"renounceOwnership()": "infinite",
						"rewardToken()": "infinite",
						"rewardTotal()": "infinite",
						"stake(uint256)": "infinite",
						"stakeDuration()": "infinite",
						"stakedList(uint256)": "5013",
						"stakingStatus()": "2600",
						"teamWallet()": "infinite",
						"terminateAll()": "infinite",
						"terminateSingle(address)": "infinite",
						"totalStaked()": "2471",
						"transferOwnership(address)": "infinite",
						"unpause()": "infinite",
						"userStakes(address)": "2847"
					}
				},
				"methodIdentifiers": {
					"buyDuration()": "e9b98746",
					"completeStaking()": "fe1d3795",
					"distributeRewards()": "6f4a2cd0",
					"getStakedUsers()": "d719fa97",
					"getStakingStatus()": "cab9b8fb",
					"landFiToken()": "292a6b19",
					"launch()": "01339c21",
					"launchStaking()": "a30a2474",
					"launchTime()": "790ca413",
					"maxStake()": "ea1b28e0",
					"maxTotalStake()": "64904071",
					"minStake()": "375b3c0a",
					"owner()": "8da5cb5b",
					"pause()": "8456cb59",
					"previewReward(uint256)": "b973e1bf",
					"renounceOwnership()": "715018a6",
					"rewardToken()": "f7c618c1",
					"rewardTotal()": "f959680b",
					"stake(uint256)": "a694fc3a",
					"stakeDuration()": "40f02ab6",
					"stakedList(uint256)": "02ac512f",
					"stakingStatus()": "455ab53c",
					"teamWallet()": "59927044",
					"terminateAll()": "4f984c5c",
					"terminateSingle(address)": "10d63d03",
					"totalStaked()": "817b1cd2",
					"transferOwnership(address)": "f2fde38b",
					"unpause()": "3f4ba83a",
					"userStakes(address)": "8da7ad23"
				}
			},
			"storageLayout": {
				"storage": [
					{
						"astId": 8,
						"contract": "contracts/LandFiStake3.sol:LandFiStaking",
						"label": "_owner",
						"offset": 0,
						"slot": "0",
						"type": "t_address"
					},
					{
						"astId": 248,
						"contract": "contracts/LandFiStake3.sol:LandFiStaking",
						"label": "_status",
						"offset": 0,
						"slot": "1",
						"type": "t_uint256"
					},
					{
						"astId": 930,
						"contract": "contracts/LandFiStake3.sol:LandFiStaking",
						"label": "launchStaking",
						"offset": 0,
						"slot": "2",
						"type": "t_bool"
					},
					{
						"astId": 932,
						"contract": "contracts/LandFiStake3.sol:LandFiStaking",
						"label": "launchTime",
						"offset": 0,
						"slot": "3",
						"type": "t_uint256"
					},
					{
						"astId": 937,
						"contract": "contracts/LandFiStake3.sol:LandFiStaking",
						"label": "stakingStatus",
						"offset": 0,
						"slot": "4",
						"type": "t_enum(Status)907"
					},
					{
						"astId": 939,
						"contract": "contracts/LandFiStake3.sol:LandFiStaking",
						"label": "totalStaked",
						"offset": 0,
						"slot": "5",
						"type": "t_uint256"
					},
					{
						"astId": 943,
						"contract": "contracts/LandFiStake3.sol:LandFiStaking",
						"label": "userStakes",
						"offset": 0,
						"slot": "6",
						"type": "t_mapping(t_address,t_uint256)"
					},
					{
						"astId": 946,
						"contract": "contracts/LandFiStake3.sol:LandFiStaking",
						"label": "stakedList",
						"offset": 0,
						"slot": "7",
						"type": "t_array(t_address)dyn_storage"
					}
				],
				"types": {
					"t_address": {
						"encoding": "inplace",
						"label": "address",
						"numberOfBytes": "20"
					},
					"t_array(t_address)dyn_storage": {
						"base": "t_address",
						"encoding": "dynamic_array",
						"label": "address[]",
						"numberOfBytes": "32"
					},
					"t_bool": {
						"encoding": "inplace",
						"label": "bool",
						"numberOfBytes": "1"
					},
					"t_enum(Status)907": {
						"encoding": "inplace",
						"label": "enum LandFiStaking.Status",
						"numberOfBytes": "1"
					},
					"t_mapping(t_address,t_uint256)": {
						"encoding": "mapping",
						"key": "t_address",
						"label": "mapping(address => uint256)",
						"numberOfBytes": "32",
						"value": "t_uint256"
					},
					"t_uint256": {
						"encoding": "inplace",
						"label": "uint256",
						"numberOfBytes": "32"
					}
				}
			},
			"userdoc": {
				"kind": "user",
				"methods": {},
				"version": 1
			}
		}
	}
}